:020000040800F2
:1000000000000220CD990008E5710008ED7100089C
:10001000F5710008FD71000805720008000000007D
:100020000000000000000000000000000D72000849
:100030001B720008000000002972000837720008D7
:100040001D9A00081D9A00081D9A00081D9A0008B4
:100050001D9A00081D9A00081D9A00081D9A0008A4
:100060001D9A00081D9A00081D9A00081D9A000894
:100070001D9A00081D9A00081D9A00081D9A000884
:10008000457200081D9A00081D9A00080000000033
:100090000000000000000000000000001D9A0008A1
:1000A0001D9A00081D9A00081D9A00081D9A000854
:1000B000597200081D9A00086D7200081D9A000808
:1000C0001D9A00081D9A00081D9A000881720008F8
:1000D0001D9A000895720008A9720008000000002F
:1000E0001D9A00081D9A00081D9A000800000000D3
:1000F0000000000000000000000000001D9A000841
:10010000000000001D9A00081D9A00081D9A0008B2
:1001100000000000000000000000000000000000DF
:100120001D9A00081D9A00081D9A00081D9A0008D3
:100130001D9A000800000000000000000000000000
:100140000000000000000000000000001D9A0008F0
:100150001D9A00081D9A0008BD7200081D9A00082B
:100160001D9A00081D9A0008000000000000000011
:10017000000000000000000000000000000000007F
:10018000000000001D9A00080000000000000000B0
:080190001D9A00081D9A0008E9
:1001A00010B5054C237833B9044B13B10448AFF3B1
:1001B00000800123237010BDE0010020000000003A
:1001C000486D010808B5034B1BB103490348AFF361
:1001D000008008BD00000000E4010020486D010817
:1001E00001F0FF01102A2BDB10F0070F08D010F8E8
:1001F000013B013A8B422DD010F0070F42B3F6D1EC
:10020000F0B441EA012141EA014122F007047FF004
:1002100000070023F0E80256083C85EA010586EA5B
:10022000010685FA47F5A3FA87F586FA47F6A5FA97
:1002300087F68EB9EED1F0BC01F0FF0102F00702A3
:1002400032B110F8013B013A83EA010313B1F8D14E
:100250000020704701387047002D06BF354603382F
:10026000073815F0010F07D1013015F4807F02BF68
:10027000013015F4C03F0130F0BC0138704700BFB9
:10028000034613F8012B002AFBD1181A01387047D6
:1002900081F0004102E000BF83F0004330B54FEA37
:1002A00041044FEA430594EA050F08BF90EA020FA4
:1002B0001FBF54EA000C55EA020C7FEA645C7FEA37
:1002C000655C00F0E2804FEA5454D4EB5555B8BF5A
:1002D0006D420CDD2C4480EA020281EA030382EACB
:1002E000000083EA010180EA020281EA0303362D5D
:1002F00088BF30BD11F0004F4FEA01314FF4801C30
:100300004CEA113102D0404261EB410113F0004F41
:100310004FEA03334CEA133302D0524263EB4303F8
:1003200094EA050F00F0A780A4F10104D5F1200E96
:100330000DDB02FA0EFC22FA05F2801841F10001F1
:1003400003FA0EF2801843FA05F359410EE0A5F1C5
:1003500020050EF1200E012A03FA0EFC28BF4CF0F6
:10036000020C43FA05F3C01851EBE37101F00045AC
:1003700007D54FF0000EDCF1000C7EEB00006EEBB9
:100380000101B1F5801F1BD3B1F5001F0CD3490843
:100390005FEA30004FEA3C0C04F101044FEA44529A
:1003A00012F5800F80F09A80BCF1004F08BF5FEA21
:1003B000500C50F1000041EB045141EA050130BD01
:1003C0005FEA4C0C404141EB0101013C28BFB1F513
:1003D000801FE9D291F0000F04BF01460020B1FA5E
:1003E00081F308BF2033A3F10B03B3F120020CDA31
:1003F0000C3208DD02F1140CC2F10C0201FA0CF00F
:1004000021FA02F10CE002F11402D8BFC2F1200C73
:1004100001FA02F120FA0CFCDCBF41EA0C01904029
:10042000E41AA2BF01EB0451294330BD6FEA040472
:100430001F3C1CDA0C340EDC04F11404C4F120025D
:1004400020FA04F001FA02F340EA030021FA04F36F
:1004500045EA030130BDC4F10C04C4F1200220FAC6
:1004600002F001FA04F340EA0300294630BD21FA04
:1004700004F0294630BD94F0000F83F4801306BFCA
:1004800081F480110134013D4EE77FEA645C18BFBE
:100490007FEA655C29D094EA050F08BF90EA020F55
:1004A00005D054EA000C04BF1946104630BD91EA4D
:1004B000030F1EBF0021002030BD5FEA545C05D150
:1004C0004000494128BF41F0004130BD14F580048F
:1004D0003CBF01F5801130BD01F0004545F0FE4103
:1004E00041F470014FF0000030BD7FEA645C1ABF38
:1004F000194610467FEA655C1CBF0B46024650EA6F
:10050000013406BF52EA033591EA030F41F400219A
:1005100030BD00BF90F0000F04BF0021704730B520
:100520004FF4806404F132044FF000054FF00001F5
:1005300050E700BF90F0000F04BF0021704730B5B6
:100540004FF4806404F1320410F0004548BF40428B
:100550004FF000013EE700BF42004FEAE2014FEAE0
:1005600031014FEA02701FBF12F07F4393F07F4FBB
:1005700081F06051704732F07F4208BF704793F0BE
:100580007F4F04BF41F40021704730B54FF46074D1
:1005900001F0004521F000411CE700BF50EA0102D4
:1005A00008BF704730B54FF000050AE050EA01027D
:1005B00008BF704730B511F0004502D5404261EBED
:1005C00041014FF4806404F132045FEA915C3FF42E
:1005D000D8AE4FF003025FEADC0C18BF03325FEACB
:1005E000DC0C18BF033202EBDC02C2F1200300FA7C
:1005F00003FC20FA02F001FA03FE40EA0E0021FAA1
:1006000002F11444BDE600BF70B54FF0FF0C4CF48E
:10061000E06C1CEA11541DBF1CEA135594EA0C0F40
:1006200095EA0C0F00F0DEF82C4481EA030621EA7B
:100630004C5123EA4C5350EA013518BF52EA0335B6
:1006400041F4801143F4801338D0A0FB02CE4FF068
:100650000005E1FB02E506F00042E0FB03E54FF098
:100660000006E1FB03569CF0000F18BF4EF0010E90
:10067000A4F1FF04B6F5007F64F5407404D25FEA8C
:100680004E0E6D4146EB060642EAC62141EA55513F
:100690004FEAC52040EA5E504FEACE2EB4F1FD0C81
:1006A00088BFBCF5E06F1ED8BEF1004F08BF5FEAFF
:1006B000500E50F1000041EB045170BD06F00046B1
:1006C00046EA010140EA020081EA0301B4EB5C045E
:1006D000C2BFD4EB0C0541EA045170BD41F4801156
:1006E0004FF0000E013C00F3AB8014F1360FDEBF7B
:1006F000002001F0004170BDC4F10004203C35DA57
:100700000C341BDC04F11404C4F1200500FA05F3D9
:1007100020FA04F001FA05F240EA020001F000427A
:1007200021F0004110EBD37021FA04F642EB0601F0
:100730005EEA430E08BF20EAD37070BDC4F10C041A
:10074000C4F1200500FA04F320FA05F001FA04F2DE
:1007500040EA020001F0004110EBD37041F10001CA
:100760005EEA430E08BF20EAD37070BDC4F12005D5
:1007700000FA05F24EEA020E20FA04F301FA05F23D
:1007800043EA020321FA04F001F0004121FA04F2E5
:1007900020EA020000EBD3705EEA430E08BF20EAB5
:1007A000D37070BD94F0000F0FD101F000464000EF
:1007B00041EB010111F4801F08BF013CF7D041EA71
:1007C000060195F0000F18BF704703F00046520075
:1007D00043EB030313F4801F08BF013DF7D043EA46
:1007E0000603704794EA0C0F0CEA135518BF95EAFC
:1007F0000C0F0CD050EA410618BF52EA4306D1D183
:1008000081EA030101F000414FF0000070BD50EAA1
:10081000410606BF1046194652EA430619D094EA2B
:100820000C0F02D150EA013613D195EA0C0F05D115
:1008300052EA03361CBF104619460AD181EA030169
:1008400001F0004141F0FE4141F470014FF0000021
:1008500070BD41F0FE4141F4780170BD70B54FF0BC
:10086000FF0C4CF4E06C1CEA11541DBF1CEA13553C
:1008700094EA0C0F95EA0C0F00F0A7F8A4EB05041E
:1008800081EA030E52EA03354FEA013100F0888015
:100890004FEA03334FF0805545EA131343EA1263DE
:1008A0004FEA022245EA111545EA10654FEA002693
:1008B0000EF000419D4208BF964244F1FD0404F54C
:1008C000407402D25B084FEA3202B61A65EB0305A8
:1008D0005B084FEA32024FF480104FF4002CB6EB65
:1008E000020E75EB030E22BFB61A754640EA0C00E5
:1008F0005B084FEA3202B6EB020E75EB030E22BF25
:10090000B61A754640EA5C005B084FEA3202B6EB65
:10091000020E75EB030E22BFB61A754640EA9C0024
:100920005B084FEA3202B6EB020E75EB030E22BFF4
:10093000B61A754640EADC0055EA060E18D04FEAB2
:10094000051545EA16754FEA06164FEAC30343EA52
:1009500052734FEAC2025FEA1C1CC0D111F4801F1F
:100960000BD141EA00014FF000004FF0004CB6E718
:1009700011F4801F04BF01430020B4F1FD0C88BFB7
:10098000BCF5E06F3FF6AFAEB5EB030C04BFB6EBC2
:10099000020C5FEA500C50F1000041EB045170BDB5
:1009A0000EF0004E4EEA113114EB5C04C2BFD4EBE2
:1009B0000C0541EA045170BD41F480114FF0000E66
:1009C000013C90E645EA060E8DE60CEA135594EAE2
:1009D0000C0F08BF95EA0C0F3FF43BAF94EA0C0FE5
:1009E0000AD150EA01347FF434AF95EA0C0F7FF45A
:1009F00025AF104619462CE795EA0C0F06D152EAAE
:100A000003353FF4FDAE1046194622E750EA410691
:100A100018BF52EA43067FF4C5AE50EA41047FF4A2
:100A20000DAF52EA43057FF4EBAE12E74FF0FF3C07
:100A300006E000BF4FF0010C02E000BF4FF0010CD8
:100A40004DF804CD4FEA410C7FEA6C5C4FEA430C51
:100A500018BF7FEA6C5C1BD001B050EA410C0CBFA0
:100A600052EA430C91EA030F02BF90EA020F002002
:100A7000704710F1000F91EA030F58BF994208BF69
:100A800090422CBFD8176FEAE37040F00100704726
:100A90004FEA410C7FEA6C5C02D150EA013C07D17D
:100AA0004FEA430C7FEA6C5CD6D152EA033CD3D0C8
:100AB0005DF8040B704700BF8446104662468C46C2
:100AC0001946634600E000BF01B5FFF7B7FF0028F5
:100AD00048BF10F1000F01BD4DF808EDFFF7F4FF1E
:100AE0000CBF012000205DF808FB00BF4DF808EDA9
:100AF000FFF7EAFF34BF012000205DF808FB00BFCC
:100B00004DF808EDFFF7E0FF94BF012000205DF8ED
:100B100008FB00BF4DF808EDFFF7CEFF94BF0120A2
:100B200000205DF808FB00BF4DF808EDFFF7C4FF9B
:100B300034BF012000205DF808FB00BF4FEA410CE4
:100B40007FEA6C5C02D150EA013C0AD14FEA430CC7
:100B50007FEA6C5C02D152EA033C02D14FF0000004
:100B600070474FF0010070474FEA410212F5001242
:100B700015D211D56FF47873B3EB625212D94FEAE4
:100B8000C12343F0004343EA505311F0004F23FACE
:100B900002F018BF404270474FF00000704750EA23
:100BA000013005D111F0004008BF6FF000407047E0
:100BB0004FF00000704700BF4A0011D212F500123A
:100BC00011D20DD56FF47873B3EB62520ED44FEAA5
:100BD000C12343F0004343EA505323FA02F0704725
:100BE0004FF00000704750EA013002D14FF0FF3063
:100BF00070474FF0000070474FEA4102B2F1E04306
:100C000024BFB3F5001CDCF1FE5C0DD901F0004CF3
:100C10004FEAC0024CEA5070B2F1004F40EB830043
:100C200008BF20F00100704711F0804F21D113F16F
:100C30003872BCBF01F00040704741F480114FEAA8
:100C40005252C2F11802C2F1200C10FA0CF320FA31
:100C500002F018BF40F001004FEAC1234FEAD3234E
:100C600003FA0CFC40EA0C0023FA02F34FEA4303B8
:100C7000CCE77FEA625307D150EA01331EBF4FF041
:100C8000FE4040F44000704701F0004040F0FE405C
:100C900040F40000704700BF80F0004002E000BF59
:100CA00081F0004142001FBF5FEA410392EA030F57
:100CB0007FEA226C7FEA236C6AD04FEA1262D2EBA1
:100CC0001363C1BFD218414048404140B8BF5B42A6
:100CD000192B88BF704710F0004F40F4000020F03F
:100CE0007F4018BF404211F0004F41F4000121F055
:100CF0007F4118BF494292EA030F3FD0A2F101029F
:100D000041FA03FC10EB0C00C3F1200301FA03F1DC
:100D100000F0004302D5494260EB4000B0F5000FFF
:100D200013D3B0F1807F06D340084FEA310102F1BE
:100D30000102FE2A51D2B1F1004F40EBC25008BF70
:100D400020F0010040EA03007047490040EB00003A
:100D5000013A28BFB0F5000FEDD2B0FA80FCACF13B
:100D6000080CB2EB0C0200FA0CF0AABF00EBC25068
:100D700052421843BCBFD0401843704792F0000F56
:100D800081F4000106BF80F400000132013BB5E7A9
:100D90004FEA41037FEA226C18BF7FEA236C21D01F
:100DA00092EA030F04D092F0000F08BF0846704784
:100DB00090EA010F1CBF0020704712F07F4F04D152
:100DC000400028BF40F00040704712F100723CBF65
:100DD00000F50000704700F0004343F0FE4040F48F
:100DE000000070477FEA226216BF08467FEA23634D
:100DF0000146420206BF5FEA412390EA010F40F438
:100E0000800070474FF0000304E000BF10F0004383
:100E100048BF40425FEA000C08BF704743F096436A
:100E200001464FF000001CE050EA010208BF704785
:100E30004FF000030AE000BF50EA010208BF70470C
:100E400011F0004302D5404261EB41015FEA010C21
:100E500002BF84460146002043F0B64308BFA3F119
:100E60008053A3F50003BCFA8CF2083AA3EBC253FB
:100E700010DB01FA02FC634400FA02FCC2F120021A
:100E8000BCF1004F20FA02F243EB020008BF20F051
:100E90000100704702F1200201FA02FCC2F12002B7
:100EA00050EA4C0021FA02F243EB020008BF20EAAC
:100EB000DC70704753B94AB9002908BF00281CBF2D
:100EC0004FF0FF314FF0FF3000F0BEB9ADF1080C2C
:100ED0006DE904CE00F03CF8DDF804E0DDE9022322
:100EE00004B0704738B50022002304460D46FFF7D2
:100EF000FDFD28B920462946BDE8384000F00AB873
:100F0000204605F1004100F005F8404261EB410147
:100F100038BD00BFD0B50C4B002206460F46FFF788
:100F200073FBFFF749FE0446FFF7F4FA074B002274
:100F3000FFF76AFB02460B4630463946FFF7ACF92D
:100F4000FFF73AFE2146D0BD0000F03D0000F04121
:100F50002DE9F047089D8E4604468846002B4AD16D
:100F60008A42174662D9B2FA82F64EB1C6F1200320
:100F700001FA06F820FA03F3B74043EA0808B44040
:100F80004FEA174E1FFA87FCB8FBFEF1230C0EFB4D
:100F9000118843EA084301FB0CF29A4209D9FB1875
:100FA00001F1FF3080F0EA809A4240F2E780023996
:100FB0003B449A1AA3B2B2FBFEF00EFB102243EAA6
:100FC000024300FB0CFC9C4509D9FB1800F1FF32E1
:100FD00080F0D6809C4540F2D3803B44023840EA02
:100FE0000140A3EB0C0300211DB1F3400022C5E931
:100FF0000032BDE8F0878B4205D90DB1C5E900018B
:1010000000210846F5E7B3FA83F1002946D173457C
:1010100002D3824200F20581841A6EEB03020120A2
:101020009046002DE5D0C5E90048E2E7002A00F02F
:101030009080B2FA82F6002E40F0A4808A1A030C47
:101040004FEA174E80B2BCB20121B2FBFEFC0EFB90
:101050001C2243EA024304FB0CF29A4207D9FB1814
:101060000CF1FF3802D29A4200F2E080C4469B1A8B
:10107000B3FBFEF20EFB123340EA034302FB04F41F
:101080009C4207D9FB1802F1FF3002D29C4200F2C9
:10109000CA8002461B1B42EA0C40A5E7C1F12006AC
:1010A0008B4022FA06F71F430EFA01F420FA06F3EA
:1010B0002EFA06FE4FEA1749234300FA01F81FFAF9
:1010C00087FCBEFBF9F01C0C09FB10EE44EA0E4451
:1010D00000FB0CFEA64502FA01F209D93C1900F109
:1010E000FF3A80F09C80A64540F2998002383C444B
:1010F000A4EB0E041FFA83FEB4FBF9F309FB1344BF
:101100004EEA044403FB0CFCA44508D93C1903F146
:10111000FF3E80F08280A4457FD9023B3C4443EAF5
:101120000040A4EB0C04A0FB02EC64457346E146CE
:1011300062D35FD05DB1B8EB030264EB090404FA3B
:1011400006F622FA01F31E43CC40C5E900640021F3
:101150004FE7B1FBF2FC010C41EA0E4180B240EADC
:1011600001423B4638463C46B846BE462026B1FBC7
:10117000F7F1A2EB080241EA0C4166E7014618E7E5
:1011800010462CE7C6F120022EFA02F3B740B14018
:1011900020FA02F24FEA174E0A43B3FBFEF8BCB244
:1011A0000EFB1833110C41EA034108FB04F9B0406F
:1011B00089454FEA104380B23ED9791808F1FF3CC7
:1011C00001D289451FD8A1EB0901B1FBFEF909FB4A
:1011D00004F80EFB191192B242EA0142424529D2AB
:1011E000BA1809F1FF31C4D24245C2D2A9F10201B5
:1011F0003A44BEE7F0459DD2BEEB02036CEB070C10
:101200000138E14696E7A7EB09094944A8F1020C29
:10121000B1FBFEF909FB04F8DBE773467FE75046B4
:1012200066E70846FDE63B44023A33E7ACF1020CC0
:101230003B441CE749469CE7A1EB0901C446B1FBCE
:10124000FEF909FB04F8C4E7704700BF0000000086
:1012500080B500AF444B1B68002B7CD1434B35223B
:101260001A6043494FF00002424BC1E90023424952
:101270004FF000024FF48013C1E900233F4938A327
:10128000D3E90023C1E900233D4B14221A603C4BF3
:101290001A68364B1B6813440A333A4A1360364BBC
:1012A00093ED007BB0EE470AF0EE670A12F080FA89
:1012B000B0EE407AF0EE607A334B83ED007B2C4B3E
:1012C000D3E900233149C1E90023304BD3E90001C0
:1012D0004FF000022E4BFFF797F902460B462D49BF
:1012E000C1E90023294B93ED007BB0EE470AF0EEF5
:1012F000670A12F05DFAB0EE407AF0EE607A264BA3
:1013000083ED007B214BD3E900232449C1E900236D
:10131000214BD3E900014FF00002214BFFF774F994
:1013200002460B461F49C1E90023144BD3E90001D3
:101330004FF000021C4BFFF791FA02460B461B4987
:10134000C1E900231A494FF000021A4BC1E90023FA
:10135000054B01221A6000BF80BD00BFAFF30080C3
:10136000182D4454FB210940FC01002000020020FC
:10137000100200200000B03C1802002020020020D3
:101380000402002008020020380200204002002051
:10139000000069404802002050020020580200204E
:1013A00000408F406002002000806640280200203C
:1013B000300200200000F87F80B582B000AF87EDDA
:1013C000000BD7E90023D7E90001FFF71DF902461A
:1013D0000B4643EC172BB0EE470AF0EE670A0837CE
:1013E000BD4680BD80B586B000AFF860B96087EDBE
:1013F000000BFB68002B06DBBB6803F10802BA6038
:10140000D3E9002303E04FF000024FF00003C7E9E7
:10141000042315E0D7E90023D7E90401FFF7F4F826
:1014200002460B4610461946BB6803F10802BA6033
:10143000D3E90023FEF732FF02460B46C7E9042337
:10144000FB68013BFB60FB68002BE3DAD7E9042370
:1014500043EC172BB0EE470AF0EE670A1837BD468B
:1014600080BD80B485B000AF786039607B68D3E917
:101470000023C7E902233B68D3E900237968C1E967
:1014800000233968D7E90223C1E9002300BF1437DC
:10149000BD465DF8047B704780B584B000AF7860CE
:1014A00039607B6893ED007B3B6893ED006BB0EE99
:1014B000461AF0EE661AB0EE470AF0EE670A12F02E
:1014C00017F987ED020B7B68D3E90001D7E9022306
:1014D000FFF7C4F902460B467968C1E900233B686F
:1014E000D3E90001D7E90223FFF7B8F902460B461A
:1014F0003968C1E9002300BF1037BD4680BD000038
:10150000B0B584B000AF87ED000B9FED151B97EDD4
:10151000000B12F021F987ED020BBC68FB6823F089
:1015200000454FF00002124B20462946FFF7D4FA3F
:101530000346002B0AD097ED001B9FED0B0B0FF01D
:10154000A1F8B0EE407AF0EE607A01E097ED027B10
:10155000B0EE470AF0EE670A1037BD46B0BD00BFD7
:10156000000000000080764000000000008066401F
:101570000080664080B582B000AF87ED000B386810
:101580007B6823F000414FF000020A4BFFF7CCFAD2
:101590000346002B03D0084BD3E9002301E0D7E931
:1015A000002343EC172BB0EE470AF0EE670A08372A
:1015B000BD4680BD008056403002002080B588B016
:1015C00000AF87ED000B4FF000002049C7E906018E
:1015D0003A68796821F00043C7E90423D7E9042376
:1015E000D7E90601FEF758FE02460B46C7E902237B
:1015F000D7E902014FF000024FF00003FFF794FA21
:101600000346002B08D0D7E90223D7E90601FEF7ED
:1016100043FE02460B4601E0D7E90423C7E9042351
:1016200097ED047B97ED001BB0EE470AF0EE670ADA
:101630000FF028F8B0EE407AF0EE607AB0EE470A8C
:10164000F0EE670A2037BD4680BD00BF0000B03F06
:10165000B0B592B000AF87ED080BF861B961002317
:10166000FB6207F12C0318469FED4D1B97ED080B0D
:1016700012F040FC87ED100B4B4BD3E90023D7E968
:101680001001FEF7C1FF02460B46C7E9102397ED94
:10169000100B12F0ADFA87ED0E0B97ED100B12F058
:1016A0004BFA87ED0C0BFB6A03F00303022B22D0ED
:1016B000022B37D8002B02D0012B0BD032E0F96976
:1016C000D7E90E23C1E90023B969D7E90C23C1E9A1
:1016D000002334E0F969D7E90C23C1E90023BB6B8F
:1016E0003B61FB6B83F000437B61BB6997ED047B3F
:1016F00083ED007B23E0BB6BBB60FB6B83F000439F
:10170000FB60FB6997ED027B83ED007B3B6B3B60ED
:101710007B6B83F000437B60BB6997ED007B83EDBF
:10172000007B0CE03C6B7B6B83F00045FB69C3E9FD
:101730000045B969D7E90E23C1E9002300BFBB69A1
:10174000D3E900014FF000024FF00003FEF7A6FDC1
:1017500002460B46B969C1E90023FB69D3E90001E0
:101760004FF000024FF00003FFF7B6F90346002BDD
:1017700000D111E0FB6993ED007B97ED081BB0EE03
:10178000470AF0EE670A0EF07DFFB0EE407AF0EE09
:10179000607AFB6983ED007B00BF4837BD46B0BD72
:1017A00000000000008056402802002000000000D9
:1017B0002DE9B04388B000AF87ED020B87ED001B29
:1017C0000023FB61D7E90223104623F00041D7E94B
:1017D0000023904623F0004942464B46FFF7A4F908
:1017E0000346002B08D007F108023B461146184675
:1017F000FFF737FE0223FB61D7E9002303F0004324
:10180000002B09D0D7E90023144683F00045C7E92F
:101810000045FB690133FB6197ED027B97ED006B9F
:10182000B0EE461AF0EE661AB0EE470AF0EE670A1E
:1018300011F018FF51EC100B294BD3E90023FFF7EF
:101840000DF802460B46C7E90423FB69032B2AD097
:10185000FB69032B33DCFB69012B03D0FB69022BF3
:1018600015D02CE097ED027BB0EE471AF0EE671A28
:101870009FED190B0EF006FF51EC100BD7E9042376
:10188000FEF70AFD02460B46C7E9042318E0D7E934
:1018900004234FF000001349FEF7FEFC02460B46FE
:1018A000C7E904230CE04FF000020E4BD7E9040116
:1018B000FEF7F2FC02460B46C7E9042300E000BF36
:1018C000D7E9042343EC172BB0EE470AF0EE670A82
:1018D0002037BD46BDE8B0830000000000806640B0
:1018E00028020020008056402DE9B04F2DED048BDA
:1018F00088B000AFF86187ED040B87ED021BBC4B8D
:101900001B68002B01D1FFF7A3FCF969D7E9042379
:10191000C1E90023F969D7E90223C1E90223FB6980
:10192000D3E902234FF00000B249FEF7B5FC0246AE
:101930000B46F969C1E90423FB69D3E90245FB6958
:10194000D3E902234FF000004FF08041FEF7A4FCE2
:1019500002460B4620462946FEF756FE02460B4637
:10196000F969C1E90623FB69D3E90645FB6993EDF3
:10197000047BB0EE470AF0EE670AFFF71DFD53EC5B
:10198000102B20462946FEF769FF02460B46F969EF
:10199000C1E90823FB69D3E90245FB69D3E90223C6
:1019A0004FF000004FF08041FEF776FC02460B46F8
:1019B00020462946FEF752FF02460B46F969C1E967
:1019C0000A23FB69D3E90001FB69D3E90423FEF78D
:1019D0001BFE02460B46F969C1E90C23FB6993ED36
:1019E000007BB0EE470AF0EE670AFFF7E5FC55EC26
:1019F000104BFB6993ED0C7BB0EE470AF0EE670AE3
:101A0000FFF7DAFCB0EE409AF0EE609AFB69D3E99A
:101A100006014FF000024FF00003FFF75DF80346A8
:101A2000002B51D1FB69D3E906014FF000024FF0C2
:101A30000003FFF779F80346002B17D0FB6993EDFD
:101A4000067BB0EE470AF0EE670A11F0B1FEB0EE89
:101A5000407AF0EE607AB0EE470AF0EE670A11F0D5
:101A600003FEB0EE408AF0EE608A18E0FB69D3E92D
:101A700006233A6083F000437B6097ED000B11F082
:101A800097FEB0EE407AF0EE607AB0EE470AF0EEE4
:101A9000670A11F0B9FEB0EE408AF0EE608AFB6989
:101AA000D3E90623924623F0004B4BEC10AB11F028
:101AB0007FFE53EC102B51EC180BFEF7CFFE0246C5
:101AC0000B461046194602E04FF00000494953EC1E
:101AD000192BFEF799FD02460B4620462946FEF7D4
:101AE000DDFB02460B46104619464FF000024FF050
:101AF0008043FEF7B3FE02460B46F969C1E90E23A7
:101B00003D4BD3E9000134A3D3E90023FEF77CFD6C
:101B100002460B4614461D46FB69D3E90223904654
:101B200023F000499FED2E1B49EC108B12F069F950
:101B300059EC108BFB69D3E902014FF000024FF022
:101B40008043FEF78BFE02460B464FF0000029490A
:101B5000FEF7A2FB02460B4643EC172B9FED221B20
:101B6000B0EE470AF0EE670A12F075F953EC102B4D
:101B700040464946FEF748FD02460B4610461946C8
:101B80004FF000024FF08043FEF768FE02460B461E
:101B900043EC172BB0EE470AF0EE670A11F008FE8F
:101BA00053EC102B20462946FEF758FE02460B4602
:101BB000F969C1E91023F86902F0B6F9F86902F091
:101BC00005FAF86902F05EFA00BF2037BD46BDECA9
:101BD000048BBDE8B08F00BF9A9999999999B93F44
:101BE000FCA9F1D24D62503F000000000000F03F20
:101BF000FC0100200000F03F500200202DE9B0431E
:101C00002DED028B98B000AF7863396387ED0A0B36
:101C100087ED081B87ED062B87ED043B87ED024B14
:101C20007A603B6BD3E90023796BC1E906233B6BF8
:101C3000D3E90223796BC1E908233B6BD3E90C2379
:101C4000796BC1E912233B6BD3E90E23796BC1E9B0
:101C500014233B6BD3E90423796BC1E916237B681A
:101C6000002B05D07B6843F4024343F0800301E07E
:101C700048F68B337A6BC2F8F83197ED0A0BFFF711
:101C800079FCB0EE407AF0EE607A7B6B83ED007BFE
:101C9000796BD7E90823C1E90223796BD7E90623D9
:101CA000C1E90423796BD7E90423C1E90A23796BDD
:101CB000D7E90223C1E90C237B6B93ED007BB0EEE7
:101CC000470AF0EE670AFFF779FCB0EE407AF0EED3
:101CD000607A07F1400207F1380311461846B0EE6A
:101CE000470AF0EE670AFFF7B3FC7B6BD3E91601F6
:101CF000D7E90E23FEF788FC02460B46C7E90E2300
:101D000007F1400207F1380311461846FFF7C4FBFC
:101D10004E4B93ED007B97ED106BB0EE461AF0EE54
:101D2000661AB0EE470AF0EE670A12F06AF8B0EEF3
:101D3000407AF0EE607A87ED107B3B6BD3E908893F
:101D400097ED0E7BB0EE470AF0EE670AFFF734FB23
:101D500053EC102B40464946FEF756FC02460B4614
:101D6000104619464FF00002394BFEF797FA02462B
:101D70000B4643EC172BB0EE470AF0EE670A11F062
:101D800017FDB0EE407AF0EE607A7B6B83ED227B3C
:101D90007B6BD3E90A01D7E91023FEF735FC024635
:101DA0000B46796BC1E918237B6B93ED0C8B7B6B36
:101DB000D3E90A01D7E90E23FEF726FC02460B46BB
:101DC00043EC172BB0EE471AF0EE671AB0EE480A54
:101DD000F0EE680A11F08CFCB0EE407AF0EE607A1A
:101DE0007B6B83ED1A7BD7E90E23796BC1E91E2348
:101DF0007B6BD3E91801D7E90E23FEF705FC0246F9
:101E00000B46796BC1E92823D7E90E014FF0000298
:101E10004FF00003FEF760FE0346002B0BD07B6BF8
:101E2000D3E90C014FF000024FF00003FEF754FE1F
:101E30000346002B0ED17B6BD3E90C01D7E91023AD
:101E4000FEF7E2FB02460B4607E000BF3802002027
:101E50000000F03F4FF00002BC4B796BC1E92A2330
:101E60007B6BD3E92A23796BC1E920237B6B03F1D8
:101E700078027B6B803319461046FFF70DFB7B6BB6
:101E800093ED1A7BB0EE470AF0EE670AFFF794FA7B
:101E900051EC100B3B6BD3E90823FEF7B5FB024670
:101EA0000B46796BC1E91C237B6BD3E91C897B6BE7
:101EB000D3E91C014FF00002A44BFEF7EFF90246F4
:101EC0000B4643EC172BB0EE470AF0EE670A11F011
:101ED0006FFC51EC100B4FF000029C4BFEF7DEF94B
:101EE00002460B461046194602460B46FEF7D6F947
:101EF00002460B46104619467B6BD3E91C23FEF7BE
:101F0000CDF902460B4640464946FEF7A7FC02467D
:101F10000B46C7E916237B6BD3F8F83103F00103B6
:101F2000002B7DD097ED160B01F03AFEB0EE407A13
:101F3000F0EE607A7B6B83ED2C7B7B6BF033184685
:101F400097ED160B01F078FE7B6B93ED1E7B7B6BA0
:101F500093ED206B7B6BF03306221946B0EE461AE8
:101F6000F0EE661AB0EE470AF0EE670A012001F0C3
:101F70009EFCB0EE407AF0EE607A7B6B83ED327BB4
:101F80007B6B93ED327BB0EE470AF0EE670A11F0FF
:101F90002FFE87ED140B7B6B93ED327BB0EE470A7F
:101FA000F0EE670A11F0C8FD87ED120B7B6BD3E9E9
:101FB0001E01D7E91223FEF727FB02460B46904687
:101FC00099467B6BD3E92001D7E91423FEF71CFB6C
:101FD00002460B4640464946FEF760F902460B466C
:101FE000796BC1E924237B6BD3E92001D7E9122364
:101FF000FEF70AFB02460B46904699467B6BD3E9F7
:102000001E01D7E91423FEF7FFFA02460B464046AD
:102010004946FEF741F902460B46796BC1E9262392
:102020007B6BD3F8F83103F00203002B07D07B6BF6
:1020300003F59473184697ED160B01F061FE7B6B68
:10204000D3F8F83103F00403002B2FD097ED160BD3
:1020500001F0BAFEB0EE407AF0EE607A7B6B83ED71
:102060002E7B7B6B03F5B073184697ED160B01F0D2
:10207000F7FE7B6B93ED1E7B7B6B93ED206B7B6B95
:1020800003F5B07306221946B0EE461AF0EE661A52
:10209000B0EE470AF0EE670A012001F008FCB0EE4E
:1020A000407AF0EE607A7B6B83ED347B7B6BD3F808
:1020B000F83103F00803002B4AD07B6B03F5CC7397
:1020C000194697ED160B386B01F0D2FC7B6BD3E908
:1020D0000823144683F000457B6BD3E91823204680
:1020E0002946FEF791FA02460B4614461D4697ED27
:1020F000160B386B01F0A2FC53EC102B204629463E
:10210000FEF782FA02460B46796BC1E930237B6BFE
:1021100093ED1E7B7B6B93ED206B7B6B03F5CC7398
:1021200005221946B0EE461AF0EE661AB0EE470ADE
:10213000F0EE670A012001F0BAFBB0EE407AF0EE53
:10214000607A7B6B83ED367B02E000BF0000F03FDE
:102150007B6BD3F8F83103F01003002B4CD07B6B72
:1021600003F5E473194697ED160B386B01F0CCFCC0
:102170007B6B93ED067BB0EE470AF0EE670AFFF744
:102180001BF951EC100B7B6BD3E91A23FEF73CFAD9
:1021900002460B46104619467B6BD3E91823FEF71F
:1021A00033FA02460B46104619463B6BD3E9062329
:1021B000FEF72AFA02460B46796BC1E938237B6B9E
:1021C00093ED1E7B7B6B93ED206B7B6B03F5E473D0
:1021D00006221946B0EE461AF0EE661AB0EE470A2D
:1021E000F0EE670A002001F062FBB0EE407AF0EEFC
:1021F000607A7B6B83ED3A7B094BD3E90023796BE3
:10220000C1E910237B6BD3E91023796BC1E90E235D
:1022100000BF6037BD46BDEC028BBDE8B08300BF98
:102220003002002080B58EB000AF7862396287ED51
:10223000060B87ED041B87ED022B7A6097ED020BEE
:10224000FFF75EF987ED020B97ED020BFFF7B6F98A
:10225000B0EE407AF0EE607A07F1280207F1300321
:1022600011461846B0EE470AF0EE670AFFF7F0F99C
:1022700097ED0C7B97ED0A6B7A68B0EE464AF0EE6C
:10228000664AB0EE473AF0EE673A97ED022B97EDCB
:10229000041B97ED060B396A786AFFF7AFFC00BFA5
:1022A0003837BD4680BD00002DE9F04F2DED028B83
:1022B000D3B000AF07F5A476A6F59A76306007F59F
:1022C000A470A0F59C70016007F1080181ED000B7E
:1022D00007F5A471A1F5A2710A6007F5A472A2F531
:1022E000A47213604FF000024FF00003C7E95023BF
:1022F0004FF000024FF00003C7E94E234FF00002F9
:102300004FF00003C7E94C234FF000024FF00003E9
:10231000C7E94A234FF000024FF00003C7E9482302
:102320004FF000024FF00003C7E946234FF00002D0
:102330004FF00003C7E944234FF000024FF00003C1
:10234000C7E942234FF000024FF00003C7E93E23E4
:102350004FF000024FF00003C7E93C2307F5A473D8
:10236000A3F5A2731B68002B01D0802200E000229D
:1023700007F5A473A3F5A4731B68002B02D04FF4D8
:10238000847300E000231343D7F87821002A02D099
:102390004FF4007200E000221343D7F87C21002A9A
:1023A00002D040F2014200E000221343D7F880211E
:1023B000002A02D041F2050200E000221343D7F8C0
:1023C0008421002A03D1D7F88821002A02D042F2C2
:1023D000050200E000221343D7F88C21002A02D026
:1023E00044F2100200E000221343C7F8CC3007F596
:1023F000A473A3F59A731B68D3F8F821D7F8CC30EF
:10240000134003F4FF43C7F8CC3007F5A473A3F5DA
:102410009C731B6803F00103002B0FD107F5A47315
:10242000A3F59A731B68D3F8F83103F40063002B0B
:1024300004D1144BD3E9002301F02EB907F5A4739E
:10244000A3F59C731B6803F00103002B1ED00E4BF9
:10245000D3E9002307F10801D1E90001FEF7D4F820
:1024600002460B46C7E9402307F1180207F1200393
:1024700007F108010E461146184696ED000BFFF7CE
:10248000E7F8D5E1300200202802002007F5A47308
:10249000A3F59A731B68D3E912AB07F5A473A3F5F0
:1024A0009A731B68D3E92C014FF00002D04BFDF763
:1024B000F5FE02460B4650465946FEF7A5F8024681
:1024C0000B4607F10801D1E90001FEF7C7F9024602
:1024D0000B46C7E9302397ED300B11F089FB87EDF0
:1024E0002E0B97ED300B11F027FB87ED2C0B07F52A
:1024F000A473A3F59A731B68D3E92401D7E92C23AD
:10250000FEF782F802460B4692469B4607F5A473F7
:10251000A3F59A731B68D3E92601D7E92E23FEF7AA
:1025200073F802460B4650465946FDF7B7FE024681
:102530000B4643EC182B07F5A473A3F59A731B689D
:10254000D3E92601D7E92C23FEF75EF802460B46B5
:1025500092469B4607F5A473A3F59A731B68D3E9CB
:102560002401D7E92E23FEF74FF802460B465046CA
:102570005946FDF791FE02460B4643EC172B07F533
:10258000A473A3F59A731B6803F594730622194686
:10259000B0EE471AF0EE671AB0EE480AF0EE680A9D
:1025A000012001F084F953EC102B1146C7F8F81004
:1025B00083F00043C7F8FC3007F5A473A3F59A73C2
:1025C0001B68D3E93223D7E93E01FDF765FE0246D9
:1025D0000B46D7E93001FDF75FFE02460B46C7E91F
:1025E000402397ED400B11F003FBB0EE407AF0EE84
:1025F000607A07F1280303ED027B97ED400B11F0A1
:102600009BFAB0EE407AF0EE607A07F1180383EDA2
:10261000007B07F5A473A3F59A731B68D3E908231D
:10262000904623F0004970A3D3E900234046494671
:10263000FEF77AFA0346002B00F0FA8007F5A47340
:10264000A3F59A731B68D3E91E0107F11803D3E9B8
:102650000023FDF7D9FF02460B469046994607F541
:10266000A473A3F59A731B68D3E9200107F128032B
:1026700053E90223FDF7C8FF02460B464046494690
:10268000FDF70CFE02460B46C7E92A2307F5A473A3
:10269000A3F59A731B68D3E9200107F11803D3E966
:1026A0000023FDF7B1FF02460B469046994607F519
:1026B000A473A3F59A731B68D3E91E0107F12803DD
:1026C00053E90223FDF7A0FF02460B464046494668
:1026D000FDF7E2FD02460B46C7E93A2307F5A4736E
:1026E000A3F59A731B68F0330622194697ED3A1B3F
:1026F00097ED2A0B012001F0DAF887ED3E0B07F584
:10270000A473A3F59A731B68D3E92C014FF0000260
:10271000374BFDF7C3FD02460B469046994607F539
:10272000A473A3F59A731B68D3E93223D7E93E015A
:10273000FDF7B2FD02460B4610461946D7E9402385
:10274000FDF7ACFD02460B4640464946FDF75CFFEF
:1027500002460B469046994607F5A473A3F59A7373
:102760001B68D3E9122307F10801D1E90001FEF744
:1027700075F802460B4640464946FDF78DFD024678
:102780000B46C7E9282307F5A473A3F59A731B68C2
:10279000D3E91C8997ED2A0BFEF70EFE53EC102BA4
:1027A00040464946FDF730FF02460B4610461946A3
:1027B0004FF000020E4BFDF771FD02460B4643EC55
:1027C000172BB0EE470AF0EE670A10F0F1FF53EC5A
:1027D000102BD7E92801FEF741F802460B46D7E94E
:1027E000400107E0AFF300807B14AE47E17A843FFD
:1027F0000000F03FFDF750FD02460B46C7E94023BD
:1028000097ED400B11F0F4F9B0EE407AF0EE607AFB
:1028100007F1280303ED027B97ED400B11F08CF9D3
:10282000B0EE407AF0EE607A07F1180383ED007B9A
:1028300007F5A473A3F59A731B68D3E91E0107F18A
:102840001803D3E90023FDF7DFFE02460B4690464E
:10285000994607F5A473A3F59A731B68D3E9200181
:1028600007F1280353E90223FDF7CEFE02460B468B
:1028700040464946FDF712FD02460B46C7E92A23AA
:1028800007F5A473A3F59A731B68D3E9200107F138
:102890001803D3E90023FDF7B7FE02460B46904626
:1028A000994607F5A473A3F59A731B68D3E91E0133
:1028B00007F1280353E90223FDF7A6FE02460B4663
:1028C00040464946FDF7E8FC02460B46C7E93A2375
:1028D00007F5A473A3F59A731B68D3E91C8997EDD8
:1028E0002A0BFEF769FD53EC102B40464946FDF7D5
:1028F0008BFE02460B46104619464FF00002844BF1
:10290000FDF7CCFC02460B4643EC172BB0EE470A12
:10291000F0EE670A10F04CFF87ED260BD7F8CC20BD
:1029200043F205431340002B52D007F5A473A3F5DF
:102930009C731B6803F00103002B13D107F5A473EC
:10294000A3F59A731B68D3E90823144623F00045C6
:102950006DA3D3E9002320462946FEF7E5F8034698
:10296000002B10D007F5A473A3F59A731B68F033FE
:102970000622194697ED3A1B97ED2A0B012000F02D
:1029800096FF87ED3E0B07F5A473A3F59A731B68BA
:10299000D3E92C014FF000025D4BFDF77FFC0246AE
:1029A0000B4614461D4607F5A473A3F59A731B68DE
:1029B000D3E93223D7E93E01FDF76EFC02460B4610
:1029C00020462946FDF720FE02460B46C7E93C2378
:1029D00007F5A473A3F59A731B68D3E91A23D7E903
:1029E0002A01FDF711FE02460B46C7E9242307F52D
:1029F000A473A3F59A731B6893ED188B07F5A47362
:102A0000A3F59A731B68D3E91A01D7E93A23FDF7B6
:102A1000FBFD02460B4643EC172BB0EE471AF0EED7
:102A2000671AB0EE480AF0EE680A10F061FE87ED12
:102A3000380B4FF000024FF00003D7E93801FEF7E2
:102A40004BF80346002B08D0324BD3E90023C7E9EB
:102A50003A23D7E93A23C7E9382307F5A473A3F546
:102A60009A731B68D3E91823C7E9222307F5A473D7
:102A7000A3F59A731B68D3E91A23D7E93A01FDF746
:102A8000C3FD02460B46C7E92023D7F8CC2040F20D
:102A900001431340002B45D007F5A473A3F59C73A5
:102AA0001B6803F00103002B36D007F5A473A3F5D0
:102AB0009A731B68D3E9124507F5A473A3F59A73BB
:102AC0001B68D3E92C014FF00002114BFDF7E6FB28
:102AD00002460B4610461946D7E94023FDF794FD00
:102AE00002460B4610461946D7E93C23FDF7D6FBB4
:102AF00002460B4620462946FDF786FD02460B4658
:102B00000EE000BFAFF300807B14AE47E17A843F54
:102B10000000F03F3802002007F10803D3E900234A
:102B2000C7E94A23D7F8CC3003F48473002B00F0B4
:102B3000928107F5A473A3F59A731B6893ED187B34
:102B4000B0EE471AF0EE671A9FEDAB0B0DF09AFD51
:102B500087ED1E0B07F5A473A3F59A731B68D3E9E1
:102B60001823D7E92A01FDF74FFD02460B46C7E9B6
:102B70001C23D7E93A23C7E91A2307F5A473A3F561
:102B80009C731B6803F40043002B7CD097ED3A1B29
:102B900097ED2A0B10F066FD55EC104B07F5A4736A
:102BA000A3F59A731B6893ED1E7B07F5A473A3F539
:102BB0009A731B6893ED206BB0EE461AF0EE661A1E
:102BC000B0EE470AF0EE670A10F04CFD53EC102B04
:102BD00020462946FDF760FB02460B46D7E9400137
:102BE000FDF75AFB02460B4614461D46D7E91C2347
:102BF000D7E91E01FDF708FD02460B4643EC172BF3
:102C000097ED1A1BB0EE470AF0EE670A10F02AFDA6
:102C100059EC108B07F5A473A3F59A731B68D3E9DD
:102C20002801D7E91E23FDF7EFFC02460B4643ECD3
:102C3000162B07F5A473A3F59A731B6893ED2A7BF3
:102C4000B0EE471AF0EE671AB0EE460AF0EE660AEA
:102C500010F008FD53EC102B40464946FDF71CFBD5
:102C600002460B4620462946FDF718FB02460B4656
:102C700010461946D7E91E23FDF7C6FC02460B464F
:102C800043EC172B55E007F5A473A3F59A731B6863
:102C9000D3E92A01D7E91C23FDF7B6FC02460B460F
:102CA00014461D4607F5A473A3F59A731B68D3E970
:102CB0002801D7E91A23FDF7A7FC02460B46204658
:102CC0002946FDF7E9FA02460B4643EC182B07F5B7
:102CD000A473A3F59A731B68D3E92A01D7E91A23D1
:102CE000FDF792FC02460B4614461D4607F5A473F9
:102CF000A3F59A731B68D3E92801D7E91C23FDF7D4
:102D000083FC02460B4620462946FDF7C7FA0246D9
:102D10000B4643EC172BB0EE471AF0EE671AB0EEF5
:102D2000480AF0EE680A10F09DFCB0EE407AF0EE32
:102D3000607A87ED187B07F5A473A3F59A731B6877
:102D4000D3E9304507F5A473A3F59A731B6803F51F
:102D5000CC730522194697ED3A1B97ED2A0B0120FB
:102D600000F0A5FD51EC100B07F5A473A3F59A73C1
:102D70001B68D3E93623FDF78FFA02460B4610464F
:102D80001946D7E94023FDF789FA02460B4620464B
:102D90002946FDF739FC02460B46D7E91801FDF735
:102DA0007DFA02460B46C7E91623154BD3E90023EB
:102DB000D7E91601FDF752FD02460B46C7E9142379
:102DC00007F5A473A3F59C731B6803F40043002B61
:102DD00018D007F5A473A3F59A731B68D3E9020111
:102DE000D7E91423FDF75AFA02460B4643EC172B9A
:102DF0002FE000BFAFF30080000000000000F03FB4
:102E00002802002007F5A473A3F59A731B6893EDBD
:102E1000027BB0EE470AF0EE670AFEF771FB55EC55
:102E2000104B97ED140BFEF76BFB53EC102B204669
:102E30002946FDF733FA02460B4643EC172BB0EE5A
:102E4000470AF0EE670AFEF75BFBB0EE407AF0EE61
:102E5000607A87ED4E7BD7F8CC3003F08003002BEF
:102E600018D007F5A473A3F59A731B68D3E916016C
:102E7000D7E93823FDF7C8FB02460B4643EC172B76
:102E8000B0EE471AF0EE671A97ED240BFEF790FCB0
:102E900087ED500BD7F8CC3003F40073002B07D02C
:102EA00097ED201B97ED220BFEF782FC87ED4C0B74
:102EB000D7F8CC2043F205031340002B00F0B68175
:102EC00007F5A473A3F59A731B6803F5B07307F1B4
:102ED000480214460622194697ED3A1B97ED2A0B35
:102EE000012000F0E4FC84ED000B07F5A473A3F5CA
:102EF0009A731B68D3E92E014FF000025F4BFDF778
:102F0000CDF902460B4614461D4607F5A473A3F5FA
:102F10009A731B68D3E9342307F14801D1E9000112
:102F2000FDF7BAF902460B4607F148010E46204666
:102F30002946FDF769FB02460B4646E9022307F5E1
:102F4000A473A3F59A731B68D3E92C0107F5A47346
:102F5000A3F59A731B68D3E92E23FDF79DF902466A
:102F60000B4610461946D7E94023FDF74DFB0246B4
:102F70000B4614461D4607F1480353E90223D7E9DF
:102F80003C01FDF789F902460B4607F138010E4670
:102F900020462946FDF782F902460B46C6E9002382
:102FA000D7F8CC2041F205031340002B68D007F579
:102FB000A473A3F59A731B68D3E9124507F5A473AC
:102FC000A3F59A731B68D3E92001D7E92A23FDF7FB
:102FD0001BFB02460B4610461946D7E92623FDF790
:102FE00013FB02460B4692469B4607F5A473A3F5D6
:102FF0009A731B68D3E9228907F5A473A3F59A7322
:103000001B68D3E91E01D7E93A23FDF7FDFA024612
:103010000B4640464946FDF7F7FA02460B46504636
:103020005946FDF739F902460B469046994607F591
:10303000A473A3F59A731B68D3E92001D7E93A2357
:10304000FDF7E2FA02460B461046194607F138032F
:10305000D3E90023FDF7D8FA02460B46404649461D
:10306000FDF71AF902460B4620462946FDF7CCFA31
:1030700002460B46C7E9482302E000BF0000F03FCC
:10308000D7F8CC2042F205031340002B00F0CE808D
:1030900007F5A473A3F59A731B68D3E91C4507F5DC
:1030A000A473A3F59A731B68D3E91E23D7E92A01F9
:1030B000FDF7F2F802460B4620462946FDF7A4FA32
:1030C00002460B4614461D4607F5A473A3F59A73F2
:1030D0001B68D3E91E01D7E92A23FDF7DFF8024672
:1030E0000B4620462946FDF78FFA02460B4614464A
:1030F0001D4607F5A473A3F59A731B68D3E9220153
:10310000D7E92623FDF7CAF802460B4607F1380136
:103110000E4620462946FDF7A1FB02460B4646E92E
:10312000022307F138031946D7E92A2351E902019E
:10313000FDF76AFA02460B4614461D4607F13803AE
:10314000D3E90023D7E93A01FDF75EFA02460B46C0
:1031500020462946FDF7A0F802460B4610461946C0
:1031600007F5A473A3F59A731B68D3E91E23FDF733
:103170004BFA02460B461046194607F5A473A3F511
:103180009A731B68D3E92223FDF768FB02460B46BE
:103190001046194607F11803D3E90023FDF77EF81E
:1031A00002460B46C7E9462307F11803D3E9004559
:1031B00007F5A473A3F59A731B68D3E91E0107F101
:1031C000380353E90223FDF71FFA02460B469046E7
:1031D000994607F5A473A3F59A731B68D3E92001F8
:1031E00007F13803D3E90023FDF70EFA02460B4638
:1031F00040464946FDF750F802460B461046194630
:10320000D7E92A23FDF700FA02460B461046194675
:10321000D7E92623FDF722FB02460B462046294626
:10322000FDF73AF802460B46C7E94423D7F8CC200D
:1032300044F210031340002B00F0888107F5A473BB
:10324000A3F59A731B6803F5E47307F1280214468B
:103250000622194697ED3A1B97ED2A0B002000F045
:1032600026FB84ED000B07F5A473A3F59A731B6886
:10327000D3E91A014FF000024FF00003FDF72CFCD8
:103280000346002B0FD107F5A473A3F59A731B68AF
:10329000D3E918014FF000024FF00003FDF71CFCCA
:1032A0000346002B48D007F5A473A3F59A731B6857
:1032B000D3E90C01D7E92223FDF7A6F902460B4614
:1032C00014461D4607F5A473A3F59A731B68D3E94A
:1032D0000A01D7E92023FDF797F902460B4620465D
:1032E0002946FCF7D9FF02460B46C7E9362307F506
:1032F000A473A3F59A731B68D3E90C01D7E92023C3
:10330000FDF782F902460B4614461D4607F5A473E5
:10331000A3F59A731B68D3E90A01D7E92223FDF7C5
:1033200073F902460B4620462946FCF7B7FF0246D2
:103330000B46C7E93423CEE007F5A473A3F59A73CF
:103340001B68D3E91A0107F5A473A3F59A731B68E8
:10335000D3E91823FDF758F902460B4690469946E3
:1033600007F11803D3E900014FF000024FF000030A
:10337000FDF7C6FB0346002B31D007F5A473A3F578
:103380009A731B68D3E9204507F11803D3E900239A
:103390004FF00000BC49FCF77FFF02460B46204679
:1033A0002946FDF731F902460B4614461D4607F53E
:1033B000A473A3F59A731B68D3E91E0107F12803D0
:1033C00053E90223FDF720F902460B462046294621
:1033D000FCF764FF02460B46104619463AE007F533
:1033E000A473A3F59A731B68D3E9200107F128039E
:1033F00053E90223FDF708F902460B4614461D4621
:1034000007F11803D3E900014FF000029E4BFCF7CF
:1034100045FF02460B4620462946FDF71FFA0246A5
:103420000B461046194607F5A473A3F59A731B685B
:10343000D3E91E23FCF732FF02460B46104619461D
:1034400007F1280353E90223FDF7DEF802460B4695
:103450001046194642464B46FDF7D6F802460B4643
:10346000C7E9362307F5A473A3F59A731B6893ED98
:10347000187BB0EE470AF0EE670AFDF79DFF55ECAA
:10348000104B07F5A473A3F59A731B6893ED1A7B91
:10349000B0EE470AF0EE670AFDF78EFF51EC100B15
:1034A00007F5A473A3F59A731B68D3E92023FDF7EE
:1034B000ABF802460B4610461946D7E93A23FDF70A
:1034C000A3F802460B4620462946FCF7E7FE0246D3
:1034D0000B46C7E9342307F5A473A3F59A731B6859
:1034E000D3E9144597ED341B97ED360B10F0BAF87D
:1034F00053EC102B20462946FDF786F802460B4672
:103500009046994607F5A473A3F59A731B68D3E90F
:10351000384507F5A473A3F59A731B68D3E93A23DA
:1035200007F12801D1E90001FCF7B6FE02460B467F
:1035300020462946FDF768F802460B4640464946B4
:10354000FCF7ACFE02460B46C7E94223D7F8CC3065
:1035500003F08003002B0FD007F5A473A3F5A2732B
:103560001B68002B08D007F5A473A3F5A273196894
:10357000D7E95023C1E90023D7F8CC3003F4847392
:10358000002B0FD007F5A473A3F5A4731B68002BC1
:1035900008D007F5A473A3F5A4731968D7E94E23DF
:1035A000C1E90023D7F8CC3003F40073002B09D015
:1035B000D7F87831002B05D0D7F87811D7E94C230C
:1035C000C1E90023D7F8CC2040F201431340002B7F
:1035D00009D0D7F87C31002B05D0D7F87C11D7E97A
:1035E0004A23C1E90023D7F8CC2041F20503134058
:1035F000002B09D0D7F88031002B05D0D7F88011E7
:10360000D7E94823C1E90023D7F8CC2042F20503CB
:103610001340002B13D0D7F88431002B05D0D7F8F6
:103620008411D7E94623C1E90023D7F88831002B5C
:1036300005D0D7F88811D7E94423C1E90023D7F88A
:10364000CC2044F210031340002B09D0D7F88C3162
:10365000002B05D0D7F88C11D7E94223C1E900230C
:1036600007F5A473A3F59C731B6803F00103002BFB
:103670000ED1064BD3E90023D7E94001FDF7EEF860
:1036800002460B4608E000BF0000F03F2802002081
:1036900007F10803D3E9002343EC172BB0EE470AE8
:1036A000F0EE670A07F5A677BD46BDEC028BBDE8D4
:1036B000F08F00BFB0B5ADF5147D06AF07F50E7401
:1036C000A4F50374206007F1280000ED020B07F158
:1036D000180080ED001B07F1180000ED022B07F524
:1036E0000E70A0F50470016007F1080181ED003B48
:1036F00007F50E71A1F50D710A6007F50E72A2F5BE
:103700000E72136007F50E73A3F50D731B68002B83
:1037100001D0802200E0002207F50E73A3F50E739E
:103720001B68002B02D04FF4847300E00023134386
:10373000D7F84822002A02D04FF4007200E000229D
:103740001343D7F84C22002A02D040F2014200E095
:1037500000221343D7F85022002A02D041F205027A
:1037600000E000221343D7F85422002A03D1D7F8EF
:103770005822002A02D042F2050200E00022134340
:10378000D7F85C22002A02D044F2100200E00022A6
:103790001343C7F8343207F50E73A3F504731B689F
:1037A00003F00103002B01D0002201E040F60302E8
:1037B000D7F834321A4307F118031D4607F11803EE
:1037C0001C4607F12803194607F50E73A3F503738A
:1037D00007F1300015ED022B94ED001B11ED020BEB
:1037E0001968FEF71FFD07F50E73A3F50E7307F5B5
:1037F0000E72A2F50D7207F108010D4607F50E7164
:10380000A1F5047107F13004D7F85C020590D7F8F0
:1038100058020490D7F854020390D7F8500202904F
:10382000D7F84C020190D7F8480200901B68126844
:1038300095ED000B09682046FEF736FDB0EE407AA4
:10384000F0EE607AB0EE470AF0EE670A07F50E7701
:10385000BD46B0BD80B592B006AFF86287ED080BEB
:1038600087ED061B87ED042B87ED023BB9627A607A
:103870003B6000230593002304930023039300235C
:103880000293002301933B6800937B68BA6A97ED2B
:10389000023B002197ED042B97ED061B97ED080BDB
:1038A000F86AFFF707FF00BF3037BD4680BDB0B5EF
:1038B0008EB000AFF86187ED040B87ED021BB96194
:1038C0007A607A68FB691344DB00BA691344BB6110
:1038D000D7E90423D7E90201FCF7DEFC02460B46D8
:1038E0001046194602460B46FCF7D8FC02460B462A
:1038F00014461D46D7E90423D7E90201FCF7CEFCA4
:1039000002460B4620462946FCF77EFE02460B4641
:10391000C7E908237B6803F00103002B06D0BB69CD
:10392000083BBB61BB69D3E9002303E04FF0000211
:103930004FF00003C7E90C234FF000024FF00003E3
:10394000C7E90A237B68DA0F13445B107B603BE016
:10395000D7E90C23D7E90801FCF756FE02460B46CF
:1039600010461946D7E90A23FCF796FC02460B4697
:1039700010461946BB69083BBB61BB69D3E900230C
:10398000FCF78CFC02460B46C7E90A23D7E90A2359
:10399000D7E90801FCF738FE02460B4610461946E7
:1039A000D7E90C23FCF778FC02460B461046194673
:1039B000BB69083BBB61BB69D3E90023FCF76EFC24
:1039C00002460B46C7E90C237B685A1E7A60002B1F
:1039D000BED1FB69002B18D0D7E9040102460B4683
:1039E000FCF75CFC02460B4610461946D7E9022359
:1039F000FCF70AFE02460B4610461946D7E90C238F
:103A0000FCF702FE02460B460FE0D7E90A23D7E98E
:103A10000C01FCF741FC02460B4610461946D7E95B
:103A20000223FCF7F1FD02460B4643EC172BB0EEE8
:103A3000470AF0EE670A3837BD46B0BD80B584B09E
:103A400000AFF86087ED000BFB68483397ED000B83
:103A500019460520FDF7C6FCB0EE407AF0EE607A1C
:103A6000B0EE470AF0EE670A1037BD4680BD000091
:103A700090B58BB000AFF86087ED000BB9604FF0E8
:103A80000002204BC7E908230023FB610123BB612F
:103A90002FE0BB69C3F105037B61D7E90023D7E9B8
:103AA0000801FCF7B1FD02460B46C7E90823FB6895
:103AB00003F17802FB69DB00134497ED000B194614
:103AC0007869FDF78FFC51EC100BBB69DB00BA681D
:103AD000D418D7E90823FCF797FD02460B46C4E942
:103AE00000237B690133FA691344FB61BB6901332D
:103AF000BB61BB69052BCCDD00BF00BF2C37BD46C9
:103B000090BD00BF0000F03F90B58BB000AFF860F3
:103B100087ED000BB9604FF00002204BC7E9082386
:103B20000023FB610023BB612FE0BB69C3F10503E8
:103B30007B61FB6803F1F002FB69DB00134497ED46
:103B4000000B19467869FDF74DFC51EC100BBB6971
:103B5000DB00BA68D418D7E90823FCF755FD024604
:103B60000B46C4E900237B690133FA691344FB6106
:103B7000D7E90023D7E90801FCF746FD02460B46CA
:103B8000C7E90823BB690133BB61BB69052BCCDDE9
:103B900000BF00BF2C37BD4690BD00BF0000F03F06
:103BA000B0B586B000AF87ED000B03237B6197EDC6
:103BB000000BFDF701FCB0EE407AF0EE607AB0EE5B
:103BC000470AF0EE670A1A497869FDF70BFC51ECD9
:103BD000100B7B690133164ADB001344D3E9002341
:103BE000FCF73CFE02460B46C7E90223D7E9002357
:103BF000D7E90201FCF752FB02460B4614461D466C
:103C0000D7E900234FF000000A49FCF745FB0246C4
:103C10000B4620462946FCF721FE02460B4643ECA4
:103C2000172BB0EE470AF0EE670A1837BD46B0BD55
:103C3000D07A01080000F03F2DE990438DB000AF2D
:103C400087ED020B786097ED020BFDF7B5FB87ED72
:103C5000060BD7E90223C7E90A2300237B6201236D
:103C60003B6241E03B6AC3F10603DA0F13445B1089
:103C70007B617B6ADB00214A134497ED060B1946F2
:103C80007869FDF7AFFB51EC100BD7E90A23FCF77D
:103C9000BBFC02460B46904699467A6A7B69134400
:103CA0000133164ADB001344D3E90023396AC90003
:103CB0007868441840464946FCF7D0FD02460B465A
:103CC000C4E900237B6902337A6A13447B62D7E933
:103CD0000223D7E90A01FCF797FC02460B46C7E925
:103CE0000A233B6A01333B623B6A062BBADD00BF05
:103CF00000BF3437BD46BDE8908300BFF87A0108A5
:103D00002DE990438DB000AF87ED020B786097ED01
:103D1000020BFDF751FB87ED060BD7E90223C7E93C
:103D20000A2300237B6201233B6241E03B6AC3F12B
:103D30000603DA0F13445B107B617B6ADB00214AC8
:103D4000134497ED060B19467869FDF74BFB51ECD0
:103D5000100BD7E90A23FCF757FC02460B469046A6
:103D600099467A6A7B6913440133164ADB0013448F
:103D7000D3E90023396AC9007868441840464946A7
:103D8000FCF76CFD02460B46C4E900237B69023355
:103D90007A6A13447B62D7E90223D7E90A01FCF768
:103DA00033FC02460B46C7E90A233B6A01333B62F8
:103DB0003B6A062BBADD00BF00BF3437BD46BDE805
:103DC000908300BF887B0108B0B586B000AF87ED57
:103DD000000B03237B6197ED000BFDF7EDFAB0EECE
:103DE000407AF0EE607AB0EE470AF0EE670A1A49C0
:103DF0007869FDF7F7FA51EC100B7B690133164A2D
:103E0000DB001344D3E90023FCF728FD02460B46F0
:103E1000C7E90223D7E90023D7E90201FCF73CFAFE
:103E200002460B4614461D464FF000020B4BD7E9E5
:103E30000001FCF733FA02460B4620462946FCF700
:103E40000DFD02460B4643EC172BB0EE470AF0EE91
:103E5000670A1837BD46B0BD187C01080000F03F66
:103E60002DE990438DB000AF87ED020B786097EDA0
:103E7000020BFDF7A1FA87ED060BD7E90223C7E98C
:103E80000A2300237B6201233B6241E03B6AC3F1CA
:103E90000603DA0F13445B107B617B6ADB00214A67
:103EA000134497ED060B19467869FDF79BFA51EC20
:103EB000100BD7E90A23FCF7A7FB02460B469046F6
:103EC00099467A6A7B6913440133164ADB0013442E
:103ED000D3E90023396AC900786844184046494646
:103EE000FCF7BCFC02460B46C4E900237B690233A5
:103EF0007A6A13447B62D7E90223D7E90A01FCF707
:103F000083FB02460B46C7E90A233B6A01333B6247
:103F10003B6A062BBADD00BF00BF3437BD46BDE8A3
:103F2000908300BF407C01082DE9904387B000AF2B
:103F3000786000237B6100233B610523FB6039E04F
:103F4000FB68C3F10503FA689342A8BF1346BB6040
:103F50007B69DB001C4A1A447B6893ED0A7BB0EE58
:103F6000470AF0EE670A1146B868FDF73BFA59ECCC
:103F7000108B7A69BB6813440133134ADB00134486
:103F8000D3E900233C69611C396140464946FCF78E
:103F900065FC02460B46786804F10901C90001443A
:103FA000C1E90023BB6802337A6913447B61FB6873
:103FB000013BFB60FB68002BC2DA00BF00BF1C376F
:103FC000BD46BDE8908300BFD07C01082DE9904339
:103FD00089B000AF78600023FB610023BB6101233F
:103FE0007B6143E005233B6139E03B69C3F1050395
:103FF0003A699342A8BF1346FB60FB69DB00204A85
:104000001A447B6893ED0A7BB0EE470AF0EE670A2C
:104010001146F868FDF7E6F959EC108BFA69FB6870
:1040200013440133164ADB001344D3E90023BC696F
:10403000611CB96140464946FCF710FC02460B463C
:10404000786804F10F01C9000144C1E90023FB684D
:104050000233FA691344FB613B69013B3B613A69F6
:104060007B699A42C1DA7B6901337B617B69052BED
:10407000B8DD00BF00BF2437BD46BDE8908300BF58
:10408000607D01082DE9904389B000AF786000237E
:10409000FB610023BB6100237B613FE005233B61A3
:1040A00035E03B69C3F10503FB60FB69DB00204A97
:1040B0001A447B6893ED0A7BB0EE470AF0EE670A7C
:1040C0001146F868FDF78EF959EC108BFA69FB6818
:1040D00013440133164ADB001344D3E90023BC69BF
:1040E000611CB96140464946FCF7B8FB02460B46E5
:1040F000786804F11E01C9000144C1E90023FB688E
:104100000233FA691344FB613B69013B3B613A6945
:104110007B699A42C5DA7B6901337B617B69052B38
:10412000BCDD00BF00BF2437BD46BDE8908300BFA3
:10413000C87E010880B485B000AF78600023FB73AF
:104140000023BB607B681B78242B0DD17B68013377
:104150007B6009E0BB687A6813441A78FB7B5340A4
:10416000FB73BB680133BB60BB687A6813441B7880
:10417000002B05D0BB687A6813441B782A2BE9D141
:10418000FB7B18461437BD465DF8047B7047000082
:1041900080B5C6B002AF07F58873A3F586731860C3
:1041A00007F58873A3F586731B681B78242B11D041
:1041B00007F58873A3F5867307F188001B681D4A0D
:1041C00080210CF083F807F58873A3F5867307F157
:1041D00088021A6007F58873A3F586731868FFF7DD
:1041E000A9FF034687F80F3197F80F2107F5887369
:1041F000A3F5867307F1080000921B680E4A802120
:104200000CF064F8C7F80801D7F808319AB207F142
:1042100008014FF47A73094808F0EEFF0346002BBB
:1042200001D1002300E00123184607F58877BD4639
:1042300080BD00BF606D0108646D0108480B00205F
:1042400080B500AF1048FFF7A3FF642005F02AFCFB
:104250000E48FFF79DFF642005F024FC0C48FFF793
:1042600097FF642005F01EFC0A48FFF791FF6420C9
:1042700005F018FC4FF480720749084809F047F828
:104280000023184680BD00BF706D0108806D0108D5
:10429000906D0108A06D010850040020480B00201B
:1042A0002DE9B04FBEB00AAF7860396007F148031E
:1042B0005022002118460CF00FF907F13C030022B0
:1042C0001A605A60C3F8072007F12C0300221A6015
:1042D0005A609A60C3F80B2007F11C0300221A6091
:1042E0005A609A60C3F80B2007F1140300221A6089
:1042F000C3F803200023FB740023BB7400237B74EA
:1043000000233B740023FB7307F13C0107F14802D3
:1043100007F10F03099307F11003089307F1140342
:10432000079307F148033833069307F14803303306
:10433000059307F11203049307F11C03039307F19C
:104340001303029307F12C03019307F11103009368
:104350000B468B4938680CF011F87B7C87F8583095
:104360003B7C87F89430FB7B87F8953007F13C0362
:1043700018460AF02EF9C7F8CC00D7F8CC30814A9D
:1043800082FB03121213DB17D31AFB64D7F8CC306D
:104390007D4A82FB03125211DB17D21A7A4B83FB40
:1043A00002135911D317CB1A642101FB03F3D31A5B
:1043B0003B65D7F8CC20744B83FB02135911D317FC
:1043C000CB1A642101FB03F3D31A7B65FB7C87F8CE
:1043D0007030BB7C87F8713007F12C0318460AF067
:1043E000F5F887ED300B4FF00002684BD7E930014C
:1043F000FCF734FA02460B4610461946FCF7B4FBAC
:104400000346C7F8BC30D7F8BC30642202FB03F384
:104410001846FCF78FF802460B46D7E93001FBF748
:104420003BFF02460B46C7E92C23D7F8BC00FCF73C
:1044300081F882468B464FF00002554BD7E92C019C
:10444000FCF70CFA02460B4650465946FBF726FF8E
:1044500002460B46C7E91823FB7C532B06D1D7E94C
:104460001823904683F00049C7E9188907F11C0317
:1044700018460AF0ABF887ED2A0B4FF00002434BC9
:10448000D7E92A01FCF7EAF902460B46104619461D
:10449000FCF76AFB0346C7F8A430D7F8A4306422BF
:1044A00002FB03F31846FCF745F802460B46D7E932
:1044B0002A01FBF7F1FE02460B46C7E92623D7F88F
:1044C000A400FCF737F8804689464FF00002304BD5
:1044D000D7E92601FCF7C2F902460B464046494699
:1044E000FBF7DCFE02460B46C7E91A23BB7C572BC1
:1044F00006D1D7E91A23144683F00045C7E91A45C7
:1045000007F114031846FBF7BBFE0346062B2AD11E
:1045100007F10C0300210A461A800A469A703B7D77
:104520003B737B7D7B7307F10C0318460AF051F84F
:104530000346C7F88830BB7D3B73FB7D7B7307F177
:104540000C0318460AF045F80346C7F88C303B7E4A
:104550003B737B7E7B7307F10C0318460AF039F836
:104560000346C7F890307B68184607F1480350228D
:1045700019460CF068F87868D037BD46BDE8B08FB2
:10458000B06D0108AD8BDB681F85EB510000594011
:1045900000004E402DE9B04FB6B008AF78603960EA
:1045A00007F150033822002118460BF095FF07F160
:1045B000400300221A605A609A60C3F80B2007F18A
:1045C000300300221A605A609A60C3F80B2000235F
:1045D000FB620023BB624FF000024FF00003C7E90B
:1045E00008234FF000024FF00003C7E906234FF005
:1045F00000024FF00003C7E904230023FB730023EC
:10460000BB7307F10F0107F1400207F11003069396
:1046100007F11803059307F12003049307F128031A
:10462000039307F12C03029307F10E03019307F1A3
:10463000300300930B46604938680BF09FFEFB6A1D
:104640007B66BB6ABB66D7E90823C7E91C23D7E9A9
:104650000623C7E91E23D7E90423C7E92023FB7BF0
:1046600087F86030BB7B87F8613007F1400318465C
:1046700009F0ACFF87ED2C0B4FF000024F4BD7E950
:104680002C01FCF7EBF802460B4610461946FCF7E6
:104690006BFA0346C7F8AC30D7F8AC30642202FBA3
:1046A00003F31846FBF746FF02460B46D7E92C01F9
:1046B000FBF7F2FD02460B46C7E92823D7F8AC000A
:1046C000FBF738FF82468B464FF000023C4BD7E9A0
:1046D0002801FCF7C3F802460B4650465946FBF743
:1046E000DDFD02460B46C7E91423FB7B532B06D1A5
:1046F000D7E91423904683F00049C7E9148907F1EC
:104700003003184609F062FF87ED260B4FF00002D8
:104710002A4BD7E92601FCF7A1F802460B461046C2
:104720001946FCF721FA0346C7F89430D7F89430BD
:10473000642202FB03F31846FBF7FCFE02460B461D
:10474000D7E92601FBF7A8FD02460B46C7E922235D
:10475000D7F89400FBF7EEFE804689464FF0000242
:10476000174BD7E92201FCF779F802460B46404681
:104770004946FBF793FD02460B46C7E91623BB7B70
:10478000572B06D1D7E91623144683F00045C7E915
:1047900016457B681D4607F150040FCC0FC50FCCA2
:1047A0000FC50FCC0FC594E8030085E803007868B7
:1047B000B837BD46BDE8B08FF06D01080000594024
:1047C00000004E4080B582B000AF78600B467B8021
:1047D0007B88B3F5807F01D9032326E0154B1B6846
:1047E00003F00103002B0DD07B881A46796812482C
:1047F0000BF029FF0F4B1B6843F004030D4A1360B5
:10480000012312E00B4B1B6843F00203094A1360BB
:104810007B881A46796809480BF015FF054B1B6821
:1048200023F00203034A1360002318460837BD46ED
:1048300080BD00BF08000020500600205005002069
:10484000B0B5A6B000AF6E4B1B6803F00403002B9D
:104850000CD06B4B1B6823F00403694A1360694B4F
:10486000C7F89430674BC7F89030A3E0644B1B68DF
:1048700003F00203002B1DD00023C7F88C300DE09D
:104880005F4B1B6803F00203002B0CD0D7F88C3071
:104890000133C7F88C30022005F004F9D7F88C30CA
:1048A000132BEDDD00E000BFD7F88C30132B01DDBA
:1048B0000223A1E0524B1B6843F00103504A1360EE
:1048C000514BC7F89430504BC7F8903072E0D7F88E
:1048D00094301B780D2B68D1D7F8943001331B78B6
:1048E0000A2B62D1D7F89420D7F89030D31AC7F8A2
:1048F0008830D7F88830002B09DCD7F894300233A1
:10490000C7F89430D7F89430C7F8903052E0D7F811
:1049100088307F2B02DD7F23C7F88830D7F88830B6
:104920001A46D7F8901039480BF08DFE374AD7F861
:104930008830134400221A70354934480BF0E6FDE4
:104940000346002B14D0334C07F150032F4918466F
:10495000FFF720FE254607F150040FCC0FC50FCC02
:104960000FC50FCC0FC594E8030085E8030012E0E3
:10497000294926480BF0CAFD0346002B0BD0274CD3
:104980003B4622491846FFF78BFC20463B46502207
:1049900019460BF058FED7F894300233C7F894301C
:1049A000D7F89430C7F8903004E0D7F8943001334A
:1049B000C7F89430D7F894301B78002B87D1174B69
:1049C000D3E906231649C1E90023144BD3E9082390
:1049D0001349C1E90223114B93F82820104B1A7494
:1049E0000E4B93F829200E4B5A74054B1B6823F08D
:1049F0000103034A1360002318469837BD46B0BD33
:104A0000080000205006002050050020F00700207C
:104A1000306E010850070020346E0108880700201E
:104A2000D807002080B582B000AF7860786800F0C9
:104A300067F9786800F0C0F9786800F07BFC00BF87
:104A40000837BD4680BD000080B52DED028B86B0D5
:104A500000AF7860786800F065FA786800F000FBD5
:104A6000786800F089FB8C4B93ED008A8A4B93EDBC
:104A7000017A894BD3ED017A27EE277A864BD3ED65
:104A8000026A854BD3ED027A66EEA77A77EE277A33
:104A9000B0EE670A0FF002F9F0EE407AF0EE670A26
:104AA000B0EE480A0FF0F8F887ED050A7A4B93ED5F
:104AB000018A794B93ED007A774BD3ED007A27EE9C
:104AC000277A754BD3ED026A734BD3ED027A66EE0B
:104AD000A77A77EE277AB0EE670A0FF0DFF8F0EEEC
:104AE000407AF0EE670AB0EE480A0FF0D5F887ED8D
:104AF000040AD7ED057A9FED697A27EE877ADFED14
:104B0000686AC7EE267A644BC3ED187AD7ED047A4B
:104B10009FED627A27EE877ADFED616AC7EE267A2B
:104B20005D4BC3ED1A7A5C4BD3ED187A9FED5D7A3D
:104B3000F4EEC77AF1EE10FA02DD574B5A4A1A66C4
:104B4000554BD3ED187A9FED597AF4EEC77AF1EE12
:104B500010FA02D5504B564A1A664F4B93ED0C8A09
:104B600097ED050A0FF0B8F8F0EE407A28EE278AA4
:104B7000494BD3ED0E8A97ED050A0FF0F1F8F0EEF0
:104B8000407A68EEA77A78EE277AC7ED037A424B2F
:104B900093ED0C8A97ED040A0FF0E2F8F0EE407AFC
:104BA00028EE278A97ED050A0FF0DAF8F0EE407A42
:104BB00028EE278A384BD3ED0D8A97ED040A0FF0C3
:104BC0008BF8F0EE407A68EEA77A38EE278A324BFF
:104BD000D3ED0E8A97ED040A0FF0C2F8F0EE407A9A
:104BE00068EEA78A97ED050A0FF076F8F0EE407AA6
:104BF00068EEA77A78EE677AC7ED027AD7ED027A87
:104C0000F1EE677AD7ED030AB0EE670A0FF044F8C9
:104C1000F0EE407A9FED217A27EE877ADFED206A69
:104C2000C7EE267A1C4BC3ED197A1B4BD3ED197ACC
:104C3000F5EEC07AF1EE10FA09D5174BD3ED197ADB
:104C40009FED1C7A77EE877A134BC3ED197A124BDE
:104C50001B6E1846FBF780FC02460B46164801F017
:104C600005FD0D4B5B6E1846FBF776FC02460B46C6
:104C7000124801F0FBFC084B9B6E1846FBF76CFCDE
:104C800002460B460E4801F0F1FC00BF1837BD4646
:104C9000BDEC028B80BD00BF9C08002000003443A7
:104CA000DB0F49400000B4420000B4420000B4C22F
:104CB0000000B4C20000B443746E0108906E010895
:104CC000A86E010880B586B002AF3A601A46034666
:104CD000FB710B46BB7113467B71FB793B73BB7950
:104CE0007B737B7999B2642307F10C020093022352
:104CF000386805F0DBFE00BF1037BD4680BD000000
:104D000080B586B004AF78606423029301230193D9
:104D1000274B009301237522D021786805F0C4FF4A
:104D2000234B1B78712B3ED1D0237A6880216B20D6
:104D3000FFF7C8FF642004F0B5FED0237A68012194
:104D40006B20FFF7BFFF0A2004F0ACFED0237A6887
:104D500000216C20FFF7B6FFD0237A6803211A20C8
:104D6000FFF7B0FFD0237A6803211920FFF7AAFFCD
:104D7000D0237A6808211B20FFF7A4FFD0237A688C
:104D800010211C20FFF79EFFD0237A6803211D20ED
:104D9000FFF798FFD0237A6802213720FFF792FFB0
:104DA000044801F063FC00BF0837BD4680BD00BF6A
:104DB00098080020C46E01082DE9B04388B004AF04
:104DC000786064230293012301934E4B00930123E7
:104DD00000221821786805F067FF4A4B1B781946B6
:104DE000494801F043FC474B1B78482B40F0858035
:104DF00018237A6801210B20FFF764FF142004F0C8
:104E000051FE18237A6800210A20FFF75BFF0A2071
:104E100004F048FE18237A680F210A20FFF752FF9A
:104E20000A2004F03FFE6423029303230193374BCF
:104E30000093012310221821786805F035FF002324
:104E4000FB6019E0314AFB6813441B78803B07EE96
:104E5000903AB8EEE77ADFED2E6AC7EE267AB7EE23
:104E6000007A77EE877A2B4AFB689B001344C3EDE8
:104E7000007AFB680133FB60FB68022BE2DD234B09
:104E80001B781946214B5B781A46204B9B782248A9
:104E900001F0ECFB1F4B1B681846FBF75DFB8046DF
:104EA00089461C4B5B681846FBF756FB04460D46CB
:104EB000184B9B681846FBF74FFB02460B46CDE9A3
:104EC0000223CDE9004542464B46144801F0CEFB93
:104ED00018237A6800210A20FFF7F4FE0A2004F064
:104EE000E1FD18237A6816210A20FFF7EBFE0A205D
:104EF00004F0D8FD0A4801F0B9FB00BF1037BD46E9
:104F0000BDE8B08398080020DC6E01088808002006
:104F1000000080438C080020EC6E0108FC6E010844
:104F2000146F010880B588B004AF786064230293E1
:104F300006230193434B009301233B22D021786841
:104F400005F0B2FE0346002B03D03F4801F08EFB74
:104F500075E03C4B1B781BB21B021AB2394B5B78D5
:104F60001BB21343FB81374B9B781BB21B021AB257
:104F7000344BDB781BB21343BB81324B1B791BB222
:104F80001B021AB22F4B5B791BB213437B81B7F91B
:104F90000E3007EE903AB8EEE77A2C4BD3ED037A59
:104FA00037EE677ADFED2A6AC7EE267A274BC3ED24
:104FB000007AB7F90C3007EE903AB8EEE77A234B57
:104FC000D3ED047A37EE677ADFED216AC7EE267AF1
:104FD0001E4BC3ED017AB7F90A3007EE903AB8EEEE
:104FE000E77A1A4BD3ED057A37EE677ADFED186A68
:104FF000C7EE267AB7EE007A77EE877A134BC3EDC9
:10500000027A124B1B681846FBF7A6FA02460B46BB
:10501000104801F02BFB0D4B5B681846FBF79CFA20
:1050200002460B460C4801F021FB084B9B681846D2
:10503000FBF792FA02460B46084801F017FB1037BF
:10504000BD4680BD70080020246F01089C08002028
:1050500000008045386F01084C6F0108606F01083F
:1050600080B588B004AF786064230293062301936F
:105070003A4B009301234322D021786805F014FEB7
:105080000346002B03D0364801F0F0FA62E0334BC0
:105090001B781BB21B021AB2304B5B781BB2134356
:1050A000FB812E4B9B781BB21B021AB22B4BDB7879
:1050B0001BB21343BB81294B1B791BB21B021AB2D3
:1050C000264B5B791BB213437B81B7F90E3007EE99
:1050D000903AB8EEE77ADFED236AC7EE267A224BE4
:1050E000C3ED067AB7F90C3007EE903AB8EEE77ADE
:1050F000DFED1C6AC7EE267A1B4BC3ED077AB7F9C2
:105100000A3007EE903AB8EEE77ADFED166AC7EE9E
:10511000267A154BC3ED087A134B9B691846FBF7AB
:105120001BFA02460B46114801F0A0FA0E4BDB6950
:105130001846FBF711FA02460B460D4801F096FAA5
:10514000094B1B6A1846FBF707FA02460B4609484B
:1051500001F08CFA1037BD4680BD00BF78080020F2
:10516000246F0108000083429C080020746F01082E
:105170008C6F0108A46F010880B588B004AF786017
:1051800064230293072301935B4B009301230322C3
:105190001821786805F088FD0346002B03D0574896
:1051A00001F064FAA4E0544B5B781BB21B021AB204
:1051B000514B1B781BB21343FB814F4BDB781BB267
:1051C0001B021AB24C4B9B781BB21343BB814A4B58
:1051D0005B791BB21B021AB2474B1B791BB21343FC
:1051E0007B81474B474ADA63454B474A1A64444B35
:1051F000464A5A64424B464A9A64414B454ADA64ED
:105200003F4B454A1A65B7F90E3007EE903AB8EEB3
:10521000E77A424BD3ED007A67EE277A9FED407A2A
:1052200027EE877A364BD3ED0F7A37EE677A344B19
:10523000D3ED127A67EE277A314BC3ED0C7AB7F9CA
:105240000C3007EE903AB8EEE77A344BD3ED017AA2
:1052500067EE277A9FED327A27EE877A284BD3EDD7
:10526000107A37EE677A264BD3ED137A67EE277AFA
:10527000234BC3ED0D7AB7F90A3007EE903AB8EE3A
:10528000E77A264BD3ED027A67EE277A9FED247AF0
:1052900027EE877A1A4BD3ED117A37EE677A184BDF
:1052A000D3ED147A67EE277A154BC3ED0E7A144BC3
:1052B0001B6B1846FBF750F902460B46194801F0E4
:1052C000D5F90F4B5B6B1846FBF746F902460B46C8
:1052D000154801F0CBF90A4B9B6B1846FBF73CF9DC
:1052E00002460B46114801F0C1F9114801F0BEF920
:1052F0001037BD4680BD00BF80080020246F010824
:105300009C0800204A8C0542D9CE034277BE0FC2CA
:105310001748883F1C7C713F20D27F3F8C080020BB
:105320009A99193EBC6F0108D06F0108E46F01081B
:10533000F86F01082DE9F04FD7B00AAFF8676B4658
:105340001E464FF000024FF00003C7E94A234FF01A
:1053500000024FF00003C7E948234FF000024FF06E
:105360000003C7E946234FF000024FF00003C7E9EE
:1053700044234FF000024FF00003C7E942234FF0EF
:1053800000024FF00003C7E940234FF47A73C7F8D7
:10539000CC30D7F8CC100B46013BC7F8C8300023FF
:1053A0000C461D464FF000024FF000032B0143EA6C
:1053B000147322010023884699464FF000024FF0F3
:1053C00000034FEA091343EA18734FEA08124B002F
:1053D0000733DB08DB00ADEB030D0AAB01335B08E1
:1053E0005B00C7F8C430D7F8CC100B46013BC7F8B8
:1053F000C03000238A469B464FF000024FF0000366
:105400004FEA0B1343EA1A734FEA0A120023396773
:105410007B674FF000024FF00003D7E91C45284698
:105420000301204643EA1073204602014B00073374
:10543000DB08DB00ADEB030D0AAB01335B085B005F
:10544000C7F8BC30D7F8CC100B46013BC7F8B830D2
:105450000023B966FB664FF000024FF00003D7E966
:105460001A4528460301204643EA107320460201EC
:10547000002339667B664FF000024FF00003D7E946
:10548000184528460301204643EA107320460201CE
:105490004B000733DB08DB00ADEB030D0AAB013338
:1054A0005B085B00C7F8B430C64801F0DFF84FF482
:1054B0007A7004F0F7FA0023C7F8FC30F3E06423B5
:1054C000029306230193C04B009301234322D02172
:1054D000F86F05F0E9FB0346002B40F05F84BA4B00
:1054E0001B781BB21B021AB2B74B5B781BB213437B
:1054F000A7F88A30B44B9B781BB21B021AB2B24B8E
:10550000DB781BB21343A7F88830AF4B1B791BB273
:105510001B021AB2AC4B5B791BB21343A7F886305F
:10552000D7F8C410D7F8FC20B7F88A3021F8123029
:10553000D7F8BC10D7F8FC20B7F8883021F8123023
:10554000D7F8B410D7F8FC20B7F8863021F812301D
:10555000B7F98A30DA17BB65FA65D7E94A23D7E984
:10556000164521465118B96229464B41FB62D7E9DD
:105570000A34C7E94A34B7F98830DA173B657A65E7
:10558000D7E94823D7E914452146511839622946FD
:105590004B417B62D7E90834C7E94834B7F9863014
:1055A000DA17BB64FA64D7E94623D7E912452146E6
:1055B0005118B96129464B41FB61D7E90634C7E967
:1055C00046346423029306230193804B0093012306
:1055D0003B22D021F86F05F067FB0346002B40F01B
:1055E000DF837A4B1B781BB21B021AB2774B5B78B6
:1055F0001BB21343A7F88430744B9B781BB21B0279
:105600001AB2724BDB781BB21343A7F882306F4B90
:105610001B791BB21B021AB26C4B5B791BB2134392
:10562000A7F88030B7F98430DA173B647A64D7E999
:105630004423D7E9104521465118396129464B4189
:105640007B61D7E90434C7E94434B7F98230DA170B
:10565000BB63FA63D7E94223D7E90E4521465118C7
:10566000B96029464B41FB60D7E90234C7E94234AF
:10567000B7F98030DA173B637A63D7E94023D7E97B
:105680000C4521465118396029464B417B60D7E9CA
:105690000034C7E94034052004F004FAD7F8FC30A0
:1056A0000133C7F8FC30D7F8FC20D7F8CC309A4249
:1056B000FFF405AFD7E94A01FBF7BEFB06EE900AFF
:1056C000D7F8CC3007EE903AB8EE677AC6EE877A14
:1056D0003F4BC3ED097AD7E94801FBF7ADFB06EE76
:1056E000900AD7F8CC3007EE903AB8EE677AC6EE5B
:1056F000877A374BC3ED0A7AD7E94601FBF79CFB63
:1057000006EE900AD7F8CC3007EE903AB8EE677AFA
:10571000C6EE877A2E4BC3ED0B7AD7E94401FBF72F
:105720008BFB06EE900AD7F8CC3007EE903AB8EE35
:10573000677AC6EE877A264BC3ED037AD7E9420132
:10574000FBF77AFB06EE900AD7F8CC3007EE903ADA
:10575000B8EE677AC6EE877A1D4BC3ED047AD7E9B7
:105760004001FBF769FB06EE900AD7F8CC3007EE54
:10577000903AB8EE677AC6EE877A154BC3ED057A94
:105780004FF000024FF00003C7E94A234FF0000238
:105790004FF00003C7E948234FF000024FF0000329
:1057A000C7E946234FF00003C7F8F8304FF0000375
:1057B000C7F8F4304FF00003C7F8F0300023C7F803
:1057C000EC307EE0FC6F01087808002070080020B3
:1057D0009C080020D7F8C430D7F8EC2033F91230F9
:1057E00007EE903AB8EEE77AB34BD3ED097A37EE8D
:1057F000677AD7F8C430D7F8EC2033F9123007EEC7
:10580000903AF8EEE76AAC4BD3ED097A76EEE77A98
:1058100067EE277A97ED3E7A77EE277AC7ED3E7AE4
:10582000D7F8BC30D7F8EC2033F9123007EE903AB5
:10583000B8EEE77AA04BD3ED0A7A37EE677AD7F85D
:10584000BC30D7F8EC2033F9123007EE903AF8EE7E
:10585000E76A994BD3ED0A7A76EEE77A67EE277A14
:1058600097ED3D7A77EE277AC7ED3D7AD7F8B430D9
:10587000D7F8EC2033F9123007EE903AB8EEE77A19
:105880008D4BD3ED0B7A37EE677AD7F8B430D7F873
:10589000EC2033F9123007EE903AF8EEE76A864BC7
:1058A000D3ED0B7A76EEE77A67EE277A97ED3C7ABE
:1058B00077EE277AC7ED3C7AD7F8EC300133C7F89A
:1058C000EC30D7F8EC20D7F8CC309A4282D3D7F816
:1058D000CC30013B07EE903AB8EE677AD7ED3E6ADE
:1058E000C6EE877AC7ED3E7AD7F8CC30013B07EE9B
:1058F000903AB8EE677AD7ED3D6AC6EE877AC7ED83
:105900003D7AD7F8CC30013B07EE903AB8EE677A93
:10591000D7ED3C6AC6EE877AC7ED3C7A97ED3E0A32
:105920000EF0BCF9F0EE407A634BC3ED157A97EDBB
:105930003D0A0EF0B3F9F0EE407A5F4BC3ED167AF4
:1059400097ED3C0A0EF0AAF9F0EE407A5A4BC3EDFF
:10595000177A5A4800F08AFE574BD3ED037A9FED31
:10596000587AC7EE876A16EE900AFAF7F5FDC7E98E
:105970001C01514BD3ED047A9FED517AC7EE876A33
:1059800016EE900AFAF7E8FD04460D464A4BD3EDB1
:10599000057A9FED4B7AC7EE876A16EE900AFAF702
:1059A000DBFD80468946444BD3ED097A9FED457A6D
:1059B000C7EE876A16EE900AFAF7CEFD82468B464E
:1059C0003D4BD3ED0A7A9FED3F7AC7EE876A16EE1C
:1059D000900AFAF7C1FDC7E91A01374BD3ED0B7AEC
:1059E0009FED387AC7EE876A16EE900AFAF7B4FD93
:1059F00002460B46CDE9082397ED1A7B8DED067B19
:105A0000CDE904ABCDE90289CDE90045D7E91C23F6
:105A10002D4800F02BFE284BD3ED157A9FED297A07
:105A2000C7EE876A16EE900AFAF796FD8046894619
:105A3000214BD3ED167A9FED237AC7EE876A16EED7
:105A4000900AFAF789FD04460D461B4BD3ED177AF1
:105A50009FED1C7AC7EE876A16EE900AFAF77CFD76
:105A600002460B46CDE90223CDE9004542464B46AE
:105A7000164800F0FBFD164800F0F8FD4FF4FA6000
:105A800004F010F8134BC7F8E830124BC7F8E430B5
:105A9000104BC7F8E030104BC7F8DC300E4BC7F89E
:105AA000D8300D4BC7F8D4304FF47A73C7F8B03004
:105AB0000023C7F8D030BFE09C08002034700108F4
:105AC000000080450000834258700108AC70010856
:105AD000DC700108286B6E4E286B6ECE6423029337
