:020000040800F2
:1000000000000220757F0008FD5C0008055D000807
:100010000D5D0008155D00081D5D00080000000072
:10002000000000000000000000000000255D000846
:10003000335D000800000000415D00084F5D0008CE
:10004000C57F0008C57F0008C57F0008C57F000880
:10005000C57F0008C57F0008C57F0008C57F000870
:10006000C57F0008C57F0008C57F0008C57F000860
:10007000C57F0008C57F0008C57F0008C57F000850
:100080005D5D0008C57F0008715D0008000000008C
:10009000000000000000000000000000C57F000814
:1000A000C57F0008C57F0008C57F0008C57F000820
:1000B000855D0008C57F0008995D0008C57F0008C0
:1000C000C57F0008C57F0008C57F0008AD5D00083A
:1000D000C57F0008C15D0008D55D00080000000074
:1000E000C57F0008C57F0008C57F0008000000002C
:1000F000000000000000000000000000C57F0008B4
:1001000000000000C57F0008C57F0008C57F00080B
:1001100000000000000000000000000000000000DF
:10012000C57F0008C57F0008C57F0008C57F00089F
:10013000C57F000800000000000000000000000073
:10014000000000000000000000000000C57F000863
:10015000C57F0008C57F0008E95D0008C57F00086D
:10016000C57F0008C57F00080000000000000000F7
:10017000000000000000000000000000000000007F
:1001800000000000C57F0008000000000000000023
:08019000C57F0008C57F0008CF
:1001A00010B5054C237833B9044B13B10448AFF3B1
:1001B00000800123237010BDE0010020000000003A
:1001C0004058010808B5034B1BB103490348AFF37E
:1001D000008008BD00000000E40100204058010834
:1001E00001F0FF01102A2BDB10F0070F08D010F8E8
:1001F000013B013A8B422DD010F0070F42B3F6D1EC
:10020000F0B441EA012141EA014122F007047FF004
:1002100000070023F0E80256083C85EA010586EA5B
:10022000010685FA47F5A3FA87F586FA47F6A5FA97
:1002300087F68EB9EED1F0BC01F0FF0102F00702A3
:1002400032B110F8013B013A83EA010313B1F8D14E
:100250000020704701387047002D06BF354603382F
:10026000073815F0010F07D1013015F4807F02BF68
:10027000013015F4C03F0130F0BC0138704700BFB9
:10028000034613F8012B002AFBD1181A01387047D6
:1002900081F0004102E000BF83F0004330B54FEA37
:1002A00041044FEA430594EA050F08BF90EA020FA4
:1002B0001FBF54EA000C55EA020C7FEA645C7FEA37
:1002C000655C00F0E2804FEA5454D4EB5555B8BF5A
:1002D0006D420CDD2C4480EA020281EA030382EACB
:1002E000000083EA010180EA020281EA0303362D5D
:1002F00088BF30BD11F0004F4FEA01314FF4801C30
:100300004CEA113102D0404261EB410113F0004F41
:100310004FEA03334CEA133302D0524263EB4303F8
:1003200094EA050F00F0A780A4F10104D5F1200E96
:100330000DDB02FA0EFC22FA05F2801841F10001F1
:1003400003FA0EF2801843FA05F359410EE0A5F1C5
:1003500020050EF1200E012A03FA0EFC28BF4CF0F6
:10036000020C43FA05F3C01851EBE37101F00045AC
:1003700007D54FF0000EDCF1000C7EEB00006EEBB9
:100380000101B1F5801F1BD3B1F5001F0CD3490843
:100390005FEA30004FEA3C0C04F101044FEA44529A
:1003A00012F5800F80F09A80BCF1004F08BF5FEA21
:1003B000500C50F1000041EB045141EA050130BD01
:1003C0005FEA4C0C404141EB0101013C28BFB1F513
:1003D000801FE9D291F0000F04BF01460020B1FA5E
:1003E00081F308BF2033A3F10B03B3F120020CDA31
:1003F0000C3208DD02F1140CC2F10C0201FA0CF00F
:1004000021FA02F10CE002F11402D8BFC2F1200C73
:1004100001FA02F120FA0CFCDCBF41EA0C01904029
:10042000E41AA2BF01EB0451294330BD6FEA040472
:100430001F3C1CDA0C340EDC04F11404C4F120025D
:1004400020FA04F001FA02F340EA030021FA04F36F
:1004500045EA030130BDC4F10C04C4F1200220FAC6
:1004600002F001FA04F340EA0300294630BD21FA04
:1004700004F0294630BD94F0000F83F4801306BFCA
:1004800081F480110134013D4EE77FEA645C18BFBE
:100490007FEA655C29D094EA050F08BF90EA020F55
:1004A00005D054EA000C04BF1946104630BD91EA4D
:1004B000030F1EBF0021002030BD5FEA545C05D150
:1004C0004000494128BF41F0004130BD14F580048F
:1004D0003CBF01F5801130BD01F0004545F0FE4103
:1004E00041F470014FF0000030BD7FEA645C1ABF38
:1004F000194610467FEA655C1CBF0B46024650EA6F
:10050000013406BF52EA033591EA030F41F400219A
:1005100030BD00BF90F0000F04BF0021704730B520
:100520004FF4806404F132044FF000054FF00001F5
:1005300050E700BF90F0000F04BF0021704730B5B6
:100540004FF4806404F1320410F0004548BF40428B
:100550004FF000013EE700BF42004FEAE2014FEAE0
:1005600031014FEA02701FBF12F07F4393F07F4FBB
:1005700081F06051704732F07F4208BF704793F0BE
:100580007F4F04BF41F40021704730B54FF46074D1
:1005900001F0004521F000411CE700BF50EA0102D4
:1005A00008BF704730B54FF000050AE050EA01027D
:1005B00008BF704730B511F0004502D5404261EBED
:1005C00041014FF4806404F132045FEA915C3FF42E
:1005D000D8AE4FF003025FEADC0C18BF03325FEACB
:1005E000DC0C18BF033202EBDC02C2F1200300FA7C
:1005F00003FC20FA02F001FA03FE40EA0E0021FAA1
:1006000002F11444BDE600BF70B54FF0FF0C4CF48E
:10061000E06C1CEA11541DBF1CEA135594EA0C0F40
:1006200095EA0C0F00F0DEF82C4481EA030621EA7B
:100630004C5123EA4C5350EA013518BF52EA0335B6
:1006400041F4801143F4801338D0A0FB02CE4FF068
:100650000005E1FB02E506F00042E0FB03E54FF098
:100660000006E1FB03569CF0000F18BF4EF0010E90
:10067000A4F1FF04B6F5007F64F5407404D25FEA8C
:100680004E0E6D4146EB060642EAC62141EA55513F
:100690004FEAC52040EA5E504FEACE2EB4F1FD0C81
:1006A00088BFBCF5E06F1ED8BEF1004F08BF5FEAFF
:1006B000500E50F1000041EB045170BD06F00046B1
:1006C00046EA010140EA020081EA0301B4EB5C045E
:1006D000C2BFD4EB0C0541EA045170BD41F4801156
:1006E0004FF0000E013C00F3AB8014F1360FDEBF7B
:1006F000002001F0004170BDC4F10004203C35DA57
:100700000C341BDC04F11404C4F1200500FA05F3D9
:1007100020FA04F001FA05F240EA020001F000427A
:1007200021F0004110EBD37021FA04F642EB0601F0
:100730005EEA430E08BF20EAD37070BDC4F10C041A
:10074000C4F1200500FA04F320FA05F001FA04F2DE
:1007500040EA020001F0004110EBD37041F10001CA
:100760005EEA430E08BF20EAD37070BDC4F12005D5
:1007700000FA05F24EEA020E20FA04F301FA05F23D
:1007800043EA020321FA04F001F0004121FA04F2E5
:1007900020EA020000EBD3705EEA430E08BF20EAB5
:1007A000D37070BD94F0000F0FD101F000464000EF
:1007B00041EB010111F4801F08BF013CF7D041EA71
:1007C000060195F0000F18BF704703F00046520075
:1007D00043EB030313F4801F08BF013DF7D043EA46
:1007E0000603704794EA0C0F0CEA135518BF95EAFC
:1007F0000C0F0CD050EA410618BF52EA4306D1D183
:1008000081EA030101F000414FF0000070BD50EAA1
:10081000410606BF1046194652EA430619D094EA2B
:100820000C0F02D150EA013613D195EA0C0F05D115
:1008300052EA03361CBF104619460AD181EA030169
:1008400001F0004141F0FE4141F470014FF0000021
:1008500070BD41F0FE4141F4780170BD70B54FF0BC
:10086000FF0C4CF4E06C1CEA11541DBF1CEA13553C
:1008700094EA0C0F95EA0C0F00F0A7F8A4EB05041E
:1008800081EA030E52EA03354FEA013100F0888015
:100890004FEA03334FF0805545EA131343EA1263DE
:1008A0004FEA022245EA111545EA10654FEA002693
:1008B0000EF000419D4208BF964244F1FD0404F54C
:1008C000407402D25B084FEA3202B61A65EB0305A8
:1008D0005B084FEA32024FF480104FF4002CB6EB65
:1008E000020E75EB030E22BFB61A754640EA0C00E5
:1008F0005B084FEA3202B6EB020E75EB030E22BF25
:10090000B61A754640EA5C005B084FEA3202B6EB65
:10091000020E75EB030E22BFB61A754640EA9C0024
:100920005B084FEA3202B6EB020E75EB030E22BFF4
:10093000B61A754640EADC0055EA060E18D04FEAB2
:10094000051545EA16754FEA06164FEAC30343EA52
:1009500052734FEAC2025FEA1C1CC0D111F4801F1F
:100960000BD141EA00014FF000004FF0004CB6E718
:1009700011F4801F04BF01430020B4F1FD0C88BFB7
:10098000BCF5E06F3FF6AFAEB5EB030C04BFB6EBC2
:10099000020C5FEA500C50F1000041EB045170BDB5
:1009A0000EF0004E4EEA113114EB5C04C2BFD4EBE2
:1009B0000C0541EA045170BD41F480114FF0000E66
:1009C000013C90E645EA060E8DE60CEA135594EAE2
:1009D0000C0F08BF95EA0C0F3FF43BAF94EA0C0FE5
:1009E0000AD150EA01347FF434AF95EA0C0F7FF45A
:1009F00025AF104619462CE795EA0C0F06D152EAAE
:100A000003353FF4FDAE1046194622E750EA410691
:100A100018BF52EA43067FF4C5AE50EA41047FF4A2
:100A20000DAF52EA43057FF4EBAE12E74FF0FF3C07
:100A300006E000BF4FF0010C02E000BF4FF0010CD8
:100A40004DF804CD4FEA410C7FEA6C5C4FEA430C51
:100A500018BF7FEA6C5C1BD001B050EA410C0CBFA0
:100A600052EA430C91EA030F02BF90EA020F002002
:100A7000704710F1000F91EA030F58BF994208BF69
:100A800090422CBFD8176FEAE37040F00100704726
:100A90004FEA410C7FEA6C5C02D150EA013C07D17D
:100AA0004FEA430C7FEA6C5CD6D152EA033CD3D0C8
:100AB0005DF8040B704700BF8446104662468C46C2
:100AC0001946634600E000BF01B5FFF7B7FF0028F5
:100AD00048BF10F1000F01BD4DF808EDFFF7F4FF1E
:100AE0000CBF012000205DF808FB00BF4DF808EDA9
:100AF000FFF7EAFF34BF012000205DF808FB00BFCC
:100B00004DF808EDFFF7E0FF94BF012000205DF8ED
:100B100008FB00BF4DF808EDFFF7CEFF94BF0120A2
:100B200000205DF808FB00BF4DF808EDFFF7C4FF9B
:100B300034BF012000205DF808FB00BF4FEA410CE4
:100B40007FEA6C5C02D150EA013C0AD14FEA430CC7
:100B50007FEA6C5C02D152EA033C02D14FF0000004
:100B600070474FF0010070474FEA410212F5001242
:100B700015D211D56FF47873B3EB625212D94FEAE4
:100B8000C12343F0004343EA505311F0004F23FACE
:100B900002F018BF404270474FF00000704750EA23
:100BA000013005D111F0004008BF6FF000407047E0
:100BB0004FF00000704700BF4A0011D212F500123A
:100BC00011D20DD56FF47873B3EB62520ED44FEAA5
:100BD000C12343F0004343EA505323FA02F0704725
:100BE0004FF00000704750EA013002D14FF0FF3063
:100BF00070474FF0000070474FEA4102B2F1E04306
:100C000024BFB3F5001CDCF1FE5C0DD901F0004CF3
:100C10004FEAC0024CEA5070B2F1004F40EB830043
:100C200008BF20F00100704711F0804F21D113F16F
:100C30003872BCBF01F00040704741F480114FEAA8
:100C40005252C2F11802C2F1200C10FA0CF320FA31
:100C500002F018BF40F001004FEAC1234FEAD3234E
:100C600003FA0CFC40EA0C0023FA02F34FEA4303B8
:100C7000CCE77FEA625307D150EA01331EBF4FF041
:100C8000FE4040F44000704701F0004040F0FE405C
:100C900040F40000704700BF53B94AB9002908BFAB
:100CA00000281CBF4FF0FF314FF0FF3000F0BEB9FD
:100CB000ADF1080C6DE904CE00F03CF8DDF804E07D
:100CC000DDE9022304B0704738B500220023044652
:100CD0000D46FFF70BFF28B920462946BDE83840EE
:100CE00000F00AB8204605F1004100F005F8404246
:100CF00061EB410138BD00BFD0B50C4B0022064668
:100D00000F46FFF781FCFFF757FF0446FFF702FC91
:100D1000074B0022FFF778FC02460B463046394667
:100D2000FFF7BAFAFFF748FF2146D0BD0000F03DBB
:100D30000000F0412DE9F047089D8E4604468846A4
:100D4000002B4AD18A42174662D9B2FA82F64EB1D6
:100D5000C6F1200301FA06F820FA03F3B74043EA8C
:100D60000808B4404FEA174E1FFA87FCB8FBFEF1A3
:100D7000230C0EFB118843EA084301FB0CF29A4254
:100D800009D9FB1801F1FF3080F0EA809A4240F265
:100D9000E78002393B449A1AA3B2B2FBFEF00EFB85
:100DA000102243EA024300FB0CFC9C4509D9FB18C6
:100DB00000F1FF3280F0D6809C4540F2D3803B4466
:100DC000023840EA0140A3EB0C0300211DB1F340BF
:100DD0000022C5E90032BDE8F0878B4205D90DB18C
:100DE000C5E9000100210846F5E7B3FA83F10029BF
:100DF00046D1734502D3824200F20581841A6EEB1C
:100E0000030201209046002DE5D0C5E90048E2E745
:100E1000002A00F09080B2FA82F6002E40F0A48002
:100E20008A1A030C4FEA174E80B2BCB20121B2FB02
:100E3000FEFC0EFB1C2243EA024304FB0CF29A4226
:100E400007D9FB180CF1FF3802D29A4200F2E08079
:100E5000C4469B1AB3FBFEF20EFB123340EA034377
:100E600002FB04F49C4207D9FB1802F1FF3002D2C6
:100E70009C4200F2CA8002461B1B42EA0C40A5E7D6
:100E8000C1F120068B4022FA06F71F430EFA01F447
:100E900020FA06F32EFA06FE4FEA1749234300FA1A
:100EA00001F81FFA87FCBEFBF9F01C0C09FB10EEE1
:100EB00044EA0E4400FB0CFEA64502FA01F209D9F1
:100EC0003C1900F1FF3A80F09C80A64540F29980E1
:100ED00002383C44A4EB0E041FFA83FEB4FBF9F382
:100EE00009FB13444EEA044403FB0CFCA44508D957
:100EF0003C1903F1FF3E80F08280A4457FD9023B7C
:100F00003C4443EA0040A4EB0C04A0FB02EC644523
:100F10007346E14662D35FD05DB1B8EB030264EB88
:100F2000090404FA06F622FA01F31E43CC40C5E98F
:100F3000006400214FE7B1FBF2FC010C41EA0E41D5
:100F400080B240EA01423B4638463C46B846BE467F
:100F50002026B1FBF7F1A2EB080241EA0C4166E75B
:100F6000014618E710462CE7C6F120022EFA02F3DC
:100F7000B740B14020FA02F24FEA174E0A43B3FBE2
:100F8000FEF8BCB20EFB1833110C41EA034108FB1A
:100F900004F9B04089454FEA104380B23ED9791830
:100FA00008F1FF3C01D289451FD8A1EB0901B1FB33
:100FB000FEF909FB04F80EFB191192B242EA014254
:100FC000424529D2BA1809F1FF31C4D24245C2D2F2
:100FD000A9F102013A44BEE7F0459DD2BEEB0203FF
:100FE0006CEB070C0138E14696E7A7EB0909494489
:100FF000A8F1020CB1FBFEF909FB04F8DBE773462C
:101000007FE7504666E70846FDE63B44023A33E791
:10101000ACF1020C3B441CE749469CE7A1EB0901FB
:10102000C446B1FBFEF909FB04F8C4E7704700BFF2
:1010300080B58CB000AF87ED010A444BBB62444BD6
:101040007B62444B3B62444BFB61444BBB6197ED7D
:10105000017AD7ED0A7AB4EEE77AF1EE10FA02DB04
:10106000D7ED077A6CE097ED017AD7ED087AB4EE08
:10107000E77AF1EE10FA02D8DFED397A60E097ED09
:10108000017AD7ED097AB4EEE77AF1EE10FA1EDBB9
:1010900097ED077AD7ED067A77EE676A97ED0A7AC9
:1010A000D7ED097A37EE677AC6EE877AC7ED037A0D
:1010B00097ED017AD7ED097A37EE677AD7ED037AA3
:1010C00027EE277AD7ED067A77EE277A38E097ED84
:1010D000017AD7ED087A77EE676A97ED097AD7ED4E
:1010E000087A37EE677AC6EE877AC7ED0B7AD7EDC6
:1010F0000B7AF5EEC07AF1EE10FA02D54FF000034C
:10110000FB62D7ED0B7AB7EE007AF4EEC77AF1EE18
:1011100010FA02DD4FF07E53FB624FF080437B619B
:10112000D7ED050A97ED0B0A11F0E8FAB0EE407A18
:10113000D7ED067A67EE877AC7ED047AD7ED047AA1
:10114000B0EE670A3037BD4680BD00BF6666864098
:10115000CDCC4C40000040400000C842000020417F
:10116000000000000000000080B582B000AF2A4BF4
:101170001B78DBB2002B47D0284B1B6807EE903A58
:10118000B8EE677AF2EE046AC7EE267AC7ED017A06
:10119000D7ED017A9FED227A27EE877ADFED216A7B
:1011A000C7EE267AC7ED007AD7ED007A9FED1E7A5A
:1011B00067EE877A17EE900AFFF7CEF914A3D3E90A
:1011C0000023FFF76BF802460B4610461946FFF75F
:1011D00013FD0346154A1360144BD3ED007AB0EEAD
:1011E000670AFFF725FFF0EE407A114BC3ED007A56
:1011F0000A4B00221A600F4B00221A70064B002285
:101200001A700D4806F08AFF00BF0837BD4680BD42
:101210009A9999999999B93F01020020FC010020FF
:101220003333534000F07F454A90A73F040200202B
:101230000802002000020020C004002080B400AF9B
:10124000044B1B6807EE903AB0EE670ABD465DF8A6
:10125000047B70470802002080B582B000AF87EDA4
:10126000000BD7E90023D7E90001FFF7CDF90246CB
:101270000B4643EC172BB0EE470AF0EE670A08372F
:10128000BD4680BD80B586B000AFF860B96087ED1F
:10129000000BFB68002B06DBBB6803F10802BA6099
:1012A000D3E9002303E04FF000024FF00003C7E949
:1012B000042315E0D7E90023D7E90401FFF7A4F9D7
:1012C00002460B4610461946BB6803F10802BA6095
:1012D000D3E90023FEF7E2FF02460B46C7E90423E9
:1012E000FB68013BFB60FB68002BE3DAD7E90423D2
:1012F00043EC172BB0EE470AF0EE670A1837BD46ED
:1013000080BD80B485B000AF786039607B68D3E978
:101310000023C7E902233B68D3E900237968C1E9C8
:1013200000233968D7E90223C1E9002300BF14373D
:10133000BD465DF8047B704780B584B000AF78602F
:1013400039607B6893ED007B3B6893ED006BB0EEFA
:10135000461AF0EE661AB0EE470AF0EE670A10F091
:10136000F7FE87ED020B7B68D3E90001D7E9022382
:10137000FFF774FA02460B467968C1E900233B681F
:10138000D3E90001D7E90223FFF768FA02460B46CA
:101390003968C1E9002300BF1037BD4680BD000099
:1013A000B0B584B000AF87ED000B9FED151B97ED36
:1013B000000B10F001FF87ED020BBC68FB6823F007
:1013C00000454FF00002124B20462946FFF784FBF0
:1013D0000346002B0AD097ED001B9FED0B0B0DF081
:1013E000C5FEB0EE407AF0EE607A01E097ED027B48
:1013F000B0EE470AF0EE670A1037BD46B0BD00BF39
:101400000000000000807640000000000080664080
:101410000080664080B582B000AF87ED000B386871
:101420007B6823F000414FF000020A4BFFF77CFB82
:101430000346002B03D0084BD3E9002301E0D7E992
:10144000002343EC172BB0EE470AF0EE670A08378B
:10145000BD4680BD008056401802002080B588B08F
:1014600000AF87ED000B4FF000002049C7E90601EF
:101470003A68796821F00043C7E90423D7E90423D7
:10148000D7E90601FEF708FF02460B46C7E902232B
:10149000D7E902014FF000024FF00003FFF744FBD1
:1014A0000346002B08D0D7E90223D7E90601FEF74F
:1014B000F3FE02460B4601E0D7E90423C7E9042303
:1014C00097ED047B97ED001BB0EE470AF0EE670A3C
:1014D0000DF04CFEB0EE407AF0EE607AB0EE470AC6
:1014E000F0EE670A2037BD4680BD00BF0000B03F68
:1014F000B0B592B000AF87ED080BF861B961002379
:10150000FB6207F12C0318469FED4D1B97ED080B6E
:1015100011F04EFA87ED100B4B4BD3E90023D7E9BE
:101520001001FFF771F802460B46C7E9102397ED4B
:10153000100B11F08DF887ED0E0B97ED100B11F0DD
:101540002BF887ED0C0BFB6A03F00303022B22D070
:10155000022B37D8002B02D0012B0BD032E0F969D7
:10156000D7E90E23C1E90023B969D7E90C23C1E902
:10157000002334E0F969D7E90C23C1E90023BB6BF0
:101580003B61FB6B83F000437B61BB6997ED047BA0
:1015900083ED007B23E0BB6BBB60FB6B83F0004300
:1015A000FB60FB6997ED027B83ED007B3B6B3B604F
:1015B0007B6B83F000437B60BB6997ED007B83ED21
:1015C000007B0CE03C6B7B6B83F00045FB69C3E95F
:1015D0000045B969D7E90E23C1E9002300BFBB6903
:1015E000D3E900014FF000024FF00003FEF756FE72
:1015F00002460B46B969C1E90023FB69D3E9000142
:101600004FF000024FF00003FFF766FA0346002B8D
:1016100000D111E0FB6993ED007B97ED081BB0EE64
:10162000470AF0EE670A0DF0A1FDB0EE407AF0EE49
:10163000607AFB6983ED007B00BF4837BD46B0BDD3
:101640000000000000805640100200200000000052
:101650002DE9B04388B000AF87ED020B87ED001B8A
:101660000023FB61D7E90223104623F00041D7E9AC
:101670000023904623F0004942464B46FFF754FAB8
:101680000346002B08D007F108023B4611461846D6
:10169000FFF737FE0223FB61D7E9002303F0004385
:1016A000002B09D0D7E90023144683F00045C7E991
:1016B0000045FB690133FB6197ED027B97ED006B01
:1016C000B0EE461AF0EE661AB0EE470AF0EE670A80
:1016D00010F03CFD51EC100B294BD3E90023FFF730
:1016E000BDF802460B46C7E90423FB69032B2AD049
:1016F000FB69032B33DCFB69012B03D0FB69022B55
:1017000015D02CE097ED027BB0EE471AF0EE671A89
:101710009FED190B0DF02AFD51EC100BD7E90423B6
:10172000FEF7BAFD02460B46C7E9042318E0D7E9E5
:1017300004234FF000001349FEF7AEFD02460B46AE
:10174000C7E904230CE04FF000020E4BD7E9040177
:10175000FEF7A2FD02460B46C7E9042300E000BFE6
:10176000D7E9042343EC172BB0EE470AF0EE670AE3
:101770002037BD46BDE8B083000000000080664011
:1017800010020020008056402DE9B0432DED028B61
:1017900098B000AF7863396387ED0A0B87ED081BBB
:1017A00087ED062B87ED043B87ED024B7A603B6BA0
:1017B000D3E90023796BC1E906233B6BD3E902230C
:1017C000796BC1E908233B6BD3E90C23796BC1E941
:1017D00012233B6BD3E90E23796BC1E914233B6BD6
:1017E000D3E90423796BC1E916237B68002B05D06C
:1017F0007B6843F4024343F0800301E048F68B33F7
:101800007A6BC2F8F83197ED0A0BFFF703FEB0EEE2
:10181000407AF0EE607A7B6B83ED007B796BD7E9E1
:101820000823C1E90223796BD7E90623C1E9042320
:10183000796BD7E90423C1E90A23796BD7E902233D
:10184000C1E90C237B6B93ED007BB0EE470AF0EE11
:10185000670AFFF703FEB0EE407AF0EE607A07F118
:10186000400207F1380311461846B0EE470AF0EE81
:10187000670AFFF73DFE7B6BD3E91601D7E90E231C
:10188000FEF7C2FE02460B46C7E90E2307F14002EF
:1018900007F1380311461846FFF74EFD4E4B93ED06
:1018A000007B97ED106BB0EE461AF0EE661AB0EEC4
:1018B000470AF0EE670A11F02CF8B0EE407AF0EE2D
:1018C000607A87ED107B3B6BD3E9088997ED0E7B3F
:1018D000B0EE470AF0EE670AFFF7BEFC53EC102BA0
:1018E00040464946FEF790FE02460B461046194612
:1018F0004FF00002394BFEF7D1FC02460B4643EC99
:10190000172BB0EE470AF0EE670A10F081FCB0EE3C
:10191000407AF0EE607A7B6B83ED227B7B6BD3E9C0
:101920000A01D7E91023FEF76FFE02460B46796BDA
:10193000C1E918237B6B93ED0C8B7B6BD3E90A0118
:10194000D7E90E23FEF760FE02460B4643EC172B49
:10195000B0EE471AF0EE671AB0EE480AF0EE680AE9
:1019600010F0F6FBB0EE407AF0EE607A7B6B83ED20
:101970001A7BD7E90E23796BC1E91E237B6BD3E970
:101980001801D7E90E23FEF73FFE02460B46796B9E
:10199000C1E92823D7E90E014FF000024FF0000300
:1019A000FFF79AF80346002B0BD07B6BD3E90C01B1
:1019B0004FF000024FF00003FFF78EF80346002BB4
:1019C0000ED17B6BD3E90C01D7E91023FEF71CFE87
:1019D00002460B4607E000BF200200200000F03F57
:1019E0004FF00002BC4B796BC1E92A237B6BD3E932
:1019F0002A23796BC1E920237B6B03F178027B6B8F
:101A0000803319461046FFF797FC7B6B93ED1A7BEA
:101A1000B0EE470AF0EE670AFFF71EFC51EC100B20
:101A20003B6BD3E90823FEF7EFFD02460B46796BCB
:101A3000C1E91C237B6BD3E91C897B6BD3E91C01B7
:101A40004FF00002A44BFEF729FC02460B4643EC84
:101A5000172BB0EE470AF0EE670A10F0D9FB51ECF5
:101A6000100B4FF000029C4BFEF718FC02460B4691
:101A70001046194602460B46FEF710FC02460B467E
:101A8000104619467B6BD3E91C23FEF707FC024680
:101A90000B4640464946FEF7E1FE02460B46C7E9C3
:101AA00016237B6BD3F8F83103F00103002B7DD0B4
:101AB00097ED160B01F03CFEB0EE407AF0EE607A46
:101AC0007B6B83ED2C7B7B6BF033184697ED160B0D
:101AD00001F07AFE7B6B93ED1E7B7B6B93ED206BAD
:101AE0007B6BF03306221946B0EE461AF0EE661A0A
:101AF000B0EE470AF0EE670A012001F0A0FCB0EE5C
:101B0000407AF0EE607A7B6B83ED327B7B6B93EDFA
:101B1000327BB0EE470AF0EE670A10F099FD87EDD0
:101B2000140B7B6B93ED327BB0EE470AF0EE670A45
:101B300010F032FD87ED120B7B6BD3E91E01D7E964
:101B40001223FEF761FD02460B46904699467B6BD9
:101B5000D3E92001D7E91423FEF756FD02460B46D0
:101B600040464946FEF79AFB02460B46796BC1E9AF
:101B700024237B6BD3E92001D7E91223FEF744FD30
:101B800002460B46904699467B6BD3E91E01D7E986
:101B90001423FEF739FD02460B4640464946FEF740
:101BA0007BFB02460B46796BC1E926237B6BD3F89E
:101BB000F83103F00203002B07D07B6B03F594731D
:101BC000184697ED160B01F063FE7B6BD3F8F831E6
:101BD00003F00403002B2FD097ED160B01F0BCFE91
:101BE000B0EE407AF0EE607A7B6B83ED2E7B7B6B00
:101BF00003F5B073184697ED160B01F0F9FE7B6BF9
:101C000093ED1E7B7B6B93ED206B7B6B03F5B073C9
:101C100006221946B0EE461AF0EE661AB0EE470AF2
:101C2000F0EE670A012001F00AFCB0EE407AF0EE17
:101C3000607A7B6B83ED347B7B6BD3F8F83103F0F8
:101C40000803002B4AD07B6B03F5CC73194697ED44
:101C5000160B386B01F0D4FC7B6BD3E908231446D8
:101C600083F000457B6BD3E9182320462946FEF715
:101C7000CBFC02460B4614461D4697ED160B386BFF
:101C800001F0A4FC53EC102B20462946FEF7BCFCC7
:101C900002460B46796BC1E930237B6B93ED1E7BCB
:101CA0007B6B93ED206B7B6B03F5CC7305221946A0
:101CB000B0EE461AF0EE661AB0EE470AF0EE670A8A
:101CC000012001F0BCFBB0EE407AF0EE607A7B6B55
:101CD00083ED367B02E000BF0000F03F7B6BD3F862
:101CE000F83103F01003002B4CD07B6B03F5E47349
:101CF000194697ED160B386B01F0CEFC7B6B93ED1C
:101D0000067BB0EE470AF0EE670AFFF7A5FA51EC42
:101D1000100B7B6BD3E91A23FEF776FC02460B46C9
:101D2000104619467B6BD3E91823FEF76DFC02467B
:101D30000B46104619463B6BD3E90623FEF764FCBD
:101D400002460B46796BC1E938237B6B93ED1E7B12
:101D50007B6B93ED206B7B6B03F5E47306221946D6
:101D6000B0EE461AF0EE661AB0EE470AF0EE670AD9
:101D7000002001F064FBB0EE407AF0EE607A7B6BFD
:101D800083ED3A7B094BD3E90023796BC1E910233A
:101D90007B6BD3E91023796BC1E90E2300BF603759
:101DA000BD46BDEC028BBDE8B08300BF1802002029
:101DB00080B58EB000AF7862396287ED060B87ED93
:101DC000041B87ED022B7A6097ED020BFFF7E8FA10
:101DD00087ED020B97ED020BFFF740FBB0EE407A68
:101DE000F0EE607A07F1280207F130031146184639
:101DF000B0EE470AF0EE670AFFF77AFB97ED0C7B2F
:101E000097ED0A6B7A68B0EE464AF0EE664AB0EE9D
:101E1000473AF0EE673A97ED022B97ED041B97EDEA
:101E2000060B396A786AFFF7AFFC00BF3837BD464A
:101E300080BD0000000000002DE9F04F2DED028B69
:101E4000D3B000AF07F5A476A6F59A76306007F513
:101E5000A470A0F59C70016007F1080181ED000BF2
:101E600007F5A471A1F5A2710A6007F5A472A2F5A5
:101E7000A47213604FF000024FF00003C7E9502333
:101E80004FF000024FF00003C7E94E234FF000026D
:101E90004FF00003C7E94C234FF000024FF000035E
:101EA000C7E94A234FF000024FF00003C7E9482377
:101EB0004FF000024FF00003C7E946234FF0000245
:101EC0004FF00003C7E944234FF000024FF0000336
:101ED000C7E942234FF000024FF00003C7E93E2359
:101EE0004FF000024FF00003C7E93C2307F5A4734D
:101EF000A3F5A2731B68002B01D0802200E0002212
:101F000007F5A473A3F5A4731B68002B02D04FF44C
:101F1000847300E000231343D7F87821002A02D00D
:101F20004FF4007200E000221343D7F87C21002A0E
:101F300002D040F2014200E000221343D7F8802192
:101F4000002A02D041F2050200E000221343D7F834
:101F50008421002A03D1D7F88821002A02D042F236
:101F6000050200E000221343D7F88C21002A02D09A
:101F700044F2100200E000221343C7F8CC3007F50A
:101F8000A473A3F59A731B68D3F8F821D7F8CC3063
:101F9000134003F4FF43C7F8CC3007F5A473A3F54F
:101FA0009C731B6803F00103002B0FD107F5A4738A
:101FB000A3F59A731B68D3F8F83103F40063002B80
:101FC00004D1144BD3E9002301F02EB907F5A47313
:101FD000A3F59C731B6803F00103002B1ED00E4B6E
:101FE000D3E9002307F10801D1E90001FEF70CFB5A
:101FF00002460B46C7E9402307F1180207F1200308
:1020000007F108010E461146184696ED000BFFF742
:102010006FFAD5E1180200201002002007F5A47322
:10202000A3F59A731B68D3E912AB07F5A473A3F564
:102030009A731B68D3E92C014FF00002D04BFEF7D6
:102040002DF902460B4650465946FEF7DDFA024688
:102050000B4607F10801D1E90001FEF7FFFB02463C
:102060000B46C7E9302397ED300B10F0F1FA87EDFE
:102070002E0B97ED300B10F08FFA87ED2C0B07F538
:10208000A473A3F59A731B68D3E92401D7E92C2321
:10209000FEF7BAFA02460B4692469B4607F5A47332
:1020A000A3F59A731B68D3E92601D7E92E23FEF71F
:1020B000ABFA02460B4650465946FEF7EFF8024689
:1020C0000B4643EC182B07F5A473A3F59A731B6812
:1020D000D3E92601D7E92C23FEF796FA02460B46F0
:1020E00092469B4607F5A473A3F59A731B68D3E940
:1020F0002401D7E92E23FEF787FA02460B46504605
:102100005946FEF7C9F802460B4643EC172B07F574
:10211000A473A3F59A731B6803F5947306221946FA
:10212000B0EE471AF0EE671AB0EE480AF0EE680A11
:10213000012001F084F953EC102B1146C7F8F81078
:1021400083F00043C7F8FC3007F5A473A3F59A7336
:102150001B68D3E93223D7E93E01FEF79DF802461A
:102160000B46D7E93001FEF797F802460B46C7E960
:10217000402397ED400B10F06BFAB0EE407AF0EE92
:10218000607A07F1280303ED027B97ED400B10F016
:1021900003FAB0EE407AF0EE607A07F1180383EDAF
:1021A000007B07F5A473A3F59A731B68D3E9082392
:1021B000904623F0004970A3D3E9002340464946E6
:1021C000FEF7B2FC0346002B00F0FA8007F5A4737B
:1021D000A3F59A731B68D3E91E0107F11803D3E92D
:1021E0000023FEF711FA02460B469046994607F582
:1021F000A473A3F59A731B68D3E9200107F12803A0
:1022000053E90223FEF700FA02460B4640464946D0
:10221000FEF744F802460B46C7E92A2307F5A473E4
:10222000A3F59A731B68D3E9200107F11803D3E9DA
:102230000023FEF7E9F902460B469046994607F55A
:10224000A473A3F59A731B68D3E91E0107F1280351
:1022500053E90223FEF7D8F902460B4640464946A9
:10226000FEF71AF802460B46C7E93A2307F5A473AE
:10227000A3F59A731B68F0330622194697ED3A1BB3
:1022800097ED2A0B012001F0DAF887ED3E0B07F5F8
:10229000A473A3F59A731B68D3E92C014FF00002D5
:1022A000374BFDF7FBFF02460B469046994607F574
:1022B000A473A3F59A731B68D3E93223D7E93E01CF
:1022C000FDF7EAFF02460B4610461946D7E94023C0
:1022D000FDF7E4FF02460B4640464946FEF794F9F7
:1022E00002460B469046994607F5A473A3F59A73E8
:1022F0001B68D3E9122307F10801D1E90001FEF7B9
:10230000ADFA02460B4640464946FDF7C5FF024678
:102310000B46C7E9282307F5A473A3F59A731B6836
:10232000D3E91C8997ED2A0BFEF796FF53EC102B8F
:1023300040464946FEF768F902460B4610461946E4
:102340004FF000020E4BFDF7A9FF02460B4643EC8F
:10235000172BB0EE470AF0EE670A0FF059FF53EC67
:10236000102BD7E92801FEF779FA02460B46D7E988
:10237000400107E0AFF300807B14AE47E17A843F71
:102380000000F03FFDF788FF02460B46C7E94023F7
:1023900097ED400B10F05CF9B0EE407AF0EE607A09
:1023A00007F1280303ED027B97ED400B10F0F4F8E2
:1023B000B0EE407AF0EE607A07F1180383ED007B0F
:1023C00007F5A473A3F59A731B68D3E91E0107F1FF
:1023D0001803D3E90023FEF717F902460B4690468F
:1023E000994607F5A473A3F59A731B68D3E92001F6
:1023F00007F1280353E90223FEF706F902460B46CC
:1024000040464946FDF74AFF02460B46C7E92A23E4
:1024100007F5A473A3F59A731B68D3E9200107F1AC
:102420001803D3E90023FEF7EFF802460B46904667
:10243000994607F5A473A3F59A731B68D3E91E01A7
:1024400007F1280353E90223FEF7DEF802460B46A4
:1024500040464946FDF720FF02460B46C7E93A23AE
:1024600007F5A473A3F59A731B68D3E91C8997ED4C
:102470002A0BFEF7F1FE53EC102B40464946FEF7BF
:10248000C3F802460B46104619464FF00002844B33
:10249000FDF704FF02460B4643EC172BB0EE470A4C
:1024A000F0EE670A0FF0B4FE87ED260BD7F8CC20CC
:1024B00043F205431340002B52D007F5A473A3F554
:1024C0009C731B6803F00103002B13D107F5A47361
:1024D000A3F59A731B68D3E90823144623F000453B
:1024E0006DA3D3E9002320462946FEF71DFB0346D2
:1024F000002B10D007F5A473A3F59A731B68F03373
:102500000622194697ED3A1B97ED2A0B012000F0A1
:1025100096FF87ED3E0B07F5A473A3F59A731B682E
:10252000D3E92C014FF000025D4BFDF7B7FE0246E8
:102530000B4614461D4607F5A473A3F59A731B6852
:10254000D3E93223D7E93E01FDF7A6FE02460B464A
:1025500020462946FEF758F802460B46C7E93C23B9
:1025600007F5A473A3F59A731B68D3E91A23D7E977
:102570002A01FEF749F802460B46C7E9242307F56E
:10258000A473A3F59A731B6893ED188B07F5A473D6
:10259000A3F59A731B68D3E91A01D7E93A23FEF72A
:1025A00033F802460B4643EC172BB0EE471AF0EE19
:1025B000671AB0EE480AF0EE680A0FF0C9FD87ED21
:1025C000380B4FF000024FF00003D7E93801FEF757
:1025D00083FA0346002B08D0324BD3E90023C7E926
:1025E0003A23D7E93A23C7E9382307F5A473A3F5BB
:1025F0009A731B68D3E91823C7E9222307F5A4734C
:10260000A3F59A731B68D3E91A23D7E93A01FDF7BA
:10261000FBFF02460B46C7E92023D7F8CC2040F247
:1026200001431340002B45D007F5A473A3F59C7319
:102630001B6803F00103002B36D007F5A473A3F544
:102640009A731B68D3E9124507F5A473A3F59A732F
:102650001B68D3E92C014FF00002114BFDF71EFE61
:1026600002460B4610461946D7E94023FDF7CCFF3A
:1026700002460B4610461946D7E93C23FDF70EFEED
:1026800002460B4620462946FDF7BEFF02460B4692
:102690000EE000BFAFF300807B14AE47E17A843FC9
:1026A0000000F03F2002002007F10803D3E90023D7
:1026B000C7E94A23D7F8CC3003F48473002B00F029
:1026C000928107F5A473A3F59A731B6893ED187BA9
:1026D000B0EE471AF0EE671A9FEDAB0B0CF046FD1B
:1026E00087ED1E0B07F5A473A3F59A731B68D3E956
:1026F0001823D7E92A01FDF787FF02460B46C7E9F1
:102700001C23D7E93A23C7E91A2307F5A473A3F5D5
:102710009C731B6803F40043002B7CD097ED3A1B9D
:1027200097ED2A0B0FF012FD55EC104B07F5A47333
:10273000A3F59A731B6893ED1E7B07F5A473A3F5AD
:102740009A731B6893ED206BB0EE461AF0EE661A92
:10275000B0EE470AF0EE670A0FF0F8FC53EC102BCE
:1027600020462946FDF798FD02460B46D7E9400171
:10277000FDF792FD02460B4614461D46D7E91C2381
:10278000D7E91E01FDF740FF02460B4643EC172B2D
:1027900097ED1A1BB0EE470AF0EE670A0FF0D6FC71
:1027A00059EC108B07F5A473A3F59A731B68D3E952
:1027B0002801D7E91E23FDF727FF02460B4643EC0D
:1027C000162B07F5A473A3F59A731B6893ED2A7B68
:1027D000B0EE471AF0EE671AB0EE460AF0EE660A5F
:1027E0000FF0B4FC53EC102B40464946FDF754FD66
:1027F00002460B4620462946FDF750FD02460B4691
:1028000010461946D7E91E23FDF7FEFE02460B4689
:1028100043EC172B55E007F5A473A3F59A731B68D7
:10282000D3E92A01D7E91C23FDF7EEFE02460B4649
:1028300014461D4607F5A473A3F59A731B68D3E9E4
:102840002801D7E91A23FDF7DFFE02460B46204692
:102850002946FDF721FD02460B4643EC182B07F5F0
:10286000A473A3F59A731B68D3E92A01D7E91A2345
:10287000FDF7CAFE02460B4614461D4607F5A47333
:10288000A3F59A731B68D3E92801D7E91C23FDF748
:10289000BBFE02460B4620462946FDF7FFFC0246DA
:1028A0000B4643EC172BB0EE471AF0EE671AB0EE6A
:1028B000480AF0EE680A0FF049FCB0EE407AF0EEFC
:1028C000607A87ED187B07F5A473A3F59A731B68EC
:1028D000D3E9304507F5A473A3F59A731B6803F594
:1028E000CC730522194697ED3A1B97ED2A0B012070
:1028F00000F0A5FD51EC100B07F5A473A3F59A7336
:102900001B68D3E93623FDF7C7FC02460B46104689
:102910001946D7E94023FDF7C1FC02460B46204685
:102920002946FDF771FE02460B46D7E91801FDF76F
:10293000B5FC02460B46C7E91623154BD3E9002325
:10294000D7E91601FDF78AFF02460B46C7E91423B3
:1029500007F5A473A3F59C731B6803F40043002BD5
:1029600018D007F5A473A3F59A731B68D3E9020185
:10297000D7E91423FDF792FC02460B4643EC172BD4
:102980002FE000BFAFF30080000000000000F03F28
:102990001002002007F5A473A3F59A731B6893ED4A
:1029A000027BB0EE470AF0EE670AFEF7F9FC55EC41
:1029B000104B97ED140BFEF7F3FC53EC102B204655
:1029C0002946FDF76BFC02460B4643EC172BB0EE95
:1029D000470AF0EE670AFEF7E3FCB0EE407AF0EE4D
:1029E000607A87ED4E7BD7F8CC3003F08003002B64
:1029F00018D007F5A473A3F59A731B68D3E91601E1
:102A0000D7E93823FDF700FE02460B4643EC172BAF
:102A1000B0EE471AF0EE671A97ED240BFEF718FE9A
:102A200087ED500BD7F8CC3003F40073002B07D0A0
:102A300097ED201B97ED220BFEF70AFE87ED4C0B5E
:102A4000D7F8CC2043F205031340002B00F0B681E9
:102A500007F5A473A3F59A731B6803F5B07307F128
:102A6000480214460622194697ED3A1B97ED2A0BA9
:102A7000012000F0E4FC84ED000B07F5A473A3F53E
:102A80009A731B68D3E92E014FF000025F4BFDF7EC
:102A900005FC02460B4614461D4607F5A473A3F534
:102AA0009A731B68D3E9342307F14801D1E9000187
:102AB000FDF7F2FB02460B4607F148010E462046A1
:102AC0002946FDF7A1FD02460B4646E9022307F51C
:102AD000A473A3F59A731B68D3E92C0107F5A473BB
:102AE000A3F59A731B68D3E92E23FDF7D5FB0246A5
:102AF0000B4610461946D7E94023FDF785FD0246EF
:102B00000B4614461D4607F1480353E90223D7E953
:102B10003C01FDF7C1FB02460B4607F138010E46AA
:102B200020462946FDF7BAFB02460B46C6E90023BC
:102B3000D7F8CC2041F205031340002B68D007F5ED
:102B4000A473A3F59A731B68D3E9124507F5A47320
:102B5000A3F59A731B68D3E92001D7E92A23FDF76F
:102B600053FD02460B4610461946D7E92623FDF7CA
:102B70004BFD02460B4692469B4607F5A473A3F510
:102B80009A731B68D3E9228907F5A473A3F59A7396
:102B90001B68D3E91E01D7E93A23FDF735FD02464C
:102BA0000B4640464946FDF72FFD02460B46504670
:102BB0005946FDF771FB02460B469046994607F5CC
:102BC000A473A3F59A731B68D3E92001D7E93A23CC
:102BD000FDF71AFD02460B461046194607F1380369
:102BE000D3E90023FDF710FD02460B464046494657
:102BF000FDF752FB02460B4620462946FDF704FD31
:102C000002460B46C7E9482302E000BF0000F03F40
:102C1000D7F8CC2042F205031340002B00F0CE8001
:102C200007F5A473A3F59A731B68D3E91C4507F550
:102C3000A473A3F59A731B68D3E91E23D7E92A016D
:102C4000FDF72AFB02460B4620462946FDF7DCFC31
:102C500002460B4614461D4607F5A473A3F59A7366
:102C60001B68D3E91E01D7E92A23FDF717FB0246AB
:102C70000B4620462946FDF7C7FC02460B46144684
:102C80001D4607F5A473A3F59A731B68D3E92201C7
:102C9000D7E92623FDF702FB02460B4607F1380170
:102CA0000E4620462946FDF7D9FD02460B4646E969
:102CB000022307F138031946D7E92A2351E9020113
:102CC000FDF7A2FC02460B4614461D4607F13803E9
:102CD000D3E90023D7E93A01FDF796FC02460B46FB
:102CE00020462946FDF7D8FA02460B4610461946FB
:102CF00007F5A473A3F59A731B68D3E91E23FDF7A8
:102D000083FC02460B461046194607F5A473A3F54B
:102D10009A731B68D3E92223FDF7A0FD02460B46F8
:102D20001046194607F11803D3E90023FDF7B6FA58
:102D300002460B46C7E9462307F11803D3E90045CD
:102D400007F5A473A3F59A731B68D3E91E0107F175
:102D5000380353E90223FDF757FC02460B46904621
:102D6000994607F5A473A3F59A731B68D3E920016C
:102D700007F13803D3E90023FDF746FC02460B4672
:102D800040464946FDF788FA02460B46104619466A
:102D9000D7E92A23FDF738FC02460B4610461946B0
:102DA000D7E92623FDF75AFD02460B462046294661
:102DB000FDF772FA02460B46C7E94423D7F8CC2048
:102DC00044F210031340002B00F0888107F5A47330
:102DD000A3F59A731B6803F5E47307F12802144600
:102DE0000622194697ED3A1B97ED2A0B002000F0BA
:102DF00026FB84ED000B07F5A473A3F59A731B68FB
:102E0000D3E91A014FF000024FF00003FDF764FE12
:102E10000346002B0FD107F5A473A3F59A731B6823
:102E2000D3E918014FF000024FF00003FDF754FE04
:102E30000346002B48D007F5A473A3F59A731B68CB
:102E4000D3E90C01D7E92223FDF7DEFB02460B464E
:102E500014461D4607F5A473A3F59A731B68D3E9BE
:102E60000A01D7E92023FDF7CFFB02460B46204697
:102E70002946FDF711FA02460B46C7E9362307F546
:102E8000A473A3F59A731B68D3E90C01D7E9202337
:102E9000FDF7BAFB02460B4614461D4607F5A47320
:102EA000A3F59A731B68D3E90A01D7E92223FDF73A
:102EB000ABFB02460B4620462946FDF7EFF90246DA
:102EC0000B46C7E93423CEE007F5A473A3F59A7344
:102ED0001B68D3E91A0107F5A473A3F59A731B685D
:102EE000D3E91823FDF790FB02460B46904699461E
:102EF00007F11803D3E900014FF000024FF000037F
:102F0000FDF7FEFD0346002B31D007F5A473A3F5B2
:102F10009A731B68D3E9204507F11803D3E900230E
:102F20004FF00000BC49FDF7B7F902460B462046BA
:102F30002946FDF769FB02460B4614461D4607F578
:102F4000A473A3F59A731B68D3E91E0107F1280344
:102F500053E90223FDF758FB02460B46204629465B
:102F6000FDF79CF902460B46104619463AE007F574
:102F7000A473A3F59A731B68D3E9200107F1280312
:102F800053E90223FDF740FB02460B4614461D465B
:102F900007F11803D3E900014FF000029E4BFDF743
:102FA0007DF902460B4620462946FDF757FC0246AE
:102FB0000B461046194607F5A473A3F59A731B68D0
:102FC000D3E91E23FDF76AF902460B46104619465F
:102FD00007F1280353E90223FDF716FB02460B46CF
:102FE0001046194642464B46FDF70EFB02460B467D
:102FF000C7E9362307F5A473A3F59A731B6893ED0D
:10300000187BB0EE470AF0EE670AFEF725F955EC9B
:10301000104B07F5A473A3F59A731B6893ED1A7B05
:10302000B0EE470AF0EE670AFEF716F951EC100B06
:1030300007F5A473A3F59A731B68D3E92023FDF762
:10304000E3FA02460B4610461946D7E93A23FDF744
:10305000DBFA02460B4620462946FDF71FF90246D9
:103060000B46C7E9342307F5A473A3F59A731B68CD
:10307000D3E9144597ED341B97ED360B0FF066F846
:1030800053EC102B20462946FDF7BEFA02460B46AC
:103090009046994607F5A473A3F59A731B68D3E984
:1030A000384507F5A473A3F59A731B68D3E93A234F
:1030B00007F12801D1E90001FDF7EEF802460B46C1
:1030C00020462946FDF7A0FA02460B4640464946EF
:1030D000FDF7E4F802460B46C7E94223D7F8CC30A7
:1030E00003F08003002B0FD007F5A473A3F5A273A0
:1030F0001B68002B08D007F5A473A3F5A273196809
:10310000D7E95023C1E90023D7F8CC3003F4847306
:10311000002B0FD007F5A473A3F5A4731B68002B35
:1031200008D007F5A473A3F5A4731968D7E94E2353
:10313000C1E90023D7F8CC3003F40073002B09D089
:10314000D7F87831002B05D0D7F87811D7E94C2380
:10315000C1E90023D7F8CC2040F201431340002BF3
:1031600009D0D7F87C31002B05D0D7F87C11D7E9EE
:103170004A23C1E90023D7F8CC2041F205031340CC
:10318000002B09D0D7F88031002B05D0D7F880115B
:10319000D7E94823C1E90023D7F8CC2042F2050340
:1031A0001340002B13D0D7F88431002B05D0D7F86B
:1031B0008411D7E94623C1E90023D7F88831002BD1
:1031C00005D0D7F88811D7E94423C1E90023D7F8FF
:1031D000CC2044F210031340002B09D0D7F88C31D7
:1031E000002B05D0D7F88C11D7E94223C1E9002381
:1031F00007F5A473A3F59C731B6803F00103002B70
:103200000ED1064BD3E90023D7E94001FDF726FB99
:1032100002460B4608E000BF0000F03F100200200D
:1032200007F10803D3E9002343EC172BB0EE470A5C
:10323000F0EE670A07F5A677BD46BDEC028BBDE848
:10324000F08F00BFB0B5ADF5147D06AF07F50E7475
:10325000A4F50374206007F1280000ED020B07F1CC
:10326000180080ED001B07F1180000ED022B07F598
:103270000E70A0F50470016007F1080181ED003BBC
:1032800007F50E71A1F50D710A6007F50E72A2F532
:103290000E72136007F50E73A3F50D731B68002BF8
:1032A00001D0802200E0002207F50E73A3F50E7313
:1032B0001B68002B02D04FF4847300E000231343FB
:1032C000D7F84822002A02D04FF4007200E0002212
:1032D0001343D7F84C22002A02D040F2014200E00A
:1032E00000221343D7F85022002A02D041F20502EF
:1032F00000E000221343D7F85422002A03D1D7F864
:103300005822002A02D042F2050200E000221343B4
:10331000D7F85C22002A02D044F2100200E000221A
:103320001343C7F8343207F50E73A3F504731B6813
:1033300003F00103002B01D0002201E040F603025C
:10334000D7F834321A4307F118031D4607F1180362
:103350001C4607F12803194607F50E73A3F50373FE
:1033600007F1300015ED022B94ED001B11ED020B5F
:103370001968FEF71DFD07F50E73A3F50E7307F52B
:103380000E72A2F50D7207F108010D4607F50E71D8
:10339000A1F5047107F13004D7F85C020590D7F865
:1033A00058020490D7F854020390D7F850020290C4
:1033B000D7F84C020190D7F8480200901B681268B9
:1033C00095ED000B09682046FEF736FDB0EE407A19
:1033D000F0EE607AB0EE470AF0EE670A07F50E7776
:1033E000BD46B0BD80B592B006AFF86287ED080B60
:1033F00087ED061B87ED042B87ED023BB9627A60EF
:103400003B600023059300230493002303930023D0
:103410000293002301933B6800937B68BA6A97ED9F
:10342000023B002197ED042B97ED061B97ED080B4F
:10343000F86AFFF707FF00BF3037BD4680BDB0B563
:103440008EB000AFF86187ED040B87ED021BB96108
:103450007A607A68FB691344DB00BA691344BB6184
:10346000D7E90423D7E90201FCF716FF02460B4611
:103470001046194602460B46FCF710FF02460B4663
:1034800014461D46D7E90423D7E90201FCF706FFDD
:1034900002460B4620462946FDF7B6F802460B4683
:1034A000C7E908237B6803F00103002B06D0BB6942
:1034B000083BBB61BB69D3E9002303E04FF0000286
:1034C0004FF00003C7E90C234FF000024FF0000358
:1034D000C7E90A237B68DA0F13445B107B603BE08B
:1034E000D7E90C23D7E90801FDF78EF802460B4611
:1034F00010461946D7E90A23FCF7CEFE02460B46D2
:1035000010461946BB69083BBB61BB69D3E9002380
:10351000FCF7C4FE02460B46C7E90A23D7E90A2393
:10352000D7E90801FDF770F802460B461046194628
:10353000D7E90C23FCF7B0FE02460B4610461946AD
:10354000BB69083BBB61BB69D3E90023FCF7A6FE5E
:1035500002460B46C7E90C237B685A1E7A60002B93
:10356000BED1FB69002B18D0D7E9040102460B46F7
:10357000FCF794FE02460B4610461946D7E9022393
:10358000FDF742F802460B4610461946D7E90C23D0
:10359000FDF73AF802460B460FE0D7E90A23D7E9D0
:1035A0000C01FCF779FE02460B4610461946D7E996
:1035B0000223FDF729F802460B4643EC172BB0EE29
:1035C000470AF0EE670A3837BD46B0BD80B584B013
:1035D00000AFF86087ED000BFB68483397ED000BF8
:1035E00019460520FDF74EFEB0EE407AF0EE607A07
:1035F000B0EE470AF0EE670A1037BD4680BD000006
:1036000090B58BB000AFF86087ED000BB9604FF05C
:103610000002204BC7E908230023FB610123BB61A3
:103620002FE0BB69C3F105037B61D7E90023D7E92C
:103630000801FCF7E9FF02460B46C7E90823FB68CF
:1036400003F17802FB69DB00134497ED000B194688
:103650007869FDF717FE51EC100BBB69DB00BA6807
:10366000D418D7E90823FCF7CFFF02460B46C4E97C
:1036700000237B690133FA691344FB61BB690133A1
:10368000BB61BB69052BCCDD00BF00BF2C37BD463D
:1036900090BD00BF0000F03F90B58BB000AFF86068
:1036A00087ED000BB9604FF00002204BC7E90823FB
:1036B0000023FB610023BB612FE0BB69C3F105035D
:1036C0007B61FB6803F1F002FB69DB00134497EDBB
:1036D000000B19467869FDF7D5FD51EC100BBB695D
:1036E000DB00BA68D418D7E90823FCF78DFF02463F
:1036F0000B46C4E900237B690133FA691344FB617B
:10370000D7E90023D7E90801FCF77EFF02460B4604
:10371000C7E90823BB690133BB61BB69052BCCDD5D
:1037200000BF00BF2C37BD4690BD00BF0000F03F7A
:10373000B0B586B000AF87ED000B03237B6197ED3A
:10374000000BFDF789FDB0EE407AF0EE607AB0EE46
:10375000470AF0EE670A1A497869FDF793FD51ECC4
:10376000100B7B690133164ADB001344D3E90023B5
:10377000FDF774F802460B46C7E90223D7E9002398
:10378000D7E90201FCF78AFD02460B4614461D46A6
:10379000D7E900234FF000000A49FCF77DFD0246FF
:1037A0000B4620462946FDF759F802460B4643ECE6
:1037B000172BB0EE470AF0EE670A1837BD46B0BDCA
:1037C000486501080000F03F2DE990438DB000AF3F
:1037D00087ED020B786097ED020BFDF73DFD87ED5D
:1037E000060BD7E90223C7E90A2300237B620123E2
:1037F0003B6241E03B6AC3F10603DA0F13445B10FE
:103800007B617B6ADB00214A134497ED060B194666
:103810007869FDF737FD51EC100BD7E90A23FCF767
:10382000F3FE02460B46904699467A6A7B6913443A
:103830000133164ADB001344D3E90023396AC90077
:103840007868441840464946FDF708F802460B469A
:10385000C4E900237B6902337A6A13447B62D7E9A7
:103860000223D7E90A01FCF7CFFE02460B46C7E95F
:103870000A233B6A01333B623B6A062BBADD00BF79
:1038800000BF3437BD46BDE8908300BF70650108B6
:103890002DE990438DB000AF87ED020B786097ED76
:1038A000020BFDF7D9FC87ED060BD7E90223C7E928
:1038B0000A2300237B6201233B6241E03B6AC3F1A0
:1038C0000603DA0F13445B107B617B6ADB00214A3D
:1038D000134497ED060B19467869FDF7D3FC51ECBC
:1038E000100BD7E90A23FCF78FFE02460B469046E1
:1038F00099467A6A7B6913440133164ADB00134404
:10390000D3E90023396AC90078684418404649461B
:10391000FCF7A4FF02460B46C4E900237B6902338F
:103920007A6A13447B62D7E90223D7E90A01FCF7DC
:103930006BFE02460B46C7E90A233B6A01333B6232
:103940003B6A062BBADD00BF00BF3437BD46BDE879
:10395000908300BF00660108B0B586B000AF87ED68
:10396000000B03237B6197ED000BFDF775FCB0EEB8
:10397000407AF0EE607AB0EE470AF0EE670A1A4934
:103980007869FDF77FFC51EC100B7B690133164A17
:10399000DB001344D3E90023FCF760FF02460B462B
:1039A000C7E90223D7E90023D7E90201FCF774FC39
:1039B00002460B4614461D464FF000020B4BD7E95A
:1039C0000001FCF76BFC02460B4620462946FCF73B
:1039D00045FF02460B4643EC172BB0EE470AF0EECC
:1039E000670A1837BD46B0BD906601080000F03F79
:1039F0002DE990438DB000AF87ED020B786097ED15
:103A0000020BFDF729FC87ED060BD7E90223C7E976
:103A10000A2300237B6201233B6241E03B6AC3F13E
:103A20000603DA0F13445B107B617B6ADB00214ADB
:103A3000134497ED060B19467869FDF723FC51EC0A
:103A4000100BD7E90A23FCF7DFFD02460B46904630
:103A500099467A6A7B6913440133164ADB001344A2
:103A6000D3E90023396AC9007868441840464946BA
:103A7000FCF7F4FE02460B46C4E900237B690233DF
:103A80007A6A13447B62D7E90223D7E90A01FCF77B
:103A9000BBFD02460B46C7E90A233B6A01333B6282
:103AA0003B6A062BBADD00BF00BF3437BD46BDE818
:103AB000908300BFB86601082DE9B04FBEB00AAFD1
:103AC0007860396007F148035022002118460BF056
:103AD00077FA07F13C0300221A605A60C3F8072006
:103AE00007F12C0300221A605A609A60C3F80B2079
:103AF00007F11C0300221A605A609A60C3F80B2079
:103B000007F1140300221A60C3F803200023FB749A
:103B10000023BB7400237B7400233B740023FB73DE
:103B200007F13C0107F1480207F10F03099307F180
:103B30001003089307F11403079307F14803383380
:103B4000069307F148033033059307F112030493FA
:103B500007F11C03039307F11303029307F12C03EE
:103B6000019307F1110300930B468B4938680BF062
:103B700079F97B7C87F858303B7C87F89430FB7B65
:103B800087F8953007F13C03184609F096FAC7F814
:103B9000CC00D7F8CC30814A82FB03121213DB171A
:103BA000D31AFB64D7F8CC307D4A82FB0312521142
:103BB000DB17D21A7A4B83FB02135911D317CB1A96
:103BC000642101FB03F3D31A3B65D7F8CC20744B77
:103BD00083FB02135911D317CB1A642101FB03F3A2
:103BE000D31A7B65FB7C87F87030BB7C87F871301B
:103BF00007F12C03184609F05DFA87ED300B4FF002
:103C00000002684BD7E93001FCF728FE02460B465C
:103C100010461946FCF7A8FF0346C7F8BC30D7F892
:103C2000BC30642202FB03F31846FCF783FC024617
:103C30000B46D7E93001FCF72FFB02460B46C7E9DC
:103C40002C23D7F8BC00FCF775FC82468B464FF05E
:103C50000002554BD7E92C01FCF700FE02460B464B
:103C600050465946FCF71AFB02460B46C7E9182393
:103C7000FB7C532B06D1D7E91823904683F00049EB
:103C8000C7E9188907F11C03184609F013FA87EDF4
:103C90002A0B4FF00002434BD7E92A01FCF7DEFD67
:103CA00002460B4610461946FCF75EFF0346C7F86E
:103CB000A430D7F8A430642202FB03F31846FCF7C3
:103CC00039FC02460B46D7E92A01FCF7E5FA024621
:103CD0000B46C7E92623D7F8A400FCF72BFC804647
:103CE00089464FF00002304BD7E92601FCF7B6FDBC
:103CF00002460B4640464946FCF7D0FA02460B46C0
:103D0000C7E91A23BB7C572B06D1D7E91A231446DF
:103D100083F00045C7E91A4507F114031846FCF77C
:103D2000AFFA0346062B2AD107F10C0300210A46FD
:103D30001A800A469A703B7D3B737B7D7B7307F14B
:103D40000C03184609F0B9F90346C7F88830BB7D63
:103D50003B73FB7D7B7307F10C03184609F0ADF94B
:103D60000346C7F88C303B7E3B737B7E7B7307F149
:103D70000C03184609F0A1F90346C7F890307B6898
:103D8000184607F14803502219460BF0D0F978681D
:103D9000D037BD46BDE8B08FA8580108AD8BDB68B1
:103DA0001F85EB510000594000004E402DE9B04FF7
:103DB000B6B008AF7860396007F1500338220021AF
:103DC00018460BF0FDF807F1400300221A605A6014
:103DD0009A60C3F80B2007F1300300221A605A6082
:103DE0009A60C3F80B200023FB620023BB624FF0F4
:103DF00000024FF00003C7E908234FF000024FF024
:103E00000003C7E906234FF000024FF00003C7E9A3
:103E100004230023FB730023BB7307F10F0107F199
:103E2000400207F11003069307F11803059307F109
:103E30002003049307F12803039307F12C03029353
:103E400007F10E03019307F1300300930B4660491D
:103E500038680BF007F8FB6A7B66BB6ABB66D7E97C
:103E60000823C7E91C23D7E90623C7E91E23D7E99E
:103E70000423C7E92023FB7B87F86030BB7B87F8EE
:103E8000613007F14003184609F014F987ED2C0B57
:103E90004FF000024F4BD7E92C01FCF7DFFC024644
:103EA0000B4610461946FCF75FFE0346C7F8AC30D8
:103EB000D7F8AC30642202FB03F31846FCF73AFB58
:103EC00002460B46D7E92C01FCF7E6F902460B4601
:103ED000C7E92823D7F8AC00FCF72CFB82468B46B9
:103EE0004FF000023C4BD7E92801FCF7B7FC024633
:103EF0000B4650465946FCF7D1F902460B46C7E936
:103F00001423FB7B532B06D1D7E91423904683F06F
:103F10000049C7E9148907F13003184609F0CAF8C7
:103F200087ED260B4FF000022A4BD7E92601FCF75C
:103F300095FC02460B4610461946FCF715FE034653
:103F4000C7F89430D7F89430642202FB03F3184684
:103F5000FCF7F0FA02460B46D7E92601FCF79CF97C
:103F600002460B46C7E92223D7F89400FCF7E2FA91
:103F7000804689464FF00002174BD7E92201FCF733
:103F80006DFC02460B4640464946FCF787F902465F
:103F90000B46C7E91623BB7B572B06D1D7E916235F
:103FA000144683F00045C7E916457B681D4607F1B6
:103FB00050040FCC0FC50FCC0FC50FCC0FC594E824
:103FC000030085E803007868B837BD46BDE8B08FC8
:103FD000E85801080000594000004E40B0B5A6B0B6
:103FE00000AF424BC7F89430404BC7F8903072E0B6
:103FF000D7F894301B780D2B68D1D7F89430013363
:104000001B780A2B62D1D7F89420D7F89030D31AB6
:10401000C7F88C30D7F88C30002B09DCD7F89430F7
:104020000233C7F89430D7F89430C7F8903052E094
:10403000D7F88C307F2B02DD7F23C7F88C30D7F880
:104040008C301A46D7F8901029480BF070F8284A9F
:10405000D7F88C30134400221A70264924480AF0FD
:10406000C9FF0346002B14D0234C07F1500320490D
:104070001846FFF79BFE254607F150040FCC0FC5ED
:104080000FCC0FC50FCC0FC594E8030085E80300E3
:1040900012E01A4916480AF0ADFF0346002B0BD078
:1040A000174C3B4612491846FFF706FD20463B4693
:1040B000502219460BF03BF8D7F894300233C7F87A
:1040C0009430D7F89430C7F8903004E0D7F89430A3
:1040D0000133C7F89430D7F894301B78002B87D180
:1040E000002318469837BD46B0BD00BF2802002007
:1040F0002803002028590108A80300202C59010892
:10410000E003002080B483B000AF78600C4BD3E9AB
:1041100000237968C1E90023094BD3E902237968B8
:10412000C1E90223064BD3E90A237968C1E90423D4
:10413000002318460C37BD465DF8047B704700BF6E
:10414000A803002080B52DED028B86B000AF78600B
:10415000786800F035F9786800F0D0F9786800F0F8
:1041600059FA8C4B93ED008A8A4B93ED017A894B77
:10417000D3ED017A27EE277A864BD3ED026A854B81
:10418000D3ED027A66EEA77A77EE277AB0EE670A69
:104190000EF00CFBF0EE407AF0EE670AB0EE480A43
:1041A0000EF0AAFA87ED050A7A4B93ED018A794B56
:1041B00093ED007A774BD3ED007A27EE277A754B93
:1041C000D3ED026A734BD3ED027A66EEA77A77EEEF
:1041D000277AB0EE670A0EF0E9FAF0EE407AF0EED8
:1041E000670AB0EE480A0EF087FA87ED040AD7EDA9
:1041F000057A9FED697A27EE877ADFED686AC7EE68
:10420000267A644BC3ED187AD7ED047A9FED627A73
:1042100027EE877ADFED616AC7EE267A5D4BC3ED44
:104220001A7A5C4BD3ED187A9FED5D7AF4EEC77A7B
:10423000F1EE10FA02DD574B5A4A1A66554BD3ED90
:10424000187A9FED597AF4EEC77AF1EE10FA02D59A
:10425000504B564A1A664F4B93ED0C8A97ED050A60
:104260000EF0C2FAF0EE407A28EE278A494BD3EDE1
:104270000E8A97ED050A0EF0FBFAF0EE407A68EE32
:10428000A77A78EE277AC7ED037A424B93ED0C8A32
:1042900097ED040A0EF0ECFAF0EE407A28EE278A49
:1042A00097ED050A0EF0E4FAF0EE407A28EE278A40
:1042B000384BD3ED0D8A97ED040A0EF095FAF0EE27
:1042C000407A68EEA77A38EE278A324BD3ED0E8A11
:1042D00097ED040A0EF0CCFAF0EE407A68EEA78A69
:1042E00097ED050A0EF080FAF0EE407A68EEA77AB4
:1042F00078EE677AC7ED027AD7ED027AF1EE677A47
:10430000D7ED030AB0EE670A0EF0F6F9F0EE407A48
:104310009FED217A27EE877ADFED206AC7EE267AB5
:104320001C4BC3ED197A1B4BD3ED197AF5EEC07A0D
:10433000F1EE10FA09D5174BD3ED197A9FED1C7ADF
:1043400077EE877A134BC3ED197A124B1B6E184622
:10435000FCF702F902460B46164800F0C7FE0D4B6B
:104360005B6E1846FCF7F8F802460B46124800F060
:10437000BDFE084B9B6E1846FCF7EEF802460B4656
:104380000E4800F0B3FE00BF1837BD46BDEC028BEF
:1043900080BD00BF5404002000003443DB0F4940BF
:1043A0000000B4420000B4420000B4C20000B4C235
:1043B0000000B4436C59010888590108A05901084C
:1043C00080B588B004AF786064230293062301931C
:1043D000434B009301233B22D021786805F0A2FAD9
:1043E0000346002B03D03F4800F080FE75E03C4BB5
:1043F0001B781BB21B021AB2394B5B781BB21343FA
:10440000FB81374B9B781BB21B021AB2344BDB7813
:104410001BB21343BB81324B1B791BB21B021AB276
:104420002F4B5B791BB213437B81B7F90E3007EE3C
:10443000903AB8EEE77A2C4BD3ED037A37EE677AF1
:10444000DFED2A6AC7EE267A274BC3ED007AB7F96B
:104450000C3007EE903AB8EEE77A234BD3ED047AAE
:1044600037EE677ADFED216AC7EE267A1E4BC3ED81
:10447000017AB7F90A3007EE903AB8EEE77A1A4BAC
:10448000D3ED057A37EE677ADFED186AC7EE267A44
:10449000B7EE007A77EE877A134BC3ED027A124BB0
:1044A0001B681846FCF758F802460B46104800F007
:1044B0001DFE0D4B5B681846FCF74EF802460B4696
:1044C0000C4800F013FE084B9B681846FCF744F8B4
:1044D00002460B46084800F009FE1037BD4680BD75
:1044E000300400201C5A01085404002000008045BC
:1044F000305A0108445A0108585A010880B588B05A
:1045000004AF786064230293062301933A4B00932F
:1045100001234322D021786805F004FA0346002BDA
:1045200003D0364800F0E2FD62E0334B1B781BB24B
:104530001B021AB2304B5B781BB21343FB812E4B2C
:104540009B781BB21B021AB22B4BDB781BB21343B6
:10455000BB81294B1B791BB21B021AB2264B5B791C
:104560001BB213437B81B7F90E3007EE903AB8EED9
:10457000E77ADFED236AC7EE267A224BC3ED067A8F
:10458000B7F90C3007EE903AB8EEE77ADFED1C6A27
:10459000C7EE267A1B4BC3ED077AB7F90A3007EE50
:1045A000903AB8EEE77ADFED166AC7EE267A154B39
:1045B000C3ED087A134B9B691846FBF7CDFF024603
:1045C0000B46114800F092FD0E4BDB691846FBF7D5
:1045D000C3FF02460B460D4800F088FD094B1B6ADD
:1045E0001846FBF7B9FF02460B46094800F07EFD6E
:1045F0001037BD4680BD00BF380400201C5A01089A
:1046000000008342540400206C5A0108845A0108B7
:104610009C5A010880B588B004AF78606423029387
:10462000072301935B4B0093012303221821786831
:1046300005F078F90346002B03D0574800F056FDEB
:10464000A4E0544B5B781BB21B021AB2514B1B788F
:104650001BB21343FB814F4BDB781BB21B021AB218
:104660004C4B9B781BB21343BB814A4B5B791BB20B
:104670001B021AB2474B1B791BB213437B81474B7A
:10468000474ADA63454B474A1A64444B464A5A64E0
:10469000424B464A9A64414B454ADA643F4B454A8D
:1046A0001A65B7F90E3007EE903AB8EEE77A424B4A
:1046B000D3ED007A67EE277A9FED407A27EE877A6E
:1046C000364BD3ED0F7A37EE677A344BD3ED127A4F
:1046D00067EE277A314BC3ED0C7AB7F90C3007EE51
:1046E000903AB8EEE77A344BD3ED017A67EE277A49
:1046F0009FED327A27EE877A284BD3ED107A37EE8A
:10470000677A264BD3ED137A67EE277A234BC3EDF6
:104710000D7AB7F90A3007EE903AB8EEE77A264BF1
:10472000D3ED027A67EE277A9FED247A27EE877A17
:104730001A4BD3ED117A37EE677A184BD3ED147A12
:1047400067EE277A154BC3ED0E7A144B1B6B184698
:10475000FBF702FF02460B46194800F0C7FC0F4B5F
:104760005B6B1846FBF7F8FE02460B46154800F057
:10477000BDFC0A4B9B6B1846FBF7EEFE02460B4650
:10478000114800F0B3FC114800F0B0FC1037BD46F2
:1047900080BD00BF400400201C5A010854040020C2
:1047A0004A8C0542D9CE034277BE0FC21748883FD4
:1047B0001C7C713F20D27F3F480400209A99193E0B
:1047C000B45A0108C85A0108DC5A0108F05A010815
:1047D00080B586B000AF03F0F7FB00F017F900F0EA
:1047E000A3FB00F06BFB00F015FB00F025FA00F0D6
:1047F0003BFB00F057FA00F0C3F900F0EFF900F0CE
:1048000087FA00F0BBFA00F069F901F0D3FD6420EB
:1048100003F01CFC642003F019FC642003F016FC78
:10482000642003F013FC01F0D5FD1421002001F0F9
:10483000DBFD4FF47A71012001F0D6FD604B1B784F
:10484000012B40F0A0801421002001F0CDFD5D4837
:10485000FFF778FC5C495D4803F052FB5B4B9B68BB
:104860001846FBF779FE02460B465949C1E9002379
:10487000564B5B681846FBF76FFE02460B465549E0
:10488000C1E90023514B1B681846FBF765FE024641
:104890000B465149C1E900235048FFF733FC4F4B09
:1048A000D3E902234E49C1E900234C4BD3E900234D
:1048B0004C49C1E90023494BD3E904234A49C1E9E2
:1048C00000234A494FF00002494BC1E90023414B04
:1048D000D3E9000138A3D3E90023FBF795FE024694
:1048E0000B46104619464FF00002424BFBF7B6FF4D
:1048F00002460B46C7E9042397ED040B0DF04CFE6E
:1049000051EC100B394BD3E90023FBF77DFE024637
:104910000B46C7E9022397ED040B0DF099FE51EC0D
:10492000100B324BD3E90023FBF76EFE02460B4619
:10493000104619462C4BD3E90023FBF7AFFC024687
:104940000B462D49C1E90023264B93ED007B244BF8
:1049500093ED006B1E4B93ED005B0023274A284923
:1049600097ED023BB0EE452AF0EE652AB0EE461A0E
:10497000F0EE661AB0EE470AF0EE670A2148FEF73D
:1049800031FD01F020FD0E4B5B78012B7FF456AF1B
:1049900042F21071012001F027FDFCF7E5FBFCF766
:1049A0004DFCF0EE407AFCEEE77AC7ED017A3B79F8
:1049B000DAB2154B1A7041E7182D4454FB21094017
:1049C000440B002008050020540400205C0B00204C
:1049D000680800207008002078080020400A0020A5
:1049E0005008002058080020600800209808002087
:1049F00000407F4000806640900800208008002032
:104A000088080020A8080020A008002080B594B0E5
:104A100000AF07F120033022002118460AF0D0FA37
:104A200007F10C0300221A605A609A60DA601A617A
:104A30000023BB60274B1B6C264A43F08053136452
:104A4000244B1B6C03F08053BB60BB6800237B606E
:104A5000214B1B68204A43F4404313601E4B1B68E4
:104A600003F440437B607B6801233B624FF4803357
:104A70007B620223BB634FF48003FB630C233B6424
:104A800060237B640223BB640423FB6407F12003DF
:104A9000184605F04FFC0346002B01D000F020FB28
:104AA0000F23FB6002233B6100237B614FF48053A3
:104AB000BB610023FB6107F10C030321184605F0DD
:104AC000B1FE0346002B01D000F00AFB00BF5037B7
:104AD000BD4680BD003802400070004080B584B003
:104AE00000AF3B4600221A605A609A60DA60214BA0
:104AF000214A1A601F4B4FF480325A601D4B00222E
:104B00009A601C4B00221A611A4B00221A76194B2C
:104B1000002283F82020174B0022DA62154B174A37
:104B20009A62144B0022DA60124B0122DA61114BB7
:104B3000002283F830200F4B01225A610D4803F008
:104B4000A9FA0346002B01D000F0CAFA01233B600A
:104B500001237B600023BB603B461946054803F0F8
:104B6000C9FC0346002B01D000F0BAFA00BF103791
:104B7000BD4680BDC0040020002001400100000FA0
:104B800080B500AF124B134A1A60114B124A5A609B
:104B90000F4B00229A600E4B0022DA600C4B4FF450
:104BA00080421A610A4B00225A61094B00229A6125
:104BB000074B0022DA61064B00221A62044804F017
:104BC0006DFD0346002B01D000F08AFA00BF80BDC6
:104BD0000805002000580040A086010080B500AF05
:104BE000124B134A1A60114B124A5A600F4B0022A3
:104BF0009A600E4B0022DA600C4B4FF480421A612F
:104C00000A4B00225A61094B00229A61074B00228D
:104C1000DA61064B00221A62044804F03FFD0346A5
:104C2000002B01D000F05CFA00BF80BD5C050020C5
:104C3000005C0040A086010080B500AF174B184A09
:104C40001A60164B4FF482725A60144B00229A601D
:104C5000124B0022DA60114B00221A610F4B002226
:104C60005A610E4B4FF400729A610C4B0022DA61CC
:104C70000A4B00221A62094B00225A62074B00229B
:104C80009A62064B0A22DA62044805F0DDFF034609
:104C9000002B01D000F024FA00BF80BDB005002039
:104CA0000030014080B500AF174B184A1A60164B10
:104CB0004FF482725A60144B00229A60124B002209
:104CC000DA60114B00221A610F4B00225A610E4B21
:104CD00000229A610C4B0022DA610B4B00221A620F
:104CE000094B00225A62084B00229A62064B0A22A4
:104CF000DA62054805F0A8FF0346002B01D000F05A
:104D0000EFF900BF80BD00BF08060020003800405A
:104D100080B500AF174B184A1A60164B4FF48272D9
:104D20005A60144B00229A60124B0022DA60114B39
:104D300000221A610F4B00225A610E4B00229A6129
:104D40000C4B0022DA610B4B00221A62094B002245
:104D50005A62084B00229A62064B0A22DA62054820
:104D600005F072FF0346002B01D000F0B9F900BF37
:104D700080BD00BF60060020003C004080B586B0CA
:104D800000AF07F1080300221A605A609A60DA60E7
:104D90003B4600221A605A601D4B4FF080421A6059
:104DA0001B4B42F20F725A60194B00229A60184B4B
:104DB0006322DA60164B00221A61154B00229A61B9
:104DC000134806F009FB0346002B01D000F088F9D8
:104DD0004FF48053BB6007F1080319460C4806F0F6
:104DE0009DFC0346002B01D000F07AF900233B60C4
:104DF00000237B603B461946054806F09FFE0346AC
:104E0000002B01D000F06CF900BF1837BD4680BD03
:104E1000B806002080B500AF114B124A1A60104B43
:104E20004FF4E1325A600E4B00229A600C4B002284
:104E3000DA600B4B00221A61094B0C225A61084BB5
:104E400000229A61064B0022DA61054806F0F8FE5E
:104E50000346002B01D000F043F900BF80BD00BF26
:104E6000000700200010014080B500AF114B124A2E
:104E70001A60104B4FF4E1325A600E4B00229A60D8
:104E80000C4B0022DA600B4B00221A61094B0C22FA
:104E90005A61084B00229A61064B0022DA610548EC
:104EA00006F0CEFE0346002B01D000F019F900BF3A
:104EB00080BD00BF480700200044004080B582B09C
:104EC00000AF00237B60174B1B6B164A43F40013A3
:104ED0001363144B1B6B03F400137B607B6800238C
:104EE0003B60104B1B6B0F4A43F4800313630D4B65
:104EF0001B6B03F480033B603B6800220021102001
:104F000003F0E8FD102003F001FE002200214620FE
:104F100003F0E0FD462003F0F9FD00BF0837BD4671
:104F200080BD00BF0038024080B58AB000AF07F1F5
:104F3000140300221A605A609A60DA601A61002332
:104F40003B61404B1B6B3F4A43F0040313633D4BF3
:104F50001B6B03F004033B613B690023FB60394B8F
:104F60001B6B384A43F080031363364B1B6B03F013
:104F70008003FB60FB680023BB60324B1B6B314A34
:104F800043F0010313632F4B1B6B03F00103BB6062
:104F9000BB6800237B602B4B1B6B2A4A43F0020348
:104FA0001363284B1B6B03F002037B607B680022BA
:104FB0004FF40051244804F03DFB00221021234807
:104FC00004F038FB00220321214804F033FB4FF4A6
:104FD00000537B610123BB610023FB6100233B6223
:104FE00007F114031946184804F0A0F901237B6166
:104FF0000023BB610023FB6107F11403194613482A
:1050000004F094F910237B610123BB610023FB6151
:1050100000233B6207F1140319460C4804F086F99B
:1050200003237B610123BB610023FB6100233B62FF
:1050300007F114031946064804F078F900BF283731
:10504000BD4680BD0038024000080240000002401A
:105050000004024080B582B000AF78600B467B80D0
:105060007B681B680E4A934216D14FF400510D48DD
:1050700004F0F9FAFEF7B2FF4FF480720A490B48C8
:1050800006F0B9FE7B68DB6B1B681A687B68DB6B1C
:105090001B6822F008021A6000BF0837BD4680BDB9
:1050A0000044004000080240280200204807002079
:1050B00080B582B000AF78607B681B68B3F1804F29
:1050C00001D101F0B3F97B681B68044A934201D116
:1050D00002F09CFF00BF0837BD4680BD00080040BD
:1050E00080B400AF72B600BF00BFFDE70FB480B55B
:1050F00082B000AF07F114033B603B683A6980213E
:10510000104809F04FFF78607B68802B05DD802315
:105110007B6002E0012002F099FF0B4B93F84130D5
:10512000DBB2202BF6D17B689AB26423054906488E
:1051300006F0D6FD00BF0837BD46BDE8804004B08C
:10514000704700BF580A00200007002080B500AF5C
:1051500000221021024804F06DFA00BF80BD00BF9C
:105160000000024080B500AF01221021024804F087
:1051700061FA00BF80BD00BF0000024080B500AFF3
:1051800000220121064804F055FA052002F05EFFD6
:1051900001220121024804F04DFA00BF80BD00BF8A
:1051A0000004024080B582B000AF0346FB710022CC
:1051B0000221074804F03EFAF91D4FF0FF330122A7
:1051C000044805F0CAFD00BF0837BD4680BD00BFDA
:1051D00000040240B005002080B582B000AF7860C6
:1051E000396001220221074804F024FA3B689AB290
:1051F0004FF0FF337968044805F0AFFD00BF083772
:10520000BD4680BD00040240B005002080B584B0DA
:1052100000AF78607B685A1C7A601B78FB7334E0BF
:105220007B685A1C7A601B78FB72FB7A1846FFF782
:10523000B9FF7B685A1C7A601B78BB72BB7A9BB241
:1052400003F08003BB81BB7A03F07F03BB72BB7AA0
:10525000002B08D0BB7A19467868FFF7BDFFBB7AF0
:105260007A6813447B60BB89002B0ED07B685A1C84
:105270007A601B78BB81BB89FF2B02D14FF4FA7394
:10528000BB81BB89184602F0E1FEFB7B5A1EFA7314
:10529000002BC5D100BF00BF1037BD4680BD90B503
:1052A00085B000AF0446084611461A462346FB71F6
:1052B0000346BB710B467B7113463B712A20FFF7F7
:1052C00071FF00233B73FB790133DBB27B73002357
:1052D000BB737B790133DBB2FB7307F10C03042151
:1052E0001846FFF779FF2B20FFF75CFFBB790233ED
:1052F000DBB27B733B790233DBB2FB7307F10C0348
:1053000004211846FFF768FF2C20FFF74BFF00BF72
:105310001437BD4690BD000080B500AFFFF716FF03
:10532000FFF72CFF0648FFF771FF0648FFF76EFFF7
:105330000548FFF76BFFFFF715FF00BF80BD00BFFB
:1053400048670108846701089467010882B090B536
:1053500089B000AF7B630346FB800B46BB801346DE
:10536000FB70FB88D8B2BB88D9B2FB88DAB297F859
:1053700034301344DBB2013BDCB2BB88DAB297F8BD
:1053800035301344DBB2013BDBB22246FFF787FF27
:105390000023FB6143E0BA6BFB78203B97F83510A4
:1053A00001FB03F31946FB690B445B0013441B88A4
:1053B0007B610023BB6129E07A69BB6902FA03F3D0
:1053C00003F40043002B0ED0BB8F1B0A9BB2DBB251
:1053D0003B74BB8FDBB27B7407F1100302211846CC
:1053E000FFF7FAFE0FE0B7F840301B0A9BB2DBB2C2
:1053F0003B73B7F84030DBB27B7307F10C0302213B
:105400001846FFF7E9FEBB690133BB6197F83430FA
:105410001A46BB699342CFD3FB690133FB6197F80E
:1054200035301A46FB699342B5D300BF00BF24371D
:10543000BD46BDE8904002B0704782B080B586B0EE
:1054400004AF3A607B610346FB800B46BB80FFF7ED
:105450007DFE2DE0FB883A7D13449F2B13DD002356
:10546000FB807B7D1A46BB881344BB80BB887A7D5A
:1054700013447F2B21DC3B681B78202B03D13B6836
:1054800001333B6014E03B681A78B988F8883B8C9C
:105490000293BB8B0193BB6900937B69FFF756FFB7
:1054A0003B7D1A46FB881344FB803B6801333B601D
:1054B0003B681B78002BCDD100E000BFFFF752FE08
:1054C00000BF0837BD46BDE8804002B0704700000D
:1054D00090B585B000AF0446084611461A462346EB
:1054E000FB800346BB800B467B8013463B80FB88DA
:1054F0009F2B57D8BB887F2B54D8FA887B881344BE
:10550000A02B03DDFB88C3F1A0037B80BA883B8816
:105510001344802B03DDBB88C3F180033B80FFF77E
:1055200015FEFB88D8B2BB88D9B2FB88DAB27B887B
:10553000DBB21344DBB2013BDCB2BB88DAB23B889E
:10554000DBB21344DBB2013BDBB22246FFF7A7FE1E
:105550003B8C1B0A9BB2DBB23B733B8CDBB27B7395
:1055600001220221114804F065F83B88BB8013E05A
:105570007B88FB800AE007F10C014FF0FF33022229
:105580000B4805F0EAFBFB88013BFB80FB88002B06
:10559000F1D1BB88013BBB80BB88002BE8D1FFF772
:1055A000E1FD00E000BF1437BD4690BD000402409D
:1055B000B005002080B584B002AF0346FB80FB88B5
:1055C00000938023A02200210020FFF781FF00BF6D
:1055D0000837BD4680BD000080B483B000AF002313
:1055E0007B60104B5B6C0F4A43F4804353640D4B5C
:1055F0005B6C03F480437B607B6800233B60094B5A
:105600001B6C084A43F080531364064B1B6C03F079
:1056100080533B603B6800BF0C37BD465DF8047BA0
:10562000704700BF0038024080B58AB000AF786094
:1056300007F1140300221A605A609A60DA601A6156
:105640007B681B681B4A93422FD100233B611A4B96
:105650005B6C194A43F480735364174B5B6C03F41F
:1056600080733B613B690023FB60134B1B6B124A49
:1056700043F001031363104B1B6B03F00103FB604A
:10568000FB6802237B610323BB610023FB6107F1FD
:1056900014031946094803F049FE00220021122094
:1056A00003F018FA122003F031FA00BF2837BD4684
:1056B00080BD00BF002001400038024000000240D1
:1056C00080B58CB000AF786007F11C0300221A602F
:1056D0005A609A60DA601A617B681B684B4A934291
:1056E0003ED10023BB614A4B1B6B494A43F0020386
:1056F0001363474B1B6B03F00203BB61BB694FF4A1
:105700008063FB6112233B6200237B620323BB6245
:105710000423FB6207F11C0319463E4803F006FE12
:105720004FF40073FB6112233B6200237B6203236F
:10573000BB620923FB6207F11C031946354803F0DD
:10574000F5FD00237B61324B1B6C314A43F480032F
:1057500013642F4B1B6C03F480037B617B6950E067
:105760007B681B682C4A93424BD100233B61284B3A
:105770001B6B274A43F001031363254B1B6B03F09C
:1057800001033B613B690023FB60214B1B6B204AFB
:1057900043F0020313631E4B1B6B03F00203FB6019
:1057A000FB684FF48073FB6112233B6200237B6232
:1057B0000323BB620423FB6207F11C03194617484D
:1057C00003F0B4FD4FF48073FB6112233B620023AE
:1057D0007B620323BB620923FB6207F11C031946AA
:1057E0000C4803F0A3FD0023BB60094B1B6C084A67
:1057F00043F400031364064B1B6C03F40003BB600B
:10580000BB6800BF3037BD4680BD00BF00580040B8
:105810000038024000040240005C004000000240EA
:1058200080B58EB000AF786007F1240300221A60C3
:105830005A609A60DA601A617B681B685F4A93421B
:1058400034D100233B625E4B5B6C5D4A43F4805372
:1058500053645B4B5B6C03F480533B623B6A0023F5
:10586000FB61574B1B6B564A43F001031363544BC8
:105870001B6B03F00103FB61FB69A0237B62022326
:10588000BB620023FB6203233B6305237B6307F1B9
:10589000240319464B4803F049FD00220021232030
:1058A00003F018F9232003F031F982E07B681B68CC
:1058B000454A93422DD10023BB61414B1B6C404AAA
:1058C00043F4804313643E4B1B6C03F48043BB6181
:1058D000BB6900237B613A4B1B6B394A43F00203DF
:1058E0001363374B1B6B03F002037B617B694FF43F
:1058F00070437B620223BB620023FB6203233B6392
:1059000005237B6307F124031946304803F00EFD9D
:105910004FE07B681B682E4A93424AD100233B61CB
:10592000274B1B6C264A43F400431364244B1B6C27
:1059300003F400433B613B690023FB60204B1B6B7E
:105940001F4A43F0010313631D4B1B6B03F001035C
:10595000FB60FB680023BB60194B1B6B184A43F0CC
:1059600002031363164B1B6B03F00203BB60BB689F
:105970004FF400437B620223BB620023FB620323DC
:105980003B6306237B6307F1240319460D4803F0AC
:10599000CDFC38237B620223BB620023FB6203231E
:1059A0003B6306237B6307F124031946074803F092
:1059B000BDFC00BF3837BD4680BD00BF0030014090
:1059C000003802400000024000380040000402405D
:1059D000003C004080B584B000AF78607B681B68F5
:1059E000B3F1804F15D10023FB600C4B1B6C0B4AAD
:1059F00043F001031364094B1B6C03F00103FB60CC
:105A0000FB68002200211C2003F064F81C2003F036
:105A10007DF800BF1037BD4680BD00BF0038024092
:105A200080B58CB000AF786007F11C0300221A60CB
:105A30005A609A60DA601A617B681B68684A934210
:105A400062D10023BB61674B5B6C664A43F0100375
:105A50005364644B5B6C03F01003BB61BB690023B0
:105A60007B61604B1B6B5F4A43F0020313635D4B2A
:105A70001B6B03F002037B617B69C023FB61022384
:105A80003B6200237B620323BB620723FB6207F1B7
:105A90001C031946544803F049FC544B544A1A60FD
:105AA000524B4FF000625A60504B40229A604F4B6D
:105AB0000022DA604D4B4FF480621A614B4B00229A
:105AC0005A614A4B00229A61484B0022DA61474BE7
:105AD00000221A62454B00225A62444803F024F81F
