:020000040800F2
:1000000000000220852C000889270008912700089D
:1000100099270008A1270008A92700080000000070
:10002000000000000000000000000000B1270008F0
:10003000BF27000800000000CD270008DB270008CC
:10004000D52C0008D52C0008D52C0008D52C00088C
:10005000D52C0008D52C0008D52C0008D52C00087C
:10006000D52C0008D52C0008D52C0008D52C00086C
:10007000D52C0008D52C0008D52C0008D52C00085C
:10008000E9270008D52C0008D52C00080000000046
:10009000000000000000000000000000D52C000857
:1000A000D52C0008D52C0008D52C0008D52C00082C
:1000B000D52C0008D52C0008FD27000811280008C1
:1000C00025280008D52C0008D52C0008D52C0008C0
:1000D000D52C0008D52C00083928000800000000A5
:1000E000D52C0008D52C0008D52C000800000000F5
:1000F000000000000000000000000000D52C0008F7
:1001000000000000D52C0008D52C0008D52C0008D4
:1001100000000000000000000000000000000000DF
:10012000D52C0008D52C0008D52C0008D52C0008AB
:10013000D52C0008000000000000000000000000B6
:10014000000000000000000000000000D52C0008A6
:10015000D52C0008D52C0008D52C0008D52C00087B
:10016000D52C0008D52C000800000000000000007D
:10017000000000000000000000000000000000007F
:1001800000000000D52C0008000000000000000066
:08019000D52C0008D52C000855
:1001A00010B5054C237833B9044B13B10448AFF3B1
:1001B00000800123237010BDE0010020000000003A
:1001C0005CCF000808B5034B1BB103490348AFF3EC
:1001D000008008BD00000000E40100205CCF0008A2
:1001E00001F0FF01102A2BDB10F0070F08D010F8E8
:1001F000013B013A8B422DD010F0070F42B3F6D1EC
:10020000F0B441EA012141EA014122F007047FF004
:1002100000070023F0E80256083C85EA010586EA5B
:10022000010685FA47F5A3FA87F586FA47F6A5FA97
:1002300087F68EB9EED1F0BC01F0FF0102F00702A3
:1002400032B110F8013B013A83EA010313B1F8D14E
:100250000020704701387047002D06BF354603382F
:10026000073815F0010F07D1013015F4807F02BF68
:10027000013015F4C03F0130F0BC0138704700BFB9
:10028000034613F8012B002AFBD1181A01387047D6
:1002900081F0004102E000BF83F0004330B54FEA37
:1002A00041044FEA430594EA050F08BF90EA020FA4
:1002B0001FBF54EA000C55EA020C7FEA645C7FEA37
:1002C000655C00F0E2804FEA5454D4EB5555B8BF5A
:1002D0006D420CDD2C4480EA020281EA030382EACB
:1002E000000083EA010180EA020281EA0303362D5D
:1002F00088BF30BD11F0004F4FEA01314FF4801C30
:100300004CEA113102D0404261EB410113F0004F41
:100310004FEA03334CEA133302D0524263EB4303F8
:1003200094EA050F00F0A780A4F10104D5F1200E96
:100330000DDB02FA0EFC22FA05F2801841F10001F1
:1003400003FA0EF2801843FA05F359410EE0A5F1C5
:1003500020050EF1200E012A03FA0EFC28BF4CF0F6
:10036000020C43FA05F3C01851EBE37101F00045AC
:1003700007D54FF0000EDCF1000C7EEB00006EEBB9
:100380000101B1F5801F1BD3B1F5001F0CD3490843
:100390005FEA30004FEA3C0C04F101044FEA44529A
:1003A00012F5800F80F09A80BCF1004F08BF5FEA21
:1003B000500C50F1000041EB045141EA050130BD01
:1003C0005FEA4C0C404141EB0101013C28BFB1F513
:1003D000801FE9D291F0000F04BF01460020B1FA5E
:1003E00081F308BF2033A3F10B03B3F120020CDA31
:1003F0000C3208DD02F1140CC2F10C0201FA0CF00F
:1004000021FA02F10CE002F11402D8BFC2F1200C73
:1004100001FA02F120FA0CFCDCBF41EA0C01904029
:10042000E41AA2BF01EB0451294330BD6FEA040472
:100430001F3C1CDA0C340EDC04F11404C4F120025D
:1004400020FA04F001FA02F340EA030021FA04F36F
:1004500045EA030130BDC4F10C04C4F1200220FAC6
:1004600002F001FA04F340EA0300294630BD21FA04
:1004700004F0294630BD94F0000F83F4801306BFCA
:1004800081F480110134013D4EE77FEA645C18BFBE
:100490007FEA655C29D094EA050F08BF90EA020F55
:1004A00005D054EA000C04BF1946104630BD91EA4D
:1004B000030F1EBF0021002030BD5FEA545C05D150
:1004C0004000494128BF41F0004130BD14F580048F
:1004D0003CBF01F5801130BD01F0004545F0FE4103
:1004E00041F470014FF0000030BD7FEA645C1ABF38
:1004F000194610467FEA655C1CBF0B46024650EA6F
:10050000013406BF52EA033591EA030F41F400219A
:1005100030BD00BF90F0000F04BF0021704730B520
:100520004FF4806404F132044FF000054FF00001F5
:1005300050E700BF90F0000F04BF0021704730B5B6
:100540004FF4806404F1320410F0004548BF40428B
:100550004FF000013EE700BF42004FEAE2014FEAE0
:1005600031014FEA02701FBF12F07F4393F07F4FBB
:1005700081F06051704732F07F4208BF704793F0BE
:100580007F4F04BF41F40021704730B54FF46074D1
:1005900001F0004521F000411CE700BF50EA0102D4
:1005A00008BF704730B54FF000050AE050EA01027D
:1005B00008BF704730B511F0004502D5404261EBED
:1005C00041014FF4806404F132045FEA915C3FF42E
:1005D000D8AE4FF003025FEADC0C18BF03325FEACB
:1005E000DC0C18BF033202EBDC02C2F1200300FA7C
:1005F00003FC20FA02F001FA03FE40EA0E0021FAA1
:1006000002F11444BDE600BF70B54FF0FF0C4CF48E
:10061000E06C1CEA11541DBF1CEA135594EA0C0F40
:1006200095EA0C0F00F0DEF82C4481EA030621EA7B
:100630004C5123EA4C5350EA013518BF52EA0335B6
:1006400041F4801143F4801338D0A0FB02CE4FF068
:100650000005E1FB02E506F00042E0FB03E54FF098
:100660000006E1FB03569CF0000F18BF4EF0010E90
:10067000A4F1FF04B6F5007F64F5407404D25FEA8C
:100680004E0E6D4146EB060642EAC62141EA55513F
:100690004FEAC52040EA5E504FEACE2EB4F1FD0C81
:1006A00088BFBCF5E06F1ED8BEF1004F08BF5FEAFF
:1006B000500E50F1000041EB045170BD06F00046B1
:1006C00046EA010140EA020081EA0301B4EB5C045E
:1006D000C2BFD4EB0C0541EA045170BD41F4801156
:1006E0004FF0000E013C00F3AB8014F1360FDEBF7B
:1006F000002001F0004170BDC4F10004203C35DA57
:100700000C341BDC04F11404C4F1200500FA05F3D9
:1007100020FA04F001FA05F240EA020001F000427A
:1007200021F0004110EBD37021FA04F642EB0601F0
:100730005EEA430E08BF20EAD37070BDC4F10C041A
:10074000C4F1200500FA04F320FA05F001FA04F2DE
:1007500040EA020001F0004110EBD37041F10001CA
:100760005EEA430E08BF20EAD37070BDC4F12005D5
:1007700000FA05F24EEA020E20FA04F301FA05F23D
:1007800043EA020321FA04F001F0004121FA04F2E5
:1007900020EA020000EBD3705EEA430E08BF20EAB5
:1007A000D37070BD94F0000F0FD101F000464000EF
:1007B00041EB010111F4801F08BF013CF7D041EA71
:1007C000060195F0000F18BF704703F00046520075
:1007D00043EB030313F4801F08BF013DF7D043EA46
:1007E0000603704794EA0C0F0CEA135518BF95EAFC
:1007F0000C0F0CD050EA410618BF52EA4306D1D183
:1008000081EA030101F000414FF0000070BD50EAA1
:10081000410606BF1046194652EA430619D094EA2B
:100820000C0F02D150EA013613D195EA0C0F05D115
:1008300052EA03361CBF104619460AD181EA030169
:1008400001F0004141F0FE4141F470014FF0000021
:1008500070BD41F0FE4141F4780170BD70B54FF0BC
:10086000FF0C4CF4E06C1CEA11541DBF1CEA13553C
:1008700094EA0C0F95EA0C0F00F0A7F8A4EB05041E
:1008800081EA030E52EA03354FEA013100F0888015
:100890004FEA03334FF0805545EA131343EA1263DE
:1008A0004FEA022245EA111545EA10654FEA002693
:1008B0000EF000419D4208BF964244F1FD0404F54C
:1008C000407402D25B084FEA3202B61A65EB0305A8
:1008D0005B084FEA32024FF480104FF4002CB6EB65
:1008E000020E75EB030E22BFB61A754640EA0C00E5
:1008F0005B084FEA3202B6EB020E75EB030E22BF25
:10090000B61A754640EA5C005B084FEA3202B6EB65
:10091000020E75EB030E22BFB61A754640EA9C0024
:100920005B084FEA3202B6EB020E75EB030E22BFF4
:10093000B61A754640EADC0055EA060E18D04FEAB2
:10094000051545EA16754FEA06164FEAC30343EA52
:1009500052734FEAC2025FEA1C1CC0D111F4801F1F
:100960000BD141EA00014FF000004FF0004CB6E718
:1009700011F4801F04BF01430020B4F1FD0C88BFB7
:10098000BCF5E06F3FF6AFAEB5EB030C04BFB6EBC2
:10099000020C5FEA500C50F1000041EB045170BDB5
:1009A0000EF0004E4EEA113114EB5C04C2BFD4EBE2
:1009B0000C0541EA045170BD41F480114FF0000E66
:1009C000013C90E645EA060E8DE60CEA135594EAE2
:1009D0000C0F08BF95EA0C0F3FF43BAF94EA0C0FE5
:1009E0000AD150EA01347FF434AF95EA0C0F7FF45A
:1009F00025AF104619462CE795EA0C0F06D152EAAE
:100A000003353FF4FDAE1046194622E750EA410691
:100A100018BF52EA43067FF4C5AE50EA41047FF4A2
:100A20000DAF52EA43057FF4EBAE12E74FF0FF3C07
:100A300006E000BF4FF0010C02E000BF4FF0010CD8
:100A40004DF804CD4FEA410C7FEA6C5C4FEA430C51
:100A500018BF7FEA6C5C1BD001B050EA410C0CBFA0
:100A600052EA430C91EA030F02BF90EA020F002002
:100A7000704710F1000F91EA030F58BF994208BF69
:100A800090422CBFD8176FEAE37040F00100704726
:100A90004FEA410C7FEA6C5C02D150EA013C07D17D
:100AA0004FEA430C7FEA6C5CD6D152EA033CD3D0C8
:100AB0005DF8040B704700BF8446104662468C46C2
:100AC0001946634600E000BF01B5FFF7B7FF0028F5
:100AD00048BF10F1000F01BD4DF808EDFFF7F4FF1E
:100AE0000CBF012000205DF808FB00BF4DF808EDA9
:100AF000FFF7EAFF34BF012000205DF808FB00BFCC
:100B00004DF808EDFFF7E0FF94BF012000205DF8ED
:100B100008FB00BF4DF808EDFFF7CEFF94BF0120A2
:100B200000205DF808FB00BF4DF808EDFFF7C4FF9B
:100B300034BF012000205DF808FB00BF4FEA410CE4
:100B40007FEA6C5C02D150EA013C0AD14FEA430CC7
:100B50007FEA6C5C02D152EA033C02D14FF0000004
:100B600070474FF0010070474FEA410212F5001242
:100B700015D211D56FF47873B3EB625212D94FEAE4
:100B8000C12343F0004343EA505311F0004F23FACE
:100B900002F018BF404270474FF00000704750EA23
:100BA000013005D111F0004008BF6FF000407047E0
:100BB0004FF00000704700BF4A0011D212F500123A
:100BC00011D20DD56FF47873B3EB62520ED44FEAA5
:100BD000C12343F0004343EA505323FA02F0704725
:100BE0004FF00000704750EA013002D14FF0FF3063
:100BF00070474FF0000070474FEA4102B2F1E04306
:100C000024BFB3F5001CDCF1FE5C0DD901F0004CF3
:100C10004FEAC0024CEA5070B2F1004F40EB830043
:100C200008BF20F00100704711F0804F21D113F16F
:100C30003872BCBF01F00040704741F480114FEAA8
:100C40005252C2F11802C2F1200C10FA0CF320FA31
:100C500002F018BF40F001004FEAC1234FEAD3234E
:100C600003FA0CFC40EA0C0023FA02F34FEA4303B8
:100C7000CCE77FEA625307D150EA01331EBF4FF041
:100C8000FE4040F44000704701F0004040F0FE405C
:100C900040F40000704700BF53B94AB9002908BFAB
:100CA00000281CBF4FF0FF314FF0FF3000F0BEB9FD
:100CB000ADF1080C6DE904CE00F03CF8DDF804E07D
:100CC000DDE9022304B0704738B500220023044652
:100CD0000D46FFF70BFF28B920462946BDE83840EE
:100CE00000F00AB8204605F1004100F005F8404246
:100CF00061EB410138BD00BFD0B50C4B0022064668
:100D00000F46FFF781FCFFF757FF0446FFF702FC91
:100D1000074B0022FFF778FC02460B463046394667
:100D2000FFF7BAFAFFF748FF2146D0BD0000F03DBB
:100D30000000F0412DE9F047089D8E4604468846A4
:100D4000002B4AD18A42174662D9B2FA82F64EB1D6
:100D5000C6F1200301FA06F820FA03F3B74043EA8C
:100D60000808B4404FEA174E1FFA87FCB8FBFEF1A3
:100D7000230C0EFB118843EA084301FB0CF29A4254
:100D800009D9FB1801F1FF3080F0EA809A4240F265
:100D9000E78002393B449A1AA3B2B2FBFEF00EFB85
:100DA000102243EA024300FB0CFC9C4509D9FB18C6
:100DB00000F1FF3280F0D6809C4540F2D3803B4466
:100DC000023840EA0140A3EB0C0300211DB1F340BF
:100DD0000022C5E90032BDE8F0878B4205D90DB18C
:100DE000C5E9000100210846F5E7B3FA83F10029BF
:100DF00046D1734502D3824200F20581841A6EEB1C
:100E0000030201209046002DE5D0C5E90048E2E745
:100E1000002A00F09080B2FA82F6002E40F0A48002
:100E20008A1A030C4FEA174E80B2BCB20121B2FB02
:100E3000FEFC0EFB1C2243EA024304FB0CF29A4226
:100E400007D9FB180CF1FF3802D29A4200F2E08079
:100E5000C4469B1AB3FBFEF20EFB123340EA034377
:100E600002FB04F49C4207D9FB1802F1FF3002D2C6
:100E70009C4200F2CA8002461B1B42EA0C40A5E7D6
:100E8000C1F120068B4022FA06F71F430EFA01F447
:100E900020FA06F32EFA06FE4FEA1749234300FA1A
:100EA00001F81FFA87FCBEFBF9F01C0C09FB10EEE1
:100EB00044EA0E4400FB0CFEA64502FA01F209D9F1
:100EC0003C1900F1FF3A80F09C80A64540F29980E1
:100ED00002383C44A4EB0E041FFA83FEB4FBF9F382
:100EE00009FB13444EEA044403FB0CFCA44508D957
:100EF0003C1903F1FF3E80F08280A4457FD9023B7C
:100F00003C4443EA0040A4EB0C04A0FB02EC644523
:100F10007346E14662D35FD05DB1B8EB030264EB88
:100F2000090404FA06F622FA01F31E43CC40C5E98F
:100F3000006400214FE7B1FBF2FC010C41EA0E41D5
:100F400080B240EA01423B4638463C46B846BE467F
:100F50002026B1FBF7F1A2EB080241EA0C4166E75B
:100F6000014618E710462CE7C6F120022EFA02F3DC
:100F7000B740B14020FA02F24FEA174E0A43B3FBE2
:100F8000FEF8BCB20EFB1833110C41EA034108FB1A
:100F900004F9B04089454FEA104380B23ED9791830
:100FA00008F1FF3C01D289451FD8A1EB0901B1FB33
:100FB000FEF909FB04F80EFB191192B242EA014254
:100FC000424529D2BA1809F1FF31C4D24245C2D2F2
:100FD000A9F102013A44BEE7F0459DD2BEEB0203FF
:100FE0006CEB070C0138E14696E7A7EB0909494489
:100FF000A8F1020CB1FBFEF909FB04F8DBE773462C
:101000007FE7504666E70846FDE63B44023A33E791
:10101000ACF1020C3B441CE749469CE7A1EB0901FB
:10102000C446B1FBFEF909FB04F8C4E7704700BFF2
:1010300080B485B000AF78600023FB730023BB60F1
:101040007B681B78242B0DD17B6801337B6009E022
:10105000BB687A6813441A78FB7B5340FB73BB6808
:101060000133BB60BB687A6813441B78002B05D042
:10107000BB687A6813441B782A2BE9D1FB7B18469E
:101080001437BD465DF8047B7047000080B5C6B0DC
:1010900002AF07F58873A3F58673186007F58873A8
:1010A000A3F586731B681B78242B11D007F5887372
:1010B000A3F5867307F188001B681D4A802108F09C
:1010C000C9FD07F58873A3F5867307F188021A60D6
:1010D00007F58873A3F586731868FFF7A9FF034621
:1010E00087F80F3197F80F2107F58873A3F58673FA
:1010F00007F1080000921B680E4A802108F0AAFD43
:10110000C7F80801D7F808319AB207F108014FF47F
:101110007A73094805F034FD0346002B01D1002302
:1011200000E00123184607F58877BD4680BD00BF63
:1011300078CF00087CCF00086C07002080B500AF96
:101140001048FFF7A3FF642001F008FE0E48FFF7E8
:101150009DFF642001F002FE0C48FFF797FF64201A
:1011600001F0FCFD0A48FFF791FF642001F0F6FD55
:101170004FF480720749084805F08DFD002318469A
:1011800080BD00BF88CF000898CF0008A8CF000816
:10119000B8CF0008580200206C0700202DE9B04F9E
:1011A000BEB00AAF7860396007F1480350220021D1
:1011B000184608F018FE07F13C0300221A605A6036
:1011C000C3F8072007F12C0300221A605A609A60C6
:1011D000C3F80B2007F11C0300221A605A609A60C2
:1011E000C3F80B2007F1140300221A60C3F8032090
:1011F0000023FB740023BB7400237B7400233B7427
:101200000023FB7307F13C0107F1480207F10F03CC
:10121000099307F11003089307F11403079307F1EB
:1012200048033833069307F148033033059307F139
:101230001203049307F11C03039307F113030293B2
:1012400007F12C03019307F1110300930B468B491F
:10125000386808F057FD7B7C87F858303B7C87F86E
:101260009430FB7B87F8953007F13C03184606F075
:1012700074FEC7F8CC00D7F8CC30814A82FB031249
:101280001213DB17D31AFB64D7F8CC307D4A82FBEC
:1012900003125211DB17D21A7A4B83FB0213591136
:1012A000D317CB1A642101FB03F3D31A3B65D7F89C
:1012B000CC20744B83FB02135911D317CB1A642132
:1012C00001FB03F3D31A7B65FB7C87F87030BB7C92
:1012D00087F8713007F12C03184606F03BFE87EDC6
:1012E000300B4FF00002684BD7E93001FFF7B6FA38
:1012F00002460B4610461946FFF736FC0346C7F870
:10130000BC30D7F8BC30642202FB03F31846FFF769
:1013100011F902460B46D7E93001FEF7BDFF024640
:101320000B46C7E92C23D7F8BC00FFF703F9824628
:101330008B464FF00002554BD7E92C01FFF78EFA90
:1013400002460B4650465946FEF7A8FF02460B469A
:10135000C7E91823FB7C532B06D1D7E91823904605
:1013600083F00049C7E9188907F11C03184606F005
:10137000F1FD87ED2A0B4FF00002434BD7E92A011C
:10138000FFF76CFA02460B4610461946FFF7ECFBD6
:101390000346C7F8A430D7F8A430642202FB03F355
:1013A0001846FFF7C7F802460B46D7E92A01FEF7B1
:1013B00073FF02460B46C7E92623D7F8A400FFF7C0
:1013C000B9F8804689464FF00002304BD7E9260134
:1013D000FFF744FA02460B4640464946FEF75EFFD9
:1013E00002460B46C7E91A23BB7C572B06D1D7E927
:1013F0001A23144683F00045C7E91A4507F1140380
:101400001846FEF73DFF0346062B2AD107F10C03D1
:1014100000210A461A800A469A703B7D3B737B7D09
:101420007B7307F10C03184606F097FD0346C7F8D7
:101430008830BB7D3B73FB7D7B7307F10C03184643
:1014400006F08BFD0346C7F88C303B7E3B737B7EFA
:101450007B7307F10C03184606F07FFD0346C7F8BF
:1014600090307B68184607F148035022194608F06F
:1014700072FD7868D037BD46BDE8B08FC8CF000890
:10148000AD8BDB681F85EB510000594000004E40DA
:101490002DE9B04FB6B008AF7860396007F150035E
:1014A00038220021184608F09EFC07F14003002274
:1014B0001A605A609A60C3F80B2007F130030022CB
:1014C0001A605A609A60C3F80B200023FB62002365
:1014D000BB624FF000024FF00003C7E908234FF052
:1014E00000024FF00003C7E906234FF000024FF05F
:1014F0000003C7E904230023FB730023BB7307F138
:101500000F0107F1400207F11003069307F11803DA
:10151000059307F12003049307F12803039307F1D0
:101520002C03029307F10E03019307F1300300939C
:101530000B466049386808F0E5FBFB6A7B66BB6ACE
:10154000BB66D7E90823C7E91C23D7E90623C7E907
:101550001E23D7E90423C7E92023FB7B87F86030EB
:10156000BB7B87F8613007F14003184606F0F2FCB8
:1015700087ED2C0B4FF000024F4BD7E92C01FFF702
:101580006DF902460B4610461946FFF7EDFA034681
:10159000C7F8AC30D7F8AC30642202FB03F318462E
:1015A000FEF7C8FF02460B46D7E92C01FEF774FE92
:1015B00002460B46C7E92823D7F8AC00FEF7BAFF6E
:1015C00082468B464FF000023C4BD7E92801FFF7DB
:1015D00045F902460B4650465946FEF75FFE024665
:1015E0000B46C7E91423FB7B532B06D1D7E9142301
:1015F000904683F00049C7E9148907F13003184683
:1016000006F0A8FC87ED260B4FF000022A4BD7E925
:101610002601FFF723F902460B4610461946FFF74D
:10162000A3FA0346C7F89430D7F89430642202FB3B
:1016300003F31846FEF77EFF02460B46D7E9260164
:10164000FEF72AFE02460B46C7E92223D7F894008C
:10165000FEF770FF804689464FF00002174BD7E92E
:101660002201FFF7FBF802460B4640464946FEF7CB
:1016700015FE02460B46C7E91623BB7B572B06D146
:10168000D7E91623144683F00045C7E916457B6861
:101690001D4607F150040FCC0FC50FCC0FC50FCC62
:1016A0000FC594E8030085E803007868B837BD46A5
:1016B000BDE8B08F08D000080000594000004E403F
:1016C00080B582B000AF78600B467B807B88B3F535
:1016D000807F01D9032326E0154B1B6803F001032B
:1016E000002B0DD07B881A467968124808F033FC2D
:1016F0000F4B1B6843F004030D4A1360012312E0F3
:101700000B4B1B6843F00203094A13607B881A469F
:101710007968094808F01FFC054B1B6823F0020399
:10172000034A1360002318460837BD4680BD00BF3A
:10173000080000205804002058030020B0B5A6B0CF
:1017400000AF6E4B1B6803F00403002B0CD06B4BF7
:101750001B6823F00403694A1360694BC7F894308F
:10176000674BC7F89030A3E0644B1B6803F002039B
:10177000002B1DD00023C7F88C300DE05F4B1B6899
:1017800003F00203002B0CD0D7F88C300133C7F8DC
:101790008C30022001F0E2FAD7F88C30132BEDDD0B
:1017A00000E000BFD7F88C30132B01DD0223A1E04D
:1017B000524B1B6843F00103504A1360514BC7F86A
:1017C0009430504BC7F8903072E0D7F894301B78C3
:1017D0000D2B68D1D7F8943001331B780A2B62D1D6
:1017E000D7F89420D7F89030D31AC7F88830D7F8B4
:1017F0008830002B09DCD7F894300233C7F89430D6
:10180000D7F89430C7F8903052E0D7F888307F2B63
:1018100002DD7F23C7F88830D7F888301A46D7F81A
:101820009010394808F097FB374AD7F888301344AE
:1018300000221A703549344808F0EFFA0346002BAD
:1018400014D0334C07F150032F491846FFF720FE00
:10185000254607F150040FCC0FC50FCC0FC50FCC98
:101860000FC594E8030085E8030012E029492648E3
:1018700008F0D3FA0346002B0BD0274C3B462249F5
:101880001846FFF78BFC20463B465022194608F0CD
:1018900062FBD7F894300233C7F89430D7F894300D
:1018A000C7F8903004E0D7F894300133C7F894308B
:1018B000D7F894301B78002B87D1174BD3E9062338
:1018C0001649C1E90023144BD3E908231349C1E9A0
:1018D0000223114B93F82820104B1A740E4B93F8E7
:1018E00029200E4B5A74054B1B6823F00103034A51
:1018F0001360002318469837BD46B0BD080000208D
:101900005804002058030020F805002048D00008A3
:10191000580500204CD0000890050020E00500206C
:10192000B0B483B000AF78607B68074A1C461546A8
:101930000FCD0FC495E8030084E803000023184688
:101940000C37BD46B0BC7047E00500200000000029
:1019500080B588B000AF01F0BFF900F0BFF800F02B
:10196000FDF900F0DBF900F085F900F04DF900F029
:10197000ABF900F01BF900F0ABFBFFF7DFFB002039
:1019800000F0F4FC0023FB61FFF7D8FE3B4618464D
:10199000FFF7C6FFD7E902234549C1E90023D7E98C
:1019A00000234449C1E90023434BD3E900013EA38E
:1019B000D3E90023FEF772FC02460B463E49C1E91B
:1019C00000233E4BD3E9000137A3D3E90023FEF700
:1019D00065FC02460B463949C1E90023384BD3E97F
:1019E000000131A3D3E90023FEF758FC02460B4661
:1019F0003349C1E90023334BD3E900012AA3D3E9DA
:101A00000023FEF74BFC02460B462E49C1E900239A
:101A10002D4BD3E9000124A3D3E90023FEF73EFCBC
:101A200002460B462849C1E90023284BD3E90001AF
:101A30001DA3D3E90023FEF731FC02460B462349E0
:101A4000C1E90023224BD3E9000117A3D3E9002306
:101A5000FEF724FC02460B461D49C1E900231D4B3D
:101A6000D3E9000110A3D3E90023FEF717FC0246D7
:101A70000B461849C1E90023174BD3E900010AA31B
:101A8000D3E90023FEF70AFC02460B461249C1E9DE
:101A90000023FB690133FB6100F0B0FF4FF47A7063
:101AA00001F05CF900BF6FE79A9999999999C93F3C
:101AB000000200200802002010020020180200206E
:101AC00020020020280200203002002038020020DE
:101AD00040020020480200205002002080B594B04F
:101AE00000AF07F1200330220021184608F07BF9EF
:101AF00007F10C0300221A605A609A60DA601A61DA
:101B00000023BB60274B1B6C264A43F080531364B1
:101B1000244B1B6C03F08053BB60BB6800237B60CD
:101B2000214B1B68204A43F4404313601E4B1B6843
:101B300003F440437B607B6801233B624FF48033B6
:101B40007B620223BB634FF48003FB630C233B6483
:101B500060237B640223BB640423FB6407F120033E
:101B6000184603F01BFE0346002B01D000F0C4F919
:101B70000F23FB6002233B6180237B614FF4805382
:101B8000BB610023FB6107F10C030121184604F03F
:101B90007DF80346002B01D000F0AEF900BF5037AE
:101BA000BD4680BD003802400070004080B500AFE7
:101BB000124B134A1A60114B124A5A600F4B002203
:101BC0009A600E4B0022DA600C4B4FF480421A618F
:101BD0000A4B00225A61094B00229A61074B0022EE
:101BE000DA61064B00221A62044801F085FF0346C1
:101BF000002B01D000F080F900BF80BD78060020E6
:101C000000540040A086010080B500AF174B184A71
:101C10001A60164B4FF482725A60144B00229A607D
:101C2000124B0022DA60114B00221A610F4B002286
:101C30005A610E4B4FF400729A610C4B0022DA612C
:101C40000A4B00221A62094B00225A62074B0022FB
:101C50009A62064B0A22DA62044804F029FA034623
:101C6000002B01D000F048F900BF80BDCC06002059
:101C70000030014080B500AF114B124A1A60104B82
:101C80004FF4E1325A600E4B00229A600C4B002256
:101C9000DA600B4B00221A61094B0C225A61084B87
:101CA00000229A61064B0022DA61054804F018FF11
:101CB0000346002B01D000F01FF900BF80BD00BF1C
:101CC000240700200010014080B500AF114B124ADC
:101CD0001A60104B4FF4E1325A600E4B00229A60AA
:101CE0000C4B0022DA600B4B00221A61094B0C22CC
:101CF0005A61084B00229A61064B0022DA610548BE
:101D000004F0EEFE0346002B01D000F0F5F800BF12
:101D100080BD00BF6C0700200044004080B582B049
:101D200000AF00237B600C4B1B6B0B4A43F400138A
:101D30001363094B1B6B03F400137B607B68002269
:101D40000021102001F0E6F8102001F0FFF800BF9C
:101D50000837BD4680BD00BF0038024080B58AB05C
:101D600000AF07F1140300221A605A609A60DA602B
:101D70001A6100233B613A4B1B6B394A43F0040361
:101D80001363374B1B6B03F004033B613B69002378
:101D9000FB60334B1B6B324A43F080031363304BC1
:101DA0001B6B03F08003FB60FB680023BB602C4BC4
:101DB0001B6B2B4A43F001031363294B1B6B03F08E
:101DC0000103BB60BB6800237B60254B1B6B244A6F
:101DD00043F002031363224B1B6B03F002037B608F
:101DE0007B6800224FF400511E4801F051FE002292
:101DF00010211D4801F04CFE002203211B4801F078
:101E000047FE4FF400537B610123BB610023FB615C
:101E100000233B6207F114031946124801F0B4FC99
:101E200010237B610123BB610023FB6100233B6224
:101E300007F1140319460C4801F0A6FC03237B614B
:101E40000123BB610023FB6100233B6207F1140304
:101E50001946064801F098FC00BF2837BD4680BDF2
:101E60000038024000080240000002400004024026
:101E700080B582B000AF78600B467B807B681B68C2
:101E8000104A934219D14FF400510F4801F019FE46
:101E90007B8819460D48FFF713FC4FF480720B49FD
:101EA0000B4804F0F8FE7B68DB6B1B681A687B68E4
:101EB000DB6B1B6822F008021A6000BF0837BD46C2
:101EC00080BD00BF004400400008024058020020CE
:101ED0006C07002080B582B000AF78607B681B681B
:101EE000044A934201D100F019FF00BF0837BD46F4
:101EF00080BD00BF0008004080B400AF72B600BFD4
:101F000000BFFDE780B500AF00221021024801F0BC
:101F1000BFFD00BF80BD00BF0000024080B500AF24
:101F200001221021024801F0B3FD00BF80BD00BFB7
:101F30000000024080B500AF00220121064801F0F8
:101F4000A7FD052000F00AFF01220121024801F04F
:101F50009FFD00BF80BD00BF0004024080B582B07D
:101F600000AF0346FB7100220221074801F090FDFB
:101F7000F91D4FF0FF330122044804F022F900BF9D
:101F80000837BD4680BD00BF00040240CC060020DB
:101F900080B582B000AF7860396001220221074825
:101FA00001F076FD3B689AB24FF0FF337968044840
:101FB00004F007F900BF0837BD4680BD00040240A9
:101FC000CC06002080B584B000AF78607B685A1CD6
:101FD0007A601B78FB7334E07B685A1C7A601B784C
:101FE000FB72FB7A1846FFF7B9FF7B685A1C7A60D0
:101FF0001B78BB72BB7A9BB203F08003BB81BB7AB8
:1020000003F07F03BB72BB7A002B08D0BB7A194662
:102010007868FFF7BDFFBB7A7A6813447B60BB89A1
:10202000002B0ED07B685A1C7A601B78BB81BB8961
:10203000FF2B02D14FF4FA73BB81BB89184600F025
:102040008DFEFB7B5A1EFA73002BC5D100BF00BF6B
:102050001037BD4680BD90B585B000AF0446084638
:1020600011461A462346FB710346BB710B467B7132
:1020700013463B712A20FFF771FF00233B73FB7966
:102080000133DBB27B730023BB737B790133DBB29B
:10209000FB7307F10C0304211846FFF779FF2B208F
:1020A000FFF75CFFBB790233DBB27B733B79023312
:1020B000DBB2FB7307F10C0304211846FFF768FF3E
:1020C0002C20FFF74BFF00BF1437BD4690BD00002A
:1020D00080B500AFFFF716FFFFF72CFF0648FFF7AC
:1020E00071FF0648FFF76EFF0548FFF76BFFFFF72C
:1020F00015FF00BF80BD00BF1CDA000858DA0008D9
:1021000068DA000882B090B589B000AF7B630346FF
:10211000FB800B46BB801346FB70FB88D8B2BB88A4
:10212000D9B2FB88DAB297F834301344DBB2013B02
:10213000DCB2BB88DAB297F835301344DBB2013B2E
:10214000DBB22246FFF787FF0023FB6143E0BA6B57
:10215000FB78203B97F8351001FB03F31946FB6928
:102160000B445B0013441B887B610023BB6129E0A7
:102170007A69BB6902FA03F303F40043002B0ED023
:10218000BB8F1B0A9BB2DBB23B74BB8FDBB27B7491
:1021900007F1100302211846FFF7FAFE0FE0B7F827
:1021A00040301B0A9BB2DBB23B73B7F84030DBB266
:1021B0007B7307F10C0302211846FFF7E9FEBB69A8
:1021C0000133BB6197F834301A46BB699342CFD3D1
:1021D000FB690133FB6197F835301A46FB6993427E
:1021E000B5D300BF00BF2437BD46BDE8904002B064
:1021F000704782B080B586B004AF3A607B61034619
:10220000FB800B46BB80FFF77DFE2DE0FB883A7D0F
:1022100013449F2B13DD0023FB807B7D1A46BB8874
:102220001344BB80BB887A7D13447F2B21DC3B6841
:102230001B78202B03D13B6801333B6014E03B68E3
:102240001A78B988F8883B8C0293BB8B0193BB69E1
:1022500000937B69FFF756FF3B7D1A46FB881344CA
:10226000FB803B6801333B603B681B78002BCDD182
:1022700000E000BFFFF752FE00BF0837BD46BDE8D3
:10228000804002B07047000090B585B000AF0446B2
:10229000084611461A462346FB800346BB800B4680
:1022A0007B8013463B80FB889F2B57D8BB887F2BB6
:1022B00054D8FA887B881344A02B03DDFB88C3F134
:1022C000A0037B80BA883B881344802B03DDBB8846
:1022D000C3F180033B80FFF715FEFB88D8B2BB88B3
:1022E000D9B2FB88DAB27B88DBB21344DBB2013BA4
:1022F000DCB2BB88DAB23B88DBB21344DBB2013B11
:10230000DBB22246FFF7A7FE3B8C1B0A9BB2DBB277
:102310003B733B8CDBB27B7301220221114801F03D
:10232000B7FB3B88BB8013E07B88FB800AE007F1AA
:102330000C014FF0FF3302220B4803F042FFFB88F1
:10234000013BFB80FB88002BF1D1BB88013BBB80AC
:10235000BB88002BE8D1FFF7E1FD00E000BF143798
:10236000BD4690BD00040240CC06002080B584B07C
:1023700002AF0346FB80FB8800938023A02200214C
:102380000020FFF781FF00BF0837BD4680BD000079
:1023900080B483B000AF00237B60104B5B6C0F4AAE
:1023A00043F4804353640D4B5B6C03F480437B60C8
:1023B0007B6800233B60094B1B6C084A43F0805349
:1023C0001364064B1B6C03F080533B603B6800BFFB
:1023D0000C37BD465DF8047B704700BF00380240F3
:1023E00080B58AB000AF786007F1140300221A604C
:1023F0005A609A60DA601A617B681B68214A9342CE
:102400003CD100233B61204B1B6B1F4A43F002036E
:1024100013631D4B1B6B03F002033B613B694FF4DD
:1024200040737B611223BB610023FB6103233B628A
:1024300004237B6207F114031946144801F0A4F940
:102440000023FB60104B1B6C0F4A43F40013136412
:102450000D4B1B6C03F40013FB60FB680022002192
:102460001F2000F057FD1F2000F070FD002200210A
:10247000202000F04FFD202000F068FD00BF28372D
:10248000BD4680BD005400400038024000040240B8
:1024900080B58AB000AF786007F1140300221A609B
:1024A0005A609A60DA601A617B681B68194A934225
:1024B0002BD100233B61184B5B6C174A43F48053CC
:1024C0005364154B5B6C03F480533B613B69002301
:1024D000FB60114B1B6B104A43F0010313630E4B5F
:1024E0001B6B03F00103FB60FB68A0237B610223ED
:1024F000BB610023FB6103233B6205237B6207F181
:1025000014031946054801F03FF900BF2837BD46BE
:1025100080BD00BF00300140003802400000024092
:1025200080B58CB000AF786007F11C0300221A6000
:102530005A609A60DA601A617B681B684D4A934260
:102540002CD10023BB614C4B5B6C4B4A43F0100316
:102550005364494B5B6C03F01003BB61BB69002300
:102560007B61454B1B6B444A43F002031363424BB0
:102570001B6B03F002037B617B69C023FB610223B9
:102580003B6200237B620323BB620723FB6207F1EC
:102590001C031946394801F0F7F866E07B681B68B0
:1025A000374A934261D100233B61334B1B6C324A63
:1025B00043F400331364304B1B6C03F400333B6172
:1025C0003B690023FB602C4B1B6B2B4A43F0010340
:1025D0001363294B1B6B03F00103FB60FB680C23A7
:1025E000FB6102233B6200237B620323BB62072360
:1025F000FB6207F11C031946224801F0C5F8224B83
:10260000224A1A60204B4FF000625A601E4B002293
:102610009A601D4B0022DA601B4B4FF480621A61F6
:10262000194B00225A61184B00229A61164B002266
:10263000DA61154B00221A62134B00225A621248CB
:1026400000F092FC0346002B01D0FFF755FC7B689D
:102650000D4ADA630C4A7B6893630022002126202E
:1026600000F058FC262000F071FC00BF3037BD465A
:1026700080BD00BF0010014000380240000402404D
:102680000044004000000240B4070020886002407F
:1026900080B58EB000AF78600023FB620023BB6280
:1026A0000023FB60334B1B6C324A43F0040313647A
:1026B000304B1B6C03F00403FB60FB6807F1100256
:1026C00007F114031146184603F0C0FC3B6AFB6295
:1026D000FB6A002B03D103F091FC786304E003F064
:1026E0008DFC03465B007B637B6B234AA2FB0323C9
:1026F0009B0C013BBB62214B214A1A601F4B40F2ED
:10270000E732DA601D4ABB6A53601C4B00221A6133
:102710001A4B00229A60194B00229A61174803F065
:1027200071FF034687F8333097F83330002B1BD105
:10273000124803F0C1FF034687F8333097F833306F
:10274000002B11D11E2000F001FC7B680F2B08D854
:10275000002279681E2000F0DDFB0A4A7B681360C6
:1027600002E0012387F8333097F8333018463837C2
:10277000BD4680BD0038024083DE1B4314080020A4
:10278000000800401000002080B400AF00BFFDE74B
:1027900080B400AF00BFFDE780B400AF00BFFDE72D
:1027A00080B400AF00BFFDE780B400AF00BFFDE71D
:1027B00080B400AF00BFBD465DF8047B704780B4B5
:1027C00000AF00BFBD465DF8047B704780B400AF2A
:1027D00000BFBD465DF8047B704780B400AF00BF0A
:1027E000BD465DF8047B704780B500AF024800F03D
:1027F00053FD00BF80BD00BFB407002080B500AF0F
:10280000024803F0BBFF00BF80BD00BF14080020DA
:1028100080B500AF024801F0C8FA00BF80BD00BF1C
:102820007806002080B500AF024801F02FFC00BF01
:1028300080BD00BF7806002080B500AF024804F0DC
:1028400083FA00BF80BD00BF6C07002080B400AFDA
:1028500001231846BD465DF8047B704780B582B001
:1028600000AF7860396007F049FB034616221A6012
:102870004FF0FF3318460837BD4680BD80B582B0A3
:1028800000AF78604FF0FF317868FFF7E7FF00BFD7
:10289000FDE780B586B000AFF860B9607A600023CC
:1028A0007B610AE0AFF300800146BB685A1CBA6046
:1028B000CAB21A707B6901337B617A697B689A427C
:1028C000F0DB7B6818461837BD4680BD80B586B002
:1028D00000AFF860B9607A6000237B6109E0BB68F3
:1028E0005A1CBA601B781846AFF300807B6901332D
:1028F0007B617A697B689A42F1DB7B6818461837FE
:10290000BD4680BD80B483B000AF78604FF0FF3328
:1029100018460C37BD465DF8047B704780B483B021
:1029200000AF786039603B684FF400525A60002372
:1029300018460C37BD465DF8047B704780B483B001
:1029400000AF7860012318460C37BD465DF8047B64
:10295000704780B485B000AFF860B9607A6000233A
:1029600018461437BD465DF8047B704780B586B0C5
:1029700000AF7860144A154BD31A7B617B693B61C9
:10298000134B1B68002B02D1114B124A1A60104BDB
:102990001A687B6813443A699A4207D207F0AEFA84
:1029A00003460C221A604FF0FF3309E0084B1B6806
:1029B000FB60074B1A687B681344054A1360FB6889
:1029C00018461837BD4680BD0000022000040000F4
:1029D0005C080020D009002080B400AF064BD3F87B
:1029E0008830054A43F47003C2F8883000BFBD4602
:1029F0005DF8047B704700BF00ED00E080B586B055
:102A000004AF0023FB80894BD3E90023CDE90023E9
:102A1000874A2021874807F01DF9FB880A33FB808D
:102A2000854BF9880022029240F2FF7201925A68A7
:102A300000921B687F4A0020FFF7DBFB7F4BD3E946
:102A40000023CDE900237E4A20217A4807F002F9CD
:102A5000FB880A33FB80784BF9880022029240F20F
:102A6000FF7201925A6800921B68724A0020FFF7B9
:102A7000C0FB744BD3E90023CDE90023724A202127
:102A80006C4807F0E7F8FB880A33FB806A4BF9884B
:102A90000022029240F2FF7201925A6800921B6873
:102AA000644A0020FFF7A5FB684BD3E90023CDE97A
:102AB0000023674A20215F4807F0CCF8FB880A33DF
:102AC000FB805D4BF988002202924FF61F020192B3
:102AD0005A6800921B68574A0020FFF78AFB5D4B3B
:102AE000D3E90023CDE900235B4A2021514807F0B8
:102AF000B1F8FB880A33FB804F4BF9880022029221
:102B00004FF61F0201925A6800921B68494A002042
:102B1000FFF76FFB514BD3E90023CDE90023504A67
:102B20002021444807F096F8FB880A33FB80424B8B
:102B3000F988002202924FF61F0201925A68009211
:102B40001B683C4A0020FFF754FB464BD3E90023A7
:102B5000CDE90023444A2021364807F07BF8FB8862
:102B60000C33FB80344BF988002202924FF4FC6254
:102B700001925A6800921B682E4A0020FFF739FB29
:102B80003A4BD3E90023CDE90023394A20212948D3
:102B900007F060F8FB880A33FB80274BF988002296
:102BA00002924FF4FC6201925A6800921B68214A1B
:102BB0000020FFF71EFB2F4BD3E90023CDE90023B4
:102BC0002D4A20211B4807F045F8FB880A33FB807B
:102BD000194BF988002202924FF4FC6201925A6864
:102BE00000921B68134A0020FFF703FB234BD3E935
:102BF0000023CDE90023224A20210E4807F02AF8BD
:102C0000FB880A33FB800C4BF988002202924FF4B8
:102C1000FC6201925A6800921B68064A0020FFF786
:102C2000E8FA00BF0837BD4680BD00BF00020020A3
:102C300004D20008600800200000002008020020E4
:102C400014D200081002002024D20008180200202C
:102C500034D200082002002044D2000830020020B4
:102C600054D200083802002064D20008400200203C
:102C700074D200084802002084D2000850020020CC
:102C800094D20008DFF834D0FFF7A6FE0C480D49B7
:102C90000D4A002302E0D458C4500433C4188C42B7
:102CA000F9D30A4A0A4C002301E013600432A2421D
:102CB000FBD307F029F9FEF74BFE70470000022016
:102CC00000000020E001002008DF0008E0010020F3
:102CD000D0090020FEE7000080B500AF0E4B1B6856
:102CE0000D4A43F4007313600B4B1B680A4A43F40C
:102CF00080631360084B1B68074A43F480731360BA
:102D0000032000F0FCF80F20FFF7C2FCFFF740FBA8
:102D10000023184680BD00BF003C024080B400AFD5
:102D2000064B1B781A46064B1B681344044A136073
:102D300000BFBD465DF8047B704700BF1400002053
:102D40008008002080B400AF034B1B681846BD46C6
:102D50005DF8047B704700BF8008002080B584B018
:102D600000AF7860FFF7EEFFB8607B68FB60FB6840
:102D7000B3F1FF3F05D00A4B1B781A46FB6813449A
:102D8000FB6000BFFFF7DEFF0246BB68D31AFA689C
:102D90009A42F7D800BF00BF1037BD4680BD00BFC4
:102DA0001400002080B485B000AF78607B6803F029
:102DB0000703FB600C4BDB68BB60BA684FF6FF0390
:102DC0001340BB60FB681A02BB68134343F0BF6348
:102DD00043F40033BB60044ABB68D36000BF1437C0
:102DE000BD465DF8047B704700ED00E080B400AFA5
:102DF000044BDB681B0A03F007031846BD465DF869
:102E0000047B704700ED00E080B483B000AF034660
:102E1000FB7197F90730002B0BDBFB7903F01F02E6
:102E2000074997F907305B09012000FA02F241F8DF
:102E3000232000BF0C37BD465DF8047B704700BF00
:102E400000E100E080B483B000AF03463960FB715D
:102E500097F90730002B0ADB3B68DAB20C4997F987
:102E600007301201D2B20B4483F800230AE03B681A
:102E7000DAB20849FB7903F00F03043B1201D2B226
:102E80000B441A7600BF0C37BD465DF8047B7047D3
:102E900000E100E000ED00E080B489B000AFF86030
:102EA000B9607A60FB6803F00703FB61FB69C3F15B
:102EB0000703042B28BF0423BB61FB690433062BE3
:102EC00002D9FB69033B00E000237B614FF0FF3236
:102ED000BB6902FA03F3DA43BB681A407B699A4084
:102EE0004FF0FF317B6901FA03F3D9437B680B4054
:102EF000134318462437BD465DF8047B704780B500
:102F000082B000AF78607868FFF74CFF00BF0837E9
:102F1000BD4680BD80B586B000AF0346B9607A601B
:102F2000FB7300237B61FFF761FF78617A68B96802
:102F30007869FFF7B1FF024697F90F30114618463E
:102F4000FFF780FF00BF1837BD4680BD80B582B057
:102F500000AF0346FB7197F907301846FFF754FF9F
:102F600000BF0837BD4680BD80B586B000AF786031
:102F700000237B61FFF7E6FE38617B68002B01D1FF
:102F8000012399E07B68022283F835207B680022C8
:102F900083F834207B681B681A687B681B6822F002
:102FA00001021A600FE0FFF7CDFE02463B69D31A1B
:102FB000052B08D97B6820225A657B68032283F899
:102FC0003520032378E07B681B681B6803F001034E
:102FD000002BE8D17B681B681B687B617A69384BE2
:102FE00013407B617B685A687B689B681A437B68E7
:102FF000DB681A437B681B691A437B685B691A4369
:103000007B689B691A437B68DB691A437B681B6A90
:1030100013437A6913437B617B685B6A042B07D196
:103020007B68DA6A7B681B6B13437A6913437B61A5
:103030007B681B687A691A607B681B685B697B61C7
:103040007B6923F007037B617B685B6A7A691343C2
:103050007B617B685B6A042B17D17B689B6A7A690A
:1030600013437B617B68DB6A002B0ED0786800F02D
:103070000FFB0346002B08D07B6840225A657B6813
:10308000012283F83520012316E07B681B687A69EA
:103090005A61786800F0C6FA0346FB607B68DB6D16
:1030A0003F229A40FB689A607B6800225A657B68E1
:1030B000012283F83520002318461837BD4680BD0D
:1030C0003F8010F080B586B000AFF860B9607A60DC
:1030D0003B600023FB75FB689B6D3B61FB6893F8CD
:1030E0003430012B01D1022340E0FB68012283F838
:1030F0003420FB6893F83530DBB2012B2FD1FB680D
:10310000022283F83520FB6800225A653B687A6802
:10311000B968F86800F058FAFB68DB6D3F229A4006
:103120003B699A60FB681B681A68FB681B6842F081
:1031300016021A60FB681B6C002B07D0FB681B682B
:103140001A68FB681B6842F008021A60FB681B687B
:103150001A68FB681B6842F001021A6005E0FB6810
:10316000002283F834200223FB75FB7D18461837B4
:10317000BD4680BD80B584B000AF78607B689B6D34
:10318000FB60FFF7DFFDB8607B6893F83530DBB29A
:10319000022B08D07B6880225A657B68002283F866
:1031A0003420012352E07B681B681A687B681B6827
:1031B00022F016021A607B681B685A697B681B68DC
:1031C00022F080025A617B681B6C002B03D17B6864
:1031D0009B6C002B07D07B681B681A687B681B6898
:1031E00022F008021A607B681B681A687B681B68FB
:1031F00022F001021A6013E0FFF7A4FD0246BB684B
:10320000D31A052B0CD97B6820225A657B680322D0
:1032100083F835207B68002283F83420032315E0EF
:103220007B681B681B6803F00103002BE4D17B68FB
:10323000DB6D3F229A40FB689A607B68012283F82D
:1032400035207B68002283F834200023184610378D
:10325000BD4680BD80B483B000AF78607B6893F8D2
:103260003530DBB2022B04D07B6880225A65012303
:103270000CE07B68052283F835207B681B681A68A0
:103280007B681B6822F001021A60002318460C3785
:10329000BD465DF8047B704780B586B000AF7860AE
:1032A0000023BB608E4B1B688E4AA2FB03239B0A44
:1032B0007B617B689B6D3B613B691B68FB607B6846
:1032C000DB6D08229A40FB681340002B1AD07B6804
:1032D0001B681B6803F00403002B13D07B681B687A
:1032E0001A687B681B6822F004021A607B68DB6D39
:1032F00008229A403B699A607B685B6D43F001024B
:103300007B685A657B68DB6D01229A40FB6813403D
:10331000002B12D07B681B685B6903F08003002BD5
:103320000BD07B68DB6D01229A403B699A607B6819
:103330005B6D43F002027B685A657B68DB6D04229B
:103340009A40FB681340002B12D07B681B681B68F7
:1033500003F00203002B0BD07B68DB6D04229A4044
:103360003B699A607B685B6D43F004027B685A6539
:103370007B68DB6D10229A40FB681340002B43D022
:103380007B681B681B6803F00803002B3CD07B683C
:10339000DB6D10229A403B699A607B681B681B6852
:1033A00003F48023002B18D07B681B681B6803F490
:1033B0000023002B08D17B681B6C002B24D07B687A
:1033C0001B6C786898471FE07B689B6C002B1BD0B8
:1033D0007B689B6C7868984716E07B681B681B6865
:1033E00003F48073002B07D17B681B681A687B6825
:1033F0001B6822F008021A607B681B6C002B03D04C
:103400007B681B6C786898477B68DB6D20229A404C
:10341000FB681340002B00F08F807B681B681B68E3
:1034200003F01003002B00F087807B68DB6D202207
:103430009A403B699A607B6893F83530DBB2052B84
:1034400036D17B681B681A687B681B6822F01602FD
:103450001A607B681B685A697B681B6822F08002CF
:103460005A617B681B6C002B03D17B689B6C002B23
:1034700007D07B681B681A687B681B6822F008020B
:103480001A607B68DB6D3F229A403B699A607B68DB
:10349000012283F835207B68002283F834207B6882
:1034A0001B6D002B7ED07B681B6D7868984779E098
:1034B0007B681B681B6803F48023002B1DD07B688E
:1034C0001B681B6803F40023002B0DD17B685B6C29
:1034D000002B31D07B685B6C786898472CE000BF8C
:1034E0000C000020B5814E1B7B68DB6B002B23D0CA
:1034F0007B68DB6B786898471EE07B681B681B68FD
:1035000003F48073002B0FD17B681B681A687B68FB
:103510001B6822F010021A607B68012283F83520B4
:103520007B68002283F834207B68DB6B002B03D0A0
:103530007B68DB6B786898477B685B6D002B32D0CB
:103540007B685B6D03F00103002B22D07B680522B2
:1035500083F835207B681B681A687B681B6822F03B
:1035600001021A60BB680133BB607A699A4207D3D3
:103570007B681B681B6803F00103002BF2D100E09D
:1035800000BF7B68012283F835207B68002283F826
:1035900034207B68DB6C002B05D07B68DB6C7868A3
:1035A000984700E000BF1837BD4680BD80B483B0A7
:1035B00000AF78607B6893F83530DBB218460C3783
:1035C000BD465DF8047B704780B485B000AFF860FD
:1035D000B9607A603B60FB681B681A68FB681B680F
:1035E00022F480221A60FB681B683A685A60FB6804
:1035F0009B68402B08D1FB681B687A689A60FB685F
:103600001B68BA68DA6007E0FB681B68BA689A60F2
:10361000FB681B687A68DA6000BF1437BD465DF846
:10362000047B704780B485B000AF78607B681B680E
:10363000DBB2103B144AA2FB03231B09FB60134AB5
:10364000FB6813441B781A467B68DA65FB68032B1A
:1036500009D97B681B6823F47F7323F003031A1DC9
:103660007B689A6507E07B681B6823F47F7323F00F
:1036700003037A6893657B689B6D18461437BD46D3
:103680005DF8047B704700BFABAAAAAAACDA0008B9
:1036900080B485B000AF78600023FB737B689B6AC1
:1036A000BB607B689B69002B1FD1BB68032B56D87E
:1036B00001A252F823F000BFC9360008DB3600082B
:1036C000C93600085F3700087B68DB6A03F0807347
:1036D000002B46D00123FB7343E07B68DB6AB3F128
:1036E000C07F40D10123FB733DE07B689B69B3F54C
:1036F000005F21D1BB68032B37D801A252F823F019
:10370000113700081737000811370008293700085B
:103710000123FB7330E07B68DB6A03F08073002BCE
:1037200025D00123FB7322E07B68DB6AB3F1C07F05
:103730001FD10123FB731CE0BB68022B03D9BB68BC
:10374000032B03D018E00123FB7315E07B68DB6AD1
:1037500003F08073002B0ED00123FB730BE000BF3E
:103760000AE000BF08E000BF06E000BF04E000BFC1
:1037700002E000BF00E000BFFB7B18461437BD46E7
:103780005DF8047B704700BF80B489B000AF7860FB
:10379000396000237B6100233B610023BB61002370
:1037A000FB6159E10122FB6902FA03F37B613B688B
:1037B0001B687A6913403B613A697B699A4240F021
:1037C00048813B685B6803F00303012B05D03B682D
:1037D0005B6803F00303022B30D17B689B68BB61FD
:1037E000FB695B00032202FA03F3DB43BA6913406F
:1037F000BB613B68DA68FB695B0002FA03F3BA69F4
:103800001343BB617B68BA699A607B685B68BB6184
:103810000122FB6902FA03F3DB43BA691340BB617F
:103820003B685B681B0903F00102FB6902FA03F3C2
:10383000BA691343BB617B68BA695A603B685B68CD
:1038400003F00303032B17D07B68DB68BB61FB69C4
:103850005B00032202FA03F3DB43BA691340BB6146
:103860003B689A68FB695B0002FA03F3BA69134389
:10387000BB617B68BA69DA603B685B6803F003038D
:10388000022B23D1FB69DA087B68083253F8223017
:10389000BB61FB6903F007039B000F2202FA03F3ED
:1038A000DB43BA691340BB613B681A69FB6903F0EB
:1038B00007039B0002FA03F3BA691343BB61FB6978
:1038C000DA087B680832B96943F822107B681B6804
:1038D000BB61FB695B00032202FA03F3DB43BA69B5
:1038E0001340BB613B685B6803F00302FB695B004C
:1038F00002FA03F3BA691343BB617B68BA691A60C1
:103900003B685B6803F44033002B00F0A280002387
:10391000FB60574B5B6C564A43F480435364544BF3
:103920005B6C03F48043FB60FB68524AFB699B08B5
:10393000023352F82330BB61FB6903F003039B00A1
:103940000F2202FA03F3DB43BA691340BB617B68C1
:10395000494A934219D07B68484A934213D07B6806
:10396000474A93420DD07B68464A934207D07B6812
:10397000454A934201D1042308E0072306E00323CC
:1039800004E0022302E0012300E00023FA6902F0D0
:10399000030292009340BA691343BB613549FB6946
:1039A0009B080233BA6941F82320384B9B68BB61FE
:1039B0003B69DB43BA691340BB613B685B6803F456
:1039C0008013002B03D0BA693B691343BB612F4AB4
:1039D000BB6993602D4BDB68BB613B69DB43BA6914
:1039E0001340BB613B685B6803F40013002B03D0FA
:1039F000BA693B691343BB61244ABB69D360234B5B
:103A00005B68BB613B69DB43BA691340BB613B68E0
:103A10005B6803F40033002B03D0BA693B6913439E
:103A2000BB611A4ABB695360184B1B68BB613B6999
:103A3000DB43BA691340BB613B685B6803F48033C6
:103A4000002B03D0BA693B691343BB610F4ABB69C2
:103A50001360FB690133FB61FB690F2B7FF6A2AE9C
:103A600000BF00BF2437BD465DF8047B704700BF30
:103A700000380240003801400000024000040240CB
:103A800000080240000C024000100240003C0140CF
:103A900080B483B000AF78600B467B8013467B70A8
:103AA0007B78002B03D07A887B689A6103E07B885F
:103AB0001A047B689A6100BF0C37BD465DF8047B31
:103AC000704780B485B000AF78600B467B807B6820
:103AD0005B69FB607A88FB6813401A04FB68D94372
:103AE0007B880B401A437B689A6100BF1437BD4640
:103AF0005DF8047B7047000080B584B000AF78604B
:103B00007B68002B01D101232BE17B6893F83D30CA
:103B1000DBB2002B06D17B68002283F83C2078685A
:103B2000FEF75EFC7B68242283F83D207B681B68DF
:103B30001A687B681B6822F001021A607B681B68A8
:103B40001A687B681B6842F400421A607B681B6835
:103B50001A687B681B6822F400421A6002F04EFA71
:103B6000F8607B685B68814A934207D8FB68804AAB
:103B7000934294BF01230023DBB206E0FB687D4A39
:103B8000934294BF01230023DBB2002B01D0012319
:103B9000E7E0FB68784AA2FB03239B0CBB607B68D1
:103BA0001B685B6823F03F017B681B68BA680A43A7
:103BB0005A607B681B681B6A23F03F017B685B6867
:103BC0006A4A934202D8BB68013309E0BB684FF4EC
:103BD000967202FB03F3694AA2FB03239B0901339C
:103BE0007A6812680B4313627B681B68DB6923F4F5
:103BF0004F4222F0FF027B685B685C498B4219D818
:103C0000FB68591E7B685B685B00B1FBF3F3591CD2
:103C100040F6FC730B40002B0AD0FB68591E7B68F2
:103C20005B685B00B1FBF3F30133C3F30B0351E0BB
:103C300004234FE07B689B68002B11D1FB68581E62
:103C40007B6859680B465B000B44B0FBF3F3013310
:103C5000C3F30B03002B0CBF01230023DBB212E0E4
:103C6000FB68581E7B6859680B469B000B44990003
:103C70000B44B0FBF3F30133C3F30B03002B0CBF76
:103C800001230023DBB2002B01D0012322E07B685B
:103C90009B68002B0ED1FB68581E7B6859680B4649
:103CA0005B000B44B0FBF3F30133C3F30B0343F4AA
:103CB00000430FE0FB68581E7B6859680B469B0069
:103CC0000B4499000B44B0FBF3F30133C3F30B0334
:103CD00043F44043796809681343CB617B681B68F0
:103CE0001B6823F0C0017B68DA697B681B6A1A4392
:103CF0007B681B680A431A607B681B689B6823F417
:103D0000034323F0FF037A6811697A68D26811438C
:103D10007A6812680B4393607B681B68DB6823F04A
:103D2000FF017B685A697B689B691A437B681B6843
:103D30000A43DA607B681B681A687B681B6842F07C
:103D400001021A607B6800221A647B68202283F8D3
:103D50003D207B6800221A637B68002283F83E20A6
:103D6000002318461037BD4680BD00BFA086010065
:103D70007F841E00FF083D0083DE1B43D34D62108D
:103D800080B483B000AF78607B681B685B6903F028
:103D90008003802B03D17B681B6800221A6100BF5F
:103DA0000C37BD465DF8047B704780B588B000AF26
:103DB00078600023BB617B681B685B687B617B6804
:103DC000DB6A3B617B6893F83E30FB737B6893F85A
:103DD0003D30BB73FB7B102B03D0FB7B402B40F0B3
:103DE000C1807B681B689B69BB617B681B685B69E2
:103DF000FB61FB6903F00103002B0DD13B69B3F5B7
:103E00002A0F03D03B69B3F12A4F01D1012300E00F
:103E10000023012B00F03281FB6903F00103002B2A
:103E20000CD07B695B0A03F00103002B06D0786895
:103E300001F098FC786800F09BFD92E0FB69DB08DC
:103E400003F00103002B09D07B695B0A03F0010337
:103E5000002B03D0786800F011FE82E0FB695B085C
:103E600003F00103002B09D07B695B0A03F0010317
:103E7000002B03D0786800F02BFE72E0BB699B0832
:103E800003F00103002B3BD07B681B685B6803F4E5
:103E90000063B3F5006F00F0F380FB69DB0903F00A
:103EA0000103002B0FD07B699B0A03F00103002B59
:103EB00009D0FB699B0803F00103002B03D178684C
:103EC00000F0F3F94DE0FB699B0803F00103002BC0
:103ED00000F0D6807B695B0A03F00103002B00F041
:103EE000CF80BB7B212B03D1786800F07AFAC7E042
:103EF000FB7B402B40F0C480786800F0E8FABFE01C
:103F00007B681B685B6803F40063B3F5006F00F027
:103F1000B780FB699B0903F00103002B0FD07B697D
:103F20009B0A03F00103002B09D0FB699B0803F0F7
:103F30000103002B03D1786800F061FB11E0FB69FD
:103F40009B0803F00103002B00F09A807B695B0A59
:103F500003F00103002B00F09380786800F017FC59
:103F60008EE08DE07B681B6C002B04D07B681B68A7
:103F70005B69FB6107E07B681B689B69BB617B68D1
:103F80001B685B69FB61FB695B0803F00103002BA5
:103F900012D07B695B0A03F00103002B0CD07B6815
:103FA0001B6C002B03D07B681B689B69BB61B969E4
:103FB000786800F0DCFF66E0FB691B0903F0010391
:103FC000002B09D07B695B0A03F00103002B03D0AF
:103FD000786801F017F856E0BB7B212B02D0BB7B41
:103FE000292B25D1FB69DB0903F00103002B0FD03E
:103FF0007B699B0A03F00103002B09D0FB699B0836
:1040000003F00103002B03D1786800F0F2FE39E0E1
:10401000FB699B0803F00103002B33D07B695B0A2B
:1040200003F00103002B2DD0786800F01FFF29E07A
:10403000FB699B0903F00103002B0FD07B699B0AEE
:1040400003F00103002B09D0FB699B0803F0010377
:10405000002B03D1786800F02AFF14E0FB699B086D
:1040600003F00103002B0ED07B695B0A03F0010310
:10407000002B08D0786800F058FF04E000BF02E091
:1040800000BF00E000BF2037BD4680BD80B58AB0CC
:1040900000AF78607B681B685B693B627B681B686C
:1040A0005B68FB6100237B627B6893F83E30FB76A4
:1040B0003B6A1B0A03F00103002B0ED0FB691B0AAD
:1040C00003F00103002B08D07B6A43F001037B62FD
:1040D0007B681B686FF480725A613B6A5B0A03F06D
:1040E0000103002B0ED0FB691B0A03F00103002B18
:1040F00008D07B6A43F002037B627B681B686FF425
:1041000000725A613B6A9B0A03F00103002B3FD007
:10411000FB691B0A03F00103002B39D0FB7EBB7641
:104120007B685B8D9BB27B617B6893F83D30FB7451
:104130007B681B6BFB60BB7E202B12D17B69002B45
:104140000FD1FB7C212B08D0FB7C292B05D0FB7CDD
:10415000282B06D1FB68212B03D1786801F082F867
:1041600016E07B681B686FF480625A617B6A43F0DB
:1041700004037B62FB7E102B02D0FB7E402B07D119
:104180007B681B681A687B681B6842F400721A60BF
:104190003B6ADB0A03F00103002B0ED0FB691B0A0C
:1041A00003F00103002B08D07B6A43F008037B6215
:1041B0007B681B686FF400625A617B6A002B08D031
:1041C0007B681A6C7B6A1A437B681A64786801F012
:1041D000BDF800BF2837BD4680BD80B483B000AFB6
:1041E000786000BF0C37BD465DF8047B704780B433
:1041F00083B000AF786000BF0C37BD465DF8047B2C
:10420000704780B483B000AF786000BF0C37BD4604
:104210005DF8047B704780B483B000AF786000BF66
:104220000C37BD465DF8047B704780B483B000AFA7
:1042300078600B46FB7013463B8000BF0C37BD46D1
:104240005DF8047B704780B483B000AF786000BF36
:104250000C37BD465DF8047B704780B483B000AF77
:10426000786000BF0C37BD465DF8047B704780B4B2
:1042700083B000AF786000BF0C37BD465DF8047BAB
:10428000704780B483B000AF786000BF0C37BD4684
:104290005DF8047B704780B483B000AF786000BFE6
:1042A0000C37BD465DF8047B704780B584B000AF25
:1042B00078607B6893F83D30FB737B6893F83E3001
:1042C000BB737B68DB6ABB607B681B8D002B50D1A6
:1042D000FB7B212B4DD1BB68082B1DD0BB68202B4D
:1042E0001AD0BB6813F5803F16D07B681B685A68EC
:1042F0007B681B6822F4E0625A607B6811221A63B3
:104300007B68002283F83E207B68202283F83D20D2
:104310007868FFF762FF60E07B681B685A687B681B
:104320001B6822F4E0625A607B681B681A687B682D
:104330001B6842F400721A607B6800221A637B6873
:10434000202283F83D207B6893F83E30DBB2402B7F
:1043500007D17B68002283F83E207868FFF77DFF55
:104360003BE07B68002283F83E207868FFF735FF4A
:1043700033E0FB7B212B05D0BB7B402B2DD1FB7B7E
:10438000222B2AD17B685B8D9BB2002B08D17B68E6
:104390001B685A687B681B6822F480625A601CE0C4
:1043A0007B6893F83E30DBB2402B03D1786800F095
:1043B0008EF812E07B685B6A1A787B681B681A616A
:1043C0007B685B6A5A1C7B685A627B685B8D9BB218
:1043D000013B9AB27B685A85FFE700BF1037BD46A4
:1043E00080BD80B584B000AF78607B68DB6AFB601D
:1043F0007B6893F83D30DBB2212B64D17B685B8D09
:104400009BB2002B12D07B685B6A1A787B681B68B2
:104410001A617B685B6A5A1C7B685A627B685B8D99
:104420009BB2013B9AB27B685A854CE0FB68082B33
:104430001DD0FB68202B1AD0FB6813F5803F16D0E7
:104440007B681B685A687B681B6822F4E0625A60CC
:104450007B6811221A637B68002283F83E207B6808
:10446000202283F83D207868FFF7B7FE2BE07B68B9
:104470001B685A687B681B6822F4E0625A607B689C
:104480001B681A687B681B6842F400721A607B68BC
:1044900000221A637B68202283F83D207B6893F812
:1044A0003E30DBB2402B07D17B68002283F83E20F0
:1044B0007868FFF7D2FE06E07B68002283F83E2092
:1044C0007868FFF78AFE00BF1037BD4680BD80B513
:1044D00084B000AF78607B6893F83D30FB737B68F5
:1044E0001B6D002B1DD17B68DB6C012B0BD17B6816
:1044F0009B6CDAB27B681B681A617B681B6D9A1C27
:104500007B681A6577E07B689B6C9BB21B12DAB202
:104510007B681B681A617B681B6D5A1C7B681A6577
:1045200069E07B681B6D012B0BD17B689B6CDAB259
:104530007B681B681A617B681B6D5A1C7B681A6557
:1045400059E07B681B6D022B52D1FB7B222B0DD1D6
:104550007B681B681A687B681B6842F480721A606B
:104560007B681B6D5A1C7B681A6544E07B685B8D19
:104570009BB2002B15D0FB7B212B12D17B685B6A91
:104580001A787B681B681A617B685B6A5A1C7B68B7
:104590005A627B685B8D9BB2013B9AB27B685A85FD
:1045A00029E07B685B8D9BB2002B24D1FB7B212B08
:1045B00021D17B681B685A687B681B6822F4E06223
:1045C0005A607B681B681A687B681B6842F400723B
:1045D0001A607B6800221A637B68202283F83D20E2
:1045E0007B68002283F83E207868FFF736FE02E001
:1045F0007868FFF7C5FB00BF1037BD4680BD80B5AA
:1046000084B000AF78607B6893F83D30DBB2222B3A
:1046100040F0B9807B68DB6AFB607B685B8D9BB296
:10462000BB60BB68032B21D97B681B681A697B6858
:104630005B6AD2B21A707B685B6A5A1C7B685A62EA
:104640007B685B8D9BB2013B9AB27B685A857B6825
:104650005B8D9BB2032B40F096807B681B685A6889
:104660007B681B6822F480625A608CE07B68DB6A9E
:10467000022B7FD0BB68012B02D0BB68002B79D105
:10468000786801F03DF80346002B4CD17B681B682D
:104690001A687B681B6822F480621A607B681B685A
:1046A0005A687B681B6822F4E0625A607B681B686A
:1046B0001A697B685B6AD2B21A707B685B6A5A1CA3
:1046C0007B685A627B685B8D9BB2013B9AB27B68C8
:1046D0005A857B68202283F83D207B6893F83E3022
:1046E000DBB2402B0AD17B68002283F83E207B6836
:1046F00000221A637868FFF7BAFD44E07B68002265
:1047000083F83E20FB68082B02D0FB68202B03D1E6
:104710007B6800221A6302E07B6812221A637868C1
:10472000FFF765FD2FE07B681B685A687B681B6894
:1047300022F4E0625A607B681B681A697B685B6AD6
:10474000D2B21A707B685B6A5A1C7B685A627B68BB
:104750005B8D9BB2013B9AB27B685A857B682022B5
:1047600083F83D207B68002283F83E207868FFF7BD
:1047700088FD08E07B681B685A687B681B6822F428
:1047800080625A60FFE700BF1037BD4680BD80B52C
:1047900084B000AF78607B68DB6AFB607B685B8D10
:1047A0009BB2042B1BD17B681B685A687B681B6813
:1047B00022F480625A607B681B681A697B685B6AB6
:1047C000D2B21A707B685B6A5A1C7B685A627B683B
:1047D0005B8D9BB2013B9AB27B685A85C4E07B68D3
:1047E0005B8D9BB2032B29D17B681B685A687B6861
:1047F0001B6822F480625A60FB68042B0AD0FB68B5
:10480000022B07D07B681B681A687B681B6822F440
:1048100080621A607B681B681A697B685B6AD2B227
:104820001A707B685B6A5A1C7B685A627B685B8D76
:104830009BB2013B9AB27B685A8595E07B685B8DA1
:104840009BB2022B7DD1FB68012B02D0FB68102BA1
:1048500008D17B681B681A687B681B6822F4806239
:104860001A6016E0FB68042B02D0FB68022B08D10B
:104870007B681B681A687B681B6842F480621A6058
:1048800007E07B681B681A687B681B6842F400724B
:104890001A607B681B681A697B685B6AD2B21A70FF
:1048A0007B685B6A5A1C7B685A627B685B8D9BB233
:1048B000013B9AB27B685A857B681B681A697B68E2
:1048C0005B6AD2B21A707B685B6A5A1C7B685A6258
:1048D0007B685B8D9BB2013B9AB27B685A857B6893
:1048E0001B685A687B681B6822F440725A607B68B8
:1048F000202283F83D207B6893F83E30DBB2402BCA
:104900000AD17B68002283F83E207B6800221A636C
:104910007868FFF7ACFC27E07B68002283F83E2034
:10492000FB68082B02D0FB68202B03D17B68002298
:104930001A6302E07B6812221A637868FFF757FC5B
:1049400012E07B681B681A697B685B6AD2B21A70D6
:104950007B685B6A5A1C7B685A627B685B8D9BB282
:10496000013B9AB27B685A8500BF1037BD4680BDB7
:1049700080B483B000AF78607B6893F83E30DBB2E0
:10498000402B17D17B681B6D002B09D17B685B6CBA
:10499000DBB21A467B681B6802F0FE021A6167E010
:1049A0007B685B6CDBB243F00103DAB27B681B68A7
:1049B0001A615DE07B681B69B3F5804F33D17B687A
:1049C00093F83D30DBB2212B09D17B685B6CDBB205
:1049D0001A467B681B6802F0FE021A6108E07B68D9
:1049E0005B6CDBB243F00103DAB27B681B681A61CF
:1049F0007B685B6B002B04D07B685B6BDB6B002BF5
:104A000008D17B689B6B002B32D07B689B6BDB6B88
:104A1000002B2DD07B681B685A687B681B6842F4AA
:104A200000625A6024E07B681B6D002B0ED17B680E
:104A30005B6C9BB2DB11DBB203F00603DBB263F00D
:104A40000F03DAB27B681B681A6111E07B681B6D8B
:104A5000012B0DD17B685B6C9BB2DB11DBB203F0E9
:104A60000603DBB263F00E03DAB27B681B681A61DF
:104A700000BF0C37BD465DF8047B704780B483B03F
:104A800000AF78607B685B6CDAB27B681B681A6188
:104A90007B685B6B002B04D07B685B6BDB6B002B54
:104AA00008D17B689B6B002B0CD07B689B6BDB6B0E
:104AB000002B07D07B681B685A687B681B6842F430
:104AC00000625A6000BF0C37BD465DF8047B70473A
:104AD00080B491B000AF78607B6893F83E3087F87F
:104AE0003F307B68DB6ABB637B681B6B7B637B68E7
:104AF00093F83D30DBB2222B40F069817B681B6D5F
:104B0000002B0FD197F83F30402B0BD100233B6394
:104B10007B681B685B693B637B681B689B693B63C5
:104B20003B6B60E17B681B6D002B1DD17B681B69B3
:104B3000B3F5404F18D10023FB627B681B685B69AB
:104B4000FB627B681B689B69FB62FB6A7B681B6876
:104B50001A687B681B6842F480721A607B681B6D60
:104B60005A1C7B681A653EE17B685B8D9BB2002B0B
:104B700013D10023BB627B681B685B69BB627B68E7
:104B80001B689B69BB62BB6A7B681B681A687B6891
:104B90001B6842F400721A6015E17B685B8D9BB262
:104BA000012B40F08A80BB6B13F5803F37D17B68C7
:104BB0001B681A687B681B6822F480621A607B6835
:104BC0001B685B6803F40063B3F5006F13D17B6867
:104BD0001B681A687B681B6822F480621A600023D5
:104BE0007B627B681B685B697B627B681B689B6977
:104BF0007B627B6AE7E000233B627B681B685B6942
:104C00003B627B681B689B693B623B6A7B681B68F5
:104C10001A687B681B6842F400721A60D3E0BB6BB1
:104C2000082B2ED0BB6B202B2BD07B6B122B02D1F1
:104C3000BB6B012B25D1BB6B042B0ED0BB6B022BA6
:104C40000BD0BB6B102B08D07B681B681A687B6885
:104C50001B6822F480621A6007E07B681B681A6890
:104C60007B681B6842F480621A600023FB617B68EA
:104C70001B685B69FB617B681B689B69FB61FB6967
:104C8000A1E07B681B681A687B681B6822F480625D
:104C90001A600023BB617B681B685B69BB617B6832
:104CA0001B689B69BB61BB697B681B681A687B6872
:104CB0001B6842F400721A6085E07B685B8D9BB2D2
:104CC000022B4DD1BB6B042B16D0BB6B022B13D028
:104CD000BB6B102B10D07B681B681A687B681B6845
:104CE00022F480621A607B681B681A687B681B6804
:104CF00042F400621A6007E07B681B681A687B68F0
:104D00001B6842F480621A607B681B685B6803F46E
:104D10000063B3F5006F17D1BB6B13F5803F0BD069
:104D2000BB6B012B08D0BB6B082B05D0BB6B102BCA
:104D300002D0BB6B202B07D17B681B685A687B684D
:104D40001B6842F480525A6000237B617B681B68B9
:104D50005B697B617B681B689B697B617B6932E077
:104D60007B681B681A687B681B6842F480621A6063
:104D70007B681B685B6803F40063B3F5006F17D1B1
:104D8000BB6B13F5803F0BD0BB6B012B08D0BB6B0B
:104D9000082B05D0BB6B102B02D0BB6B202B07D18F
:104DA0007B681B685A687B681B6842F480525A60B3
:104DB00000233B617B681B685B693B617B681B6808
:104DC0009B693B613B697B6800221A650BE000230D
:104DD000FB607B681B685B69FB607B681B689B6989
:104DE000FB60FB68FFE700BF4437BD465DF8047B0E
:104DF000704780B584B000AF78607B6893F83D3031
:104E0000FB737B685B8D9BB2002B2BD07B685B6A4E
:104E10001A787B681B681A617B685B6A5A1C7B681E
:104E20005A627B685B8D9BB2013B9AB27B685A8564
:104E30007B685B8D9BB2002B14D1FB7B292B11D19E
:104E40007B681B685A687B681B6822F480625A6022
:104E50007B6821221A637B68282283F83D207868CA
:104E6000FFF7CFF900BF1037BD4680BD80B483B0D7
:104E700000AF78607B685B8D9BB2002B11D07B68A4
:104E80005B6A1A787B681B681A617B685B6A5A1CCC
:104E90007B685A627B685B8D9BB2013B9AB27B68F0
:104EA0005A8500BF0C37BD465DF8047B704780B55E
:104EB00084B000AF78607B6893F83D30FB737B680B
:104EC0005B8D9BB2002B2CD07B681B681A697B68BA
:104ED0005B6AD2B21A707B685B6A5A1C7B685A6242
:104EE0007B685B8D9BB2013B9AB27B685A857B687D
:104EF0005B8D9BB2002B14D1FB7B2A2B11D17B68DD
:104F00001B685A687B681B6822F480625A607B6861
:104F100022221A637B68282283F83D207868FFF7F5
:104F20007AF900BF1037BD4680BD80B483B000AFB2
:104F300078607B685B8D9BB2002B12D07B681B680E
:104F40001A697B685B6AD2B21A707B685B6A5A1C0A
:104F50007B685A627B685B8D9BB2013B9AB27B682F
:104F60005A8500BF0C37BD465DF8047B704780B59D
:104F700084B000AF786039600023FB737B6893F8DE
:104F80003D30DBB203F02803282B27D17B681B6858
:104F90005A687B681B6822F480625A603B689B08F1
:104FA00003F00103002B01D10123FB733B68DB09F4
:104FB00003F00103002B03D17B68DB68BB8102E0B7
:104FC0007B689B69BB817B68002283F83C20BA899F
:104FD000FB7B19467868FFF728F90EE00023BB60D9
:104FE0007B681B685B69BB607B681B689B69BB60F7
:104FF000BB687B68002283F83C2000BF1037BD46A9
:1050000080BD000080B584B000AF78607B6893F805
:105010003D30FB737B681B685A687B681B6822F411
:10502000E0625A600023BB607B681B685B69BB6001
:105030007B681B681A687B681B6842F001021A6073
:10504000BB687B681B681A687B681B6822F48062F7
:105050001A607B681B685B6803F40063B3F5006F3C
:1050600072D1FB7B222B02D0FB7B2A2B35D17B68B4
:105070009B6B1B685B689AB27B685A857B685B8D0B
:105080009BB2002B05D07B681B6C43F004027B684D
:105090001A647B681B685A687B681B6822F400628C
:1050A0005A607B689B6B1846FEF780FA0346012B1B
:1050B00049D07B689B6B694A1A657B689B6B184675
:1050C000FEF7C8F80346002B3DD07B689B6B1B6D39
:1050D0007A68926B1046984735E07B685B6B1B687B
:1050E0005B689AB27B685A857B685B8D9BB2002BAC
:1050F00005D07B681B6C43F004027B681A647B68F4
:105100001B685A687B681B6822F400625A607B68DF
:105110005B6B1846FEF74AFA0346012B14D07B68F6
:105120005B6B4E4A1A657B685B6B1846FEF792F81C
:105130000346002B08D07B685B6B1B6D7A68526B53
:105140001046984700E000BF7B685B8D9BB2002B48
:105150003ED07B681B685B6903F00403042B12D10B
:105160007B681B681A697B685B6AD2B21A707B68BD
:105170005B6A5A1C7B685A627B685B8D9BB2013B01
:105180009AB27B685A857B681B685B6903F04003B1
:10519000402B12D17B681B681A697B685B6AD2B2AC
:1051A0001A707B685B6A5A1C7B685A627B685B8DED
:1051B0009BB2013B9AB27B685A857B685B8D9BB240
:1051C000002B05D07B681B6C43F004027B681A64DB
:1051D0007B681B6C002B03D0786800F0B7F839E0CF
:1051E000FB7B2A2B09D17B6800221A637B6828226B
:1051F00083F83D207868FFF70EF87B6893F83D3020
:10520000DBB2282B11D17B68154ADA627B68002259
:105210001A637B68202283F83D207B68002283F894
:105220003E207868FFF70FF814E07B681B6B222B99
:1052300002D0FB7B222B0DD17B6800221A637B6896
:10524000202283F83D207B68002283F83E20786886
:10525000FEF7E1FF00BF1037BD4680BDB155000825
:105260000000FFFF80B584B000AF78607B6893F8E2
:105270003D30FB737B68DB6ABB60BB68082B02D0E8
:10528000BB68202B29D1FB7B282B26D17B682E4A9B
:10529000DA627B681B685A687B681B6822F4E062EC
:1052A0005A607B681B686FF480625A617B681B6878
:1052B0001A687B681B6822F480621A607B6800228F
:1052C0001A637B68202283F83D207B68002283F8E4
:1052D0003E207868FEF7B7FF31E0FB7B212B29D118
:1052E0007B68194ADA627B6821221A637B68202274
:1052F00083F83D207B68002283F83E207B681B6892
:105300005A687B681B6822F4E0625A607B681B68FD
:105310006FF480625A617B681B681A687B681B683F
:1053200022F480621A607868FEF72AFD7868FEF73A
:1053300068FF04E07B681B686FF480625A6100BFFD
:105340001037BD4680BD00BF0000FFFF80B584B0B0
:1053500000AF78607B6893F83D30FB737B6893F80F
:105360003E30BB73BB7B102B02D0BB7B402B0AD1E2
:10537000FB7B222B07D17B681B681A687B681B6844
:1053800022F400621A60FB7B03F02803282B07D16C
:105390007B6800221A637B68282283F83D2015E091
:1053A0007B681B685B6803F40063B3F5006F0AD089
:1053B000FB7B602B07D07B68202283F83D207B6835
:1053C000002283F83E207B6800221A637B681B68FA
:1053D0005B6803F40063B3F5006F62D17B681B6800
:1053E0005A687B681B6822F400625A607B685B6BBA
:1053F00093F83530DBB2012B20D07B685B6B6A4AB7
:105400001A657B685B6B1846FDF724FF0346002B8B
:1054100000F089807B681B681A687B681B6822F033
:1054200001021A607B68202283F83D207B685B6B59
:105430001B6D7A68526B1046984774E07B689B6BD3
:10544000594A1A657B689B6B1846FDF703FF0346B4
:10545000002B68D07B681B685B6903F04003402B1E
:105460000BD17B681B681A697B685B6AD2B21A70C1
:105470007B685B6A5A1C7B685A627B681B681A6887
:105480007B681B6822F001021A607B68202283F887
:105490003D207B689B6B1B6D7A68926B104698472A
:1054A00041E07B6893F83D30DBB2602B25D17B680F
:1054B000202283F83D207B6800221A647B681B68E9
:1054C0005B6903F04003402B0BD17B681B681A69B2
:1054D0007B685B6AD2B21A707B685B6A5A1C7B6815
:1054E0005A627B681B681A687B681B6822F001029D
:1054F0001A607868FEF7CFFE15E07B681B685B6971
:1055000003F04003402B0BD17B681B681A697B6852
:105510005B6AD2B21A707B685B6A5A1C7B685A62FB
:105520007868FEF7AEFE7B681B6CBB60BB6803F05F
:105530000103002B0ED1BB6803F00203002B09D13D
:10554000BB6803F00403002B04D1BB6803F008031D
:10555000002B07D07B681B685A687B681B6822F4A5
:10556000E0625A607B6893F83D30FB737B681B6C8C
:1055700003F00403042B13D1FB7B282B10D17B6891
:105580000A4ADA627B6800221A637B68202283F869
:105590003D207B68002283F83E207868FEF753FEAA
:1055A00000BF1037BD4680BDB15500080000FFFFA9
:1055B00080B586B000AF78600023FB607B689B6B92
:1055C0007B617B6993F83D30FB744B4B1B68DB08B8
:1055D0004A4AA2FB03231A0A13469B001344DA002B
:1055E000D31AFB60FB68002B06D17B691B6C43F070
:1055F00020027B691A640AE0FB68013BFB607B695F
:105600001B681B6803F40073B3F5007FEAD07B6965
:105610005B6B002B03D07B695B6B0022DA637B69D9
:105620009B6B002B03D07B699B6B0022DA637B6949
:105630001B681A687B691B6822F480621A607B69A8
:1056400000225A857B695B6B002B03D07B695B6B07
:1056500000221A657B699B6B002B03D07B699B6BD7
:1056600000221A657B691B681A687B691B6822F037
:1056700001021A607B6993F83D30DBB2602B0ED1DA
:105680007B69202283F83D207B69002283F83E203D
:105690007B6900221A647869FEF7FDFD27E0FB7C38
:1056A00003F02803282B17D17B691B681A687B69D4
:1056B0001B6842F001021A607B691B681A687B69EB
:1056C0001B6842F480621A607B6900221A637B695E
:1056D000282283F83D2007E07B69202283F83D20C3
:1056E0007B69002283F83E207869FEF7CAFD00BF7F
:1056F0001837BD4680BD00BF0C00002089B5F814E6
:1057000080B485B000AF78600023FB60134B1B684A
:10571000DB08134AA2FB03231A0A13469B00134417
:10572000FB60FB68013BFB60FB68002B07D17B68DB
:105730001B6C43F020027B681A64012308E07B683D
:105740001B681B6803F40073B3F5007FE9D00023E6
:1057500018461437BD465DF8047B70470C000020E6
:1057600089B5F81480B483B000AF78607B68DB6AD9
:10577000B3F52A0F03D17B680122DA6207E07B6868
:10578000DB6AB3F12A4F02D17B680822DA6200BFDC
:105790000C37BD465DF8047B7047000080B586B0CD
:1057A00000AF78607B68002B01D1012367E27B6842
:1057B0001B6803F00103002B75D0884B9B6803F036
:1057C0000C03042B0CD0854B9B6803F00C03082BB7
:1057D00012D1824B5B6803F48003B3F5800F0BD1C9
:1057E0007E4B1B6803F40033002B5BD07B685B6847
:1057F000002B57D1012342E27B685B68B3F5803F01
:1058000006D1764B1B68754A43F4803313601DE064
:105810007B685B68B3F5A02F0CD1704B1B686F4A97
:1058200043F4802313606D4B1B686C4A43F4803350
:1058300013600BE0694B1B68684A23F480331360E4
:10584000664B1B68654A23F4802313607B685B68A2
:10585000002B13D0FDF776FA386108E0FDF772FAF5
:1058600002463B69D31A642B01D9032307E25B4B41
:105870001B6803F40033002BF0D014E0FDF762FA4C
:10588000386108E0FDF75EFA02463B69D31A642BE3
:1058900001D90323F3E1514B1B6803F40033002BC0
:1058A000F0D100E000BF7B681B6803F00203002B0F
:1058B00063D04A4B9B6803F00C03002B0BD0474B83
:1058C0009B6803F00C03082B1CD1444B5B6803F46A
:1058D0008003002B16D1414B1B6803F00203002B01
:1058E00005D07B68DB68012B01D00123C7E13B4B6E
:1058F0001B6823F0F8027B681B69DB003749134300
:105900000B603AE07B68DB68002B20D0344B01222F
:105910001A60FDF717FA386108E0FDF713FA02463E
:105920003B69D31A022B01D90323A8E12B4B1B6837
:1059300003F00203002BF0D0284B1B6823F0F80281
:105940007B681B69DB00254913430B6015E0244B82
:1059500000221A60FDF7F6F9386108E0FDF7F2F968
:1059600002463B69D31A022B01D9032387E11B4B63
:105970001B6803F00203002BF0D17B681B6803F067
:105980000803002B36D07B685B69002B16D0154BC3
:1059900001221A60FDF7D6F9386108E0FDF7D2F967
:1059A00002463B69D31A022B01D9032367E10B4B53
:1059B0005B6F03F00203002BF0D01BE0094B0022C9
:1059C0001A60FDF7BFF938610EE0FDF7BBF902463A
:1059D0003B69D31A022B07D9032350E10038024058
:1059E00000004742800E4742884B5B6F03F0020382
:1059F000002BEAD17B681B6803F00403002B00F046
:105A000097800023FB75814B1B6C03F08053002BA8
:105A10000FD10023BB607D4B1B6C7C4A43F080534D
:105A200013647A4B1B6C03F08053BB60BB6801238B
:105A3000FB75774B1B6803F48073002B18D1744BF4
:105A40001B68734A43F480731360FDF77BF9386178
:105A500008E0FDF777F902463B69D31A022B01D91A
:105A600003230CE16A4B1B6803F48073002BF0D016
:105A70007B689B68012B06D1644B1B6F634A43F024
:105A8000010313671CE07B689B68052B0CD15F4BFF
:105A90001B6F5E4A43F0040313675C4B1B6F5B4A4A
:105AA00043F0010313670BE0584B1B6F574A23F079
:105AB00001031367554B1B6F544A23F0040313670C
:105AC0007B689B68002B15D0FDF73CF938610AE034
:105AD000FDF738F902463B69D31A41F28832934206
