:020000040800F2
:10000000000002208569000881410008894100083C
:100010009141000899410008A1410008000000003A
:10002000000000000000000000000000A9410008DE
:10003000B741000800000000C5410008D341000896
:10004000D5690008D5690008D5690008D569000898
:10005000D5690008D5690008D5690008D569000888
:10006000D5690008D5690008D5690008D569000878
:10007000D5690008D5690008D5690008D569000868
:10008000E1410008D5690008D569000800000000BA
:10009000000000000000000000000000D56900081A
:1000A000D5690008D5690008D5690008D569000838
:1000B000F5410008D569000809420008D569000823
:1000C000D5690008D5690008D56900081D420008F7
:1000D000D5690008314200084542000800000000D0
:1000E000D5690008D5690008D5690008000000003E
:1000F000000000000000000000000000D5690008BA
:1001000000000000D5690008D5690008D56900081D
:1001100000000000000000000000000000000000DF
:10012000D5690008D5690008D5690008D5690008B7
:10013000D569000800000000000000000000000079
:10014000000000000000000000000000D569000869
:10015000D5690008D569000859420008D56900082A
:10016000D5690008D5690008000000000000000003
:10017000000000000000000000000000000000007F
:1001800000000000D5690008000000000000000029
:08019000D5690008D5690008DB
:1001A00010B5054C237833B9044B13B10448AFF3B1
:1001B00000800123237010BDE0010020000000003A
:1001C0003818010808B5034B1BB103490348AFF3C6
:1001D000008008BD00000000E4010020381801087C
:1001E00001F0FF01102A2BDB10F0070F08D010F8E8
:1001F000013B013A8B422DD010F0070F42B3F6D1EC
:10020000F0B441EA012141EA014122F007047FF004
:1002100000070023F0E80256083C85EA010586EA5B
:10022000010685FA47F5A3FA87F586FA47F6A5FA97
:1002300087F68EB9EED1F0BC01F0FF0102F00702A3
:1002400032B110F8013B013A83EA010313B1F8D14E
:100250000020704701387047002D06BF354603382F
:10026000073815F0010F07D1013015F4807F02BF68
:10027000013015F4C03F0130F0BC0138704700BFB9
:10028000034613F8012B002AFBD1181A01387047D6
:1002900081F0004102E000BF83F0004330B54FEA37
:1002A00041044FEA430594EA050F08BF90EA020FA4
:1002B0001FBF54EA000C55EA020C7FEA645C7FEA37
:1002C000655C00F0E2804FEA5454D4EB5555B8BF5A
:1002D0006D420CDD2C4480EA020281EA030382EACB
:1002E000000083EA010180EA020281EA0303362D5D
:1002F00088BF30BD11F0004F4FEA01314FF4801C30
:100300004CEA113102D0404261EB410113F0004F41
:100310004FEA03334CEA133302D0524263EB4303F8
:1003200094EA050F00F0A780A4F10104D5F1200E96
:100330000DDB02FA0EFC22FA05F2801841F10001F1
:1003400003FA0EF2801843FA05F359410EE0A5F1C5
:1003500020050EF1200E012A03FA0EFC28BF4CF0F6
:10036000020C43FA05F3C01851EBE37101F00045AC
:1003700007D54FF0000EDCF1000C7EEB00006EEBB9
:100380000101B1F5801F1BD3B1F5001F0CD3490843
:100390005FEA30004FEA3C0C04F101044FEA44529A
:1003A00012F5800F80F09A80BCF1004F08BF5FEA21
:1003B000500C50F1000041EB045141EA050130BD01
:1003C0005FEA4C0C404141EB0101013C28BFB1F513
:1003D000801FE9D291F0000F04BF01460020B1FA5E
:1003E00081F308BF2033A3F10B03B3F120020CDA31
:1003F0000C3208DD02F1140CC2F10C0201FA0CF00F
:1004000021FA02F10CE002F11402D8BFC2F1200C73
:1004100001FA02F120FA0CFCDCBF41EA0C01904029
:10042000E41AA2BF01EB0451294330BD6FEA040472
:100430001F3C1CDA0C340EDC04F11404C4F120025D
:1004400020FA04F001FA02F340EA030021FA04F36F
:1004500045EA030130BDC4F10C04C4F1200220FAC6
:1004600002F001FA04F340EA0300294630BD21FA04
:1004700004F0294630BD94F0000F83F4801306BFCA
:1004800081F480110134013D4EE77FEA645C18BFBE
:100490007FEA655C29D094EA050F08BF90EA020F55
:1004A00005D054EA000C04BF1946104630BD91EA4D
:1004B000030F1EBF0021002030BD5FEA545C05D150
:1004C0004000494128BF41F0004130BD14F580048F
:1004D0003CBF01F5801130BD01F0004545F0FE4103
:1004E00041F470014FF0000030BD7FEA645C1ABF38
:1004F000194610467FEA655C1CBF0B46024650EA6F
:10050000013406BF52EA033591EA030F41F400219A
:1005100030BD00BF90F0000F04BF0021704730B520
:100520004FF4806404F132044FF000054FF00001F5
:1005300050E700BF90F0000F04BF0021704730B5B6
:100540004FF4806404F1320410F0004548BF40428B
:100550004FF000013EE700BF42004FEAE2014FEAE0
:1005600031014FEA02701FBF12F07F4393F07F4FBB
:1005700081F06051704732F07F4208BF704793F0BE
:100580007F4F04BF41F40021704730B54FF46074D1
:1005900001F0004521F000411CE700BF50EA0102D4
:1005A00008BF704730B54FF000050AE050EA01027D
:1005B00008BF704730B511F0004502D5404261EBED
:1005C00041014FF4806404F132045FEA915C3FF42E
:1005D000D8AE4FF003025FEADC0C18BF03325FEACB
:1005E000DC0C18BF033202EBDC02C2F1200300FA7C
:1005F00003FC20FA02F001FA03FE40EA0E0021FAA1
:1006000002F11444BDE600BF70B54FF0FF0C4CF48E
:10061000E06C1CEA11541DBF1CEA135594EA0C0F40
:1006200095EA0C0F00F0DEF82C4481EA030621EA7B
:100630004C5123EA4C5350EA013518BF52EA0335B6
:1006400041F4801143F4801338D0A0FB02CE4FF068
:100650000005E1FB02E506F00042E0FB03E54FF098
:100660000006E1FB03569CF0000F18BF4EF0010E90
:10067000A4F1FF04B6F5007F64F5407404D25FEA8C
:100680004E0E6D4146EB060642EAC62141EA55513F
:100690004FEAC52040EA5E504FEACE2EB4F1FD0C81
:1006A00088BFBCF5E06F1ED8BEF1004F08BF5FEAFF
:1006B000500E50F1000041EB045170BD06F00046B1
:1006C00046EA010140EA020081EA0301B4EB5C045E
:1006D000C2BFD4EB0C0541EA045170BD41F4801156
:1006E0004FF0000E013C00F3AB8014F1360FDEBF7B
:1006F000002001F0004170BDC4F10004203C35DA57
:100700000C341BDC04F11404C4F1200500FA05F3D9
:1007100020FA04F001FA05F240EA020001F000427A
:1007200021F0004110EBD37021FA04F642EB0601F0
:100730005EEA430E08BF20EAD37070BDC4F10C041A
:10074000C4F1200500FA04F320FA05F001FA04F2DE
:1007500040EA020001F0004110EBD37041F10001CA
:100760005EEA430E08BF20EAD37070BDC4F12005D5
:1007700000FA05F24EEA020E20FA04F301FA05F23D
:1007800043EA020321FA04F001F0004121FA04F2E5
:1007900020EA020000EBD3705EEA430E08BF20EAB5
:1007A000D37070BD94F0000F0FD101F000464000EF
:1007B00041EB010111F4801F08BF013CF7D041EA71
:1007C000060195F0000F18BF704703F00046520075
:1007D00043EB030313F4801F08BF013DF7D043EA46
:1007E0000603704794EA0C0F0CEA135518BF95EAFC
:1007F0000C0F0CD050EA410618BF52EA4306D1D183
:1008000081EA030101F000414FF0000070BD50EAA1
:10081000410606BF1046194652EA430619D094EA2B
:100820000C0F02D150EA013613D195EA0C0F05D115
:1008300052EA03361CBF104619460AD181EA030169
:1008400001F0004141F0FE4141F470014FF0000021
:1008500070BD41F0FE4141F4780170BD70B54FF0BC
:10086000FF0C4CF4E06C1CEA11541DBF1CEA13553C
:1008700094EA0C0F95EA0C0F00F0A7F8A4EB05041E
:1008800081EA030E52EA03354FEA013100F0888015
:100890004FEA03334FF0805545EA131343EA1263DE
:1008A0004FEA022245EA111545EA10654FEA002693
:1008B0000EF000419D4208BF964244F1FD0404F54C
:1008C000407402D25B084FEA3202B61A65EB0305A8
:1008D0005B084FEA32024FF480104FF4002CB6EB65
:1008E000020E75EB030E22BFB61A754640EA0C00E5
:1008F0005B084FEA3202B6EB020E75EB030E22BF25
:10090000B61A754640EA5C005B084FEA3202B6EB65
:10091000020E75EB030E22BFB61A754640EA9C0024
:100920005B084FEA3202B6EB020E75EB030E22BFF4
:10093000B61A754640EADC0055EA060E18D04FEAB2
:10094000051545EA16754FEA06164FEAC30343EA52
:1009500052734FEAC2025FEA1C1CC0D111F4801F1F
:100960000BD141EA00014FF000004FF0004CB6E718
:1009700011F4801F04BF01430020B4F1FD0C88BFB7
:10098000BCF5E06F3FF6AFAEB5EB030C04BFB6EBC2
:10099000020C5FEA500C50F1000041EB045170BDB5
:1009A0000EF0004E4EEA113114EB5C04C2BFD4EBE2
:1009B0000C0541EA045170BD41F480114FF0000E66
:1009C000013C90E645EA060E8DE60CEA135594EAE2
:1009D0000C0F08BF95EA0C0F3FF43BAF94EA0C0FE5
:1009E0000AD150EA01347FF434AF95EA0C0F7FF45A
:1009F00025AF104619462CE795EA0C0F06D152EAAE
:100A000003353FF4FDAE1046194622E750EA410691
:100A100018BF52EA43067FF4C5AE50EA41047FF4A2
:100A20000DAF52EA43057FF4EBAE12E74FF0FF3C07
:100A300006E000BF4FF0010C02E000BF4FF0010CD8
:100A40004DF804CD4FEA410C7FEA6C5C4FEA430C51
:100A500018BF7FEA6C5C1BD001B050EA410C0CBFA0
:100A600052EA430C91EA030F02BF90EA020F002002
:100A7000704710F1000F91EA030F58BF994208BF69
:100A800090422CBFD8176FEAE37040F00100704726
:100A90004FEA410C7FEA6C5C02D150EA013C07D17D
:100AA0004FEA430C7FEA6C5CD6D152EA033CD3D0C8
:100AB0005DF8040B704700BF8446104662468C46C2
:100AC0001946634600E000BF01B5FFF7B7FF0028F5
:100AD00048BF10F1000F01BD4DF808EDFFF7F4FF1E
:100AE0000CBF012000205DF808FB00BF4DF808EDA9
:100AF000FFF7EAFF34BF012000205DF808FB00BFCC
:100B00004DF808EDFFF7E0FF94BF012000205DF8ED
:100B100008FB00BF4DF808EDFFF7CEFF94BF0120A2
:100B200000205DF808FB00BF4DF808EDFFF7C4FF9B
:100B300034BF012000205DF808FB00BF4FEA410CE4
:100B40007FEA6C5C02D150EA013C0AD14FEA430CC7
:100B50007FEA6C5C02D152EA033C02D14FF0000004
:100B600070474FF0010070474FEA410212F5001242
:100B700015D211D56FF47873B3EB625212D94FEAE4
:100B8000C12343F0004343EA505311F0004F23FACE
:100B900002F018BF404270474FF00000704750EA23
:100BA000013005D111F0004008BF6FF000407047E0
:100BB0004FF00000704700BF4A0011D212F500123A
:100BC00011D20DD56FF47873B3EB62520ED44FEAA5
:100BD000C12343F0004343EA505323FA02F0704725
:100BE0004FF00000704750EA013002D14FF0FF3063
:100BF00070474FF0000070474FEA4102B2F1E04306
:100C000024BFB3F5001CDCF1FE5C0DD901F0004CF3
:100C10004FEAC0024CEA5070B2F1004F40EB830043
:100C200008BF20F00100704711F0804F21D113F16F
:100C30003872BCBF01F00040704741F480114FEAA8
:100C40005252C2F11802C2F1200C10FA0CF320FA31
:100C500002F018BF40F001004FEAC1234FEAD3234E
:100C600003FA0CFC40EA0C0023FA02F34FEA4303B8
:100C7000CCE77FEA625307D150EA01331EBF4FF041
:100C8000FE4040F44000704701F0004040F0FE405C
:100C900040F40000704700BF80F0004002E000BF59
:100CA00081F0004142001FBF5FEA410392EA030F57
:100CB0007FEA226C7FEA236C6AD04FEA1262D2EBA1
:100CC0001363C1BFD218414048404140B8BF5B42A6
:100CD000192B88BF704710F0004F40F4000020F03F
:100CE0007F4018BF404211F0004F41F4000121F055
:100CF0007F4118BF494292EA030F3FD0A2F101029F
:100D000041FA03FC10EB0C00C3F1200301FA03F1DC
:100D100000F0004302D5494260EB4000B0F5000FFF
:100D200013D3B0F1807F06D340084FEA310102F1BE
:100D30000102FE2A51D2B1F1004F40EBC25008BF70
:100D400020F0010040EA03007047490040EB00003A
:100D5000013A28BFB0F5000FEDD2B0FA80FCACF13B
:100D6000080CB2EB0C0200FA0CF0AABF00EBC25068
:100D700052421843BCBFD0401843704792F0000F56
:100D800081F4000106BF80F400000132013BB5E7A9
:100D90004FEA41037FEA226C18BF7FEA236C21D01F
:100DA00092EA030F04D092F0000F08BF0846704784
:100DB00090EA010F1CBF0020704712F07F4F04D152
:100DC000400028BF40F00040704712F100723CBF65
:100DD00000F50000704700F0004343F0FE4040F48F
:100DE000000070477FEA226216BF08467FEA23634D
:100DF0000146420206BF5FEA412390EA010F40F438
:100E0000800070474FF0000304E000BF10F0004383
:100E100048BF40425FEA000C08BF704743F096436A
:100E200001464FF000001CE050EA010208BF704785
:100E30004FF000030AE000BF50EA010208BF70470C
:100E400011F0004302D5404261EB41015FEA010C21
:100E500002BF84460146002043F0B64308BFA3F119
:100E60008053A3F50003BCFA8CF2083AA3EBC253FB
:100E700010DB01FA02FC634400FA02FCC2F120021A
:100E8000BCF1004F20FA02F243EB020008BF20F051
:100E90000100704702F1200201FA02FCC2F12002B7
:100EA00050EA4C0021FA02F243EB020008BF20EAAC
:100EB000DC70704753B94AB9002908BF00281CBF2D
:100EC0004FF0FF314FF0FF3000F0BEB9ADF1080C2C
:100ED0006DE904CE00F03CF8DDF804E0DDE9022322
:100EE00004B0704738B50022002304460D46FFF7D2
:100EF000FDFD28B920462946BDE8384000F00AB873
:100F0000204605F1004100F005F8404261EB410147
:100F100038BD00BFD0B50C4B002206460F46FFF788
:100F200073FBFFF749FE0446FFF7F4FA074B002274
:100F3000FFF76AFB02460B4630463946FFF7ACF92D
:100F4000FFF73AFE2146D0BD0000F03D0000F04121
:100F50002DE9F047089D8E4604468846002B4AD16D
:100F60008A42174662D9B2FA82F64EB1C6F1200320
:100F700001FA06F820FA03F3B74043EA0808B44040
:100F80004FEA174E1FFA87FCB8FBFEF1230C0EFB4D
:100F9000118843EA084301FB0CF29A4209D9FB1875
:100FA00001F1FF3080F0EA809A4240F2E780023996
:100FB0003B449A1AA3B2B2FBFEF00EFB102243EAA6
:100FC000024300FB0CFC9C4509D9FB1800F1FF32E1
:100FD00080F0D6809C4540F2D3803B44023840EA02
:100FE0000140A3EB0C0300211DB1F3400022C5E931
:100FF0000032BDE8F0878B4205D90DB1C5E900018B
:1010000000210846F5E7B3FA83F1002946D173457C
:1010100002D3824200F20581841A6EEB03020120A2
:101020009046002DE5D0C5E90048E2E7002A00F02F
:101030009080B2FA82F6002E40F0A4808A1A030C47
:101040004FEA174E80B2BCB20121B2FBFEFC0EFB90
:101050001C2243EA024304FB0CF29A4207D9FB1814
:101060000CF1FF3802D29A4200F2E080C4469B1A8B
:10107000B3FBFEF20EFB123340EA034302FB04F41F
:101080009C4207D9FB1802F1FF3002D29C4200F2C9
:10109000CA8002461B1B42EA0C40A5E7C1F12006AC
:1010A0008B4022FA06F71F430EFA01F420FA06F3EA
:1010B0002EFA06FE4FEA1749234300FA01F81FFAF9
:1010C00087FCBEFBF9F01C0C09FB10EE44EA0E4451
:1010D00000FB0CFEA64502FA01F209D93C1900F109
:1010E000FF3A80F09C80A64540F2998002383C444B
:1010F000A4EB0E041FFA83FEB4FBF9F309FB1344BF
:101100004EEA044403FB0CFCA44508D93C1903F146
:10111000FF3E80F08280A4457FD9023B3C4443EAF5
:101120000040A4EB0C04A0FB02EC64457346E146CE
:1011300062D35FD05DB1B8EB030264EB090404FA3B
:1011400006F622FA01F31E43CC40C5E900640021F3
:101150004FE7B1FBF2FC010C41EA0E4180B240EADC
:1011600001423B4638463C46B846BE462026B1FBC7
:10117000F7F1A2EB080241EA0C4166E7014618E7E5
:1011800010462CE7C6F120022EFA02F3B740B14018
:1011900020FA02F24FEA174E0A43B3FBFEF8BCB244
:1011A0000EFB1833110C41EA034108FB04F9B0406F
:1011B00089454FEA104380B23ED9791808F1FF3CC7
:1011C00001D289451FD8A1EB0901B1FBFEF909FB4A
:1011D00004F80EFB191192B242EA0142424529D2AB
:1011E000BA1809F1FF31C4D24245C2D2A9F10201B5
:1011F0003A44BEE7F0459DD2BEEB02036CEB070C10
:101200000138E14696E7A7EB09094944A8F1020C29
:10121000B1FBFEF909FB04F8DBE773467FE75046B4
:1012200066E70846FDE63B44023A33E7ACF1020CC0
:101230003B441CE749469CE7A1EB0901C446B1FBCE
:10124000FEF909FB04F8C4E7704700BF0000000086
:1012500080B500AF444B1B68002B7CD1434B35223B
:101260001A6043494FF00002424BC1E90023424952
:101270004FF000024FF48013C1E900233F4938A327
:10128000D3E90023C1E900233D4B14221A603C4BF3
:101290001A68364B1B6813440A333A4A1360364BBC
:1012A00093ED007BB0EE470AF0EE670A0EF088FD82
:1012B000B0EE407AF0EE607A334B83ED007B2C4B3E
:1012C000D3E900233149C1E90023304BD3E90001C0
:1012D0004FF000022E4BFFF797F902460B462D49BF
:1012E000C1E90023294B93ED007BB0EE470AF0EEF5
:1012F000670A0EF065FDB0EE407AF0EE607A264B9C
:1013000083ED007B214BD3E900232449C1E900236D
:10131000214BD3E900014FF00002214BFFF774F994
:1013200002460B461F49C1E90023144BD3E90001D3
:101330004FF000021C4BFFF791FA02460B461B4987
:10134000C1E900231A494FF000021A4BC1E90023FA
:10135000054B01221A6000BF80BD00BFAFF30080C3
:10136000182D4454FB210940FC01002000020020FC
:10137000100200200000B03C1802002020020020D3
:101380000402002008020020380200204002002051
:10139000000069404802002050020020580200204E
:1013A00000408F406002002000806640280200203C
:1013B000300200200000F87F80B582B000AF87EDDA
:1013C000000BD7E90023D7E90001FFF71DF902461A
:1013D0000B4643EC172BB0EE470AF0EE670A0837CE
:1013E000BD4680BD80B586B000AFF860B96087EDBE
:1013F000000BFB68002B06DBBB6803F10802BA6038
:10140000D3E9002303E04FF000024FF00003C7E9E7
:10141000042315E0D7E90023D7E90401FFF7F4F826
:1014200002460B4610461946BB6803F10802BA6033
:10143000D3E90023FEF732FF02460B46C7E9042337
:10144000FB68013BFB60FB68002BE3DAD7E9042370
:1014500043EC172BB0EE470AF0EE670A1837BD468B
:1014600080BD0000000000002DE9B04F2DED048B81
:1014700088B000AFF86187ED040B87ED021BBC4B11
:101480001B68002B01D1FFF7E3FEF969D7E90423BC
:10149000C1E90023F969D7E90223C1E90223FB6905
:1014A000D3E902234FF00000B249FEF7F5FE0246F1
:1014B0000B46F969C1E90423FB69D3E90245FB69DD
:1014C000D3E902234FF000004FF08041FEF7E4FE25
:1014D00002460B4620462946FFF796F802460B4681
:1014E000F969C1E90623FB69D3E90645FB6993ED78
:1014F000047BB0EE470AF0EE670AFFF75DFF53EC9E
:10150000102B20462946FFF7A9F902460B46F96938
:10151000C1E90823FB69D3E90245FB69D3E902234A
:101520004FF000004FF08041FEF7B6FE02460B463A
:1015300020462946FFF792F902460B46F969C1E9B0
:101540000A23FB69D3E90001FB69D3E90423FFF710
:101550005BF802460B46F969C1E90C23FB6993ED80
:10156000007BB0EE470AF0EE670AFFF725FF55EC67
:10157000104BFB6993ED0C7BB0EE470AF0EE670A67
:10158000FFF71AFFB0EE409AF0EE609AFB69D3E9DC
:1015900006014FF000024FF00003FFF79DFA0346EB
:1015A000002B51D1FB69D3E906014FF000024FF047
:1015B0000003FFF7B9FA0346002B17D0FB6993ED40
:1015C000067BB0EE470AF0EE670A0EF0F9FBB0EECC
:1015D000407AF0EE607AB0EE470AF0EE670A0EF05D
:1015E000ABFBB0EE408AF0EE608A18E0FB69D3E90D
:1015F00006233A6083F000437B6097ED000B0EF00A
:10160000DFFBB0EE407AF0EE607AB0EE470AF0EE23
:10161000670A0EF001FCB0EE408AF0EE608AFB69CA
:10162000D3E90623924623F0004B4BEC10AB0EF0AF
:10163000C7FB53EC102B51EC180BFFF70FF90246C8
:101640000B461046194602E04FF00000494953ECA2
:10165000192BFEF7D9FF02460B4620462946FEF716
:101660001DFE02460B46104619464FF000024FF091
:101670008043FFF7F3F802460B46F969C1E90E23F0
:101680003D4BD3E9000134A3D3E90023FEF7BCFFAF
:1016900002460B4614461D46FB69D3E902239046D9
:1016A00023F000499FED2E1B49EC108B0EF0FEFD40
:1016B00059EC108BFB69D3E902014FF000024FF0A7
:1016C0008043FFF7CBF802460B464FF00000294954
:1016D000FEF7E2FD02460B4643EC172B9FED221B63
:1016E000B0EE470AF0EE670A0EF00AFE53EC102B3C
:1016F00040464946FEF788FF02460B46104619460B
:101700004FF000024FF08043FFF7A8F802460B4667
:1017100043EC172BB0EE470AF0EE670A0EF050FBD1
:1017200053EC102B20462946FFF798F802460B464B
:10173000F969C1E91023F86900F020F8F86900F0B0
:101740006FF8F86900F0C8F800BF2037BD46BDEC5F
:10175000048BBDE8B08F00BF9A9999999999B93FC8
:10176000FCA9F1D24D62503F000000000000F03FA4
:10177000FC0100200000F03F500200202DE99043C2
:1017800087B000AF786000237B6100233B610523B5
:10179000FB6039E0FB68C3F10503FA689342A8BF18
:1017A0001346BB607B69DB001C4A1A447B6893EDDF
:1017B0000A7BB0EE470AF0EE670A1146B868FFF7F9
:1017C00011FE59EC108B7A69BB6813440133134A3C
:1017D000DB001344D3E900233C69611C39614046B6
:1017E0004946FFF73BF802460B46786804F10901C9
:1017F000C9000144C1E90023BB6802337A6913447C
:101800007B61FB68013BFB60FB68002BC2DA00BF19
:1018100000BF1C37BD46BDE8908300BF18250108F6
:101820002DE9904389B000AF78600023FB6100236D
:10183000BB6101237B6143E005233B6139E03B69E8
:10184000C3F105033A699342A8BF1346FB60FB69E5
:10185000DB00204A1A447B6893ED0A7BB0EE470A0E
:10186000F0EE670A1146F868FFF7BCFD59EC108BE3
:10187000FA69FB6813440133164ADB001344D3E9C9
:101880000023BC69611CB96140464946FEF7E6FF8A
:1018900002460B46786804F10F01C9000144C1E912
:1018A0000023FB680233FA691344FB613B69013B87
:1018B0003B613A697B699A42C1DA7B6901337B619A
:1018C0007B69052BB8DD00BF00BF2437BD46BDE8EE
:1018D000908300BFA82501082DE9904389B000AF8F
:1018E00078600023FB610023BB6100237B613FE044
:1018F00005233B6135E03B69C3F10503FB60FB69F0
:10190000DB00204A1A447B6893ED0A7BB0EE470A5D
:10191000F0EE670A1146F868FFF764FD59EC108B8A
:10192000FA69FB6813440133164ADB001344D3E918
:101930000023BC69611CB96140464946FEF78EFF31
:1019400002460B46786804F11E01C9000144C1E952
:101950000023FB680233FA691344FB613B69013BD6
:101960003B613A697B699A42C5DA7B6901337B61E5
:101970007B69052BBCDD00BF00BF2437BD46BDE839
:10198000908300BF1027010880B485B000AF786055
:101990000023FB730023BB607B681B78242B0DD1D5
:1019A0007B6801337B6009E0BB687A6813441A786E
:1019B000FB7B5340FB73BB680133BB60BB687A6839
:1019C00013441B78002B05D0BB687A6813441B783E
:1019D0002A2BE9D1FB7B18461437BD465DF8047B02
:1019E0007047000080B5C6B002AF07F58873A3F555
:1019F0008673186007F58873A3F586731B681B78D8
:101A0000242B11D007F58873A3F5867307F188009E
:101A10001B681D4A80210BF017FC07F58873A3F59E
:101A2000867307F188021A6007F58873A3F5867339
:101A30001868FFF7A9FF034687F80F3197F80F21C1
:101A400007F58873A3F5867307F1080000921B68F9
:101A50000E4A80210BF0F8FBC7F80801D7F80831CF
:101A60009AB207F108014FF47A73094808F0A0FB15
:101A70000346002B01D1002300E00123184607F59F
:101A80008877BD4680BD00BF501801085418010872
:101A90004006002080B500AF1048FFF7A3FF642088
:101AA00004F0DCFF0E48FFF79DFF642004F0D6FF32
:101AB0000C48FFF797FF642004F0D0FF0A48FFF7B7
:101AC00091FF642004F0CAFF4FF480720749084870
:101AD00008F0F9FB0023184680BD00BF601801081C
:101AE0007018010880180108901801086802002089
:101AF0004006002080B582B000AF7860786800F0C2
:101B000067F9786800F0C0F9786800F07BFC00BFE6
:101B10000837BD4680BD000080B52DED028B86B034
:101B200000AF7860786800F065FA786800F000FB34
:101B3000786800F089FB8C4B93ED008A8A4B93ED1B
:101B4000017A894BD3ED017A27EE277A864BD3EDC4
:101B5000026A854BD3ED027A66EEA77A77EE277A92
:101B6000B0EE670A0EF0FAFAF0EE407AF0EE670A8D
:101B7000B0EE480A0EF0F0FA87ED050A7A4B93EDC5
:101B8000018A794B93ED007A774BD3ED007A27EEFB
:101B9000277A754BD3ED026A734BD3ED027A66EE6A
:101BA000A77A77EE277AB0EE670A0EF0D7FAF0EE52
:101BB000407AF0EE670AB0EE480A0EF0CDFA87EDF3
:101BC000040AD7ED057A9FED697A27EE877ADFED73
:101BD000686AC7EE267A644BC3ED187AD7ED047AAB
:101BE0009FED627A27EE877ADFED616AC7EE267A8B
:101BF0005D4BC3ED1A7A5C4BD3ED187A9FED5D7A9D
:101C0000F4EEC77AF1EE10FA02DD574B5A4A1A6623
:101C1000554BD3ED187A9FED597AF4EEC77AF1EE71
:101C200010FA02D5504B564A1A664F4B93ED0C8A68
:101C300097ED050A0EF0B0FAF0EE407A28EE278A0A
:101C4000494BD3ED0E8A97ED050A0EF0E9FAF0EE56
:101C5000407A68EEA77A78EE277AC7ED037A424B8E
:101C600093ED0C8A97ED040A0EF0DAFAF0EE407A62
:101C700028EE278A97ED050A0EF0D2FAF0EE407AA8
:101C800028EE278A384BD3ED0D8A97ED040A0EF023
:101C900083FAF0EE407A68EEA77A38EE278A324B64
:101CA000D3ED0E8A97ED040A0EF0BAFAF0EE407A00
:101CB00068EEA78A97ED050A0EF06EFAF0EE407A0C
:101CC00068EEA77A78EE677AC7ED027AD7ED027AE6
:101CD000F1EE677AD7ED030AB0EE670A0EF03CFA30
:101CE000F0EE407A9FED217A27EE877ADFED206AC9
:101CF000C7EE267A1C4BC3ED197A1B4BD3ED197A2C
:101D0000F5EEC07AF1EE10FA09D5174BD3ED197A3A
:101D10009FED1C7A77EE877A134BC3ED197A124B3D
:101D20001B6E1846FEF718FC02460B46164801F0DB
:101D30006BFC0D4B5B6E1846FEF70EFC02460B4625
:101D4000124801F061FC084B9B6E1846FEF704FC3C
:101D500002460B460E4801F057FC00BF1837BD463F
:101D6000BDEC028B80BD00BF940300200000344313
:101D7000DB0F49400000B4420000B4420000B4C28E
:101D80000000B4C20000B4436419010880190108BE
:101D90009819010880B586B002AF3A601A4603462A
:101DA000FB710B46BB7113467B71FB793B73BB79AF
:101DB0007B737B7999B2642307F10C0200930223B1
:101DC000386805F04FFE00BF1037BD4680BD0000EB
:101DD00080B586B004AF7860642302930123019339
:101DE000274B009301237522D021786805F038FF36
:101DF000234B1B78712B3ED1D0237A6880216B2036
:101E0000FFF7C8FF642004F029FED0237A6801217F
:101E10006B20FFF7BFFF0A2004F020FED0237A6872
:101E200000216C20FFF7B6FFD0237A6803211A2027
:101E3000FFF7B0FFD0237A6803211920FFF7AAFF2C
:101E4000D0237A6808211B20FFF7A4FFD0237A68EB
:101E500010211C20FFF79EFFD0237A6803211D204C
:101E6000FFF798FFD0237A6802213720FFF792FF0F
:101E7000044801F0C9FB00BF0837BD4680BD00BF64
:101E800090030020B41901082DE9B04388B004AFD5
:101E9000786064230293012301934E4B0093012346
:101EA00000221821786805F0DBFE4A4B1B781946A2
:101EB000494801F0A9FB474B1B78482B40F085802F
:101EC00018237A6801210B20FFF764FF142004F027
:101ED000C5FD18237A6800210A20FFF75BFF0A205E
:101EE00004F0BCFD18237A680F210A20FFF752FF87
:101EF0000A2004F0B3FD6423029303230193374BBC
:101F00000093012310221821786805F0A9FE002310
:101F1000FB6019E0314AFB6813441B78803B07EEF5
:101F2000903AB8EEE77ADFED2E6AC7EE267AB7EE82
:101F3000007A77EE877A2B4AFB689B001344C3ED47
:101F4000007AFB680133FB60FB68022BE2DD234B68
:101F50001B781946214B5B781A46204B9B78224808
:101F600001F052FB1F4B1B681846FEF7F5FA80463E
:101F700089461C4B5B681846FEF7EEFA04460D4690
:101F8000184B9B681846FEF7E7FA02460B46CDE968
:101F90000223CDE9004542464B46144801F034FB8C
:101FA00018237A6800210A20FFF7F4FE0A2004F0C3
:101FB00055FD18237A6816210A20FFF7EBFE0A2048
:101FC00004F04CFD0A4801F01FFB00BF1037BD466E
:101FD000BDE8B08390030020CC19010880030020E5
:101FE0000000804384030020DC190108EC1901087B
:101FF000041A010880B588B004AF786064230293A6
:1020000006230193434B009301233B22D0217868A0
:1020100005F026FE0346002B03D03F4801F0F4FAFA
:1020200075E03C4B1B781BB21B021AB2394B5B7834
:102030001BB21343FB81374B9B781BB21B021AB2B6
:10204000344BDB781BB21343BB81324B1B791BB281
:102050001B021AB22F4B5B791BB213437B81B7F97A
:102060000E3007EE903AB8EEE77A2C4BD3ED037AB8
:1020700037EE677ADFED2A6AC7EE267A274BC3ED83
:10208000007AB7F90C3007EE903AB8EEE77A234BB6
:10209000D3ED047A37EE677ADFED216AC7EE267A50
:1020A0001E4BC3ED017AB7F90A3007EE903AB8EE4D
:1020B000E77A1A4BD3ED057A37EE677ADFED186AC7
:1020C000C7EE267AB7EE007A77EE877A134BC3ED28
:1020D000027A124B1B681846FEF73EFA02460B4680
:1020E000104801F091FA0D4B5B681846FEF734FA80
:1020F00002460B460C4801F087FA084B9B681846CD
:10210000FEF72AFA02460B46084801F07DFA10371E
:10211000BD4680BD68030020141A01089403002006
:1021200000008045281A01083C1A0108501A0108CD
:1021300080B588B004AF78606423029306230193CE
:102140003A4B009301234322D021786805F088FDA3
:102150000346002B03D0364801F056FA62E0334BB9
:102160001B781BB21B021AB2304B5B781BB21343B5
:10217000FB812E4B9B781BB21B021AB22B4BDB78D8
:102180001BB21343BB81294B1B791BB21B021AB232
:10219000264B5B791BB213437B81B7F90E3007EEF8
:1021A000903AB8EEE77ADFED236AC7EE267A224B43
:1021B000C3ED067AB7F90C3007EE903AB8EEE77A3D
:1021C000DFED1C6AC7EE267A1B4BC3ED077AB7F921
:1021D0000A3007EE903AB8EEE77ADFED166AC7EEFE
:1021E000267A154BC3ED087A134B9B691846FEF708
:1021F000B3F902460B46114801F006FA0E4BDB69B3
:102200001846FEF7A9F902460B460D4801F0FCF905
:10221000094B1B6A1846FEF79FF902460B46094810
:1022200001F0F2F91037BD4680BD00BF70030020F9
:10223000141A01080000834294030020641A010864
:102240007C1A0108941A010880B588B004AF786040
:1022500064230293072301935B4B00930123032222
:102260001821786805F0FCFC0346002B03D0574882
:1022700001F0CAF9A4E0544B5B781BB21B021AB2FE
:10228000514B1B781BB21343FB814F4BDB781BB2C6
:102290001B021AB24C4B9B781BB21343BB814A4BB7
:1022A0005B791BB21B021AB2474B1B791BB213435B
:1022B0007B81474B474ADA63454B474A1A64444B94
:1022C000464A5A64424B464A9A64414B454ADA644C
:1022D0003F4B454A1A65B7F90E3007EE903AB8EE13
:1022E000E77A424BD3ED007A67EE277A9FED407A8A
:1022F00027EE877A364BD3ED0F7A37EE677A344B79
:10230000D3ED127A67EE277A314BC3ED0C7AB7F929
:102310000C3007EE903AB8EEE77A344BD3ED017A01
:1023200067EE277A9FED327A27EE877A284BD3ED36
:10233000107A37EE677A264BD3ED137A67EE277A59
:10234000234BC3ED0D7AB7F90A3007EE903AB8EE99
:10235000E77A264BD3ED027A67EE277A9FED247A4F
:1023600027EE877A1A4BD3ED117A37EE677A184B3E
:10237000D3ED147A67EE277A154BC3ED0E7A144B22
:102380001B6B1846FEF7E8F802460B46194801F0A9
:102390003BF90F4B5B6B1846FEF7DEF802460B4627
:1023A000154801F031F90A4B9B6B1846FEF7D4F83B
:1023B00002460B46114801F027F9114801F024F9B3
:1023C0001037BD4680BD00BF78030020141A0108F5
:1023D000940300204A8C0542D9CE034277BE0FC237
:1023E0001748883F1C7C713F20D27F3F8403002028
:1023F0009A99193EAC1A0108C01A0108D41A0108AA
:10240000E81A01082DE9F04FD7B00AAFF8676B461C
:102410001E464FF000024FF00003C7E94A234FF079
:1024200000024FF00003C7E948234FF000024FF0CD
:102430000003C7E946234FF000024FF00003C7E94D
:1024400044234FF000024FF00003C7E942234FF04E
:1024500000024FF00003C7E940234FF47A73C7F836
:10246000CC30D7F8CC100B46013BC7F8C83000235E
:102470000C461D464FF000024FF000032B0143EACB
:10248000147322010023884699464FF000024FF052
:1024900000034FEA091343EA18734FEA08124B008E
:1024A0000733DB08DB00ADEB030D0AAB01335B0840
:1024B0005B00C7F8C430D7F8CC100B46013BC7F817
:1024C000C03000238A469B464FF000024FF00003C5
:1024D0004FEA0B1343EA1A734FEA0A1200233967D3
:1024E0007B674FF000024FF00003D7E91C452846F8
:1024F0000301204643EA1073204602014B000733D4
:10250000DB08DB00ADEB030D0AAB01335B085B00BE
:10251000C7F8BC30D7F8CC100B46013BC7F8B83031
:102520000023B966FB664FF000024FF00003D7E9C5
:102530001A4528460301204643EA1073204602014B
:10254000002339667B664FF000024FF00003D7E9A5
:10255000184528460301204643EA1073204602012D
:102560004B000733DB08DB00ADEB030D0AAB013397
:102570005B085B00C7F8B430C64801F045F84FF47B
:102580007A7004F06BFA0023C7F8FC30F3E06423A0
:10259000029306230193C04B009301234322D021D1
:1025A000F86F05F05DFB0346002B40F05F84BA4BEB
:1025B0001B781BB21B021AB2B74B5B781BB21343DA
:1025C000A7F88A30B44B9B781BB21B021AB2B24BED
:1025D000DB781BB21343A7F88830AF4B1B791BB2D3
:1025E0001B021AB2AC4B5B791BB21343A7F88630BF
:1025F000D7F8C410D7F8FC20B7F88A3021F8123089
:10260000D7F8BC10D7F8FC20B7F8883021F8123082
:10261000D7F8B410D7F8FC20B7F8863021F812307C
:10262000B7F98A30DA17BB65FA65D7E94A23D7E9E3
:10263000164521465118B96229464B41FB62D7E93C
:102640000A34C7E94A34B7F98830DA173B657A6546
:10265000D7E94823D7E9144521465118396229465C
:102660004B417B62D7E90834C7E94834B7F9863073
:10267000DA17BB64FA64D7E94623D7E91245214645
:102680005118B96129464B41FB61D7E90634C7E9C6
:1026900046346423029306230193804B0093012365
:1026A0003B22D021F86F05F0DBFA0346002B40F007
:1026B000DF837A4B1B781BB21B021AB2774B5B7815
:1026C0001BB21343A7F88430744B9B781BB21B02D8
:1026D0001AB2724BDB781BB21343A7F882306F4BF0
:1026E0001B791BB21B021AB26C4B5B791BB21343F2
:1026F000A7F88030B7F98430DA173B647A64D7E9F9
:102700004423D7E9104521465118396129464B41E8
:102710007B61D7E90434C7E94434B7F98230DA176A
:10272000BB63FA63D7E94223D7E90E452146511826
:10273000B96029464B41FB60D7E90234C7E942340E
:10274000B7F98030DA173B637A63D7E94023D7E9DA
:102750000C4521465118396029464B417B60D7E929
:102760000034C7E94034052004F078F9D7F8FC308C
:102770000133C7F8FC30D7F8FC20D7F8CC309A42A8
:10278000FFF405AFD7E94A01FEF756FB06EE900AC3
:10279000D7F8CC3007EE903AB8EE677AC6EE877A73
:1027A0003F4BC3ED097AD7E94801FEF745FB06EE3A
:1027B000900AD7F8CC3007EE903AB8EE677AC6EEBA
:1027C000877A374BC3ED0A7AD7E94601FEF734FB27
:1027D00006EE900AD7F8CC3007EE903AB8EE677A5A
:1027E000C6EE877A2E4BC3ED0B7AD7E94401FEF78C
:1027F00023FB06EE900AD7F8CC3007EE903AB8EEFD
:10280000677AC6EE877A264BC3ED037AD7E9420191
:10281000FEF712FB06EE900AD7F8CC3007EE903A9E
:10282000B8EE677AC6EE877A1D4BC3ED047AD7E916
:102830004001FEF701FB06EE900AD7F8CC3007EE18
:10284000903AB8EE677AC6EE877A154BC3ED057AF3
:102850004FF000024FF00003C7E94A234FF0000297
:102860004FF00003C7E948234FF000024FF0000388
:10287000C7E946234FF00003C7F8F8304FF00003D4
:10288000C7F8F4304FF00003C7F8F0300023C7F862
:10289000EC307EE0EC1A0108700300206803002091
:1028A00094030020D7F8C430D7F8EC2033F9123065
:1028B00007EE903AB8EEE77AB34BD3ED097A37EEEC
:1028C000677AD7F8C430D7F8EC2033F9123007EE26
:1028D000903AF8EEE76AAC4BD3ED097A76EEE77AF8
:1028E00067EE277A97ED3E7A77EE277AC7ED3E7A44
:1028F000D7F8BC30D7F8EC2033F9123007EE903A15
:10290000B8EEE77AA04BD3ED0A7A37EE677AD7F8BC
:10291000BC30D7F8EC2033F9123007EE903AF8EEDD
:10292000E76A994BD3ED0A7A76EEE77A67EE277A73
:1029300097ED3D7A77EE277AC7ED3D7AD7F8B43038
:10294000D7F8EC2033F9123007EE903AB8EEE77A78
:102950008D4BD3ED0B7A37EE677AD7F8B430D7F8D2
:10296000EC2033F9123007EE903AF8EEE76A864B26
:10297000D3ED0B7A76EEE77A67EE277A97ED3C7A1D
:1029800077EE277AC7ED3C7AD7F8EC300133C7F8F9
:10299000EC30D7F8EC20D7F8CC309A4282D3D7F875
:1029A000CC30013B07EE903AB8EE677AD7ED3E6A3D
:1029B000C6EE877AC7ED3E7AD7F8CC30013B07EEFA
:1029C000903AB8EE677AD7ED3D6AC6EE877AC7EDE2
:1029D0003D7AD7F8CC30013B07EE903AB8EE677AF3
:1029E000D7ED3C6AC6EE877AC7ED3C7A97ED3E0A92
:1029F0000DF0B4FBF0EE407A634BC3ED157A97ED22
:102A00003D0A0DF0ABFBF0EE407A5F4BC3ED167A5A
:102A100097ED3C0A0DF0A2FBF0EE407A5A4BC3ED65
:102A2000177A5A4800F0F0FD574BD3ED037A9FED2B
:102A3000587AC7EE876A16EE900AFDF78DFDC7E952
:102A40001C01514BD3ED047A9FED517AC7EE876A92
:102A500016EE900AFDF780FD04460D464A4BD3ED75
:102A6000057A9FED4B7AC7EE876A16EE900AFDF75E
:102A700073FD80468946444BD3ED097A9FED457A34
:102A8000C7EE876A16EE900AFDF766FD82468B4612
:102A90003D4BD3ED0A7A9FED3F7AC7EE876A16EE7B
:102AA000900AFDF759FDC7E91A01374BD3ED0B7AB0
:102AB0009FED387AC7EE876A16EE900AFDF74CFD57
:102AC00002460B46CDE9082397ED1A7B8DED067B78
:102AD000CDE904ABCDE90289CDE90045D7E91C2356
:102AE0002D4800F091FD284BD3ED157A9FED297A02
:102AF000C7EE876A16EE900AFDF72EFD80468946DE
:102B0000214BD3ED167A9FED237AC7EE876A16EE36
:102B1000900AFDF721FD04460D461B4BD3ED177AB5
:102B20009FED1C7AC7EE876A16EE900AFDF714FD3A
:102B300002460B46CDE90223CDE9004542464B460D
:102B4000164800F061FD164800F05EFD4FF4FA6093
:102B500003F084FF134BC7F8E830124BC7F8E4309A
:102B6000104BC7F8E030104BC7F8DC300E4BC7F8FD
:102B7000D8300D4BC7F8D4304FF47A73C7F8B03063
:102B80000023C7F8D030BFE094030020241B0108C5
:102B90000000804500008342481B01089C1B01087F
:102BA000CC1B0108286B6E4E286B6ECE64230293FB
:102BB00007230193B34B0093012303221821F86FDD
:102BC00005F04EF80346002B40F05481AD4B5B7886
:102BD0001BB21B021AB2AB4B1B781BB21343A7F8F4
:102BE0009E30A84BDB781BB21B021AB2A54B9B7818
:102BF0001BB21343A7F89C30A24B5B791BB21B029C
:102C00001AB2A04B1B791BB21343A7F89A30B7F93D
:102C10009E3007EE903AB8EEE77A9B4BD3ED007A00
:102C200067EE277AC7ED257AB7F99C3007EE903A20
:102C3000B8EEE77A944BD3ED017A67EE277AC7EDC9
:102C4000247AB7F99A3007EE903AB8EEE77A8E4BCD
:102C5000D3ED027A67EE277AC7ED237A97ED257ACE
:102C6000D7ED3A7AB4EEE77AF1EE10FA03D5D7F859
:102C70009430C7F8E83097ED257AD7ED377AB4EE7F
:102C8000E77AF1EE10FA03DDD7F89430C7F8DC30BC
:102C900097ED247AD7ED397AB4EEE77AF1EE10FAAF
:102CA00003D5D7F89030C7F8E43097ED247AD7ED04
:102CB000367AB4EEE77AF1EE10FA03DDD7F8903009
:102CC000C7F8D83097ED237AD7ED387AB4EEE77AA3
:102CD000F1EE10FA03D5D7F88C30C7F8E03097ED55
:102CE000237AD7ED357AB4EEE77AF1EE10FA03DD08
:102CF000D7F88C30C7F8D4300A2003F0AFFED7F8ED
:102D0000D0300133C7F8D030D7F8D020D7F8B03062
:102D10009A42FFF44BAF97ED377AD7ED3A7A37EE18
:102D2000277AF0EE006AC7EE267A9FED587A67EEB2
:102D3000877A574BC3ED0F7A97ED367AD7ED397A0C
:102D400037EE277AF0EE006AC7EE267A9FED4F7ACB
:102D500067EE877A4E4BC3ED107A97ED357AD7ED53
:102D6000387A37EE277AF0EE006AC7EE267A9FEDC2
:102D7000477A67EE877A464BC3ED117A97ED377A3B
:102D8000D7ED3A7A37EE677AF0EE006AC7EE267A28
:102D9000C7ED2B7A97ED367AD7ED397A37EE677A29
:102DA000F0EE006AC7EE267AC7ED2A7A97ED357AFB
:102DB000D7ED387A37EE677AF0EE006AC7EE267AFA
:102DC000C7ED297A97ED2B7AD7ED2A7A37EE277A55
:102DD000D7ED297A37EE277AF0EE086AC7EE267A21
:102DE000C7ED287AD7ED286A97ED2B7AC6EE877A59
:102DF000274BC3ED127AD7ED286A97ED2A7AC6EEF3
:102E0000877A234BC3ED137AD7ED286A97ED297A99
:102E1000C6EE877A1E4BC3ED147A1E4800F0F4FB11
:102E20001D4800F0F1FB1A4BDB6B1846FDF794FBD5
:102E300080468946164B1B6C1846FDF78DFB0446F1
:102E40000D46134B5B6C1846FDF786FB02460B469E
:102E5000CDE90223CDE9004542464B460F4800F03C
:102E6000D3FB0F4800F0D0FBB54605E000BF02E001
:102E700000BF00E000BFB54607F59A77BD46BDE844
:102E8000F08F00BF78030020840300209A99193E38
:102E900094030020081C01082C1C0108381C0108A0
:102EA000641C01080000000080B500AF03F094FD31
:102EB00000F08EF800F0C8FA00F090FA00F03AFA4C
:102EC00000F04AF900F060FA00F07CF900F0E8F850
:102ED00000F014F900F0ACF900F0E0F901F00AFCA0
:102EE000642003F0BBFDFEF7D5FD642003F0B6FDC2
:102EF0009FED2B1B9FED2C0B2D48FEF7B5FA6420A0
:102F000003F0ACFD2B492C4801F062FC642003F077
:102F1000A5FD01F0FFFB1421002001F005FC4FF49A
:102F20007A71012001F000FC244B1B78012B28D181
:102F30001421002001F0F8FB1E48FEF7EDFD2049AA
:102F40001D4803F0E5FC1C4B9B681846FDF704FB8D
:102F500002460B461B49C1E90023174B5B68184624
:102F6000FDF7FAFA02460B461749C1E90023124B56
:102F70001B681846FDF7F0FA02460B461349C1E9F3
:102F800000230E4B5B78012BCED14FF47A710120D8
:102F900001F0CAFB01F0B7FBC6E700BFAFF300804A
:102FA00028E1F3845A776B3F00000040A654584153
:102FB0009807002000040020340A00201C0A00208A
:102FC000940300206007002068070020700700209D
:102FD00080B594B000AF07F12003302200211846DD
:102FE0000AF00AFA07F10C0300221A605A609A608C
:102FF000DA601A610023BB60274B1B6C264A43F042
:1030000080531364244B1B6C03F08053BB60BB687C
:1030100000237B60214B1B68204A43F4404313602C
:103020001E4B1B6803F440437B607B6801233B62BB
:103030004FF480337B620223BB634FF48003FB6356
:103040000C233B6460237B640223BB640423FB6486
:1030500007F12003184605F0D5FB0346002B01D0ED
:1030600000F0CCFA0F23FB6002233B6100237B615D
:103070004FF48053BB610023FB6107F10C03032174
:10308000184605F037FE0346002B01D000F0B6FAD3
:1030900000BF5037BD4680BD003802400070004080
:1030A00080B500AF124B134A1A60114B124A5A6096
:1030B0000F4B00229A600E4B0022DA600C4B4FF44B
:1030C00080421A610A4B00225A61094B00229A6120
:1030D000074B0022DA61064B00221A62044804F012
:1030E0007DFB0346002B01D000F088FA00BF80BDB5
:1030F0000004002000580040A086010080B500AF09
:10310000124B134A1A60114B124A5A600F4B00229D
:103110009A600E4B0022DA600C4B4FF480421A6129
:103120000A4B00225A61094B00229A61074B002288
:10313000DA61064B00221A62044804F04FFB034692
:10314000002B01D000F05AFA00BF80BD54040020CB
:10315000005C0040A086010080B500AF174B184A04
:103160001A60164B4FF482725A60144B00229A6018
:10317000124B0022DA60114B00221A610F4B002221
:103180005A610E4B4FF400729A610C4B0022DA61C7
:103190000A4B00221A62094B00225A62074B002296
:1031A0009A62064B0A22DA62044805F0B5FF03462C
:1031B000002B01D000F022FA00BF80BDA80400203F
:1031C0000030014080B500AF174B184A1A60164B0B
:1031D0004FF482725A60144B00229A60124B002204
:1031E000DA60114B00221A610F4B00225A610E4B1C
:1031F00000229A610C4B0022DA610B4B00221A620A
:10320000094B00225A62084B00229A62064B0A229E
:10321000DA62054805F080FF0346002B01D000F07C
:10322000EDF900BF80BD00BF000500200038004060
:1032300080B500AF174B184A1A60164B4FF48272D4
:103240005A60144B00229A60124B0022DA60114B34
:1032500000221A610F4B00225A610E4B00229A6124
:103260000C4B0022DA610B4B00221A62094B002240
:103270005A62084B00229A62064B0A22DA6205481B
:1032800005F04AFF0346002B01D000F0B7F900BF5C
:1032900080BD00BF58050020003C004080B586B0CE
:1032A00000AF07F1080300221A605A609A60DA60E2
:1032B0003B4600221A605A601D4B4FF080421A6054
:1032C0001B4B42F20F725A60194B00229A60184B46
:1032D0006322DA60164B00221A61154B00229A61B4
:1032E000134806F0E1FA0346002B01D000F086F9FE
:1032F0004FF48053BB6007F1080319460C4806F0F1
:1033000075FC0346002B01D000F078F900233B60E8
:1033100000237B603B461946054806F077FE0346CE
:10332000002B01D000F06AF900BF1837BD4680BD00
:10333000B005002080B500AF114B124A1A60104B47
:103340004FF4E1325A600E4B00229A600C4B00227F
:10335000DA600B4B00221A61094B0C225A61084BB0
:1033600000229A61064B0022DA61054806F0D0FE81
:103370000346002B01D000F041F900BF80BD00BF23
:10338000F80500200010014080B500AF114B124A33
:103390001A60104B4FF4E1325A600E4B00229A60D3
:1033A0000C4B0022DA600B4B00221A61094B0C22F5
:1033B0005A61084B00229A61064B0022DA610548E7
:1033C00006F0A6FE0346002B01D000F017F900BF5F
:1033D00080BD00BF400600200044004080B582B0A0
:1033E00000AF00237B60174B1B6B164A43F400139E
:1033F0001363144B1B6B03F400137B607B68002387
:103400003B60104B1B6B0F4A43F4800313630D4B5F
:103410001B6B03F480033B603B68002200211020FB
:1034200003F0F8FB102003F011FC002200214620DD
:1034300003F0F0FB462003F009FC00BF0837BD464F
:1034400080BD00BF0038024080B58AB000AF07F1F0
:10345000140300221A605A609A60DA601A6100232D
:103460003B61404B1B6B3F4A43F0040313633D4BEE
:103470001B6B03F004033B613B690023FB60394B8A
:103480001B6B384A43F080031363364B1B6B03F00E
:103490008003FB60FB680023BB60324B1B6B314A2F
:1034A00043F0010313632F4B1B6B03F00103BB605D
:1034B000BB6800237B602B4B1B6B2A4A43F0020343
:1034C0001363284B1B6B03F002037B607B680022B5
:1034D0004FF40051244804F04DF9002210212348F4
:1034E00004F048F900220321214804F043F94FF485
:1034F00000537B610123BB610023FB6100233B621E
:1035000007F114031946184803F0B0FF01237B614B
:103510000023BB610023FB6107F114031946134824
:1035200003F0A4FF10237B610123BB610023FB6137
:1035300000233B6207F1140319460C4803F096FF81
:1035400003237B610123BB610023FB6100233B62FA
:1035500007F114031946064803F088FF00BF283717
:10356000BD4680BD00380240000802400000024015
:103570000004024080B582B000AF78600B467B80CB
:103580007B681B680D4A934214D14FF400510C48DC
:1035900004F009F94FF480720A490B4806F093FED3
:1035A0007B68DB6B1B681A687B68DB6B1B6822F02F
:1035B00008021A6000BF0837BD4680BD00440040C5
:1035C00000080240680200204006002080B582B05A
:1035D00000AF78607B681B68B3F1804F01D101F0C8
:1035E000C5F87B681B68044A934201D103F016FAC0
:1035F00000BF0837BD4680BD0008004080B400AF62
:1036000072B600BF00BFFDE70FB480B582B000AF57
:1036100007F114033B603B683A698021104809F0C8
:10362000DDFE78607B68802B05DD80237B6002E017
:10363000012003F013FA0B4B93F84130DBB2202B3F
:10364000F6D17B689AB264230549064806F0B0FDBE
:1036500000BF0837BD46BDE8804004B0704700BFDA
:1036600030090020F805002080B500AF00221021AD
:10367000024804F07FF800BF80BD00BF0000024098
:1036800080B500AF01221021024804F073F800BF9A
:1036900080BD00BF0000024080B500AF00220121C4
:1036A000064804F067F8052003F0D8F9012201214B
:1036B000024804F05FF800BF80BD00BF0004024074
:1036C00080B582B000AF0346FB710022022107489B
:1036D00004F050F8F91D4FF0FF330122044805F0C3
:1036E000A4FD00BF0837BD4680BD00BF00040240F6
:1036F000A804002080B582B000AF78603960012254
:103700000221074804F036F83B689AB24FF0FF33C5
:103710007968044805F089FD00BF0837BD4680BDC3
:1037200000040240A804002080B584B000AF786097
:103730007B685A1C7A601B78FB7334E07B685A1CE8
:103740007A601B78FB72FB7A1846FFF7B9FF7B683B
:103750005A1C7A601B78BB72BB7A9BB203F0800361
:10376000BB81BB7A03F07F03BB72BB7A002B08D00E
:10377000BB7A19467868FFF7BDFFBB7A7A681344B5
:103780007B60BB89002B0ED07B685A1C7A601B784B
:10379000BB81BB89FF2B02D14FF4FA73BB81BB897C
:1037A000184603F05BF9FB7B5A1EFA73002BC5D158
:1037B00000BF00BF1037BD4680BD90B585B000AFDB
:1037C0000446084611461A462346FB710346BB7160
:1037D0000B467B7113463B712A20FFF771FF0023D4
:1037E0003B73FB790133DBB27B730023BB737B79C3
:1037F0000133DBB2FB7307F10C0304211846FFF71A
:1038000079FF2B20FFF75CFFBB790233DBB27B73C0
:103810003B790233DBB2FB7307F10C03042118463A
:10382000FFF768FF2C20FFF74BFF00BF1437BD46A2
:1038300090BD000080B500AFFFF716FFFFF72CFF2B
:103840000648FFF771FF0648FFF76EFF0548FFF7D0
:103850006BFFFFF715FF00BF80BD00BF782901088F
:10386000B4290108C429010882B090B589B000AF1D
:103870007B630346FB800B46BB801346FB70FB88D3
:10388000D8B2BB88D9B2FB88DAB297F83430134487
:10389000DBB2013BDCB2BB88DAB297F835301344B7
:1038A000DBB2013BDBB22246FFF787FF0023FB615F
:1038B00043E0BA6BFB78203B97F8351001FB03F32C
:1038C0001946FB690B445B0013441B887B61002392
:1038D000BB6129E07A69BB6902FA03F303F4004390
:1038E000002B0ED0BB8F1B0A9BB2DBB23B74BB8F8D
:1038F000DBB27B7407F1100302211846FFF7FAFED2
:103900000FE0B7F840301B0A9BB2DBB23B73B7F84D
:103910004030DBB27B7307F10C0302211846FFF73E
:10392000E9FEBB690133BB6197F834301A46BB69C5
:103930009342CFD3FB690133FB6197F835301A46C8
:10394000FB699342B5D300BF00BF2437BD46BDE835
:10395000904002B0704782B080B586B004AF3A6044
:103960007B610346FB800B46BB80FFF77DFE2DE0AD
:10397000FB883A7D13449F2B13DD0023FB807B7D66
:103980001A46BB881344BB80BB887A7D13447F2BC7
:1039900021DC3B681B78202B03D13B6801333B6063
:1039A00014E03B681A78B988F8883B8C0293BB8B8B
:1039B0000193BB6900937B69FFF756FF3B7D1A4675
:1039C000FB881344FB803B6801333B603B681B78FA
:1039D000002BCDD100E000BFFFF752FE00BF08373B
:1039E000BD46BDE8804002B07047000090B585B08C
:1039F00000AF0446084611461A462346FB8003469C
:103A0000BB800B467B8013463B80FB889F2B57D89F
:103A1000BB887F2B54D8FA887B881344A02B03DD06
:103A2000FB88C3F1A0037B80BA883B881344802BBA
:103A300003DDBB88C3F180033B80FFF715FEFB88E5
:103A4000D8B2BB88D9B2FB88DAB27B88DBB2134428
:103A5000DBB2013BDCB2BB88DAB23B88DBB2134499
:103A6000DBB2013BDBB22246FFF7A7FE3B8C1B0A11
:103A70009BB2DBB23B733B8CDBB27B730122022136
:103A8000114803F077FE3B88BB8013E07B88FB8006
:103A90000AE007F10C014FF0FF3302220B4805F05A
:103AA000C4FBFB88013BFB80FB88002BF1D1BB886A
:103AB000013BBB80BB88002BE8D1FFF7E1FD00E0B4
:103AC00000BF1437BD4690BD00040240A80400208A
:103AD00080B584B002AF0346FB80FB88009380234F
:103AE000A02200210020FFF781FF00BF0837BD465C
:103AF00080BD000080B483B000AF00237B60104B1A
:103B00005B6C0F4A43F4804353640D4B5B6C03F4CE
:103B100080437B607B6800233B60094B1B6C084A39
:103B200043F080531364064B1B6C03F080533B60DF
:103B30003B6800BF0C37BD465DF8047B704700BF93
:103B40000038024080B58CB000AF786007F11C03EC
:103B500000221A605A609A60DA601A617B681B68FA
:103B60004B4A93423ED10023BB614A4B1B6B494AEF
:103B700043F002031363474B1B6B03F00203BB616B
:103B8000BB694FF48063FB6112233B6200237B62BD
:103B90000323BB620423FB6207F11C0319463E4862
:103BA00003F064FC4FF40073FB6112233B620023BB
:103BB0007B620323BB620923FB6207F11C031946E6
:103BC000354803F053FC00237B61324B1B6C314AB8
:103BD00043F4800313642F4B1B6C03F480037B615D
:103BE0007B6950E07B681B682C4A93424BD10023D1
:103BF0003B61284B1B6B274A43F001031363254BA2
:103C00001B6B03F001033B613B690023FB60214B0D
:103C10001B6B204A43F0020313631E4B1B6B03F024
:103C20000203FB60FB684FF48073FB6112233B626D
:103C300000237B620323BB620423FB6207F11C03A6
:103C40001946174803F012FC4FF48073FB611223EE
:103C50003B6200237B620323BB620923FB6207F103
:103C60001C0319460C4803F001FC0023BB60094B00
:103C70001B6C084A43F400031364064B1B6C03F4EB
:103C80000003BB60BB6800BF3037BD4680BD00BFCE
:103C9000005800400038024000040240005C004030
:103CA0000000024080B58EB000AF786007F12403B9
:103CB00000221A605A609A60DA601A617B681B6899
:103CC0005F4A934234D100233B625E4B5B6C5D4A9A
:103CD00043F4805353645B4B5B6C03F480533B624F
:103CE0003B6A0023FB61574B1B6B564A43F00103B1
:103CF0001363544B1B6B03F00103FB61FB69A023AF
:103D00007B620223BB620023FB6203233B63052328
:103D10007B6307F1240319464B4803F0A7FB0022FD
:103D20000021232002F076FF232002F08FFF82E0A3
:103D30007B681B68454A93422DD10023BB61414BF0
:103D40001B6C404A43F4804313643E4B1B6C03F4EA
:103D50008043BB61BB6900237B613A4B1B6B394AD3
:103D600043F002031363374B1B6B03F002037B61C9
:103D70007B694FF470437B620223BB620023FB62CA
:103D800003233B6305237B6307F124031946304873
:103D900003F06CFB4FE07B681B682E4A93424AD1CC
:103DA00000233B61274B1B6C264A43F400431364FA
:103DB000244B1B6C03F400433B613B690023FB6015
:103DC000204B1B6B1F4A43F0010313631D4B1B6BFE
:103DD00003F00103FB60FB680023BB60194B1B6B06
:103DE000184A43F002031363164B1B6B03F00203E4
:103DF000BB60BB684FF400437B620223BB620023BD
:103E0000FB6203233B6306237B6307F1240319460C
:103E10000D4803F02BFB38237B620223BB62002397
:103E2000FB6203233B6306237B6307F124031946EC
:103E3000074803F01BFB00BF3837BD4680BD00BFFD
:103E400000300140003802400000024000380040CD
:103E500000040240003C004080B584B000AF7860B0
:103E60007B681B68B3F1804F15D10023FB600C4BBE
:103E70001B6C0B4A43F001031364094B1B6C03F0EA
:103E80000103FB60FB68002200211C2002F0C2FE3F
:103E90001C2002F0DBFE00BF1037BD4680BD00BF16
:103EA0000038024080B58CB000AF786007F11C0389
:103EB00000221A605A609A60DA601A617B681B6897
:103EC000684A934262D10023BB61674B5B6C664AD0
:103ED00043F010035364644B5B6C03F01003BB614D
:103EE000BB6900237B61604B1B6B5F4A43F002039D
:103EF00013635D4B1B6B03F002037B617B69C02383
:103F0000FB6102233B6200237B620323BB62072326
:103F1000FB6207F11C031946544803F0A7FA544BFF
:103F2000544A1A60524B4FF000625A60504B402284
:103F30009A604F4B0022DA604D4B4FF480621A6159
:103F40004B4B00225A614A4B00229A61484B002297
:103F5000DA61474B00221A62454B00225A624448FC
:103F600002F082FE0346002B01D0FFF747FB7B687F
:103F70003F4A9A633E4A7B689363002200212520D2
:103F800002F048FE252002F061FE66E07B681B68B7
:103F9000394A934261D100233B61334B1B6C324A57
:103FA00043F400331364304B1B6C03F400333B6168
:103FB0003B690023FB602C4B1B6B2B4A43F0010336
:103FC0001363294B1B6B03F00103FB60FB680C239D
:103FD000FB6102233B6200237B620323BB62072356
:103FE000FB6207F11C031946244803F03FFA244BF7
:103FF000244A1A60224B4FF000625A60204B002284
:104000009A601F4B0022DA601D4B4FF480621A61E8
:104010001B4B00225A611A4B00229A61184B002256
:10402000DA61174B00221A62154B00225A621448BB
:1040300002F01AFE0346002B01D0FFF7DFFA7B687F
:104040000F4ADA630E4A7B68936300220021262020
:1040500002F0E0FD262002F0F9FD00BF3037BD463A
:1040600080BD00BF00100140003802400004024043
:1040700088060020B864024000440040000002406E
:10408000E80600208860024080B58EB000AF7860FE
:104090000023FB620023BB620023FB60334B1B6CDD
:1040A000324A43F004031364304B1B6C03F00403E7
:1040B000FB60FB6807F1100207F114031146184674
:1040C00004F0F8FF3B6AFB62FB6A002B03D104F0AB
:1040D000C9FF786304E004F0C5FF03465B007B631F
:1040E0007B6B234AA2FB03239B0C013BBB62214B4E
:1040F000214A1A601F4B40F2E732DA601D4ABB6A60
:1041000053601C4B00221A611A4B00229A60194B13
:1041100000229A61174805F0C7FB034687F8333041
:1041200097F83330002B1BD1124805F00DFC0346E5
:1041300087F8333097F83330002B11D11E2002F06E
:1041400085FD7B680F2B08D8002279681E2002F0BD
:1041500061FD0A4A7B68136002E0012387F833306F
:1041600097F8333018463837BD4680BD00380240D6
:1041700083DE1B43B0090020000800400C00002033
:1041800080B400AF00BFFDE780B400AF00BFFDE723
:1041900080B400AF00BFFDE780B400AF00BFFDE713
:1041A00080B400AF00BFFDE780B400AF00BFBD46E4
:1041B0005DF8047B704780B400AF00BFBD465DF87A
:1041C000047B704780B400AF00BFBD465DF8047B40
:1041D000704780B400AF00BFBD465DF8047B7047F8
:1041E00080B500AF024802F0D7FE00BF80BD00BF1F
:1041F000E806002080B500AF024805F007FC00BFCC
:1042000080BD00BFB005002080B500AF024805F0BA
:10421000FDFB00BF80BD00BFB009002080B500AF2E
:10422000024805F047F900BF80BD00BFA804002088
:1042300080B500AF024806F09FF800BF80BD00BF08
:10424000F805002080B500AF024806F095F800BFE1
:1042500080BD00BF4006002080B500AF024802F0DC
:104260009BFE00BF80BD00BF8806002080B483B0E5
:1042700000AF0346FB710F4B1B680E4A43F080737F
:1042800013600D4B1B680C4A43F00103136000BF21
:104290004FF060431B6803F00103002BF8D04FF090
:1042A0006042FB79136000BF0C37BD465DF8047BAC
:1042B000704700BFFCED00E0000E00E080B400AFEE
:1042C00001231846BD465DF8047B704780B582B077
:1042D00000AF7860396009F003F9034616221A60CE
:1042E0004FF0FF3318460837BD4680BD80B582B019
:1042F00000AF78604FF0FF317868FFF7E7FF00BF4D
:10430000FDE780B586B000AFF860B9607A60002341
:104310007B610AE0AFF300800146BB685A1CBA60BB
:10432000CAB21A707B6901337B617A697B689A42F1
:10433000F0DB7B6818461837BD4680BD80B586B077
:1043400000AFF860B9607A6000237B6109E0BB6868
:104350005A1CBA601B781846FFF788FF7B69013347
:104360007B617A697B689A42F1DB7B681846183773
:10437000BD4680BD80B483B000AF78604FF0FF339E
:1043800018460C37BD465DF8047B704780B483B097
:1043900000AF786039603B684FF400525A600023E8
:1043A00018460C37BD465DF8047B704780B483B077
:1043B00000AF7860012318460C37BD465DF8047BDA
:1043C000704780B485B000AFF860B9607A600023B0
:1043D00018461437BD465DF8047B704780B586B03B
:1043E00000AF7860144A154BD31A7B617B693B613F
:1043F000134B1B68002B02D1114B124A1A60104B51
:104400001A687B6813443A699A4207D209F068F83F
:1044100003460C221A604FF0FF3309E0084B1B687B
:10442000FB60074B1A687B681344054A1360FB68FE
:1044300018461837BD4680BD000002200004000069
:10444000F80900202811002080B400AF064BD3F8F3
:104450008830054A43F47003C2F8883000BFBD4677
:104460005DF8047B704700BF00ED00E080B586B0CA
:1044700004AF0023FB80894BD3E90023CDE900235F
:10448000874A2021874808F0DFFEFB880A33FB803B
:10449000854BF9880022029240F2FF7201925A681D
:1044A00000921B687F4A0020FFF755FA7F4BD3E943
:1044B0000023CDE900237E4A20217A4808F0C4FE7B
:1044C000FB880A33FB80784BF9880022029240F285
:1044D000FF7201925A6800921B68724A0020FFF72F
:1044E0003AFA744BD3E90023CDE90023724A202124
:1044F0006C4808F0A9FEFB880A33FB806A4BF988F8
:104500000022029240F2FF7201925A6800921B68E8
:10451000644A0020FFF71FFA684BD3E90023CDE976
:104520000023674A20215F4808F08EFEFB880A338B
:10453000FB805D4BF988002202924FF61F02019228
:104540005A6800921B68574A0020FFF704FA5D4B37
:10455000D3E90023CDE900235B4A2021514808F02C
:1045600073FEFB880A33FB804F4BF98800220292CE
:104570004FF61F0201925A6800921B68494A0020B8
:10458000FFF7E9F9514BD3E90023CDE90023504A65
:104590002021444808F058FEFB880A33FB80424B38
:1045A000F988002202924FF61F0201925A68009287
:1045B0001B683C4A0020FFF7CEF9464BD3E90023A5
:1045C000CDE90023444A2021364808F03DFEFB880F
:1045D0000C33FB80344BF988002202924FF4FC62CA
:1045E00001925A6800921B682E4A0020FFF7B3F927
:1045F0003A4BD3E90023CDE90023394A2021294849
:1046000008F022FEFB880A33FB80274BF988002242
:1046100002924FF4FC6201925A6800921B68214A90
:104620000020FFF798F92F4BD3E90023CDE90023B1
:104630002D4A20211B4808F007FEFB880A33FB8027
:10464000194BF988002202924FF4FC6201925A68D9
:1046500000921B68134A0020FFF77DF9234BD3E932
:104660000023CDE90023224A20210E4808F0ECFD6A
:10467000FB880A33FB800C4BF988002202924FF42E
:10468000FC6201925A6800921B68064A0020FFF7FC
:1046900062F900BF0837BD4680BD00BF4807002053
:1046A000941C0108FC090020000000205007002095
:1046B000A41C010858070020B41C01086007002052
:1046C000C41C010868070020D41C010870070020E2
:1046D000E41C010878070020F41C01088007002072
:1046E000041D010888070020141D01089007002000
:1046F000241D010880B500AFFFF79CF80020FFF7EC
:10470000E7F900BF80BD80B500AFFFF7AFFE00BF87
:1047100080BD000080B500AF024805F015F900BF6C
:1047200080BD00BFB005002080B483B000AF7860CA
:1047300039600B4A7B68134400221A703B68094AAF
:1047400082FB03129210DB17D21A07497B6841F8EB
:10475000232000BF0C37BD465DF8047B704700BFC7
:104760001C0A002067666666200A002080B483B0B9
:1047700000AF00237B601CE0134A7B6852F82330B3
:10478000002B13DD104A7B6852F823305A1E0E4965
:104790007B6841F823200C4A7B6852F82330002BB9
:1047A00004DC0A4A7B68134401221A707B680133D7
:1047B0007B607B68032BDFDD00BF00BF0C37BD468D
:1047C0005DF8047B704700BF200A00201C0A00200F
:1047D000B0B58CB000AF786039603868FDF78AF901
:1047E0007B68074AC3F8B0227B68054AC3F8E42215
:1047F0007B6803F5B463034A1A600123FB6215E08A
:104800003BAAAA3E0AD7A33C7A68FB6AAC339B005A
:104810001344D54A1A607A68FB6AB8339B00134484
:104820000433D14A1A60FB6A0133FB62FB6A0C2B2A
:10483000EADDCE4B5B6A1846FBF78EFEC8A3D3E9D0
:104840000023FCF70BF802460B4614461D46C74BE7
:104850005B6A1846FBF780FEC1A3D3E90023FBF790
:10486000FDFF02460B4620462946FBF7CDFE0246D9
:104870000B4614461D467B6803F5B4631B68184657
:10488000FBF76AFE02460B4620462946FBF7BCFEB4
:1048900002460B4614461D467B6803F5B4631B684D
:1048A0001846FBF759FE02460B4620462946FBF701
:1048B000ABFE02460B4614461D46AC4BD3ED157AB3
:1048C000DFEDAB6A87EEA67AA84BD3ED156A9FEDB4
:1048D000A86AC6EE867A27EE277A7B6803F5B4636A
:1048E000D3ED007A27EE277A7B6803F5B463D3ED26
:1048F000007A67EE277A17EE900AFBF72DFE024644
:104900000B4620462946FBF7C9FC02460B461046DB
:104910001946FCF771F902467B68C3F8A820934B4F
:104920009B6A1846FBF718FE8DA3D3E90023FBF71B
:1049300095FF02460B4614461D468C4B9B6A184653
:10494000FBF70AFE86A3D3E90023FBF787FF0246A5
:104950000B4620462946FBF757FE02460B461446F7
:104960001D467B6803F5B4631B681846FBF7F4FD2E
:1049700002460B4620462946FBF746FE02460B46FA
:1049800014461D467B6803F5B4631B681846FBF7A5
:10499000E3FD02460B4620462946FBF735FE02465C
:1049A0000B4614461D46714BD3ED167ADFED706A47
:1049B00087EEA67A6D4BD3ED166A9FED6D6AC6EE53
:1049C000867A27EE277A7B6803F5B463D3ED007A05
:1049D00027EE277A7B6803F5B463D3ED007A67EEA0
:1049E000277A17EE900AFBF7B7FD02460B462046E2
:1049F0002946FBF753FC02460B4610461946FCF7C6
:104A0000FBF802467B68C3F8C420584BDB6A1846A3
:104A1000FBF7A2FD52A3D3E90023FBF71FFF0246D9
:104A20000B4614461D46514BDB6A1846FBF794FDB6
:104A30004BA3D3E90023FBF711FF02460B462046A8
:104A40002946FBF7E1FD02460B4614461D467B68EE
:104A500003F5B4631B681846FBF77EFD02460B4660
:104A600020462946FBF7D0FD02460B4614461D465C
:104A70007B6803F5B4631B681846FBF76DFD0246BF
:104A80000B4620462946FBF7BFFD02460B4614465F
:104A90001D46364BD3ED177ADFED356A87EEA67AE1
:104AA000324BD3ED176A9FED326AC6EE867A27EE57
:104AB000277A7B6803F5B463D3ED007A27EE277A73
:104AC0007B6803F5B463D3ED007A67EE277A17EEBF
:104AD000900AFBF741FD02460B4620462946FBF7AC
:104AE000DDFB02460B4610461946FCF785F80246E8
:104AF0007B68C3F8E0201D4B5B6A1846FBF72CFD72
:104B000017A3D3E90023FBF7A9FE02460B46144680
:104B10001D46164B5B6A1846FBF71EFD10A3D3E932
:104B20000023FBF79BFE02460B4620462946FBF777
:104B30006BFD02460B4614461D460C4BD3ED157A11
:104B4000DFED0B6A87EEA67A084BD3ED156A9FED71
:104B5000086AC6EE867A67EE277A0BE0AFF300802C
:104B60000000000000605040398E633D9403002037
:104B70000000834217EE900AFBF7EEFC02460B465C
:104B800020462946FBF78AFB02460B46104619468B
:104B9000FCF732F802467B68C3F8FC20B04B9B6AF6
:104BA0001846FBF7D9FCACA3D3E90023FBF756FE6C
:104BB00002460B4614461D46A94B9B6A1846FBF756
:104BC000CBFCA5A3D3E90023FBF748FE02460B4626
:104BD00020462946FBF718FD02460B4614461D46A3
:104BE0009F4BD3ED167ADFED9F6A87EEA67A9C4B3A
:104BF000D3ED166A9FED9B6AC6EE867A67EE277A3A
:104C000017EE900AFBF7A8FC02460B462046294601
:104C1000FBF744FB02460B4610461946FBF7ECFF38
:104C200002467B68C3F818218D4BDB6A1846FBF7F8
:104C300093FC89A3D3E90023FBF710FE02460B4641
:104C400014461D46864BDB6A1846FBF785FC82A39B
:104C5000D3E90023FBF702FE02460B462046294615
:104C6000FBF7D2FC02460B4614461D467C4BD3EDA7
:104C7000177ADFED7C6A87EEA67A794BD3ED176A57
:104C80009FED786AC6EE867A67EE277A17EE900A6D
:104C9000FBF762FC02460B4620462946FBF7FEFA6C
:104CA00002460B4610461946FBF7A6FF02467B68F4
:104CB000C3F834210023BB621DE000237B6214E0B3
:104CC000BA6A7B6A9A420DD07968BA6A13465B0069
:104CD00013445B007A6A13442A339B000B444FF061
:104CE00000021A607B6A01337B627B6A052BE7DD79
:104CF000BB6A0133BB62BB6A052BDEDD5A48FEF797
:104D000083FC00233B6222E00023FB6116E079680C
:104D10003A6A13465B0013445B00FA6913442A3372
:104D20009B000B441B681846FBF716FC02460B461B
:104D30004E48FEF769FCFB690133FB61FB69052BFB
:104D4000E5DD4B48FEF760FC3B6A01333B623B6AA2
:104D5000052BD9DD7B68474AC3F838217B68454A73
:104D6000C3F84C217B68444AC3F860217B68434AFE
:104D7000C3F874210023BB611AE000237B6111E0BA
:104D8000BA697B699A420AD07A68BB6999007B69E3
:104D90000B444E339B0013444FF000021A607B69B2
:104DA00001337B617B69032BEADDBB690133BB61A6
:104DB000BB69032BE1DD7B68314A1A607B68314AAD
:104DC0005A607B68304A9A607B68304ADA607B6858
:104DD0002C4A1A617B682E4A5A617B682D4A9A6177
:104DE0007B682C4A5A637B682B4A1A657B682B4A7E
:104DF000DA667B68294AC3F888207B68274AC3F8AB
:104E0000A42000233B611DE00023FB6014E03A690D
:104E1000FB689A420DD079683A6913465B001344E7
:104E20005B00FA68134406339B000B444FF000020A
:104E30001A60FB680133FB60FB68052BE7DD3B690B
:104E400001333B613B69052BDEDD00BF00BF30371E
:104E5000BD46B0BDAFF300800000000000605040D0
:104E60009403002000008342341D01083C1D01080A
:104E7000441D01080AD7233CCDCC4C3D0000104115
:104E80003333933F85EB11BF3D0A374085EB113F2C
:104E9000E17A943E295C37411F8589410AD7A33CBA
:104EA00090B589B000AF786039600023FB619BE06A
:104EB0000023BB6179E0FA6913465B001344DB0011
:104EC0001A467B681A44BB699B0013441B687B61CC
:104ED00000233B6124E0FA6913465B001344DB00C6
:104EE0001A463B681A443B699B00134493ED007AD1
:104EF000BA6913465B001344DB001A463B681A4448
:104F00003B699B001344D3ED007A67EE277A97ED57
:104F1000057A77EE677AC7ED057A3B6901333B6125
:104F20003A69BB699A42D6DBFA69BB699A421BD1DE
:104F3000DFED320A97ED050A0BF030FAF0EE407A19
:104F4000FA6913465B001344DB001A463B689C1861
:104F5000B0EE670A0BF002F9F0EE407ABB699B00F5
:104F60002344C3ED007A1DE0BA6913465B00134485
:104F7000DB001A463B681A44BB699B00134493ED5F
:104F8000007AFA6913465B001344DB001A463B685B
:104F90001A44D7ED056AC6EE877ABB699B001344B5
:104FA000C3ED007ABB690133BB61BA69FB699A4200
:104FB00081DDFB690133FB6010E0FA6913465B0099
:104FC0001344DB001A463B681A44FB689B001344F9
:104FD0004FF000021A60FB680133FB60FB68052B91
:104FE000EBDDFB690133FB61FB69052B7FF760AFEC
:104FF00000BF00BF2437BD4690BD00BF00000000C9
:1050000080B5AAB000AF78607B68183307F10C0256
:1050100011461846FFF744FF404BC7F89C307B68A9
:1050200003F5BC7379681822184608F086FA002345
:10503000C7F8A43069E00023C7F8A0305CE07A68C4
:10504000D7F8A0309B00134493ED007AD7F8A02046
:1050500013465B0013445B00D7F8A42013449B0065
:10506000A8333B449C3BD3ED006AD7ED277A66EE2C
:10507000A77AD7F8A4305A1C77EE277A79681346B6
:105080005B0013445B00D7F8A02013445E339B0001
:105090000B44C3ED007A7A68D7F8A0309B00134424
:1050A00093ED007AD7F8A02013465B0013445B0011
:1050B000D7F8A42013449B00A8333B449C3BD3ED7A
:1050C000006AD7ED277A66EEA77AD7F8A430DA1D02
:1050D00077EE677A796813465B0013445B00D7F874
:1050E000A02013445E339B000B44C3ED007AD7F835
:1050F000A0300133C7F8A030D7F8A030052B9EDDD3
:10510000D7F8A4300133C7F8A430D7F8A430052B62
:1051100091DD00BF00BFA837BD4680BD0000404004
:1051200080B58AB000AF786039607868FFF768FFB3
:1051300000237B628FE079687A6A13465B00134430
:10514000DB000B4403F5BC7393ED007A3B68D3EDB1
:10515000066A79687A6A13465B001344DB000B44E5
:1051600003F5C273D3ED007A76EEE76A7B6803F548
:10517000B463D3ED007A66EEA77A77EE277A796882
:105180007A6A13465B001344DB000B4403F5BC73DF
:10519000C3ED007A79687A6A13465B001344DB003A
:1051A0000B4403F5BE7393ED007A3B68D3ED076AB9
:1051B00079687A6A13465B001344DB000B4403F5FD
:1051C000C473D3ED007A76EEE76A7B6803F5B463C7
:1051D000D3ED007A66EEA77A77EE277A79687A6A55
:1051E00013465B001344DB000B4403F5BE73C3EDB1
:1051F000007A79687A6A13465B001344DB000B443B
:1052000003F5C07393ED007A3B68D3ED086A7968C3
:105210007A6A13465B001344DB000B4403F5C67344
:10522000D3ED007A76EEE76A7B6803F5B463D3EDDD
:10523000007A66EEA77A77EE277A79687A6A13465B
:105240005B001344DB000B4403F5C073C3ED007A2D
:105250007B6A01337B627B6A0C2B7FF76CAF002388
:105260003B6239E07A683B6AC6339B0013444FF0D7
:1052700000021A600023FB6128E07A683B6AC633AB
:105280009B00134493ED007A7A68FB69AC339B0072
:105290001344D3ED006A7968FA6913465B0013443E
:1052A0005B003A6A13445E339B000B44D3ED007AF3
:1052B00066EEA77A77EE277A7A683B6AC6339B0058
:1052C0001344C3ED007AFB690133FB61FB690C2BCE
:1052D000D3DD3B6A01333B623B6A052BC2DD09E04B
:1052E0007B68D3EDC67A9FED6C7A77EEC77A7B68E0
:1052F000C3EDC67A7B68D3EDC67A9FED687AF4EE8B
:10530000C77AF1EE10FAEBDC09E07B68D3EDC67AE0
:105310009FED617A77EE877A7B68C3EDC67A7B680A
:10532000D3EDC67A9FED5E7AF4EEC77AF1EE10FA0D
:10533000EBD47B68D3EDC77A9FED5A7AF4EEC77A47
:10534000F1EE10FA03DD7B68574AC3F81C237B6833
:10535000D3EDC77A9FED557AF4EEC77AF1EE10FAE5
:1053600003D57B68524AC3F81C230023BB6189E044
:1053700000237B617FE07968BA6913465B001344C0
:105380005B007A6913442A339B000B4419687868E0
:10539000BA6913465B0013445B007A691344CC334B
:1053A0009B000344196000233B615EE079683A6921
:1053B00013465B0013445B00BA6913445E339B00E1
:1053C0000B4493ED007A7A68BB69C6339B001344A3
:1053D000D3ED007A77EE677AC7ED037A79683A6998
:1053E00013465B0013445B007A6913445E339B00F1
:1053F0000B4493ED007A7A687B69C6339B001344B3
:10540000D3ED007A77EE677AC7ED027A7968BA69E8
:1054100013465B0013445B007A691344CC339B0052
:105420000B4493ED007A7A683B69B8339B001344D0
:105430000433D3ED006AD7ED037A66EEA76AD7EDA1
:10544000027A66EEA77A77EE277A7968BA69134608
:105450005B0013445B007A691344CC339B000B441C
:10546000C3ED007A3B6901333B613B690C2B9DDD49
:105470007B6901337B617B69052B7FF77CAFBB695F
:105480000133BB61BB69052B7FF772AF00BF00BF63
:105490002837BD4680BD00BF0000B4430000344340
:1054A000000034C30000B4420000B4420000B4C2A3
:1054B0000000B4C280B52DED028BC8B000AF07F577
:1054C0009073A3F58E73186007F59073A3F590732E
:1054D00019600023C7F81C31A2E007F59073A3F50B
:1054E0008E731968D7F81C2113465B001344DB0048
:1054F0000B4403F5BC73D3ED007A9FEDE27A27EEFF
:10550000877ADFEDE16AC7EE267AC7ED2D7A07F5D7
:105510009073A3F58E731968D7F81C2113465B00AE
:105520001344DB000B4403F5BE73D3ED007A9FED0B
:10553000D57A27EE877ADFEDD46AC7EE267AC7EDF3
:105540002C7A97ED2C0A0AF06BFE87ED2B0A97ED6B
:105550002D0A0AF065FEB0EE408A97ED2C0A0AF09B
:105560001BFEF0EE407A68EE277AC7ED2A7A97EDB7
:105570002D0A0AF011FEB0EE408A97ED2C0A0AF0CF
:105580000BFEF0EE407A68EE277AC7ED297A07F530
:105590009073A3F58E731A68D7F81C313C331B0146
:1055A0001344D7F8AC201A6007F59073A3F58E73F7
:1055B0001A68D7F81C311B01134403F57173D7F82F
:1055C000A8201A6007F59073A3F58E731A68D7F8B0
:1055D0001C311B01134403F57273D7F8A4201A6021
:1055E00007F59073A3F58E731968D7F81C2113463D
:1055F0005B001344DB000B4403F5C0731A6807F526
:105600009073A3F58E731968D7F81C311B010B44F6
:1056100003F573731A60D7F81C310133C7F81C31D6
:10562000D7F81C310C2B7FF758AF07F194030022F9
:105630001A605A609A60DA600023C7F8183143E0B4
:105640000023C7F8143136E0D7F818319B0003F572
:1056500090733B448C3B93ED007A07F59073A3F570
:105660008E731A68D7F81431AC339B001344D3ED12
:10567000006A07F59073A3F58E731A68D7F8143192
:105680009900D7F818310B44F0339B001344D3ED45
:10569000007A66EEA77A77EE277AD7F818319B0062
:1056A00003F590733B448C3BC3ED007AD7F814317B
:1056B0000133C7F81431D7F814310C2BC4DDD7F8F7
:1056C00018310133C7F81831D7F81831032BB7DD7B
:1056D0000023C7F81031B1E00023C7F80C31A3E074
:1056E00007F59073A3F58E731A68D7F810319900F7
:1056F000D7F80C310B444E339B0013441A6807F55E
:105700009073A3F58E731968D7F810319800D7F805
:105710000C31034403F592739B000B441A60002381
:10572000C7F8083177E007F59073A3F58E731A6810
:10573000D7F808319900D7F810310B44F0339B00AB
:10574000134493ED007AD7F810319B0003F5907362
:105750003B448C3BD3ED007A77EE677AC7ED2F7A26
:1057600007F59073A3F58E731A68D7F8083199007E
:10577000D7F80C310B44F0339B00134493ED007ABF
:10578000D7F80C319B0003F590733B448C3BD3ED71
:10579000007A77EE677AC7ED2E7A07F59073A3F556
:1057A0008E731A68D7F810319900D7F80C310B4472
:1057B00003F592739B00134493ED007A07F5907301
:1057C000A3F58E731A68D7F80831B8339B001344D9
:1057D0000433D3ED006AD7ED2F7A66EEA76AD7EDD2
:1057E0002E7A66EEA77A77EE277A07F59073A3F5FF
:1057F0008E731A68D7F810319900D7F80C310B4422
:1058000003F592739B001344C3ED007AD7F8083177
:105810000133C7F80831D7F808310C2B83DDD7F8EE
:105820000C310133C7F80C31D7F80C31032B7FF75B
:1058300057AFD7F810310133C7F81031D7F810310E
:10584000032B7FF749AF0023C7F80431B0E00023F2
:10585000C7F80031A2E007F59073A3F58E731A68BC
:10586000D7F804319900D7F800310B4403F59A7347
:105870009B0013444FF000021A600023C7F8FC306D
:1058800082E000BFDB0F49400000344307F590730E
:10589000A3F58E731968D7F8FC2013465B001344F8
:1058A0005B00D7F8042113445E339B000B4493ED57
:1058B000007A07F59073A3F58E731A68D7F8043150
:1058C000C6339B001344D3ED007A77EE677AC7EDB9
:1058D000317A07F59073A3F58E731A68D7F8FC3008
:1058E0009900D7F800310B44F0339B00134493ED3B
:1058F000007AD7F800319B0003F590733B448C3B52
:10590000D3ED007A77EE677AC7ED307A07F59073BA
:10591000A3F58E731A68D7F804319900D7F80031CF
:105920000B4403F59A739B00134493ED007A07F53B
:105930009073A3F58E731A68D7F8FC30B8339B00C8
:1059400013440433D3ED006AD7ED317A66EEA76ACB
:10595000D7ED307A66EEA77A77EE277A07F590735F
:10596000A3F58E731A68D7F804319900D7F800317F
:105970000B4403F59A739B001344C3ED007AD7F8E8
:10598000FC300133C7F8FC30D7F8FC300C2B7FF724
:105990007DAFD7F800310133C7F80031D7F80031B7
:1059A000032B7FF758AFD7F804310133C7F8043120
:1059B000D7F80431052B7FF74AAF07F59073A3F5AD
:1059C0008E731B6803F5926207F154031146184663
:1059D00000F022FA0346002BC0F216820023C7F81B
:1059E000F83074E00023C7F8F43067E007F59073EF
:1059F000A3F58E731A68D7F8F8309900D7F8F43009
:105A00000B4403F5A6739B0013444FF000021A6089
:105A10000023C7F8F03048E007F59073A3F58E73C4
:105A20001A68D7F8F8309900D7F8F4300B4403F52A
:105A3000A6739B00134493ED007A07F59073A3F5CA
:105A40008E731A68D7F8F8309900D7F8F0300B4405
:105A500003F59A739B001344D3ED006AD7F8F03036
:105A60009A00D7F8F43013449B0003F590733B443D
:105A7000CC3BD3ED007A66EEA77A77EE277A07F56E
:105A80009073A3F58E731A68D7F8F8309900D7F899
:105A9000F4300B4403F5A6739B001344C3ED007A66
:105AA000D7F8F0300133C7F8F030D7F8F030032BD7
:105AB000B2DDD7F8F4300133C7F8F430D7F8F4305A
:105AC000032B93DDD7F8F8300133C7F8F830D7F857
:105AD000F830052B86DD07F59073A3F590731B68EE
