:020000040800F2
:100000000000022075CC0008859F00088D9F000825
:10001000959F00089D9F0008A59F00080000000014
:100020000000000000000000000000004164010822
:10003000AD9F00080000000091660108F966010804
:10004000C5CC0008C5CC0008C5CC0008C5CC00084C
:10005000C5CC0008C5CC0008C5CC0008C5CC00083C
:10006000C5CC0008C5CC0008C5CC0008C5CC00082C
:10007000C5CC0008BD9F0008D19F0008E59F00087F
:1000800001A00008C5CC000815A000080000000071
:10009000000000000000000000000000C5CC0008C7
:1000A000C5CC0008C5CC0008C5CC0008C5CC0008EC
:1000B00029A00008C5CC00083DA00008C5CC000858
:1000C000C5CC000851A0000865A0000879A0000870
:1000D000C5CC00088DA00008A1A000080000000009
:1000E000C5CC0008C5CC0008C5CC00080000000045
:1000F000000000000000000000000000B5A00008A3
:1001000000000000C5CC0008C5CC0008C5CC000824
:1001100000000000000000000000000000000000DF
:10012000C5CC0008C5CC0008C9A00008C5CC000893
:10013000C5CC000800000000000000000000000026
:10014000000000000000000000000000C5CC000816
:10015000C5CC0008C5CC0008DDA00008C5CC00084F
:10016000F1A0000805A10008000000000000000048
:10017000000000000000000000000000000000007F
:1001800000000000C5CC00080000000000000000D6
:08019000C5CC0008C5CC000835
:1001A00010B5054C237833B9044B13B10448AFF3B1
:1001B00000800123237010BDE0010020000000003A
:1001C000E0FA010808B5034B1BB103490348AFF33C
:1001D000008008BD00000000E4010020E0FA0108F2
:1001E00001F0FF01102A2BDB10F0070F08D010F8E8
:1001F000013B013A8B422DD010F0070F42B3F6D1EC
:10020000F0B441EA012141EA014122F007047FF004
:1002100000070023F0E80256083C85EA010586EA5B
:10022000010685FA47F5A3FA87F586FA47F6A5FA97
:1002300087F68EB9EED1F0BC01F0FF0102F00702A3
:1002400032B110F8013B013A83EA010313B1F8D14E
:100250000020704701387047002D06BF354603382F
:10026000073815F0010F07D1013015F4807F02BF68
:10027000013015F4C03F0130F0BC0138704700BFB9
:10028000034613F8012B002AFBD1181A01387047D6
:1002900081F0004102E000BF83F0004330B54FEA37
:1002A00041044FEA430594EA050F08BF90EA020FA4
:1002B0001FBF54EA000C55EA020C7FEA645C7FEA37
:1002C000655C00F0E2804FEA5454D4EB5555B8BF5A
:1002D0006D420CDD2C4480EA020281EA030382EACB
:1002E000000083EA010180EA020281EA0303362D5D
:1002F00088BF30BD11F0004F4FEA01314FF4801C30
:100300004CEA113102D0404261EB410113F0004F41
:100310004FEA03334CEA133302D0524263EB4303F8
:1003200094EA050F00F0A780A4F10104D5F1200E96
:100330000DDB02FA0EFC22FA05F2801841F10001F1
:1003400003FA0EF2801843FA05F359410EE0A5F1C5
:1003500020050EF1200E012A03FA0EFC28BF4CF0F6
:10036000020C43FA05F3C01851EBE37101F00045AC
:1003700007D54FF0000EDCF1000C7EEB00006EEBB9
:100380000101B1F5801F1BD3B1F5001F0CD3490843
:100390005FEA30004FEA3C0C04F101044FEA44529A
:1003A00012F5800F80F09A80BCF1004F08BF5FEA21
:1003B000500C50F1000041EB045141EA050130BD01
:1003C0005FEA4C0C404141EB0101013C28BFB1F513
:1003D000801FE9D291F0000F04BF01460020B1FA5E
:1003E00081F308BF2033A3F10B03B3F120020CDA31
:1003F0000C3208DD02F1140CC2F10C0201FA0CF00F
:1004000021FA02F10CE002F11402D8BFC2F1200C73
:1004100001FA02F120FA0CFCDCBF41EA0C01904029
:10042000E41AA2BF01EB0451294330BD6FEA040472
:100430001F3C1CDA0C340EDC04F11404C4F120025D
:1004400020FA04F001FA02F340EA030021FA04F36F
:1004500045EA030130BDC4F10C04C4F1200220FAC6
:1004600002F001FA04F340EA0300294630BD21FA04
:1004700004F0294630BD94F0000F83F4801306BFCA
:1004800081F480110134013D4EE77FEA645C18BFBE
:100490007FEA655C29D094EA050F08BF90EA020F55
:1004A00005D054EA000C04BF1946104630BD91EA4D
:1004B000030F1EBF0021002030BD5FEA545C05D150
:1004C0004000494128BF41F0004130BD14F580048F
:1004D0003CBF01F5801130BD01F0004545F0FE4103
:1004E00041F470014FF0000030BD7FEA645C1ABF38
:1004F000194610467FEA655C1CBF0B46024650EA6F
:10050000013406BF52EA033591EA030F41F400219A
:1005100030BD00BF90F0000F04BF0021704730B520
:100520004FF4806404F132044FF000054FF00001F5
:1005300050E700BF90F0000F04BF0021704730B5B6
:100540004FF4806404F1320410F0004548BF40428B
:100550004FF000013EE700BF42004FEAE2014FEAE0
:1005600031014FEA02701FBF12F07F4393F07F4FBB
:1005700081F06051704732F07F4208BF704793F0BE
:100580007F4F04BF41F40021704730B54FF46074D1
:1005900001F0004521F000411CE700BF50EA0102D4
:1005A00008BF704730B54FF000050AE050EA01027D
:1005B00008BF704730B511F0004502D5404261EBED
:1005C00041014FF4806404F132045FEA915C3FF42E
:1005D000D8AE4FF003025FEADC0C18BF03325FEACB
:1005E000DC0C18BF033202EBDC02C2F1200300FA7C
:1005F00003FC20FA02F001FA03FE40EA0E0021FAA1
:1006000002F11444BDE600BF70B54FF0FF0C4CF48E
:10061000E06C1CEA11541DBF1CEA135594EA0C0F40
:1006200095EA0C0F00F0DEF82C4481EA030621EA7B
:100630004C5123EA4C5350EA013518BF52EA0335B6
:1006400041F4801143F4801338D0A0FB02CE4FF068
:100650000005E1FB02E506F00042E0FB03E54FF098
:100660000006E1FB03569CF0000F18BF4EF0010E90
:10067000A4F1FF04B6F5007F64F5407404D25FEA8C
:100680004E0E6D4146EB060642EAC62141EA55513F
:100690004FEAC52040EA5E504FEACE2EB4F1FD0C81
:1006A00088BFBCF5E06F1ED8BEF1004F08BF5FEAFF
:1006B000500E50F1000041EB045170BD06F00046B1
:1006C00046EA010140EA020081EA0301B4EB5C045E
:1006D000C2BFD4EB0C0541EA045170BD41F4801156
:1006E0004FF0000E013C00F3AB8014F1360FDEBF7B
:1006F000002001F0004170BDC4F10004203C35DA57
:100700000C341BDC04F11404C4F1200500FA05F3D9
:1007100020FA04F001FA05F240EA020001F000427A
:1007200021F0004110EBD37021FA04F642EB0601F0
:100730005EEA430E08BF20EAD37070BDC4F10C041A
:10074000C4F1200500FA04F320FA05F001FA04F2DE
:1007500040EA020001F0004110EBD37041F10001CA
:100760005EEA430E08BF20EAD37070BDC4F12005D5
:1007700000FA05F24EEA020E20FA04F301FA05F23D
:1007800043EA020321FA04F001F0004121FA04F2E5
:1007900020EA020000EBD3705EEA430E08BF20EAB5
:1007A000D37070BD94F0000F0FD101F000464000EF
:1007B00041EB010111F4801F08BF013CF7D041EA71
:1007C000060195F0000F18BF704703F00046520075
:1007D00043EB030313F4801F08BF013DF7D043EA46
:1007E0000603704794EA0C0F0CEA135518BF95EAFC
:1007F0000C0F0CD050EA410618BF52EA4306D1D183
:1008000081EA030101F000414FF0000070BD50EAA1
:10081000410606BF1046194652EA430619D094EA2B
:100820000C0F02D150EA013613D195EA0C0F05D115
:1008300052EA03361CBF104619460AD181EA030169
:1008400001F0004141F0FE4141F470014FF0000021
:1008500070BD41F0FE4141F4780170BD70B54FF0BC
:10086000FF0C4CF4E06C1CEA11541DBF1CEA13553C
:1008700094EA0C0F95EA0C0F00F0A7F8A4EB05041E
:1008800081EA030E52EA03354FEA013100F0888015
:100890004FEA03334FF0805545EA131343EA1263DE
:1008A0004FEA022245EA111545EA10654FEA002693
:1008B0000EF000419D4208BF964244F1FD0404F54C
:1008C000407402D25B084FEA3202B61A65EB0305A8
:1008D0005B084FEA32024FF480104FF4002CB6EB65
:1008E000020E75EB030E22BFB61A754640EA0C00E5
:1008F0005B084FEA3202B6EB020E75EB030E22BF25
:10090000B61A754640EA5C005B084FEA3202B6EB65
:10091000020E75EB030E22BFB61A754640EA9C0024
:100920005B084FEA3202B6EB020E75EB030E22BFF4
:10093000B61A754640EADC0055EA060E18D04FEAB2
:10094000051545EA16754FEA06164FEAC30343EA52
:1009500052734FEAC2025FEA1C1CC0D111F4801F1F
:100960000BD141EA00014FF000004FF0004CB6E718
:1009700011F4801F04BF01430020B4F1FD0C88BFB7
:10098000BCF5E06F3FF6AFAEB5EB030C04BFB6EBC2
:10099000020C5FEA500C50F1000041EB045170BDB5
:1009A0000EF0004E4EEA113114EB5C04C2BFD4EBE2
:1009B0000C0541EA045170BD41F480114FF0000E66
:1009C000013C90E645EA060E8DE60CEA135594EAE2
:1009D0000C0F08BF95EA0C0F3FF43BAF94EA0C0FE5
:1009E0000AD150EA01347FF434AF95EA0C0F7FF45A
:1009F00025AF104619462CE795EA0C0F06D152EAAE
:100A000003353FF4FDAE1046194622E750EA410691
:100A100018BF52EA43067FF4C5AE50EA41047FF4A2
:100A20000DAF52EA43057FF4EBAE12E74FF0FF3C07
:100A300006E000BF4FF0010C02E000BF4FF0010CD8
:100A40004DF804CD4FEA410C7FEA6C5C4FEA430C51
:100A500018BF7FEA6C5C1BD001B050EA410C0CBFA0
:100A600052EA430C91EA030F02BF90EA020F002002
:100A7000704710F1000F91EA030F58BF994208BF69
:100A800090422CBFD8176FEAE37040F00100704726
:100A90004FEA410C7FEA6C5C02D150EA013C07D17D
:100AA0004FEA430C7FEA6C5CD6D152EA033CD3D0C8
:100AB0005DF8040B704700BF8446104662468C46C2
:100AC0001946634600E000BF01B5FFF7B7FF0028F5
:100AD00048BF10F1000F01BD4DF808EDFFF7F4FF1E
:100AE0000CBF012000205DF808FB00BF4DF808EDA9
:100AF000FFF7EAFF34BF012000205DF808FB00BFCC
:100B00004DF808EDFFF7E0FF94BF012000205DF8ED
:100B100008FB00BF4DF808EDFFF7CEFF94BF0120A2
:100B200000205DF808FB00BF4DF808EDFFF7C4FF9B
:100B300034BF012000205DF808FB00BF4FEA410CE4
:100B40007FEA6C5C02D150EA013C0AD14FEA430CC7
:100B50007FEA6C5C02D152EA033C02D14FF0000004
:100B600070474FF0010070474FEA410212F5001242
:100B700015D211D56FF47873B3EB625212D94FEAE4
:100B8000C12343F0004343EA505311F0004F23FACE
:100B900002F018BF404270474FF00000704750EA23
:100BA000013005D111F0004008BF6FF000407047E0
:100BB0004FF00000704700BF4A0011D212F500123A
:100BC00011D20DD56FF47873B3EB62520ED44FEAA5
:100BD000C12343F0004343EA505323FA02F0704725
:100BE0004FF00000704750EA013002D14FF0FF3063
:100BF00070474FF0000070474FEA4102B2F1E04306
:100C000024BFB3F5001CDCF1FE5C0DD901F0004CF3
:100C10004FEAC0024CEA5070B2F1004F40EB830043
:100C200008BF20F00100704711F0804F21D113F16F
:100C30003872BCBF01F00040704741F480114FEAA8
:100C40005252C2F11802C2F1200C10FA0CF320FA31
:100C500002F018BF40F001004FEAC1234FEAD3234E
:100C600003FA0CFC40EA0C0023FA02F34FEA4303B8
:100C7000CCE77FEA625307D150EA01331EBF4FF041
:100C8000FE4040F44000704701F0004040F0FE405C
:100C900040F40000704700BF80F0004002E000BF59
:100CA00081F0004142001FBF5FEA410392EA030F57
:100CB0007FEA226C7FEA236C6AD04FEA1262D2EBA1
:100CC0001363C1BFD218414048404140B8BF5B42A6
:100CD000192B88BF704710F0004F40F4000020F03F
:100CE0007F4018BF404211F0004F41F4000121F055
:100CF0007F4118BF494292EA030F3FD0A2F101029F
:100D000041FA03FC10EB0C00C3F1200301FA03F1DC
:100D100000F0004302D5494260EB4000B0F5000FFF
:100D200013D3B0F1807F06D340084FEA310102F1BE
:100D30000102FE2A51D2B1F1004F40EBC25008BF70
:100D400020F0010040EA03007047490040EB00003A
:100D5000013A28BFB0F5000FEDD2B0FA80FCACF13B
:100D6000080CB2EB0C0200FA0CF0AABF00EBC25068
:100D700052421843BCBFD0401843704792F0000F56
:100D800081F4000106BF80F400000132013BB5E7A9
:100D90004FEA41037FEA226C18BF7FEA236C21D01F
:100DA00092EA030F04D092F0000F08BF0846704784
:100DB00090EA010F1CBF0020704712F07F4F04D152
:100DC000400028BF40F00040704712F100723CBF65
:100DD00000F50000704700F0004343F0FE4040F48F
:100DE000000070477FEA226216BF08467FEA23634D
:100DF0000146420206BF5FEA412390EA010F40F438
:100E0000800070474FF0000304E000BF10F0004383
:100E100048BF40425FEA000C08BF704743F096436A
:100E200001464FF000001CE050EA010208BF704785
:100E30004FF000030AE000BF50EA010208BF70470C
:100E400011F0004302D5404261EB41015FEA010C21
:100E500002BF84460146002043F0B64308BFA3F119
:100E60008053A3F50003BCFA8CF2083AA3EBC253FB
:100E700010DB01FA02FC634400FA02FCC2F120021A
:100E8000BCF1004F20FA02F243EB020008BF20F051
:100E90000100704702F1200201FA02FCC2F12002B7
:100EA00050EA4C0021FA02F243EB020008BF20EAAC
:100EB000DC7070477BB972B90029BEBF00204FF0CB
:100EC000004106E008BF00281CBF6FF000414FF052
:100ED000FF3000F009BAADF1080C6DE904CE00292D
:100EE00009DB002B1ADB00F083F8DDF804E0DDE914
:100EF000022304B07047404261EB4101002B1BDB31
:100F000000F076F8DDF804E0DDE9022304B04042A9
:100F100061EB4101524263EB43037047524263EB82
:100F2000430300F065F8DDF804E0DDE9022304B0D6
:100F3000404261EB41017047524263EB430300F0D2
:100F400057F8DDF804E0DDE9022304B0524263EB18
:100F50004303704753B94AB9002908BF00281CBF92
:100F60004FF0FF314FF0FF3000F0BEB9ADF1080C8B
:100F70006DE904CE00F03CF8DDF804E0DDE9022381
:100F800004B0704738B50022002304460D46FFF731
:100F9000ADFD28B920462946BDE8384000F00AB822
:100FA000204605F1004100F005F8404261EB4101A7
:100FB00038BD00BFD0B50C4B002206460F46FFF7E8
:100FC00023FBFFF7F9FD0446FFF7A4FA074B0022C5
:100FD000FFF71AFB02460B4630463946FFF75CF92D
:100FE000FFF7EAFD2146D0BD0000F03D0000F041D2
:100FF0002DE9F047089D8E4604468846002B4AD1CD
:101000008A42174662D9B2FA82F64EB1C6F120037F
:1010100001FA06F820FA03F3B74043EA0808B4409F
:101020004FEA174E1FFA87FCB8FBFEF1230C0EFBAC
:10103000118843EA084301FB0CF29A4209D9FB18D4
:1010400001F1FF3080F0EA809A4240F2E7800239F5
:101050003B449A1AA3B2B2FBFEF00EFB102243EA05
:10106000024300FB0CFC9C4509D9FB1800F1FF3240
:1010700080F0D6809C4540F2D3803B44023840EA61
:101080000140A3EB0C0300211DB1F3400022C5E990
:101090000032BDE8F0878B4205D90DB1C5E90001EA
:1010A00000210846F5E7B3FA83F1002946D17345DC
:1010B00002D3824200F20581841A6EEB0302012002
:1010C0009046002DE5D0C5E90048E2E7002A00F08F
:1010D0009080B2FA82F6002E40F0A4808A1A030CA7
:1010E0004FEA174E80B2BCB20121B2FBFEFC0EFBF0
:1010F0001C2243EA024304FB0CF29A4207D9FB1874
:101100000CF1FF3802D29A4200F2E080C4469B1AEA
:10111000B3FBFEF20EFB123340EA034302FB04F47E
:101120009C4207D9FB1802F1FF3002D29C4200F228
:10113000CA8002461B1B42EA0C40A5E7C1F120060B
:101140008B4022FA06F71F430EFA01F420FA06F349
:101150002EFA06FE4FEA1749234300FA01F81FFA58
:1011600087FCBEFBF9F01C0C09FB10EE44EA0E44B0
:1011700000FB0CFEA64502FA01F209D93C1900F168
:10118000FF3A80F09C80A64540F2998002383C44AA
:10119000A4EB0E041FFA83FEB4FBF9F309FB13441E
:1011A0004EEA044403FB0CFCA44508D93C1903F1A6
:1011B000FF3E80F08280A4457FD9023B3C4443EA55
:1011C0000040A4EB0C04A0FB02EC64457346E1462E
:1011D00062D35FD05DB1B8EB030264EB090404FA9B
:1011E00006F622FA01F31E43CC40C5E90064002153
:1011F0004FE7B1FBF2FC010C41EA0E4180B240EA3C
:1012000001423B4638463C46B846BE462026B1FB26
:10121000F7F1A2EB080241EA0C4166E7014618E744
:1012200010462CE7C6F120022EFA02F3B740B14077
:1012300020FA02F24FEA174E0A43B3FBFEF8BCB2A3
:101240000EFB1833110C41EA034108FB04F9B040CE
:1012500089454FEA104380B23ED9791808F1FF3C26
:1012600001D289451FD8A1EB0901B1FBFEF909FBA9
:1012700004F80EFB191192B242EA0142424529D20A
:10128000BA1809F1FF31C4D24245C2D2A9F1020114
:101290003A44BEE7F0459DD2BEEB02036CEB070C6F
:1012A0000138E14696E7A7EB09094944A8F1020C89
:1012B000B1FBFEF909FB04F8DBE773467FE7504614
:1012C00066E70846FDE63B44023A33E7ACF1020C20
:1012D0003B441CE749469CE7A1EB0901C446B1FB2E
:1012E000FEF909FB04F8C4E7704700BF80B500AF02
:1012F000064B00221A60064B00221A70054B002292
:101300001A7005480BF08AFD00BF80BDFC0100206B
:101310000002002001020020C00A002080B584B035
:1013200000AF78607B681A68134B1B689A421FD124
:1013300078680BF07EFFF860104B1A68FB68134466
:101340000E4A13600E4B1B78DBB20133DAB20C4B42
:101350001A700B4B1B78DBB2092B06D9094B012203
:101360001A7078680BF018FE02E078680BF056FDF2
:1013700000BF1037BD4680BDC00A0020FC01002020
:10138000000200200102002080B58CB000AF87ED84
:10139000010A444BBB62444B7B62444B3B62444B6F
:1013A000FB61444BBB6197ED017AD7ED0A7AB4EE4D
:1013B000E77AF1EE10FA02DBD7ED077A6CE097EDF1
:1013C000017AD7ED087AB4EEE77AF1EE10FA02D896
:1013D000DFED397A60E097ED017AD7ED097AB4EE66
:1013E000E77AF1EE10FA1EDB97ED077AD7ED067A71
:1013F00077EE676A97ED0A7AD7ED097A37EE677A62
:10140000C6EE877AC7ED037A97ED017AD7ED097AB0
:1014100037EE677AD7ED037A27EE277AD7ED067A8B
:1014200077EE277A38E097ED017AD7ED087A77EEF4
:10143000676A97ED097AD7ED087A37EE677AC6EED4
:10144000877AC7ED0B7AD7ED0B7AF5EEC07AF1EE1D
:1014500010FA02D54FF00003FB62D7ED0B7AB7EE1E
:10146000007AF4EEC77AF1EE10FA02DD4FF07E5307
:10147000FB624FF080437B61D7ED050A97ED0B0AC5
:101480001AF080FFB0EE407AD7ED067A67EE877AE1
:10149000C7ED047AD7ED047AB0EE670A3037BD465F
:1014A00080BD00BF66668640CDCC4C400000404009
:1014B0000000C842000020410000000000000000C1
:1014C00080B582B000AF2A4B1B78DBB2002B47D02F
:1014D000284B1B6807EE903AB8EE677AF2EE046A82
:1014E000C7EE267AC7ED017AD7ED017A9FED227A11
:1014F00027EE877ADFED216AC7EE267AC7ED007AFC
:10150000D7ED007A9FED1E7A67EE877A17EE900A84
:10151000FFF722F814A3D3E90023FEF7BFFE02462B
:101520000B4610461946FFF767FB0346154A136042
:10153000144BD3ED007AB0EE670AFFF725FFF0EE0B
:10154000407A114BC3ED007A0A4B00221A600F4B10
:1015500000221A70064B00221A700D480BF05EFC38
:1015600000BF0837BD4680BD9A9999999999B93FAE
:1015700001020020FC0100203333534000F07F457E
:101580004A90A73F04020020080200200002002029
:10159000C00A002080B400AF044B1B6807EE903AED
:1015A000B0EE670ABD465DF8047B70470802002074
:1015B00080B485B000AFF860B9607A60FB68074A14
:1015C0001A60BB68064A1A607B6880221A6000BFF6
:1015D0001437BD465DF8047B704700BF0C02002045
:1015E000AC0200200000000080B500AF444B1B6837
:1015F000002B7CD1434B35221A6043494FF0000247
:10160000424BC1E9002342494FF000024FF48013DE
:10161000C1E900233F4938A3D3E90023C1E90023EE
:101620003D4B14221A603C4B1A68364B1B6813441E
:101630000A333A4A1360364B93ED007BB0EE470A0B
:10164000F0EE670A1AF028FCB0EE407AF0EE607A0D
:10165000334B83ED007B2C4BD3E900233149C1E9A7
:101660000023304BD3E900014FF000022E4BFEF770
:10167000CBFF02460B462D49C1E90023294B93EDD0
:10168000007BB0EE470AF0EE670A1AF005FCB0EEF8
:10169000407AF0EE607A264B83ED007B214BD3E954
:1016A00000232449C1E90023214BD3E900014FF075
:1016B0000002214BFEF7A8FF02460B461F49C1E975
:1016C0000023144BD3E900014FF000021C4BFFF73D
:1016D000C5F802460B461B49C1E900231A494FF0E1
:1016E00000021A4BC1E90023054B01221A6000BF1A
:1016F00080BD00BFAFF30080182D4454FB2109408A
:10170000AC040020B0040020C00400200000B03C65
:10171000C8040020D0040020B4040020B804002035
:10172000E8040020F004002000006940F8040020D4
:10173000000500200805002000408F401005002013
:1017400000806640D8040020E00400200000F87FFC
:1017500080B582B000AF87ED000BD7E90023D7E951
:101760000001FEF751FF02460B4643EC172BB0EE8B
:10177000470AF0EE670A0837BD4680BD80B586B0DF
:1017800000AFF860B96087ED000BFB68002B06DB4B
:10179000BB6803F10802BA60D3E9002303E04FF00D
:1017A00000024FF00003C7E9042315E0D7E9002346
:1017B000D7E90401FEF728FF02460B4610461946FA
:1017C000BB6803F10802BA60D3E90023FEF766FDA7
:1017D00002460B46C7E90423FB68013BFB60FB683C
:1017E000002BE3DAD7E9042343EC172BB0EE470ACA
:1017F000F0EE670A1837BD4680BD80B485B000AFF3
:10180000786039607B68D3E90023C7E902233B682D
:10181000D3E900237968C1E900233968D7E90223B5
:10182000C1E9002300BF1437BD465DF8047B704753
:1018300080B584B000AF786039607B6893ED007B41
:101840003B6893ED006BB0EE461AF0EE661AB0EE10
:10185000470AF0EE670A1AF0BFFA87ED020B7B68C1
:10186000D3E90001D7E90223FEF7F8FF02460B4651
:101870007968C1E900233B68D3E90001D7E9022375
:10188000FEF7ECFF02460B463968C1E9002300BFB2
:101890001037BD4680BD0000B0B584B000AF87ED05
:1018A000000B9FED151B97ED000B1AF0C9FA87EDA1
:1018B000020BBC68FB6823F000454FF00002124B9E
:1018C00020462946FFF708F90346002B0AD097ED7A
:1018D000001B9FED0B0B17F081F9B0EE407AF0EE94
:1018E000607A01E097ED027BB0EE470AF0EE670AFE
:1018F0001037BD46B0BD00BF00000000008076403C
:1019000000000000008066400080664080B582B024
:1019100000AF87ED000B38687B6823F000414FF083
:1019200000020A4BFFF700F90346002B03D0084BD7
:10193000D3E9002301E0D7E9002343EC172BB0EEF5
:10194000470AF0EE670A0837BD4680BD0080564062
:10195000E004002080B588B000AF87ED000B4FF0A9
:1019600000002049C7E906013A68796821F0004380
:10197000C7E90423D7E90423D7E90601FEF78CFC65
:1019800002460B46C7E90223D7E902014FF00002E5
:101990004FF00003FFF7C8F80346002B08D0D7E943
:1019A0000223D7E90601FEF777FC02460B4601E069
:1019B000D7E90423C7E9042397ED047B97ED001BC7
:1019C000B0EE470AF0EE670A17F008F9B0EE407A79
:1019D000F0EE607AB0EE470AF0EE670A2037BD46B7
:1019E00080BD00BF0000B03FB0B592B000AF87ED42
:1019F000080BF861B9610023FB6207F12C0318465C
:101A00009FED4D1B97ED080B1AF040FE87ED100B74
:101A10004B4BD3E90023D7E91001FEF7F5FD024651
:101A20000B46C7E9102397ED100B1AF055FC87ED14
:101A30000E0B97ED100B1AF0F3FB87ED0C0BFB6A06
:101A400003F00303022B22D0022B37D8002B02D045
:101A5000012B0BD032E0F969D7E90E23C1E900234D
:101A6000B969D7E90C23C1E9002334E0F969D7E962
:101A70000C23C1E90023BB6B3B61FB6B83F000438C
:101A80007B61BB6997ED047B83ED007B23E0BB6B3F
:101A9000BB60FB6B83F00043FB60FB6997ED027B4F
:101AA00083ED007B3B6B3B607B6B83F000437B6093
:101AB000BB6997ED007B83ED007B0CE03C6B7B6B9F
:101AC00083F00045FB69C3E90045B969D7E90E23F6
:101AD000C1E9002300BFBB69D3E900014FF0000258
:101AE0004FF00003FEF7DAFB02460B46B969C1E985
:101AF0000023FB69D3E900014FF000024FF000031F
:101B0000FEF7EAFF0346002B00D111E0FB6993EDDD
:101B1000007B97ED081BB0EE470AF0EE670A17F05E
:101B20005DF8B0EE407AF0EE607AFB6983ED007B01
:101B300000BF4837BD46B0BD0000000000805640E1
:101B4000D8040020000000002DE9B04388B000AFA9
:101B500087ED020B87ED001B0023FB61D7E9022311
:101B6000104623F00041D7E90023904623F00049B6
:101B700042464B46FEF7D8FF0346002B08D007F13C
:101B800008023B4611461846FFF737FE0223FB6169
:101B9000D7E9002303F00043002B09D0D7E9002345
:101BA000144683F00045C7E90045FB690133FB613A
:101BB00097ED027B97ED006BB0EE461AF0EE661AD9
:101BC000B0EE470AF0EE670A1AF0BEF851EC100BBF
:101BD000294BD3E90023FEF741FE02460B46C7E935
:101BE0000423FB69032B2AD0FB69032B33DCFB693D
:101BF000012B03D0FB69022B15D02CE097ED027B63
:101C0000B0EE471AF0EE671A9FED190B16F0E6FFDB
:101C100051EC100BD7E90423FEF73EFB02460B46BE
:101C2000C7E9042318E0D7E904234FF00000134963
:101C3000FEF732FB02460B46C7E904230CE04FF0E7
:101C400000020E4BD7E90401FEF726FB02460B46C5
:101C5000C7E9042300E000BFD7E9042343EC172BB6
:101C6000B0EE470AF0EE670A2037BD46BDE8B08304
:101C70000000000000806640D8040020008056402C
:101C80002DE9B04F2DED048B88B000AFF86187EDE2
:101C9000040B87ED021BBC4B1B68002B01D1FFF727
:101CA000A3FCF969D7E90423C1E90023F969D7E95D
:101CB0000223C1E90223FB69D3E902234FF00000AC
:101CC000B249FEF7E9FA02460B46F969C1E9042375
:101CD000FB69D3E90245FB69D3E902234FF0000019
:101CE0004FF08041FEF7D8FA02460B4620462946BF
:101CF000FEF78AFC02460B46F969C1E90623FB6937
:101D0000D3E90645FB6993ED047BB0EE470AF0EE9C
:101D1000670AFFF71DFD53EC102B20462946FEF7FE
:101D20009DFD02460B46F969C1E90823FB69D3E929
:101D30000245FB69D3E902234FF000004FF08041D8
:101D4000FEF7AAFA02460B4620462946FEF786FD14
:101D500002460B46F969C1E90A23FB69D3E9000190
:101D6000FB69D3E90423FEF74FFC02460B46F969F1
:101D7000C1E90C23FB6993ED007BB0EE470AF0EE5E
:101D8000670AFFF7E5FC55EC104BFB6993ED0C7B04
:101D9000B0EE470AF0EE670AFFF7DAFCB0EE409AC1
:101DA000F0EE609AFB69D3E906014FF000024FF0B4
:101DB0000003FEF791FE0346002B51D1FB69D3E9E6
:101DC00006014FF000024FF00003FEF7ADFE0346A0
:101DD000002B17D0FB6993ED067BB0EE470AF0EEBF
:101DE000670A1AF059F8B0EE407AF0EE607AB0EE79
:101DF000470AF0EE670A19F0A9FFB0EE408AF0EE4C
:101E0000608A18E0FB69D3E906233A6083F0004357
:101E10007B6097ED000B1AF03FF8B0EE407AF0EEE1
:101E2000607AB0EE470AF0EE670A1AF061F8B0EE99
:101E3000408AF0EE608AFB69D3E90623924623F0DC
:101E4000004B4BEC10AB1AF027F853EC102B51EC75
:101E5000180BFEF703FD02460B461046194602E03A
:101E60004FF00000494953EC192BFEF7CDFB024619
:101E70000B4620462946FEF711FA02460B4610464D
:101E800019464FF000024FF08043FEF7E7FC024690
:101E90000B46F969C1E90E233D4BD3E9000134A398
:101EA000D3E90023FEF7B0FB02460B4614461D465D
:101EB000FB69D3E90223904623F000499FED2E1BD6
:101EC00049EC108B1AF069FB59EC108BFB69D3E9D4
:101ED00002014FF000024FF08043FEF7BFFC0246C4
:101EE0000B464FF000002949FEF7D6F902460B4693
:101EF00043EC172B9FED221BB0EE470AF0EE670A6A
:101F00001AF075FB53EC102B40464946FEF77CFB5C
:101F100002460B46104619464FF000024FF0804330
:101F2000FEF79CFC02460B4643EC172BB0EE470A2B
:101F3000F0EE670A19F0B0FF53EC102B204629464B
:101F4000FEF78CFC02460B46F969C1E91023F869DB
:101F500002F0B6F9F86902F005FAF86902F05EFAE3
:101F600000BF2037BD46BDEC048BBDE8B08F00BF7D
:101F70009A9999999999B93FFCA9F1D24D62503F2C
:101F8000000000000000F03FAC0400200000F03F23
:101F9000000500202DE9B0432DED028B98B000AF75
:101FA0007863396387ED0A0B87ED081B87ED062BF5
:101FB00087ED043B87ED024B7A603B6BD3E900234E
:101FC000796BC1E906233B6BD3E90223796BC1E945
:101FD00008233B6BD3E90C23796BC1E912233B6BDC
:101FE000D3E90E23796BC1E914233B6BD3E90423B6
:101FF000796BC1E916237B68002B05D07B6843F41D
:10200000024343F0800301E048F68B337A6BC2F859
:10201000F83197ED0A0BFFF779FCB0EE407AF0EE5D
:10202000607A7B6B83ED007B796BD7E90823C1E98C
:102030000223796BD7E90623C1E90423796BD7E939
:102040000423C1E90A23796BD7E90223C1E90C23F0
:102050007B6B93ED007BB0EE470AF0EE670AFFF76B
:1020600079FCB0EE407AF0EE607A07F1400207F1B9
:10207000380311461846B0EE470AF0EE670AFFF73C
:10208000B3FC7B6BD3E91601D7E90E23FEF7BCFA4C
:1020900002460B46C7E90E2307F1400207F1380359
:1020A00011461846FFF7C4FB4E4B93ED007B97EDAE
:1020B000106BB0EE461AF0EE661AB0EE470AF0EE7C
:1020C000670A1AF06AFAB0EE407AF0EE607A87EDAD
:1020D000107B3B6BD3E9088997ED0E7BB0EE470A86
:1020E000F0EE670AFFF734FB53EC102B40464946ED
:1020F000FEF78AFA02460B46104619464FF00002D8
:10210000394BFEF7CBF802460B4643EC172BB0EEEB
:10211000470AF0EE670A19F0BFFEB0EE407AF0EE23
:10212000607A7B6B83ED227B7B6BD3E90A01D7E975
:102130001023FEF769FA02460B46796BC1E91823B2
:102140007B6B93ED0C8B7B6BD3E90A01D7E90E23F4
:10215000FEF75AFA02460B4643EC172BB0EE471A2D
:10216000F0EE671AB0EE480AF0EE680A19F034FE95
:10217000B0EE407AF0EE607A7B6B83ED1A7BD7E9A4
:102180000E23796BC1E91E237B6BD3E91801D7E9D4
:102190000E23FEF739FA02460B46796BC1E9282374
:1021A000D7E90E014FF000024FF00003FEF794FC58
:1021B0000346002B0BD07B6BD3E90C014FF00002E0
:1021C0004FF00003FEF788FC0346002B0ED17B6B1B
:1021D000D3E90C01D7E91023FEF716FA02460B46A5
:1021E00007E000BFE80400200000F03F4FF00002CD
:1021F000BC4B796BC1E92A237B6BD3E92A23796B2A
:10220000C1E920237B6B03F178027B6B8033194695
:102210001046FFF70DFB7B6B93ED1A7BB0EE470A80
:10222000F0EE670AFFF794FA51EC100B3B6BD3E921
:102230000823FEF7E9F902460B46796BC1E91C2336
:102240007B6BD3E91C897B6BD3E91C014FF0000247
:10225000A44BFEF723F802460B4643EC172BB0EED7
:10226000470AF0EE670A19F017FE51EC100B4FF019
:1022700000029C4BFEF712F802460B461046194628
:1022800002460B46FEF70AF802460B461046194670
:102290007B6BD3E91C23FEF701F802460B46404650
:1022A0004946FEF7DBFA02460B46C7E916237B6B6D
:1022B000D3F8F83103F00103002B7DD097ED160B16
:1022C00001F03AFEB0EE407AF0EE607A7B6B83ED7F
:1022D0002C7B7B6BF033184697ED160B01F078FEE4
:1022E0007B6B93ED1E7B7B6B93ED206B7B6BF033F5
:1022F00006221946B0EE461AF0EE661AB0EE470A0C
:10230000F0EE670A012001F09EFCB0EE407AF0EE9C
:10231000607A7B6B83ED327B7B6B93ED327BB0EE2F
:10232000470AF0EE670A19F0D7FF87ED140B7B6BB5
:1023300093ED327BB0EE470AF0EE670A19F070FFBA
:1023400087ED120B7B6BD3E91E01D7E91223FEF751
:102350005BF902460B46904699467B6BD3E9200118
:10236000D7E91423FEF750F902460B46404649468A
:10237000FDF794FF02460B46796BC1E924237B6B82
:10238000D3E92001D7E91223FEF73EF902460B46B6
:10239000904699467B6BD3E91E01D7E91423FEF7DB
:1023A00033F902460B4640464946FDF775FF0246A3
:1023B0000B46796BC1E926237B6BD3F8F83103F028
:1023C0000203002B07D07B6B03F59473184697ED3F
:1023D000160B01F061FE7B6BD3F8F83103F00403B8
:1023E000002B2FD097ED160B01F0BAFEB0EE407A1D
:1023F000F0EE607A7B6B83ED2E7B7B6B03F5B07325
:10240000184697ED160B01F0F7FE7B6B93ED1E7BE4
:102410007B6B93ED206B7B6B03F5B0730622194643
:10242000B0EE461AF0EE661AB0EE470AF0EE670A12
:10243000012001F008FCB0EE407AF0EE607A7B6B90
:1024400083ED347B7B6BD3F8F83103F00803002B6A
:102450004AD07B6B03F5CC73194697ED160B386B9E
:1024600001F0D2FC7B6BD3E90823144683F00045CE
:102470007B6BD3E9182320462946FEF7C5F80246B0
:102480000B4614461D4697ED160B386B01F0A2FC67
:1024900053EC102B20462946FEF7B6F802460B46B1
:1024A000796BC1E930237B6B93ED1E7B7B6B93EDE6
:1024B000206B7B6B03F5CC7305221946B0EE461AF0
:1024C000F0EE661AB0EE470AF0EE670A012001F05E
:1024D000BAFBB0EE407AF0EE607A7B6B83ED367B30
:1024E00002E000BF0000F03F7B6BD3F8F83103F04F
:1024F0001003002B4CD07B6B03F5E473194697ED6A
:10250000160B386B01F0CCFC7B6B93ED067BB0EEC9
:10251000470AF0EE670AFFF71BF951EC100B7B6BD3
:10252000D3E91A23FEF770F802460B461046194607
:102530007B6BD3E91823FEF767F802460B4610467B
:1025400019463B6BD3E90623FEF75EF802460B46BD
:10255000796BC1E938237B6B93ED1E7B7B6B93ED2D
:10256000206B7B6B03F5E47306221946B0EE461A26
:10257000F0EE661AB0EE470AF0EE670A002001F0AE
:1025800062FBB0EE407AF0EE607A7B6B83ED3A7BD3
:10259000094BD3E90023796BC1E910237B6BD3E9A5
:1025A0001023796BC1E90E2300BF6037BD46BDEC37
:1025B000028BBDE8B08300BFE004002080B58EB080
:1025C00000AF7862396287ED060B87ED041B87ED5B
:1025D000022B7A6097ED020BFFF75EF987ED020B95
:1025E00097ED020BFFF7B6F9B0EE407AF0EE607AA5
:1025F00007F1280207F1300311461846B0EE470AEA
:10260000F0EE670AFFF7F0F997ED0C7B97ED0A6B98
:102610007A68B0EE464AF0EE664AB0EE473AF0EE1F
:10262000673A97ED022B97ED041B97ED060B396A7D
:10263000786AFFF7AFFC00BF3837BD4680BD0000A9
:102640002DE9F04F2DED028BD3B000AF07F5A47646
:10265000A6F59A76306007F5A470A0F59C7001602D
:1026600007F1080181ED000B07F5A471A1F5A27136
:102670000A6007F5A472A2F5A47213604FF000027D
:102680004FF00003C7E950234FF000024FF0000362
:10269000C7E94E234FF000024FF00003C7E94C2377
:1026A0004FF000024FF00003C7E94A234FF0000249
:1026B0004FF00003C7E948234FF000024FF000033A
:1026C000C7E946234FF000024FF00003C7E9442357
:1026D0004FF000024FF00003C7E942234FF0000221
:1026E0004FF00003C7E93E234FF000024FF0000314
:1026F000C7E93C2307F5A473A3F5A2731B68002B5D
:1027000001D0802200E0002207F5A473A3F5A47392
:102710001B68002B02D04FF4847300E000231343A6
:10272000D7F87821002A02D04FF4007200E000228E
:102730001343D7F87C21002A02D040F2014200E086
:1027400000221343D7F88021002A02D041F205026B
:1027500000E000221343D7F88421002A03D1D7F8E0
:102760008821002A02D042F2050200E00022134331
:10277000D7F88C21002A02D044F2100200E0002297
:102780001343C7F8CC3007F5A473A3F59A731B68FD
:10279000D3F8F821D7F8CC30134003F4FF43C7F83F
:1027A000CC3007F5A473A3F59C731B6803F00103F9
:1027B000002B0FD107F5A473A3F59A731B68D3F808
:1027C000F83103F40063002B04D1144BD3E9002348
:1027D00001F02EB907F5A473A3F59C731B6803F0F1
:1027E0000103002B1ED00E4BD3E9002307F1080193
:1027F000D1E90001FDF708FF02460B46C7E9402377
:1028000007F1180207F1200307F108010E461146EF
:10281000184696ED000BFFF7E7F8D5E1E00400203D
:10282000D804002007F5A473A3F59A731B68D3E9B5
:1028300012AB07F5A473A3F59A731B68D3E92C01B7
:102840004FF00002D04BFDF729FD02460B465046E3
:102850005946FDF7D9FE02460B4607F10801D1E9BA
:102860000001FDF7FBFF02460B46C7E9302397ED59
:10287000300B19F031FD87ED2E0B97ED300B19F071
:10288000CFFC87ED2C0B07F5A473A3F59A731B6897
:10289000D3E92401D7E92C23FDF7B6FE02460B4607
:1028A00092469B4607F5A473A3F59A731B68D3E978
:1028B0002601D7E92E23FDF7A7FE02460B46504618
:1028C0005946FDF7EBFC02460B4643EC182B07F587
:1028D000A473A3F59A731B68D3E92601D7E92C23C7
:1028E000FDF792FE02460B4692469B4607F5A473FF
:1028F000A3F59A731B68D3E92401D7E92E23FDF7CA
:1029000083FE02460B4650465946FDF7C5FC02467B
:102910000B4643EC172B07F5A473A3F59A731B68BA
:1029200003F5947306221946B0EE471AF0EE671AC3
:10293000B0EE480AF0EE680A012001F084F953EC89
:10294000102B1146C7F8F81083F00043C7F8FC308D
:1029500007F5A473A3F59A731B68D3E93223D7E96B
:102960003E01FDF799FC02460B46D7E93001FDF721
:1029700093FC02460B46C7E9402397ED400B19F044
:10298000ABFCB0EE407AF0EE607A07F1280303ED7D
:10299000027B97ED400B19F043FCB0EE407AF0EE6D
:1029A000607A07F1180383ED007B07F5A473A3F5A4
:1029B0009A731B68D3E90823904623F0004970A35B
:1029C000D3E9002340464946FEF7AEF80346002B04
:1029D00000F0FA8007F5A473A3F59A731B68D3E996
:1029E0001E0107F11803D3E90023FDF70DFE02468F
:1029F0000B469046994607F5A473A3F59A731B6896
:102A0000D3E9200107F1280353E90223FDF7FCFD78
:102A100002460B4640464946FDF740FC02460B463F
:102A2000C7E92A2307F5A473A3F59A731B68D3E9B2
:102A3000200107F11803D3E90023FDF7E5FD024665
:102A40000B469046994607F5A473A3F59A731B6845
:102A5000D3E91E0107F1280353E90223FDF7D4FD52
:102A600002460B4640464946FDF716FC02460B4619
:102A7000C7E93A2307F5A473A3F59A731B68F033EB
:102A80000622194697ED3A1B97ED2A0B012001F01B
:102A9000DAF887ED3E0B07F5A473A3F59A731B686C
:102AA000D3E92C014FF00002374BFDF7F7FB02464C
:102AB0000B469046994607F5A473A3F59A731B68D5
:102AC000D3E93223D7E93E01FDF7E6FB02460B4688
:102AD00010461946D7E94023FDF7E0FB02460B46B6
:102AE00040464946FDF790FD02460B469046994602
:102AF00007F5A473A3F59A731B68D3E9122307F1B2
:102B00000801D1E90001FDF7A9FE02460B46404647
:102B10004946FDF7C1FB02460B46C7E9282307F5E6
:102B2000A473A3F59A731B68D3E91C8997ED2A0B4C
:102B3000FEF70EFE53EC102B40464946FDF764FDB0
:102B400002460B46104619464FF000020E4BFDF7A9
:102B5000A5FB02460B4643EC172BB0EE470AF0EEFE
:102B6000670A19F099F953EC102BD7E92801FDF702
:102B700075FE02460B46D7E9400107E0AFF300803F
:102B80007B14AE47E17A843F0000F03FFDF784FB01
:102B900002460B46C7E9402397ED400B19F09CFB1A
:102BA000B0EE407AF0EE607A07F1280303ED027B85
:102BB00097ED400B19F034FBB0EE407AF0EE607AFE
:102BC00007F1180383ED007B07F5A473A3F59A734F
:102BD0001B68D3E91E0107F11803D3E90023FDF7B1
:102BE00013FD02460B469046994607F5A473A3F5DC
:102BF0009A731B68D3E9200107F1280353E90223E4
:102C0000FDF702FD02460B4640464946FDF746FBEE
:102C100002460B46C7E92A2307F5A473A3F59A7366
:102C20001B68D3E9200107F11803D3E90023FDF75E
:102C3000EBFC02460B469046994607F5A473A3F5B4
:102C40009A731B68D3E91E0107F1280353E9022395
:102C5000FDF7DAFC02460B4640464946FDF71CFBF1
:102C600002460B46C7E93A2307F5A473A3F59A7306
:102C70001B68D3E91C8997ED2A0BFEF769FD53EC1D
:102C8000102B40464946FDF7BFFC02460B46104656
:102C900019464FF00002844BFDF700FB02460B463D
:102CA00043EC172BB0EE470AF0EE670A19F0F4F880
:102CB00087ED260BD7F8CC2043F205431340002BB9
:102CC00052D007F5A473A3F59C731B6803F00103AE
:102CD000002B13D107F5A473A3F59A731B68D3E9EE
:102CE0000823144623F000456DA3D3E900232046B2
:102CF0002946FDF719FF0346002B10D007F5A473F2
:102D0000A3F59A731B68F0330622194697ED3A1B18
:102D100097ED2A0B012000F096FF87ED3E0B07F59B
:102D2000A473A3F59A731B68D3E92C014FF000023A
:102D30005D4BFDF7B3FA02460B4614461D4607F5F8
:102D4000A473A3F59A731B68D3E93223D7E93E0134
:102D5000FDF7A2FA02460B4620462946FDF754FC31
:102D600002460B46C7E93C2307F5A473A3F59A7303
:102D70001B68D3E91A23D7E92A01FDF745FC02466F
:102D80000B46C7E9242307F5A473A3F59A731B68C0
:102D900093ED188B07F5A473A3F59A731B68D3E919
:102DA0001A01D7E93A23FDF72FFC02460B4643EC04
:102DB000172BB0EE471AF0EE671AB0EE480AF0EEA5
:102DC000680A19F009F887ED380B4FF000024FF050
:102DD0000003D7E93801FDF77FFE0346002B08D03A
:102DE000324BD3E90023C7E93A23D7E93A23C7E9AD
:102DF000382307F5A473A3F59A731B68D3E9182346
:102E0000C7E9222307F5A473A3F59A731B68D3E9D6
:102E10001A23D7E93A01FDF7F7FB02460B46C7E94B
:102E20002023D7F8CC2040F201431340002B45D09B
:102E300007F5A473A3F59C731B6803F00103002B33
:102E400036D007F5A473A3F59A731B68D3E912452E
:102E500007F5A473A3F59A731B68D3E92C014FF00F
:102E60000002114BFDF71AFA02460B4610461946AE
:102E7000D7E94023FDF7C8FB02460B46104619462A
:102E8000D7E93C23FDF70AFA02460B4620462946BD
:102E9000FDF7BAFB02460B460EE000BFAFF3008021
:102EA0007B14AE47E17A843F0000F03FE804002045
:102EB00007F10803D3E90023C7E94A23D7F8CC3048
:102EC00003F48473002B00F0928107F5A473A3F53B
:102ED0009A731B6893ED187BB0EE471AF0EE671AF1
:102EE0009FEDAB0B15F07AFE87ED1E0B07F5A47373
:102EF000A3F59A731B68D3E91823D7E92A01FDF7D4
:102F000083FB02460B46C7E91C23D7E93A23C7E9EE
:102F10001A2307F5A473A3F59C731B6803F40043FD
:102F2000002B7CD097ED3A1B97ED2A0B18F00CFF85
:102F300055EC104B07F5A473A3F59A731B6893ED3A
:102F40001E7B07F5A473A3F59A731B6893ED206BA2
:102F5000B0EE461AF0EE661AB0EE470AF0EE670AD7
:102F600018F0F2FE53EC102B20462946FDF794F999
:102F700002460B46D7E94001FDF78EF902460B46A3
:102F800014461D46D7E91C23D7E91E01FDF73CFB7B
:102F900002460B4643EC172B97ED1A1BB0EE470A7F
:102FA000F0EE670A18F0D0FE59EC108B07F5A47309
:102FB000A3F59A731B68D3E92801D7E91E23FDF70F
:102FC00023FB02460B4643EC162B07F5A473A3F52F
:102FD0009A731B6893ED2A7BB0EE471AF0EE671ADE
:102FE000B0EE460AF0EE660A18F0AEFE53EC102B77
:102FF00040464946FDF750F902460B462046294611
:10300000FDF74CF902460B4610461946D7E91E2338
:10301000FDF7FAFA02460B4643EC172B55E007F58D
:10302000A473A3F59A731B68D3E92A01D7E91C237B
:10303000FDF7EAFA02460B4614461D4607F5A4734F
:10304000A3F59A731B68D3E92801D7E91A23FDF782
:10305000DBFA02460B4620462946FDF71DF90246DB
:103060000B4643EC182B07F5A473A3F59A731B6862
:10307000D3E92A01D7E91A23FDF7C6FA02460B461F
:1030800014461D4607F5A473A3F59A731B68D3E98C
:103090002801D7E91C23FDF7B7FA02460B46204664
:1030A0002946FDF7FBF802460B4643EC172BB0EE22
:1030B000471AF0EE671AB0EE480AF0EE680A18F008
:1030C00043FEB0EE407AF0EE607A87ED187B07F5AC
:1030D000A473A3F59A731B68D3E9304507F5A4736D
:1030E000A3F59A731B6803F5CC730522194697ED77
:1030F0003A1B97ED2A0B012000F0A5FD51EC100BB7
:1031000007F5A473A3F59A731B68D3E93623FDF77B
:10311000C3F802460B4610461946D7E94023FDF78F
:10312000BDF802460B4620462946FDF76DFA0246D9
:103130000B46D7E91801FDF7B1F802460B46C7E97F
:103140001623154BD3E90023D7E91601FDF786FBBB
:1031500002460B46C7E9142307F5A473A3F59C7335
:103160001B6803F40043002B18D007F5A473A3F5E4
:103170009A731B68D3E90201D7E91423FDF78EF88F
:1031800002460B4643EC172B2FE000BFAFF3008045
:10319000000000000000F03FD804002007F5A473F1
:1031A000A3F59A731B6893ED027BB0EE470AF0EE2D
:1031B000670AFEF771FB55EC104B97ED140BFEF709
:1031C0006BFB53EC102B20462946FDF767F80246AF
:1031D0000B4643EC172BB0EE470AF0EE670AFEF7FA
:1031E0005BFBB0EE407AF0EE607A87ED4E7BD7F86D
:1031F000CC3003F08003002B18D007F5A473A3F59F
:103200009A731B68D3E91601D7E93823FDF7FCF957
:1032100002460B4643EC172BB0EE471AF0EE671A46
:1032200097ED240BFEF790FC87ED500BD7F8CC30D0
:1032300003F40073002B07D097ED201B97ED220BB2
:10324000FEF782FC87ED4C0BD7F8CC2043F2050348
:103250001340002B00F0B68107F5A473A3F59A7311
:103260001B6803F5B07307F148021446062219469D
:1032700097ED3A1B97ED2A0B012000F0E4FC84ED5A
:10328000000B07F5A473A3F59A731B68D3E92E010D
:103290004FF000025F4BFDF701F802460B46144663
:1032A0001D4607F5A473A3F59A731B68D3E934236D
:1032B00007F14801D1E90001FCF7EEFF02460B4699
:1032C00007F148010E4620462946FDF79DF90246C2
:1032D0000B4646E9022307F5A473A3F59A731B680E
:1032E000D3E92C0107F5A473A3F59A731B68D3E9FE
:1032F0002E23FCF7D1FF02460B4610461946D7E9AC
:103300004023FDF781F902460B4614461D4607F19E
:10331000480353E90223D7E93C01FCF7BDFF02460D
:103320000B4607F138010E4620462946FCF7B6FF4A
:1033300002460B46C6E90023D7F8CC2041F205032C
:103340001340002B68D007F5A473A3F59A731B688C
:10335000D3E9124507F5A473A3F59A731B68D3E963
:103360002001D7E92A23FDF74FF902460B46104604
:103370001946D7E92623FDF747F902460B46924640
:103380009B4607F5A473A3F59A731B68D3E92289BA
:1033900007F5A473A3F59A731B68D3E91E01D7E957
:1033A0003A23FDF731F902460B4640464946FDF700
:1033B0002BF902460B4650465946FCF76DFF024674
:1033C0000B469046994607F5A473A3F59A731B68BC
:1033D000D3E92001D7E93A23FDF716F902460B4657
:1033E0001046194607F13803D3E90023FDF70CF91D
:1033F00002460B4640464946FCF74EFF02460B4646
:1034000020462946FDF700F902460B46C7E9482346
:1034100002E000BF0000F03FD7F8CC2042F20503E5
:103420001340002B00F0CE8007F5A473A3F59A7328
:103430001B68D3E91C4507F5A473A3F59A731B68B1
:10344000D3E91E23D7E92A01FCF726FF02460B46E3
:1034500020462946FDF7D8F802460B4614461D467D
:1034600007F5A473A3F59A731B68D3E91E01D7E986
:103470002A23FCF713FF02460B4620462946FDF798
:10348000C3F802460B4614461D4607F5A473A3F580
:103490009A731B68D3E92201D7E92623FCF7FEFEC5
:1034A00002460B4607F138010E4620462946FDF735
:1034B000D5F902460B4646E9022307F138031946BF
:1034C000D7E92A2351E90201FDF79EF802460B468F
:1034D00014461D4607F13803D3E90023D7E93A0122
:1034E000FDF792F802460B4620462946FCF7D4FE2B
:1034F00002460B461046194607F5A473A3F59A73C6
:103500001B68D3E91E23FDF77FF802460B461046E1
:10351000194607F5A473A3F59A731B68D3E9222310
:10352000FDF79CF902460B461046194607F11803B1
:10353000D3E90023FCF7B2FE02460B46C7E9462357
:1035400007F11803D3E9004507F5A473A3F59A73AF
:103550001B68D3E91E0107F1380353E90223FDF785
:1035600053F802460B469046994607F5A473A3F517
:103570009A731B68D3E9200107F13803D3E90023CC
:10358000FDF742F802460B4640464946FCF784FEEA
:1035900002460B4610461946D7E92A23FDF734F8B0
:1035A00002460B4610461946D7E92623FDF756F981
:1035B00002460B4620462946FCF76EFE02460B46A5
:1035C000C7E94423D7F8CC2044F210031340002B62
:1035D00000F0888107F5A473A3F59A731B6803F5BF
:1035E000E47307F1280214460622194697ED3A1BA8
:1035F00097ED2A0B002000F026FB84ED000B07F569
:10360000A473A3F59A731B68D3E91A014FF0000263
:103610004FF00003FDF760FA0346002B0FD107F5CA
:10362000A473A3F59A731B68D3E918014FF0000245
:103630004FF00003FDF750FA0346002B48D007F582
:10364000A473A3F59A731B68D3E90C01D7E922236D
:10365000FCF7DAFF02460B4614461D4607F5A47335
:10366000A3F59A731B68D3E90A01D7E92023FCF775
:10367000CBFF02460B4620462946FCF70DFE0246CC
:103680000B46C7E9362307F5A473A3F59A731B68A5
:10369000D3E90C01D7E92023FCF7B6FF02460B461D
:1036A00014461D4607F5A473A3F59A731B68D3E966
:1036B0000A01D7E92223FCF7A7FF02460B46204662
:1036C0002946FCF7EBFD02460B46C7E93423CEE062
:1036D00007F5A473A3F59A731B68D3E91A0107F5DC
:1036E000A473A3F59A731B68D3E91823FCF78CFF26
:1036F00002460B469046994607F11803D3E90001AC
:103700004FF000024FF00003FDF7FAF90346002BDB
:1037100031D007F5A473A3F59A731B68D3E920454C
:1037200007F11803D3E900234FF00000BC49FCF770
:10373000B3FD02460B4620462946FCF765FF0246CC
:103740000B4614461D4607F5A473A3F59A731B6830
:10375000D3E91E0107F1280353E90223FCF754FFC4
:1037600002460B4620462946FCF798FD02460B46CA
:10377000104619463AE007F5A473A3F59A731B683F
:10378000D3E9200107F1280353E90223FCF73CFFAA
:1037900002460B4614461D4607F11803D3E9000103
:1037A0004FF000029E4BFCF779FD02460B46204687
:1037B0002946FDF753F802460B461046194607F511
:1037C000A473A3F59A731B68D3E91E23FCF766FD67
:1037D00002460B461046194607F1280353E9022317
:1037E000FCF712FF02460B461046194642464B466E
:1037F000FCF70AFF02460B46C7E9362307F5A47318
:10380000A3F59A731B6893ED187BB0EE470AF0EEB0
:10381000670AFDF79DFF55EC104B07F5A473A3F560
:103820009A731B6893ED1A7BB0EE470AF0EE670AB5
:10383000FDF78EFF51EC100B07F5A473A3F59A73F7
:103840001B68D3E92023FCF7DFFE02460B46104637
:103850001946D7E93A23FCF7D7FE02460B46204625
:103860002946FCF71BFD02460B46C7E9342307F542
:10387000A473A3F59A731B68D3E9144597ED341B21
:1038800097ED360B18F060FA53EC102B20462946C2
:10389000FCF7BAFE02460B469046994607F5A4731C
:1038A000A3F59A731B68D3E9384507F5A473A3F50C
:1038B0009A731B68D3E93A2307F12801D1E9000183
:1038C000FCF7EAFC02460B4620462946FCF79CFE24
:1038D00002460B4640464946FCF7E0FC02460B46D2
:1038E000C7E94223D7F8CC3003F08003002B0FD078
:1038F00007F5A473A3F5A2731B68002B08D007F586
:10390000A473A3F5A2731968D7E95023C1E9002372
:10391000D7F8CC3003F48473002B0FD007F5A473D1
:10392000A3F5A4731B68002B08D007F5A473A3F5B7
:10393000A4731968D7E94E23C1E90023D7F8CC3026
:1039400003F40073002B09D0D7F87831002B05D091
:10395000D7F87811D7E94C23C1E90023D7F8CC2058
:1039600040F201431340002B09D0D7F87C31002BE3
:1039700005D0D7F87C11D7E94A23C1E90023D7F84D
:10398000CC2041F205031340002B09D0D7F8803139
:10399000002B05D0D7F88011D7E94823C1E90023CF
:1039A000D7F8CC2042F205031340002B13D0D7F8F0
:1039B0008431002B05D0D7F88411D7E94623C1E91B
:1039C0000023D7F88831002B05D0D7F88811D7E924
:1039D0004423C1E90023D7F8CC2044F2100313405C
:1039E000002B09D0D7F88C31002B05D0D7F88C11DB
:1039F000D7E94223C1E9002307F5A473A3F59C731B
:103A00001B6803F00103002B0ED1064BD3E9002302
:103A1000D7E94001FCF722FF02460B4608E000BF51
:103A20000000F03FD804002007F10803D3E9002389
:103A300043EC172BB0EE470AF0EE670A07F5A677BE
:103A4000BD46BDEC028BBDE8F08F00BFB0B5ADF553
:103A5000147D06AF07F50E74A4F50374206007F11A
:103A6000280000ED020B07F1180080ED001B07F1A4
:103A7000180000ED022B07F50E70A0F50470016030
:103A800007F1080181ED003B07F50E71A1F50D71FD
:103A90000A6007F50E72A2F50E72136007F50E7339
:103AA000A3F50D731B68002B01D0802200E00022DB
:103AB00007F50E73A3F50E731B68002B02D04FF4AD
:103AC000847300E000231343D7F84822002A02D071
:103AD0004FF4007200E000221343D7F84C22002A72
:103AE00002D040F2014200E000221343D7F85022F6
:103AF000002A02D041F2050200E000221343D7F869
:103B00005422002A03D1D7F85822002A02D042F2C8
:103B1000050200E000221343D7F85C22002A02D0FD
:103B200044F2100200E000221343C7F8343207F5D4
:103B30000E73A3F504731B6803F00103002B01D07F
:103B4000002201E040F60302D7F834321A4307F1AD
:103B500018031D4607F118031C4607F128031946F0
:103B600007F50E73A3F5037307F1300015ED022B73
:103B700094ED001B11ED020B1968FEF71FFD07F510
:103B80000E73A3F50E7307F50E72A2F50D7207F111
:103B900008010D4607F50E71A1F5047107F1300417
:103BA000D7F85C020590D7F858020490D7F8540271
:103BB0000390D7F850020290D7F84C020190D7F842
:103BC000480200901B68126895ED000B09682046BA
:103BD000FEF736FDB0EE407AF0EE607AB0EE470ABE
:103BE000F0EE670A07F50E77BD46B0BD80B592B01E
:103BF00006AFF86287ED080B87ED061B87ED042BF7
:103C000087ED023BB9627A603B6000230593002395
:103C100004930023039300230293002301933B6842
:103C200000937B68BA6A97ED023B002197ED042B65
:103C300097ED061B97ED080BF86AFFF707FF00BF2B
:103C40003037BD4680BDB0B58EB000AFF86187EDAE
:103C5000040B87ED021BB9617A607A68FB69134433
:103C6000DB00BA691344BB61D7E90423D7E9020139
:103C7000FCF712FB02460B461046194602460B465D
:103C8000FCF70CFB02460B4614461D46D7E90423FD
:103C9000D7E90201FCF702FB02460B462046294603
:103CA000FCF7B2FC02460B46C7E908237B6803F029
:103CB0000103002B06D0BB69083BBB61BB69D3E99C
:103CC000002303E04FF000024FF00003C7E90C238C
:103CD0004FF000024FF00003C7E90A237B68DA0FB8
:103CE00013445B107B603BE0D7E90C23D7E9080164
:103CF000FCF78AFC02460B4610461946D7E90A2310
:103D0000FCF7CAFA02460B4610461946BB69083B47
:103D1000BB61BB69D3E90023FCF7C0FA02460B463E
:103D2000C7E90A23D7E90A23D7E90801FCF76CFCA5
:103D300002460B4610461946D7E90C23FCF7ACFAAD
:103D400002460B4610461946BB69083BBB61BB697E
:103D5000D3E90023FCF7A2FA02460B46C7E90C237D
:103D60007B685A1E7A60002BBED1FB69002B18D0ED
:103D7000D7E9040102460B46FCF790FA02460B46CF
:103D800010461946D7E90223FCF73EFC02460B46D3
:103D900010461946D7E90C23FCF736FC02460B46C1
:103DA0000FE0D7E90A23D7E90C01FCF775FA0246C0
:103DB0000B4610461946D7E90223FCF725FC0246BC
:103DC0000B4643EC172BB0EE470AF0EE670A383784
:103DD000BD46B0BD80B584B000AFF86087ED000B84
:103DE000FB68483397ED000B19460520FDF7C6FC2C
:103DF000B0EE407AF0EE607AB0EE470AF0EE670A75
:103E00001037BD4680BD000090B58BB000AFF860A4
:103E100087ED000BB9604FF00002204BC7E9082383
:103E20000023FB610123BB612FE0BB69C3F10503E4
:103E30007B61D7E90023D7E90801FCF7E5FB0246DF
:103E40000B46C7E90823FB6803F17802FB69DB0036
:103E5000134497ED000B19467869FDF78FFC51EC80
:103E6000100BBB69DB00BA68D418D7E90823FCF74C
:103E7000CBFB02460B46C4E900237B690133FA6998
:103E80001344FB61BB690133BB61BB69052BCCDD0E
:103E900000BF00BF2C37BD4690BD00BF0000F03F03
:103EA00090B58BB000AFF86087ED000BB9604FF0B4
:103EB0000002204BC7E908230023FB610023BB61FC
:103EC0002FE0BB69C3F105037B61FB6803F1F002DE
:103ED000FB69DB00134497ED000B19467869FDF789
:103EE0004DFC51EC100BBB69DB00BA68D418D7E964
:103EF0000823FCF789FB02460B46C4E900237B69D3
:103F00000133FA691344FB61D7E90023D7E90801BB
:103F1000FCF77AFB02460B46C7E90823BB6901336D
:103F2000BB61BB69052BCCDD00BF00BF2C37BD4694
:103F300090BD00BF0000F03FB0B586B000AF87ED88
:103F4000000B03237B6197ED000BFDF701FCB0EE46
:103F5000407AF0EE607AB0EE470AF0EE670A1A494E
:103F60007869FDF70BFC51EC100B7B690133164AA5
:103F7000DB001344D3E90023FCF770FC02460B4638
:103F8000C7E90223D7E90023D7E90201FCF786F944
:103F900002460B4614461D46D7E900234FF00000A9
:103FA0000A49FCF779F902460B4620462946FCF7F8
:103FB00055FC02460B4643EC172BB0EE470AF0EED9
:103FC000670A1837BD46B0BD480802080000F03F38
:103FD0002DE990438DB000AF87ED020B786097ED2F
:103FE000020BFDF7B5FB87ED060BD7E90223C7E906
:103FF0000A2300237B6201233B6241E03B6AC3F159
:104000000603DA0F13445B107B617B6ADB00214AF5
:10401000134497ED060B19467869FDF7AFFB51EC99
:10402000100BD7E90A23FCF7EFFA02460B4690463D
:1040300099467A6A7B6913440133164ADB001344BC
:10404000D3E90023396AC9007868441840464946D4
:10405000FCF704FC02460B46C4E900237B690233EB
:104060007A6A13447B62D7E90223D7E90A01FCF795
:10407000CBFA02460B46C7E90A233B6A01333B628F
:104080003B6A062BBADD00BF00BF3437BD46BDE832
:10409000908300BF700802082DE990438DB000AFF7
:1040A00087ED020B786097ED020BFDF751FB87ED72
:1040B000060BD7E90223C7E90A2300237B62012309
:1040C0003B6241E03B6AC3F10603DA0F13445B1025
:1040D0007B617B6ADB00214A134497ED060B19468E
:1040E0007869FDF74BFB51EC100BD7E90A23FCF77D
:1040F0008BFA02460B46904699467A6A7B691344CE
:104100000133164ADB001344D3E90023396AC9009E
:104110007868441840464946FCF7A0FB02460B4627
:10412000C4E900237B6902337A6A13447B62D7E9CE
:104130000223D7E90A01FCF767FA02460B46C7E9F2
:104140000A233B6A01333B623B6A062BBADD00BFA0
:1041500000BF3437BD46BDE8908300BF00090208A8
:10416000B0B586B000AF87ED000B03237B6197ED00
:10417000000BFDF7EDFAB0EE407AF0EE607AB0EEAB
:10418000470AF0EE670A1A497869FDF7F7FA51EC29
:10419000100B7B690133164ADB001344D3E900237B
:1041A000FCF75CFB02460B46C7E90223D7E9002374
:1041B000D7E90201FCF770F802460B4614461D468B
:1041C0004FF000020B4BD7E90001FCF767F80246FD
:1041D0000B4620462946FCF741FB02460B4643ECC2
:1041E000172BB0EE470AF0EE670A1837BD46B0BD90
:1041F000900902080000F03F2DE990438DB000AF18
:1042000087ED020B786097ED020BFDF7A1FA87EDC1
:10421000060BD7E90223C7E90A2300237B620123A7
:104220003B6241E03B6AC3F10603DA0F13445B10C3
:104230007B617B6ADB00214A134497ED060B19462C
:104240007869FDF79BFA51EC100BD7E90A23FCF7CC
:10425000DBF902460B46904699467A6A7B6913441D
:104260000133164ADB001344D3E90023396AC9003D
:104270007868441840464946FCF7F0FA02460B4677
:10428000C4E900237B6902337A6A13447B62D7E96D
:104290000223D7E90A01FCF7B7F902460B46C7E942
:1042A0000A233B6A01333B623B6A062BBADD00BF3F
:1042B00000BF3437BD46BDE8908300BFB80902088F
:1042C0002DE9904387B000AF786000237B61002325
:1042D0003B610523FB6039E0FB68C3F10503FA6825
:1042E0009342A8BF1346BB607B69DB001C4A1A449B
:1042F0007B6893ED0A7BB0EE470AF0EE670A114641
:10430000B868FDF73BFA59EC108B7A69BB68134427
:104310000133134ADB001344D3E900233C69611CD9
:10432000396140464946FCF799FA02460B467868DF
:1043300004F10901C9000144C1E90023BB6802334B
:104340007A6913447B61FB68013BFB60FB68002BCF
:10435000C2DA00BF00BF1C37BD46BDE8908300BF76
:10436000480A02082DE9904389B000AF7860002325
:10437000FB610023BB6101237B6143E005233B61BB
:1043800039E03B69C3F105033A699342A8BF13467C
:10439000FB60FB69DB00204A1A447B6893ED0A7BD3
:1043A000B0EE470AF0EE670A1146F868FDF7E6F945
:1043B00059EC108BFA69FB6813440133164ADB0091
:1043C0001344D3E90023BC69611CB96140464946E6
:1043D000FCF744FA02460B46786804F10F01C90065
:1043E0000144C1E90023FB680233FA691344FB610D
:1043F0003B69013B3B613A697B699A42C1DA7B695F
:1044000001337B617B69052BB8DD00BF00BF24371A
:10441000BD46BDE8908300BFD80A02082DE990434D
:1044200089B000AF78600023FB610023BB610023EB
:104430007B613FE005233B6135E03B69C3F1050348
:10444000FB60FB69DB00204A1A447B6893ED0A7B22
:10445000B0EE470AF0EE670A1146F868FDF78EF9EC
:1044600059EC108BFA69FB6813440133164ADB00E0
:104470001344D3E90023BC69611CB9614046494635
:10448000FCF7ECF902460B46786804F11E01C900FE
:104490000144C1E90023FB680233FA691344FB615C
:1044A0003B69013B3B613A697B699A42C5DA7B69AA
:1044B00001337B617B69052BBCDD00BF00BF243766
:1044C000BD46BDE8908300BF400C020880B500AF38
:1044D0000121074810F027F80346064A136001211E
:1044E000054810F020F80346044A136000BF80BD61
:1044F000A80E02081C050020B00E020818050020B6
:1045000080B485B000AF78600023FB730023BB60EC
:104510007B681B78242B0DD17B6801337B6009E01D
:10452000BB687A6813441A78FB7B5340FB73BB6803
:104530000133BB60BB687A6813441B78002B05D03D
:10454000BB687A6813441B782A2BE9D1FB7B184699
:104550001437BD465DF8047B7047000080B5C6B0D7
:1045600002AF07F58873A3F58673186007F58873A3
:10457000A3F586731B681B78242B11D007F588736D
:10458000A3F5867307F188001B681D4A802114F08B
:10459000FDF807F58873A3F5867307F188021A60A2
:1045A00007F58873A3F586731868FFF7A9FF03461C
:1045B00087F80F3197F80F2107F58873A3F58673F5
:1045C00007F1080000921B680E4A802114F0DEF803
:1045D000C7F80801D7F808319AB207F108014FF47B
:1045E0007A7309480EF024FD0346002B01D1002305
:1045F00000E00123184607F58877BD4680BD00BF5F
:10460000F8FA0108FCFA0108280F002080B500AF75
:104610001C48FFF7A3FF642008F098FB1A48FFF737
:104620009DFF642008F092FB1848FFF797FF642075
:1046300008F08CFB1648FFF791FF642008F086FB1A
:104640001448FFF78BFF642008F080FB1248FFF747
:1046500085FF642008F07AFB1048FFF77FFF642095
:1046600008F074FB0E48FFF779FF642008F06EFB3A
:104670004FF480720B490C480EF065FD002318467C
:1046800080BD00BF08FB010818FB010828FB0108DA
:1046900038FB010848FB010858FB010868FB0108CA
:1046A00078FB010820050020280F00202DE9B04FDD
:1046B000BEB00AAF7860396007F14803502200218C
:1046C000184614F069F907F13C0300221A605A6099
:1046D000C3F8072007F12C0300221A605A609A6081
:1046E000C3F80B2007F11C0300221A605A609A607D
:1046F000C3F80B2007F1140300221A60C3F803204B
:104700000023FB740023BB7400237B7400233B74E1
:104710000023FB7307F13C0107F1480207F10F0387
:10472000099307F11003089307F11403079307F1A6
:1047300048033833069307F148033033059307F1F4
:104740001203049307F11C03039307F1130302936D
:1047500007F12C03019307F1110300930B468B49DA
:10476000386814F06BF87B7C87F858303B7C87F80E
:104770009430FB7B87F8953007F13C03184612F024
:104780003EFAC7F8CC00D7F8CC30814A82FB03123E
:104790001213DB17D31AFB64D7F8CC307D4A82FBA7
:1047A00003125211DB17D21A7A4B83FB02135911F1
:1047B000D317CB1A642101FB03F3D31A3B65D7F857
:1047C000CC20744B83FB02135911D317CB1A6421ED
:1047D00001FB03F3D31A7B65FB7C87F87030BB7C4D
:1047E00087F8713007F12C03184612F005FA87EDAF
:1047F000300B4FF00002684BD7E93001FCF72EF880
:1048000002460B4610461946FCF7AEF90346C7F8B8
:10481000BC30D7F8BC30642202FB03F31846FBF728
:1048200089FE02460B46D7E93001FBF735FD02460B
:104830000B46C7E92C23D7F8BC00FBF77BFE82466A
:104840008B464FF00002554BD7E92C01FCF706F8D8
:1048500002460B4650465946FBF720FD02460B46E2
:10486000C7E91823FB7C532B06D1D7E918239046C0
:1048700083F00049C7E9188907F11C03184612F0B4
:10488000BBF987ED2A0B4FF00002434BD7E92A0111
:10489000FBF7E4FF02460B4610461946FCF764F9A5
:1048A0000346C7F8A430D7F8A430642202FB03F310
:1048B0001846FBF73FFE02460B46D7E92A01FBF7F5
:1048C000EBFC02460B46C7E92623D7F8A400FBF70A
:1048D00031FE804689464FF00002304BD7E9260171
:1048E000FBF7BCFF02460B4640464946FBF7D6FCA9
:1048F00002460B46C7E91A23BB7C572B06D1D7E9E2
:104900001A23144683F00045C7E91A4507F114033A
:104910001846FBF7B5FC0346062B2AD107F10C031A
:1049200000210A461A800A469A703B7D3B737B7DC4
:104930007B7307F10C03184612F061F90346C7F8C0
:104940008830BB7D3B73FB7D7B7307F10C031846FE
:1049500012F055F90346C7F88C303B7E3B737B7EE3
:104960007B7307F10C03184612F049F90346C7F8A8
:1049700090307B68184607F148035022194614F01E
:1049800010F97868D037BD46BDE8B08F84FB0108C8
:10499000AD8BDB681F85EB510000594000004E4095
:1049A0002DE9B04FB6B008AF7860396007F1500319
:1049B00038220021184613F0EFFF07F140030022D0
:1049C0001A605A609A60C3F80B2007F13003002286
:1049D0001A605A609A60C3F80B200023FB62002320
:1049E000BB624FF000024FF00003C7E908234FF00D
:1049F00000024FF00003C7E906234FF000024FF01A
:104A00000003C7E904230023FB730023BB7307F1F2
:104A10000F0107F1400207F11003069307F1180395
:104A2000059307F12003049307F12803039307F18B
:104A30002C03029307F10E03019307F13003009357
:104A40000B466049386813F0F9FEFB6A7B66BB6A67
:104A5000BB66D7E90823C7E91C23D7E90623C7E9C2
:104A60001E23D7E90423C7E92023FB7B87F86030A6
:104A7000BB7B87F8613007F14003184612F0BCF8A1
:104A800087ED2C0B4FF000024F4BD7E92C01FBF7C1
:104A9000E5FE02460B4610461946FCF765F803464C
:104AA000C7F8AC30D7F8AC30642202FB03F31846E9
:104AB000FBF740FD02460B46D7E92C01FBF7ECFB68
:104AC00002460B46C7E92823D7F8AC00FBF732FDB6
:104AD00082468B464FF000023C4BD7E92801FBF79A
:104AE000BDFE02460B4650465946FBF7D7FB024631
:104AF0000B46C7E91423FB7B532B06D1D7E91423BC
:104B0000904683F00049C7E9148907F1300318463D
:104B100012F072F887ED260B4FF000022A4BD7E90E
:104B20002601FBF79BFE02460B4610461946FCF792
:104B30001BF80346C7F89430D7F89430642202FB80
:104B400003F31846FBF7F6FC02460B46D7E92601AD
:104B5000FBF7A2FB02460B46C7E92223D7F89400D5
:104B6000FBF7E8FC804689464FF00002174BD7E977
:104B70002201FBF773FE02460B4640464946FBF70F
:104B80008DFB02460B46C7E91623BB7B572B06D18C
:104B9000D7E91623144683F00045C7E916457B681C
:104BA0001D4607F150040FCC0FC50FCC0FC50FCC1D
:104BB0000FC594E8030085E803007868B837BD4660
:104BC000BDE8B08FC4FB01080000594000004E4012
:104BD000B0B5A6B000AF424BC7F89430404BC7F811
:104BE000903072E0D7F894301B780D2B68D1D7F84D
:104BF000943001331B780A2B62D1D7F89420D7F870
:104C00009030D31AC7F88C30D7F88C30002B09DCE1
:104C1000D7F894300233C7F89430D7F89430C7F8F7
:104C2000903052E0D7F88C307F2B02DD7F23C7F81D
:104C30008C30D7F88C301A46D7F89010294813F0EA
:104C4000B0FF284AD7F88C30134400221A70264946
:104C5000244813F0BBFE0346002B14D0234C07F16D
:104C6000500320491846FFF79BFE254607F15004E4
:104C70000FCC0FC50FCC0FC50FCC0FC594E80300A8
:104C800085E8030012E01A49164813F09FFE034618
:104C9000002B0BD0174C3B4612491846FFF706FD78
:104CA00020463B465022194613F07BFFD7F894303C
:104CB0000233C7F89430D7F89430C7F8903004E046
:104CC000D7F894300133C7F89430D7F894301B7874
:104CD000002B87D1002318469837BD46B0BD00BFD2
:104CE000200500202006002004FC0108A00600206A
:104CF00008FC0108D806002080B483B000AF7860BB
:104D00000C4BD3E900237968C1E90023094BD3E9AF
:104D100002237968C1E90223064BD3E90A237968A3
:104D2000C1E90423002318460C37BD465DF8047B17
:104D3000704700BFA006002080B500AF084BD3E944
:104D400008014FF000024FF00003FBF7C5FE0346D9
:104D5000002B01D1012300E00023184680BD00BFD5
:104D6000A0060020000000002DE9B04F98B000AF71
:104D7000786039607B68D3E90023C7E914237B6836
:104D8000D3E90223C7E912237B68D3E90423C7E9E7
:104D900010237B681833D3E90023C7E90E237B680F
:104DA0001833D3E90223C7E90C237B681833D3E90E
:104DB0000423C7E90A237B683033D3E90023C7E91A
:104DC00008237B683033D3E90223C7E906237B68D5
:104DD0003033D3E90423C7E90423D7E90423D7E90F
:104DE0000C01FBF711FC02460B4690469946D7E9A9
:104DF0000623D7E90A01FBF707FC02460B464046AB
:104E00004946FBF749FA02460B4610461946D7E9D0
:104E10001423FBF7F9FB02460B4690469946D7E967
:104E20000423D7E90E01FBF7EFFB02460B4692463F
:104E30009B46D7E90823D7E90A01FBF7E5FB0246C1
:104E40000B4650465946FBF727FA02460B461046DA
:104E50001946D7E91223FBF7D7FB02460B4640461B
:104E60004946FBF719FA02460B4690469946D7E9A0
:104E70000623D7E90E01FBF7C7FB02460B46924615
:104E80009B46D7E90823D7E90C01FBF7BDFB024697
:104E90000B4650465946FBF7FFF902460B461046B3
:104EA0001946D7E91023FBF7AFFB02460B464046F5
:104EB0004946FBF7F3F902460B46C7E91623BC6DDA
:104EC000FB6D23F00045B5A3D3E900232046294616
:104ED000FBF70CFE0346002B04D0B0A3D3E900235C
:104EE000C7E91623D7E916234FF00000AA49FBF7BC
:104EF000B5FC02460B46C7E90223D7E90423D7E9EC
:104F00000C01FBF781FB02460B4614461D46D7E910
:104F10000623D7E90A01FBF777FB02460B4620463A
:104F20002946FBF7B9F902460B4610461946D7E960
:104F30000223FBF769FB02460B463968C1E90023EF
:104F4000D7E90623D7E91001FBF75EFB02460B46C3
:104F500014461D46D7E90423D7E91201FBF754FB99
:104F600002460B4620462946FBF796F902460B46B9
:104F700010461946D7E90223FBF746FB02460B46CB
:104F80003968C1E90223D7E90A23D7E91201FBF7FF
:104F90003BFB02460B4614461D46D7E90C23D7E9D6
:104FA0001001FBF731FB02460B4620462946FBF772
:104FB00073F902460B4610461946D7E90223FBF760
:104FC00023FB02460B463968C1E90423D7E90823CD
:104FD000D7E90A01FBF718FB02460B4614461D46AB
:104FE000D7E90423D7E90E01FBF70EFB02460B4677
:104FF00020462946FBF750F902460B461046194653
:105000003B6803F11804D7E90223FBF7FDFA0246D7
:105010000B46C4E90023D7E90423D7E91401FBF7C1
:10502000F3FA02460B4614461D46D7E90823D7E992
:105030001001FBF7E9FA02460B4620462946FBF72A
:105040002BF902460B46104619463B6803F118043B
:10505000D7E90223FBF7D8FA02460B46C4E902233C
:10506000D7E90E23D7E91001FBF7CEFA02460B462B
:1050700014461D46D7E90A23D7E91401FBF7C4FA01
:1050800002460B4620462946FBF706F902460B4628
:10509000104619463B6803F11804D7E90223FBF7D1
:1050A000B3FA02460B46C4E90423D7E90623D7E93D
:1050B0000E01FBF7A9FA02460B4614461D46D7E936
:1050C0000823D7E90C01FBF79FFA02460B4620465E
:1050D0002946FBF7E1F802460B46104619463B68A5
:1050E00003F13004D7E90223FBF78EFA02460B46A0
:1050F000C4E90023D7E91223D7E90801FBF784FAB2
:1051000002460B4614461D46D7E90623D7E914018B
:10511000FBF77AFA02460B4620462946FBF7BCF815
:1051200002460B46104619463B6803F13004D7E9A6
:105130000223FBF769FA02460B46C4E90223D7E9CA
:105140000C23D7E91401FBF75FFA02460B4614461D
:105150001D46D7E90E23D7E91201FBF755FA02469F
:105160000B4620462946FBF797F802460B461046A9
:1051700019463B6803F13004D7E90223FBF744FAF0
:1051800002460B46C4E9042300BF6037BD46BDE8B4
:10519000B08F00BFAFF300800000F03F11EA2D8117
:1051A0009997713D0000000080B58CB000AFF860A9
:1051B00087ED000B4FF430720021F86813F0ECFB20
:1051C000F968D7E90023C1E9AE230023FB6210E0B0
:1051D000F968FA6A1346DB009B1ADB000B4403F103
:1051E00030014FF000023E4BC1E90023FB6A01335E
:1051F000FB62FB6A022BEBDD0323BB6210E0F96864
:10520000BA6A1346DB009B1ADB000B4403F1300142
:105210004FF00002334BC1E90023BB6A0133BB628C
:10522000BB6A052BEBDD26A3D3E90023C7E90623E0
:1052300025A3D3E90023C7E9042300237B620FE001
:10524000F9687A6A1346DB009B1ADB000B4403F50E
:10525000A871D7E90623C1E900237B6A01337B6289
:105260007B6A022BECDD03233B620FE0F9683A6AAC
:105270001346DB009B1ADB000B4403F5A871D7E94A
:105280000423C1E900233B6A01333B623B6A052BDF
:10529000ECDDF9680EA3D3E90023C1E99C23F9688A
:1052A0000BA3D3E90023C1E9A423F9680AA3D3E936
:1052B0000023C1E9AC2300BF3037BD4680BD00BF2D
:1052C000BBBDD7D9DF7CDB3D8DEDB5A0F7C6B03EC9
:1052D00095D626E80B2E113E9A9999999999A93F4E
:1052E0000000F03F000014402DE9F043E3B000AFB0
:1052F00007F5C473A3F5B673186007F1180303ED3F
:10530000020B07F1080383ED001B07F1080303ED0F
:10531000022B07F5C473A3F5B6731B68D3E9AE235C
:10532000C7E95A234FF00002AB4BD7E95A01FBF70C
:105330006BF902460B46D7E95A01FBF765F90246BD
:105340000B46C7E9582307F1180319469CA3D3E974
:10535000002351E90201FBF781FA02460B46C7E937
:10536000562307F5C473A3F5B6731B68D3E9000190
:1053700095A3D3E90023FBF747F902460B46C7E99B
:10538000542397ED540B16F04BFF87ED600B90A361
:10539000D3E90023D7E96001FBF7A8FB0346002B04
:1053A00004D08BA3D3E90023C7E9602384A3D3E906
:1053B0000023D7E96001FBF727F902460B4607F106
:1053C0000801D1E90001FBF749FA02460B46C7E99B
:1053D000522307F1080353E90223C7E9502307F5D5
:1053E000C473A3F5B6731B68D3E9004507F5C4730E
:1053F000A3F5B6731B68D3E90601D7E95A23FBF777
:1054000003F902460B4690469946D7E95823D7E957
:105410005601FBF7F9F802460B4640464946FAF7B3
:105420003DFF02460B4620462946FAF737FF024663
:105430000B4607F5C471A1F5B6710968C1E90023EF
:1054400007F5C473A3F5B6731B68D3E9024507F5E6
:10545000C473A3F5B6731B68D3E90801D7E95A23CF
:10546000FBF7D2F802460B4690469946D7E95823F7
:10547000D7E95201FBF7C8F802460B4640464946B9
:10548000FAF70CFF02460B4620462946FAF706FFBC
:1054900002460B4607F5C471A1F5B6710968C1E96A
:1054A000022307F5C473A3F5B6731B68D3E904455B
:1054B00007F5C473A3F5B6731B68D3E90A01D7E9EE
:1054C0005A23FBF7A1F802460B4690469946D7E9C6
:1054D0005823D7E95001FBF797F802460B464046A0
:1054E0004946FAF7DBFE02460B4620462946FAF704
:1054F000D5FE02460B4607F5C471A1F5B6710968E1
:10550000C1E9042307F5C473A3F5B6731B68D3E997
:105510000645D7E95A23D7E95601FBF775F8024645
:105520000B4620462946FAF7B9FE02460B4607F518
:10553000C471A1F5B6710968C1E9062307F5C47302
:10554000A3F5B6731B68D3E90845D7E95A23D7E911
:105550005201FBF759F802460B4620462946FAF756
:105560009DFE02460B4607F5C471A1F5B6710968A8
:10557000C1E9082307F5C473A3F5B6731B68D3E923
:105580000A45D7E95A23D7E95001FBF73DF802460F
:105590000B4620462946FAF781FE02460B4607F5E0
:1055A000C471A1F5B6710968C1E90A230023C7F8DF
:1055B0007C3192E00023C7F8783185E0AFF30080BA
:1055C00000000000782DFB40399D52A246DF913F3C
:1055D0002D431CEBE2361A3F0000E03F07F5C47391
:1055E000A3F5B6731968D7F87C2113465B00134402
:1055F0005B00D7F8782113440633DB000B44D3E972
:10560000000107F5C473A3F5B474D7F87C211346E1
:105610005B0013445B00D7F878211344DB0023447C
:10562000C3E90001D7F87C31022B48DC07F5C473CD
:10563000A3F5B471D7F87C2113465B0013445B00DB
:10564000D7F878211344DB000B44D3E9004507F574
:10565000C473A3F5B6731B68D3E9AE01D7F87C31E8
:10566000DA1C07F5C473A3F5B6731E6813465B0016
:1056700013445B00D7F8782113440633DB0033442E
:10568000D3E90023FAF7C0FF02460B46204629461D
:10569000FAF704FE02460B461046194607F5C47396
:1056A000A3F5B474D7F87C2113465B0013445B0068
:1056B000D7F878211344DB002344C3E90001D7F86D
:1056C00078310133C7F87831D7F87831052B85DD8B
:1056D000D7F87C310133C7F87C31D7F87C31052B02
:1056E0007FF768AF0023C7F87431C4E00023C7F820
:1056F0007031B6E007F5C473A3F5B471D7F874211F
:1057000013465B0013445B00D7F870211344DB00A1
:105710000B44D3E9000107F5C473A3F5B6731C6805
:10572000D7F8742113465B0013445B00D7F870214F
:1057300013440633DB002344C3E90001D7F870317A
:10574000022B4ADC07F5C473A3F5B6731968D7F8C2
:10575000742113465B0013445B00D7F87021134497
:105760000633DB000B44D3E90045D7F87031D81C71
:1057700007F5C473A3F5B471D7F8742113465B0021
:1057800013445B000344DB000B44D3E9000107F53D
:10579000C473A3F5B6731B68D3E9AE23FAF734FFDD
:1057A00002460B4620462946FAF778FD02460B468C
:1057B0001046194607F5C473A3F5B6731C68D7F8ED
:1057C000742113465B0013445B00D7F87021134427
:1057D0000633DB002344C3E9000107F5C473A3F5D6
:1057E000B6731968D7F8742113465B0013445B0045
:1057F000D7F8702113440633DB000B44D3E90001D2
:1058000007F5C473A3F5B6731C68D7F87421134663
:105810005B0013445B00D7F8702113442A33DB008C
:105820002344D3E90023FAF739FD02460B4610461C
:10583000194607F5C473A3F5B6731C68D7F874212D
:1058400013465B0013445B00D7F870211344063302
:10585000DB002344C3E90001D7F870310133C7F8F6
:105860007031D7F87031052B7FF744AFD7F874311A
:105870000133C7F87431D7F87431052B7FF736AF91
:1058800000BF00BF07F5C677BD46BDE8F08300BF87
:10589000F0B5ADF52B7D00AF07F52A73A3F52373A3
:1058A000186007F1180303ED020B07F1080383EDFD
:1058B000001B07F1080303ED022B07F52A73A3F57C
:1058C00023731B68D3E9002307F1180151E9020192
:1058D000FAF7E2FC02460B46C7E9982307F52A735C
:1058E000A3F523731B68D3E9022307F10801D1E96B
:1058F0000001FAF7D1FC02460B46C7E99A2307F5E7
:105900002A73A3F523731B68D3E9042307F1080165
:1059100051E90201FAF7C0FC02460B46C7E99C2395
:105920000023C7F8A4324BE00023C7F8A0323EE0C2
:1059300007F52A73A3F523731968D7F8A422134631
:105940005B0013445B00D7F8A02213440633DB004E
:105950000B44D3E9000107F52A73A3F523731C68F0
:10596000D7F8A42213465B001344D7F8A0221344AF
:105970004E33DB002344D3E90023FAF78FFC0246C1
:105980000B4610461946D7F8A42213465B00134471
:10599000D7F8A0221344DB0003F52A733B44903B65
:1059A000C3E90001D7F8A0320133C7F8A032D7F815
:1059B000A032022BBCDDD7F8A4320133C7F8A432E1
:1059C000D7F8A432022BAFDD07F5E87207F50673AE
:1059D00011461846FFF7C8F90023C7F89C3280E04B
:1059E0000023C7F8983273E007F52A73A3F5B47162
:1059F000D7F89C2213465B001344D7F8982213442F
:105A0000DB0019444FF000024FF00003C1E900230E
:105A10000023C7F8943252E007F52A73A3F5B47156
:105A2000D7F89C2213465B001344D7F898221344FE
:105A3000DB000B44D3E9004507F52A73A3F5237374
:105A40001968D7F89C2213465B0013445B00D7F813
:105A5000942213440633DB000B44D3E90001D7F84A
:105A6000942213465B001344D7F898221344DB00BA
:105A700003F52A733B44D83BD3E90023FAF7C4FD6E
:105A800002460B4620462946FAF708FC02460B461A
:105A90001046194607F52A73A3F5B474D7F89C226B
:105AA00013465B001344D7F898221344DB002344C9
:105AB000C3E90001D7F894320133C7F89432D7F81C
:105AC0009432022BA8DDD7F898320133C7F8983208
:105AD000D7F89832022B87DDD7F89C320133C7F80C
