:020000040800F2
:10000000000002200DB20008E1810008E98100082B
:10001000F1810008F9810008018200080000000059
:10002000000000000000000000000000098200083D
:1000300017820008000000002582000833820008B3
:100040005DB200085DB200085DB200085DB2000854
:100050005DB200085DB200085DB200085DB2000844
:100060005DB200085DB200085DB200085DB2000834
:100070005DB200085DB200085DB200085DB2000824
:10008000418200085DB200085582000800000000AF
:100090000000000000000000000000005DB2000849
:1000A0005DB200085DB200085DB200085DB20008F4
:1000B000698200085DB200087D8200085DB2000818
:1000C0005DB200085DB200085DB2000891820008D0
:1000D0005DB20008A5820008B98200080000000097
:1000E0005DB200085DB200085DB2000800000000CB
:1000F0000000000000000000000000005DB20008E9
:10010000000000005DB200085DB200085DB20008AA
:1001100000000000000000000000000000000000DF
:100120005DB200085DB200085DB200085DB2000873
:100130005DB20008000000000000000000000000A8
:100140000000000000000000000000005DB2000898
:100150005DB200085DB20008CD8200085DB2000803
:100160005DB200085DB20008000000000000000061
:10017000000000000000000000000000000000007F
:10018000000000005DB20008000000000000000058
:080190005DB200085DB2000839
:1001A00010B5054C237833B9044B13B10448AFF3B1
:1001B00000800123237010BDE0010020000000003A
:1001C0008895010808B5034B1BB103490348AFF3F9
:1001D000008008BD00000000E401002088950108AF
:1001E00001F0FF01102A2BDB10F0070F08D010F8E8
:1001F000013B013A8B422DD010F0070F42B3F6D1EC
:10020000F0B441EA012141EA014122F007047FF004
:1002100000070023F0E80256083C85EA010586EA5B
:10022000010685FA47F5A3FA87F586FA47F6A5FA97
:1002300087F68EB9EED1F0BC01F0FF0102F00702A3
:1002400032B110F8013B013A83EA010313B1F8D14E
:100250000020704701387047002D06BF354603382F
:10026000073815F0010F07D1013015F4807F02BF68
:10027000013015F4C03F0130F0BC0138704700BFB9
:10028000034613F8012B002AFBD1181A01387047D6
:1002900081F0004102E000BF83F0004330B54FEA37
:1002A00041044FEA430594EA050F08BF90EA020FA4
:1002B0001FBF54EA000C55EA020C7FEA645C7FEA37
:1002C000655C00F0E2804FEA5454D4EB5555B8BF5A
:1002D0006D420CDD2C4480EA020281EA030382EACB
:1002E000000083EA010180EA020281EA0303362D5D
:1002F00088BF30BD11F0004F4FEA01314FF4801C30
:100300004CEA113102D0404261EB410113F0004F41
:100310004FEA03334CEA133302D0524263EB4303F8
:1003200094EA050F00F0A780A4F10104D5F1200E96
:100330000DDB02FA0EFC22FA05F2801841F10001F1
:1003400003FA0EF2801843FA05F359410EE0A5F1C5
:1003500020050EF1200E012A03FA0EFC28BF4CF0F6
:10036000020C43FA05F3C01851EBE37101F00045AC
:1003700007D54FF0000EDCF1000C7EEB00006EEBB9
:100380000101B1F5801F1BD3B1F5001F0CD3490843
:100390005FEA30004FEA3C0C04F101044FEA44529A
:1003A00012F5800F80F09A80BCF1004F08BF5FEA21
:1003B000500C50F1000041EB045141EA050130BD01
:1003C0005FEA4C0C404141EB0101013C28BFB1F513
:1003D000801FE9D291F0000F04BF01460020B1FA5E
:1003E00081F308BF2033A3F10B03B3F120020CDA31
:1003F0000C3208DD02F1140CC2F10C0201FA0CF00F
:1004000021FA02F10CE002F11402D8BFC2F1200C73
:1004100001FA02F120FA0CFCDCBF41EA0C01904029
:10042000E41AA2BF01EB0451294330BD6FEA040472
:100430001F3C1CDA0C340EDC04F11404C4F120025D
:1004400020FA04F001FA02F340EA030021FA04F36F
:1004500045EA030130BDC4F10C04C4F1200220FAC6
:1004600002F001FA04F340EA0300294630BD21FA04
:1004700004F0294630BD94F0000F83F4801306BFCA
:1004800081F480110134013D4EE77FEA645C18BFBE
:100490007FEA655C29D094EA050F08BF90EA020F55
:1004A00005D054EA000C04BF1946104630BD91EA4D
:1004B000030F1EBF0021002030BD5FEA545C05D150
:1004C0004000494128BF41F0004130BD14F580048F
:1004D0003CBF01F5801130BD01F0004545F0FE4103
:1004E00041F470014FF0000030BD7FEA645C1ABF38
:1004F000194610467FEA655C1CBF0B46024650EA6F
:10050000013406BF52EA033591EA030F41F400219A
:1005100030BD00BF90F0000F04BF0021704730B520
:100520004FF4806404F132044FF000054FF00001F5
:1005300050E700BF90F0000F04BF0021704730B5B6
:100540004FF4806404F1320410F0004548BF40428B
:100550004FF000013EE700BF42004FEAE2014FEAE0
:1005600031014FEA02701FBF12F07F4393F07F4FBB
:1005700081F06051704732F07F4208BF704793F0BE
:100580007F4F04BF41F40021704730B54FF46074D1
:1005900001F0004521F000411CE700BF50EA0102D4
:1005A00008BF704730B54FF000050AE050EA01027D
:1005B00008BF704730B511F0004502D5404261EBED
:1005C00041014FF4806404F132045FEA915C3FF42E
:1005D000D8AE4FF003025FEADC0C18BF03325FEACB
:1005E000DC0C18BF033202EBDC02C2F1200300FA7C
:1005F00003FC20FA02F001FA03FE40EA0E0021FAA1
:1006000002F11444BDE600BF70B54FF0FF0C4CF48E
:10061000E06C1CEA11541DBF1CEA135594EA0C0F40
:1006200095EA0C0F00F0DEF82C4481EA030621EA7B
:100630004C5123EA4C5350EA013518BF52EA0335B6
:1006400041F4801143F4801338D0A0FB02CE4FF068
:100650000005E1FB02E506F00042E0FB03E54FF098
:100660000006E1FB03569CF0000F18BF4EF0010E90
:10067000A4F1FF04B6F5007F64F5407404D25FEA8C
:100680004E0E6D4146EB060642EAC62141EA55513F
:100690004FEAC52040EA5E504FEACE2EB4F1FD0C81
:1006A00088BFBCF5E06F1ED8BEF1004F08BF5FEAFF
:1006B000500E50F1000041EB045170BD06F00046B1
:1006C00046EA010140EA020081EA0301B4EB5C045E
:1006D000C2BFD4EB0C0541EA045170BD41F4801156
:1006E0004FF0000E013C00F3AB8014F1360FDEBF7B
:1006F000002001F0004170BDC4F10004203C35DA57
:100700000C341BDC04F11404C4F1200500FA05F3D9
:1007100020FA04F001FA05F240EA020001F000427A
:1007200021F0004110EBD37021FA04F642EB0601F0
:100730005EEA430E08BF20EAD37070BDC4F10C041A
:10074000C4F1200500FA04F320FA05F001FA04F2DE
:1007500040EA020001F0004110EBD37041F10001CA
:100760005EEA430E08BF20EAD37070BDC4F12005D5
:1007700000FA05F24EEA020E20FA04F301FA05F23D
:1007800043EA020321FA04F001F0004121FA04F2E5
:1007900020EA020000EBD3705EEA430E08BF20EAB5
:1007A000D37070BD94F0000F0FD101F000464000EF
:1007B00041EB010111F4801F08BF013CF7D041EA71
:1007C000060195F0000F18BF704703F00046520075
:1007D00043EB030313F4801F08BF013DF7D043EA46
:1007E0000603704794EA0C0F0CEA135518BF95EAFC
:1007F0000C0F0CD050EA410618BF52EA4306D1D183
:1008000081EA030101F000414FF0000070BD50EAA1
:10081000410606BF1046194652EA430619D094EA2B
:100820000C0F02D150EA013613D195EA0C0F05D115
:1008300052EA03361CBF104619460AD181EA030169
:1008400001F0004141F0FE4141F470014FF0000021
:1008500070BD41F0FE4141F4780170BD70B54FF0BC
:10086000FF0C4CF4E06C1CEA11541DBF1CEA13553C
:1008700094EA0C0F95EA0C0F00F0A7F8A4EB05041E
:1008800081EA030E52EA03354FEA013100F0888015
:100890004FEA03334FF0805545EA131343EA1263DE
:1008A0004FEA022245EA111545EA10654FEA002693
:1008B0000EF000419D4208BF964244F1FD0404F54C
:1008C000407402D25B084FEA3202B61A65EB0305A8
:1008D0005B084FEA32024FF480104FF4002CB6EB65
:1008E000020E75EB030E22BFB61A754640EA0C00E5
:1008F0005B084FEA3202B6EB020E75EB030E22BF25
:10090000B61A754640EA5C005B084FEA3202B6EB65
:10091000020E75EB030E22BFB61A754640EA9C0024
:100920005B084FEA3202B6EB020E75EB030E22BFF4
:10093000B61A754640EADC0055EA060E18D04FEAB2
:10094000051545EA16754FEA06164FEAC30343EA52
:1009500052734FEAC2025FEA1C1CC0D111F4801F1F
:100960000BD141EA00014FF000004FF0004CB6E718
:1009700011F4801F04BF01430020B4F1FD0C88BFB7
:10098000BCF5E06F3FF6AFAEB5EB030C04BFB6EBC2
:10099000020C5FEA500C50F1000041EB045170BDB5
:1009A0000EF0004E4EEA113114EB5C04C2BFD4EBE2
:1009B0000C0541EA045170BD41F480114FF0000E66
:1009C000013C90E645EA060E8DE60CEA135594EAE2
:1009D0000C0F08BF95EA0C0F3FF43BAF94EA0C0FE5
:1009E0000AD150EA01347FF434AF95EA0C0F7FF45A
:1009F00025AF104619462CE795EA0C0F06D152EAAE
:100A000003353FF4FDAE1046194622E750EA410691
:100A100018BF52EA43067FF4C5AE50EA41047FF4A2
:100A20000DAF52EA43057FF4EBAE12E74FF0FF3C07
:100A300006E000BF4FF0010C02E000BF4FF0010CD8
:100A40004DF804CD4FEA410C7FEA6C5C4FEA430C51
:100A500018BF7FEA6C5C1BD001B050EA410C0CBFA0
:100A600052EA430C91EA030F02BF90EA020F002002
:100A7000704710F1000F91EA030F58BF994208BF69
:100A800090422CBFD8176FEAE37040F00100704726
:100A90004FEA410C7FEA6C5C02D150EA013C07D17D
:100AA0004FEA430C7FEA6C5CD6D152EA033CD3D0C8
:100AB0005DF8040B704700BF8446104662468C46C2
:100AC0001946634600E000BF01B5FFF7B7FF0028F5
:100AD00048BF10F1000F01BD4DF808EDFFF7F4FF1E
:100AE0000CBF012000205DF808FB00BF4DF808EDA9
:100AF000FFF7EAFF34BF012000205DF808FB00BFCC
:100B00004DF808EDFFF7E0FF94BF012000205DF8ED
:100B100008FB00BF4DF808EDFFF7CEFF94BF0120A2
:100B200000205DF808FB00BF4DF808EDFFF7C4FF9B
:100B300034BF012000205DF808FB00BF4FEA410CE4
:100B40007FEA6C5C02D150EA013C0AD14FEA430CC7
:100B50007FEA6C5C02D152EA033C02D14FF0000004
:100B600070474FF0010070474FEA410212F5001242
:100B700015D211D56FF47873B3EB625212D94FEAE4
:100B8000C12343F0004343EA505311F0004F23FACE
:100B900002F018BF404270474FF00000704750EA23
:100BA000013005D111F0004008BF6FF000407047E0
:100BB0004FF00000704700BF4A0011D212F500123A
:100BC00011D20DD56FF47873B3EB62520ED44FEAA5
:100BD000C12343F0004343EA505323FA02F0704725
:100BE0004FF00000704750EA013002D14FF0FF3063
:100BF00070474FF0000070474FEA4102B2F1E04306
:100C000024BFB3F5001CDCF1FE5C0DD901F0004CF3
:100C10004FEAC0024CEA5070B2F1004F40EB830043
:100C200008BF20F00100704711F0804F21D113F16F
:100C30003872BCBF01F00040704741F480114FEAA8
:100C40005252C2F11802C2F1200C10FA0CF320FA31
:100C500002F018BF40F001004FEAC1234FEAD3234E
:100C600003FA0CFC40EA0C0023FA02F34FEA4303B8
:100C7000CCE77FEA625307D150EA01331EBF4FF041
:100C8000FE4040F44000704701F0004040F0FE405C
:100C900040F40000704700BF80F0004002E000BF59
:100CA00081F0004142001FBF5FEA410392EA030F57
:100CB0007FEA226C7FEA236C6AD04FEA1262D2EBA1
:100CC0001363C1BFD218414048404140B8BF5B42A6
:100CD000192B88BF704710F0004F40F4000020F03F
:100CE0007F4018BF404211F0004F41F4000121F055
:100CF0007F4118BF494292EA030F3FD0A2F101029F
:100D000041FA03FC10EB0C00C3F1200301FA03F1DC
:100D100000F0004302D5494260EB4000B0F5000FFF
:100D200013D3B0F1807F06D340084FEA310102F1BE
:100D30000102FE2A51D2B1F1004F40EBC25008BF70
:100D400020F0010040EA03007047490040EB00003A
:100D5000013A28BFB0F5000FEDD2B0FA80FCACF13B
:100D6000080CB2EB0C0200FA0CF0AABF00EBC25068
:100D700052421843BCBFD0401843704792F0000F56
:100D800081F4000106BF80F400000132013BB5E7A9
:100D90004FEA41037FEA226C18BF7FEA236C21D01F
:100DA00092EA030F04D092F0000F08BF0846704784
:100DB00090EA010F1CBF0020704712F07F4F04D152
:100DC000400028BF40F00040704712F100723CBF65
:100DD00000F50000704700F0004343F0FE4040F48F
:100DE000000070477FEA226216BF08467FEA23634D
:100DF0000146420206BF5FEA412390EA010F40F438
:100E0000800070474FF0000304E000BF10F0004383
:100E100048BF40425FEA000C08BF704743F096436A
:100E200001464FF000001CE050EA010208BF704785
:100E30004FF000030AE000BF50EA010208BF70470C
:100E400011F0004302D5404261EB41015FEA010C21
:100E500002BF84460146002043F0B64308BFA3F119
:100E60008053A3F50003BCFA8CF2083AA3EBC253FB
:100E700010DB01FA02FC634400FA02FCC2F120021A
:100E8000BCF1004F20FA02F243EB020008BF20F051
:100E90000100704702F1200201FA02FCC2F12002B7
:100EA00050EA4C0021FA02F243EB020008BF20EAAC
:100EB000DC70704753B94AB9002908BF00281CBF2D
:100EC0004FF0FF314FF0FF3000F0BEB9ADF1080C2C
:100ED0006DE904CE00F03CF8DDF804E0DDE9022322
:100EE00004B0704738B50022002304460D46FFF7D2
:100EF000FDFD28B920462946BDE8384000F00AB873
:100F0000204605F1004100F005F8404261EB410147
:100F100038BD00BFD0B50C4B002206460F46FFF788
:100F200073FBFFF749FE0446FFF7F4FA074B002274
:100F3000FFF76AFB02460B4630463946FFF7ACF92D
:100F4000FFF73AFE2146D0BD0000F03D0000F04121
:100F50002DE9F047089D8E4604468846002B4AD16D
:100F60008A42174662D9B2FA82F64EB1C6F1200320
:100F700001FA06F820FA03F3B74043EA0808B44040
:100F80004FEA174E1FFA87FCB8FBFEF1230C0EFB4D
:100F9000118843EA084301FB0CF29A4209D9FB1875
:100FA00001F1FF3080F0EA809A4240F2E780023996
:100FB0003B449A1AA3B2B2FBFEF00EFB102243EAA6
:100FC000024300FB0CFC9C4509D9FB1800F1FF32E1
:100FD00080F0D6809C4540F2D3803B44023840EA02
:100FE0000140A3EB0C0300211DB1F3400022C5E931
:100FF0000032BDE8F0878B4205D90DB1C5E900018B
:1010000000210846F5E7B3FA83F1002946D173457C
:1010100002D3824200F20581841A6EEB03020120A2
:101020009046002DE5D0C5E90048E2E7002A00F02F
:101030009080B2FA82F6002E40F0A4808A1A030C47
:101040004FEA174E80B2BCB20121B2FBFEFC0EFB90
:101050001C2243EA024304FB0CF29A4207D9FB1814
:101060000CF1FF3802D29A4200F2E080C4469B1A8B
:10107000B3FBFEF20EFB123340EA034302FB04F41F
:101080009C4207D9FB1802F1FF3002D29C4200F2C9
:10109000CA8002461B1B42EA0C40A5E7C1F12006AC
:1010A0008B4022FA06F71F430EFA01F420FA06F3EA
:1010B0002EFA06FE4FEA1749234300FA01F81FFAF9
:1010C00087FCBEFBF9F01C0C09FB10EE44EA0E4451
:1010D00000FB0CFEA64502FA01F209D93C1900F109
:1010E000FF3A80F09C80A64540F2998002383C444B
:1010F000A4EB0E041FFA83FEB4FBF9F309FB1344BF
:101100004EEA044403FB0CFCA44508D93C1903F146
:10111000FF3E80F08280A4457FD9023B3C4443EAF5
:101120000040A4EB0C04A0FB02EC64457346E146CE
:1011300062D35FD05DB1B8EB030264EB090404FA3B
:1011400006F622FA01F31E43CC40C5E900640021F3
:101150004FE7B1FBF2FC010C41EA0E4180B240EADC
:1011600001423B4638463C46B846BE462026B1FBC7
:10117000F7F1A2EB080241EA0C4166E7014618E7E5
:1011800010462CE7C6F120022EFA02F3B740B14018
:1011900020FA02F24FEA174E0A43B3FBFEF8BCB244
:1011A0000EFB1833110C41EA034108FB04F9B0406F
:1011B00089454FEA104380B23ED9791808F1FF3CC7
:1011C00001D289451FD8A1EB0901B1FBFEF909FB4A
:1011D00004F80EFB191192B242EA0142424529D2AB
:1011E000BA1809F1FF31C4D24245C2D2A9F10201B5
:1011F0003A44BEE7F0459DD2BEEB02036CEB070C10
:101200000138E14696E7A7EB09094944A8F1020C29
:10121000B1FBFEF909FB04F8DBE773467FE75046B4
:1012200066E70846FDE63B44023A33E7ACF1020CC0
:101230003B441CE749469CE7A1EB0901C446B1FBCE
:10124000FEF909FB04F8C4E7704700BF80B500AFA2
:10125000064B00221A60064B00221A70054B002232
:101260001A7005480AF0A6F800BF80BDFC010020F6
:1012700000020020010200201006002080B584B08A
:1012800000AF78607B681A68134B1B689A421FD1C5
:1012900078680AF09AFAF860104B1A68FB681344F1
:1012A0000E4A13600E4B1B78DBB20133DAB20C4BE3
:1012B0001A700B4B1B78DBB2092B06D9094B0122A4
:1012C0001A7078680AF034F902E078680AF072F867
:1012D00000BF1037BD4680BD10060020FC01002075
:1012E000000200200102002080B58CB000AF87ED25
:1012F000010A444BBB62444B7B62444B3B62444B10
:10130000FB61444BBB6197ED017AD7ED0A7AB4EEED
:10131000E77AF1EE10FA02DBD7ED077A6CE097ED91
:10132000017AD7ED087AB4EEE77AF1EE10FA02D836
:10133000DFED397A60E097ED017AD7ED097AB4EE06
:10134000E77AF1EE10FA1EDB97ED077AD7ED067A11
:1013500077EE676A97ED0A7AD7ED097A37EE677A02
:10136000C6EE877AC7ED037A97ED017AD7ED097A51
:1013700037EE677AD7ED037A27EE277AD7ED067A2C
:1013800077EE277A38E097ED017AD7ED087A77EE95
:10139000676A97ED097AD7ED087A37EE677AC6EE75
:1013A000877AC7ED0B7AD7ED0B7AF5EEC07AF1EEBE
:1013B00010FA02D54FF00003FB62D7ED0B7AB7EEBF
:1013C000007AF4EEC77AF1EE10FA02DD4FF07E53A8
:1013D000FB624FF080437B61D7ED050A97ED0B0A66
:1013E00014F024FDB0EE407AD7ED067A67EE877AE6
:1013F000C7ED047AD7ED047AB0EE670A3037BD4600
:1014000080BD00BF66668640CDCC4C4000004040A9
:101410000000C84200002041000000000000000061
:1014200080B582B000AF2A4B1B78DBB2002B47D0CF
:10143000284B1B6807EE903AB8EE677AF2EE046A22
:10144000C7EE267AC7ED017AD7ED017A9FED227AB1
:1014500027EE877ADFED216AC7EE267AC7ED007A9C
:10146000D7ED007A9FED1E7A67EE877A17EE900A25
:10147000FFF772F814A3D3E90023FEF70FFF02462B
:101480000B4610461946FFF7B7FB0346154A136093
:10149000144BD3ED007AB0EE670AFFF725FFF0EEAC
:1014A000407A114BC3ED007A0A4B00221A600F4BB1
:1014B00000221A70064B00221A700D4809F07AFFBC
:1014C00000BF0837BD4680BD9A9999999999B93F4F
:1014D00001020020FC0100203333534000F07F451F
:1014E0004A90A73F040200200802002000020020CA
:1014F0001006002080B400AF044B1B6807EE903A42
:10150000B0EE670ABD465DF8047B70470802002014
:1015100080B500AF444B1B68002B7CD1434B352278
:101520001A6043494FF00002424BC1E9002342498F
:101530004FF000024FF48013C1E900233F4938A364
:10154000D3E90023C1E900233D4B14221A603C4B30
:101550001A68364B1B6813440A333A4A1360364BF9
:1015600093ED007BB0EE470AF0EE670A14F0E8F95D
:10157000B0EE407AF0EE607A334B83ED007B2C4B7B
:10158000D3E900233149C1E90023304BD3E90001FD
:101590004FF000022E4BFFF737F802460B462D495D
:1015A000C1E90023294B93ED007BB0EE470AF0EE32
:1015B000670A14F0C5F9B0EE407AF0EE607A264B77
:1015C00083ED007B214BD3E900232449C1E90023AB
:1015D000214BD3E900014FF00002214BFFF714F833
:1015E00002460B461F49C1E90023144BD3E9000111
:1015F0004FF000021C4BFFF731F902460B461B4926
:10160000C1E900231A494FF000021A4BC1E9002337
:10161000054B01221A6000BF80BD00BFAFF3008000
:10162000182D4454FB2109400C0200201002002018
:10163000200200200000B03C2802002030020020E0
:10164000140200201802002048020020500200204E
:10165000000069405802002060020020680200205B
:1016600000408F4070020020008066403802002059
:10167000400200200000F87F80B582B000AF87ED07
:10168000000BD7E90023D7E90001FEF7BDFF0246B2
:101690000B4643EC172BB0EE470AF0EE670A08370B
:1016A000BD4680BD80B586B000AFF860B96087EDFB
:1016B000000BFB68002B06DBBB6803F10802BA6075
:1016C000D3E9002303E04FF000024FF00003C7E925
:1016D000042315E0D7E90023D7E90401FEF794FFBE
:1016E00002460B4610461946BB6803F10802BA6071
:1016F000D3E90023FEF7D2FD02460B46C7E90423D7
:10170000FB68013BFB60FB68002BE3DAD7E90423AD
:1017100043EC172BB0EE470AF0EE670A1837BD46C8
:1017200080BD80B485B000AF786039607B68D3E954
:101730000023C7E902233B68D3E900237968C1E9A4
:1017400000233968D7E90223C1E9002300BF143719
:10175000BD465DF8047B704780B584B000AF78600B
:1017600039607B6893ED007B3B6893ED006BB0EED6
:10177000461AF0EE661AB0EE470AF0EE670A14F069
:101780007FF887ED020B7B68D3E90001D7E90223DC
:10179000FFF764F802460B467968C1E900233B680D
:1017A000D3E90001D7E90223FFF758F802460B46B8
:1017B0003968C1E9002300BF1037BD4680BD000075
:1017C000B0B584B000AF87ED000B9FED151B97ED12
:1017D000000B14F089F887ED020BBC68FB6823F05E
:1017E00000454FF00002124B20462946FFF774F9DE
:1017F0000346002B0AD097ED001B9FED0B0B11F059
:1018000009F8B0EE407AF0EE607A01E097ED027BE5
:10181000B0EE470AF0EE670A1037BD46B0BD00BF14
:10182000000000000080764000000000008066405C
:101830000080664080B582B000AF87ED000B38684D
:101840007B6823F000414FF000020A4BFFF76CF970
:101850000346002B03D0084BD3E9002301E0D7E96E
:10186000002343EC172BB0EE470AF0EE670A083767
:10187000BD4680BD008056404002002080B588B043
:1018800000AF87ED000B4FF000002049C7E90601CB
:101890003A68796821F00043C7E90423D7E90423B3
:1018A000D7E90601FEF7F8FC02460B46C7E902231A
:1018B000D7E902014FF000024FF00003FFF734F9BF
:1018C0000346002B08D0D7E90223D7E90601FEF72B
:1018D000E3FC02460B4601E0D7E90423C7E90423F1
:1018E00097ED047B97ED001BB0EE470AF0EE670A18
:1018F00010F090FFB0EE407AF0EE607AB0EE470A5A
:10190000F0EE670A2037BD4680BD00BF0000B03F43
:10191000B0B592B000AF87ED080BF861B961002354
:10192000FB6207F12C0318469FED4D1B97ED080B4A
:1019300014F000FC87ED100B4B4BD3E90023D7E9E3
:101940001001FEF761FE02460B46C7E9102397ED32
:10195000100B14F015FA87ED0E0B97ED100B14F029
:10196000B3F987ED0C0BFB6A03F00303022B22D0C3
:10197000022B37D8002B02D0012B0BD032E0F969B3
:10198000D7E90E23C1E90023B969D7E90C23C1E9DE
:10199000002334E0F969D7E90C23C1E90023BB6BCC
:1019A0003B61FB6B83F000437B61BB6997ED047B7C
:1019B00083ED007B23E0BB6BBB60FB6B83F00043DC
:1019C000FB60FB6997ED027B83ED007B3B6B3B602B
:1019D0007B6B83F000437B60BB6997ED007B83EDFD
:1019E000007B0CE03C6B7B6B83F00045FB69C3E93B
:1019F0000045B969D7E90E23C1E9002300BFBB69DF
:101A0000D3E900014FF000024FF00003FEF746FC5F
:101A100002460B46B969C1E90023FB69D3E900011D
:101A20004FF000024FF00003FFF756F80346002B7B
:101A300000D111E0FB6993ED007B97ED081BB0EE40
:101A4000470AF0EE670A10F0E5FEB0EE407AF0EEDD
:101A5000607AFB6983ED007B00BF4837BD46B0BDAF
:101A60000000000000805640380200200000000006
:101A70002DE9B04388B000AF87ED020B87ED001B66
:101A80000023FB61D7E90223104623F00041D7E988
:101A90000023904623F0004942464B46FFF744F8A6
:101AA0000346002B08D007F108023B4611461846B2
:101AB000FFF737FE0223FB61D7E9002303F0004361
:101AC000002B09D0D7E90023144683F00045C7E96D
:101AD0000045FB690133FB6197ED027B97ED006BDD
:101AE000B0EE461AF0EE661AB0EE470AF0EE670A5C
:101AF00013F080FE51EC100B294BD3E90023FEF7C5
:101B0000ADFE02460B46C7E90423FB69032B2AD02E
:101B1000FB69032B33DCFB69012B03D0FB69022B30
:101B200015D02CE097ED027BB0EE471AF0EE671A65
:101B30009FED190B10F06EFE51EC100BD7E904234A
:101B4000FEF7AAFB02460B46C7E9042318E0D7E9D3
:101B500004234FF000001349FEF79EFB02460B469C
:101B6000C7E904230CE04FF000020E4BD7E9040153
:101B7000FEF792FB02460B46C7E9042300E000BFD4
:101B8000D7E9042343EC172BB0EE470AF0EE670ABF
:101B90002037BD46BDE8B0830000000000806640ED
:101BA00038020020008056402DE9B04F2DED048B07
:101BB00088B000AFF86187ED040B87ED021BBC4BCA
:101BC0001B68002B01D1FFF7A3FCF969D7E90423B7
:101BD000C1E90023F969D7E90223C1E90223FB69BE
:101BE000D3E902234FF00000B249FEF755FB02464D
:101BF0000B46F969C1E90423FB69D3E90245FB6996
:101C0000D3E902234FF000004FF08041FEF744FB80
:101C100002460B4620462946FEF7F6FC02460B46D6
:101C2000F969C1E90623FB69D3E90645FB6993ED30
:101C3000047BB0EE470AF0EE670AFFF71DFD53EC98
:101C4000102B20462946FEF709FE02460B46F9698D
:101C5000C1E90823FB69D3E90245FB69D3E9022303
:101C60004FF000004FF08041FEF716FB02460B4696
:101C700020462946FEF7F2FD02460B46F969C1E906
:101C80000A23FB69D3E90001FB69D3E90423FEF7CA
:101C9000BBFC02460B46F969C1E90C23FB6993EDD5
:101CA000007BB0EE470AF0EE670AFFF7E5FC55EC63
:101CB000104BFB6993ED0C7BB0EE470AF0EE670A20
:101CC000FFF7DAFCB0EE409AF0EE609AFB69D3E9D8
:101CD00006014FF000024FF00003FEF7FDFE034641
:101CE000002B51D1FB69D3E906014FF000024FF000
:101CF0000003FEF719FF0346002B17D0FB6993ED95
:101D0000067BB0EE470AF0EE670A13F019FEB0EE5C
:101D1000407AF0EE607AB0EE470AF0EE670A13F010
:101D20006BFDB0EE408AF0EE608A18E0FB69D3E903
:101D300006233A6083F000437B6097ED000B13F0BD
:101D4000FFFDB0EE407AF0EE607AB0EE470AF0EEBA
:101D5000670A13F021FEB0EE408AF0EE608AFB695C
:101D6000D3E90623924623F0004B4BEC10AB13F063
:101D7000E7FD53EC102B51EC180BFEF76FFD0246FC
:101D80000B461046194602E04FF00000494953EC5B
:101D9000192BFEF739FC02460B4620462946FEF772
:101DA0007DFA02460B46104619464FF000024FF0EE
:101DB0008043FEF753FD02460B46F969C1E90E2345
:101DC0003D4BD3E9000134A3D3E90023FEF71CFC0B
:101DD00002460B4614461D46FB69D3E90223904692
:101DE00023F000499FED2E1B49EC108B14F029F9CC
:101DF00059EC108BFB69D3E902014FF000024FF060
:101E00008043FEF72BFD02460B464FF000002949A8
:101E1000FEF742FA02460B4643EC172B9FED221BBE
:101E2000B0EE470AF0EE670A14F035F953EC102BC8
:101E300040464946FEF7E8FB02460B461046194667
:101E40004FF000024FF08043FEF708FD02460B46BC
:101E500043EC172BB0EE470AF0EE670A13F070FD63
:101E600053EC102B20462946FEF7F8FC02460B46A1
:101E7000F969C1E91023F86902F0B6F9F86902F0CE
:101E800005FAF86902F05EFA00BF2037BD46BDECE6
:101E9000048BBDE8B08F00BF9A9999999999B93F81
:101EA000FCA9F1D24D62503F000000000000F03F5D
:101EB0000C0200200000F03F600200202DE9B0433A
:101EC0002DED028B98B000AF7863396387ED0A0B74
:101ED00087ED081B87ED062B87ED043B87ED024B52
:101EE0007A603B6BD3E90023796BC1E906233B6B36
:101EF000D3E90223796BC1E908233B6BD3E90C23B7
:101F0000796BC1E912233B6BD3E90E23796BC1E9ED
:101F100014233B6BD3E90423796BC1E916237B6857
:101F2000002B05D07B6843F4024343F0800301E0BB
:101F300048F68B337A6BC2F8F83197ED0A0BFFF74E
:101F400079FCB0EE407AF0EE607A7B6B83ED007B3B
:101F5000796BD7E90823C1E90223796BD7E9062316
:101F6000C1E90423796BD7E90423C1E90A23796B1A
:101F7000D7E90223C1E90C237B6B93ED007BB0EE24
:101F8000470AF0EE670AFFF779FCB0EE407AF0EE10
:101F9000607A07F1400207F1380311461846B0EEA7
:101FA000470AF0EE670AFFF7B3FC7B6BD3E9160133
:101FB000D7E90E23FEF728FB02460B46C7E90E239E
:101FC00007F1400207F1380311461846FFF7C4FB3A
:101FD0004E4B93ED007B97ED106BB0EE461AF0EE92
:101FE000661AB0EE470AF0EE670A14F02AF8B0EE6F
:101FF000407AF0EE607A87ED107B3B6BD3E908897D
:1020000097ED0E7BB0EE470AF0EE670AFFF734FB60
:1020100053EC102B40464946FEF7F6FA02460B46B3
:10202000104619464FF00002394BFEF737F90246C9
:102030000B4643EC172BB0EE470AF0EE670A13F09D
:102040007FFCB0EE407AF0EE607A7B6B83ED227B12
:102050007B6BD3E90A01D7E91023FEF7D5FA0246D4
:102060000B46796BC1E918237B6B93ED0C8B7B6B73
:10207000D3E90A01D7E90E23FEF7C6FA02460B465A
:1020800043EC172BB0EE471AF0EE671AB0EE480A91
:10209000F0EE680A13F0F4FBB0EE407AF0EE607AEE
:1020A0007B6B83ED1A7BD7E90E23796BC1E91E2385
:1020B0007B6BD3E91801D7E90E23FEF7A5FA024698
:1020C0000B46796BC1E92823D7E90E014FF00002D6
:1020D0004FF00003FEF700FD0346002B0BD07B6B97
:1020E000D3E90C014FF000024FF00003FEF7F4FCBF
:1020F0000346002B0ED17B6BD3E90C01D7E91023EB
:10210000FEF782FA02460B4607E000BF48020020B5
:102110000000F03F4FF00002BC4B796BC1E92A236D
:102120007B6BD3E92A23796BC1E920237B6B03F115
:1021300078027B6B803319461046FFF70DFB7B6BF3
:1021400093ED1A7BB0EE470AF0EE670AFFF794FAB8
:1021500051EC100B3B6BD3E90823FEF755FA02460E
:102160000B46796BC1E91C237B6BD3E91C897B6B24
:10217000D3E91C014FF00002A44BFEF78FF8024692
:102180000B4643EC172BB0EE470AF0EE670A13F04C
:10219000D7FB51EC100B4FF000029C4BFEF77EF882
:1021A00002460B461046194602460B46FEF776F8E5
:1021B00002460B46104619467B6BD3E91C23FEF7FB
:1021C0006DF802460B4640464946FEF747FB02467D
:1021D0000B46C7E916237B6BD3F8F83103F00103F4
:1021E000002B7DD097ED160B01F03AFEB0EE407A51
:1021F000F0EE607A7B6B83ED2C7B7B6BF0331846C3
:1022000097ED160B01F078FE7B6B93ED1E7B7B6BDD
:1022100093ED206B7B6BF03306221946B0EE461A25
:10222000F0EE661AB0EE470AF0EE670A012001F000
:102230009EFCB0EE407AF0EE607A7B6B83ED327BF1
:102240007B6B93ED327BB0EE470AF0EE670A13F03A
:1022500097FD87ED140B7B6B93ED327BB0EE470A55
:10226000F0EE670A13F030FD87ED120B7B6BD3E9BC
:102270001E01D7E91223FEF7C7F902460B46904626
:1022800099467B6BD3E92001D7E91423FEF7BCF90B
:1022900002460B4640464946FEF700F802460B460A
:1022A000796BC1E924237B6BD3E92001D7E91223A1
:1022B000FEF7AAF902460B46904699467B6BD3E996
:1022C0001E01D7E91423FEF79FF902460B4640464C
:1022D0004946FDF7E1FF02460B46796BC1E926232B
:1022E0007B6BD3F8F83103F00203002B07D07B6B34
:1022F00003F59473184697ED160B01F061FE7B6BA6
:10230000D3F8F83103F00403002B2FD097ED160B10
:1023100001F0BAFEB0EE407AF0EE607A7B6B83EDAE
:102320002E7B7B6B03F5B073184697ED160B01F00F
:10233000F7FE7B6B93ED1E7B7B6B93ED206B7B6BD2
:1023400003F5B07306221946B0EE461AF0EE661A8F
:10235000B0EE470AF0EE670A012001F008FCB0EE8B
:10236000407AF0EE607A7B6B83ED347B7B6BD3F845
:10237000F83103F00803002B4AD07B6B03F5CC73D4
:10238000194697ED160B386B01F0D2FC7B6BD3E945
:102390000823144683F000457B6BD3E918232046BD
:1023A0002946FEF731F902460B4614461D4697EDC5
:1023B000160B386B01F0A2FC53EC102B204629467B
:1023C000FEF722F902460B46796BC1E930237B6B9D
:1023D00093ED1E7B7B6B93ED206B7B6B03F5CC73D6
:1023E00005221946B0EE461AF0EE661AB0EE470A1C
:1023F000F0EE670A012001F0BAFBB0EE407AF0EE91
:10240000607A7B6B83ED367B02E000BF0000F03F1B
:102410007B6BD3F8F83103F01003002B4CD07B6BAF
:1024200003F5E473194697ED160B386B01F0CCFCFD
:102430007B6B93ED067BB0EE470AF0EE670AFFF781
:102440001BF951EC100B7B6BD3E91A23FEF7DCF878
:1024500002460B46104619467B6BD3E91823FEF75C
:10246000D3F802460B46104619463B6BD3E90623C8
:10247000FEF7CAF802460B46796BC1E938237B6B3D
:1024800093ED1E7B7B6B93ED206B7B6B03F5E4730D
:1024900006221946B0EE461AF0EE661AB0EE470A6A
:1024A000F0EE670A002001F062FBB0EE407AF0EE39
:1024B000607A7B6B83ED3A7B094BD3E90023796B20
:1024C000C1E910237B6BD3E91023796BC1E90E239B
:1024D00000BF6037BD46BDEC028BBDE8B08300BFD6
:1024E0004002002080B58EB000AF7862396287ED7F
:1024F000060B87ED041B87ED022B7A6097ED020B2C
:10250000FFF75EF987ED020B97ED020BFFF7B6F9C7
:10251000B0EE407AF0EE607A07F1280207F130035E
:1025200011461846B0EE470AF0EE670AFFF7F0F9D9
:1025300097ED0C7B97ED0A6B7A68B0EE464AF0EEA9
:10254000664AB0EE473AF0EE673A97ED022B97ED08
:10255000041B97ED060B396A786AFFF7AFFC00BFE2
:102560003837BD4680BD00002DE9F04F2DED028BC0
:10257000D3B000AF07F5A476A6F59A76306007F5DC
:10258000A470A0F59C70016007F1080181ED000BBB
:1025900007F5A471A1F5A2710A6007F5A472A2F56E
:1025A000A47213604FF000024FF00003C7E95023FC
:1025B0004FF000024FF00003C7E94E234FF0000236
:1025C0004FF00003C7E94C234FF000024FF0000327
:1025D000C7E94A234FF000024FF00003C7E9482340
:1025E0004FF000024FF00003C7E946234FF000020E
:1025F0004FF00003C7E944234FF000024FF00003FF
:10260000C7E942234FF000024FF00003C7E93E2321
:102610004FF000024FF00003C7E93C2307F5A47315
:10262000A3F5A2731B68002B01D0802200E00022DA
:1026300007F5A473A3F5A4731B68002B02D04FF415
:10264000847300E000231343D7F87821002A02D0D6
:102650004FF4007200E000221343D7F87C21002AD7
:1026600002D040F2014200E000221343D7F880215B
:10267000002A02D041F2050200E000221343D7F8FD
:102680008421002A03D1D7F88821002A02D042F2FF
:10269000050200E000221343D7F88C21002A02D063
:1026A00044F2100200E000221343C7F8CC3007F5D3
:1026B000A473A3F59A731B68D3F8F821D7F8CC302C
:1026C000134003F4FF43C7F8CC3007F5A473A3F518
:1026D0009C731B6803F00103002B0FD107F5A47353
:1026E000A3F59A731B68D3F8F83103F40063002B49
:1026F00004D1144BD3E9002301F02EB907F5A473DC
:10270000A3F59C731B6803F00103002B1ED00E4B36
:10271000D3E9002307F10801D1E90001FDF774FFB7
:1027200002460B46C7E9402307F1180207F12003D0
:1027300007F108010E461146184696ED000BFFF70B
:10274000E7F8D5E1400200203802002007F5A47325
:10275000A3F59A731B68D3E912AB07F5A473A3F52D
:102760009A731B68D3E92C014FF00002D04BFDF7A0
:1027700095FD02460B4650465946FDF745FF024679
:102780000B4607F10801D1E90001FEF767F80246A0
:102790000B46C7E9302397ED300B13F0F1FA87EDC4
:1027A0002E0B97ED300B13F08FFA87ED2C0B07F5FE
:1027B000A473A3F59A731B68D3E92401D7E92C23EA
:1027C000FDF722FF02460B4692469B4607F5A4738F
:1027D000A3F59A731B68D3E92601D7E92E23FDF7E9
:1027E00013FF02460B4650465946FDF757FD024679
:1027F0000B4643EC182B07F5A473A3F59A731B68DB
:10280000D3E92601D7E92C23FDF7FEFE02460B464D
:1028100092469B4607F5A473A3F59A731B68D3E908
:102820002401D7E92E23FDF7EFFE02460B46504662
:102830005946FDF731FD02460B4643EC172B07F5D1
:10284000A473A3F59A731B6803F5947306221946C3
:10285000B0EE471AF0EE671AB0EE480AF0EE680ADA
:10286000012001F084F953EC102B1146C7F8F81041
:1028700083F00043C7F8FC3007F5A473A3F59A73FF
:102880001B68D3E93223D7E93E01FDF705FD024677
:102890000B46D7E93001FDF7FFFC02460B46C7E9BE
:1028A000402397ED400B13F06BFAB0EE407AF0EE58
:1028B000607A07F1280303ED027B97ED400B13F0DC
:1028C00003FAB0EE407AF0EE607A07F1180383ED78
:1028D000007B07F5A473A3F59A731B68D3E908235B
:1028E000904623F0004970A3D3E9002340464946AF
:1028F000FEF71AF90346002B00F0FA8007F5A473DF
:10290000A3F59A731B68D3E91E0107F11803D3E9F5
:102910000023FDF779FE02460B469046994607F5DF
:10292000A473A3F59A731B68D3E9200107F1280368
:1029300053E90223FDF768FE02460B46404649462E
:10294000FDF7ACFC02460B46C7E92A2307F5A47342
:10295000A3F59A731B68D3E9200107F11803D3E9A3
:102960000023FDF751FE02460B469046994607F5B7
:10297000A473A3F59A731B68D3E91E0107F128031A
:1029800053E90223FDF740FE02460B464046494606
:10299000FDF782FC02460B46C7E93A2307F5A4730C
:1029A000A3F59A731B68F0330622194697ED3A1B7C
:1029B00097ED2A0B012001F0DAF887ED3E0B07F5C1
:1029C000A473A3F59A731B68D3E92C014FF000029E
:1029D000374BFDF763FC02460B469046994607F5D8
:1029E000A473A3F59A731B68D3E93223D7E93E0198
:1029F000FDF752FC02460B4610461946D7E9402324
:102A0000FDF74CFC02460B4640464946FDF7FCFDEF
:102A100002460B469046994607F5A473A3F59A73B0
:102A20001B68D3E9122307F10801D1E90001FDF782
:102A300015FF02460B4640464946FDF72DFC02466F
:102A40000B46C7E9282307F5A473A3F59A731B68FF
:102A5000D3E91C8997ED2A0BFEF70EFE53EC102BE1
:102A600040464946FDF7D0FD02460B461046194642
:102A70004FF000020E4BFDF711FC02460B4643ECF3
:102A8000172BB0EE470AF0EE670A12F059FF53EC2D
:102A9000102BD7E92801FDF7E1FE02460B46D7E9E6
:102AA000400107E0AFF300807B14AE47E17A843F3A
:102AB0000000F03FFDF7F0FB02460B46C7E940235C
:102AC00097ED400B13F05CF9B0EE407AF0EE607ACF
:102AD00007F1280303ED027B97ED400B13F0F4F8A8
:102AE000B0EE407AF0EE607A07F1180383ED007BD8
:102AF00007F5A473A3F59A731B68D3E91E0107F1C8
:102B00001803D3E90023FDF77FFD02460B469046EC
:102B1000994607F5A473A3F59A731B68D3E92001BE
:102B200007F1280353E90223FDF76EFD02460B4629
:102B300040464946FDF7B2FB02460B46C7E92A2349
:102B400007F5A473A3F59A731B68D3E9200107F175
:102B50001803D3E90023FDF757FD02460B469046C4
:102B6000994607F5A473A3F59A731B68D3E91E0170
:102B700007F1280353E90223FDF746FD02460B4601
:102B800040464946FDF788FB02460B46C7E93A2313
:102B900007F5A473A3F59A731B68D3E91C8997ED15
:102BA0002A0BFEF769FD53EC102B40464946FDF712
:102BB0002BFD02460B46104619464FF00002844B8F
:102BC000FDF76CFB02460B4643EC172BB0EE470AB1
:102BD000F0EE670A12F0B4FE87ED260BD7F8CC2092
:102BE00043F205431340002B52D007F5A473A3F51D
:102BF0009C731B6803F00103002B13D107F5A4732A
:102C0000A3F59A731B68D3E90823144623F0004503
:102C10006DA3D3E9002320462946FDF785FF03462F
:102C2000002B10D007F5A473A3F59A731B68F0333B
:102C30000622194697ED3A1B97ED2A0B012000F06A
:102C400096FF87ED3E0B07F5A473A3F59A731B68F7
:102C5000D3E92C014FF000025D4BFDF71FFB02464C
:102C60000B4614461D4607F5A473A3F59A731B681B
:102C7000D3E93223D7E93E01FDF70EFB02460B46AE
:102C800020462946FDF7C0FC02460B46C7E93C2317
:102C900007F5A473A3F59A731B68D3E91A23D7E940
:102CA0002A01FDF7B1FC02460B46C7E9242307F5CC
:102CB000A473A3F59A731B6893ED188B07F5A4739F
:102CC000A3F59A731B68D3E91A01D7E93A23FDF7F4
:102CD0009BFC02460B4643EC172BB0EE471AF0EE76
:102CE000671AB0EE480AF0EE680A12F0C9FD87EDE7
:102CF000380B4FF000024FF00003D7E93801FDF721
:102D0000EBFE0346002B08D0324BD3E90023C7E982
:102D10003A23D7E93A23C7E9382307F5A473A3F583
:102D20009A731B68D3E91823C7E9222307F5A47314
:102D3000A3F59A731B68D3E91A23D7E93A01FDF783
:102D400063FC02460B46C7E92023D7F8CC2040F2AB
:102D500001431340002B45D007F5A473A3F59C73E2
:102D60001B6803F00103002B36D007F5A473A3F50D
:102D70009A731B68D3E9124507F5A473A3F59A73F8
:102D80001B68D3E92C014FF00002114BFDF786FAC6
:102D900002460B4610461946D7E94023FDF734FC9E
:102DA00002460B4610461946D7E93C23FDF776FA52
:102DB00002460B4620462946FDF726FC02460B46F6
:102DC0000EE000BFAFF300807B14AE47E17A843F92
:102DD0000000F03F4802002007F10803D3E9002378
:102DE000C7E94A23D7F8CC3003F48473002B00F0F2
:102DF000928107F5A473A3F59A731B6893ED187B72
:102E0000B0EE471AF0EE671A9FEDAB0B0FF002FD24
:102E100087ED1E0B07F5A473A3F59A731B68D3E91E
:102E20001823D7E92A01FDF7EFFB02460B46C7E955
:102E30001C23D7E93A23C7E91A2307F5A473A3F59E
:102E40009C731B6803F40043002B7CD097ED3A1B66
:102E500097ED2A0B12F0CEFC55EC104B07F5A4733E
:102E6000A3F59A731B6893ED1E7B07F5A473A3F576
:102E70009A731B6893ED206BB0EE461AF0EE661A5B
:102E8000B0EE470AF0EE670A12F0B4FC53EC102BD8
:102E900020462946FDF700FA02460B46D7E94001D5
:102EA000FDF7FAF902460B4614461D46D7E91C23E6
:102EB000D7E91E01FDF7A8FB02460B4643EC172B92
:102EC00097ED1A1BB0EE470AF0EE670A12F092FC7B
:102ED00059EC108B07F5A473A3F59A731B68D3E91B
:102EE0002801D7E91E23FDF78FFB02460B4643EC72
:102EF000162B07F5A473A3F59A731B6893ED2A7B31
:102F0000B0EE471AF0EE671AB0EE460AF0EE660A27
:102F100012F070FC53EC102B40464946FDF7BCF90B
:102F200002460B4620462946FDF7B8F902460B46F5
:102F300010461946D7E91E23FDF766FB02460B46ED
:102F400043EC172B55E007F5A473A3F59A731B68A0
:102F5000D3E92A01D7E91C23FDF756FB02460B46AD
:102F600014461D4607F5A473A3F59A731B68D3E9AD
:102F70002801D7E91A23FDF747FB02460B462046F6
:102F80002946FDF789F902460B4643EC182B07F555
:102F9000A473A3F59A731B68D3E92A01D7E91A230E
:102FA000FDF732FB02460B4614461D4607F5A47397
:102FB000A3F59A731B68D3E92801D7E91C23FDF711
:102FC00023FB02460B4620462946FDF767F90246D9
:102FD0000B4643EC172BB0EE471AF0EE671AB0EE33
:102FE000480AF0EE680A12F005FCB0EE407AF0EE06
:102FF000607A87ED187B07F5A473A3F59A731B68B5
:10300000D3E9304507F5A473A3F59A731B6803F55C
:10301000CC730522194697ED3A1B97ED2A0B012038
:1030200000F0A5FD51EC100B07F5A473A3F59A73FE
:103030001B68D3E93623FDF72FF902460B461046ED
:103040001946D7E94023FDF729F902460B462046E9
:103050002946FDF7D9FA02460B46D7E91801FDF7D4
:103060001DF902460B46C7E91623154BD3E9002389
:10307000D7E91601FDF7F2FB02460B46C7E9142318
:1030800007F5A473A3F59C731B6803F40043002B9E
:1030900018D007F5A473A3F59A731B68D3E902014E
:1030A000D7E91423FDF7FAF802460B4643EC172B39
:1030B0002FE000BFAFF30080000000000000F03FF1
:1030C0003802002007F5A473A3F59A731B6893EDEB
:1030D000027BB0EE470AF0EE670AFEF771FB55EC93
:1030E000104B97ED140BFEF76BFB53EC102B2046A7
:1030F0002946FDF7D3F802460B4643EC172BB0EEFA
:10310000470AF0EE670AFEF75BFBB0EE407AF0EE9E
:10311000607A87ED4E7BD7F8CC3003F08003002B2C
:1031200018D007F5A473A3F59A731B68D3E91601A9
:10313000D7E93823FDF768FA02460B4643EC172B14
:10314000B0EE471AF0EE671A97ED240BFEF790FCED
:1031500087ED500BD7F8CC3003F40073002B07D069
:1031600097ED201B97ED220BFEF782FC87ED4C0BB1
:10317000D7F8CC2043F205031340002B00F0B681B2
:1031800007F5A473A3F59A731B6803F5B07307F1F1
:10319000480214460622194697ED3A1B97ED2A0B72
:1031A000012000F0E4FC84ED000B07F5A473A3F507
:1031B0009A731B68D3E92E014FF000025F4BFDF7B5
:1031C0006DF802460B4614461D4607F5A473A3F599
:1031D0009A731B68D3E9342307F14801D1E9000150
:1031E000FDF75AF802460B4607F148010E46204605
:1031F0002946FDF709FA02460B4646E9022307F580
:10320000A473A3F59A731B68D3E92C0107F5A47383
:10321000A3F59A731B68D3E92E23FDF73DF8024608
:103220000B4610461946D7E94023FDF7EDF9024653
:103230000B4614461D4607F1480353E90223D7E91C
:103240003C01FDF729F802460B4607F138010E460E
:1032500020462946FDF722F802460B46C6E9002320
:10326000D7F8CC2041F205031340002B68D007F5B6
:10327000A473A3F59A731B68D3E9124507F5A473E9
:10328000A3F59A731B68D3E92001D7E92A23FDF738
:10329000BBF902460B4610461946D7E92623FDF72F
:1032A000B3F902460B4692469B4607F5A473A3F575
:1032B0009A731B68D3E9228907F5A473A3F59A735F
:1032C0001B68D3E91E01D7E93A23FDF79DF90246B1
:1032D0000B4640464946FDF797F902460B465046D5
:1032E0005946FCF7D9FF02460B469046994607F52A
:1032F000A473A3F59A731B68D3E92001D7E93A2395
:10330000FDF782F902460B461046194607F13803CD
:10331000D3E90023FDF778F902460B4640464946BB
:10332000FCF7BAFF02460B4620462946FDF76CF92A
:1033300002460B46C7E9482302E000BF0000F03F09
:10334000D7F8CC2042F205031340002B00F0CE80CA
:1033500007F5A473A3F59A731B68D3E91C4507F519
:10336000A473A3F59A731B68D3E91E23D7E92A0136
:10337000FCF792FF02460B4620462946FDF744F92A
:1033800002460B4614461D4607F5A473A3F59A732F
:103390001B68D3E91E01D7E92A23FCF77FFF024609
:1033A0000B4620462946FDF72FF902460B461446E8
:1033B0001D4607F5A473A3F59A731B68D3E9220190
:1033C000D7E92623FCF76AFF02460B4607F13801CE
:1033D0000E4620462946FDF741FA02460B4646E9CD
:1033E000022307F138031946D7E92A2351E90201DC
:1033F000FDF70AF902460B4614461D4607F138034D
:10340000D3E90023D7E93A01FDF7FEF802460B465F
:1034100020462946FCF740FF02460B461046194657
:1034200007F5A473A3F59A731B68D3E91E23FDF770
:10343000EBF802460B461046194607F5A473A3F5B0
:103440009A731B68D3E92223FDF708FA02460B465C
:103450001046194607F11803D3E90023FCF71EFFB5
:1034600002460B46C7E9462307F11803D3E9004596
:1034700007F5A473A3F59A731B68D3E91E0107F13E
:10348000380353E90223FDF7BFF802460B46904686
:10349000994607F5A473A3F59A731B68D3E9200135
:1034A00007F13803D3E90023FDF7AEF802460B46D7
:1034B00040464946FCF7F0FE02460B4610461946C8
:1034C000D7E92A23FDF7A0F802460B461046194615
:1034D000D7E92623FDF7C2F902460B4620462946C6
:1034E000FCF7DAFE02460B46C7E94423D7F8CC20A6
:1034F00044F210031340002B00F0888107F5A473F9
:10350000A3F59A731B6803F5E47307F128021446C8
:103510000622194697ED3A1B97ED2A0B002000F082
:1035200026FB84ED000B07F5A473A3F59A731B68C3
:10353000D3E91A014FF000024FF00003FDF7CCFA77
:103540000346002B0FD107F5A473A3F59A731B68EC
:10355000D3E918014FF000024FF00003FDF7BCFA69
:103560000346002B48D007F5A473A3F59A731B6894
:10357000D3E90C01D7E92223FDF746F802460B46B2
:1035800014461D4607F5A473A3F59A731B68D3E987
:103590000A01D7E92023FDF737F802460B462046FB
:1035A0002946FCF779FE02460B46C7E9362307F5A4
:1035B000A473A3F59A731B68D3E90C01D7E9202300
:1035C000FDF722F802460B4614461D4607F5A47384
:1035D000A3F59A731B68D3E90A01D7E92223FDF703
:1035E00013F802460B4620462946FCF757FE0246D2
:1035F0000B46C7E93423CEE007F5A473A3F59A730D
:103600001B68D3E91A0107F5A473A3F59A731B6825
:10361000D3E91823FCF7F8FF02460B46904699467B
:1036200007F11803D3E900014FF000024FF0000347
:10363000FDF766FA0346002B31D007F5A473A3F516
:103640009A731B68D3E9204507F11803D3E90023D7
:103650004FF00000BC49FCF71FFE02460B46204617
:103660002946FCF7D1FF02460B4614461D4607F5D6
:10367000A473A3F59A731B68D3E91E0107F128030D
:1036800053E90223FCF7C0FF02460B4620462946B9
:10369000FCF704FE02460B46104619463AE007F5D1
:1036A000A473A3F59A731B68D3E9200107F12803DB
:1036B00053E90223FCF7A8FF02460B4614461D46B9
:1036C00007F11803D3E900014FF000029E4BFCF70D
:1036D000E5FD02460B4620462946FDF7BFF80246A7
:1036E0000B461046194607F5A473A3F59A731B6899
:1036F000D3E91E23FCF7D2FD02460B4610461946BD
:1037000007F1280353E90223FCF77EFF02460B462C
:103710001046194642464B46FCF776FF02460B46DA
:10372000C7E9362307F5A473A3F59A731B6893EDD5
:10373000187BB0EE470AF0EE670AFDF79DFF55ECE7
:10374000104B07F5A473A3F59A731B6893ED1A7BCE
:10375000B0EE470AF0EE670AFDF78EFF51EC100B52
:1037600007F5A473A3F59A731B68D3E92023FCF72C
:103770004BFF02460B4610461946D7E93A23FCF7A1
:1037800043FF02460B4620462946FCF787FD0246CA
:103790000B46C7E9342307F5A473A3F59A731B6896
:1037A000D3E9144597ED341B97ED360B12F022F850
:1037B00053EC102B20462946FCF726FF02460B4609
:1037C0009046994607F5A473A3F59A731B68D3E94D
:1037D000384507F5A473A3F59A731B68D3E93A2318
:1037E00007F12801D1E90001FCF756FD02460B461E
:1037F00020462946FCF708FF02460B46404649464C
:10380000FCF74CFD02460B46C7E94223D7F8CC3003
:1038100003F08003002B0FD007F5A473A3F5A27368
:103820001B68002B08D007F5A473A3F5A2731968D1
:10383000D7E95023C1E90023D7F8CC3003F48473CF
:10384000002B0FD007F5A473A3F5A4731B68002BFE
:1038500008D007F5A473A3F5A4731968D7E94E231C
:10386000C1E90023D7F8CC3003F40073002B09D052
:10387000D7F87831002B05D0D7F87811D7E94C2349
:10388000C1E90023D7F8CC2040F201431340002BBC
:1038900009D0D7F87C31002B05D0D7F87C11D7E9B7
:1038A0004A23C1E90023D7F8CC2041F20503134095
:1038B000002B09D0D7F88031002B05D0D7F8801124
:1038C000D7E94823C1E90023D7F8CC2042F2050309
:1038D0001340002B13D0D7F88431002B05D0D7F834
:1038E0008411D7E94623C1E90023D7F88831002B9A
:1038F00005D0D7F88811D7E94423C1E90023D7F8C8
:10390000CC2044F210031340002B09D0D7F88C319F
:10391000002B05D0D7F88C11D7E94223C1E9002349
:1039200007F5A473A3F59C731B6803F00103002B38
:103930000ED1064BD3E90023D7E94001FCF78EFFF7
:1039400002460B4608E000BF0000F03F38020020AE
:1039500007F10803D3E9002343EC172BB0EE470A25
:10396000F0EE670A07F5A677BD46BDEC028BBDE811
:10397000F08F00BFB0B5ADF5147D06AF07F50E743E
:10398000A4F50374206007F1280000ED020B07F195
:10399000180080ED001B07F1180000ED022B07F561
:1039A0000E70A0F50470016007F1080181ED003B85
:1039B00007F50E71A1F50D710A6007F50E72A2F5FB
:1039C0000E72136007F50E73A3F50D731B68002BC1
:1039D00001D0802200E0002207F50E73A3F50E73DC
:1039E0001B68002B02D04FF4847300E000231343C4
:1039F000D7F84822002A02D04FF4007200E00022DB
:103A00001343D7F84C22002A02D040F2014200E0D2
:103A100000221343D7F85022002A02D041F20502B7
:103A200000E000221343D7F85422002A03D1D7F82C
:103A30005822002A02D042F2050200E0002213437D
:103A4000D7F85C22002A02D044F2100200E00022E3
:103A50001343C7F8343207F50E73A3F504731B68DC
:103A600003F00103002B01D0002201E040F6030225
:103A7000D7F834321A4307F118031D4607F118032B
:103A80001C4607F12803194607F50E73A3F50373C7
:103A900007F1300015ED022B94ED001B11ED020B28
:103AA0001968FEF71FFD07F50E73A3F50E7307F5F2
:103AB0000E72A2F50D7207F108010D4607F50E71A1
:103AC000A1F5047107F13004D7F85C020590D7F82E
:103AD00058020490D7F854020390D7F8500202908D
:103AE000D7F84C020190D7F8480200901B68126882
:103AF00095ED000B09682046FEF736FDB0EE407AE2
:103B0000F0EE607AB0EE470AF0EE670A07F50E773E
:103B1000BD46B0BD80B592B006AFF86287ED080B28
:103B200087ED061B87ED042B87ED023BB9627A60B7
:103B30003B60002305930023049300230393002399
:103B40000293002301933B6800937B68BA6A97ED68
:103B5000023B002197ED042B97ED061B97ED080B18
:103B6000F86AFFF707FF00BF3037BD4680BDB0B52C
:103B70008EB000AFF86187ED040B87ED021BB961D1
:103B80007A607A68FB691344DB00BA691344BB614D
:103B9000D7E90423D7E90201FCF77EFB02460B4676
:103BA0001046194602460B46FCF778FB02460B46C8
:103BB00014461D46D7E90423D7E90201FCF76EFB42
:103BC00002460B4620462946FCF71EFD02460B46E0
:103BD000C7E908237B6803F00103002B06D0BB690B
:103BE000083BBB61BB69D3E9002303E04FF000024F
:103BF0004FF00003C7E90C234FF000024FF0000321
:103C0000C7E90A237B68DA0F13445B107B603BE053
:103C1000D7E90C23D7E90801FCF7F6FC02460B466E
:103C200010461946D7E90A23FCF736FB02460B4635
:103C300010461946BB69083BBB61BB69D3E9002349
:103C4000FCF72CFB02460B46C7E90A23D7E90A23F7
:103C5000D7E90801FCF7D8FC02460B461046194686
:103C6000D7E90C23FCF718FB02460B461046194611
:103C7000BB69083BBB61BB69D3E90023FCF70EFBC2
:103C800002460B46C7E90C237B685A1E7A60002B5C
:103C9000BED1FB69002B18D0D7E9040102460B46C0
:103CA000FCF7FCFA02460B4610461946D7E90223F8
:103CB000FCF7AAFC02460B4610461946D7E90C232E
:103CC000FCF7A2FC02460B460FE0D7E90A23D7E92E
:103CD0000C01FCF7E1FA02460B4610461946D7E9FB
:103CE0000223FCF791FC02460B4643EC172BB0EE87
:103CF000470AF0EE670A3837BD46B0BD80B584B0DC
:103D000000AFF86087ED000BFB68483397ED000BC0
:103D100019460520FDF7C6FCB0EE407AF0EE607A59
:103D2000B0EE470AF0EE670A1037BD4680BD0000CE
:103D300090B58BB000AFF86087ED000BB9604FF025
:103D40000002204BC7E908230023FB610123BB616C
:103D50002FE0BB69C3F105037B61D7E90023D7E9F5
:103D60000801FCF751FC02460B46C7E90823FB6833
:103D700003F17802FB69DB00134497ED000B194651
:103D80007869FDF78FFC51EC100BBB69DB00BA685A
:103D9000D418D7E90823FCF737FC02460B46C4E9E0
:103DA00000237B690133FA691344FB61BB6901336A
:103DB000BB61BB69052BCCDD00BF00BF2C37BD4606
:103DC00090BD00BF0000F03F90B58BB000AFF86031
:103DD00087ED000BB9604FF00002204BC7E90823C4
:103DE0000023FB610023BB612FE0BB69C3F1050326
:103DF0007B61FB6803F1F002FB69DB00134497ED84
:103E0000000B19467869FDF74DFC51EC100BBB69AE
:103E1000DB00BA68D418D7E90823FCF7F5FB0246A3
:103E20000B46C4E900237B690133FA691344FB6143
:103E3000D7E90023D7E90801FCF7E6FB02460B4669
:103E4000C7E90823BB690133BB61BB69052BCCDD26
:103E500000BF00BF2C37BD4690BD00BF0000F03F43
:103E6000B0B586B000AF87ED000B03237B6197ED03
:103E7000000BFDF701FCB0EE407AF0EE607AB0EE98
:103E8000470AF0EE670A1A497869FDF70BFC51EC16
:103E9000100B7B690133164ADB001344D3E900237E
:103EA000FCF7DCFC02460B46C7E90223D7E90023F6
:103EB000D7E90201FCF7F2F902460B4614461D460B
:103EC000D7E900234FF000000A49FCF7E5F9024664
:103ED0000B4620462946FCF7C1FC02460B4643EC44
:103EE000172BB0EE470AF0EE670A1837BD46B0BD93
:103EF00090A001080000F03F2DE990438DB000AF85
:103F000087ED020B786097ED020BFDF7B5FB87EDAF
:103F1000060BD7E90223C7E90A2300237B620123AA
:103F20003B6241E03B6AC3F10603DA0F13445B10C6
:103F30007B617B6ADB00214A134497ED060B19462F
:103F40007869FDF7AFFB51EC100BD7E90A23FCF7BA
:103F50005BFB02460B46904699467A6A7B6913449E
:103F60000133164ADB001344D3E90023396AC90040
:103F70007868441840464946FCF770FC02460B46F8
:103F8000C4E900237B6902337A6A13447B62D7E970
:103F90000223D7E90A01FCF737FB02460B46C7E9C3
:103FA0000A233B6A01333B623B6A062BBADD00BF42
:103FB00000BF3437BD46BDE8908300BFB8A00108FC
:103FC0002DE990438DB000AF87ED020B786097ED3F
:103FD000020BFDF751FB87ED060BD7E90223C7E97A
:103FE0000A2300237B6201233B6241E03B6AC3F169
:103FF0000603DA0F13445B107B617B6ADB00214A06
:10400000134497ED060B19467869FDF74BFB51EC0D
:10401000100BD7E90A23FCF7F7FA02460B46904645
:1040200099467A6A7B6913440133164ADB001344CC
:10403000D3E90023396AC9007868441840464946E4
:10404000FCF70CFC02460B46C4E900237B690233F3
:104050007A6A13447B62D7E90223D7E90A01FCF7A5
:10406000D3FA02460B46C7E90A233B6A01333B6297
:104070003B6A062BBADD00BF00BF3437BD46BDE842
:10408000908300BF48A10108B0B586B000AF87EDAE
:10409000000B03237B6197ED000BFDF7EDFAB0EE0B
:1040A000407AF0EE607AB0EE470AF0EE670A1A49FD
:1040B0007869FDF7F7FA51EC100B7B690133164A6A
:1040C000DB001344D3E90023FCF7C8FB02460B4690
:1040D000C7E90223D7E90023D7E90201FCF7DCF89E
:1040E00002460B4614461D464FF000020B4BD7E923
:1040F0000001FCF7D3F802460B4620462946FCF7A0
:10410000ADFB02460B4643EC172BB0EE470AF0EE30
:10411000670A1837BD46B0BDD8A101080000F03FBE
:104120002DE990438DB000AF87ED020B786097EDDD
:10413000020BFDF7A1FA87ED060BD7E90223C7E9C9
:104140000A2300237B6201233B6241E03B6AC3F107
:104150000603DA0F13445B107B617B6ADB00214AA4
:10416000134497ED060B19467869FDF79BFA51EC5D
:10417000100BD7E90A23FCF747FA02460B46904694
:1041800099467A6A7B6913440133164ADB0013446B
:10419000D3E90023396AC900786844184046494683
:1041A000FCF75CFB02460B46C4E900237B69023343
:1041B0007A6A13447B62D7E90223D7E90A01FCF744
:1041C00023FA02460B46C7E90A233B6A01333B62E6
:1041D0003B6A062BBADD00BF00BF3437BD46BDE8E1
:1041E000908300BF00A201082DE9904387B000AF83
:1041F000786000237B6100233B610523FB6039E08D
:10420000FB68C3F10503FA689342A8BF1346BB607D
:104210007B69DB001C4A1A447B6893ED0A7BB0EE95
:10422000470AF0EE670A1146B868FDF73BFA59EC09
:10423000108B7A69BB6813440133134ADB001344C3
:10424000D3E900233C69611C396140464946FCF7CB
:1042500005FB02460B46786804F10901C9000144D8
:10426000C1E90023BB6802337A6913447B61FB68B0
:10427000013BFB60FB68002BC2DA00BF00BF1C37AC
:10428000BD46BDE8908300BF90A201082DE9904390
:1042900089B000AF78600023FB610023BB6101237C
:1042A0007B6143E005233B6139E03B69C3F10503D2
:1042B0003A699342A8BF1346FB60FB69DB00204AC2
:1042C0001A447B6893ED0A7BB0EE470AF0EE670A6A
:1042D0001146F868FDF7E6F959EC108BFA69FB68AE
:1042E00013440133164ADB001344D3E90023BC69AD
:1042F000611CB96140464946FCF7B0FA02460B46DC
:10430000786804F10F01C9000144C1E90023FB688A
:104310000233FA691344FB613B69013B3B613A6933
:104320007B699A42C1DA7B6901337B617B69052B2A
:10433000B8DD00BF00BF2437BD46BDE8908300BF95
:1043400020A301082DE9904389B000AF78600023D5
:10435000FB610023BB6100237B613FE005233B61E0
:1043600035E03B69C3F10503FB60FB69DB00204AD4
:104370001A447B6893ED0A7BB0EE470AF0EE670AB9
:104380001146F868FDF78EF959EC108BFA69FB6855
:1043900013440133164ADB001344D3E90023BC69FC
:1043A000611CB96140464946FCF758FA02460B4683
:1043B000786804F11E01C9000144C1E90023FB68CB
:1043C0000233FA691344FB613B69013B3B613A6983
:1043D0007B699A42C5DA7B6901337B617B69052B76
:1043E000BCDD00BF00BF2437BD46BDE8908300BFE1
:1043F00088A4010880B485B000AF78600023FB7307
:104400000023BB607B681B78242B0DD17B680133B4
:104410007B6009E0BB687A6813441A78FB7B5340E1
:10442000FB73BB680133BB60BB687A6813441B78BD
:10443000002B05D0BB687A6813441B782A2BE9D17E
:10444000FB7B18461437BD465DF8047B70470000BF
:1044500080B5C6B002AF07F58873A3F58673186000
:1044600007F58873A3F586731B681B78242B11D07E
:1044700007F58873A3F5867307F188001B681D4A4A
:1044800080210DF0EBFF07F58873A3F5867307F124
:1044900088021A6007F58873A3F586731868FFF71A
:1044A000A9FF034687F80F3197F80F2107F58873A6
:1044B000A3F5867307F1080000921B680E4A80215D
:1044C0000DF0CCFFC7F80801D7F808319AB207F110
:1044D00008014FF47A7309480AF056FF0346002B8F
:1044E00001D1002300E00123184607F58877BD4677
:1044F00080BD00BFA0950108A49501089808002080
:1045000080B500AF1C48FFF7A3FF642006F0EAFE69
:104510001A48FFF79DFF642006F0E4FE1848FFF7F5
:1045200097FF642006F0DEFE1648FFF791FF642037
:1045300006F0D8FE1448FFF78BFF642006F0D2FE89
:104540001248FFF785FF642006F0CCFE1048FFF705
:104550007FFF642006F0C6FE0E48FFF779FF642057
:1045600006F0C0FE4FF480720B490C480AF097FF2A
:104570000023184680BD00BFB0950108C095010812
:10458000D0950108E0950108F09501080096010812
:104590001096010820960108780200209808002053
:1045A0002DE9B04FBEB00AAF7860396007F148031B
:1045B0005022002118460EF057F807F13C03002264
:1045C0001A605A60C3F8072007F12C0300221A6012
:1045D0005A609A60C3F80B2007F11C0300221A608E
:1045E0005A609A60C3F80B2007F1140300221A6086
:1045F000C3F803200023FB740023BB7400237B74E7
:1046000000233B740023FB7307F13C0107F14802D0
:1046100007F10F03099307F11003089307F114033F
:10462000079307F148033833069307F14803303303
:10463000059307F11203049307F11C03039307F199
:104640001303029307F12C03019307F11103009365
:104650000B468B4938680DF059FF7B7C87F8583042
:104660003B7C87F89430FB7B87F8953007F13C035F
:1046700018460CF076F8C7F8CC00D7F8CC30814A51
:1046800082FB03121213DB17D31AFB64D7F8CC306A
:104690007D4A82FB03125211DB17D21A7A4B83FB3D
:1046A00002135911D317CB1A642101FB03F3D31A58
:1046B0003B65D7F8CC20744B83FB02135911D317F9
:1046C000CB1A642101FB03F3D31A7B65FB7C87F8CB
:1046D0007030BB7C87F8713007F12C0318460CF062
:1046E0003DF887ED300B4FF00002684BD7E9300101
:1046F000FCF7B4F802460B4610461946FCF734FAAC
:104700000346C7F8BC30D7F8BC30642202FB03F381
:104710001846FBF70FFF02460B46D7E93001FBF7BF
:10472000BBFD02460B46C7E92C23D7F8BC00FBF7BC
:1047300001FF82468B464FF00002554BD7E92C0112
:10474000FCF78CF802460B4650465946FBF7A6FD8F
:1047500002460B46C7E91823FB7C532B06D1D7E949
:104760001823904683F00049C7E9188907F11C0314
:1047700018460BF0F3FF87ED2A0B4FF00002434B76
:10478000D7E92A01FCF76AF802460B46104619469B
:10479000FCF7EAF90346C7F8A430D7F8A43064223E
:1047A00002FB03F31846FBF7C5FE02460B46D7E9AA
:1047B0002A01FBF771FD02460B46C7E92623D7F80D
:1047C000A400FBF7B7FE804689464FF00002304B4D
:1047D000D7E92601FCF742F802460B464046494617
:1047E000FBF75CFD02460B46C7E91A23BB7C572B3F
:1047F00006D1D7E91A23144683F00045C7E91A45C4
:1048000007F114031846FBF73BFD0346062B2AD19C
:1048100007F10C0300210A461A800A469A703B7D74
:104820003B737B7D7B7307F10C0318460BF099FFFC
:104830000346C7F88830BB7D3B73FB7D7B7307F174
:104840000C0318460BF08DFF0346C7F88C303B7EF7
:104850003B737B7E7B7307F10C0318460BF081FFE3
:104860000346C7F890307B68184607F1480350228A
:1048700019460DF0B0FF7868D037BD46BDE8B08F5F
:104880002C960108AD8BDB681F85EB510000594069
:1048900000004E402DE9B04FB6B008AF78603960E7
:1048A00007F150033822002118460DF0DDFE07F114
:1048B000400300221A605A609A60C3F80B2007F187
:1048C000300300221A605A609A60C3F80B2000235C
:1048D000FB620023BB624FF000024FF00003C7E908
:1048E00008234FF000024FF00003C7E906234FF002
:1048F00000024FF00003C7E904230023FB730023E9
:10490000BB7307F10F0107F1400207F11003069393
:1049100007F11803059307F12003049307F1280317
:10492000039307F12C03029307F10E03019307F1A0
:10493000300300930B46604938680DF0E7FDFB6AD1
:104940007B66BB6ABB66D7E90823C7E91C23D7E9A6
:104950000623C7E91E23D7E90423C7E92023FB7BED
:1049600087F86030BB7B87F8613007F14003184659
:104970000BF0F4FE87ED2C0B4FF000024F4BD7E904
:104980002C01FBF76BFF02460B4610461946FCF75D
:10499000EBF80346C7F8AC30D7F8AC30642202FB22
:1049A00003F31846FBF7C6FD02460B46D7E92C0178
:1049B000FBF772FC02460B46C7E92823D7F8AC0088
:1049C000FBF7B8FD82468B464FF000023C4BD7E91F
:1049D0002801FBF743FF02460B4650465946FBF7BA
:1049E0005DFC02460B46C7E91423FB7B532B06D123
:1049F000D7E91423904683F00049C7E9148907F1E9
:104A0000300318460BF0AAFE87ED260B4FF000028C
:104A10002A4BD7E92601FBF721FF02460B46104639
:104A20001946FCF7A1F80346C7F89430D7F894303C
:104A3000642202FB03F31846FBF77CFD02460B469B
:104A4000D7E92601FBF728FC02460B46C7E92223DB
:104A5000D7F89400FBF76EFD804689464FF00002C0
:104A6000174BD7E92201FBF7F9FE02460B464046F9
:104A70004946FBF713FC02460B46C7E91623BB7BEE
:104A8000572B06D1D7E91623144683F00045C7E912
:104A900016457B681D4607F150040FCC0FC50FCC9F
:104AA0000FC50FCC0FC594E8030085E803007868B4
:104AB000B837BD46BDE8B08F6C960108000059407C
:104AC00000004E40B0B5A6B000AF424BC7F89430DE
:104AD000404BC7F8903072E0D7F894301B780D2B1C
:104AE00068D1D7F8943001331B780A2B62D1D7F8FC
:104AF0009420D7F89030D31AC7F88C30D7F88C3080
:104B0000002B09DCD7F894300233C7F89430D7F87B
:104B10009430C7F8903052E0D7F88C307F2B02DD0C
:104B20007F23C7F88C30D7F88C301A46D7F890100E
:104B300029480DF050FE284AD7F88C301344002243
:104B40001A70264924480DF0A9FD0346002B14D005
:104B5000234C07F1500320491846FFF79BFE2546DA
:104B600007F150040FCC0FC50FCC0FC50FCC0FC5EC
:104B700094E8030085E8030012E01A4916480DF096
:104B80008DFD0346002B0BD0174C3B4612491846AF
:104B9000FFF706FD20463B46502219460DF01BFE4E
:104BA000D7F894300233C7F89430D7F89430C7F868
:104BB000903004E0D7F894300133C7F89430D7F838
:104BC00094301B78002B87D1002318469837BD46B8
:104BD000B0BD00BF7802002078030020AC96010829
:104BE000F8030020B09601083004002080B483B0A0
:104BF00000AF78600C4BD3E900237968C1E900234A
:104C0000094BD3E902237968C1E90223064BD3E9B2
:104C10000A237968C1E90423002318460C37BD46EE
:104C20005DF8047B704700BFF803002080B500AF3B
:104C3000084BD3E908014FF000024FF00003FBF7E7
:104C40004BFF0346002B01D1012300E0002318464F
:104C500080BD00BFF803002080B400AF064BD3E94D
:104C6000082343EC172BB0EE470AF0EE670ABD4667
:104C70005DF8047B704700BFF803002000000000CF
:104C80002DE9B04F98B000AF786039607B68D3E908
:104C90000023C7E914237B68D3E90223C7E9122361
:104CA0007B68D3E90423C7E910237B681833D3E971
:104CB0000023C7E90E237B681833D3E90223C7E931
:104CC0000C237B681833D3E90423C7E90A237B68E4
:104CD0003033D3E90023C7E908237B683033D3E9B5
:104CE0000223C7E906237B683033D3E90423C7E9ED
:104CF0000423D7E90423D7E90C01FBF785FC02461E
:104D00000B4690469946D7E90623D7E90A01FBF7F7
:104D10007BFC02460B4640464946FBF7BDFA02467D
:104D20000B4610461946D7E91423FBF76DFC0246E3
:104D30000B4690469946D7E90423D7E90E01FBF7C5
:104D400063FC02460B4692469B46D7E90823D7E907
:104D50000A01FBF759FC02460B4650465946FBF741
:104D60009BFA02460B4610461946D7E91223FBF779
:104D70004BFC02460B4640464946FBF78DFA02467D
:104D80000B4690469946D7E90623D7E90E01FBF773
:104D90003BFC02460B4692469B46D7E90823D7E9DF
:104DA0000C01FBF731FC02460B4650465946FBF717
:104DB00073FA02460B4610461946D7E91023FBF753
:104DC00023FC02460B4640464946FBF767FA02467B
:104DD0000B46C7E91623BC6DFB6D23F00045B5A358
:104DE000D3E9002320462946FBF780FE0346002B2B
:104DF00004D0B0A3D3E90023C7E91623D7E91623CB
:104E00004FF00000AA49FBF729FD02460B46C7E90F
:104E10000223D7E90423D7E90C01FBF7F5FB02468F
:104E20000B4614461D46D7E90623D7E90A01FBF7CE
:104E3000EBFB02460B4620462946FBF72DFA0246BD
:104E40000B4610461946D7E90223FBF7DDFB024665
:104E50000B463968C1E90023D7E90623D7E91001D9
:104E6000FBF7D2FB02460B4614461D46D7E9042346
:104E7000D7E91201FBF7C8FB02460B46204629463C
:104E8000FBF70AFA02460B4610461946D7E90223F9
:104E9000FBF7BAFB02460B463968C1E90223D7E9A2
:104EA0000A23D7E91201FBF7AFFB02460B46144673
:104EB0001D46D7E90C23D7E91001FBF7A5FB0246F5
:104EC0000B4620462946FBF7E7F902460B461046FB
:104ED0001946D7E90223FBF797FB02460B463968D0
:104EE000C1E90423D7E90823D7E90A01FBF78CFBC2
:104EF00002460B4614461D46D7E90423D7E90E01A6
:104F0000FBF782FB02460B4620462946FBF7C4F915
:104F100002460B46104619463B6803F11804D7E9D0
:104F20000223FBF771FB02460B46C4E90023D7E9D5
:104F30000423D7E91401FBF767FB02460B4614462E
:104F40001D46D7E90823D7E91001FBF75DFB0246B0
:104F50000B4620462946FBF79FF902460B461046B2
:104F600019463B6803F11804D7E90223FBF74CFB11
:104F700002460B46C4E90223D7E90E23D7E9100104
:104F8000FBF742FB02460B4614461D46D7E90A23AF
:104F9000D7E91401FBF738FB02460B4620462946A9
:104FA000FBF77AF902460B46104619463B6803F1B7
:104FB0001804D7E90223FBF727FB02460B46C4E996
:104FC0000423D7E90623D7E90E01FBF71DFB0246B0
:104FD0000B4614461D46D7E90823D7E90C01FBF719
:104FE00013FB02460B4620462946FBF755F90246BD
:104FF0000B46104619463B6803F13004D7E90223FB
:10500000FBF702FB02460B46C4E90023D7E9122353
:10501000D7E90801FBF7F8FA02460B4614461D468D
:10502000D7E90623D7E91401FBF7EEFA02460B464F
:1050300020462946FBF730F902460B461046194632
:105040003B6803F13004D7E90223FBF7DDFA02469F
:105050000B46C4E90223D7E90C23D7E91401FBF777
:10506000D3FA02460B4614461D46D7E90E23D7E96C
:105070001201FBF7C9FA02460B4620462946FBF708
:105080000BF902460B46104619463B6803F1300403
:10509000D7E90223FBF7B8FA02460B46C4E904231A
:1050A00000BF6037BD46BDE8B08F00BFAFF30080E2
:1050B0000000F03F11EA2D819997713D000000003A
:1050C00080B584B000AF7860F822002178680DF0D8
:1050D000CBFA0023FB600DE07A68FB685B011344A8
:1050E00003F118014FF00002234BC1E90023FB68D4
:1050F0000133FB60FB68022BEEDD796816A3D3E970
:105100000023C1E91823796815A3D3E90023C1E975
:105110002023796814A3D3E90023C1E928237968FF
:1051200013A3D3E90023C1E932237B68D3E93223F7
:105130007968C1E92A2379684FF000020F4BC1E971
:105140003A2379684FF000020D4BC1E93C2300BFC0
:105150001037BD4680BD00BFBBBDD7D9DF7CCB3D7E
:10516000956479E17FFDC53DFCA9F1D24D62503FC8
:1051700048AFBC9AF2D77A3E0000F03F00003040C2
:105180000000E03F90B58DB000AF786287ED060B70
:1051900087ED041B87ED022B87ED003B0023FB62AC
:1051A00035E00023BB622CE0796AFA6A13465B00A3
:1051B0001344BA6A13440333DB000B44D3E9000100
:1051C0007C6AFA6A13465B001344BA6A13440C33D0
:1051D000DB002344D3E90023FBF760F802460B46CB
:1051E000104619467C6AFA6A13465B001344BA6A91
:1051F00013440333DB002344C3E90001BB6A0133DA
:10520000BB62BB6A022BCFDDFB6A0133FB62FB6A28
:10521000022BC6DD00BF00BF3437BD4690BD000085
:10522000F0B5FBB000AF07F5F473A3F5E6731860B3
:1052300007F1180303ED020B07F1080383ED001BD0
:1052400007F1080303ED022B07F1180353E90223CA
:10525000C7E9682307F10803D3E90023C7E96A23F4
:1052600007F1080353E90223C7E96C23D7E9680172
:1052700007F5F473A3F5E6731B68D3E90023FBF786
:105280000BF802460B46C7E96223D7E96A0107F526
:10529000F473A3F5E6731B68D3E90223FAF7FCFF66
:1052A00002460B46C7E96423D7E96C0107F5F4739E
:1052B000A3F5E6731B68D3E90423FAF7EDFF024672
:1052C0000B46C7E966230023C7F8E4314AE0002310
:1052D000C7F8E0313DE007F5F473A3F5E67319680C
:1052E000D7F8E42113465B001344D7F8E0211344B8
:1052F0000333DB000B44D3E9000107F5F473A3F596
:10530000E6731C68D7F8E42113465B001344D7F812
:10531000E02113441533DB002344D3E90023FAF7DB
:10532000BDFF02460B4610461946D7F8E421134646
:105330005B001344D7F8E0211344DB0003F5F4735A
:105340003B44A83BC3E90001D7F8E0310133C7F87B
:10535000E031D7F8E031022BBDDDD7F8E43101337D
:10536000C7F8E431D7F8E431022BB0DD07F1F802D9
:1053700007F5A07311461846FFF782FC07F5F47392
:10538000A3F59C73184648231A4600210DF06CF9CA
:105390000023C7F8DC316BE00023C7F8D8315EE0AA
:1053A0000023C7F8D43151E007F5F473A3F59C71DD
:1053B000D7F8DC2113465B001344D7F8D8211344F7
:1053C000DB000B44D3E9004507F5F473A3F5E6735E
:1053D0001968D7F8DC2113465B001344D7F8D421B1
:1053E00013440333DB000B44D3E90001D7F8D42185
:1053F00013465B001344D7F8D8211344DB0003F5B0
:10540000F4733B44F03BD3E90023FBF7FDF802467D
:105410000B4620462946FAF741FF02460B46104646
:10542000194607F5F473A3F59C74D7F8DC211346ED
:105430005B001344D7F8D8211344DB002344C3E9AD
:105440000001D7F8D4310133C7F8D431D7F8D431BB
:10545000022BA9DDD7F8D8310133C7F8D831D7F8F6
:10546000D831022B9CDDD7F8DC310133C7F8DC31B1
:10547000D7F8DC31022B8FDD0023C7F8D0314AE0AA
:105480000023C7F8CC313DE007F5F473A3F5E673CC
:105490001A68D7F8D031DB001344D3E9004507F58B
:1054A000F473A3F59C71D7F8D02113465B00134425
:1054B000D7F8CC211344DB000B44D3E90001D7F823
:1054C000CC31DB0003F5F4733B44603BD3E90023AC
:1054D000FBF79AF802460B4620462946FAF7DEFE0D
:1054E00002460B4607F5F471A1F5E6710868D7F896
:1054F000D011C9000144C1E90023D7F8CC310133F0
:10550000C7F8CC31D7F8CC31022BBDDDD7F8D0317C
:105510000133C7F8D031D7F8D031022BB0DD0023EA
:10552000C7F8C83145E00023C7F8C43138E0D7F8E0
:10553000C821D7F8C4319A4203D14FF0000067491F
:1055400003E04FF000004FF0000107F5F473A3F5FE
:105550009C74D7F8C82113465B001344D7F8C421C4
:105560001344DB002344D3E90023FAF795FE0246F7
:105570000B461046194607F5F473A3F5C074D7F827
:10558000C82113465B001344D7F8C4211344DB0041
:105590002344C3E90001D7F8C4310133C7F8C4314B
:1055A000D7F8C431022BC2DDD7F8C8310133C7F8B0
:1055B000C831D7F8C831022BB5DD07F5F473A3F570
:1055C000E473184648231A4600210DF04DF80023D5
:1055D000C7F8C0316CE00023C7F8BC315FE000239E
:1055E000C7F8B83152E007F5F473A3F5E471D7F8C2
:1055F000C02113465B001344D7F8BC211344DB00E1
:105600000B44D3E9004507F5F473A3F5C071D7F84F
:10561000C02113465B001344D7F8B8211344DB00C4
:105620000B44D3E9000107F5F473A3F5E6731E6894
:10563000D7F8B82113465B001344D7F8BC211344B4
:105640000333DB003344D3E90023FAF7DDFF0246DE
:105650000B4620462946FAF721FE02460B46104625
:10566000194607F5F473A3F5E474D7F8C02113467F
:105670005B001344D7F8BC211344DB002344C3E987
:105680000001D7F8B8310133C7F8B831D7F8B831CD
:10569000022BA8DDD7F8BC310133C7F8BC31D7F8ED
:1056A000BC31022B9BDDD7F8C0310133C7F8C031C4
:1056B000D7F8C031022B8EDD07F5F473A3F5E6733E
:1056C0001B68183307F12001482218460DF083F8B3
:1056D00000BF07F5F677BD46F0BD00BF0000F03F04
:1056E00080B58EB000AF786387ED0A0B87ED081B9D
:1056F00087ED062B87ED043B87ED024B87ED005BC2
:105700007B6B93ED007BB0EE473AF0EE673A97ED96
:10571000002B97ED021B97ED040B786BFFF732FD22
:1057200097ED062B97ED081B97ED0A0B786BFFF7AB
:1057300077FD00BF3837BD4680BD80B582B000AF71
:105740007860786800F05AF9786800F0B3F9786802
:1057500000F076FC00BF0837BD4680BD80B52DED5A
:10576000028B86B000AF7860786800F059FA7868EC
:1057700000F0CCFA786800F02FFB884BD3ED007A6C
:10578000B1EE678A854B93ED017A844BD3ED017AB4
:1057900027EE277A814BD3ED026A804BD3ED027A54
:1057A00066EEA77A77EE277AB0EE670A10F096FBDE
:1057B000F0EE407AF0EE670AB0EE480A10F034FBE3
:1057C00087ED050A754B93ED018A744B93ED007AD2
:1057D000724BD3ED007A27EE277A704BD3ED026A35
:1057E0006E4BD3ED027A66EEA77A77EE277AB0EEAB
:1057F000670A10F073FBF0EE407AF0EE670AB0EE45
:10580000480A10F011FB87ED040AD7ED057A9FEDE9
:10581000647A27EE877ADFED636AC7EE267A5F4BFC
:10582000C3ED187AD7ED047A9FED5D7A27EE877A7B
:10583000DFED5C6AC7EE267A584BC3ED1A7A574BF8
:10584000D3ED187A9FED587AF4EEC77AF1EE10FA9C
:1058500002DD524B554A1A66504BD3ED187A9FED34
:10586000547AF4EEC77AF1EE10FA02D54B4B514A56
:105870001A6609E0494BD3ED1A7A9FED4F7A77EE1D
:10588000C77A464BC3ED1A7A444BD3ED1A7A9FED93
:10589000447AF4EEC77AF1EE10FAEBDC09E03F4B04
:1058A000D3ED1A7A9FED447A77EE877A3B4BC3EDBE
:1058B0001A7A3A4BD3ED1A7A9FED407AF4EEC77A12
:1058C000F1EE10FAEBD4354B93ED0C8A97ED050A07
:1058D00010F022FBF0EE407A28EE278A2F4BD3ED12
:1058E0000E8A97ED050A10F05BFBF0EE407A68EE49
:1058F000A77A78EE277AC7ED037A284B93ED0C8AC6
:1059000097ED040A10F04CFBF0EE407A28EE278A5F
:1059100097ED050A10F044FBF0EE407A28EE278A56
:105920001E4BD3ED0D8A97ED040A10F0F5FAF0EE58
:10593000407A68EEA77A38EE278A184BD3ED0E8AA4
:1059400097ED040A10F02CFBF0EE407A68EEA78A7F
:1059500097ED050A10F0E0FAF0EE407A68EEA77ACB
:1059600078EE677AC7ED027AD7ED030A97ED020A5F
:1059700010F05AFAF0EE407A9FED097A27EE877A16
:10598000DFED086AC7EE267A044BC3ED197A00BF33
:105990001837BD46BDEC028B80BD00BFA4050020BA
:1059A00000003443DB0F49400000B4420000B44221
:1059B0000000B4C20000B4C20000B443000034C30D
:1059C00080B586B002AF3A601A460346FB710B46BB
:1059D000BB7113467B71FB793B73BB797B737B791E
:1059E00099B2642307F10C0200930223386807F090
:1059F00025F900BF1037BD4680BD000080B586B0D8
:105A000004AF78606423029301230193274B009332
:105A100001237522D021786807F00EFA234B1B78FA
:105A2000712B3ED1D0237A6880216B20FFF7C8FF0D
:105A3000642005F057FCD0237A6801216B20FFF722
:105A4000BFFF0A2005F04EFCD0237A6800216C20AD
:105A5000FFF7B6FFD0237A6803211A20FFF7B0FFC3
:105A6000D0237A6803211920FFF7AAFFD0237A6890
:105A700008211B20FFF7A4FFD0237A6810211C20E7
:105A8000FFF79EFFD0237A6803211D20FFF798FFC0
:105A9000D0237A6802213720FFF792FF044801F0F3
:105AA00097FD00BF0837BD4680BD00BFA0050020A0
:105AB000F09601082DE9B04388B004AF7860642304
:105AC0000293012301934E4B0093012300221821DE
:105AD000786807F0B1F94A4B1B781946494801F03C
