:020000040800F2
:1000000000000220FD200008891E0008911E000843
:10001000991E0008A11E0008A91E0008000000008B
:10002000000000000000000000000000B11E0008F9
:10003000BF1E000800000000CD1E0008DB1E0008E7
:100040004D2100084D2100084D2100084D210008D8
:100050004D2100084D2100084D2100084D210008C8
:100060004D2100084D2100084D210008E91E00081F
:10007000FD1E00084D2100084D2100084D210008FB
:100080004D2100084D2100084D210008000000000E
:100090000000000000000000000000004D210008EA
:1000A0004D2100084D2100084D2100084D21000878
:1000B0004D2100084D210008111F0008251F0008D0
:1000C000391F00084D2100084D2100084D2100086E
:1000D0004D2100084D2100084D21000800000000BE
:1000E0004D2100084D2100084D21000800000000AE
:1000F0000000000000000000000000004D2100088A
:10010000000000004D2100084D2100084D2100088D
:1001100000000000000000000000000000000000DF
:100120004D2100084D2100084D2100084D210008F7
:100130004D21000800000000000000000000000049
:100140000000000000000000000000004D21000839
:100150004D2100084D2100084D2100084D210008C7
:100160004D2100084D2100080000000000000000A3
:10017000000000000000000000000000000000007F
:10018000000000004D2100080000000000000000F9
:080190004D2100084D2100087B
:1001A00010B5054C237833B9044B13B10448AFF3B1
:1001B00000800123237010BDE0010020000000003A
:1001C0007C8F000808B5034B1BB103490348AFF30C
:1001D000008008BD00000000E40100207C8F0008C2
:1001E00001F0FF01102A2BDB10F0070F08D010F8E8
:1001F000013B013A8B422DD010F0070F42B3F6D1EC
:10020000F0B441EA012141EA014122F007047FF004
:1002100000070023F0E80256083C85EA010586EA5B
:10022000010685FA47F5A3FA87F586FA47F6A5FA97
:1002300087F68EB9EED1F0BC01F0FF0102F00702A3
:1002400032B110F8013B013A83EA010313B1F8D14E
:100250000020704701387047002D06BF354603382F
:10026000073815F0010F07D1013015F4807F02BF68
:10027000013015F4C03F0130F0BC0138704700BFB9
:10028000034613F8012B002AFBD1181A01387047D6
:1002900081F0004102E000BF83F0004330B54FEA37
:1002A00041044FEA430594EA050F08BF90EA020FA4
:1002B0001FBF54EA000C55EA020C7FEA645C7FEA37
:1002C000655C00F0E2804FEA5454D4EB5555B8BF5A
:1002D0006D420CDD2C4480EA020281EA030382EACB
:1002E000000083EA010180EA020281EA0303362D5D
:1002F00088BF30BD11F0004F4FEA01314FF4801C30
:100300004CEA113102D0404261EB410113F0004F41
:100310004FEA03334CEA133302D0524263EB4303F8
:1003200094EA050F00F0A780A4F10104D5F1200E96
:100330000DDB02FA0EFC22FA05F2801841F10001F1
:1003400003FA0EF2801843FA05F359410EE0A5F1C5
:1003500020050EF1200E012A03FA0EFC28BF4CF0F6
:10036000020C43FA05F3C01851EBE37101F00045AC
:1003700007D54FF0000EDCF1000C7EEB00006EEBB9
:100380000101B1F5801F1BD3B1F5001F0CD3490843
:100390005FEA30004FEA3C0C04F101044FEA44529A
:1003A00012F5800F80F09A80BCF1004F08BF5FEA21
:1003B000500C50F1000041EB045141EA050130BD01
:1003C0005FEA4C0C404141EB0101013C28BFB1F513
:1003D000801FE9D291F0000F04BF01460020B1FA5E
:1003E00081F308BF2033A3F10B03B3F120020CDA31
:1003F0000C3208DD02F1140CC2F10C0201FA0CF00F
:1004000021FA02F10CE002F11402D8BFC2F1200C73
:1004100001FA02F120FA0CFCDCBF41EA0C01904029
:10042000E41AA2BF01EB0451294330BD6FEA040472
:100430001F3C1CDA0C340EDC04F11404C4F120025D
:1004400020FA04F001FA02F340EA030021FA04F36F
:1004500045EA030130BDC4F10C04C4F1200220FAC6
:1004600002F001FA04F340EA0300294630BD21FA04
:1004700004F0294630BD94F0000F83F4801306BFCA
:1004800081F480110134013D4EE77FEA645C18BFBE
:100490007FEA655C29D094EA050F08BF90EA020F55
:1004A00005D054EA000C04BF1946104630BD91EA4D
:1004B000030F1EBF0021002030BD5FEA545C05D150
:1004C0004000494128BF41F0004130BD14F580048F
:1004D0003CBF01F5801130BD01F0004545F0FE4103
:1004E00041F470014FF0000030BD7FEA645C1ABF38
:1004F000194610467FEA655C1CBF0B46024650EA6F
:10050000013406BF52EA033591EA030F41F400219A
:1005100030BD00BF90F0000F04BF0021704730B520
:100520004FF4806404F132044FF000054FF00001F5
:1005300050E700BF90F0000F04BF0021704730B5B6
:100540004FF4806404F1320410F0004548BF40428B
:100550004FF000013EE700BF42004FEAE2014FEAE0
:1005600031014FEA02701FBF12F07F4393F07F4FBB
:1005700081F06051704732F07F4208BF704793F0BE
:100580007F4F04BF41F40021704730B54FF46074D1
:1005900001F0004521F000411CE700BF50EA0102D4
:1005A00008BF704730B54FF000050AE050EA01027D
:1005B00008BF704730B511F0004502D5404261EBED
:1005C00041014FF4806404F132045FEA915C3FF42E
:1005D000D8AE4FF003025FEADC0C18BF03325FEACB
:1005E000DC0C18BF033202EBDC02C2F1200300FA7C
:1005F00003FC20FA02F001FA03FE40EA0E0021FAA1
:1006000002F11444BDE600BF70B54FF0FF0C4CF48E
:10061000E06C1CEA11541DBF1CEA135594EA0C0F40
:1006200095EA0C0F00F0DEF82C4481EA030621EA7B
:100630004C5123EA4C5350EA013518BF52EA0335B6
:1006400041F4801143F4801338D0A0FB02CE4FF068
:100650000005E1FB02E506F00042E0FB03E54FF098
:100660000006E1FB03569CF0000F18BF4EF0010E90
:10067000A4F1FF04B6F5007F64F5407404D25FEA8C
:100680004E0E6D4146EB060642EAC62141EA55513F
:100690004FEAC52040EA5E504FEACE2EB4F1FD0C81
:1006A00088BFBCF5E06F1ED8BEF1004F08BF5FEAFF
:1006B000500E50F1000041EB045170BD06F00046B1
:1006C00046EA010140EA020081EA0301B4EB5C045E
:1006D000C2BFD4EB0C0541EA045170BD41F4801156
:1006E0004FF0000E013C00F3AB8014F1360FDEBF7B
:1006F000002001F0004170BDC4F10004203C35DA57
:100700000C341BDC04F11404C4F1200500FA05F3D9
:1007100020FA04F001FA05F240EA020001F000427A
:1007200021F0004110EBD37021FA04F642EB0601F0
:100730005EEA430E08BF20EAD37070BDC4F10C041A
:10074000C4F1200500FA04F320FA05F001FA04F2DE
:1007500040EA020001F0004110EBD37041F10001CA
:100760005EEA430E08BF20EAD37070BDC4F12005D5
:1007700000FA05F24EEA020E20FA04F301FA05F23D
:1007800043EA020321FA04F001F0004121FA04F2E5
:1007900020EA020000EBD3705EEA430E08BF20EAB5
:1007A000D37070BD94F0000F0FD101F000464000EF
:1007B00041EB010111F4801F08BF013CF7D041EA71
:1007C000060195F0000F18BF704703F00046520075
:1007D00043EB030313F4801F08BF013DF7D043EA46
:1007E0000603704794EA0C0F0CEA135518BF95EAFC
:1007F0000C0F0CD050EA410618BF52EA4306D1D183
:1008000081EA030101F000414FF0000070BD50EAA1
:10081000410606BF1046194652EA430619D094EA2B
:100820000C0F02D150EA013613D195EA0C0F05D115
:1008300052EA03361CBF104619460AD181EA030169
:1008400001F0004141F0FE4141F470014FF0000021
:1008500070BD41F0FE4141F4780170BD70B54FF0BC
:10086000FF0C4CF4E06C1CEA11541DBF1CEA13553C
:1008700094EA0C0F95EA0C0F00F0A7F8A4EB05041E
:1008800081EA030E52EA03354FEA013100F0888015
:100890004FEA03334FF0805545EA131343EA1263DE
:1008A0004FEA022245EA111545EA10654FEA002693
:1008B0000EF000419D4208BF964244F1FD0404F54C
:1008C000407402D25B084FEA3202B61A65EB0305A8
:1008D0005B084FEA32024FF480104FF4002CB6EB65
:1008E000020E75EB030E22BFB61A754640EA0C00E5
:1008F0005B084FEA3202B6EB020E75EB030E22BF25
:10090000B61A754640EA5C005B084FEA3202B6EB65
:10091000020E75EB030E22BFB61A754640EA9C0024
:100920005B084FEA3202B6EB020E75EB030E22BFF4
:10093000B61A754640EADC0055EA060E18D04FEAB2
:10094000051545EA16754FEA06164FEAC30343EA52
:1009500052734FEAC2025FEA1C1CC0D111F4801F1F
:100960000BD141EA00014FF000004FF0004CB6E718
:1009700011F4801F04BF01430020B4F1FD0C88BFB7
:10098000BCF5E06F3FF6AFAEB5EB030C04BFB6EBC2
:10099000020C5FEA500C50F1000041EB045170BDB5
:1009A0000EF0004E4EEA113114EB5C04C2BFD4EBE2
:1009B0000C0541EA045170BD41F480114FF0000E66
:1009C000013C90E645EA060E8DE60CEA135594EAE2
:1009D0000C0F08BF95EA0C0F3FF43BAF94EA0C0FE5
:1009E0000AD150EA01347FF434AF95EA0C0F7FF45A
:1009F00025AF104619462CE795EA0C0F06D152EAAE
:100A000003353FF4FDAE1046194622E750EA410691
:100A100018BF52EA43067FF4C5AE50EA41047FF4A2
:100A20000DAF52EA43057FF4EBAE12E74FF0FF3C07
:100A300006E000BF4FF0010C02E000BF4FF0010CD8
:100A40004DF804CD4FEA410C7FEA6C5C4FEA430C51
:100A500018BF7FEA6C5C1BD001B050EA410C0CBFA0
:100A600052EA430C91EA030F02BF90EA020F002002
:100A7000704710F1000F91EA030F58BF994208BF69
:100A800090422CBFD8176FEAE37040F00100704726
:100A90004FEA410C7FEA6C5C02D150EA013C07D17D
:100AA0004FEA430C7FEA6C5CD6D152EA033CD3D0C8
:100AB0005DF8040B704700BF8446104662468C46C2
:100AC0001946634600E000BF01B5FFF7B7FF0028F5
:100AD00048BF10F1000F01BD4DF808EDFFF7F4FF1E
:100AE0000CBF012000205DF808FB00BF4DF808EDA9
:100AF000FFF7EAFF34BF012000205DF808FB00BFCC
:100B00004DF808EDFFF7E0FF94BF012000205DF8ED
:100B100008FB00BF4DF808EDFFF7CEFF94BF0120A2
:100B200000205DF808FB00BF4DF808EDFFF7C4FF9B
:100B300034BF012000205DF808FB00BF4FEA410CE4
:100B40007FEA6C5C02D150EA013C0AD14FEA430CC7
:100B50007FEA6C5C02D152EA033C02D14FF0000004
:100B600070474FF0010070474FEA410212F5001242
:100B700015D211D56FF47873B3EB625212D94FEAE4
:100B8000C12343F0004343EA505311F0004F23FACE
:100B900002F018BF404270474FF00000704750EA23
:100BA000013005D111F0004008BF6FF000407047E0
:100BB0004FF00000704700BF53B94AB9002908BF81
:100BC00000281CBF4FF0FF314FF0FF3000F088B914
:100BD000ADF1080C6DE904CE00F006F8DDF804E094
:100BE000DDE9022304B070472DE9F047089D8E46E9
:100BF00004468846002B4AD18A42174662D9B2FA87
:100C000082F64EB1C6F1200301FA06F820FA03F38A
:100C1000B74043EA0808B4404FEA174E1FFA87FC72
:100C2000B8FBFEF1230C0EFB118843EA084301FBDD
:100C30000CF29A4209D9FB1801F1FF3080F0EA80EA
:100C40009A4240F2E78002393B449A1AA3B2B2FBBF
:100C5000FEF00EFB102243EA024300FB0CFC9C4515
:100C600009D9FB1800F1FF3280F0D6809C4540F294
:100C7000D3803B44023840EA0140A3EB0C0300213F
:100C80001DB1F3400022C5E90032BDE8F0878B4278
:100C900005D90DB1C5E9000100210846F5E7B3FA11
:100CA00083F1002946D1734502D3824200F20581C7
:100CB000841A6EEB030201209046002DE5D0C5E9B1
:100CC0000048E2E7002A00F09080B2FA82F6002E97
:100CD00040F0A4808A1A030C4FEA174E80B2BCB2CF
:100CE0000121B2FBFEFC0EFB1C2243EA024304FB83
:100CF0000CF29A4207D9FB180CF1FF3802D29A4243
:100D000000F2E080C4469B1AB3FBFEF20EFB1233E6
:100D100040EA034302FB04F49C4207D9FB1802F1AA
:100D2000FF3002D29C4200F2CA8002461B1B42EAFC
:100D30000C40A5E7C1F120068B4022FA06F71F43BD
:100D40000EFA01F420FA06F32EFA06FE4FEA1749CE
:100D5000234300FA01F81FFA87FCBEFBF9F01C0CD4
:100D600009FB10EE44EA0E4400FB0CFEA64502FA15
:100D700001F209D93C1900F1FF3A80F09C80A645A8
:100D800040F2998002383C44A4EB0E041FFA83FE23
:100D9000B4FBF9F309FB13444EEA044403FB0CFCD7
:100DA000A44508D93C1903F1FF3E80F08280A44598
:100DB0007FD9023B3C4443EA0040A4EB0C04A0FB77
:100DC00002EC64457346E14662D35FD05DB1B8EB97
:100DD000030264EB090404FA06F622FA01F31E4347
:100DE000CC40C5E9006400214FE7B1FBF2FC010CE7
:100DF00041EA0E4180B240EA01423B4638463C4659
:100E0000B846BE462026B1FBF7F1A2EB080241EA44
:100E10000C4166E7014618E710462CE7C6F12002B0
:100E20002EFA02F3B740B14020FA02F24FEA174E11
:100E30000A43B3FBFEF8BCB20EFB1833110C41EAB7
:100E4000034108FB04F9B04089454FEA104380B2E2
:100E50003ED9791808F1FF3C01D289451FD8A1EB92
:100E60000901B1FBFEF909FB04F80EFB191192B25E
:100E700042EA0142424529D2BA1809F1FF31C4D2EF
:100E80004245C2D2A9F102013A44BEE7F0459DD2E3
:100E9000BEEB02036CEB070C0138E14696E7A7EBCB
:100EA00009094944A8F1020CB1FBFEF909FB04F859
:100EB000DBE773467FE7504666E70846FDE63B44BE
:100EC000023A33E7ACF1020C3B441CE749469CE78D
:100ED000A1EB0901C446B1FBFEF909FB04F8C4E724
:100EE000704700BF0000000080B592B004AF01F071
:100EF0002FF900F0F7F900F013FB00F0E9FA00F029
:100F000059FA00F0BBFA00F083FA00F06DFC002003
:100F100000F0B8FD192001F05DF9A54BD3E90001FF
:100F2000A1A3D3E90023FFF7B9F902460B46A04974
:100F3000C1E900239F4BD3E900019BA3D3E9002320
:100F4000FFF7ACF902460B469A49C1E900239A4BD8
:100F5000D3E9000194A3D3E90023FFF79FF90246E8
:100F60000B469549C1E90023944BD3E900018EA3B8
:100F7000D3E90023FFF792F902460B468F49C1E9F6
:100F800000238F4BD3E9000187A3D3E90023FFF7A8
:100F900085F902460B468A49C1E90023894BD3E90A
:100FA000000181A3D3E90023FFF778F902460B463D
:100FB0008449C1E90023844BD3E900017AA3D3E932
:100FC0000023FFF76BF902460B467F49C1E9002376
:100FD0007E4BD3E9000174A3D3E90023FFF75EF948
:100FE00002460B467949C1E90023794BD3E9000158
:100FF0006DA3D3E90023FFF751F902460B4674496C
:10100000C1E90023734BD3E9000167A3D3E90023AF
:10101000FFF744F902460B466E49C1E900236E4BC7
:10102000D3E9000160A3D3E90023FFF737F90246B3
:101030000B466949C1E900230023FB865C4BD3E9D9
:101040000023381DCDE90023644A322105F006FF54
:10105000FB8E0A33FB86624B381DF98E002202920A
:1010600040F2FF7201925A6800921B68024600200B
:1010700000F04BFC4F4BD3E90023381DCDE9002392
:10108000584A322105F0EAFEFB8E0A33FB86544BA8
:10109000381DF98E0022029240F2FF7201925A68C6
:1010A00000921B680246002000F02FFC424BD3E95F
:1010B0000023381DCDE900234B4A322105F0CEFE36
:1010C000FB8E0A33FB86464B381DF98E00220292B6
:1010D00040F2FF7201925A6800921B68024600209B
:1010E00000F013FC354BD3E90023381DCDE9002374
:1010F0003E4A322105F0B2FEFB8E0A33FB86384BA6
:10110000381DF98E002202924FF61F0201925A6892
:1011100000921B680246002000F0F7FB284BD3E941
:101120000023381DCDE90023314A322105F096FE17
:10113000FB8E0A33FB862A4B381DF98E0022029261
:101140004FF61F0201925A6800921B680246002067
:1011500000F0DBFB1C4BD3E90023381DCDE9002355
:10116000244A322105F07AFEFB8E0A33FB861C4BA3
:10117000381DF98E002202924FF61F0201925A6822
:1011800000921B680246002000F0BFFB0F4BD3E922
:101190000023381DCDE90023174A322105F05EFEF9
:1011A000FB8E0C33FB8629E09A9999999999C93F4E
:1011B0000002002008020020100200201802002077
:1011C00020020020280200203002002038020020E7
:1011D0004002002048020020500200203490000805
:1011E000000000204490000854900008649000081B
:1011F000749000088490000894900008324B381DC9
:10120000F98E002202924FF4FC6201925A68009219
:101210001B680246002000F078FB2C4BD3E900232A
:10122000381DCDE900232A4A322105F017FEFB8E36
:101230000A33FB86244B381DF98E002202924FF4AC
:10124000FC6201925A6800921B680246002000F07E
:101250005CFB204BD3E90023381DCDE900231E4A57
:10126000322105F0FBFDFB8E0A33FB86164B381D41
:10127000F98E002202924FF4FC6201925A680092A9
:101280001B680246002000F040FB144BD3E900230A
:10129000381DCDE90023124A322105F0DFFDFB8E17
:1012A0000A33FB86084B381DF98E002202924FF458
:1012B000FC6201925A6800921B680246002000F00E
:1012C00024FB00BF26E600BF0000002040020020F3
:1012D000A490000848020020B490000850020020AA
:1012E000C490000880B594B000AF07F1200330220D
:1012F0000021184605F02BFE07F10C0300221A60AE
:101300005A609A60DA601A610023BB60274B1B6C3D
:10131000264A43F080531364244B1B6C03F0805324
:10132000BB60BB6800237B60214B1B68204A43F4F1
:10133000404313601E4B1B6803F440437B607B6893
:1013400001233B624FF480337B620223BB634FF483
:101350008003FB630C233B6448237B640623BB644C
:101360000423FB6407F12003184603F043FB034604
:10137000002B01D000F04CF90F23FB6002233B61EE
:1013800000237B610023BB610023FB6107F10C0399
:101390000021184603F0A6FD0346002B01D000F003
:1013A00037F900BF5037BD4680BD00BF003802404E
:1013B0000070004080B500AF124B134A1A60114B09
:1013C000124A5A600F4B00229A600E4B0022DA60DC
:1013D0000C4B4FF480421A610A4B00225A61094BB0
:1013E00000229A61074B0022DA61064B00221A6242
:1013F000044801F0ADFC0346002B01D000F008F9D1
:1014000000BF80BD5802002000540040801A060032
:1014100080B500AF174B184A1A60164B4FF4827212
:101420005A60144B00229A60124B0022DA60114B72
:1014300000221A610F4B00225A610E4B4FF40072CA
:101440009A610C4B0022DA610A4B00221A62094BA6
:1014500000225A62074B00229A62064B0A22DA6285
:10146000044803F051FF0346002B01D000F0D0F8F0
:1014700000BF80BD6C0300200030014080B500AF8C
:10148000114B124A1A60104B4FF4E1325A600E4B66
:1014900000229A600C4B0022DA600B4B00221A618A
:1014A000094B0C225A61084B00229A61064B00221C
:1014B000DA61054804F040FC0346002B01D000F03F
:1014C000A7F800BF80BD00BFC4030020001001408A
:1014D00080B582B000AF00237B60104B1B6B0F4ABE
:1014E00043F4001313630D4B1B6B03F400137B6079
:1014F0007B68002200210B2000F048FF0B2000F049
:1015000061FF002200210C2000F040FF0C2000F0C1
:1015100059FF00BF0837BD4680BD00BF00380240FC
:1015200080B588B000AF07F10C0300221A605A6042
:101530009A60DA601A610023BB60294B1B6B284A52
:1015400043F080031363264B1B6B03F08003BB60E7
:10155000BB6800237B60224B1B6B214A43F00103D5
:1015600013631F4B1B6B03F001037B607B6800233D
:101570003B601B4B1B6B1A4A43F002031363184B6F
:101580001B6B03F002033B603B68002210211548EF
:1015900001F0C4FB00220321134801F0BFFB10231C
:1015A000FB6001233B6100237B610023BB6107F1EA
:1015B0000C0319460B4801F02DFA0323FB600123AD
:1015C0003B6100237B610023BB6107F10C031946DB
:1015D000054801F01FFA00BF2037BD4680BD00BF9F
:1015E00000380240000002400004024080B582B092
:1015F00000AF78607B681B68044A934201D100F019
:10160000C9FD00BF0837BD4680BD00BF00080040CF
:1016100080B400AF72B600BF00BFFDE780B500AF79
:1016200000221021024801F079FB00BF80BD00BFFD
:101630000000024080B500AF01221021024801F0F5
:101640006DFB00BF80BD00BF0000024080B500AF51
:1016500000220121064801F061FB052000F0BAFDDF
:1016600001220121024801F059FB00BF80BD00BFEB
:101670000004024080B582B000AF0346FB71002237
:101680000221074801F04AFBF91D4FF0FF33012208
:10169000044803F0C2FE00BF0837BD4680BD00BF4E
:1016A000000402406C03002080B582B000AF786077
:1016B000396001220221074801F030FB3B689AB2F1
:1016C0004FF0FF337968044803F0A7FE00BF0837E6
:1016D000BD4680BD000402406C03002080B584B08C
:1016E00000AF78607B685A1C7A601B78FB7334E02B
:1016F0007B685A1C7A601B78FB72FB7A1846FFF7EE
:10170000B9FF7B685A1C7A601B78BB72BB7A9BB2AC
:1017100003F08003BB81BB7A03F07F03BB72BB7A0B
:10172000002B08D0BB7A19467868FFF7BDFFBB7A5B
:101730007A6813447B60BB89002B0ED07B685A1CEF
:101740007A601B78BB81BB89FF2B02D14FF4FA73FF
:10175000BB81BB89184600F03DFDFB7B5A1EFA7326
:10176000002BC5D100BF00BF1037BD4680BD90B56E
:1017700085B000AF0446084611461A462346FB7161
:101780000346BB710B467B7113463B712A20FFF762
:1017900071FF00233B73FB790133DBB27B730023C2
:1017A000BB737B790133DBB2FB7307F10C030421BC
:1017B0001846FFF779FF2B20FFF75CFFBB79023358
:1017C000DBB27B733B790233DBB2FB7307F10C03B3
:1017D00004211846FFF768FF2C20FFF74BFF00BFDE
:1017E0001437BD4690BD000080B500AFFFF716FF6F
:1017F000FFF72CFF0648FFF771FF0648FFF76EFF63
:101800000548FFF76BFFFFF715FF00BF80BD00BF66
:10181000409800087C9800088C98000882B090B529
:1018200089B000AF7B630346FB800B46BB80134649
:10183000FB70FB88D8B2BB88D9B2FB88DAB297F8C4
:1018400034301344DBB2013BDCB2BB88DAB297F828
:1018500035301344DBB2013BDBB22246FFF787FF92
:101860000023FB6143E0BA6BFB78203B97F835100F
:1018700001FB03F31946FB690B445B0013441B880F
:101880007B610023BB6129E07A69BB6902FA03F33B
:1018900003F40043002B0ED0BB8F1B0A9BB2DBB2BC
:1018A0003B74BB8FDBB27B7407F110030221184637
:1018B000FFF7FAFE0FE0B7F840301B0A9BB2DBB22D
:1018C0003B73B7F84030DBB27B7307F10C030221A6
:1018D0001846FFF7E9FEBB690133BB6197F8343066
:1018E0001A46BB699342CFD3FB690133FB6197F87A
:1018F00035301A46FB699342B5D300BF00BF243789
:10190000BD46BDE8904002B0704782B080B586B059
:1019100004AF3A607B610346FB800B46BB80FFF758
:101920007DFE2DE0FB883A7D13449F2B13DD0023C1
:10193000FB807B7D1A46BB881344BB80BB887A7DC5
:1019400013447F2B21DC3B681B78202B03D13B68A1
:1019500001333B6014E03B681A78B988F8883B8C07
:101960000293BB8B0193BB6900937B69FFF756FF22
:101970003B7D1A46FB881344FB803B6801333B6088
:101980003B681B78002BCDD100E000BFFFF752FE73
:1019900000BF0837BD46BDE8804002B07047000078
:1019A00090B585B000AF0446084611461A46234656
:1019B000FB800346BB800B467B8013463B80FB8845
:1019C0009F2B57D8BB887F2B54D8FA887B88134429
:1019D000A02B03DDFB88C3F1A0037B80BA883B8882
:1019E0001344802B03DDBB88C3F180033B80FFF7EA
:1019F00015FEFB88D8B2BB88D9B2FB88DAB27B88E7
:101A0000DBB21344DBB2013BDCB2BB88DAB23B8809
:101A1000DBB21344DBB2013BDBB22246FFF7A7FE89
:101A20003B8C1B0A9BB2DBB23B733B8CDBB27B7300
:101A300001220221114801F071F93B88BB8013E0BB
:101A40007B88FB800AE007F10C014FF0FF33022294
:101A50000B4803F0E2FCFB88013BFB80FB88002B7A
:101A6000F1D1BB88013BBB80BB88002BE8D1FFF7DD
:101A7000E1FD00E000BF1437BD4690BD0004024008
:101A80006C03002080B584B002AF0346FB80FB8866
:101A900000938023A02200210020FFF781FF00BFD8
:101AA0000837BD4680BD000080B483B000AF00237E
:101AB0007B60104B5B6C0F4A43F4804353640D4BC7
:101AC0005B6C03F480437B607B6800233B60094BC5
:101AD0001B6C084A43F080531364064B1B6C03F0E5
:101AE00080533B603B6800BF0C37BD465DF8047B0C
:101AF000704700BF0038024080B58AB000AF786000
:101B000007F1140300221A605A609A60DA601A61C1
:101B10007B681B684F4A934240F0978000233B61EB
:101B20004D4B1B6B4C4A43F0020313634A4B1B6B38
:101B300003F002033B613B69C0237B611223BB615D
:101B40000123FB6103233B6204237B6207F114033F
:101B50001946424800F05EFF0023FB603E4B1B6CC1
:101B60003D4A43F4001313643B4B1B6C03F4001316
:101B7000FB60FB683A4B3B4A1A60394B00225A60C3
:101B8000374B40229A60364B0022DA60344B4FF4D8
:101B900080621A61324B00225A61314B00229A61F5
:101BA0002F4B0022DA612E4B00221A622C4B0022AE
:101BB0005A622B4800F014FC0346002B01D0FFF7BB
:101BC00027FD7B68264A5A63254A7B689363264B28
:101BD000264A1A60244B4FF000725A60224B0022B2
:101BE0009A60214B0022DA601F4B4FF480621A6129
:101BF0001D4B00225A611C4B00229A611A4B002295
:101C0000DA61194B00221A62174B00225A621648F9
:101C100000F0E6FB0346002B01D0FFF7F9FC7B68E0
:101C2000114A9A63104A7B689363002200211F20A7
:101C300000F0ACFB1F2000F0C5FB0022002120209B
:101C400000F0A4FB202000F0BDFB00BF2837BD46FC
:101C500080BD00BF00540040003802400004024034
:101C6000AC020020286002400C03002010600240FB
:101C700080B58AB000AF786007F1140300221A60C3
:101C80005A609A60DA601A617B681B68194A93424D
:101C90002BD100233B61184B5B6C174A43F48053F4
:101CA0005364154B5B6C03F480533B613B69002329
:101CB000FB60114B1B6B104A43F0010313630E4B87
:101CC0001B6B03F00103FB60FB68A0237B61022315
:101CD000BB610023FB6103233B6205237B6207F1A9
:101CE00014031946054800F095FE00BF2837BD468D
:101CF00080BD00BF003001400038024000000240BB
:101D000080B58AB000AF786007F1140300221A6032
:101D10005A609A60DA601A617B681B68194A9342BC
:101D20002CD100233B61184B5B6C174A43F0100326
:101D30005364154B5B6C03F010033B613B6900235C
:101D4000FB60114B1B6B104A43F0010313630E4BF6
:101D50001B6B03F00103FB60FB684FF4C0637B6106
:101D60000223BB610023FB6103233B6207237B62E9
:101D700007F114031946054800F04CFE00BF283750
:101D8000BD4680BD00100140003802400000024006
:101D900080B58EB000AF78600023FB620023BB6289
:101DA0000023FB60334B1B6C324A43F00403136483
:101DB000304B1B6C03F00403FB60FB6807F110025F
:101DC00007F114031146184603F06CFA3B6AFB62F4
:101DD000FB6A002B03D103F03DFA786304E003F0C3
:101DE00039FA03465B007B637B6B234AA2FB032328
:101DF0009B0C013BBB62214B214A1A601F4B40F2F6
:101E0000E732DA601D4ABB6A53601C4B00221A613C
:101E10001A4B00229A60194B00229A61174803F06E
:101E20001DFD034687F8333097F83330002B1BD164
:101E3000124803F06DFD034687F8333097F83330CE
:101E4000002B11D11E2000F0BDFA7B680F2B08D8A3
:101E5000002279681E2000F099FA0A4A7B68136014
:101E600002E0012387F8333097F8333018463837CB
:101E7000BD4680BD0038024083DE1B430C040020B9
:101E8000000800400C00002080B400AF00BFFDE758
:101E900080B400AF00BFFDE780B400AF00BFFDE736
:101EA00080B400AF00BFFDE780B400AF00BFFDE726
:101EB00080B400AF00BFBD465DF8047B704780B4BE
:101EC00000AF00BFBD465DF8047B704780B400AF33
:101ED00000BFBD465DF8047B704780B400AF00BF13
:101EE000BD465DF8047B704780B500AF024800F046
:101EF00047FB00BF80BD00BF0C03002080B500AFD2
:101F0000024800F03DFB00BF80BD00BFAC020020D6
:101F100080B500AF024803F05DFD00BF80BD00BF8B
:101F20000C04002080B500AF024801F06AF800BF41
:101F300080BD00BF5802002080B500AF024801F00C
:101F4000D1F900BF80BD00BF5802002080B400AFAF
:101F500001231846BD465DF8047B704780B582B00A
:101F600000AF7860396005F055F8034616221A6014
:101F70004FF0FF3318460837BD4680BD80B582B0AC
:101F800000AF78604FF0FF317868FFF7E7FF00BFE0
:101F9000FDE780B586B000AFF860B9607A600023D5
:101FA0007B610AE0AFF300800146BB685A1CBA604F
:101FB000CAB21A707B6901337B617A697B689A4285
:101FC000F0DB7B6818461837BD4680BD80B586B00B
:101FD00000AFF860B9607A6000237B6109E0BB68FC
:101FE0005A1CBA601B781846AFF300807B69013336
:101FF0007B617A697B689A42F1DB7B681846183707
:10200000BD4680BD80B483B000AF78604FF0FF3331
:1020100018460C37BD465DF8047B704780B483B02A
:1020200000AF786039603B684FF400525A6000237B
:1020300018460C37BD465DF8047B704780B483B00A
:1020400000AF7860012318460C37BD465DF8047B6D
:10205000704780B485B000AFF860B9607A60002343
:1020600018461437BD465DF8047B704780B586B0CE
:1020700000AF7860144A154BD31A7B617B693B61D2
:10208000134B1B68002B02D1114B124A1A60104BE4
:102090001A687B6813443A699A4207D204F0BAFF7F
:1020A00003460C221A604FF0FF3309E0084B1B680F
:1020B000FB60074B1A687B681344054A1360FB6892
:1020C00018461837BD4680BD0000022000040000FD
:1020D00054040020A805002080B400AF064BD3F8BC
:1020E0008830054A43F47003C2F8883000BFBD460B
:1020F0005DF8047B704700BF00ED00E0DFF834D0EE
:10210000FFF7EAFF0C480D490D4A002302E0D458BE
:10211000C4500433C4188C42F9D30A4A0A4C002331
:1021200001E013600432A242FBD304F079FFFEF712
:10213000DBFE70470000022000000020DC010020D0
:102140005C9C0008E0010020A8050020FEE70000DC
:1021500080B500AF0E4B1B680D4A43F4007313604B
:102160000B4B1B680A4A43F480631360084B1B68DF
:10217000074A43F480731360032000F0FCF80F203B
:10218000FFF706FEFFF790FC0023184680BD00BF56
:10219000003C024080B400AF064B1B781A46064B49
:1021A0001B681344044A136000BFBD465DF8047BFE
:1021B000704700BF100000205804002080B400AF1A
:1021C000034B1B681846BD465DF8047B704700BF93
:1021D0005804002080B584B000AF7860FFF7EEFFB0
:1021E000B8607B68FB60FB68B3F1FF3F05D00A4B2A
:1021F0001B781A46FB681344FB6000BFFFF7DEFF45
:102200000246BB68D31AFA689A42F7D800BF00BFEB
:102210001037BD4680BD00BF1000002080B485B0DF
:1022200000AF78607B6803F00703FB600C4BDB6852
:10223000BB60BA684FF6FF031340BB60FB681A022D
:10224000BB68134343F0BF6343F40033BB60044AED
:10225000BB68D36000BF1437BD465DF8047B704790
:1022600000ED00E080B400AF044BDB681B0A03F014
:1022700007031846BD465DF8047B704700ED00E09B
:1022800080B483B000AF0346FB7197F90730002B91
:102290000BDBFB7903F01F02074997F907305B0955
:1022A000012000FA02F241F8232000BF0C37BD469E
:1022B0005DF8047B704700BF00E100E080B483B0AC
:1022C00000AF03463960FB7197F90730002B0ADB3A
:1022D0003B68DAB20C4997F907301201D2B20B44CD
:1022E00083F800230AE03B68DAB20849FB7903F07F
:1022F0000F03043B1201D2B20B441A7600BF0C3715
:10230000BD465DF8047B704700E100E000ED00E0B1
:1023100080B489B000AFF860B9607A60FB6803F000
:102320000703FB61FB69C3F10703042B28BF0423E8
:10233000BB61FB690433062B02D9FB69033B00E058
:1023400000237B614FF0FF32BB6902FA03F3DA43EB
:10235000BB681A407B699A404FF0FF317B6901FAF4
:1023600003F3D9437B680B40134318462437BD461B
:102370005DF8047B704780B582B000AF7860786804
:10238000FFF74CFF00BF0837BD4680BD80B586B063
:1023900000AF0346B9607A60FB7300237B61FFF7EF
:1023A00061FF78617A68B9687869FFF7B1FF024622
:1023B00097F90F3011461846FFF780FF00BF183716
:1023C000BD4680BD80B582B000AF0346FB7197F972
:1023D00007301846FFF754FF00BF0837BD4680BDE1
:1023E00080B586B000AF786000237B61FFF7E6FE22
:1023F00038617B68002B01D1012399E07B680222C0
:1024000083F835207B68002283F834207B681B68C2
:102410001A687B681B6822F001021A600FE0FFF760
:10242000CDFE02463B69D31A052B08D97B682022D2
:102430005A657B68032283F83520032378E07B68A4
:102440001B681B6803F00103002BE8D17B681B6845
:102450001B687B617A69384B13407B617B685A68E3
:102460007B689B681A437B68DB681A437B681B693F
:102470001A437B685B691A437B689B691A437B68D4
:10248000DB691A437B681B6A13437A6913437B61D8
:102490007B685B6A042B07D17B68DA6A7B681B6BFD
:1024A00013437A6913437B617B681B687A691A60FE
:1024B0007B681B685B697B617B6923F007037B6139
:1024C0007B685B6A7A6913437B617B685B6A042B78
:1024D00017D17B689B6A7A6913437B617B68DB6AEF
:1024E000002B0ED0786800F019FA0346002B08D0B4
:1024F0007B6840225A657B68012283F835200123DE
:1025000016E07B681B687A695A61786800F0D0F938
:102510000346FB607B68DB6D3F229A40FB689A6054
:102520007B6800225A657B68012283F835200023EE
:1025300018461837BD4680BD3F8010F080B483B088
:1025400000AF78607B6893F83530DBB2022B04D0A3
:102550007B6880225A6501230CE07B68052283F8A2
:1025600035207B681B681A687B681B6822F00102B3
:102570001A60002318460C37BD465DF8047B70478F
:1025800080B586B000AF78600023BB608E4B1B68BF
:102590008E4AA2FB03239B0A7B617B689B6D3B6198
:1025A0003B691B68FB607B68DB6D08229A40FB6817
:1025B0001340002B1AD07B681B681B6803F00403D0
:1025C000002B13D07B681B681A687B681B6822F09D
:1025D00004021A607B68DB6D08229A403B699A60AE
:1025E0007B685B6D43F001027B685A657B68DB6D3D
:1025F00001229A40FB681340002B12D07B681B68B5
:102600005B6903F08003002B0BD07B68DB6D01223C
:102610009A403B699A607B685B6D43F002027B687D
:102620005A657B68DB6D04229A40FB681340002BDF
:1026300012D07B681B681B6803F00203002B0BD0D1
:102640007B68DB6D04229A403B699A607B685B6D16
:1026500043F004027B685A657B68DB6D10229A4068
:10266000FB681340002B43D07B681B681B6803F09A
:102670000803002B3CD07B68DB6D10229A403B693D
:102680009A607B681B681B6803F48023002B18D0BA
:102690007B681B681B6803F40023002B08D17B6850
:1026A0001B6C002B24D07B681B6C786898471FE05C
:1026B0007B689B6C002B1BD07B689B6C7868984771
:1026C00016E07B681B681B6803F48073002B07D13E
:1026D0007B681B681A687B681B6822F008021A6016
:1026E0007B681B6C002B03D07B681B6C7868984759
:1026F0007B68DB6D20229A40FB681340002B00F0C2
:102700008F807B681B681B6803F01003002B00F0B0
:1027100087807B68DB6D20229A403B699A607B68EA
:1027200093F83530DBB2052B36D17B681B681A680D
:102730007B681B6822F016021A607B681B685A6966
:102740007B681B6822F080025A617B681B6C002B3F
:1027500003D17B689B6C002B07D07B681B681A68D1
:102760007B681B6822F008021A607B68DB6D3F22E1
:102770009A403B699A607B68012283F835207B6828
:10278000002283F834207B681B6D002B7ED07B6891
:102790001B6D7868984779E07B681B681B6803F4B9
:1027A0008023002B1DD07B681B681B6803F400236B
:1027B000002B0DD17B685B6C002B31D07B685B6C90
:1027C000786898472CE000BF08000020B5814E1BB8
:1027D0007B68DB6B002B23D07B68DB6B78689847CA
:1027E0001EE07B681B681B6803F48073002B0FD10D
:1027F0007B681B681A687B681B6822F010021A60ED
:102800007B68012283F835207B68002283F834201E
:102810007B68DB6B002B03D07B68DB6B78689847A9
:102820007B685B6D002B32D07B685B6D03F001032E
:10283000002B22D07B68052283F835207B681B683B
:102840001A687B681B6822F001021A60BB680133BA
:10285000BB607A699A4207D37B681B681B6803F0E8
:102860000103002BF2D100E000BF7B68012283F856
:1028700035207B68002283F834207B68DB6C002BDA
:1028800005D07B68DB6C7868984700E000BF18379C
:10289000BD4680BD80B483B000AF78607B6893F89C
:1028A0003530DBB218460C37BD465DF8047B704707
:1028B00080B485B000AF78607B681B68DBB2103BEA
:1028C000144AA2FB03231B09FB60134AFB68134451
:1028D0001B781A467B68DA65FB68032B09D97B688D
:1028E0001B6823F47F7323F003031A1D7B689A652A
:1028F00007E07B681B6823F47F7323F003037A6887
:1029000093657B689B6D18461437BD465DF8047B64
:10291000704700BFABAAAAAAD098000880B485B0BF
:1029200000AF78600023FB737B689B6ABB607B68A9
:102930009B69002B1FD1BB68032B56D801A252F80C
:1029400023F000BF55290008672900085529000811
:10295000EB2900087B68DB6A03F08073002B46D00C
:102960000123FB7343E07B68DB6AB3F1C07F40D196
:102970000123FB733DE07B689B69B3F5005F21D1C8
:10298000BB68032B37D801A252F823F09D29000819
:10299000A32900089D290008B52900080123FB731D
:1029A00030E07B68DB6A03F08073002B25D00123C5
:1029B000FB7322E07B68DB6AB3F1C07F1FD1012388
:1029C000FB731CE0BB68022B03D9BB68032B03D04D
:1029D00018E00123FB7315E07B68DB6A03F080736A
:1029E000002B0ED00123FB730BE000BF0AE000BFF9
:1029F00008E000BF06E000BF04E000BF02E000BF47
:102A000000E000BFFB7B18461437BD465DF8047B31
:102A1000704700BF80B489B000AF78603960002390
:102A20007B6100233B610023BB610023FB6159E113
:102A30000122FB6902FA03F37B613B681B687A6938
:102A400013403B613A697B699A4240F048813B6898
:102A50005B6803F00303012B05D03B685B6803F060
:102A60000303022B30D17B689B68BB61FB695B0071
:102A7000032202FA03F3DB43BA691340BB613B68EC
:102A8000DA68FB695B0002FA03F3BA691343BB61BE
:102A90007B68BA699A607B685B68BB610122FB69ED
:102AA00002FA03F3DB43BA691340BB613B685B681E
:102AB0001B0903F00102FB6902FA03F3BA6913432D
:102AC000BB617B68BA695A603B685B6803F00303CB
:102AD000032B17D07B68DB68BB61FB695B000322BB
:102AE00002FA03F3DB43BA691340BB613B689A689F
:102AF000FB695B0002FA03F3BA691343BB617B68AD
:102B0000BA69DA603B685B6803F00303022B23D1E8
:102B1000FB69DA087B68083253F82230BB61FB6935
:102B200003F007039B000F2202FA03F3DB43BA69A9
:102B30001340BB613B681A69FB6903F007039B0004
:102B400002FA03F3BA691343BB61FB69DA087B68D5
:102B50000832B96943F822107B681B68BB61FB69C6
:102B60005B00032202FA03F3DB43BA691340BB6143
:102B70003B685B6803F00302FB695B0002FA03F346
:102B8000BA691343BB617B68BA691A603B685B68CA
:102B900003F44033002B00F0A2800023FB60574B6E
:102BA0005B6C564A43F480435364544B5B6C03F4B0
:102BB0008043FB60FB68524AFB699B08023352F872
:102BC0002330BB61FB6903F003039B000F2202FA71
:102BD00003F3DB43BA691340BB617B68494A934204
:102BE00019D07B68484A934213D07B68474A934286
:102BF0000DD07B68464A934207D07B68454A934292
:102C000001D1042308E0072306E0032304E00223A4
:102C100002E0012300E00023FA6902F003029200BF
:102C20009340BA691343BB613549FB699B08023382
:102C3000BA6941F82320384B9B68BB613B69DB4391
:102C4000BA691340BB613B685B6803F48013002BD7
:102C500003D0BA693B691343BB612F4ABB699360D8
:102C60002D4BDB68BB613B69DB43BA691340BB6139
:102C70003B685B6803F40013002B03D0BA693B691F
:102C80001343BB61244ABB69D360234B5B68BB61C0
:102C90003B69DB43BA691340BB613B685B6803F483
:102CA0000033002B03D0BA693B691343BB611A4A56
:102CB000BB695360184B1B68BB613B69DB43BA6956
:102CC0001340BB613B685B6803F48033002B03D087
:102CD000BA693B691343BB610F4ABB691360FB6967
:102CE0000133FB61FB690F2B7FF6A2AE00BF00BF73
:102CF0002437BD465DF8047B704700BF00380240B2
:102D00000038014000000240000402400008024078
:102D1000000C024000100240003C014080B483B02F
:102D200000AF78600B467B8013467B707B78002B6E
:102D300003D07A887B689A6103E07B881A047B68F9
:102D40009A6100BF0C37BD465DF8047B70470000F8
:102D500080B584B000AF78607B68002B01D101237F
:102D60002BE17B6893F83D30DBB2002B06D17B680A
:102D7000002283F83C207868FEF7BEFE7B682422A0
:102D800083F83D207B681B681A687B681B6822F00B
:102D900001021A607B681B681A687B681B6842F432
:102DA00000421A607B681B681A687B681B6822F403
:102DB00000421A6002F04EFAF8607B685B68814A54
:102DC000934207D8FB68804A934294BF01230023B3
:102DD000DBB206E0FB687D4A934294BF01230023E7
:102DE000DBB2002B01D00123E7E0FB68784AA2FBAD
:102DF00003239B0CBB607B681B685B6823F03F016F
:102E00007B681B68BA680A435A607B681B681B6A48
:102E100023F03F017B685B686A4A934202D8BB6833
:102E2000013309E0BB684FF4967202FB03F3694A71
:102E3000A2FB03239B0901337A6812680B431362D8
:102E40007B681B68DB6923F44F4222F0FF027B683A
:102E50005B685C498B4219D8FB68591E7B685B68CC
:102E60005B00B1FBF3F3591C40F6FC730B40002BE5
:102E70000AD0FB68591E7B685B685B00B1FBF3F30B
:102E80000133C3F30B0351E004234FE07B689B68DD
:102E9000002B11D1FB68581E7B6859680B465B00FC
:102EA0000B44B0FBF3F30133C3F30B03002B0CBF54
:102EB00001230023DBB212E0FB68581E7B685968CF
:102EC0000B469B000B4499000B44B0FBF3F301331A
:102ED000C3F30B03002B0CBF01230023DBB2002B39
:102EE00001D0012322E07B689B68002B0ED1FB6898
:102EF000581E7B6859680B465B000B44B0FBF3F32C
:102F00000133C3F30B0343F400430FE0FB68581E87
:102F10007B6859680B469B000B4499000B44B0FB3F
:102F2000F3F30133C3F30B0343F4404379680968B7
:102F30001343CB617B681B681B6823F0C0017B686F
:102F4000DA697B681B6A1A437B681B680A431A604C
:102F50007B681B689B6823F4034323F0FF037A68B4
:102F600011697A68D26811437A6812680B439360DA
:102F70007B681B68DB6823F0FF017B685A697B680C
:102F80009B691A437B681B680A43DA607B681B688D
:102F90001A687B681B6842F001021A607B68002295
:102FA0001A647B68202283F83D207B6800221A6324
:102FB0007B68002283F83E20002318461037BD4668
:102FC00080BD00BFA08601007F841E00FF083D0079
:102FD00083DE1B43D34D621080B483B000AF7860B2
:102FE0007B681B685B6903F08003802B03D17B68DF
:102FF0001B6800221A6100BF0C37BD465DF8047BD8
:10300000704780B588B000AF78600023BB617B68F3
:103010001B685B687B617B68DB6A3B617B6893F85C
:103020003E30FB737B6893F83D30BB73FB7B102B0A
:1030300003D0FB7B402B40F0C1807B681B689B6901
:10304000BB617B681B685B69FB61FB6903F0010383
:10305000002B0DD13B69B3F52A0F03D03B69B3F1C7
:103060002A4F01D1012300E00023012B00F032811F
:10307000FB6903F00103002B0CD07B695B0A03F0B2
:103080000103002B06D0786801F098FC786800F006
:103090009BFD92E0FB69DB0803F00103002B09D0E4
:1030A0007B695B0A03F00103002B03D0786800F012
:1030B00011FE82E0FB695B0803F00103002B09D0DD
:1030C0007B695B0A03F00103002B03D0786800F0F2
:1030D0002BFE72E0BB699B0803F00103002B3BD081
:1030E0007B681B685B6803F40063B3F5006F00F056
:1030F000F380FB69DB0903F00103002B0FD07B6930
:103100009B0A03F00103002B09D0FB699B0803F025
:103110000103002B03D1786800F0F3F94DE0FB695F
:103120009B0803F00103002B00F0D6807B695B0A4B
:1031300003F00103002B00F0CF80BB7B212B03D1D8
:10314000786800F07AFAC7E0FB7B402B40F0C4803F
:10315000786800F0E8FABFE07B681B685B6803F4FE
:103160000063B3F5006F00F0B780FB699B0903F0C3
:103170000103002B0FD07B699B0A03F00103002B96
:1031800009D0FB699B0803F00103002B03D1786889
:1031900000F061FB11E0FB699B0803F00103002BC9
:1031A00000F09A807B695B0A03F00103002B00F0BA
:1031B0009380786800F017FC8EE08DE07B681B6CD4
:1031C000002B04D07B681B685B69FB6107E07B68B0
:1031D0001B689B69BB617B681B685B69FB61FB6962
:1031E0005B0803F00103002B12D07B695B0A03F03C
:1031F0000103002B0CD07B681B6C002B03D07B6879
:103200001B689B69BB61B969786800F0DCFF66E008
:10321000FB691B0903F00103002B09D07B695B0AE2
:1032200003F00103002B03D0786801F017F856E093
:10323000BB7B212B02D0BB7B292B25D1FB69DB0972
:1032400003F00103002B0FD07B699B0A03F00103FD
:10325000002B09D0FB699B0803F00103002B03D16D
:10326000786800F0F2FE39E0FB699B0803F0010387
:10327000002B33D07B695B0A03F00103002B2DD0B8
:10328000786800F01FFF29E0FB699B0903F0010348
:10329000002B0FD07B699B0A03F00103002B09D0A0
:1032A000FB699B0803F00103002B03D1786800F051
:1032B0002AFF14E0FB699B0803F00103002B0ED0EA
:1032C0007B695B0A03F00103002B08D0786800F0EB
:1032D00058FF04E000BF02E000BF00E000BF20375D
:1032E000BD4680BD80B58AB000AF78607B681B6842
:1032F0005B693B627B681B685B68FB6100237B62E8
:103300007B6893F83E30FB763B6A1B0A03F00103AF
:10331000002B0ED0FB691B0A03F00103002B08D021
:103320007B6A43F001037B627B681B686FF48072E9
:103330005A613B6A5B0A03F00103002B0ED0FB6964
:103340001B0A03F00103002B08D07B6A43F0020341
:103350007B627B681B686FF400725A613B6A9B0A50
:1033600003F00103002B3FD0FB691B0A03F00103AC
:10337000002B39D0FB7EBB767B685B8D9BB27B617B
:103380007B6893F83D30FB747B681B6BFB60BB7EF6
:10339000202B12D17B69002B0FD1FB7C212B08D075
:1033A000FB7C292B05D0FB7C282B06D1FB68212B2D
:1033B00003D1786801F082F816E07B681B686FF42F
:1033C00080625A617B6A43F004037B62FB7E102BB0
:1033D00002D0FB7E402B07D17B681B681A687B6894
:1033E0001B6842F400721A603B6ADB0A03F00103B7
:1033F000002B0ED0FB691B0A03F00103002B08D041
:103400007B6A43F008037B627B681B686FF4006291
:103410005A617B6A002B08D07B681A6C7B6A1A435E
:103420007B681A64786801F0BDF800BF2837BD4694
:1034300080BD80B483B000AF786000BF0C37BD465C
:103440005DF8047B704780B483B000AF786000BF44
:103450000C37BD465DF8047B704780B483B000AF85
:10346000786000BF0C37BD465DF8047B704780B4C0
:1034700083B000AF786000BF0C37BD465DF8047BB9
:10348000704780B483B000AF78600B46FB70134682
:103490003B8000BF0C37BD465DF8047B704780B4AD
:1034A00083B000AF786000BF0C37BD465DF8047B89
:1034B000704780B483B000AF786000BF0C37BD4662
:1034C0005DF8047B704780B483B000AF786000BFC4
:1034D0000C37BD465DF8047B704780B483B000AF05
:1034E000786000BF0C37BD465DF8047B704780B440
:1034F00083B000AF786000BF0C37BD465DF8047B39
:10350000704780B584B000AF78607B6893F83D3039
:10351000FB737B6893F83E30BB737B68DB6ABB60F0
:103520007B681B8D002B50D1FB7B212B4DD1BB68C1
:10353000082B1DD0BB68202B1AD0BB6813F5803F29
:1035400016D07B681B685A687B681B6822F4E062AF
:103550005A607B6811221A637B68002283F83E2040
:103560007B68202283F83D207868FFF762FF60E0E7
:103570007B681B685A687B681B6822F4E0625A60AB
:103580007B681B681A687B681B6842F400721A60CB
:103590007B6800221A637B68202283F83D207B68C9
:1035A00093F83E30DBB2402B07D17B68002283F8D2
:1035B0003E207868FFF77DFF3BE07B68002283F8C0
:1035C0003E207868FFF735FF33E0FB7B212B05D0E9
:1035D000BB7B402B2DD1FB7B222B2AD17B685B8DC3
:1035E0009BB2002B08D17B681B685A687B681B68FC
:1035F00022F480625A601CE07B6893F83E30DBB2B4
:10360000402B03D1786800F08EF812E07B685B6A8B
:103610001A787B681B681A617B685B6A5A1C7B6836
:103620005A627B685B8D9BB2013B9AB27B685A857C
:10363000FFE700BF1037BD4680BD80B584B000AF46
:1036400078607B68DB6AFB607B6893F83D30DBB2B7
:10365000212B64D17B685B8D9BB2002B12D07B68E1
:103660005B6A1A787B681B681A617B685B6A5A1C04
:103670007B685A627B685B8D9BB2013B9AB27B6828
:103680005A854CE0FB68082B1DD0FB68202B1AD014
:10369000FB6813F5803F16D07B681B685A687B680F
:1036A0001B6822F4E0625A607B6811221A637B680F
:1036B000002283F83E207B68202283F83D20786832
:1036C000FFF7B7FE2BE07B681B685A687B681B68B6
:1036D00022F4E0625A607B681B681A687B681B688A
:1036E00042F400721A607B6800221A637B68202211
:1036F00083F83D207B6893F83E30DBB2402B07D146
:103700007B68002283F83E207868FFF7D2FE06E04F
:103710007B68002283F83E207868FFF78AFE00BFAE
:103720001037BD4680BD80B584B000AF78607B683F
:1037300093F83D30FB737B681B6D002B1DD17B68BC
:10374000DB6C012B0BD17B689B6CDAB27B681B684E
:103750001A617B681B6D9A1C7B681A6577E07B6831
:103760009B6C9BB21B12DAB27B681B681A617B6888
:103770001B6D5A1C7B681A6569E07B681B6D012B09
:103780000BD17B689B6CDAB27B681B681A617B6823
:103790001B6D5A1C7B681A6559E07B681B6D022BF8
:1037A00052D1FB7B222B0DD17B681B681A687B688A
:1037B0001B6842F480721A607B681B6D5A1C7B6820
:1037C0001A6544E07B685B8D9BB2002B15D0FB7BB8
:1037D000212B12D17B685B6A1A787B681B681A619F
:1037E0007B685B6A5A1C7B685A627B685B8D9BB204
:1037F000013B9AB27B685A8529E07B685B8D9BB25E
:10380000002B24D1FB7B212B21D17B681B685A68BC
:103810007B681B6822F4E0625A607B681B681A6848
:103820007B681B6842F400721A607B6800221A638E
:103830007B68202283F83D207B68002283F83E20AD
:103840007868FFF736FE02E07868FFF7C5FB00BF37
:103850001037BD4680BD80B584B000AF78607B680E
:1038600093F83D30DBB2222B40F0B9807B68DB6AF5
:10387000FB607B685B8D9BB2BB60BB68032B21D96F
:103880007B681B681A697B685B6AD2B21A707B68B6
:103890005B6A5A1C7B685A627B685B8D9BB2013BFA
:1038A0009AB27B685A857B685B8D9BB2032B40F094
:1038B00096807B681B685A687B681B6822F480626C
:1038C0005A608CE07B68DB6A022B7FD0BB68012BDF
:1038D00002D0BB68002B79D1786801F03DF803462F
:1038E000002B4CD17B681B681A687B681B6822F42C
:1038F00080621A607B681B685A687B681B6822F4C8
:10390000E0625A607B681B681A697B685B6AD2B2A6
:103910001A707B685B6A5A1C7B685A627B685B8D95
:103920009BB2013B9AB27B685A857B68202283F860
:103930003D207B6893F83E30DBB2402B0AD17B6898
:10394000002283F83E207B6800221A637868FFF724
:10395000BAFD44E07B68002283F83E20FB68082B18
:1039600002D0FB68202B03D17B6800221A6302E09F
:103970007B6812221A637868FFF765FD2FE07B6889
:103980001B685A687B681B6822F4E0625A607B6897
:103990001B681A697B685B6AD2B21A707B685B6AC3
:1039A0005A1C7B685A627B685B8D9BB2013B9AB262
:1039B0007B685A857B68202283F83D207B68002243
:1039C00083F83E207868FFF788FD08E07B681B6875
:1039D0005A687B681B6822F480625A60FFE700BF68
:1039E0001037BD4680BD80B584B000AF78607B687D
:1039F000DB6AFB607B685B8D9BB2042B1BD17B6811
:103A00001B685A687B681B6822F480625A607B6876
:103A10001B681A697B685B6AD2B21A707B685B6A42
:103A20005A1C7B685A627B685B8D9BB2013B9AB2E1
:103A30007B685A85C4E07B685B8D9BB2032B29D1E0
:103A40007B681B685A687B681B6822F480625A6036
:103A5000FB68042B0AD0FB68022B07D07B681B682D
:103A60001A687B681B6822F480621A607B681B6896
:103A70001A697B685B6AD2B21A707B685B6A5A1CEF
:103A80007B685A627B685B8D9BB2013B9AB27B6814
:103A90005A8595E07B685B8D9BB2022B7DD1FB68DC
:103AA000012B02D0FB68102B08D17B681B681A68B9
:103AB0007B681B6822F480621A6016E0FB68042BA6
:103AC00002D0FB68022B08D17B681B681A687B68F0
:103AD0001B6842F480621A6007E07B681B681A6802
:103AE0007B681B6842F400721A607B681B681A6965
:103AF0007B685B6AD2B21A707B685B6A5A1C7B680F
:103B00005A627B685B8D9BB2013B9AB27B685A8597
:103B10007B681B681A697B685B6AD2B21A707B6823
:103B20005B6A5A1C7B685A627B685B8D9BB2013B67
:103B30009AB27B685A857B681B685A687B681B68E9
:103B400022F440725A607B68202283F83D207B6813
:103B500093F83E30DBB2402B0AD17B68002283F819
:103B60003E207B6800221A637868FFF7ACFC27E0F0
:103B70007B68002283F83E20FB68082B02D0FB689C
:103B8000202B03D17B6800221A6302E07B6812229B
:103B90001A637868FFF757FC12E07B681B681A69A4
:103BA0007B685B6AD2B21A707B685B6A5A1C7B685E
:103BB0005A627B685B8D9BB2013B9AB27B685A85E7
:103BC00000BF1037BD4680BD80B483B000AF7860C1
:103BD0007B6893F83E30DBB2402B17D17B681B6DBE
:103BE000002B09D17B685B6CDBB21A467B681B68D3
:103BF00002F0FE021A6167E07B685B6CDBB243F0A7
:103C00000103DAB27B681B681A615DE07B681B699F
:103C1000B3F5804F33D17B6893F83D30DBB2212B75
:103C200009D17B685B6CDBB21A467B681B6802F0CB
:103C3000FE021A6108E07B685B6CDBB243F00103B3
:103C4000DAB27B681B681A617B685B6B002B04D05F
:103C50007B685B6BDB6B002B08D17B689B6B002B5D
:103C600032D07B689B6BDB6B002B2DD07B681B6895
:103C70005A687B681B6842F400625A6024E07B68E3
:103C80001B6D002B0ED17B685B6C9BB2DB11DBB232
:103C900003F00603DBB263F00F03DAB27B681B6844
:103CA0001A6111E07B681B6D012B0DD17B685B6C89
:103CB0009BB2DB11DBB203F00603DBB263F00E0351
:103CC000DAB27B681B681A6100BF0C37BD465DF82D
:103CD000047B704780B483B000AF78607B685B6C16
:103CE000DAB27B681B681A617B685B6B002B04D0BF
:103CF0007B685B6BDB6B002B08D17B689B6B002BBD
:103D00000CD07B689B6BDB6B002B07D07B681B6840
:103D10005A687B681B6842F400625A6000BF0C3727
:103D2000BD465DF8047B704780B491B000AF786009
:103D30007B6893F83E3087F83F307B68DB6ABB6373
:103D40007B681B6B7B637B6893F83D30DBB2222B77
:103D500040F069817B681B6D002B0FD197F83F30D5
:103D6000402B0BD100233B637B681B685B693B6383
:103D70007B681B689B693B633B6B60E17B681B6DE9
:103D8000002B1DD17B681B69B3F5404F18D1002370
:103D9000FB627B681B685B69FB627B681B689B69D5
:103DA000FB62FB6A7B681B681A687B681B6842F4CD
:103DB00080721A607B681B6D5A1C7B681A653EE135
:103DC0007B685B8D9BB2002B13D10023BB627B68A9
:103DD0001B685B69BB627B681B689B69BB62BB6AD3
:103DE0007B681B681A687B681B6842F400721A6063
:103DF00015E17B685B8D9BB2012B40F08A80BB6B29
:103E000013F5803F37D17B681B681A687B681B6895
:103E100022F480621A607B681B685B6803F40063AD
:103E2000B3F5006F13D17B681B681A687B681B6849
:103E300022F480621A6000237B627B681B685B69E6
:103E40007B627B681B689B697B627B6AE7E000237F
:103E50003B627B681B685B693B627B681B689B6994
:103E60003B623B6A7B681B681A687B681B6842F48C
:103E700000721A60D3E0BB6B082B2ED0BB6B202BDB
:103E80002BD07B6B122B02D1BB6B012B25D1BB6BD3
:103E9000042B0ED0BB6B022B0BD0BB6B102B08D0AE
:103EA0007B681B681A687B681B6822F480621A6052
:103EB00007E07B681B681A687B681B6842F48062B5
:103EC0001A600023FB617B681B685B69FB617B6890
:103ED0001B689B69FB61FB69A1E07B681B681A6832
:103EE0007B681B6822F480621A600023BB617B68D8
:103EF0001B685B69BB617B681B689B69BB61BB69B5
:103F00007B681B681A687B681B6842F400721A6041
:103F100085E07B685B8D9BB2022B4DD1BB6B042B84
:103F200016D0BB6B022B13D0BB6B102B10D07B6851
:103F30001B681A687B681B6822F480621A607B68C1
:103F40001B681A687B681B6842F400621A6007E00D
:103F50007B681B681A687B681B6842F480621A6081
:103F60007B681B685B6803F40063B3F5006F17D1CF
:103F7000BB6B13F5803F0BD0BB6B012B08D0BB6B29
:103F8000082B05D0BB6B102B02D0BB6B202B07D1AD
:103F90007B681B685A687B681B6842F480525A60D1
:103FA00000237B617B681B685B697B617B681B68A6
:103FB0009B697B617B6932E07B681B681A687B6860
:103FC0001B6842F480621A607B681B685B6803F4BC
:103FD0000063B3F5006F17D1BB6B13F5803F0BD0B7
:103FE000BB6B012B08D0BB6B082B05D0BB6B102B18
:103FF00002D0BB6B202B07D17B681B685A687B689B
:104000001B6842F480525A6000233B617B681B6846
:104010005B693B617B681B689B693B613B697B68B3
:1040200000221A650BE00023FB607B681B685B695C
:10403000FB607B681B689B69FB60FB68FFE700BF58
:104040004437BD465DF8047B704780B584B000AF4F
:1040500078607B6893F83D30FB737B685B8D9BB227
:10406000002B2BD07B685B6A1A787B681B681A610F
:104070007B685B6A5A1C7B685A627B685B8D9BB26B
:10408000013B9AB27B685A857B685B8D9BB2002BA3
:1040900014D1FB7B292B11D17B681B685A687B6884
:1040A0001B6822F480625A607B6821221A637B6855
:1040B000282283F83D207868FFF7CFF900BF10373A
:1040C000BD4680BD80B483B000AF78607B685B8DF7
:1040D0009BB2002B11D07B685B6A1A787B681B68E7
:1040E0001A617B685B6A5A1C7B685A627B685B8DCD
:1040F0009BB2013B9AB27B685A8500BF0C37BD4624
:104100005DF8047B704780B584B000AF78607B6851
:1041100093F83D30FB737B685B8D9BB2002B2CD0FA
:104120007B681B681A697B685B6AD2B21A707B680D
:104130005B6A5A1C7B685A627B685B8D9BB2013B51
:104140009AB27B685A857B685B8D9BB2002B14D139
:10415000FB7B2A2B11D17B681B685A687B681B6824
:1041600022F480625A607B6822221A637B682822CC
:1041700083F83D207868FFF77AF900BF1037BD4615
:1041800080BD80B483B000AF78607B685B8D9BB2EC
:10419000002B12D07B681B681A697B685B6AD2B2FD
:1041A0001A707B685B6A5A1C7B685A627B685B8DFD
:1041B0009BB2013B9AB27B685A8500BF0C37BD4663
:1041C0005DF8047B704780B584B000AF78603960DB
:1041D0000023FB737B6893F83D30DBB203F02803C8
:1041E000282B27D17B681B685A687B681B6822F4E0
:1041F00080625A603B689B0803F00103002B01D1E9
:104200000123FB733B68DB0903F00103002B03D19F
:104210007B68DB68BB8102E07B689B69BB817B6854
:10422000002283F83C20BA89FB7B19467868FFF7A7
:1042300028F90EE00023BB607B681B685B69BB60EC
:104240007B681B689B69BB60BB687B68002283F846
:104250003C2000BF1037BD4680BD000080B584B053
:1042600000AF78607B6893F83D30FB737B681B6818
:104270005A687B681B6822F4E0625A600023BB60C6
:104280007B681B685B69BB607B681B681A687B681E
:104290001B6842F001021A60BB687B681B681A68E1
:1042A0007B681B6822F480621A607B681B685B680D
:1042B00003F40063B3F5006F72D1FB7B222B02D0B5
:1042C000FB7B2A2B35D17B689B6B1B685B689AB2A2
:1042D0007B685A857B685B8D9BB2002B05D07B6821
:1042E0001B6C43F004027B681A647B681B685A6885
:1042F0007B681B6822F400625A607B689B6B1846DF
:10430000FEF7C8FA0346012B49D07B689B6B694ACC
:104310001A657B689B6B1846FEF710F90346002B65
:104320003DD07B689B6B1B6D7A68926B10469847FB
:1043300035E07B685B6B1B685B689AB27B685A856B
:104340007B685B8D9BB2002B05D07B681B6C43F0B8
:1043500004027B681A647B681B685A687B681B6868
:1043600022F400625A607B685B6B1846FEF792FA93
:104370000346012B14D07B685B6B4E4A1A657B6841
:104380005B6B1846FEF7DAF80346002B08D07B6813
:104390005B6B1B6D7A68526B1046984700E000BF5C
:1043A0007B685B8D9BB2002B3ED07B681B685B6992
:1043B00003F00403042B12D17B681B681A697B6825
:1043C0005B6AD2B21A707B685B6A5A1C7B685A625D
:1043D0007B685B8D9BB2013B9AB27B685A857B6898
:1043E0001B685B6903F04003402B12D17B681B689C
:1043F0001A697B685B6AD2B21A707B685B6A5A1C66
:104400007B685A627B685B8D9BB2013B9AB27B688A
:104410005A857B685B8D9BB2002B05D07B681B6C3B
:1044200043F004027B681A647B681B6C002B03D08A
:10443000786800F0B7F839E0FB7B2A2B09D17B685C
:1044400000221A637B68282283F83D207868FFF7F2
:104450000EF87B6893F83D30DBB2282B11D17B68D6
:10446000154ADA627B6800221A637B68202283F88F
:104470003D207B68002283F83E207868FFF70FF824
:1044800014E07B681B6B222B02D0FB7B222B0DD10F
:104490007B6800221A637B68202283F83D207B68BA
:1044A000002283F83E207868FEF7E1FF00BF103756
:1044B000BD4680BD094800080000FFFF80B584B0FC
:1044C00000AF78607B6893F83D30FB737B68DB6AF4
:1044D000BB60BB68082B02D0BB68202B29D1FB7BBB
:1044E000282B26D17B682E4ADA627B681B685A68C3
:1044F0007B681B6822F4E0625A607B681B686FF47B
:1045000080625A617B681B681A687B681B6822F4AA
:1045100080621A607B6800221A637B68202283F81D
:104520003D207B68002283F83E207868FEF7B7FFC5
:1045300031E0FB7B212B29D17B68194ADA627B6849
:1045400021221A637B68202283F83D207B680022A9
:1045500083F83E207B681B685A687B681B6822F4DE
:10456000E0625A607B681B686FF480625A617B6806
:104570001B681A687B681B6822F480621A6078687E
:10458000FEF72AFD7868FEF768FF04E07B681B6889
:104590006FF480625A6100BF1037BD4680BD00BF16
:1045A0000000FFFF80B584B000AF78607B6893F8AF
:1045B0003D30FB737B6893F83E30BB73BB7B102BA5
:1045C00002D0BB7B402B0AD1FB7B222B07D17B681F
:1045D0001B681A687B681B6822F400621A60FB7B08
:1045E00003F02803282B07D17B6800221A637B681D
:1045F000282283F83D2015E07B681B685B6803F484
:104600000063B3F5006F0AD0FB7B602B07D07B689B
:10461000202283F83D207B68002283F83E207B68BF
:1046200000221A637B681B685B6803F40063B3F5C0
:10463000006F62D17B681B685A687B681B6822F434
:1046400000625A607B685B6B93F83530DBB2012BFC
:1046500020D07B685B6B6A4A1A657B685B6B184687
:10466000FDF76CFF0346002B00F089807B681B6818
:104670001A687B681B6822F001021A607B6820229E
:1046800083F83D207B685B6B1B6D7A68526B10462C
:10469000984774E07B689B6B594A1A657B689B6BF3
:1046A0001846FDF74BFF0346002B68D07B681B685C
:1046B0005B6903F04003402B0BD17B681B681A69D0
:1046C0007B685B6AD2B21A707B685B6A5A1C7B6833
:1046D0005A627B681B681A687B681B6822F00102BB
:1046E0001A607B68202283F83D207B689B6B1B6DE2
:1046F0007A68926B1046984741E07B6893F83D30AA
:10470000DBB2602B25D17B68202283F83D207B68BB
:1047100000221A647B681B685B6903F04003402B2E
:104720000BD17B681B681A697B685B6AD2B21A700E
:104730007B685B6A5A1C7B685A627B681B681A68D4
:104740007B681B6822F001021A607868FEF7CFFED2
:1047500015E07B681B685B6903F04003402B0BD1BD
:104760007B681B681A697B685B6AD2B21A707B68C7
:104770005B6A5A1C7B685A627868FEF7AEFE7B68FB
:104780001B6CBB60BB6803F00103002B0ED1BB6840
:1047900003F00203002B09D1BB6803F00403002BD4
:1047A00004D1BB6803F00803002B07D07B681B68AB
:1047B0005A687B681B6822F4E0625A607B6893F851
:1047C0003D30FB737B681B6C03F00403042B13D197
:1047D000FB7B282B10D17B680A4ADA627B680022B7
:1047E0001A637B68202283F83D207B68002283F8CF
:1047F0003E207868FEF753FE00BF1037BD4680BDEF
:10480000094800080000FFFF80B586B000AF78605F
:104810000023FB607B689B6B7B617B6993F83D3079
:10482000FB744B4B1B68DB084A4AA2FB03231A0AA2
:1048300013469B001344DA00D31AFB60FB68002B7D
:1048400006D17B691B6C43F020027B691A640AE085
:10485000FB68013BFB607B691B681B6803F400730A
:10486000B3F5007FEAD07B695B6B002B03D07B69DB
:104870005B6B0022DA637B699B6B002B03D07B6947
:104880009B6B0022DA637B691B681A687B691B6873
:1048900022F480621A607B6900225A857B695B6B17
:1048A000002B03D07B695B6B00221A657B699B6BD5
:1048B000002B03D07B699B6B00221A657B691B6808
:1048C0001A687B691B6822F001021A607B6993F801
:1048D0003D30DBB2602B0ED17B69202283F83D2076
:1048E0007B69002283F83E207B6900221A64786984
:1048F000FEF7FDFD27E0FB7C03F02803282B17D1F2
:104900007B691B681A687B691B6842F001021A60A8
:104910007B691B681A687B691B6842F480621A60B5
:104920007B6900221A637B69282283F83D2007E017
:104930007B69202283F83D207B69002283F83E209A
:104940007869FEF7CAFD00BF1837BD4680BD00BFBD
:104950000800002089B5F81480B485B000AF7860F5
:104960000023FB60134B1B68DB08134AA2FB0323E5
:104970001A0A13469B001344FB60FB68013BFB6073
:10498000FB68002B07D17B681B6C43F020027B681F
:104990001A64012308E07B681B681B6803F400733A
:1049A000B3F5007FE9D0002318461437BD465DF803
:1049B000047B70470800002089B5F81480B483B0E8
:1049C00000AF78607B68DB6AB3F52A0F03D17B68A0
:1049D0000122DA6207E07B68DB6AB3F12A4F02D179
:1049E0007B680822DA6200BF0C37BD465DF8047BA5
:1049F0007047000080B586B000AF78607B68002B00
:104A000001D1012367E27B681B6803F00103002BDF
:104A100075D0884B9B6803F00C03042B0CD0854B9E
:104A20009B6803F00C03082B12D1824B5B6803F4E4
:104A30008003B3F5800F0BD17E4B1B6803F400336A
:104A4000002B5BD07B685B68002B57D1012342E2CF
:104A50007B685B68B3F5803F06D1764B1B68754A6F
:104A600043F4803313601DE07B685B68B3F5A02FCF
:104A70000CD1704B1B686F4A43F4802313606D4B5D
:104A80001B686C4A43F4803313600BE0694B1B686E
:104A9000684A23F480331360664B1B68654A23F42D
:104AA000802313607B685B68002B13D0FDF786FBC7
:104AB000386108E0FDF782FB02463B69D31A642B9C
:104AC00001D9032307E25B4B1B6803F40033002B7F
:104AD000F0D014E0FDF772FB386108E0FDF76EFBE3
:104AE00002463B69D31A642B01D90323F3E1514BEE
:104AF0001B6803F40033002BF0D100E000BF7B689B
:104B00001B6803F00203002B63D04A4B9B6803F041
:104B10000C03002B0BD0474B9B6803F00C03082BB6
:104B20001CD1444B5B6803F48003002B16D1414B2E
:104B30001B6803F00203002B05D07B68DB68012BA8
:104B400001D00123C7E13B4B1B6823F0F8027B68CF
:104B50001B69DB00374913430B603AE07B68DB6875
:104B6000002B20D0344B01221A60FDF727FB38615F
:104B700008E0FDF723FB02463B69D31A022B01D95B
:104B80000323A8E12B4B1B6803F00203002BF0D09A
:104B9000284B1B6823F0F8027B681B69DB00254962
:104BA00013430B6015E0244B00221A60FDF706FB4F
:104BB000386108E0FDF702FB02463B69D31A022B7D
:104BC00001D9032387E11B4B1B6803F00203002B71
:104BD000F0D17B681B6803F00803002B36D07B689C
:104BE0005B69002B16D0154B01221A60FDF7E6FA1F
:104BF000386108E0FDF7E2FA02463B69D31A022B5E
:104C000001D9032367E10B4B5B6F03F00203002B19
:104C1000F0D01BE0094B00221A60FDF7CFFA386193
:104C20000EE0FDF7CBFA02463B69D31A022B07D9F7
:104C3000032350E10038024000004742800E474203
:104C4000884B5B6F03F00203002BEAD17B681B6883
:104C500003F00403002B00F097800023FB75814BC9
:104C60001B6C03F08053002B0FD10023BB607D4BE6
:104C70001B6C7C4A43F0805313647A4B1B6C03F02B
:104C80008053BB60BB680123FB75774B1B6803F443
:104C90008073002B18D1744B1B68734A43F48073E4
:104CA0001360FDF78BFA386108E0FDF787FA0246DA
:104CB0003B69D31A022B01D903230CE16A4B1B6811
:104CC00003F48073002BF0D07B689B68012B06D126
:104CD000644B1B6F634A43F0010313671CE07B685E
:104CE0009B68052B0CD15F4B1B6F5E4A43F004039E
:104CF00013675C4B1B6F5B4A43F0010313670BE0C8
:104D0000584B1B6F574A23F001031367554B1B6F1A
:104D1000544A23F0040313677B689B68002B15D06B
:104D2000FDF74CFA38610AE0FDF748FA02463B69A4
:104D3000D31A41F28832934201D90323CBE0494B85
:104D40001B6F03F00203002BEED014E0FDF736FAE0
:104D500038610AE0FDF732FA02463B69D31A41F2A4
:104D60008832934201D90323B5E03E4B1B6F03F019
:104D70000203002BEED1FB7D012B05D1394B1B6CBF
:104D8000384A23F0805313647B689B69002B00F042
:104D9000A180344B9B6803F00C03082B5CD07B682C
:104DA0009B69022B41D1314B00221A60FDF706FAB4
:104DB000386108E0FDF702FA02463B69D31A022B7C
:104DC00001D9032387E0274B1B6803F00073002BF6
:104DD000F0D17B68DA697B681B6A1A437B685B6A7F
:104DE0009B011A437B689B6A5B08013B1B041A43C7
:104DF0007B68DB6A1B061B4913434B601B4B01227C
:104E00001A60FDF7DBF9386108E0FDF7D7F90246D3
:104E10003B69D31A022B01D903235CE0114B1B68B9
:104E200003F00073002BF0D054E0104B00221A6006
:104E3000FDF7C4F9386108E0FDF7C0F902463B69A7
:104E4000D31A022B01D9032345E0064B1B6803F05C
:104E50000073002BF0D13DE07B689B69012B07D1EB
:104E6000012338E0003802400070004060004742F3
:104E70001B4B5B68FB607B689B69012B28D0FB6840
:104E800003F480027B68DB699A4221D1FB6803F05E
:104E90003F027B681B6A9A421AD1FA6847F6C073D0
:104EA00013407A68526A9201934211D1FB6803F46D
:104EB00040327B689B6A5B08013B1B049A4207D126
:104EC000FB6803F070627B68DB6A1B069A4201D0C4
:104ED000012300E0002318461837BD4680BD00BFFF
:104EE0000038024080B584B000AF786039607B68DC
:104EF000002B01D10123CCE0684B1B6803F00703B2
:104F00003A689A420CD9654B3A68D2B21A70634B30
:104F10001B6803F007033A689A4201D00123B8E006
:104F20007B681B6803F00203002B20D07B681B68A2
:104F300003F00403002B05D0594B9B68584A43F4F7
:104F4000E05393607B681B6803F00803002B05D0D7
:104F5000534B9B68524A43F460439360504B9B68A9
:104F600023F0F0027B689B684D4913438B607B689C
:104F70001B6803F00103002B44D07B685B68012BA6
:104F800007D1474B1B6803F40033002B19D10123D1
:104F90007FE07B685B68022B03D07B685B68032B38
:104FA00007D13F4B1B6803F00073002B09D101238D
:104FB0006FE03B4B1B6803F00203002B01D1012380
:104FC00067E0374B9B6823F003027B685B683449DA
:104FD00013438B60FDF7F2F8F8600AE0FDF7EEF896
:104FE0000246FB68D31A41F28832934201D9032367
:104FF0004FE02B4B9B6803F00C027B685B689B00C7
:105000009A42EBD1254B1B6803F007033A689A429A
:105010000CD2224B3A68D2B21A70204B1B6803F0B4
:1050200007033A689A4201D0012332E07B681B688B
:1050300003F00403002B08D0194B9B6823F4E052C3
:105040007B68DB68164913438B607B681B6803F041
:105050000803002B09D0124B9B6823F460427B6845
:105060001B69DB000E4913438B6000F021F80246F8
:105070000B4B9B681B0903F00F030A49CB5C22FA18
:1050800003F3094A1360094B1B681846FCF780FEBE
:10509000002318461037BD4680BD00BF003C0240CB
:1050A00000380240B8980008080000200C000020DA
:1050B0002DE9B04F90B000AF00237B630023FB636A
:1050C00000233B630023BB63594B9B6803F00C0335
:1050D000082B0DD0082B00F2A180002B02D0042B4E
:1050E00003D09BE0534BBB639BE0534BBB6398E007
:1050F0004F4B5B6803F03F037B634D4B5B6803F4EE
:105100008003002B28D04A4B5B689B0900223B623E
:105110007A623B6AC3F308000021474B03FB01F2AC
:10512000002300FB03F31344434AA0FB0212FA627C
:105130000A46BA62FA6A1344FB627B6B0022BB61C7
:10514000FA61D7E90623D7E90A01FBF735FD0246E4
:105150000B461346FB6353E0354B5B689B0900220B
:105160003B617A613B69C3F3080A4FF0000B52467A
:105170005B464FF000004FF00001590141EAD26157
:10518000500102460B46B2EB0A0863EB0B094FF0E5
:1051900000024FF000034FEA891343EA98634FEA95
:1051A0008812B2EB080463EB09054FF000024FF0E0
:1051B0000003EB0043EA5473E20014461D4614EB6F
:1051C0000A033B6045EB0B037B604FF000024FF09E
:1051D0000003D7E9004529468B02214643EA915353
:1051E00021468A02104619467B6B0022BB60FA609A
:1051F000D7E90223FBF7E0FC02460B461346FB63AC
:105200000B4B5B681B0C03F0030301335B003B6338
:10521000FA6B3B6BB2FBF3F3BB6302E0054BBB6382
:1052200000BFBB6B18464037BD46BDE8B08F00BF1E
:10523000003802400024F40040787D0180B400AFC3
:10524000034B1B681846BD465DF8047B704700BFE2
:105250000800002080B500AFFFF7F0FF0246054BC5
:105260009B689B0A03F007030349CB5C22FA03F314
:10527000184680BD00380240C898000880B500AFCD
:10528000FFF7DCFF0246054B9B685B0B03F007034F
:105290000349CB5C22FA03F3184680BD0038024074
:1052A000C898000880B483B000AF786039607B682C
:1052B0000F221A60124B9B6803F003027B685A604E
:1052C0000F4B9B6803F0F0027B689A600C4B9B6865
:1052D00003F4E0527B68DA60094B9B68DB0803F457
:1052E000E0527B681A61074B1B6803F007023B68BA
:1052F0001A6000BF0C37BD465DF8047B704700BFE5
:1053000000380240003C024080B582B000AF7860B7
:105310007B68002B01D101237BE07B685B6A002B5B
:1053200008D17B685B68B3F5827F09D07B68002277
:10533000DA6105E07B6800221A617B6800225A610D
:105340007B6800229A627B6893F85130DBB2002BB5
:1053500006D17B68002283F850207868FCF788FC2F
:105360007B68022283F851207B681B681A687B687F
:105370001B6822F040021A607B685B6803F482724B
:105380007B689B6803F404431A437B68DB6803F47F
:1053900000631A437B681B6903F002031A437B68AE
:1053A0005B6903F001031A437B689B6903F4007394
:1053B0001A437B68DB6903F038031A437B681B6A76
:1053C00003F0800342EA03017B689B6A03F4005206
:1053D0007B681B680A431A607B689B691B0C03F09F
:1053E00004017B685B6A03F010027B681B680A4358
:1053F0005A607B681B68DA697B681B6822F400626C
:10540000DA617B6800225A657B68012283F85120AB
:10541000002318460837BD4680BD80B588B000AF70
:10542000F860B9603B601346FB80FCF7C7FEF8618B
:10543000FB887B83FB6893F85130DBB2012B01D0F2
:1054400002232AE1BB68002B02D0FB88002B01D18C
:10545000012322E1FB6893F85030012B01D1022394
:105460001BE1FB68012283F85020FB68032283F8CC
:105470005120FB6800225A65FB68BA681A63FB6812
:10548000FA889A86FB68FA88DA86FB6800229A63B3
:10549000FB6800229A87FB680022DA87FB680022FB
:1054A0005A64FB6800221A64FB689B68B3F5004FDE
:1054B0000FD1FB681B681A68FB681B6822F040026A
:1054C0001A60FB681B681A68FB681B6842F480421C
:1054D0001A60FB681B681B6803F04003402B07D071
:1054E000FB681B681A68FB681B6842F040021A6080
:1054F000FB68DB68B3F5006F52D1FB685B68002B7B
:1055000002D07B8B012B45D1FB681B6B1A88FB6893
:105510001B68DA60FB681B6B9A1CFB681A63FB68EC
:10552000DB8E9BB2013B9AB2FB68DA8632E0FB6805
:105530001B689B6803F00203022B12D1FB681B6BF4
:105540001A88FB681B68DA60FB681B6B9A1CFB6897
:105550001A63FB68DB8E9BB2013B9AB2FB68DA866A
:1055600018E0FCF72BFE0246FB69D31A3A689A4210
:1055700003D83B68B3F1FF3F02D13B68002B09D150
:10558000FB68012283F85120FB68002283F8502039
:10559000032382E0FB68DB8E9BB2002BC7D153E074
:1055A000FB685B68002B02D07B8B012B47D1FB682B
:1055B0001A6BFB681B680C3312781A70FB681B6B44
:1055C0005A1CFB681A63FB68DB8E9BB2013B9AB2E4
:1055D000FB68DA8633E0FB681B689B6803F0020314
:1055E000022B13D1FB681A6BFB681B680C33127813
:1055F0001A70FB681B6B5A1CFB681A63FB68DB8E16
:105600009BB2013B9AB2FB68DA8618E0FCF7D6FD44
:105610000246FB69D31A3A689A4203D83B68B3F151
:10562000FF3F02D13B68002B09D1FB68012283F8C0
:105630005120FB68002283F8502003232DE0FB68F3
:10564000DB8E9BB2002BC6D1FA693968F86800F08E
:10565000B1F80346002B02D0FB6820225A65FB6894
:105660009B68002B0AD100237B61FB681B68DB6809
:105670007B61FB681B689B687B617B69FB6801221F
:1056800083F85120FB68002283F85020FB685B6D93
:10569000002B01D0012300E0002318462037BD462F
:1056A00080BD000080B588B000AFF860B9603B6095
:1056B0001346FB71FCF782FD0246BB6A9B1A3A68EF
:1056C0001344FB61FCF77AFDB861394B1B685B0141
:1056D0001B0DFA6902FB03F37B6155E03B68B3F1F4
:1056E000FF3F51D0FCF76AFD0246BB69D31AFA6945
:1056F0009A4202D9FB69002B3DD1FB681B685A68AE
:10570000FB681B6822F0E0025A60FB685B68B3F537
:10571000827F11D1FB689B68B3F5004F04D0FB6812
:105720009B68B3F5806F07D1FB681B681A68FB683C
:105730001B6822F040021A60FB689B6AB3F5005FA9
:105740000FD1FB681B681A68FB681B6822F40052C3
:105750001A60FB681B681A68FB681B6842F40052F9
:105760001A60FB68012283F85120FB68002283F84D
:105770005020032318E07B69002B02D10023FB613A
:1057800002E07B69013B7B61FB681B689A68BB6830
:105790001340BA689A420CBF01230023DBB21A46B9
:1057A000FB799A429AD1002318462037BD4680BD26
:1057B0000800002080B588B002AFF860B9607A6058
:1057C0007B680093BB6801220221F868FFF76AFF3B
:1057D0000346002B07D0FB685B6D43F02002FB689B
:1057E0005A65032332E01B4B1B681B4AA2FB0323B1
:1057F0005B0D4FF47A7202FB03F37B61FB685B681D
:10580000B3F5827F12D17B680093BB6800228021B0
:10581000F868FFF747FF0346002B16D0FB685B6D67
:1058200043F02002FB685A6503230FE07B69002BDD
:105830000AD07B69013B7B61FB681B689B6803F0B6
:105840008003802BF2D000E000BF002318461837F9
:10585000BD4680BD08000020819F5E1680B582B0E5
:1058600000AF78607B68002B01D1012341E07B68A9
:1058700093F83D30DBB2002B06D17B68002283F821
:105880003C20786800F039F87B68022283F83D20DC
:105890007B681A687B6804331946104600F0B2F939
:1058A0007B68012283F846207B68012283F83E2032
:1058B0007B68012283F83F207B68012283F8402027
:1058C0007B68012283F841207B68012283F8422013
:1058D0007B68012283F843207B68012283F84420FF
:1058E0007B68012283F845207B68012283F83D20F4
:1058F000002318460837BD4680BD80B483B000AF92
:10590000786000BF0C37BD465DF8047B704700002F
:1059100080B485B000AF78607B6893F83D30DBB22F
:10592000012B01D0012344E07B68022283F83D2053
:105930007B681B68DA687B681B6842F00102DA60EA
:105940007B681B681E4A934218D07B681B68B3F1C2
:10595000804F13D07B681B681A4A93420ED07B6835
:105960001B68194A934209D07B681B68174A934207
:1059700004D07B681B68164A934211D17B681B6870
:105980009B6803F00703FB60FB68062B10D07B6865
:105990001B681A687B681B6842F001021A6007E006
:1059A0007B681B681A687B681B6842F001021A60FA
:1059B000002318461437BD465DF8047B704700BFCE
:1059C000000001400004004000080040000C0040BE
:1059D0000040014080B584B000AF78607B681B68F0
:1059E000DB68FB607B681B681B69BB60BB6803F0FE
:1059F0000203002B20D0FB6803F00203002B1BD016
:105A00007B681B686FF002021A617B6801221A77BB
:105A10007B681B689B6903F00303002B03D0786845
:105A200000F0D2F805E0786800F0C4F8786800F07B
:105A3000D5F87B6800221A77BB6803F00403002BBB
:105A400020D0FB6803F00403002B1BD07B681B688D
:105A50006FF004021A617B6802221A777B681B6868
:105A60009B6903F44073002B03D0786800F0ACF816
:105A700005E0786800F09EF8786800F0AFF87B6881
:105A800000221A77BB6803F00803002B20D0FB68C4
:105A900003F00803002B1BD07B681B686FF0080223
:105AA0001A617B6804221A777B681B68DB6903F044
:105AB0000303002B03D0786800F086F805E07868CF
:105AC00000F078F8786800F089F87B6800221A778F
:105AD000BB6803F01003002B20D0FB6803F0100319
