:020000040800F2
:1000000000000220B5BD0008759100087D91000830
:10001000859100088D91000895910008000000006E
:10002000000000000000000000000000515801081E
:100030009D91000800000000A15A0108095B010819
:1000400005BE000805BE000805BE000805BE000884
:1000500005BE000805BE000805BE000805BE000874
:1000600005BE000805BE000805BE000805BE000864
:1000700005BE0008AD91000805BE000805BE0008D9
:10008000C1910008D5910008E99100080000000026
:1000900000000000000000000000000005BE000895
:1000A00005BE000805BE000805BE000805BE000824
:1000B00005BE000805BE0008FD91000805BE000849
:1000C00005BE000805BE000805BE00081192000824
:1000D00005BE00082592000805BE000800000000CB
:1000E00005BE000805BE000805BE000800000000AF
:1000F000000000000000000000000000399200082D
:100100000000000005BE000805BE00084D92000872
:1001100000000000000000000000000000000000DF
:100120006192000805BE00087592000805BE00082F
:1001300005BE0008000000000000000000000000F4
:1001400000000000000000000000000005BE0008E4
:1001500005BE000805BE000805BE000805BE000873
:10016000899200089D920008000000000000000035
:10017000000000000000000000000000000000007F
:100180000000000005BE00080000000000000000A4
:0801900005BE000805BE0008D1
:1001A00010B5054C237833B9044B13B10448AFF3B1
:1001B00000800123237010BD7802002000000000A1
:1001C00048E8010808B5034B1BB103490348AFF3E6
:1001D000008008BD000000007C02002048E8010803
:1001E00001F0FF01102A2BDB10F0070F08D010F8E8
:1001F000013B013A8B422DD010F0070F42B3F6D1EC
:10020000F0B441EA012141EA014122F007047FF004
:1002100000070023F0E80256083C85EA010586EA5B
:10022000010685FA47F5A3FA87F586FA47F6A5FA97
:1002300087F68EB9EED1F0BC01F0FF0102F00702A3
:1002400032B110F8013B013A83EA010313B1F8D14E
:100250000020704701387047002D06BF354603382F
:10026000073815F0010F07D1013015F4807F02BF68
:10027000013015F4C03F0130F0BC0138704700BFB9
:10028000034613F8012B002AFBD1181A01387047D6
:1002900081F0004102E000BF83F0004330B54FEA37
:1002A00041044FEA430594EA050F08BF90EA020FA4
:1002B0001FBF54EA000C55EA020C7FEA645C7FEA37
:1002C000655C00F0E2804FEA5454D4EB5555B8BF5A
:1002D0006D420CDD2C4480EA020281EA030382EACB
:1002E000000083EA010180EA020281EA0303362D5D
:1002F00088BF30BD11F0004F4FEA01314FF4801C30
:100300004CEA113102D0404261EB410113F0004F41
:100310004FEA03334CEA133302D0524263EB4303F8
:1003200094EA050F00F0A780A4F10104D5F1200E96
:100330000DDB02FA0EFC22FA05F2801841F10001F1
:1003400003FA0EF2801843FA05F359410EE0A5F1C5
:1003500020050EF1200E012A03FA0EFC28BF4CF0F6
:10036000020C43FA05F3C01851EBE37101F00045AC
:1003700007D54FF0000EDCF1000C7EEB00006EEBB9
:100380000101B1F5801F1BD3B1F5001F0CD3490843
:100390005FEA30004FEA3C0C04F101044FEA44529A
:1003A00012F5800F80F09A80BCF1004F08BF5FEA21
:1003B000500C50F1000041EB045141EA050130BD01
:1003C0005FEA4C0C404141EB0101013C28BFB1F513
:1003D000801FE9D291F0000F04BF01460020B1FA5E
:1003E00081F308BF2033A3F10B03B3F120020CDA31
:1003F0000C3208DD02F1140CC2F10C0201FA0CF00F
:1004000021FA02F10CE002F11402D8BFC2F1200C73
:1004100001FA02F120FA0CFCDCBF41EA0C01904029
:10042000E41AA2BF01EB0451294330BD6FEA040472
:100430001F3C1CDA0C340EDC04F11404C4F120025D
:1004400020FA04F001FA02F340EA030021FA04F36F
:1004500045EA030130BDC4F10C04C4F1200220FAC6
:1004600002F001FA04F340EA0300294630BD21FA04
:1004700004F0294630BD94F0000F83F4801306BFCA
:1004800081F480110134013D4EE77FEA645C18BFBE
:100490007FEA655C29D094EA050F08BF90EA020F55
:1004A00005D054EA000C04BF1946104630BD91EA4D
:1004B000030F1EBF0021002030BD5FEA545C05D150
:1004C0004000494128BF41F0004130BD14F580048F
:1004D0003CBF01F5801130BD01F0004545F0FE4103
:1004E00041F470014FF0000030BD7FEA645C1ABF38
:1004F000194610467FEA655C1CBF0B46024650EA6F
:10050000013406BF52EA033591EA030F41F400219A
:1005100030BD00BF90F0000F04BF0021704730B520
:100520004FF4806404F132044FF000054FF00001F5
:1005300050E700BF90F0000F04BF0021704730B5B6
:100540004FF4806404F1320410F0004548BF40428B
:100550004FF000013EE700BF42004FEAE2014FEAE0
:1005600031014FEA02701FBF12F07F4393F07F4FBB
:1005700081F06051704732F07F4208BF704793F0BE
:100580007F4F04BF41F40021704730B54FF46074D1
:1005900001F0004521F000411CE700BF50EA0102D4
:1005A00008BF704730B54FF000050AE050EA01027D
:1005B00008BF704730B511F0004502D5404261EBED
:1005C00041014FF4806404F132045FEA915C3FF42E
:1005D000D8AE4FF003025FEADC0C18BF03325FEACB
:1005E000DC0C18BF033202EBDC02C2F1200300FA7C
:1005F00003FC20FA02F001FA03FE40EA0E0021FAA1
:1006000002F11444BDE600BF70B54FF0FF0C4CF48E
:10061000E06C1CEA11541DBF1CEA135594EA0C0F40
:1006200095EA0C0F00F0DEF82C4481EA030621EA7B
:100630004C5123EA4C5350EA013518BF52EA0335B6
:1006400041F4801143F4801338D0A0FB02CE4FF068
:100650000005E1FB02E506F00042E0FB03E54FF098
:100660000006E1FB03569CF0000F18BF4EF0010E90
:10067000A4F1FF04B6F5007F64F5407404D25FEA8C
:100680004E0E6D4146EB060642EAC62141EA55513F
:100690004FEAC52040EA5E504FEACE2EB4F1FD0C81
:1006A00088BFBCF5E06F1ED8BEF1004F08BF5FEAFF
:1006B000500E50F1000041EB045170BD06F00046B1
:1006C00046EA010140EA020081EA0301B4EB5C045E
:1006D000C2BFD4EB0C0541EA045170BD41F4801156
:1006E0004FF0000E013C00F3AB8014F1360FDEBF7B
:1006F000002001F0004170BDC4F10004203C35DA57
:100700000C341BDC04F11404C4F1200500FA05F3D9
:1007100020FA04F001FA05F240EA020001F000427A
:1007200021F0004110EBD37021FA04F642EB0601F0
:100730005EEA430E08BF20EAD37070BDC4F10C041A
:10074000C4F1200500FA04F320FA05F001FA04F2DE
:1007500040EA020001F0004110EBD37041F10001CA
:100760005EEA430E08BF20EAD37070BDC4F12005D5
:1007700000FA05F24EEA020E20FA04F301FA05F23D
:1007800043EA020321FA04F001F0004121FA04F2E5
:1007900020EA020000EBD3705EEA430E08BF20EAB5
:1007A000D37070BD94F0000F0FD101F000464000EF
:1007B00041EB010111F4801F08BF013CF7D041EA71
:1007C000060195F0000F18BF704703F00046520075
:1007D00043EB030313F4801F08BF013DF7D043EA46
:1007E0000603704794EA0C0F0CEA135518BF95EAFC
:1007F0000C0F0CD050EA410618BF52EA4306D1D183
:1008000081EA030101F000414FF0000070BD50EAA1
:10081000410606BF1046194652EA430619D094EA2B
:100820000C0F02D150EA013613D195EA0C0F05D115
:1008300052EA03361CBF104619460AD181EA030169
:1008400001F0004141F0FE4141F470014FF0000021
:1008500070BD41F0FE4141F4780170BD70B54FF0BC
:10086000FF0C4CF4E06C1CEA11541DBF1CEA13553C
:1008700094EA0C0F95EA0C0F00F0A7F8A4EB05041E
:1008800081EA030E52EA03354FEA013100F0888015
:100890004FEA03334FF0805545EA131343EA1263DE
:1008A0004FEA022245EA111545EA10654FEA002693
:1008B0000EF000419D4208BF964244F1FD0404F54C
:1008C000407402D25B084FEA3202B61A65EB0305A8
:1008D0005B084FEA32024FF480104FF4002CB6EB65
:1008E000020E75EB030E22BFB61A754640EA0C00E5
:1008F0005B084FEA3202B6EB020E75EB030E22BF25
:10090000B61A754640EA5C005B084FEA3202B6EB65
:10091000020E75EB030E22BFB61A754640EA9C0024
:100920005B084FEA3202B6EB020E75EB030E22BFF4
:10093000B61A754640EADC0055EA060E18D04FEAB2
:10094000051545EA16754FEA06164FEAC30343EA52
:1009500052734FEAC2025FEA1C1CC0D111F4801F1F
:100960000BD141EA00014FF000004FF0004CB6E718
:1009700011F4801F04BF01430020B4F1FD0C88BFB7
:10098000BCF5E06F3FF6AFAEB5EB030C04BFB6EBC2
:10099000020C5FEA500C50F1000041EB045170BDB5
:1009A0000EF0004E4EEA113114EB5C04C2BFD4EBE2
:1009B0000C0541EA045170BD41F480114FF0000E66
:1009C000013C90E645EA060E8DE60CEA135594EAE2
:1009D0000C0F08BF95EA0C0F3FF43BAF94EA0C0FE5
:1009E0000AD150EA01347FF434AF95EA0C0F7FF45A
:1009F00025AF104619462CE795EA0C0F06D152EAAE
:100A000003353FF4FDAE1046194622E750EA410691
:100A100018BF52EA43067FF4C5AE50EA41047FF4A2
:100A20000DAF52EA43057FF4EBAE12E74FF0FF3C07
:100A300006E000BF4FF0010C02E000BF4FF0010CD8
:100A40004DF804CD4FEA410C7FEA6C5C4FEA430C51
:100A500018BF7FEA6C5C1BD001B050EA410C0CBFA0
:100A600052EA430C91EA030F02BF90EA020F002002
:100A7000704710F1000F91EA030F58BF994208BF69
:100A800090422CBFD8176FEAE37040F00100704726
:100A90004FEA410C7FEA6C5C02D150EA013C07D17D
:100AA0004FEA430C7FEA6C5CD6D152EA033CD3D0C8
:100AB0005DF8040B704700BF8446104662468C46C2
:100AC0001946634600E000BF01B5FFF7B7FF0028F5
:100AD00048BF10F1000F01BD4DF808EDFFF7F4FF1E
:100AE0000CBF012000205DF808FB00BF4DF808EDA9
:100AF000FFF7EAFF34BF012000205DF808FB00BFCC
:100B00004DF808EDFFF7E0FF94BF012000205DF8ED
:100B100008FB00BF4DF808EDFFF7CEFF94BF0120A2
:100B200000205DF808FB00BF4DF808EDFFF7C4FF9B
:100B300034BF012000205DF808FB00BF4FEA410CE4
:100B40007FEA6C5C02D150EA013C0AD14FEA430CC7
:100B50007FEA6C5C02D152EA033C02D14FF0000004
:100B600070474FF0010070474FEA410212F5001242
:100B700015D211D56FF47873B3EB625212D94FEAE4
:100B8000C12343F0004343EA505311F0004F23FACE
:100B900002F018BF404270474FF00000704750EA23
:100BA000013005D111F0004008BF6FF000407047E0
:100BB0004FF00000704700BF4A0011D212F500123A
:100BC00011D20DD56FF47873B3EB62520ED44FEAA5
:100BD000C12343F0004343EA505323FA02F0704725
:100BE0004FF00000704750EA013002D14FF0FF3063
:100BF00070474FF0000070474FEA4102B2F1E04306
:100C000024BFB3F5001CDCF1FE5C0DD901F0004CF3
:100C10004FEAC0024CEA5070B2F1004F40EB830043
:100C200008BF20F00100704711F0804F21D113F16F
:100C30003872BCBF01F00040704741F480114FEAA8
:100C40005252C2F11802C2F1200C10FA0CF320FA31
:100C500002F018BF40F001004FEAC1234FEAD3234E
:100C600003FA0CFC40EA0C0023FA02F34FEA4303B8
:100C7000CCE77FEA625307D150EA01331EBF4FF041
:100C8000FE4040F44000704701F0004040F0FE405C
:100C900040F40000704700BF80F0004002E000BF59
:100CA00081F0004142001FBF5FEA410392EA030F57
:100CB0007FEA226C7FEA236C6AD04FEA1262D2EBA1
:100CC0001363C1BFD218414048404140B8BF5B42A6
:100CD000192B88BF704710F0004F40F4000020F03F
:100CE0007F4018BF404211F0004F41F4000121F055
:100CF0007F4118BF494292EA030F3FD0A2F101029F
:100D000041FA03FC10EB0C00C3F1200301FA03F1DC
:100D100000F0004302D5494260EB4000B0F5000FFF
:100D200013D3B0F1807F06D340084FEA310102F1BE
:100D30000102FE2A51D2B1F1004F40EBC25008BF70
:100D400020F0010040EA03007047490040EB00003A
:100D5000013A28BFB0F5000FEDD2B0FA80FCACF13B
:100D6000080CB2EB0C0200FA0CF0AABF00EBC25068
:100D700052421843BCBFD0401843704792F0000F56
:100D800081F4000106BF80F400000132013BB5E7A9
:100D90004FEA41037FEA226C18BF7FEA236C21D01F
:100DA00092EA030F04D092F0000F08BF0846704784
:100DB00090EA010F1CBF0020704712F07F4F04D152
:100DC000400028BF40F00040704712F100723CBF65
:100DD00000F50000704700F0004343F0FE4040F48F
:100DE000000070477FEA226216BF08467FEA23634D
:100DF0000146420206BF5FEA412390EA010F40F438
:100E0000800070474FF0000304E000BF10F0004383
:100E100048BF40425FEA000C08BF704743F096436A
:100E200001464FF000001CE050EA010208BF704785
:100E30004FF000030AE000BF50EA010208BF70470C
:100E400011F0004302D5404261EB41015FEA010C21
:100E500002BF84460146002043F0B64308BFA3F119
:100E60008053A3F50003BCFA8CF2083AA3EBC253FB
:100E700010DB01FA02FC634400FA02FCC2F120021A
:100E8000BCF1004F20FA02F243EB020008BF20F051
:100E90000100704702F1200201FA02FCC2F12002B7
:100EA00050EA4C0021FA02F243EB020008BF20EAAC
:100EB000DC7070477BB972B90029BEBF00204FF0CB
:100EC000004106E008BF00281CBF6FF000414FF052
:100ED000FF3000F009BAADF1080C6DE904CE00292D
:100EE00009DB002B1ADB00F083F8DDF804E0DDE914
:100EF000022304B07047404261EB4101002B1BDB31
:100F000000F076F8DDF804E0DDE9022304B04042A9
:100F100061EB4101524263EB43037047524263EB82
:100F2000430300F065F8DDF804E0DDE9022304B0D6
:100F3000404261EB41017047524263EB430300F0D2
:100F400057F8DDF804E0DDE9022304B0524263EB18
:100F50004303704753B94AB9002908BF00281CBF92
:100F60004FF0FF314FF0FF3000F0BEB9ADF1080C8B
:100F70006DE904CE00F03CF8DDF804E0DDE9022381
:100F800004B0704738B50022002304460D46FFF731
:100F9000ADFD28B920462946BDE8384000F00AB822
:100FA000204605F1004100F005F8404261EB4101A7
:100FB00038BD00BFD0B50C4B002206460F46FFF7E8
:100FC00023FBFFF7F9FD0446FFF7A4FA074B0022C5
:100FD000FFF71AFB02460B4630463946FFF75CF92D
:100FE000FFF7EAFD2146D0BD0000F03D0000F041D2
:100FF0002DE9F047089D8E4604468846002B4AD1CD
:101000008A42174662D9B2FA82F64EB1C6F120037F
:1010100001FA06F820FA03F3B74043EA0808B4409F
:101020004FEA174E1FFA87FCB8FBFEF1230C0EFBAC
:10103000118843EA084301FB0CF29A4209D9FB18D4
:1010400001F1FF3080F0EA809A4240F2E7800239F5
:101050003B449A1AA3B2B2FBFEF00EFB102243EA05
:10106000024300FB0CFC9C4509D9FB1800F1FF3240
:1010700080F0D6809C4540F2D3803B44023840EA61
:101080000140A3EB0C0300211DB1F3400022C5E990
:101090000032BDE8F0878B4205D90DB1C5E90001EA
:1010A00000210846F5E7B3FA83F1002946D17345DC
:1010B00002D3824200F20581841A6EEB0302012002
:1010C0009046002DE5D0C5E90048E2E7002A00F08F
:1010D0009080B2FA82F6002E40F0A4808A1A030CA7
:1010E0004FEA174E80B2BCB20121B2FBFEFC0EFBF0
:1010F0001C2243EA024304FB0CF29A4207D9FB1874
:101100000CF1FF3802D29A4200F2E080C4469B1AEA
:10111000B3FBFEF20EFB123340EA034302FB04F47E
:101120009C4207D9FB1802F1FF3002D29C4200F228
:10113000CA8002461B1B42EA0C40A5E7C1F120060B
:101140008B4022FA06F71F430EFA01F420FA06F349
:101150002EFA06FE4FEA1749234300FA01F81FFA58
:1011600087FCBEFBF9F01C0C09FB10EE44EA0E44B0
:1011700000FB0CFEA64502FA01F209D93C1900F168
:10118000FF3A80F09C80A64540F2998002383C44AA
:10119000A4EB0E041FFA83FEB4FBF9F309FB13441E
:1011A0004EEA044403FB0CFCA44508D93C1903F1A6
:1011B000FF3E80F08280A4457FD9023B3C4443EA55
:1011C0000040A4EB0C04A0FB02EC64457346E1462E
:1011D00062D35FD05DB1B8EB030264EB090404FA9B
:1011E00006F622FA01F31E43CC40C5E90064002153
:1011F0004FE7B1FBF2FC010C41EA0E4180B240EA3C
:1012000001423B4638463C46B846BE462026B1FB26
:10121000F7F1A2EB080241EA0C4166E7014618E744
:1012200010462CE7C6F120022EFA02F3B740B14077
:1012300020FA02F24FEA174E0A43B3FBFEF8BCB2A3
:101240000EFB1833110C41EA034108FB04F9B040CE
:1012500089454FEA104380B23ED9791808F1FF3C26
:1012600001D289451FD8A1EB0901B1FBFEF909FBA9
:1012700004F80EFB191192B242EA0142424529D20A
:10128000BA1809F1FF31C4D24245C2D2A9F1020114
:101290003A44BEE7F0459DD2BEEB02036CEB070C6F
:1012A0000138E14696E7A7EB09094944A8F1020C89
:1012B000B1FBFEF909FB04F8DBE773467FE7504614
:1012C00066E70846FDE63B44023A33E7ACF1020C20
:1012D0003B441CE749469CE7A1EB0901C446B1FB2E
:1012E000FEF909FB04F8C4E7704700BFB0B58EB043
:1012F00000AFF860B9603B601346FB80FB6C3B625B
:10130000BB683B61FB88BB823B68BB61B7F8483078
:10131000BB8340F2B113FB62072387F83030072309
:1013200087F83130012387F83230FF2387F83630D1
:10133000642387F837300823BB86012012F0D5FCE0
:1013400003467B62FB681D4607F110040FCC0FC5F6
:101350000FCC0FC594E8030085E80300F868383720
:10136000BD46B0BD80B582B000AF78607B6898683C
:101370007B689B89002219460CF0CEF8142012F0ED
:10138000C2F97B6898687B689B89012219460CF03A
:10139000C3F80A2012F0B7F900BF0837BD4680BD78
:1013A00080B483B000AF78607B68002B01D100234C
:1013B00000E0012318460C37BD465DF8047B7047FA
:1013C00080B584B000AF78600B46FB70FB7803F00B
:1013D0007F03DBB2BB737B685B696421184612F044
:1013E00049FE0346012B28D17B6818687B689B88DF
:1013F000002219460CF090F87B68186907F10E017D
:101400004FF4FA6301220FF0B4FC7B68186907F10E
:101410000F014FF4FA6301220FF0EFFD7B681868AB
:101420007B689B88012219460CF076F87B68586926
:1014300000230022002112F08BFCFB7B18461037A2
:10144000BD4680BD80B584B000AF78600B46FB70B0
:101450001346BB70FB7863F07F03DBB23B73BB7852
:101460007B737B685B696421184612F003FE0346B8
:10147000012B1FD17B6818687B689B880022194666
:101480000CF04AF87B68186907F10C014FF4FA6315
:1014900002220FF06EFC7B6818687B689B88012233
:1014A00019460CF039F87B685869002300220021A6
:1014B00012F04EFC00BF1037BD4680BD80B586B02F
:1014C00000AFF8607A601A460B46FB721346BB7297
:1014D000FB7A63F07F03DBB2FB75FB685B69642119
:1014E000184612F0C7FD0346012B28D1FB68186887
:1014F000FB689B88002219460CF00EF8FB681869FF
:1015000007F117014FF4FA6301220FF032FCFB6878
:101510001869BB7A9AB24FF4FA6379680FF029FC24
:10152000FB681868FB689B88012219460BF0F4FFE2
:10153000FB68586900230022002112F009FC00BF5B
:101540001837BD4680BD80B584B000AF7860396083
:1015500001217868FFF734FF0346BB73BB7BFB7345
:101560003B68002B07D1BB7B23F00703FB737B6831
:1015700000229A6169E03B68012B0CD197F90E308B
:1015800023F007035BB243F001035BB2FB737B689C
:1015900001229A6159E03B68022B0CD197F90E3079
:1015A00023F007035BB243F002035BB2FB737B687B
:1015B00002229A6149E03B68032B0CD197F90E3067
:1015C00023F007035BB243F003035BB2FB737B685A
:1015D00003229A6139E03B68042B0CD197F90E3055
:1015E00023F007035BB243F004035BB2FB737B6839
:1015F00004229A6129E03B68052B0CD197F90E3043
:1016000023F007035BB243F005035BB2FB737B6817
:1016100005229A6119E03B68062B0CD197F90E3030
:1016200023F007035BB243F006035BB2FB737B68F6
:1016300006229A6109E03B68072B0DD1BB7B43F082
:101640000703FB737B6807229A61FB7B1A46012123
:101650007868FFF7F7FE00E000BF1037BD4680BD99
:1016600080B584B000AF78600B46FB7026217868A7
:10167000FFF7A6FE0346BB73FB78002B04D0BB7BB1
:1016800043F00803FB7303E0BB7B23F00803FB7309
:10169000FB7B1A4626217868FFF7D4FE0A200AF061
:1016A000F5FB00BF1037BD4680BD000080B596B089
:1016B00000AF7860174A07F1080311465022184618
:1016C00016F03BFD7B6893F820301A4601239340C7
:1016D0001846FEF72FFF7B6893F82130DB00583364
:1016E0003B44503BD3E90023FFF7B8F802460B46D2
:1016F00010461946FFF738FA0346102BCCBF0123DA
:101700000023DBB219467868FFF7AAFF00BF5837FD
:10171000BD4680BD60E8010880B584B000AF786048
:1017200039603B68DB045B11FB60FB681B0CFB72E0
:10173000FB7A1A4606217868FFF784FE05200AF036
:10174000A5FBFB681B0AFB72FB7A1A460721786827
:10175000FFF778FE05200AF099FBFB68FB72FB7A25
:101760001A4608217868FFF76DFE05200AF08EFB07
:1017700000BF1037BD4680BD80B584B000AF786033
:1017800039603B680C2B01DD0C233B603B68062B6A
:1017900001DC07233B601E217868FFF711FE03463A
:1017A000FB730A200AF072FB3B68DBB21B01DAB262
:1017B000FB7B03F00F03DBB21344BB73BB7B1A4606
:1017C0001E217868FFF73EFE0A200AF05FFB78686A
:1017D000FFF76CFF00BF1037BD4680BD80B582B0FB
:1017E00000AF78600B46FB70FB781A4609217868D9
:1017F000FFF728FE0A200AF049FB00BF0837BD4664
:1018000080BD000080B584B000AF78600B46FB70EF
:101810000023FB73FB782C2B01D82D23FB70FB7866
:10182000F02B01D9F023FB70FB78782B09D8FB78DB
:101830002D3B124A82FB03125210DB17D31AFB73A3
:101840000BE0FB78F02B08D8FB781E330B4A82FBA9
:1018500003129210DB17D31AFB73FB7B2033FB734D
:10186000FB7B1A460B217868FFF7ECFD0A200AF093
:101870000DFB00BF1037BD4680BD00BF67666666C2
:1018800080B584B000AF78601E217868FFF798FDBE
:101890000346FB73FB7B43F00703BB73BB7B1A461A
:1018A0001E217868FFF7CEFD0A200AF0EFFA00BF8C
:1018B0001037BD4680BD80B582B000AF78600B4662
:1018C000FB70FB781A4639217868FFF7BBFD0A20C8
:1018D0000AF0DCFA00BF0837BD4680BD80B588B08D
:1018E00000AFF860B96011461A460B46FB7113460B
:1018F000BB80FB689B69FB610121F868FFF723FE51
:101900000E21F868FFF75CFD0346FB76FB7E1A4666
:101910000D21F868FFF796FDFB791A462221F86839
:10192000FFF790FDFB79BA680021F868FFF7C6FD64
:101930000321F868FFF707FE13F052F97861BB88BE
:101940004FF47A7202FB03F3184AA2FB03239B09AC
:101950003B611221F868FFF733FD0346FB76FB7EFF
:1019600003F00803002B0AD0FF221221F868FFF7CA
:1019700069FDF969F868FFF7E6FD002311E013F04F
:101980002FF902467B69D31A3A699A4205D2F9695E
:10199000F868FFF7D8FD012303E0012012F0D4FF1F
:1019A000D7E718462037BD4680BD00BFD34D621033
:1019B00080B584B000AF78607868FFF7F1FC03462B
:1019C000002B00F0968000217868FFF7BCFD0A200C
:1019D0000AF05CFA01217868FFF7F2FC0346FB731A
:1019E0000A200AF053FAFB7B63F07F03BB73BB7BD7
:1019F0001A4601217868FFF725FD64200AF046FAAF
:101A00007B68DB6919467868FFF786FE7B6893F888
:101A1000263019467868FFF7E1FE7B6893F8273097
:101A200019467868FFF7EEFE23220C217868FFF74D
:101A300009FD7868FFF724FF7B6893F8203019468A
:101A40007868FFF799FEFF221F217868FFF7FAFCFC
:101A50000023BB737B6893F821301B01DAB27B68EB
:101A600093F822305B00DBB21344BB73BB7B1A4696
:101A70001D217868FFF7E6FC7868FFF717FE7B68A2
:101A80009B8C1B0A9BB2DBB21A4620217868FFF7B9
:101A9000D9FC7B689B8CDBB21A4621217868FFF762
:101AA000D1FC40217868FFF78BFC0346FB73FB7B7E
:101AB00043F03F03BB73BB7B1A4640217868FFF7B6
:101AC000C1FC01217868FFF73EFD7B6801229A6125
:101AD0000A200AF0DBF942217868FFF771FC03461F
:101AE000FB73FB7B122B01D1C82304E04FF4CA73B4
:101AF00001E040F2F71318461037BD4680BD0000E4
:101B000080B500AF064B00221A60064B00221A7007
:101B1000054B00221A7005480AF020FA00BF80BD6C
:101B2000940200209802002099020020E00E00207C
:101B300080B584B000AF78607B681A68134B1B686F
:101B40009A421FD178680AF000FCF860104B1A68BE
:101B5000FB6813440E4A13600E4B1B78DBB2013353
:101B6000DAB20C4B1A700B4B1B78DBB2182B03D874
:101B700006480AF0F3F905E0074B01221A7078686D
:101B80000AF0A0FA00BF1037BD4680BDE00E00206D
:101B900094020020980200209902002080B582B0B3
:101BA00000AF4A4B1B78DBB2002B00F08A80484B19
:101BB0001B6807EE903AB8EE677AF3EE096AC7EE53
:101BC000267AC7ED017AD7ED017A9FED427A27EEAA
:101BD000877ADFED416AC7EE267AC7ED007A38686A
:101BE000FEF7BAFC02460B463C4806F0AFF9D7EDCB
:101BF000007A9FED3B7A67EE877A3A4BC3ED007A25
:101C0000384B1B681846FEF7A7FC02460B463648C1
:101C100006F09CF9334BD3ED007A9FED347AF4EE65
:101C2000C77AF1EE10FA03DD2E4B314A1A600CE050
:101C30002C4BD3ED007AB0EE087AF4EEC77AF1EED1
:101C400010FA02D5274B2B4A1A602B4B1B78002B1E
:101C50000AD0244B1B68294A1360274B1B78013B91
:101C6000DAB2254B1A7016E09FED257A1D4BD3EDA5
:101C7000007A27EE277ADFED227AF7EE006A76EE19
:101C8000E76A1E4BD3ED007A66EEA77A77EE277AE5
:101C90001A4BC3ED007A194B1B681846FEF75CFC23
:101CA00002460B46174806F051F9094B00221A600C
:101CB000154B00221A70054B00221A7013480AF0C7
:101CC0004DF900BF0837BD4680BD00BF9902002016
:101CD00094020020CDCC4C4000F07F45B0E80108D4
:101CE00096C0A63F9C020020D8E8010866668640A0
:101CF000666686400000404000000020A0020020F0
:101D0000CDCCCC3D04E9010898020020E00E002073
:101D100080B483B000AF7860094A7B6852F8233002
:101D2000012B06D1064A7B68002142F823100123CB
:101D300000E0002318460C37BD465DF8047B704771
:101D4000B802002080B582B000AF00237B6073E052
:101D50003E4A7B6852F823203D497B6841F82320A6
:101D60003C4A7B6852F8232038497B6841F823209D
:101D70004FF4005138480BF0B7FB03461946354A7B
:101D80007B6842F82310314A7B6852F8232031499E
:101D90007B6851F823309A424BD12C4A7B6852F829
:101DA00023202B497B6851F823309A4241D1284A9D
:101DB0007B6852F8232029497B6851F823309A42E6
:101DC00018D0234A7B6852F8232024497B6841F8C5
:101DD0002320224A7B6852F82330002B29D1204A45
:101DE0007B68C82142F823101E4A7B68012142F813
:101DF00023101EE01A4A7B6852F823305A1E1849F5
:101E00007B6841F82320164A7B6852F82330002B68
:101E10000FD1134A7B68C82142F823100F4A7B6810
:101E200052F82330002B04D10F4A7B68012142F87D
:101E300023107B6801337B6001227B68934287DB40
:101E400000BF00BF0837BD4680BD00BF180000209E
:101E50002C00002004000020000802404000002068
:101E600054000020B8020020A402002080B485B0F5
:101E700000AFF860B9607A60FB68074A1A60BB6817
:101E8000064A1A607B6880221A6000BF1437BD467C
:101E90005DF8047B704700BFCC0200206C0300207B
:101EA00080B582B000AF87ED000BD7E90023D7E9FA
:101EB0000001FEF7A9FB02460B4643EC172BB0EEE0
:101EC000470AF0EE670A0837BD4680BD80B586B088
:101ED00000AFF860B96087ED000BFB68002B06DBF4
:101EE000BB6803F10802BA60D3E9002303E04FF0B6
:101EF00000024FF00003C7E9042315E0D7E90023EF
:101F0000D7E90401FEF780FB02460B46104619464E
:101F1000BB6803F10802BA60D3E90023FEF7BEF9FB
:101F200002460B46C7E90423FB68013BFB60FB68E4
:101F3000002BE3DAD7E9042343EC172BB0EE470A72
:101F4000F0EE670A1837BD4680BD80B485B000AF9B
:101F5000786039607B68D3E90023C7E902233B68D6
:101F6000D3E900237968C1E900233968D7E902235E
:101F7000C1E9002300BF1437BD465DF8047B7047FC
:101F800080B584B000AF786039607B6893ED007BEA
:101F90003B6893ED006BB0EE461AF0EE661AB0EEB9
:101FA000470AF0EE670A19F0D7F887ED020B7B6855
:101FB000D3E90001D7E90223FEF750FC02460B46A5
:101FC0007968C1E900233B68D3E90001D7E902231E
:101FD000FEF744FC02460B463968C1E9002300BF06
:101FE0001037BD4680BD0000B0B584B000AF87EDAE
:101FF000000B9FED151B97ED000B19F0E1F887ED35
:10200000020BBC68FB6823F000454FF00002124B46
:1020100020462946FEF760FD0346002B0AD097EDC7
:10202000001B9FED0B0B16F0A5F8B0EE407AF0EE1A
:10203000607A01E097ED027BB0EE470AF0EE670AA6
:102040001037BD46B0BD00BF0000000000807640E4
:1020500000000000008066400080664080B582B0CD
:1020600000AF87ED000B38687B6823F000414FF02C
:1020700000020A4BFEF758FD0346002B03D0084B25
:10208000D3E9002301E0D7E9002343EC172BB0EE9E
:10209000470AF0EE670A0837BD4680BD008056400B
:1020A0007805002080B588B000AF87ED000B4FF0B9
:1020B00000002049C7E906013A68796821F0004329
:1020C000C7E90423D7E90423D7E90601FEF7E4F8BA
:1020D00002460B46C7E90223D7E902014FF000028E
:1020E0004FF00003FEF720FD0346002B08D0D7E990
:1020F0000223D7E90601FEF7CFF802460B4601E0BE
:10210000D7E90423C7E9042397ED047B97ED001B6F
:10211000B0EE470AF0EE670A16F02CF8B0EE407AFF
:10212000F0EE607AB0EE470AF0EE670A2037BD465F
:1021300080BD00BF0000B03FB0B592B000AF87EDEA
:10214000080BF861B9610023FB6207F12C03184604
:102150009FED4D1B97ED080B19F02EFC87ED100B32
:102160004B4BD3E90023D7E91001FEF74DFA0246A5
:102170000B46C7E9102397ED100B19F06DFA87EDA8
:102180000E0B97ED100B19F00BFA87ED0C0BFB6A99
:1021900003F00303022B22D0022B37D8002B02D0EE
:1021A000012B0BD032E0F969D7E90E23C1E90023F6
:1021B000B969D7E90C23C1E9002334E0F969D7E90B
:1021C0000C23C1E90023BB6B3B61FB6B83F0004335
:1021D0007B61BB6997ED047B83ED007B23E0BB6BE8
:1021E000BB60FB6B83F00043FB60FB6997ED027BF8
:1021F00083ED007B3B6B3B607B6B83F000437B603C
:10220000BB6997ED007B83ED007B0CE03C6B7B6B47
:1022100083F00045FB69C3E90045B969D7E90E239E
:10222000C1E9002300BFBB69D3E900014FF0000200
:102230004FF00003FEF732F802460B46B969C1E9D8
:102240000023FB69D3E900014FF000024FF00003C7
:10225000FEF742FC0346002B00D111E0FB6993ED31
:10226000007B97ED081BB0EE470AF0EE670A15F009
:1022700081FFB0EE407AF0EE607AFB6983ED007B7F
:1022800000BF4837BD46B0BD00000000008056408A
:1022900070050020000000002DE9B04388B000AFB9
:1022A00087ED020B87ED001B0023FB61D7E90223BA
:1022B000104623F00041D7E90023904623F000495F
:1022C00042464B46FEF730FC0346002B08D007F190
:1022D00008023B4611461846FFF737FE0223FB6112
:1022E000D7E9002303F00043002B09D0D7E90023EE
:1022F000144683F00045C7E90045FB690133FB61E3
:1023000097ED027B97ED006BB0EE461AF0EE661A81
:10231000B0EE470AF0EE670A18F01CFF51EC100B04
:10232000294BD3E90023FEF799FA02460B46C7E989
:102330000423FB69032B2AD0FB69032B33DCFB69E5
:10234000012B03D0FB69022B15D02CE097ED027B0B
:10235000B0EE471AF0EE671A9FED190B15F00AFF61
:1023600051EC100BD7E90423FDF796FF02460B460C
:10237000C7E9042318E0D7E904234FF0000013490C
:10238000FDF78AFF02460B46C7E904230CE04FF035
:1023900000020E4BD7E90401FDF77EFF02460B4613
:1023A000C7E9042300E000BFD7E9042343EC172B5F
:1023B000B0EE470AF0EE670A2037BD46BDE8B083AD
:1023C000000000000080664070050020008056403C
:1023D0002DE9B0432DED028B98B000AF78633963DF
:1023E00087ED0A0B87ED081B87ED062B87ED043B75
:1023F00087ED024B7A603B6BD3E90023796BC1E92F
:1024000006233B6BD3E90223796BC1E908233B6BBD
:10241000D3E90C23796BC1E912233B6BD3E90E237B
:10242000796BC1E914233B6BD3E90423796BC1E9D0
:1024300016237B68002B05D07B6843F4024343F0EE
:10244000800301E048F68B337A6BC2F8F83197EDE0
:102450000A0BFFF703FEB0EE407AF0EE607A7B6B7A
:1024600083ED007B796BD7E90823C1E90223796BFF
:10247000D7E90623C1E90423796BD7E90423C1E92D
:102480000A23796BD7E90223C1E90C237B6B93ED17
:10249000007BB0EE470AF0EE670AFFF703FEB0EEEE
:1024A000407AF0EE607A07F1400207F138031146F6
:1024B0001846B0EE470AF0EE670AFFF73DFE7B6B69
:1024C000D3E91601D7E90E23FEF79EF802460B4624
:1024D000C7E90E2307F1400207F1380311461846F9
:1024E000FFF74EFD4E4B93ED007B97ED106BB0EE7A
:1024F000461AF0EE661AB0EE470AF0EE670A19F0D7
:102500000CFAB0EE407AF0EE607A87ED107B3B6B10
:10251000D3E9088997ED0E7BB0EE470AF0EE670A23
:10252000FFF7BEFC53EC102B40464946FEF76CF813
:1025300002460B46104619464FF00002394BFDF794
:10254000ADFE02460B4643EC172BB0EE470AF0EE09
:10255000670A18F061FEB0EE407AF0EE607A7B6BAD
:1025600083ED227B7B6BD3E90A01D7E91023FEF7C9
:102570004BF802460B46796BC1E918237B6B93ED50
:102580000C8B7B6BD3E90A01D7E90E23FEF73CF8ED
:1025900002460B4643EC172BB0EE471AF0EE671AD3
:1025A000B0EE480AF0EE680A18F0D6FDB0EE407AB8
:1025B000F0EE607A7B6B83ED1A7BD7E90E23796BA3
:1025C000C1E91E237B6BD3E91801D7E90E23FEF77F
:1025D0001BF802460B46796BC1E92823D7E90E01A7
:1025E0004FF000024FF00003FEF776FA0346002B8F
:1025F0000BD07B6BD3E90C014FF000024FF00003CE
:10260000FEF76AFA0346002B0ED17B6BD3E90C016F
:10261000D7E91023FDF7F8FF02460B4607E000BF9D
:10262000800500200000F03F4FF00002BC4B796BAA
:10263000C1E92A237B6BD3E92A23796BC1E92023E3
:102640007B6B03F178027B6B803319461046FFF7F2
:1026500097FC7B6B93ED1A7BB0EE470AF0EE670AAE
:10266000FFF71EFC51EC100B3B6BD3E90823FDF781
:10267000CBFF02460B46796BC1E91C237B6BD3E988
:102680001C897B6BD3E91C014FF00002A44BFDF7C2
:1026900005FE02460B4643EC172BB0EE470AF0EE60
:1026A000670A18F0B9FD51EC100B4FF000029C4B7B
:1026B000FDF7F4FD02460B461046194602460B464E
:1026C000FDF7ECFD02460B46104619467B6BD3E93D
:1026D0001C23FDF7E3FD02460B4640464946FEF744
:1026E000BDF802460B46C7E916237B6BD3F8F831D9
:1026F00003F00103002B7DD097ED160B01F03CFE9B
:10270000B0EE407AF0EE607A7B6B83ED2C7B7B6BD6
:10271000F033184697ED160B01F07AFE7B6B93EDC4
:102720001E7B7B6B93ED206B7B6BF033062219468F
:10273000B0EE461AF0EE661AB0EE470AF0EE670AFF
:10274000012001F0A0FCB0EE407AF0EE607A7B6BE5
:1027500083ED327B7B6B93ED327BB0EE470AF0EE7C
:10276000670A18F079FF87ED140B7B6B93ED327BD2
:10277000B0EE470AF0EE670A18F012FF87ED120B71
:102780007B6BD3E91E01D7E91223FDF73DFF02461B
:102790000B46904699467B6BD3E92001D7E9142379
:1027A000FDF732FF02460B4640464946FDF776FDEF
:1027B00002460B46796BC1E924237B6BD3E92001E8
:1027C000D7E91223FDF720FF02460B4690469946B3
:1027D0007B6BD3E91E01D7E91423FDF715FF0246F1
:1027E0000B4640464946FDF757FD02460B46796BBE
:1027F000C1E926237B6BD3F8F83103F00203002BE9
:1028000007D07B6B03F59473184697ED160B01F018
:1028100063FE7B6BD3F8F83103F00403002B2FD059
:1028200097ED160B01F0BCFEB0EE407AF0EE607A48
:102830007B6B83ED2E7B7B6B03F5B073184697EDB6
:10284000160B01F0F9FE7B6B93ED1E7B7B6B93ED1A
:10285000206B7B6B03F5B07306221946B0EE461A67
:10286000F0EE661AB0EE470AF0EE670A012001F0BA
:102870000AFCB0EE407AF0EE607A7B6B83ED347B3D
:102880007B6BD3F8F83103F00803002B4AD07B6B45
:1028900003F5CC73194697ED160B386B01F0D4FC99
:1028A0007B6BD3E90823144683F000457B6BD3E9A7
:1028B000182320462946FDF7A7FE02460B4614467C
:1028C0001D4697ED160B386B01F0A4FC53EC102B52
:1028D00020462946FDF798FE02460B46796BC1E972
:1028E00030237B6B93ED1E7B7B6B93ED206B7B6BBF
:1028F00003F5CC7305221946B0EE461AF0EE661ABF
:10290000B0EE470AF0EE670A012001F0BCFBB0EE22
:10291000407AF0EE607A7B6B83ED367B02E000BF9D
:102920000000F03F7B6BD3F8F83103F01003002B6D
:102930004CD07B6B03F5E473194697ED160B386B9F
:1029400001F0CEFC7B6B93ED067BB0EE470AF0EE18
:10295000670AFFF7A5FA51EC100B7B6BD3E91A233A
:10296000FDF752FE02460B46104619467B6BD3E933
:102970001823FDF749FE02460B46104619463B6BED
:10298000D3E90623FDF740FE02460B46796BC1E909
:1029900038237B6B93ED1E7B7B6B93ED206B7B6B06
:1029A00003F5E47306221946B0EE461AF0EE661AF5
:1029B000B0EE470AF0EE670A002001F064FBB0EECB
:1029C000407AF0EE607A7B6B83ED3A7B094BD3E97A
:1029D0000023796BC1E910237B6BD3E91023796B5A
:1029E000C1E90E2300BF6037BD46BDEC028BBDE8D8
:1029F000B08300BF7805002080B58EB000AF78624C
:102A0000396287ED060B87ED041B87ED022B7A6098
:102A100097ED020BFFF7E8FA87ED020B97ED020B3B
:102A2000FFF740FBB0EE407AF0EE607A07F1280243
:102A300007F1300311461846B0EE470AF0EE670A78
:102A4000FFF77AFB97ED0C7B97ED0A6B7A68B0EE97
:102A5000464AF0EE664AB0EE473AF0EE673A97ED36
:102A6000022B97ED041B97ED060B396A786AFFF786
:102A7000AFFC00BF3837BD4680BD0000000000003D
:102A80002DE9F04F2DED028BD3B000AF07F5A47602
:102A9000A6F59A76306007F5A470A0F59C700160E9
:102AA00007F1080181ED000B07F5A471A1F5A271F2
:102AB0000A6007F5A472A2F5A47213604FF0000239
:102AC0004FF00003C7E950234FF000024FF000031E
:102AD000C7E94E234FF000024FF00003C7E94C2333
:102AE0004FF000024FF00003C7E94A234FF0000205
:102AF0004FF00003C7E948234FF000024FF00003F6
:102B0000C7E946234FF000024FF00003C7E9442312
:102B10004FF000024FF00003C7E942234FF00002DC
:102B20004FF00003C7E93E234FF000024FF00003CF
:102B3000C7E93C2307F5A473A3F5A2731B68002B18
:102B400001D0802200E0002207F5A473A3F5A4734E
:102B50001B68002B02D04FF4847300E00023134362
:102B6000D7F87821002A02D04FF4007200E000224A
:102B70001343D7F87C21002A02D040F2014200E042
:102B800000221343D7F88021002A02D041F2050227
:102B900000E000221343D7F88421002A03D1D7F89C
:102BA0008821002A02D042F2050200E000221343ED
:102BB000D7F88C21002A02D044F2100200E0002253
:102BC0001343C7F8CC3007F5A473A3F59A731B68B9
:102BD000D3F8F821D7F8CC30134003F4FF43C7F8FB
:102BE000CC3007F5A473A3F59C731B6803F00103B5
:102BF000002B0FD107F5A473A3F59A731B68D3F8C4
:102C0000F83103F40063002B04D1144BD3E9002303
:102C100001F02EB907F5A473A3F59C731B6803F0AC
:102C20000103002B1ED00E4BD3E9002307F108014E
:102C3000D1E90001FDF7E8FC02460B46C7E9402355
:102C400007F1180207F1200307F108010E461146AB
:102C5000184696ED000BFFF76FFAD5E178050020D6
:102C60007005002007F5A473A3F59A731B68D3E9D8
:102C700012AB07F5A473A3F59A731B68D3E92C0173
:102C80004FF00002D04BFDF709FB02460B465046C1
:102C90005946FDF7B9FC02460B4607F10801D1E998
:102CA0000001FDF7DBFD02460B46C7E9302397ED37
:102CB000300B18F0D1FC87ED2E0B97ED300B18F090
:102CC0006FFC87ED2C0B07F5A473A3F59A731B68B3
:102CD000D3E92401D7E92C23FDF796FC02460B46E5
:102CE00092469B4607F5A473A3F59A731B68D3E934
:102CF0002601D7E92E23FDF787FC02460B465046F6
:102D00005946FDF7CBFA02460B4643EC182B07F564
:102D1000A473A3F59A731B68D3E92601D7E92C2382
:102D2000FDF772FC02460B4692469B4607F5A473DC
:102D3000A3F59A731B68D3E92401D7E92E23FDF785
:102D400063FC02460B4650465946FDF7A5FA02467B
:102D50000B4643EC172B07F5A473A3F59A731B6876
:102D600003F5947306221946B0EE471AF0EE671A7F
:102D7000B0EE480AF0EE680A012001F084F953EC45
:102D8000102B1146C7F8F81083F00043C7F8FC3049
:102D900007F5A473A3F59A731B68D3E93223D7E927
:102DA0003E01FDF779FA02460B46D7E93001FDF7FF
:102DB00073FA02460B46C7E9402397ED400B18F023
:102DC0004BFCB0EE407AF0EE607A07F1280303ED99
:102DD000027B97ED400B18F0E3FBB0EE407AF0EE8B
:102DE000607A07F1180383ED007B07F5A473A3F560
:102DF0009A731B68D3E90823904623F0004970A317
:102E0000D3E9002340464946FDF78EFE0346002BDA
:102E100000F0FA8007F5A473A3F59A731B68D3E951
:102E20001E0107F11803D3E90023FDF7EDFB02466D
:102E30000B469046994607F5A473A3F59A731B6851
:102E4000D3E9200107F1280353E90223FDF7DCFB56
:102E500002460B4640464946FDF720FA02460B461D
:102E6000C7E92A2307F5A473A3F59A731B68D3E96E
:102E7000200107F11803D3E90023FDF7C5FB024643
:102E80000B469046994607F5A473A3F59A731B6801
:102E9000D3E91E0107F1280353E90223FDF7B4FB30
:102EA00002460B4640464946FDF7F6F902460B46F8
:102EB000C7E93A2307F5A473A3F59A731B68F033A7
:102EC0000622194697ED3A1B97ED2A0B012001F0D7
:102ED000DAF887ED3E0B07F5A473A3F59A731B6828
:102EE000D3E92C014FF00002374BFDF7D7F902462A
:102EF0000B469046994607F5A473A3F59A731B6891
:102F0000D3E93223D7E93E01FDF7C6F902460B4665
:102F100010461946D7E94023FDF7C0F902460B4693
:102F200040464946FDF770FB02460B4690469946DF
:102F300007F5A473A3F59A731B68D3E9122307F16D
:102F40000801D1E90001FDF789FC02460B46404625
:102F50004946FDF7A1F902460B46C7E9282307F5C4
:102F6000A473A3F59A731B68D3E91C8997ED2A0B08
:102F7000FEF796FF53EC102B40464946FDF744FB05
:102F800002460B46104619464FF000020E4BFDF765
:102F900085F902460B4643EC172BB0EE470AF0EEDC
:102FA000670A18F039F953EC102BD7E92801FDF71F
:102FB00055FC02460B46D7E9400107E0AFF300801D
:102FC0007B14AE47E17A843F0000F03FFDF764F9DF
:102FD00002460B46C7E9402397ED400B18F03CFB37
:102FE000B0EE407AF0EE607A07F1280303ED027B41
:102FF00097ED400B18F0D4FAB0EE407AF0EE607A1C
:1030000007F1180383ED007B07F5A473A3F59A730A
:103010001B68D3E91E0107F11803D3E90023FDF76C
:10302000F3FA02460B469046994607F5A473A3F5BA
:103030009A731B68D3E9200107F1280353E902239F
:10304000FDF7E2FA02460B4640464946FDF726F9EF
:1030500002460B46C7E92A2307F5A473A3F59A7322
:103060001B68D3E9200107F11803D3E90023FDF71A
:10307000CBFA02460B469046994607F5A473A3F592
:103080009A731B68D3E91E0107F1280353E9022351
:10309000FDF7BAFA02460B4640464946FDF7FCF8F2
:1030A00002460B46C7E93A2307F5A473A3F59A73C2
:1030B0001B68D3E91C8997ED2A0BFEF7F1FE53EC50
:1030C000102B40464946FDF79FFA02460B46104634
:1030D00019464FF00002844BFDF7E0F802460B461C
:1030E00043EC172BB0EE470AF0EE670A18F094F89D
:1030F00087ED260BD7F8CC2043F205431340002B75
:1031000052D007F5A473A3F59C731B6803F0010369
:10311000002B13D107F5A473A3F59A731B68D3E9A9
:103120000823144623F000456DA3D3E9002320466D
:103130002946FDF7F9FC0346002B10D007F5A473D0
:10314000A3F59A731B68F0330622194697ED3A1BD4
:1031500097ED2A0B012000F096FF87ED3E0B07F557
:10316000A473A3F59A731B68D3E92C014FF00002F6
:103170005D4BFDF793F802460B4614461D4607F5D6
:10318000A473A3F59A731B68D3E93223D7E93E01F0
:10319000FDF782F802460B4620462946FDF734FA31
:1031A00002460B46C7E93C2307F5A473A3F59A73BF
:1031B0001B68D3E91A23D7E92A01FDF725FA02464D
:1031C0000B46C7E9242307F5A473A3F59A731B687C
:1031D00093ED188B07F5A473A3F59A731B68D3E9D5
:1031E0001A01D7E93A23FDF70FFA02460B4643ECE2
:1031F000172BB0EE471AF0EE671AB0EE480AF0EE61
:10320000680A17F0A9FF87ED380B4FF000024FF066
:103210000003D7E93801FDF75FFC0346002B08D017
:10322000324BD3E90023C7E93A23D7E93A23C7E968
:10323000382307F5A473A3F59A731B68D3E9182301
:10324000C7E9222307F5A473A3F59A731B68D3E992
:103250001A23D7E93A01FDF7D7F902460B46C7E929
:103260002023D7F8CC2040F201431340002B45D057
:1032700007F5A473A3F59C731B6803F00103002BEF
:1032800036D007F5A473A3F59A731B68D3E91245EA
:1032900007F5A473A3F59A731B68D3E92C014FF0CB
:1032A0000002114BFCF7FAFF02460B461046194686
:1032B000D7E94023FDF7A8F902460B461046194608
:1032C000D7E93C23FCF7EAFF02460B462046294695
:1032D000FDF79AF902460B460EE000BFAFF30080FF
:1032E0007B14AE47E17A843F0000F03F8005002068
:1032F00007F10803D3E90023C7E94A23D7F8CC3004
:1033000003F48473002B00F0928107F5A473A3F5F6
:103310009A731B6893ED187BB0EE471AF0EE671AAC
:103320009FEDAB0B14F026FF87ED1E0B07F5A47382
:10333000A3F59A731B68D3E91823D7E92A01FDF78F
:1033400063F902460B46C7E91C23D7E93A23C7E9CC
:103350001A2307F5A473A3F59C731B6803F40043B9
:10336000002B7CD097ED3A1B97ED2A0B17F0F2FE5D
:1033700055EC104B07F5A473A3F59A731B6893EDF6
:103380001E7B07F5A473A3F59A731B6893ED206B5E
:10339000B0EE461AF0EE661AB0EE470AF0EE670A93
:1033A00017F0D8FE53EC102B20462946FCF774FF8B
:1033B00002460B46D7E94001FCF76EFF02460B467A
:1033C00014461D46D7E91C23D7E91E01FDF71CF959
:1033D00002460B4643EC172B97ED1A1BB0EE470A3B
:1033E000F0EE670A17F0B6FE59EC108B07F5A473E0
:1033F000A3F59A731B68D3E92801D7E91E23FDF7CB
:1034000003F902460B4643EC162B07F5A473A3F50C
:103410009A731B6893ED2A7BB0EE471AF0EE671A99
:10342000B0EE460AF0EE660A17F094FE53EC102B4D
:1034300040464946FCF730FF02460B4620462946E7
:10344000FCF72CFF02460B4610461946D7E91E230F
:10345000FDF7DAF802460B4643EC172B55E007F56B
:10346000A473A3F59A731B68D3E92A01D7E91C2337
:10347000FDF7CAF802460B4614461D4607F5A4732D
:10348000A3F59A731B68D3E92801D7E91A23FDF73E
:10349000BBF802460B4620462946FCF7FDFE0246D5
:1034A0000B4643EC182B07F5A473A3F59A731B681E
:1034B000D3E92A01D7E91A23FDF7A6F802460B46FD
:1034C00014461D4607F5A473A3F59A731B68D3E948
:1034D0002801D7E91C23FDF797F802460B46204642
:1034E0002946FCF7DBFE02460B4643EC172BB0EEF9
:1034F000471AF0EE671AB0EE480AF0EE680A17F0C5
:1035000029FEB0EE407AF0EE607A87ED187B07F581
:10351000A473A3F59A731B68D3E9304507F5A47328
:10352000A3F59A731B6803F5CC730522194697ED32
:103530003A1B97ED2A0B012000F0A5FD51EC100B72
:1035400007F5A473A3F59A731B68D3E93623FCF738
:10355000A3FE02460B4610461946D7E94023FCF766
:103560009DFE02460B4620462946FDF74DF80246D1
:103570000B46D7E91801FCF791FE02460B46C7E956
:103580001623154BD3E90023D7E91601FDF766F999
:1035900002460B46C7E9142307F5A473A3F59C73F1
:1035A0001B6803F40043002B18D007F5A473A3F5A0
:1035B0009A731B68D3E90201D7E91423FCF76EFE66
:1035C00002460B4643EC172B2FE000BFAFF3008001
:1035D000000000000000F03F7005002007F5A47314
:1035E000A3F59A731B6893ED027BB0EE470AF0EEE9
:1035F000670AFEF7F9FC55EC104B97ED140BFEF73C
:10360000F3FC53EC102B20462946FCF747FE0246FC
:103610000B4643EC172BB0EE470AF0EE670AFEF7B5
:10362000E3FCB0EE407AF0EE607A87ED4E7BD7F89F
:10363000CC3003F08003002B18D007F5A473A3F55A
:103640009A731B68D3E91601D7E93823FCF7DCFF2E
:1036500002460B4643EC172BB0EE471AF0EE671A02
:1036600097ED240BFEF718FE87ED500BD7F8CC3002
:1036700003F40073002B07D097ED201B97ED220B6E
:10368000FEF70AFE87ED4C0BD7F8CC2043F205037A
:103690001340002B00F0B68107F5A473A3F59A73CD
:1036A0001B6803F5B07307F1480214460622194659
:1036B00097ED3A1B97ED2A0B012000F0E4FC84ED16
:1036C000000B07F5A473A3F59A731B68D3E92E01C9
:1036D0004FF000025F4BFCF7E1FD02460B4614463B
:1036E0001D4607F5A473A3F59A731B68D3E9342329
:1036F00007F14801D1E90001FCF7CEFD02460B4677
:1037000007F148010E4620462946FCF77DFF024698
:103710000B4646E9022307F5A473A3F59A731B68C9
:10372000D3E92C0107F5A473A3F59A731B68D3E9B9
:103730002E23FCF7B1FD02460B4610461946D7E989
:103740004023FCF761FF02460B4614461D4607F175
:10375000480353E90223D7E93C01FCF79DFD0246EB
:103760000B4607F138010E4620462946FCF796FD28
:1037700002460B46C6E90023D7F8CC2041F20503E8
:103780001340002B68D007F5A473A3F59A731B6848
:10379000D3E9124507F5A473A3F59A731B68D3E91F
:1037A0002001D7E92A23FCF72FFF02460B461046DB
:1037B0001946D7E92623FCF727FF02460B46924617
:1037C0009B4607F5A473A3F59A731B68D3E9228976
:1037D00007F5A473A3F59A731B68D3E91E01D7E913
:1037E0003A23FCF711FF02460B4640464946FCF7D8
:1037F0000BFF02460B4650465946FCF74DFD02466C
:103800000B469046994607F5A473A3F59A731B6877
:10381000D3E92001D7E93A23FCF7F6FE02460B462E
:103820001046194607F13803D3E90023FCF7ECFEF4
:1038300002460B4640464946FCF72EFD02460B4623
:1038400020462946FCF7E0FE02460B46C7E948231E
:1038500002E000BF0000F03FD7F8CC2042F20503A1
:103860001340002B00F0CE8007F5A473A3F59A73E4
:103870001B68D3E91C4507F5A473A3F59A731B686D
:10388000D3E91E23D7E92A01FCF706FD02460B46C1
:1038900020462946FCF7B8FE02460B4614461D4654
:1038A00007F5A473A3F59A731B68D3E91E01D7E942
:1038B0002A23FCF7F3FC02460B4620462946FCF778
:1038C000A3FE02460B4614461D4607F5A473A3F556
:1038D0009A731B68D3E92201D7E92623FCF7DEFCA3
:1038E00002460B4607F138010E4620462946FCF7F2
:1038F000B5FF02460B4646E9022307F13803194695
:10390000D7E92A2351E90201FCF77EFE02460B4665
:1039100014461D4607F13803D3E90023D7E93A01DD
:10392000FCF772FE02460B4620462946FCF7B4FC23
:1039300002460B461046194607F5A473A3F59A7381
:103940001B68D3E91E23FCF75FFE02460B461046B8
:10395000194607F5A473A3F59A731B68D3E92223CC
:10396000FCF77CFF02460B461046194607F1180388
:10397000D3E90023FCF792FC02460B46C7E9462335
:1039800007F11803D3E9004507F5A473A3F59A736B
:103990001B68D3E91E0107F1380353E90223FCF742
:1039A00033FE02460B469046994607F5A473A3F5ED
:1039B0009A731B68D3E9200107F13803D3E9002388
:1039C000FCF722FE02460B4640464946FCF764FCE3
:1039D00002460B4610461946D7E92A23FCF714FE87
:1039E00002460B4610461946D7E92623FCF736FF58
:1039F00002460B4620462946FCF74EFC02460B4683
:103A0000C7E94423D7F8CC2044F210031340002B1D
:103A100000F0888107F5A473A3F59A731B6803F57A
:103A2000E47307F1280214460622194697ED3A1B63
:103A300097ED2A0B002000F026FB84ED000B07F524
:103A4000A473A3F59A731B68D3E91A014FF000021F
:103A50004FF00003FDF740F80346002B0FD107F5A8
:103A6000A473A3F59A731B68D3E918014FF0000201
:103A70004FF00003FDF730F80346002B48D007F560
:103A8000A473A3F59A731B68D3E90C01D7E9222329
:103A9000FCF7BAFD02460B4614461D4607F5A47313
:103AA000A3F59A731B68D3E90A01D7E92023FCF731
:103AB000ABFD02460B4620462946FCF7EDFB0246CD
:103AC0000B46C7E9362307F5A473A3F59A731B6861
:103AD000D3E90C01D7E92023FCF796FD02460B46FB
:103AE00014461D4607F5A473A3F59A731B68D3E922
:103AF0000A01D7E92223FCF787FD02460B46204640
:103B00002946FCF7CBFB02460B46C7E93423CEE03F
:103B100007F5A473A3F59A731B68D3E91A0107F597
:103B2000A473A3F59A731B68D3E91823FCF76CFD03
:103B300002460B469046994607F11803D3E9000167
:103B40004FF000024FF00003FCF7DAFF0346002BB2
:103B500031D007F5A473A3F59A731B68D3E9204508
:103B600007F11803D3E900234FF00000BC49FCF72C
:103B700093FB02460B4620462946FCF745FD0246CC
:103B80000B4614461D4607F5A473A3F59A731B68EC
:103B9000D3E91E0107F1280353E90223FCF734FDA2
:103BA00002460B4620462946FCF778FB02460B46A8
:103BB000104619463AE007F5A473A3F59A731B68FB
:103BC000D3E9200107F1280353E90223FCF71CFD88
:103BD00002460B4614461D4607F11803D3E90001BF
:103BE0004FF000029E4BFCF759FB02460B46204665
:103BF0002946FCF733FE02460B461046194607F5E8
:103C0000A473A3F59A731B68D3E91E23FCF746FB44
:103C100002460B461046194607F1280353E90223D2
:103C2000FCF7F2FC02460B461046194642464B464C
:103C3000FCF7EAFC02460B46C7E9362307F5A473F6
:103C4000A3F59A731B6893ED187BB0EE470AF0EE6C
:103C5000670AFEF725F955EC104B07F5A473A3F599
:103C60009A731B6893ED1A7BB0EE470AF0EE670A71
:103C7000FEF716F951EC100B07F5A473A3F59A7330
:103C80001B68D3E92023FCF7BFFC02460B46104615
:103C90001946D7E93A23FCF7B7FC02460B46204603
:103CA0002946FCF7FBFA02460B46C7E9342307F521
:103CB000A473A3F59A731B68D3E9144597ED341BDD
:103CC00097ED360B17F046FA53EC102B2046294699
:103CD000FCF79AFC02460B469046994607F5A473FA
:103CE000A3F59A731B68D3E9384507F5A473A3F5C8
:103CF0009A731B68D3E93A2307F12801D1E900013F
:103D0000FCF7CAFA02460B4620462946FCF77CFC23
:103D100002460B4640464946FCF7C0FA02460B46AF
:103D2000C7E94223D7F8CC3003F08003002B0FD033
:103D300007F5A473A3F5A2731B68002B08D007F541
:103D4000A473A3F5A2731968D7E95023C1E900232E
:103D5000D7F8CC3003F48473002B0FD007F5A4738D
:103D6000A3F5A4731B68002B08D007F5A473A3F573
:103D7000A4731968D7E94E23C1E90023D7F8CC30E2
:103D800003F40073002B09D0D7F87831002B05D04D
:103D9000D7F87811D7E94C23C1E90023D7F8CC2014
:103DA00040F201431340002B09D0D7F87C31002B9F
:103DB00005D0D7F87C11D7E94A23C1E90023D7F809
:103DC000CC2041F205031340002B09D0D7F88031F5
:103DD000002B05D0D7F88011D7E94823C1E900238B
:103DE000D7F8CC2042F205031340002B13D0D7F8AC
:103DF0008431002B05D0D7F88411D7E94623C1E9D7
:103E00000023D7F88831002B05D0D7F88811D7E9DF
:103E10004423C1E90023D7F8CC2044F21003134017
:103E2000002B09D0D7F88C31002B05D0D7F88C1196
:103E3000D7E94223C1E9002307F5A473A3F59C73D6
:103E40001B6803F00103002B0ED1064BD3E90023BE
:103E5000D7E94001FCF702FD02460B4608E000BF2F
:103E60000000F03F7005002007F10803D3E90023AC
:103E700043EC172BB0EE470AF0EE670A07F5A6777A
:103E8000BD46BDEC028BBDE8F08F00BFB0B5ADF50F
:103E9000147D06AF07F50E74A4F50374206007F1D6
:103EA000280000ED020B07F1180080ED001B07F160
:103EB000180000ED022B07F50E70A0F504700160EC
:103EC00007F1080181ED003B07F50E71A1F50D71B9
:103ED0000A6007F50E72A2F50E72136007F50E73F5
:103EE000A3F50D731B68002B01D0802200E0002297
:103EF00007F50E73A3F50E731B68002B02D04FF469
:103F0000847300E000231343D7F84822002A02D02C
:103F10004FF4007200E000221343D7F84C22002A2D
:103F200002D040F2014200E000221343D7F85022B1
:103F3000002A02D041F2050200E000221343D7F824
:103F40005422002A03D1D7F85822002A02D042F284
:103F5000050200E000221343D7F85C22002A02D0B9
:103F600044F2100200E000221343C7F8343207F590
:103F70000E73A3F504731B6803F00103002B01D03B
:103F8000002201E040F60302D7F834321A4307F169
:103F900018031D4607F118031C4607F128031946AC
:103FA00007F50E73A3F5037307F1300015ED022B2F
:103FB00094ED001B11ED020B1968FEF71DFD07F5CE
:103FC0000E73A3F50E7307F50E72A2F50D7207F1CD
:103FD00008010D4607F50E71A1F5047107F13004D3
:103FE000D7F85C020590D7F858020490D7F854022D
:103FF0000390D7F850020290D7F84C020190D7F8FE
:10400000480200901B68126895ED000B0968204675
:10401000FEF736FDB0EE407AF0EE607AB0EE470A79
:10402000F0EE670A07F50E77BD46B0BD80B592B0D9
:1040300006AFF86287ED080B87ED061B87ED042BB2
:1040400087ED023BB9627A603B6000230593002351
:1040500004930023039300230293002301933B68FE
:1040600000937B68BA6A97ED023B002197ED042B21
:1040700097ED061B97ED080BF86AFFF707FF00BFE7
:104080003037BD4680BDB0B58EB000AFF86187ED6A
:10409000040B87ED021BB9617A607A68FB691344EF
:1040A000DB00BA691344BB61D7E90423D7E90201F5
:1040B000FCF7F2F802460B461046194602460B463C
:1040C000FCF7ECF802460B4614461D46D7E90423DC
:1040D000D7E90201FCF7E2F802460B4620462946E2
:1040E000FCF792FA02460B46C7E908237B6803F007
:1040F0000103002B06D0BB69083BBB61BB69D3E958
:10410000002303E04FF000024FF00003C7E90C2347
:104110004FF000024FF00003C7E90A237B68DA0F73
:1041200013445B107B603BE0D7E90C23D7E908011F
:10413000FCF76AFA02460B4610461946D7E90A23ED
:10414000FCF7AAF802460B4610461946BB69083B25
:10415000BB61BB69D3E90023FCF7A0F802460B461C
:10416000C7E90A23D7E90A23D7E90801FCF74CFA83
:1041700002460B4610461946D7E90C23FCF78CF88B
:1041800002460B4610461946BB69083BBB61BB693A
:10419000D3E90023FCF782F802460B46C7E90C235B
:1041A0007B685A1E7A60002BBED1FB69002B18D0A9
:1041B000D7E9040102460B46FCF770F802460B46AD
:1041C00010461946D7E90223FCF71EFA02460B46B1
:1041D00010461946D7E90C23FCF716FA02460B469F
:1041E0000FE0D7E90A23D7E90C01FCF755F802469E
:1041F0000B4610461946D7E90223FCF705FA02469A
:104200000B4643EC172BB0EE470AF0EE670A38373F
:10421000BD46B0BD80B584B000AFF86087ED000B3F
:10422000FB68483397ED000B19460520FDF74EFE5D
:10423000B0EE407AF0EE607AB0EE470AF0EE670A30
:104240001037BD4680BD000090B58BB000AFF86060
:1042500087ED000BB9604FF00002204BC7E908233F
:104260000023FB610123BB612FE0BB69C3F10503A0
:104270007B61D7E90023D7E90801FCF7C5F90246BD
:104280000B46C7E90823FB6803F17802FB69DB00F2
:10429000134497ED000B19467869FDF717FE51ECB2
:1042A000100BBB69DB00BA68D418D7E90823FCF708
:1042B000ABF902460B46C4E900237B690133FA6976
:1042C0001344FB61BB690133BB61BB69052BCCDDCA
:1042D00000BF00BF2C37BD4690BD00BF0000F03FBF
:1042E00090B58BB000AFF86087ED000BB9604FF070
:1042F0000002204BC7E908230023FB610023BB61B8
:104300002FE0BB69C3F105037B61FB6803F1F00299
:10431000FB69DB00134497ED000B19467869FDF744
:10432000D5FD51EC100BBB69DB00BA68D418D7E996
:104330000823FCF769F902460B46C4E900237B69B0
:104340000133FA691344FB61D7E90023D7E9080177
:10435000FCF75AF902460B46C7E90823BB6901334B
:10436000BB61BB69052BCCDD00BF00BF2C37BD4650
:1043700090BD00BF0000F03FB0B586B000AF87ED44
:10438000000B03237B6197ED000BFDF789FDB0EE79
:10439000407AF0EE607AB0EE470AF0EE670A1A490A
:1043A0007869FDF793FD51EC100B7B690133164AD8
:1043B000DB001344D3E90023FCF750FA02460B4616
:1043C000C7E90223D7E90023D7E90201FBF766FF1B
:1043D00002460B4614461D46D7E900234FF0000065
:1043E0000A49FBF759FF02460B4620462946FCF7CF
:1043F00035FA02460B4643EC172BB0EE470AF0EEB7
:10440000670A1837BD46B0BDA0F701080000F03FAD
:104410002DE990438DB000AF87ED020B786097EDEA
:10442000020BFDF73DFD87ED060BD7E90223C7E937
:104430000A2300237B6201233B6241E03B6AC3F114
:104440000603DA0F13445B107B617B6ADB00214AB1
:10445000134497ED060B19467869FDF737FD51ECCB
:10446000100BD7E90A23FCF7CFF802460B4690461B
:1044700099467A6A7B6913440133164ADB00134478
:10448000D3E90023396AC900786844184046494690
:10449000FCF7E4F902460B46C4E900237B690233CA
:1044A0007A6A13447B62D7E90223D7E90A01FCF751
:1044B000ABF802460B46C7E90A233B6A01333B626D
:1044C0003B6A062BBADD00BF00BF3437BD46BDE8EE
:1044D000908300BFC8F701082DE990438DB000AF6D
:1044E00087ED020B786097ED020BFDF7D9FC87EDA5
:1044F000060BD7E90223C7E90A2300237B620123C5
:104500003B6241E03B6AC3F10603DA0F13445B10E0
:104510007B617B6ADB00214A134497ED060B194649
:104520007869FDF7D3FC51EC100BD7E90A23FCF7AF
:104530006BF802460B46904699467A6A7B691344AB
:104540000133164ADB001344D3E90023396AC9005A
:104550007868441840464946FCF780F902460B4605
:10456000C4E900237B6902337A6A13447B62D7E98A
:104570000223D7E90A01FCF747F802460B46C7E9D0
:104580000A233B6A01333B623B6A062BBADD00BF5C
:1045900000BF3437BD46BDE8908300BF58F801081E
:1045A000B0B586B000AF87ED000B03237B6197EDBC
:1045B000000BFDF775FCB0EE407AF0EE607AB0EEDD
:1045C000470AF0EE670A1A497869FDF77FFC51EC5B
:1045D000100B7B690133164ADB001344D3E9002337
:1045E000FCF73CF902460B46C7E90223D7E9002352
:1045F000D7E90201FBF750FE02460B4614461D4662
:104600004FF000020B4BD7E90001FBF747FE0246D3
:104610000B4620462946FCF721F902460B4643EC9F
:10462000172BB0EE470AF0EE670A1837BD46B0BD4B
:10463000E8F801080000F03F2DE990438DB000AF8D
:1046400087ED020B786097ED020BFDF729FC87EDF3
:10465000060BD7E90223C7E90A2300237B62012363
:104660003B6241E03B6AC3F10603DA0F13445B107F
:104670007B617B6ADB00214A134497ED060B1946E8
:104680007869FDF723FC51EC100BD7E90A23FBF7FF
:10469000BBFF02460B46904699467A6A7B691344F3
:1046A0000133164ADB001344D3E90023396AC900F9
:1046B0007868441840464946FCF7D0F802460B4655
:1046C000C4E900237B6902337A6A13447B62D7E929
:1046D0000223D7E90A01FBF797FF02460B46C7E919
:1046E0000A233B6A01333B623B6A062BBADD00BFFB
:1046F00000BF3437BD46BDE8908300BF10F9010804
:1047000080B500AF012107480FF029F80346064A9B
:104710001360012105480FF022F80346044A136094
:1047200000BF80BDA0F9010808090020A8F9010810
:104730000409002080B582B000AF7860786801F08D
:104740000DF97968034804F0EFFE00BF0837BD4655
:1047500080BD00BFE0B5002080B582B000AF7860BA
:104760003E4B1B684FF0FF3118460FF02BF8034605
:10477000002B6FD13A4803F0E9FB786801F086FB23
:104780003849394807F0DCFA374B1B681846FBF705
:10479000E3FE02460B463549C1E90023324BD3ED17
:1047A000017AF1EE677A17EE903A1846FBF7D4FEDD
:1047B00002460B462E49C1E900232B4B9B68184645
:1047C000FBF7CAFE02460B462A49C1E90023294BE2
:1047D000D3E900014FF00002274BFBF75FFD0246D3
:1047E0000B462449C1E90023224BD3E900014FF0D5
:1047F00000024FF00003FCF779F90346002B0CD0C0
:104800001C4BD3E900014FF000021C4BFBF746FDA7
:1048100002460B461749C1E90023164BD3E90001B4
:104820004FF00002154BFCF775F90346002B0CD036
:10483000104BD3E900014FF00002104BFBF72CFDA9
:1048400002460B460B49C1E90023044B1B6818467E
:104850000FF006F800BF0837BD4680BD08090020EC
:104860008CE901081C0E0020E0B50020800000202B
:104870007800002070000020000059400080764041
:1048800080B500AF00F010FB00BF80BD000000004D
:1048900080B584B000AF6E4B1B684FF0FF311846F7
:1048A0000EF090FF0346002B40F0CA80694803F0E9
:1048B0004DFB694B93ED007B684B93ED006B684BB0
:1048C00093ED002B674B93ED003B674B93ED004B53
:1048D000664B93ED005B6648B0EE461AF0EE661A42
:1048E000B0EE470AF0EE670A00F072FE614B00225C
:1048F0001A6000F057FE0346002B3FD05E4800F0E0
:1049000031FE5C4B01221A605C4B1B78002B35D1C9
:10491000594BD3E900235A49C1E90023564BD3E947
:1049200002235749C1E90223534BD3E904235549D4
:10493000C1E90023534BD3E900235149C1E90423C2
:104940004F494FF00002504BC1E904234C494FF04E
:1049500000024FF00003C1E9062349494FF000026D
:104960004FF00003C1E9082345494FF000024FF022
:104970000003C1E90A23414B01221A703F4B1B7807
:10498000002B11D03C4BD3E900233D49C1E9002362
:10499000394BD3E902233A49C1E90223364BD3E923
:1049A00004233849C1E9002338494FF00002364B4F
:1049B000C1E900232B4BD3E9000123A3D3E9002352
:1049C000FBF722FE02460B46104619464FF0000246
:1049D0002F4BFBF743FF02460B46C7E9022397ED37
:1049E000020B16F0DDFD51EC100B2A4BD3E900232E
:1049F000FBF70AFE02460B46C7E90023264B93ED60
:104A0000007B264B93ED006B184B93ED005B00236E
:104A1000234A244997ED003BB0EE452AF0EE652A83
:104A2000B0EE461AF0EE661AB0EE470AF0EE670AEC
:104A30001D48FFF7FBFA064B1B6818460EF010FFE7
:104A400000BF1037BD4680BD182D4454FB210940DE
:104A50000809002098E90108C0050020C8050020C9
:104A6000D005002078000020800000207000002089
:104A7000E805002030060020D0070020E0050020D7
:104A8000180B0020D80500200000304098050020B9
:104A900000806640880000209005002088050020E6
:104AA000A0050020A80500203806002080B500AF32
:104AB00003F0D2FD00BF80BD80B500AF03F0D6FB90
:104AC00000BF80BD80B582B000AF0D4803F03EFA54
:104AD000FDF716F800237B6008E0FDF75FF84FF460
:104AE0007A700EF010FE7B6801337B607B68032BCD
:104AF000F3DD044803F02AFA00BF0837BD4680BD45
:104B0000A4E90108C8E9010880B500AFFDF746F83F
:104B100000BF80BDB0B58EB002AF2E4803F016FACC
:104B20002D4C38462D4B01934FF4806300932C4B52
:104B30004FF400422A49FCF7D9FB25463C460FCCEE
:104B40000FC50FCC0FC594E8030085E80300224B86
:104B50004FF4D972DA61204B072283F820201E4BD4
:104B6000072283F821201C4B012283F822201A4BB4
:104B7000FF2283F82620184B782283F82720164B33
:104B80000A229A84174803F0E1F91348FCF7EAFB7C
:104B90001148FCF70DFF0346C82B07D1F1210E4841
:104BA000FCF789FE104803F0D1F902E00F4803F04A
:104BB000CDF942210848FCF703FC034687F82F3063
:104BC00097F82F3019460A4803F0C0F900BF303774
:104BD000BD46B0BDF8E90108E807002040110020FB
:104BE0000000024014EA010828EA010850EA01081E
:104BF00070EA0108F0B585B004AF4D4803F0A6F99E
:104C00004C4B4FF246221A604B4BD3E9002310461F
:104C10001946FBF7F1FF0346464A5360474BD3E979
:104C20000001444B02469A600A46DA60444BD3E9DD
:104C30000001404B02461A610A465A61414BD3E9D2
:104C400000013C4B02469A610A46DA613E4BD3E9C9
:104C50000001384B02461A620A465A623A4BD3E9BF
:104C60000001344B02469A620A46DA62374BD3E9B6
:104C70000001304B02461A630A465A63344BD3E9AB
:104C800000012C4B02469A630A46DA6331490A68EE
:104C90004B68541C43F100052E4B22461A602A46ED
:104CA0005A602D4B2B4A92E8030083E803002B4BFC
:104CB000204A14469C4604F1400E654626460FCE17
:104CC00028606960AA60EB6010340CF1100C744528
:104CD000F3D10C220021224813F01AF9204B1D4A6F
:104CE00092E8030083E803001E4B1A4A92E803008F
:104CF00083E803001C4B0293402301930D4B009368
:104D00000823144A1649194803F0C6F8184803F056
:104D10001DF94FF4C873582212491648FCF7DEFDFE
:104D2000154803F013F900BF0437BD46F0BD00BFBE
:104D30008CEA010810080020B80500208805002032
:104D40009005002098050020A0050020B005002057
:104D50008800002050080020640800206C08002013
:104D600058080020AC080020B40800209000002063
:104D7000A8EA0108E8070020C0EA010880B500AFF2
:104D8000024803F0E3F800BF80BD00BFDCEA010881
:104D900080B500AFFCF7D6FF00BF80BD80B485B002
:104DA00000AF78600023FB730023BB607B681B7837
:104DB000242B0DD17B6801337B6009E0BB687A68E6
:104DC00013441A78FB7B5340FB73BB680133BB6011
:104DD000BB687A6813441B78002B05D0BB687A68DF
:104DE00013441B782A2BE9D1FB7B18461437BD46A8
:104DF0005DF8047B7047000080B5C6B002AF07F5D0
:104E00008873A3F58673186007F58873A3F5867316
:104E10001B681B78242B11D007F58873A3F58673C4
:104E200007F188001B681D4A802112F06BFF07F50F
:104E30008873A3F5867307F188021A6007F58873F3
:104E4000A3F586731868FFF7A9FF034687F80F31AB
:104E500097F80F2107F58873A3F5867307F108000B
:104E600000921B680E4A802112F04CFFC7F808011F
:104E7000D7F808319AB207F108014FF47A7309485C
:104E80000DF0DAF90346002B01D1002300E00123E5
:104E9000184607F58877BD4680BD00BF14EB0108B2
:104EA00018EB0108A012002080B500AF1048FFF7F2
:104EB000A3FF1048FFF7A0FF0F48FFF79DFF0F4823
:104EC000FFF79AFF0E48FFF797FF0E48FFF794FF92
:104ED0000D48FFF791FF0D48FFF78EFF4FF48072EA
:104EE0000B490C480DF033FA0023184680BD00BF73
:104EF00024EB010834EB010844EB010854EB0108F2
:104F000064EB010874EB010884EB010894EB0108E1
:104F10000C090020A01200202DE9B04FBEB00AAF4E
:104F20007860396007F1480350220021184612F0DA
:104F3000EFFF07F13C0300221A605A60C3F8072014
:104F400007F12C0300221A605A609A60C3F80B2004
:104F500007F11C0300221A605A609A60C3F80B2004
:104F600007F1140300221A60C3F803200023FB7426
:104F70000023BB7400237B7400233B740023FB736A
:104F800007F13C0107F1480207F10F03099307F10C
:104F90001003089307F11403079307F1480338330C
:104FA000069307F148033033059307F11203049386
:104FB00007F11C03039307F11303029307F12C037A
:104FC000019307F1110300930B468B49386812F0E7
:104FD000F1FE7B7C87F858303B7C87F89430FB7B74
:104FE00087F8953007F13C03184611F010F8C7F820
:104FF000CC00D7F8CC30814A82FB03121213DB17A6
:10500000D31AFB64D7F8CC307D4A82FB03125211CD
:10501000DB17D21A7A4B83FB02135911D317CB1A21
:10502000642101FB03F3D31A3B65D7F8CC20744B02
:1050300083FB02135911D317CB1A642101FB03F32D
:10504000D31A7B65FB7C87F87030BB7C87F87130A6
:1050500007F12C03184610F0D7FF87ED300B4FF007
:105060000002684BD7E93001FBF7F8FB02460B461C
:1050700010461946FBF778FD0346C7F8BC30D7F851
:10508000BC30642202FB03F31846FBF753FA0246D6
:105090000B46D7E93001FBF7FFF802460B46C7E99C
:1050A0002C23D7F8BC00FBF745FA82468B464FF01D
:1050B0000002554BD7E92C01FBF7D0FB02460B460B
:1050C00050465946FBF7EAF802460B46C7E9182353
:1050D000FB7C532B06D1D7E91823904683F0004977
:1050E000C7E9188907F11C03184610F08DFF87EDFA
:1050F0002A0B4FF00002434BD7E92A01FBF7AEFB26
:1051000002460B4610461946FBF72EFD0346C7F82C
:10511000A430D7F8A430642202FB03F31846FBF74F
:1051200009FA02460B46D7E92A01FBF7B5F8024611
:105130000B46C7E92623D7F8A400FBF7FBF9804606
:1051400089464FF00002304BD7E92601FBF786FB7A
:1051500002460B4640464946FBF7A0F802460B467E
:10516000C7E91A23BB7C572B06D1D7E91A2314466B
:1051700083F00045C7E91A4507F114031846FBF709
:105180007FF80346062B2AD107F10C0300210A46BB
:105190001A800A469A703B7D3B737B7D7B7307F1D7
:1051A0000C03184610F033FF0346C7F88830BB7D68
:1051B0003B73FB7D7B7307F10C03184610F027FF50
:1051C0000346C7F88C303B7E3B737B7E7B7307F1D5
:1051D0000C03184610F01BFF0346C7F890307B689D
:1051E000184607F148035022194612F0A6FF7868C6
:1051F000D037BD46BDE8B08FA0EB0108AD8BDB68B2
:105200001F85EB510000594000004E402DE9B04F82
:10521000B6B008AF7860396007F15003382200213A
:10522000184612F075FE07F1400300221A605A601A
:105230009A60C3F80B2007F1300300221A605A600D
:105240009A60C3F80B200023FB620023BB624FF07F
:1052500000024FF00003C7E908234FF000024FF0AF
:105260000003C7E906234FF000024FF00003C7E92F
:1052700004230023FB730023BB7307F10F0107F125
:10528000400207F11003069307F11803059307F195
:105290002003049307F12803039307F12C030293DF
:1052A00007F10E03019307F1300300930B466049A9
:1052B000386812F07FFDFB6A7B66BB6ABB66D7E984
:1052C0000823C7E91C23D7E90623C7E91E23D7E92A
:1052D0000423C7E92023FB7B87F86030BB7B87F87A
:1052E000613007F14003184610F08EFE87ED2C0B5D
:1052F0004FF000024F4BD7E92C01FBF7AFFA024603
:105300000B4610461946FBF72FFC0346C7F8AC3096
:10531000D7F8AC30642202FB03F31846FBF70AF916
:1053200002460B46D7E92C01FAF7B6FF02460B46B8
:10533000C7E92823D7F8AC00FBF7FCF882468B4678
:105340004FF000023C4BD7E92801FBF787FA0246F1
:105350000B4650465946FAF7A1FF02460B46C7E9ED
:105360001423FB7B532B06D1D7E91423904683F0FB
:105370000049C7E9148907F13003184610F044FECC
:1053800087ED260B4FF000022A4BD7E92601FBF7E9
:1053900065FA02460B4610461946FBF7E5FB034645
:1053A000C7F89430D7F89430642202FB03F3184610
:1053B000FBF7C0F802460B46D7E92601FAF76CFF67
:1053C00002460B46C7E92223D7F89400FBF7B2F850
:1053D000804689464FF00002174BD7E92201FBF7C0
:1053E0003DFA02460B4640464946FAF757FF024649
:1053F0000B46C7E91623BB7B572B06D1D7E91623EB
:10540000144683F00045C7E916457B681D4607F141
:1054100050040FCC0FC50FCC0FC50FCC0FC594E8AF
:10542000030085E803007868B837BD46BDE8B08F53
:10543000E0EB01080000594000004E40B0B5A6B0B6
:1054400000AF424BC7F89430404BC7F8903072E041
:10545000D7F894301B780D2B68D1D7F894300133EE
:105460001B780A2B62D1D7F89420D7F89030D31A42
:10547000C7F88C30D7F88C30002B09DCD7F8943083
:105480000233C7F89430D7F89430C7F8903052E020
:10549000D7F88C307F2B02DD7F23C7F88C30D7F80C
:1054A0008C301A46D7F89010294812F046FE284A48
:1054B000D7F88C30134400221A702649244812F081
:1054C00041FD0346002B14D0234C07F15003204923
:1054D0001846FFF79BFE254607F150040FCC0FC579
:1054E0000FCC0FC50FCC0FC594E8030085E803006F
:1054F00012E01A49164812F025FD0346002B0BD086
:10550000174C3B4612491846FFF706FD20463B461E
:105510005022194612F011FED7F894300233C7F822
:105520009430D7F89430C7F8903004E0D7F894302E
:105530000133C7F89430D7F894301B78002B87D10B
:10554000002318469837BD46B0BD00BF0C090020A7
:105550000C0A002020EC0108900A002024EC01082D
:10556000C80A002080B483B000AF78600C4BD3E948
:1055700000237968C1E90023094BD3E90223796844
:10558000C1E90223064BD3E90A237968C1E9042360
:10559000002318460C37BD465DF8047B704700BFFA
:1055A000900A002080B500AF084BD3E908014FF006
:1055B00000024FF00003FBF78FFA0346002B01D1E6
:1055C000012300E00023184680BD00BF900A0020A0
:1055D0002DE9F043A3B000AF87ED0C0B87ED0A1B5C
:1055E00087ED082B87ED063B87ED044B87ED025BCB
:1055F0007860D8A3D3E90023C7E92023D7E9202383
:10560000D7E90601FBF700F802460B46C7E91E235F
:10561000D7E92023D7E90401FAF7F6FF02460B4643
:10562000C7E91C23D7E92023D7E90201FAF7ECFFE9
:1056300002460B46C7E91A2397ED1E0B15F0B0FF83
:1056400087ED180B97ED1E0B16F006F887ED160B7D
:1056500097ED1C0B15F0A4FF87ED140B97ED1C0BB9
:1056600015F0FAFF87ED120B97ED1A0B15F098FF66
:1056700087ED100B97ED1A0B15F0EEFF87ED0E0B73
:10568000D7E91023D7E91801FAF7BEFF02460B4607
:105690007968C1E90023D7E91623D7E91201FAF79F
:1056A000B3FF02460B4610461946D7E91023FAF716
:1056B000ABFF02460B4690469946D7E90E23D7E941
:1056C0001401FAF7A1FF02460B4640464946FAF795
:1056D000E3FD02460B467968C1E90223D7E91623A8
:1056E000D7E91401FAF790FF02460B461046194617
:1056F000D7E91023FAF788FF02460B4690469946F1
:10570000D7E90E23D7E91201FAF77EFF02460B46CE
:1057100040464946FAF7C2FD02460B467968C1E9A0
:1057200004237B6803F11806D7E90E23D7E9180193
:10573000FAF76AFF02460B46C6E90023D7E91623AB
:10574000D7E91201FAF760FF02460B4610461946E8
:10575000D7E90E23FAF758FF02460B4690469946C2
:10576000D7E91023D7E91401FAF74EFF02460B469A
:10577000104619467B6803F1180602460B46404660
:105780004946FAF78BFD02460B46C6E90223D7E9E4
:105790001623D7E91401FAF737FF02460B461046E5
:1057A0001946D7E90E23FAF72FFF02460B4690461B
:1057B0009946D7E91023D7E91201FAF725FF0246E7
:1057C0000B46104619467B6803F1180602460B4645
:1057D00040464946FAF760FD02460B46C6E90423F7
:1057E0007B683033BC6DFA6D82F00045C3E900453B
:1057F0007B6803F13004D7E91823D7E91201FAF7DF
:1058000003FF02460B46C4E902237B6803F1300420
:10581000D7E91823D7E91401FAF7F6FE02460B463A
:10582000C4E904237B68D3E90001D7E90C23FAF724
:10583000EBFE02460B4614461D467B68D3E9020187
:10584000D7E90A23FAF7E0FE02460B46204629462E
:10585000FAF724FD02460B4614461D467B68D3E941
:105860000401D7E90823FAF7CFFE02460B4620468B
:105870002946FAF713FD02460B463549C1E90023D4
:105880007B681833D3E90001D7E90C23FAF7BCFE93
:1058900002460B4614461D467B681833D3E90201C5
:1058A000D7E90A23FAF7B0FE02460B4620462946FE
:1058B000FAF7F4FC02460B4614461D467B68183383
:1058C000D3E90401D7E90823FAF79EFE02460B4606
:1058D00020462946FAF7E2FC02460B461C49C1E97C
:1058E00002237B683033D3E90001D7E90C23FAF7B0
:1058F0008BFE02460B4614461D467B683033D3E9C7
:105900000201D7E90A23FAF77FFE02460B4620463A
:105910002946FAF7C3FC02460B4614461D467B682F
:105920003033D3E90401D7E90823FAF76DFE0246C4
:105930000B4620462946FAF7B1FC02460B460449BD
:10594000C1E9042300BF8C37BD46BDE8F08300BF2A
:10595000D80D0020399D52A246DF913F80B584B01A
:1059600000AF7860104802F0F1FA0123FB7313E0F6
:10597000FB7B9BB25B0099B20A230122786808F096
:1059800029FB0346002B04D1FB7B1946074802F094
:10599000DDFAFB7B0133FB73FB7B7E2BE8D900BF79
:1059A00000BF1037BD4680BD28EC010848EC010857
:1059B00080B586B002AF3A601A460346FB710B46CB
:1059C000BB7113467B71FB793B73BB797B737B792E
:1059D00099B2642307F10C0200930223386807F0A0
:1059E0000FFF00BF1037BD4680BD000080B483B0FC
:1059F00000AF344B1B781BB21B021AB2314B5B78E1
:105A00001BB21343FB802F4B9B781BB21B021AB2B5
:105A10002C4BDB781BB21343BB802A4B1B791BB288
:105A20001B021AB2274B5B791BB213437B80B7F979
:105A3000063007EE903AB8EEE77A234BD3ED037ABF
:105A400037EE677A204BD3ED067A27EE277ADFED23
:105A50001F6AC7EE267A1C4BC3ED007AB7F90430F3
:105A600007EE903AB8EEE77A174BD3ED047A37EEAB
:105A7000677A154BD3ED077A27EE277ADFED136AA5
:105A8000C7EE267A104BC3ED017AB7F9023007EE64
:105A9000903AB8EEE77A0C4BD3ED057A37EE677A99
:105AA000094BD3ED087A27EE277ADFED086AC7EEB7
:105AB000267A054BC3ED027A00BF0C37BD465DF870
:105AC000047B7047F00D00201C0E00200000804574
:105AD000B0B582B000AF7C4B5B781BB21B021AB230
