:020000040800F2
:1000000000000220292300082120000829200008E0
:1000100031200008392000084120000800000000BD
:100020000000000000000000000000001174000843
:10003000492000080000000061760008C976000829
:100040007923000879230008792300087923000820
:100050007923000879230008792300087923000810
:100060007923000879230008792300087923000800
:10007000592000086D20000879230008812000081D
:100080009D200008B1200008C520000800000000E5
:1000900000000000000000000000000079230008BC
:1000A00079230008792300087923000879230008C0
:1000B0007923000879230008D92000087923000853
:1000C000792300087923000879230008ED2000082F
:1000D00079230008012100087923000800000000AE
:1000E0007923000879230008792300080000000024
:1000F00000000000000000000000000015210008C2
:100100000000000079230008792300087923000803
:1001100000000000000000000000000000000000DF
:10012000792300087923000879230008792300083F
:10013000792300080000000000000000000000001B
:10014000000000000000000000000000792300080B
:10015000792300087923000879230008792300080F
:100160007923000879230008000000000000000047
:10017000000000000000000000000000000000007F
:1001800000000000792300080000000000000000CB
:0801900079230008792300081F
:1001A00010B5054C237833B9044B13B10448AFF3B1
:1001B00000800123237010BDD80100200000000042
:1001C00048C3000808B5034B1BB103490348AFF30C
:1001D000008008BD00000000DC01002048C30008CA
:1001E00001F0FF01102A2BDB10F0070F08D010F8E8
:1001F000013B013A8B422DD010F0070F42B3F6D1EC
:10020000F0B441EA012141EA014122F007047FF004
:1002100000070023F0E80256083C85EA010586EA5B
:10022000010685FA47F5A3FA87F586FA47F6A5FA97
:1002300087F68EB9EED1F0BC01F0FF0102F00702A3
:1002400032B110F8013B013A83EA010313B1F8D14E
:100250000020704701387047002D06BF354603382F
:10026000073815F0010F07D1013015F4807F02BF68
:10027000013015F4C03F0130F0BC0138704700BFB9
:10028000034613F8012B002AFBD1181A01387047D6
:1002900081F0004102E000BF83F0004330B54FEA37
:1002A00041044FEA430594EA050F08BF90EA020FA4
:1002B0001FBF54EA000C55EA020C7FEA645C7FEA37
:1002C000655C00F0E2804FEA5454D4EB5555B8BF5A
:1002D0006D420CDD2C4480EA020281EA030382EACB
:1002E000000083EA010180EA020281EA0303362D5D
:1002F00088BF30BD11F0004F4FEA01314FF4801C30
:100300004CEA113102D0404261EB410113F0004F41
:100310004FEA03334CEA133302D0524263EB4303F8
:1003200094EA050F00F0A780A4F10104D5F1200E96
:100330000DDB02FA0EFC22FA05F2801841F10001F1
:1003400003FA0EF2801843FA05F359410EE0A5F1C5
:1003500020050EF1200E012A03FA0EFC28BF4CF0F6
:10036000020C43FA05F3C01851EBE37101F00045AC
:1003700007D54FF0000EDCF1000C7EEB00006EEBB9
:100380000101B1F5801F1BD3B1F5001F0CD3490843
:100390005FEA30004FEA3C0C04F101044FEA44529A
:1003A00012F5800F80F09A80BCF1004F08BF5FEA21
:1003B000500C50F1000041EB045141EA050130BD01
:1003C0005FEA4C0C404141EB0101013C28BFB1F513
:1003D000801FE9D291F0000F04BF01460020B1FA5E
:1003E00081F308BF2033A3F10B03B3F120020CDA31
:1003F0000C3208DD02F1140CC2F10C0201FA0CF00F
:1004000021FA02F10CE002F11402D8BFC2F1200C73
:1004100001FA02F120FA0CFCDCBF41EA0C01904029
:10042000E41AA2BF01EB0451294330BD6FEA040472
:100430001F3C1CDA0C340EDC04F11404C4F120025D
:1004400020FA04F001FA02F340EA030021FA04F36F
:1004500045EA030130BDC4F10C04C4F1200220FAC6
:1004600002F001FA04F340EA0300294630BD21FA04
:1004700004F0294630BD94F0000F83F4801306BFCA
:1004800081F480110134013D4EE77FEA645C18BFBE
:100490007FEA655C29D094EA050F08BF90EA020F55
:1004A00005D054EA000C04BF1946104630BD91EA4D
:1004B000030F1EBF0021002030BD5FEA545C05D150
:1004C0004000494128BF41F0004130BD14F580048F
:1004D0003CBF01F5801130BD01F0004545F0FE4103
:1004E00041F470014FF0000030BD7FEA645C1ABF38
:1004F000194610467FEA655C1CBF0B46024650EA6F
:10050000013406BF52EA033591EA030F41F400219A
:1005100030BD00BF90F0000F04BF0021704730B520
:100520004FF4806404F132044FF000054FF00001F5
:1005300050E700BF90F0000F04BF0021704730B5B6
:100540004FF4806404F1320410F0004548BF40428B
:100550004FF000013EE700BF42004FEAE2014FEAE0
:1005600031014FEA02701FBF12F07F4393F07F4FBB
:1005700081F06051704732F07F4208BF704793F0BE
:100580007F4F04BF41F40021704730B54FF46074D1
:1005900001F0004521F000411CE700BF50EA0102D4
:1005A00008BF704730B54FF000050AE050EA01027D
:1005B00008BF704730B511F0004502D5404261EBED
:1005C00041014FF4806404F132045FEA915C3FF42E
:1005D000D8AE4FF003025FEADC0C18BF03325FEACB
:1005E000DC0C18BF033202EBDC02C2F1200300FA7C
:1005F00003FC20FA02F001FA03FE40EA0E0021FAA1
:1006000002F11444BDE600BF70B54FF0FF0C4CF48E
:10061000E06C1CEA11541DBF1CEA135594EA0C0F40
:1006200095EA0C0F00F0DEF82C4481EA030621EA7B
:100630004C5123EA4C5350EA013518BF52EA0335B6
:1006400041F4801143F4801338D0A0FB02CE4FF068
:100650000005E1FB02E506F00042E0FB03E54FF098
:100660000006E1FB03569CF0000F18BF4EF0010E90
:10067000A4F1FF04B6F5007F64F5407404D25FEA8C
:100680004E0E6D4146EB060642EAC62141EA55513F
:100690004FEAC52040EA5E504FEACE2EB4F1FD0C81
:1006A00088BFBCF5E06F1ED8BEF1004F08BF5FEAFF
:1006B000500E50F1000041EB045170BD06F00046B1
:1006C00046EA010140EA020081EA0301B4EB5C045E
:1006D000C2BFD4EB0C0541EA045170BD41F4801156
:1006E0004FF0000E013C00F3AB8014F1360FDEBF7B
:1006F000002001F0004170BDC4F10004203C35DA57
:100700000C341BDC04F11404C4F1200500FA05F3D9
:1007100020FA04F001FA05F240EA020001F000427A
:1007200021F0004110EBD37021FA04F642EB0601F0
:100730005EEA430E08BF20EAD37070BDC4F10C041A
:10074000C4F1200500FA04F320FA05F001FA04F2DE
:1007500040EA020001F0004110EBD37041F10001CA
:100760005EEA430E08BF20EAD37070BDC4F12005D5
:1007700000FA05F24EEA020E20FA04F301FA05F23D
:1007800043EA020321FA04F001F0004121FA04F2E5
:1007900020EA020000EBD3705EEA430E08BF20EAB5
:1007A000D37070BD94F0000F0FD101F000464000EF
:1007B00041EB010111F4801F08BF013CF7D041EA71
:1007C000060195F0000F18BF704703F00046520075
:1007D00043EB030313F4801F08BF013DF7D043EA46
:1007E0000603704794EA0C0F0CEA135518BF95EAFC
:1007F0000C0F0CD050EA410618BF52EA4306D1D183
:1008000081EA030101F000414FF0000070BD50EAA1
:10081000410606BF1046194652EA430619D094EA2B
:100820000C0F02D150EA013613D195EA0C0F05D115
:1008300052EA03361CBF104619460AD181EA030169
:1008400001F0004141F0FE4141F470014FF0000021
:1008500070BD41F0FE4141F4780170BD70B54FF0BC
:10086000FF0C4CF4E06C1CEA11541DBF1CEA13553C
:1008700094EA0C0F95EA0C0F00F0A7F8A4EB05041E
:1008800081EA030E52EA03354FEA013100F0888015
:100890004FEA03334FF0805545EA131343EA1263DE
:1008A0004FEA022245EA111545EA10654FEA002693
:1008B0000EF000419D4208BF964244F1FD0404F54C
:1008C000407402D25B084FEA3202B61A65EB0305A8
:1008D0005B084FEA32024FF480104FF4002CB6EB65
:1008E000020E75EB030E22BFB61A754640EA0C00E5
:1008F0005B084FEA3202B6EB020E75EB030E22BF25
:10090000B61A754640EA5C005B084FEA3202B6EB65
:10091000020E75EB030E22BFB61A754640EA9C0024
:100920005B084FEA3202B6EB020E75EB030E22BFF4
:10093000B61A754640EADC0055EA060E18D04FEAB2
:10094000051545EA16754FEA06164FEAC30343EA52
:1009500052734FEAC2025FEA1C1CC0D111F4801F1F
:100960000BD141EA00014FF000004FF0004CB6E718
:1009700011F4801F04BF01430020B4F1FD0C88BFB7
:10098000BCF5E06F3FF6AFAEB5EB030C04BFB6EBC2
:10099000020C5FEA500C50F1000041EB045170BDB5
:1009A0000EF0004E4EEA113114EB5C04C2BFD4EBE2
:1009B0000C0541EA045170BD41F480114FF0000E66
:1009C000013C90E645EA060E8DE60CEA135594EAE2
:1009D0000C0F08BF95EA0C0F3FF43BAF94EA0C0FE5
:1009E0000AD150EA01347FF434AF95EA0C0F7FF45A
:1009F00025AF104619462CE795EA0C0F06D152EAAE
:100A000003353FF4FDAE1046194622E750EA410691
:100A100018BF52EA43067FF4C5AE50EA41047FF4A2
:100A20000DAF52EA43057FF4EBAE12E74FF0FF3C07
:100A300006E000BF4FF0010C02E000BF4FF0010CD8
:100A40004DF804CD4FEA410C7FEA6C5C4FEA430C51
:100A500018BF7FEA6C5C1BD001B050EA410C0CBFA0
:100A600052EA430C91EA030F02BF90EA020F002002
:100A7000704710F1000F91EA030F58BF994208BF69
:100A800090422CBFD8176FEAE37040F00100704726
:100A90004FEA410C7FEA6C5C02D150EA013C07D17D
:100AA0004FEA430C7FEA6C5CD6D152EA033CD3D0C8
:100AB0005DF8040B704700BF8446104662468C46C2
:100AC0001946634600E000BF01B5FFF7B7FF0028F5
:100AD00048BF10F1000F01BD4DF808EDFFF7F4FF1E
:100AE0000CBF012000205DF808FB00BF4DF808EDA9
:100AF000FFF7EAFF34BF012000205DF808FB00BFCC
:100B00004DF808EDFFF7E0FF94BF012000205DF8ED
:100B100008FB00BF4DF808EDFFF7CEFF94BF0120A2
:100B200000205DF808FB00BF4DF808EDFFF7C4FF9B
:100B300034BF012000205DF808FB00BF4FEA410CE4
:100B40007FEA6C5C02D150EA013C0AD14FEA430CC7
:100B50007FEA6C5C02D152EA033C02D14FF0000004
:100B600070474FF0010070474FEA410212F5001242
:100B700015D211D56FF47873B3EB625212D94FEAE4
:100B8000C12343F0004343EA505311F0004F23FACE
:100B900002F018BF404270474FF00000704750EA23
:100BA000013005D111F0004008BF6FF000407047E0
:100BB0004FF00000704700BF4A0011D212F500123A
:100BC00011D20DD56FF47873B3EB62520ED44FEAA5
:100BD000C12343F0004343EA505323FA02F0704725
:100BE0004FF00000704750EA013002D14FF0FF3063
:100BF00070474FF0000070474FEA4102B2F1E04306
:100C000024BFB3F5001CDCF1FE5C0DD901F0004CF3
:100C10004FEAC0024CEA5070B2F1004F40EB830043
:100C200008BF20F00100704711F0804F21D113F16F
:100C30003872BCBF01F00040704741F480114FEAA8
:100C40005252C2F11802C2F1200C10FA0CF320FA31
:100C500002F018BF40F001004FEAC1234FEAD3234E
:100C600003FA0CFC40EA0C0023FA02F34FEA4303B8
:100C7000CCE77FEA625307D150EA01331EBF4FF041
:100C8000FE4040F44000704701F0004040F0FE405C
:100C900040F40000704700BF53B94AB9002908BFAB
:100CA00000281CBF4FF0FF314FF0FF3000F0BEB9FD
:100CB000ADF1080C6DE904CE00F03CF8DDF804E07D
:100CC000DDE9022304B0704738B500220023044652
:100CD0000D46FFF70BFF28B920462946BDE83840EE
:100CE00000F00AB8204605F1004100F005F8404246
:100CF00061EB410138BD00BFD0B50C4B0022064668
:100D00000F46FFF781FCFFF757FF0446FFF702FC91
:100D1000074B0022FFF778FC02460B463046394667
:100D2000FFF7BAFAFFF748FF2146D0BD0000F03DBB
:100D30000000F0412DE9F047089D8E4604468846A4
:100D4000002B4AD18A42174662D9B2FA82F64EB1D6
:100D5000C6F1200301FA06F820FA03F3B74043EA8C
:100D60000808B4404FEA174E1FFA87FCB8FBFEF1A3
:100D7000230C0EFB118843EA084301FB0CF29A4254
:100D800009D9FB1801F1FF3080F0EA809A4240F265
:100D9000E78002393B449A1AA3B2B2FBFEF00EFB85
:100DA000102243EA024300FB0CFC9C4509D9FB18C6
:100DB00000F1FF3280F0D6809C4540F2D3803B4466
:100DC000023840EA0140A3EB0C0300211DB1F340BF
:100DD0000022C5E90032BDE8F0878B4205D90DB18C
:100DE000C5E9000100210846F5E7B3FA83F10029BF
:100DF00046D1734502D3824200F20581841A6EEB1C
:100E0000030201209046002DE5D0C5E90048E2E745
:100E1000002A00F09080B2FA82F6002E40F0A48002
:100E20008A1A030C4FEA174E80B2BCB20121B2FB02
:100E3000FEFC0EFB1C2243EA024304FB0CF29A4226
:100E400007D9FB180CF1FF3802D29A4200F2E08079
:100E5000C4469B1AB3FBFEF20EFB123340EA034377
:100E600002FB04F49C4207D9FB1802F1FF3002D2C6
:100E70009C4200F2CA8002461B1B42EA0C40A5E7D6
:100E8000C1F120068B4022FA06F71F430EFA01F447
:100E900020FA06F32EFA06FE4FEA1749234300FA1A
:100EA00001F81FFA87FCBEFBF9F01C0C09FB10EEE1
:100EB00044EA0E4400FB0CFEA64502FA01F209D9F1
:100EC0003C1900F1FF3A80F09C80A64540F29980E1
:100ED00002383C44A4EB0E041FFA83FEB4FBF9F382
:100EE00009FB13444EEA044403FB0CFCA44508D957
:100EF0003C1903F1FF3E80F08280A4457FD9023B7C
:100F00003C4443EA0040A4EB0C04A0FB02EC644523
:100F10007346E14662D35FD05DB1B8EB030264EB88
:100F2000090404FA06F622FA01F31E43CC40C5E98F
:100F3000006400214FE7B1FBF2FC010C41EA0E41D5
:100F400080B240EA01423B4638463C46B846BE467F
:100F50002026B1FBF7F1A2EB080241EA0C4166E75B
:100F6000014618E710462CE7C6F120022EFA02F3DC
:100F7000B740B14020FA02F24FEA174E0A43B3FBE2
:100F8000FEF8BCB20EFB1833110C41EA034108FB1A
:100F900004F9B04089454FEA104380B23ED9791830
:100FA00008F1FF3C01D289451FD8A1EB0901B1FB33
:100FB000FEF909FB04F80EFB191192B242EA014254
:100FC000424529D2BA1809F1FF31C4D24245C2D2F2
:100FD000A9F102013A44BEE7F0459DD2BEEB0203FF
:100FE0006CEB070C0138E14696E7A7EB0909494489
:100FF000A8F1020CB1FBFEF909FB04F8DBE773462C
:101000007FE7504666E70846FDE63B44023A33E791
:10101000ACF1020C3B441CE749469CE7A1EB0901FB
:10102000C446B1FBFEF909FB04F8C4E7704700BFF2
:1010300080B584B000AF78607B681A68134B1B687A
:101040009A421FD1786801F02AFCF860104B1A68A8
:10105000FB6813440E4A13600E4B1B78DBB201335E
:10106000DAB20C4B1A700B4B1B78DBB2182B03D87F
:10107000786801F009FA05E0074B01221A707868D8
:1010800001F0C0FA00BF1037BD4680BDA4040020A7
:10109000F4010020F8010020F901002080B485B09F
:1010A00000AFF860B9607A60FB68074A1A60BB68F5
:1010B000064A1A607B6880221A6000BF1437BD465A
:1010C0005DF8047B704700BFFC0100209C020020FB
:1010D00080B500AF0121074804F051FE0346064ADF
:1010E00013600121054804F04AFE0346044A1360D8
:1010F00000BF80BD98C40008A0040020A0C4000860
:101100009C04002080B500AF024800F04BFB00BFFC
:1011100080BD00BF18C4000880B582B000AF01F0E8
:101120002DF900F029F800F07BFA00F031FA00F018
:10113000DBF900F003FA00F087F800F0D7F800F0D0
:1011400003F900F02FF900F063F900F097F9FFF7C9
:10115000D9FF00233B6000237B603B46184604F028
:10116000F6FD0346034A1360FFF7B2FF04F0E8FD03
:1011700000BFFDE76C09002080B594B000AF07F117
:10118000200330220021184608F0E0FB07F10C0391
:1011900000221A605A609A60DA601A610023BB600C
:1011A000274B1B6C264A43F080531364244B1B6C63
:1011B00003F08053BB60BB6800237B60214B1B683E
:1011C000204A43F4404313601E4B1B6803F4404322
:1011D0007B607B6801233B624FF480337B62022398
:1011E000BB634FF48003FB630C233B6460237B648D
:1011F0000223BB640423FB6407F12003184602F0BA
:10120000E7FC0346002B01D000F0C6FA0F23FB6079
:1012100002233B6180237B614FF48053BB61002339
:10122000FB6107F10C030121184602F049FF034658
:10123000002B01D000F0B0FA00BF5037BD4680BD92
:10124000003802400070004080B584B000AF3B46DB
:1012500000221A605A609A60DA60214B214A1A60B3
:101260001F4B4FF480325A601D4B00229A601C4B7A
:1012700000221A611A4B00221A76194B002283F8B9
:101280002020174B0022DA62154B174A9A62144B42
:101290000022DA60124B0122DA61114B002283F83E
:1012A00030200F4B01225A610D4801F0A9F8034686
:1012B000002B01D000F070FA01233B6001237B601A
:1012C0000023BB603B461946054801F009FB034675
:1012D000002B01D000F060FA00BF1037BD4680BD82
:1012E000A4040020002001400100000F80B500AFE1
:1012F000124B134A1A60114B124A5A600F4B0022CC
:101300009A600E4B0022DA600C4B4FF480421A6157
:101310000A4B00225A61094B00229A61074B0022B6
:10132000DA61064B00221A62044802F00DFB034604
:10133000002B01D000F030FA00BF80BDEC0400208B
:1013400000580040A086010080B500AF124B134A40
:101350001A60114B124A5A600F4B00229A600E4BD2
:101360000022DA600C4B4FF480421A610A4B0022D3
:101370005A61094B00229A61074B0022DA61064B41
:1013800000221A62044802F0DFFA0346002B01D063
:1013900000F002FA00BF80BD40050020005C004064
:1013A000A086010080B500AF174B184A1A60164B93
:1013B0004FF482725A60144B00229A60124B002242
:1013C000DA60114B00221A610F4B00225A610E4B5A
:1013D0004FF480229A610C4B0022DA610A4B002202
:1013E0001A62094B00225A62074B00229A62064B8E
:1013F0000A22DA62044803F075F80346002B01D094
:1014000000F0CAF900BF80BD140700200030014081
:1014100080B500AF174B184A1A60164B4FF4827212
:101420005A60144B00229A60124B0022DA60114B72
:1014300000221A610F4B00225A610E4B4FF40072CA
:101440009A610C4B0022DA610A4B00221A62094BA6
:1014500000225A62074B00229A62064B0A22DA6285
:10146000044803F03FF80346002B01D000F094F944
:1014700000BF80BD6C0700200038004080B500AF81
:10148000174B184A1A60164B4FF482725A60144B6D
:1014900000229A60124B0022DA60114B00221A617E
:1014A0000F4B00225A610E4B4FF400729A610C4BA5
:1014B0002022DA610A4B00221A62094B00225A628A
:1014C000074B00229A62064B0A22DA62044803F0B4
:1014D00009F80346002B01D000F05EF900BF80BD83
:1014E000C4070020003C004080B500AF114B124AF9
:1014F0001A60104B4FF4E1325A600E4B00229A6092
:101500000C4B0022DA600B4B00221A61094B0C22B3
:101510005A61084B00229A61064B0022DA610548A5
:1015200003F0F6FB0346002B01D000F035F900BFB5
:1015300080BD00BF1C0800200010014080B500AF36
:10154000114B124A1A60104B4FF4E1325A600E4BA5
:1015500000229A600C4B0022DA600B4B00221A61C9
:10156000094B0C225A61084B00229A61064B00225B
:10157000DA61054803F0CCFB0346002B01D000F0F4
:101580000BF900BF80BD00BF64080020004400408C
:1015900080B582B000AF00237B60204B1B6B1F4ADD
:1015A00043F4001313631D4B1B6B03F400137B60A8
:1015B0007B68002205210C2001F082FC0C2001F048
:1015C0009BFC002205210D2001F07AFC0D2001F08A
:1015D00093FC002205210F2001F072FC0F2001F086
:1015E0008BFC00220521102001F06AFC102001F084
:1015F00083FC00220521112001F062FC112001F082
:101600007BFC002205212F2001F05AFC2F2001F045
:1016100073FC00BF0837BD4680BD00BF00380240E4
:1016200080B58AB000AF07F1140300221A605A6037
:101630009A60DA601A6100233B61444B1B6B434A9A
:1016400043F004031363414B1B6B03F004033B6142
:101650003B690023FB603D4B1B6B3C4A43F080031E
:1016600013633A4B1B6B03F08003FB60FB680023A2
:10167000BB60364B1B6B354A43F001031363334B9E
:101680001B6B03F00103BB60BB6800237B602F4B27
:101690001B6B2E4A43F0020313632C4B1B6B03F0AE
:1016A00002037B607B6800220721294802F032F99F
:1016B00000224FF40441274802F02CF94FF4005364
:1016C0007B610023BB610023FB6107F11403194612
:1016D000214801F09BFF4FF440437B610023BB6135
:1016E0000123FB6107F1140319461B4801F08EFF2B
:1016F00001237B610023BB610123FB6107F114031C
:101700001946144801F082FF07237B610123BB6166
:101710000023FB6100233B6207F1140319460C48C8
:1017200001F074FF4FF404437B610123BB6100238C
:10173000FB6100233B6207F114031946054801F0E1
:1017400065FF00BF2837BD4680BD00BF003802409E
:1017500000040240000002400008024080B582B050
:1017600000AF78607868FFF763FC00BF0837BD46BC
:1017700080BD000080B582B000AF78607B681B68D8
:10178000044A934201D100F01BFE00BF0837BD465A
:1017900080BD00BF0008004080B400AF72B600BF3B
:1017A00000BFFDE70FB480B582B000AF07F11403AE
:1017B0003B603B683A694FF480710C4808F0B8F818
:1017C00078607B68B3F5807F02DD4FF480737B60C7
:1017D0007B689AB264230549054803F0E9FA00BF23
:1017E0000837BD46BDE8804004B07047700900204E
:1017F0001C08002080B582B000AF00237B60124B34
:101800005B6C114A43F4804353640F4B5B6C03F4ED
:1018100080437B607B6800233B600B4B1B6C0A4A58
:1018200043F080531364084B1B6C03F080533B6000
:101830003B6800220F216FF0010001F041FB00BF67
:101840000837BD4680BD00BF0038024080B58AB071
:1018500000AF786007F1140300221A605A609A60A2
:10186000DA601A617B681B681B4A93422FD1002300
:101870003B611A4B5B6C194A43F480735364174BFA
:101880005B6C03F480733B613B690023FB60134B8B
:101890001B6B124A43F001031363104B1B6B03F0E5
:1018A0000103FB60FB6802237B610323BB61002310
:1018B000FB6107F114031946094801F0A7FE002255
:1018C0000521122001F0FCFA122001F015FB00BFE7
:1018D0002837BD4680BD00BF0020014000380240CF
:1018E0000000024080B58CB000AF786007F11C03A7
:1018F00000221A605A609A60DA601A617B681B687D
:101900004F4A934240F0AA800023BB614D4B1B6BB2
:101910004C4A43F0020313634A4B1B6B03F0020370
:10192000BB61BB694FF48063FB6112233B62002300
:101930007B620323BB620423FB6207F11C0319468D
:10194000414801F063FE4FF40073FB6112233B62D8
:1019500000237B620323BB620923FB6207F11C03A4
:101960001946394801F052FE00237B61354B1B6C50
:10197000344A43F480031364324B1B6C03F480033A
:101980007B617B69314B324A1A60304B4FF06062A9
:101990005A602E4B00229A602C4B0022DA602B4BAF
:1019A0004FF480621A61294B00225A61274B0022B2
:1019B0009A61264B0022DA61244B00221A62234BE3
:1019C00000225A62214801F0A5FA0346002B01D0FB
:1019D000FFF7E2FE7B681D4A9A631C4A7B689363AB
:1019E0001C4B1D4A1A601B4B4FF060625A60194B2A
:1019F00040229A60174B0022DA60164B4FF4806247
:101A00001A61144B00225A61124B00229A61114B49
:101A10000022DA610F4B00221A620E4B00225A623A
:101A20000C4801F077FA0346002B01D0FFF7B4FE13
:101A30007B68084A5A63074A7B689363BCE000BF2F
:101A40000058004000380240000402409405002085
:101A500040600240F4050020B86002407B681B68CB
:101A6000574A934240F0A88000233B61554B1B6BC3
:101A7000544A43F001031363524B1B6B03F0010301
:101A80003B613B690023FB604E4B1B6B4D4A43F0AF
:101A9000020313634B4B1B6B03F00203FB60FB68F9
:101AA0004FF48073FB6112233B6200237B620323AC
:101AB000BB620423FB6207F11C031946424801F094
:101AC000A5FD4FF48073FB6112233B6200237B6210
:101AD0000323BB620923FB6207F11C0319463B4841
:101AE00001F094FD0023BB60364B1B6C354A43F478
:101AF00000031364334B1B6C03F40003BB60BB682F
:101B0000334B344A1A60324B4FF000725A60304BFC
:101B100000229A602E4B0022DA602D4B4FF4806237
:101B20001A612B4B00225A61294B00229A61284BE3
:101B30000022DA61264B00221A62254B00225A62EB
:101B4000234801F0E7F90346002B01D0FFF724FEFC
:101B50007B681F4A9A631E4A7B6893631E4B1F4A29
:101B60001A601D4B4FF0C0625A601B4B40229A60B6
:101B7000194B0022DA60184B4FF480621A61164B41
:101B800000225A61144B00229A61134B0022DA6141
:101B9000114B00221A62104B00225A620E4801F0CB
:101BA000B9F90346002B01D0FFF7F6FD7B680A4A1E
:101BB0005A63094A7B68936300BF3037BD4680BDD6
:101BC000005C004000380240000002400004024077
:101BD0005406002028600240B406002070600240D5
:101BE00080B58EB000AF786007F1240300221A6040
:101BF0005A609A60DA601A617B681B684F4A9342A8
:101C000034D100233B624E4B5B6C4D4A43F480530E
:101C100053644B4B5B6C03F480533B623B6A002381
:101C2000FB61474B1B6B464A43F001031363444B74
:101C30001B6B03F00103FB61FB69F0237B62022352
:101C4000BB620023FB6203233B6305237B6307F135
:101C5000240319463B4801F0D9FC0022052123202A
:101C600001F02EF9232001F047F963E07B681B683F
:101C7000354A93422DD10023BB61314B1B6C304A56
:101C800043F4804313642E4B1B6C03F48043BB610D
:101C9000BB6900237B612A4B1B6B294A43F002037B
:101CA0001363274B1B6B03F002037B617B694FF4CB
:101CB00060437B620223BB620023FB6203233B631E
:101CC00005237B6307F124031946204801F09EFC9D
:101CD00030E07B681B681E4A93422BD100233B6196
:101CE000174B1B6C164A43F400431364144B1B6CD4
:101CF00003F400433B613B690023FB60104B1B6B0B
:101D00000F4A43F0020313630D4B1B6B03F00203F6
:101D1000FB60FB6838237B620223BB620023FB620B
:101D200003233B6306237B6307F12403194607481B
:101D300001F06CFC00BF3837BD4680BD003001406B
:101D40000038024000000240003800400004024019
:101D5000003C004080B58CB000AF786007F11C03F8
:101D600000221A605A609A60DA601A617B681B6808
:101D7000644A934234D10023BB61634B5B6C624A7B
:101D800043F010035364604B5B6C03F01003BB61C2
:101D9000BB6900237B615C4B1B6B5B4A43F0020316
:101DA0001363594B1B6B03F002037B617B69C023F8
:101DB000FB6102233B6200237B620323BB62072398
:101DC000FB6207F11C031946504801F01FFC00227A
:101DD0000521252001F074F8252001F08DF88DE013
:101DE0007B681B684A4A934240F0888000233B612D
:101DF000454B1B6C444A43F400331364424B1B6C49
:101E000003F400333B613B690023FB603E4B1B6BDB
:101E10003D4A43F0010313633B4B1B6B03F001038B
:101E2000FB60FB680C23FB6102233B6200237B62A7
:101E30000323BB620723FB6207F11C0319463548E5
:101E400001F0E4FB344B354A1A60334B4FF000622B
:101E50005A60314B40229A602F4B0022DA602E4BA1
:101E60004FF480621A612C4B00225A612A4B0022E7
:101E70009A61294B0022DA61274B00221A62264B15
:101E800000225A62244801F045F80346002B01D095
:101E9000FFF782FC7B68204A9A631F4A7B68936342
:101EA0001F4B204A1A601E4B4FF000625A601C4BB9
:101EB00000229A601A4B0022DA60194B4FF48062BC
:101EC0001A61174B00225A61154B00229A61144B7C
:101ED0000022DA61124B00221A62114B00225A6270
:101EE0000F4801F017F80346002B01D0FFF754FC10
:101EF0007B680B4ADA630A4A7B68936300BF30371A
:101F0000BD4680BD00100140003802400004024080
:101F10000044004000000240AC080020A0600240E5
:101F20000C0900208860024080B58EB000AF786058
:101F30000023FB620023BB620023FB60334B1B6C5E
:101F4000324A43F004031364304B1B6C03F0040368
:101F5000FB60FB6807F1100207F1140311461846F5
:101F600002F08EFA3B6AFB62FB6A002B03D102F09F
:101F70005FFA786304E002F05BFA03465B007B6380
:101F80007B6B234AA2FB03239B0C013BBB62214BCF
:101F9000214A1A601F4B40F2E732DA601D4ABB6AE1
:101FA00053601C4B00221A611A4B00229A60194B95
:101FB00000229A61174802F03DFC034687F833304F
:101FC00097F83330002B1BD1124802F08DFC0346EA
:101FD00087F8333097F83330002B11D11E2000F0F2
:101FE0008BFF7B680F2B08D8002279681E2000F039
:101FF00067FF0A4A7B68136002E0012387F83330E9
:1020000097F8333018463837BD4680BD0038024057
:1020100083DE1B43700A00200008004004000020FB
:1020200080B400AF00BFFDE780B400AF00BFFDE7A4
:1020300080B400AF00BFFDE780B400AF00BFFDE794
:1020400080B400AF00BFFDE780B400AF00BFBD4665
:102050005DF8047B7047000080B500AF024801F0D6
:1020600099F800BF80BD00BF5406002080B500AFC6
:10207000024801F08FF800BF80BD00BF940500202A
:1020800080B500AF0348FFF78DFB034801F082F8ED
:1020900000BF80BD84C40008B406002080B500AF36
:1020A000024801F077F800BF80BD00BF0C09002096
:1020B00080B500AF024801F06DF800BF80BD00BFE1
:1020C000AC08002080B500AF024800F0D8FA00BF8D
:1020D00080BD00BFA404002080B500AF024802F01C
:1020E00065FC00BF80BD00BF700A002080B500AF56
:1020F000024802F081FA00BF80BD00BF1407002033
:1021000080B500AF024802F0DFFE00BF80BD00BF17
:102110001C08002080B500AF024801F03BF800BF6A
:1021200080BD00BFF405002080B483B000AF03463B
:10213000FB710F4B1B680E4A43F0807313600D4B0D
:102140001B680C4A43F00103136000BF4FF060436B
:102150001B6803F00103002BF8D04FF06042FB79BD
:10216000136000BF0C37BD465DF8047B704700BFAD
:10217000FCED00E0000E00E080B400AF0123184643
:10218000BD465DF8047B704780B582B000AF7860D3
:10219000396007F0ADFC034616221A604FF0FF339A
:1021A00018460837BD4680BD80B582B000AF786064
:1021B0004FF0FF317868FFF7E7FF00BFFDE780B51C
:1021C00086B000AFF860B9607A6000237B610AE0F6
:1021D000AFF300800146BB685A1CBA60CAB21A70DD
:1021E0007B6901337B617A697B689A42F0DB7B68AB
:1021F00018461837BD4680BD80B586B000AFF86080
:10220000B9607A6000237B6109E0BB685A1CBA6040
:102210001B781846FFF788FF7B6901337B617A6979
:102220007B689A42F1DB7B6818461837BD4680BD53
:1022300080B483B000AF78604FF0FF3318460C379E
:10224000BD465DF8047B704780B483B000AF786012
:1022500039603B684FF400525A60002318460C372F
:10226000BD465DF8047B704780B483B000AF7860F2
:10227000012318460C37BD465DF8047B704780B4D7
:1022800085B000AFF860B9607A6000231846143753
:10229000BD465DF8047B704780B586B000AF7860BE
:1022A000144A154BD31A7B617B693B61134B1B6846
:1022B000002B02D1114B124A1A60104B1A687B682E
:1022C00013443A699A4207D207F012FC03460C22E3
:1022D0001A604FF0FF3309E0084B1B68FB60074BA7
:1022E0001A687B681344054A1360FB681846183760
:1022F000BD4680BD0000022000040000B80A002096
:102300006049002080B400AF064BD3F88830054AFE
:1023100043F47003C2F8883000BFBD465DF8047B0B
:10232000704700BF00ED00E0DFF834D0FFF7EAFFB0
:102330000C480D490D4A002302E0D458C450043320
:10234000C4188C42F9D30A4A0A4C002301E01360F6
:102350000432A242FBD307F0D1FBFEF7DDFE70474B
:102360000000022000000020D801002000C9000861
:10237000D801002060490020FEE7000080B500AFD2
:102380000E4B1B680D4A43F4007313600B4B1B6824
:102390000A4A43F480631360084B1B68074A43F4FE
:1023A00080731360032000F080FD0F20FFF7BCFD59
:1023B000FFF720FA0023184680BD00BF003C024012
:1023C00080B400AF064B1B781A46064B1B681344BB
:1023D000044A136000BFBD465DF8047B704700BF30
:1023E00008000020BC0A002080B400AF034B1B682B
:1023F0001846BD465DF8047B704700BFBC0A00204C
:1024000080B584B000AF78600023FB737B68002B3D
:1024100001D1012333E07B681B6C002B09D1786864
:10242000FFF714FA7B6800225A647B68002283F865
:102430003C207B681B6C03F01003002B18D17B68D9
:102440001B6C23F4885323F0020343F002027B68E1
:102450001A64786800F076FB7B6800225A647B6817
:102460001B6C23F0030343F001027B681A6401E054
:102470000123FB737B68002283F83C20FB7B18461A
:102480001037BD4680BD000080B485B000AF7860D5
:102490000023BB607B6893F83C30012B01D1022301
:1024A000A1E07B68012283F83C207B681B689B6865
:1024B00003F00103012B18D07B681B689A687B68C6
:1024C0001B6842F001029A604A4B1B684A4AA2FB11
:1024D00003239A0C13465B001344BB6002E0BB6805
:1024E000013BBB60BB68002BF9D17B681B689B6814
:1024F00003F00103012B69D17B681B6C23F4E063BB
:1025000023F0010343F480727B681A647B681B68C4
:102510005B6803F48063002B07D07B681B6C23F49B
:10252000405343F480527B681A647B681B6C03F44D
:102530008053B3F5805F06D17B685B6C23F00602A5
:102540007B685A6402E07B6800225A647B68002240
:1025500083F83C20294BFB607B681B686FF02202EC
:102560001A607B681B685B687A68126843F0806356
:1025700043F020035360FB685B6803F01F03002BEC
:102580000FD17B681B689B6803F04053002B29D157
:102590007B681B689A687B681B6842F080429A607F
:1025A00020E07B681B68164A93421BD17B681B683E
:1025B0009B6803F04053002B14D17B681B689A681A
:1025C0007B681B6842F080429A600BE07B681B6C62
:1025D00043F010027B681A647B685B6C43F0010275
:1025E0007B685A64002318461437BD465DF8047BA7
:1025F000704700BF0000002083DE1B430023014022
:102600000020014080B483B000AF78607B6893F80D
:102610003C30012B01D102232BE07B68012283F89F
:102620003C207B681B689A687B681B6822F001026B
:102630009A607B681B689B6803F00103002B13D131
:102640007B681B685B687A68126823F0806323F0FC
:10265000200353607B681B6C23F4885323F0010331
:1026600043F001027B681A647B68002283F83C20F7
:10267000002318460C37BD465DF8047B704780B5D3
:1026800086B000AF786000237B6100233B617B68EC
:102690001B681B68FB607B681B685B68BB60FB6832
:1026A00003F002037B61BB6803F020033B617B699D
:1026B000002B49D03B69002B46D07B681B6C03F094
:1026C0001003002B05D17B681B6C43F400727B6800
:1026D0001A647B681B689B6803F04053002B2BD166
:1026E0007B681B7E002B27D17B681B68DB6A03F4A9
:1026F0007003002B06D07B681B689B6803F4806323
:10270000002B19D17B681B685A687B681B6822F014
:1027100020025A607B681B6C23F480727B681A6409
:102720007B681B6C03F48053002B05D17B681B6C0A
:1027300043F001027B681A647868FFF70FF87B6842
:102740001B686FF012021A60FB6803F004037B61E0
:10275000BB6803F080033B617B69002B57D03B696A
:10276000002B54D07B681B6C03F01003002B05D1A9
:102770007B681B6C43F400527B681A647B681B689F
:102780009B6803F44013002B39D17B681B689B6B5B
:1027900003F44013002B06D07B681B689B6803F48E
:1027A0008063002B2BD17B681B685B6803F480631C
:1027B000002B24D17B681B689B6803F04053002BDF
:1027C0001DD17B681B7E002B19D17B681B685A6862
:1027D0007B681B6822F080025A607B681B6C23F4C4
:1027E00080527B681A647B681B6C03F48073002B37
:1027F00005D17B681B6C43F001027B681A64786822
:1028000000F09CFA7B681B686FF00C021A60FB6892
:1028100003F001037B61BB6803F040033B617B690C
:10282000002B17D03B69002B14D07B681B681B68FA
:1028300003F00103012B0DD17B681B6C43F4803244
:102840007B681A64786800F037F87B681B686FF063
:1028500001021A60FB6803F020037B61BB6803F090
:1028600080633B617B69002B15D03B69002B12D044
:102870007B685B6C43F002027B685A647B681B6870
:102880006FF020021A60786800F020F87B681B68FF
:102890006FF020021A6000BF1837BD4680BD80B4BB
:1028A00083B000AF78607B681B68DB6C18460C3720
:1028B000BD465DF8047B704780B483B000AF78609C
:1028C00000BF0C37BD465DF8047B704780B483B011
:1028D00000AF786000BF0C37BD465DF8047B7047E1
:1028E00080B485B000AF786039600023BB607B683E
:1028F00093F83C30012B01D1022313E17B680122C4
:1029000083F83C203B681B68092B25D97B681B6832
:10291000D9683B681B689BB21A4613465B00134498
:102920001E3B072202FA03F3DA437B681B680A4066
:10293000DA607B681B68D9683B689A683B681B68EB
:102940009BB2184603465B0003441E3B9A407B68DB
:102950001B680A43DA6022E07B681B6819693B68E0
:102960001B689BB21A4613465B001344072202FA07
:1029700003F3DA437B681B680A401A617B681B68B3
:1029800019693B689A683B681B689BB21846034606
:102990005B0003449A407B681B680A431A613B68EA
:1029A0005B68062B24D87B681B68596B3B685A68A8
:1029B00013469B001344053B1F2202FA03F3DA433C
:1029C0007B681B680A405A637B681B68596B3B68CD
:1029D0001B689BB218463B685A6813469B00134419
:1029E000053B00FA03F27B681B680A435A634CE01C
:1029F0003B685B680C2B24D87B681B68196B3B68B1
:102A00005A6813469B001344233B1F2202FA03F328
:102A1000DA437B681B680A401A637B681B68196B82
:102A20003B681B689BB218463B685A6813469B007C
:102A30001344233B00FA03F27B681B680A431A63C2
:102A400023E07B681B68D96A3B685A6813469B0081
:102A50001344413B1F2202FA03F3DA437B681B68ED
:102A60000A40DA627B681B68D96A3B681B689BB2C4
:102A700018463B685A6813469B001344413B00FAD2
:102A800003F27B681B680A43DA62294BFB607B68B0
:102A90001B68284A93420FD13B681B68122B0BD14D
:102AA000FB685B6823F40002FB685A60FB685B68A4
:102AB00043F48002FB685A607B681B681D4A93429E
:102AC0002BD13B681B681C4A934203D03B681B68B0
:102AD000112B22D1FB685B6823F48002FB685A60EB
:102AE000FB685B6843F40002FB685A603B681B6844
:102AF000114A934211D1114B1B68114AA2FB0323C7
:102B00009A0C13469B0013445B00BB6002E0BB6859
:102B1000013BBB60BB68002BF9D17B68002283F8C6
:102B20003C20002318461437BD465DF8047B7047EF
:102B3000002301400020014012000010000000208E
:102B400083DE1B4380B485B000AF7860794BFB60B7
:102B5000FB685B6823F44032FB685A60FB685A6884
:102B60007B685B681A43FB685A607B681B685A681D
:102B70007B681B6822F480725A607B681B68596806
:102B80007B681B691A027B681B680A435A607B6872
:102B90001B685A687B681B6822F040725A607B6829
:102BA0001B6859687B689A687B681B680A435A608F
:102BB0007B681B689A687B681B6822F400629A60D5
:102BC0007B681B6899687B68DA687B681B680A43C6
:102BD0009A607B689B6A584A934222D07B681B6844
:102BE0009A687B681B6822F070629A607B681B6839
:102BF00099687B689A6A7B681B680A439A607B685D
:102C00001B689A687B681B6822F040529A607B6858
:102C10001B6899687B68DA6A7B681B680A439A605C
:102C20000FE07B681B689A687B681B6822F0706203
:102C30009A607B681B689A687B681B6822F0405228
:102C40009A607B681B689A687B681B6822F00202A6
:102C50009A607B681B6899687B681B7E5A007B685A
:102C60001B680A439A607B6893F82030002B1BD0C6
:102C70007B681B685A687B681B6842F400625A6074
:102C80007B681B685A687B681B6822F460425A6044
:102C90007B681B6859687B685B6A013B5A037B68E9
:102CA0001B680A435A6007E07B681B685A687B68A8
:102CB0001B6822F400625A607B681B68DA6A7B68D2
:102CC0001B6822F47002DA627B681B68D96A7B6831
:102CD000DB69013B1A057B681B680A43DA627B6883
:102CE0001B689A687B681B6822F400729A607B6894
:102CF0001B6899687B6893F830305A027B681B68C0
:102D00000A439A607B681B689A687B681B6822F498
:102D100080629A607B681B6899687B685B699A022D
:102D20007B681B680A439A6000BF1437BD465DF894
:102D3000047B7047002301400100000F80B483B082
:102D400000AF786000BF0C37BD465DF8047B70476C
:102D500080B485B000AF78607B6803F00703FB6048
:102D60000C4BDB68BB60BA684FF6FF031340BB60D7
:102D7000FB681A02BB68134343F0BF6343F400339C
:102D8000BB60044ABB68D36000BF1437BD465DF822
:102D9000047B704700ED00E080B400AF044BDB68BB
:102DA0001B0A03F007031846BD465DF8047B704715
:102DB00000ED00E080B483B000AF0346FB7197F9EB
:102DC0000730002B0BDBFB7903F01F02074997F953
:102DD00007305B09012000FA02F241F8232000BF0E
:102DE0000C37BD465DF8047B704700BF00E100E092
:102DF00080B483B000AF03463960FB7197F90730A8
:102E0000002B0ADB3B68DAB20C4997F90730120154
:102E1000D2B20B4483F800230AE03B68DAB20849D7
:102E2000FB7903F00F03043B1201D2B20B441A7674
:102E300000BF0C37BD465DF8047B704700E100E041
:102E400000ED00E080B489B000AFF860B9607A604E
:102E5000FB6803F00703FB61FB69C3F10703042B65
:102E600028BF0423BB61FB690433062B02D9FB692D
:102E7000033B00E000237B614FF0FF32BB6902FAA5
:102E800003F3DA43BB681A407B699A404FF0FF3185
:102E90007B6901FA03F3D9437B680B40134318465F
:102EA0002437BD465DF8047B704780B582B000AF23
:102EB00078607868FFF74CFF00BF0837BD4680BDDB
:102EC00080B586B000AF0346B9607A60FB7300231B
:102ED0007B61FFF761FF78617A68B9687869FFF70D
:102EE000B1FF024697F90F3011461846FFF780FFF1
:102EF00000BF1837BD4680BD80B582B000AF034625
:102F0000FB7197F907301846FFF754FF00BF0837E9
:102F1000BD4680BD80B586B000AF786000237B6180
:102F2000FFF762FA38617B68002B01D1012399E039
:102F30007B68022283F835207B68002283F83420E6
:102F40007B681B681A687B681B6822F001021A60A4
:102F50000FE0FFF749FA02463B69D31A052B08D95F
:102F60007B6820225A657B68032283F8352003237F
:102F700078E07B681B681B6803F00103002BE8D135
:102F80007B681B681B687B617A69384B13407B61E7
:102F90007B685A687B689B681A437B68DB681A43C6
:102FA0007B681B691A437B685B691A437B689B6972
:102FB0001A437B68DB691A437B681B6A13437A698F
:102FC00013437B617B685B6A042B07D17B68DA6AF9
:102FD0007B681B6B13437A6913437B617B681B68B7
:102FE0007A691A607B681B685B697B617B6923F087
:102FF00007037B617B685B6A7A6913437B617B684B
:103000005B6A042B17D17B689B6A7A6913437B61E7
:103010007B68DB6A002B0ED0786800F07BFA0346F1
:10302000002B08D07B6840225A657B68012283F818
:103030003520012316E07B681B687A695A6178683D
:1030400000F032FA0346FB607B68DB6D3F229A405A
:10305000FB689A607B6800225A657B68012283F8CE
:103060003520002318461837BD4680BD3F8010F03C
:1030700080B584B000AF78607B689B6DFB60FFF724
:10308000B3F9B8607B6893F83530DBB2022B08D017
:103090007B6880225A657B68002283F834200123F4
:1030A00052E07B681B681A687B681B6822F0160276
:1030B0001A607B681B685A697B681B6822F0800273
:1030C0005A617B681B6C002B03D17B689B6C002BC7
:1030D00007D07B681B681A687B681B6822F00802AF
:1030E0001A607B681B681A687B681B6822F0010203
:1030F0001A6013E0FFF778F90246BB68D31A052B74
:103100000CD97B6820225A657B68032283F835201E
:103110007B68002283F83420032315E07B681B685A
:103120001B6803F00103002BE4D17B68DB6D3F22B9
:103130009A40FB689A607B68012283F835207B689F
:10314000002283F83420002318461037BD4680BD86
:1031500080B483B000AF78607B6893F83530DBB221
:10316000022B04D07B6880225A6501230CE07B6827
:10317000052283F835207B681B681A687B681B680A
:1031800022F001021A60002318460C37BD465DF894
:10319000047B704780B586B000AF78600023BB60C9
:1031A0008E4B1B688E4AA2FB03239B0A7B617B68C4
:1031B0009B6D3B613B691B68FB607B68DB6D082294
:1031C0009A40FB681340002B1AD07B681B681B6871
:1031D00003F00403002B13D07B681B681A687B681C
:1031E0001B6822F004021A607B68DB6D08229A409B
:1031F0003B699A607B685B6D43F001027B685A65AE
:103200007B68DB6D01229A40FB681340002B12D0D3
:103210007B681B685B6903F08003002B0BD07B6825
:10322000DB6D01229A403B699A607B685B6D43F0DD
:1032300002027B685A657B68DB6D04229A40FB685A
:103240001340002B12D07B681B681B6803F002033D
:10325000002B0BD07B68DB6D04229A403B699A609F
:103260007B685B6D43F004027B685A657B68DB6DAD
:1032700010229A40FB681340002B43D07B681B68E8
:103280001B6803F00803002B3CD07B68DB6D102229
:103290009A403B699A607B681B681B6803F4802333
:1032A000002B18D07B681B681B6803F40023002BDD
:1032B00008D17B681B6C002B24D07B681B6C786862
:1032C00098471FE07B689B6C002B1BD07B689B6C36
:1032D0007868984716E07B681B681B6803F4807366
:1032E000002B07D17B681B681A687B681B6822F07B
:1032F00008021A607B681B6C002B03D07B681B6C78
:10330000786898477B68DB6D20229A40FB68134001
:10331000002B00F08F807B681B681B6803F0100394
:10332000002B00F087807B68DB6D20229A403B6990
:103330009A607B6893F83530DBB2052B36D17B6819
:103340001B681A687B681B6822F016021A607B688B
:103350001B685A697B681B6822F080025A617B688F
:103360001B6C002B03D17B689B6C002B07D07B6808
:103370001B681A687B681B6822F008021A607B6869
:10338000DB6D3F229A403B699A607B68012283F89B
:1033900035207B68002283F834207B681B6D002B6E
:1033A0007ED07B681B6D7868984779E07B681B68E6
:1033B0001B6803F48023002B1DD07B681B681B68EF
:1033C00003F40023002B0DD17B685B6C002B31D004
:1033D0007B685B6C786898472CE000BF0000002099
:1033E000B5814E1B7B68DB6B002B23D07B68DB6BCE
:1033F000786898471EE07B681B681B6803F480733D
:10340000002B0FD17B681B681A687B681B6822F051
:1034100010021A607B68012283F835207B68002245
:1034200083F834207B68DB6B002B03D07B68DB6B7D
:10343000786898477B685B6D002B32D07B685B6D4A
:1034400003F00103002B22D07B68052283F835208E
:103450007B681B681A687B681B6822F001021A608F
:10346000BB680133BB607A699A4207D37B681B68EB
:103470001B6803F00103002BF2D100E000BF7B6862
:10348000012283F835207B68002283F834207B6892
:10349000DB6C002B05D07B68DB6C7868984700E01C
:1034A00000BF1837BD4680BD80B485B000AF7860DE
:1034B0007B681B68DBB2103B144AA2FB03231B0989
:1034C000FB60134AFB6813441B781A467B68DA6575
:1034D000FB68032B09D97B681B6823F47F7323F0F7
:1034E00003031A1D7B689A6507E07B681B6823F459
:1034F0007F7323F003037A6893657B689B6D18469E
:103500001437BD465DF8047B704700BFABAAAAAA7A
:10351000C0C4000880B485B000AF78600023FB739E
:103520007B689B6ABB607B689B69002B1FD1BB6873
:10353000032B56D801A252F823F000BF4D350008E6
:103540005F3500084D350008E33500087B68DB6A0D
:1035500003F08073002B46D00123FB7343E07B68AC
:10356000DB6AB3F1C07F40D10123FB733DE07B6890
:103570009B69B3F5005F21D1BB68032B37D801A24B
:1035800052F823F0953500089B3500089535000862
:10359000AD3500080123FB7330E07B68DB6A03F084
:1035A0008073002B25D00123FB7322E07B68DB6A4C
:1035B000B3F1C07F1FD10123FB731CE0BB68022B5A
:1035C00003D9BB68032B03D018E00123FB7315E07C
:1035D0007B68DB6A03F08073002B0ED00123FB7342
:1035E0000BE000BF0AE000BF08E000BF06E000BF3C
:1035F00004E000BF02E000BF00E000BFFB7B184614
:103600001437BD465DF8047B704700BF80B489B0B5
:1036100000AF7860396000237B6100233B610023A9
:10362000BB610023FB6159E10122FB6902FA03F34C
:103630007B613B681B687A6913403B613A697B692F
:103640009A4240F048813B685B6803F00303012B1A
:1036500005D03B685B6803F00303022B30D17B6825
:103660009B68BB61FB695B00032202FA03F3DB4347
:10367000BA691340BB613B68DA68FB695B0002FA18
:1036800003F3BA691343BB617B68BA699A607B68CC
:103690005B68BB610122FB6902FA03F3DB43BA6991
:1036A0001340BB613B685B681B0903F00102FB69C7
:1036B00002FA03F3BA691343BB617B68BA695A60C3
:1036C0003B685B6803F00303032B17D07B68DB6860
:1036D000BB61FB695B00032202FA03F3DB43BA69B7
:1036E0001340BB613B689A68FB695B0002FA03F315
:1036F000BA691343BB617B68BA69DA603B685B688F
:1037000003F00303022B23D1FB69DA087B6808323C
:1037100053F82230BB61FB6903F007039B000F22C3
:1037200002FA03F3DB43BA691340BB613B681A69D1
:10373000FB6903F007039B0002FA03F3BA69134322
:10374000BB61FB69DA087B680832B96943F822106B
:103750007B681B68BB61FB695B00032202FA03F311
:10376000DB43BA691340BB613B685B6803F003024B
:10377000FB695B0002FA03F3BA691343BB617B6820
:10378000BA691A603B685B6803F44033002B00F0B1
:10379000A2800023FB60574B5B6C564A43F4804386
:1037A0005364544B5B6C03F48043FB60FB68524AE8
:1037B000FB699B08023352F82330BB61FB6903F0BD
:1037C00003039B000F2202FA03F3DB43BA691340A1
:1037D000BB617B68494A934219D07B68484A93424F
:1037E00013D07B68474A93420DD07B68464A934288
:1037F00007D07B68454A934201D1042308E00723A0
:1038000006E0032304E0022302E0012300E000239A
:10381000FA6902F0030292009340BA691343BB6154
:103820003549FB699B080233BA6941F82320384BBC
:103830009B68BB613B69DB43BA691340BB613B6872
:103840005B6803F48013002B03D0BA693B69134310
:10385000BB612F4ABB6993602D4BDB68BB613B6941
:10386000DB43BA691340BB613B685B6803F4001338
:10387000002B03D0BA693B691343BB61244ABB697F
:10388000D360234B5B68BB613B69DB43BA69134080
:10389000BB613B685B6803F40033002B03D0BA695B
:1038A0003B691343BB611A4ABB695360184B1B68E1
:1038B000BB613B69DB43BA691340BB613B685B6832
:1038C00003F48033002B03D0BA693B691343BB6117
:1038D0000F4ABB691360FB690133FB61FB690F2B66
:1038E0007FF6A2AE00BF00BF2437BD465DF8047B63
:1038F000704700BF0038024000380140000002401D
:103900000004024000080240000C02400010024087
:10391000003C014080B483B000AF78600B467B80F0
:1039200013467B707B78002B03D07A887B689A6182
:1039300003E07B881A047B689A6100BF0C37BD46A0
:103940005DF8047B7047000080B584B000AF7860FC
:103950007B68002B01D101232BE17B6893F83D307C
:10396000DBB2002B06D17B68002283F83C2078680C
:10397000FDF7B8FF7B68242283F83D207B681B6835
:103980001A687B681B6822F001021A607B681B685A
:103990001A687B681B6842F400421A607B681B68E7
:1039A0001A687B681B6822F400421A6000F040FD30
:1039B000F8607B685B68814A934207D8FB68804A5D
:1039C000934294BF01230023DBB206E0FB687D4AEB
:1039D000934294BF01230023DBB2002B01D00123CB
:1039E000E7E0FB68784AA2FB03239B0CBB607B6883
:1039F0001B685B6823F03F017B681B68BA680A4359
:103A00005A607B681B681B6A23F03F017B685B6818
:103A10006A4A934202D8BB68013309E0BB684FF49D
:103A2000967202FB03F3694AA2FB03239B0901334D
:103A30007A6812680B4313627B681B68DB6923F4A6
:103A40004F4222F0FF027B685B685C498B4219D8C9
:103A5000FB68591E7B685B685B00B1FBF3F3591C84
:103A600040F6FC730B40002B0AD0FB68591E7B68A4
:103A70005B685B00B1FBF3F30133C3F30B0351E06D
:103A800004234FE07B689B68002B11D1FB68581E14
:103A90007B6859680B465B000B44B0FBF3F30133C2
:103AA000C3F30B03002B0CBF01230023DBB212E096
:103AB000FB68581E7B6859680B469B000B449900B5
:103AC0000B44B0FBF3F30133C3F30B03002B0CBF28
:103AD00001230023DBB2002B01D0012322E07B680D
:103AE0009B68002B0ED1FB68581E7B6859680B46FB
:103AF0005B000B44B0FBF3F30133C3F30B0343F45C
:103B000000430FE0FB68581E7B6859680B469B001A
:103B10000B4499000B44B0FBF3F30133C3F30B03E5
:103B200043F44043796809681343CB617B681B68A1
:103B30001B6823F0C0017B68DA697B681B6A1A4343
:103B40007B681B680A431A607B681B689B6823F4C8
:103B5000034323F0FF037A6811697A68D26811433E
:103B60007A6812680B4393607B681B68DB6823F0FC
:103B7000FF017B685A697B689B691A437B681B68F5
:103B80000A43DA607B681B681A687B681B6842F02E
:103B900001021A607B6800221A647B68202283F885
:103BA0003D207B6800221A637B68002283F83E2058
:103BB000002318461037BD4680BD00BFA086010017
:103BC0007F841E00FF083D0083DE1B43D34D62103F
:103BD00080B586B000AF78607B68002B01D10123EF
:103BE00067E27B681B6803F00103002B75D0884BEC
:103BF0009B6803F00C03042B0CD0854B9B6803F0EF
:103C00000C03082B12D1824B5B6803F48003B3F5DD
:103C1000800F0BD17E4B1B6803F40033002B5BD06D
:103C20007B685B68002B57D1012342E27B685B68AD
:103C3000B3F5803F06D1764B1B68754A43F4803359
:103C400013601DE07B685B68B3F5A02F0CD1704B4F
:103C50001B686F4A43F4802313606D4B1B686C4AEA
:103C600043F4803313600BE0694B1B68684A23F40C
:103C700080331360664B1B68654A23F4802313600E
:103C80007B685B68002B13D0FEF7AEFB386108E061
:103C9000FEF7AAFB02463B69D31A642B01D9032322
:103CA00007E25B4B1B6803F40033002BF0D014E0F9
:103CB000FEF79AFB386108E0FEF796FB02463B6987
:103CC000D31A642B01D90323F3E1514B1B6803F48E
:103CD0000033002BF0D100E000BF7B681B6803F0CD
:103CE0000203002B63D04A4B9B6803F00C03002BAC
:103CF0000BD0474B9B6803F00C03082B1CD1444BA3
:103D00005B6803F48003002B16D1414B1B6803F062
:103D10000203002B05D07B68DB68012B01D0012357
:103D2000C7E13B4B1B6823F0F8027B681B69DB0093
:103D3000374913430B603AE07B68DB68002B20D0E7
:103D4000344B01221A60FEF74FFB386108E0FEF7A2
:103D50004BFB02463B69D31A022B01D90323A8E18E
:103D60002B4B1B6803F00203002BF0D0284B1B6881
:103D700023F0F8027B681B69DB00254913430B60C5
:103D800015E0244B00221A60FEF72EFB386108E094
:103D9000FEF72AFB02463B69D31A022B01D9032303
:103DA00087E11B4B1B6803F00203002BF0D17B68FB
:103DB0001B6803F00803002B36D07B685B69002B7F
:103DC00016D0154B01221A60FEF70EFB386108E091
:103DD000FEF70AFB02463B69D31A022B01D90323E3
:103DE00067E10B4B5B6F03F00203002BF0D01BE08D
:103DF000094B00221A60FEF7F7FA38610EE0FEF771
:103E0000F3FA02463B69D31A022B07D9032350E188
:103E10000038024000004742800E4742884B5B6FEB
:103E200003F00203002BEAD17B681B6803F0040354
:103E3000002B00F097800023FB75814B1B6C03F077
:103E40008053002B0FD10023BB607D4B1B6C7C4A41
:103E500043F0805313647A4B1B6C03F08053BB60B8
:103E6000BB680123FB75774B1B6803F48073002B41
:103E700018D1744B1B68734A43F480731360FEF7C8
:103E8000B3FA386108E0FEF7AFFA02463B69D31A8D
:103E9000022B01D903230CE16A4B1B6803F48073E6
:103EA000002BF0D07B689B68012B06D1644B1B6F05
:103EB000634A43F0010313671CE07B689B68052B92
:103EC0000CD15F4B1B6F5E4A43F0040313675C4BDE
:103ED0001B6F5B4A43F0010313670BE0584B1B6FEA
:103EE000574A23F001031367554B1B6F544A23F0C5
:103EF000040313677B689B68002B15D0FEF774FAE8
:103F000038610AE0FEF770FA02463B69D31A41F2C3
:103F10008832934201D90323CBE0494B1B6F03F056
:103F20000203002BEED014E0FEF75EFA38610AE0DF
:103F3000FEF75AFA02463B69D31A41F2883293429D
:103F400001D90323B5E03E4B1B6F03F00203002BA6
:103F5000EED1FB7D012B05D1394B1B6C384A23F088
:103F6000805313647B689B69002B00F0A180344B65
:103F70009B6803F00C03082B5CD07B689B69022BC9
:103F800041D1314B00221A60FEF72EFA386108E069
:103F9000FEF72AFA02463B69D31A022B01D9032302
:103FA00087E0274B1B6803F00073002BF0D17B6880
:103FB000DA697B681B6A1A437B685B6A9B011A4358
:103FC0007B689B6A5B08013B1B041A437B68DB6AC6
:103FD0001B061B4913434B601B4B01221A60FEF763
:103FE00003FA386108E0FEF7FFF902463B69D31A8D
:103FF000022B01D903235CE0114B1B6803F0007313
:10400000002BF0D054E0104B00221A60FEF7ECF9C0
:10401000386108E0FEF7E8F902463B69D31A022B43
:1040200001D9032345E0064B1B6803F00073002B06
:10403000F0D13DE07B689B69012B07D1012338E07B
:104040000038024000700040600047421B4B5B6834
:10405000FB607B689B69012B28D0FB6803F480021E
:104060007B68DB699A4221D1FB6803F03F027B68E1
:104070001B6A9A421AD1FA6847F6C07313407A68ED
:10408000526A9201934211D1FB6803F440327B687B
:104090009B6A5B08013B1B049A4207D1FB6803F053
:1040A00070627B68DB6A1B069A4201D0012300E044
:1040B000002318461837BD4680BD00BF00380240B7
:1040C00080B584B000AF786039607B68002B01D187
:1040D0000123CCE0684B1B6803F007033A689A425F
:1040E0000CD9654B3A68D2B21A70634B1B6803F067
:1040F00007033A689A4201D00123B8E07B681B6845
:1041000003F00203002B20D07B681B6803F004033C
:10411000002B05D0594B9B68584A43F4E0539360F9
:104120007B681B6803F00803002B05D0534B9B688A
:10413000524A43F460439360504B9B6823F0F00273
:104140007B689B684D4913438B607B681B6803F059
:104150000103002B44D07B685B68012B07D1474BE0
:104160001B6803F40033002B19D101237FE07B6827
:104170005B68022B03D07B685B68032B07D13F4B46
:104180001B6803F00073002B09D101236FE03B4B48
:104190001B6803F00203002B01D1012367E0374BBA
:1041A0009B6823F003027B685B68344913438B6090
:1041B000FEF71AF9F8600AE0FEF716F90246FB6806
:1041C000D31A41F28832934201D903234FE02B4B9B
:1041D0009B6803F00C027B685B689B009A42EBD102
:1041E000254B1B6803F007033A689A420CD2224B16
:1041F0003A68D2B21A70204B1B6803F007033A6882
:104200009A4201D0012332E07B681B6803F004036B
:10421000002B08D0194B9B6823F4E0527B68DB68C5
:10422000164913438B607B681B6803F00803002B5F
:1042300009D0124B9B6823F460427B681B69DB004A
:104240000E4913438B6000F021F802460B4B9B682C
:104250001B0903F00F030A49CB5C22FA03F3094A56
:104260001360094B1B681846FDF75EFE00231846D5
:104270001037BD4680BD00BF003C02400038024000
:10428000A8C4000800000020040000202DE9B04F61
:1042900090B000AF00237B630023FB6300233B63EC
:1042A0000023BB63594B9B6803F00C03082B0DD014
:1042B000082B00F2A180002B02D0042B03D09BE03E
:1042C000534BBB639BE0534BBB6398E04F4B5B6826
:1042D00003F03F037B634D4B5B6803F48003002BCB
:1042E00028D04A4B5B689B0900223B627A623B6A9A
:1042F000C3F308000021474B03FB01F2002300FB3E
:1043000003F31344434AA0FB0212FA620A46BA625C
:10431000FA6A1344FB627B6B0022BB61FA61D7E946
:104320000623D7E90A01FCF7B7FC02460B46134601
:10433000FB6353E0354B5B689B0900223B617A616C
:104340003B69C3F3080A4FF0000B52465B464FF03F
:1043500000004FF00001590141EAD26150010246CC
:104360000B46B2EB0A0863EB0B094FF000024FF06B
:1043700000034FEA891343EA98634FEA8812B2EBCD
:10438000080463EB09054FF000024FF00003EB0057
:1043900043EA5473E20014461D4614EB0A033B60E3
:1043A00045EB0B037B604FF000024FF00003D7E9B1
:1043B000004529468B02214643EA915321468A0251
:1043C000104619467B6B0022BB60FA60D7E90223D6
:1043D000FCF762FC02460B461346FB630B4B5B6823
:1043E0001B0C03F0030301335B003B63FA6B3B6B75
:1043F000B2FBF3F3BB6302E0054BBB6300BFBB6BD7
:1044000018464037BD46BDE8B08F00BF00380240B7
:104410000024F40040787D0180B400AF034B1B689A
:104420001846BD465DF8047B704700BF00000020C1
:1044300080B500AFFFF7F0FF0246054B9B689B0A73
:1044400003F007030349CB5C22FA03F3184680BD4F
:1044500000380240B8C4000880B500AFFFF7DCFFA9
:104460000246054B9B685B0B03F007030349CB5CDB
:1044700022FA03F3184680BD00380240B8C4000891
:1044800080B483B000AF786039607B680F221A6017
:10449000124B9B6803F003027B685A600F4B9B68CA
:1044A00003F0F0027B689A600C4B9B6803F4E052C7
:1044B0007B68DA60094B9B68DB0803F4E0527B6899
:1044C0001A61074B1B6803F007023B681A6000BFC4
:1044D0000C37BD465DF8047B704700BF00380240D2
:1044E000003C024080B582B000AF78607B68002B52
:1044F00001D101237BE07B685B6A002B08D17B68DC
:104500005B68B3F5827F09D07B680022DA6105E041
:104510007B6800221A617B6800225A617B68002256
:104520009A627B6893F85130DBB2002B06D17B682E
:10453000002283F850207868FDF752FB7B68022246
:1045400083F851207B681B681A687B681B6822F01F
:1045500040021A607B685B6803F482727B689B6828
:1045600003F404431A437B68DB6803F400631A43D3
:104570007B681B6903F002031A437B685B6903F0E5
:1045800001031A437B689B6903F400731A437B6839
:10459000DB6903F038031A437B681B6A03F080036E
:1045A00042EA03017B689B6A03F400527B681B6844
:1045B0000A431A607B689B691B0C03F004017B684B
:1045C0005B6A03F010027B681B680A435A607B68D1
:1045D0001B68DA697B681B6822F40062DA617B6819
:1045E00000225A657B68012283F851200023184677
:1045F0000837BD4680BD000080B588B000AF786048
:104600007B681B685B68FB617B681B689B68BB61A0
:10461000BB699B0903F00103002B0FD1BB6903F0B9
:104620000103002B0AD0FB699B0903F00103002B57
:1046300004D07B681B6C78689847D7E0BB695B083F
:1046400003F00103002B0AD0FB69DB0903F001032F
:10465000002B04D07B685B6C78689847C6E0BB6928
:104660005B0903F00103002B0CD1BB699B0903F02C
:104670000103002B06D1BB691B0A03F00103002BC9
:1046800000F0B480FB695B0903F00103002B00F02C
:10469000AD80BB699B0903F00103002B23D07B682D
:1046A00093F85130DBB2032B11D07B685B6D43F084
:1046B00004027B685A6500237B617B681B68DB68AA
:1046C0007B617B681B689B687B617B690BE00023D7
:1046D0003B617B681B68DB683B617B681B689B6890
:1046E0003B613B6982E0BB695B0903F00103002B7E
:1046F00014D07B685B6D43F001027B685A65002330
:10470000FB607B681B689B68FB607B681B681A68A2
:104710007B681B6822F040021A60FB68BB691B0AB9
:1047200003F00103002B0CD07B685B6D43F00802A3
:104730007B685A650023BB607B681B689B68BB6015
:10474000BB687B685B6D002B4FD07B681B685A6829
:104750007B681B6822F0E0025A607B68012283F8C4
:104760005120FB6903F00203002B04D1FB6903F025
:104770000103002B34D07B681B685A687B681B6878
:1047800022F003025A607B68DB6C002B11D07B683F
:10479000DB6C184A1A657B68DB6C1846FEF7D8FCA0
:1047A0000346002B05D07B685B6D43F040027B68BD
:1047B0005A657B689B6C002B16D07B689B6C0D4AFE
:1047C0001A657B689B6C1846FEF7C2FC0346002BFB
:1047D0000AD07B685B6D43F040027B685A6503E05A
:1047E000786800F009F800E000BF00BF2037BD4640
:1047F00080BD00BF0D48000880B483B000AF786072
:1048000000BF0C37BD465DF8047B704780B584B0AF
:1048100000AF78607B689B6BFB60FB680022DA87E7
:10482000FB680022DA86F868FFF7E6FF00BF103762
:10483000BD4680BD80B582B000AF78607B68002B3C
:1048400001D1012341E07B6893F83D30DBB2002BBE
:1048500006D17B68002283F83C20786800F039F8A4
:104860007B68022283F83D207B681A687B680433EA
:104870001946104600F0B2F97B68012283F8462001
:104880007B68012283F83E207B68012283F83F2069
:104890007B68012283F840207B68012283F8412055
:1048A0007B68012283F842207B68012283F8432041
:1048B0007B68012283F844207B68012283F845202D
:1048C0007B68012283F83D20002318460837BD4647
:1048D00080BD80B483B000AF786000BF0C37BD46A8
:1048E0005DF8047B7047000080B485B000AF78604D
:1048F0007B6893F83D30DBB2012B01D0012344E00B
:104900007B68022283F83D207B681B68DA687B683D
:104910001B6842F00102DA607B681B681E4A934202
:1049200018D07B681B68B3F1804F13D07B681B687D
:104930001A4A93420ED07B681B68194A934209D0E9
:104940007B681B68174A934204D07B681B68164A31
:10495000934211D17B681B689B6803F00703FB60DF
:10496000FB68062B10D07B681B681A687B681B6885
:1049700042F001021A6007E07B681B681A687B68D6
:104980001B6842F001021A60002318461437BD4626
:104990005DF8047B704700BF000001400004004048
:1049A00000080040000C00400040014080B584B089
:1049B00000AF78607B681B68DB68FB607B681B6806
:1049C0001B69BB60BB6803F00203002B20D0FB68AF
:1049D00003F00203002B1BD07B681B686FF0020200
:1049E0001A617B6801221A777B681B689B6903F058
:1049F0000303002B03D0786800F0D2F805E0786854
:104A000000F0C4F8786800F0D5F87B6800221A77C7
:104A1000BB6803F00403002B20D0FB6803F0040301
:104A2000002B1BD07B681B686FF004021A617B6847
:104A300002221A777B681B689B6903F44073002B82
:104A400003D0786800F0ACF805E0786800F09EF8D4
:104A5000786800F0AFF87B6800221A77BB6803F033
:104A60000803002B20D0FB6803F00803002B1BD0A9
:104A70007B681B686FF008021A617B6804221A7752
:104A80007B681B68DB6903F00303002B03D07868A5
:104A900000F086F805E0786800F078F8786800F0B3
:104AA00089F87B6800221A77BB6803F01003002B9B
:104AB00020D0FB6803F01003002B1BD07B681B6821
:104AC0006FF010021A617B6808221A777B681B68F6
:104AD000DB6903F44073002B03D0786800F060F8C2
:104AE00005E0786800F052F8786800F063F87B68B9
:104AF00000221A77BB6803F00103002B0CD0FB687F
:104B000003F00103002B07D07B681B686FF00102E4
:104B10001A617868FCF72EFEBB6803F08003002B57
:104B20000CD0FB6803F08003002B07D07B681B6868
:104B30006FF080021A61786800F0E0F8BB6803F05B
:104B40004003002B0CD0FB6803F04003002B07D080
:104B50007B681B686FF040021A61786800F034F8D7
:104B6000BB6803F02003002B0CD0FB6803F020038C
:104B7000002B07D07B681B686FF020021A617868F1
:104B800000F0B2F800BF1037BD4680BD80B483B0DE
:104B900000AF786000BF0C37BD465DF8047B7047FE
:104BA00080B483B000AF786000BF0C37BD465DF8BD
:104BB000047B704780B483B000AF786000BF0C37CF
:104BC000BD465DF8047B704780B483B000AF786069
:104BD00000BF0C37BD465DF8047B704780B485B0DC
:104BE00000AF786039607B681B68FB607B68374A80
:104BF00093420FD07B68B3F1804F0BD07B68344A6F
:104C0000934207D07B68334A934203D07B68324A91
:104C1000934208D1FB6823F07003FB603B685B683C
:104C2000FA681343FB607B68284A93421BD07B6879
:104C3000B3F1804F17D07B68254A934213D07B682D
:104C4000244A93420FD07B68234A93420BD07B685F
:104C5000224A934207D07B68214A934203D07B6863
:104C6000204A934208D1FB6823F44073FB603B6801
:104C7000DB68FA681343FB60FB6823F080023B6843
:104C80005B691343FB603B689A687B68DA623B6848
:104C90001A687B689A627B680C4A934203D13B682E
:104CA0001A697B681A637B681B6843F004027B689F
:104CB0001A607B6801225A617B68FA681A6000BF3B
:104CC0001437BD465DF8047B704700BF000001400B
:104CD0000004004000080040000C0040004001407B
:104CE000004401400048014080B483B000AF7860C8
:104CF00000BF0C37BD465DF8047B704780B483B0BD
:104D000000AF786000BF0C37BD465DF8047B70478C
:104D100080B582B000AF78607B68002B01D10123A1
:104D200042E07B6893F84130DBB2002B06D17B6810
:104D3000002283F840207868FDF70CF87B68242275
:104D400083F841207B681B68DA687B681B6822F463
:104D50000052DA60786800F07FFD7B681B681A6992
:104D60007B681B6822F490421A617B681B685A6951
:104D70007B681B6822F02A025A617B681B68DA682C
:104D80007B681B6842F40052DA607B6800225A6438
:104D90007B68202283F841207B68202283F8422010
:104DA0007B6800225A63002318460837BD4680BD41
:104DB00080B58AB002AFF860B9603B601346FB80F3
:104DC00000237B61FB6893F84130DBB2202B75D167
:104DD000BB68002B02D0FB88002B01D101236EE0C1
:104DE000FB6800225A64FB68212283F84120FDF70A
:104DF000FBFA7861FB68FA889A84FB68FA88DA849F
:104E0000FB689B68B3F5805F08D1FB681B69002BCA
:104E100004D10023FB61BB68BB6103E0BB68FB619D
:104E20000023BB612EE03B6800937B690022802158
:104E3000F86800F01DFB0346002B05D0FB6820221C
:104E400083F8412003233AE0FB69002B0BD1BB69B7
:104E50001B881A46FB681B68C2F308025A60BB69CC
:104E60000233BB6107E0FB691A78FB681B685A6074
:104E7000FB690133FB61FB68DB8C9BB2013B9AB29F
:104E8000FB68DA84FB68DB8C9BB2002BCBD13B68E0
:104E900000937B6900224021F86800F0E9FA03469C
:104EA000002B05D0FB68202283F84120032306E075
:104EB000FB68202283F84120002300E002231846EB
:104EC0002037BD4680BD000080B5BAB000AF786025
:104ED0007B681B681B68C7F8E4307B681B68DB686D
:104EE000C7F8E0307B681B685B69C7F8DC300023DB
:104EF000C7F8D8300023C7F8D430D7F8E43003F02F
:104F00000F03C7F8D830D7F8D830002B0FD1D7F817
:104F1000E43003F02003002B09D0D7F8E03003F091
:104F20002003002B03D0786800F0D7FB73E2D7F89A
:104F3000D830002B00F0DE80D7F8DC3003F001031E
:104F4000002B06D1D7F8E03003F49073002B00F06B
:104F5000D180D7F8E43003F00103002B0BD0D7F851
:104F6000E03003F48073002B05D07B685B6C43F06A
:104F700001027B685A64D7F8E43003F00403002B85
:104F80000BD0D7F8DC3003F00103002B05D07B6891
:104F90005B6C43F002027B685A64D7F8E43003F09C
:104FA0000203002B0BD0D7F8DC3003F00103002BF9
:104FB00005D07B685B6C43F004027B685A64D7F8C9
:104FC000E43003F00803002B11D0D7F8E03003F0F1
:104FD0002003002B05D1D7F8DC3003F00103002BB0
:104FE00005D07B685B6C43F008027B685A647B6881
:104FF0005B6C002B00F00A82D7F8E43003F020034A
:10500000002B08D0D7F8E03003F02003002B02D0AB
:10501000786800F062FB7B681B685B6903F0400303
:10502000402B0CBF01230023DBB2C7F8D4307B68D0
:105030005B6C03F00803002B03D1D7F8D430002BAE
:105040004FD0786800F06DFA7B681B685B6903F0ED
:105050004003402B41D17B681B681433C7F89C3058
:10506000D7F89C3053E8003FC7F89830D7F898300D
:1050700023F04003C7F8D0307B681B681433D7F89F
:10508000D020C7F8A820C7F8A430D7F8A410D7F8C4
:10509000A82041E80023C7F8A030D7F8A030002BA3
:1050A000D9D17B68DB6B002B13D07B68DB6B8A4A22
:1050B0001A657B68DB6B1846FEF74AF80346002B3F
:1050C00016D07B68DB6B1B6D7A68D26B10469847F5
:1050D0000EE0786800F0B6F90AE0786800F0B2F9FE
:1050E00006E0786800F0AEF97B6800225A648DE132
:1050F00000BF8BE17B681B6B012B40F06781D7F809
:10510000E43003F01003002B00F06081D7F8E030AA
:1051100003F01003002B00F059810023BB607B6873
:105120001B681B68BB607B681B685B68BB60BB68F7
:105130007B681B685B6903F04003402B40F0CE8026
:105140007B68DB6B1B685B68A7F8BE30B7F8BE30C6
:10515000002B00F0A9807B689B8DB7F8BE209A4297
:1051600080F0A2807B68B7F8BE20DA857B68DB6BB5
:10517000DB69B3F5807F00F088807B681B680C33A7
:10518000C7F88830D7F8883053E8003FC7F8843034
:10519000D7F8843023F48073C7F8B8307B681B6875
:1051A0000C33D7F8B820C7F89420C7F89030D7F858
:1051B0009010D7F8942041E80023C7F88C30D7F836
:1051C0008C30002BD9D17B681B6814337B677B6FD5
:1051D00053E8003F3B673B6F23F00103C7F8B4304F
:1051E0007B681B681433D7F8B420C7F88020FB67AE
:1051F000F96FD7F8802041E80023BB67BB6F002B15
:10520000E1D17B681B6814333B663B6E53E8003F7B
:10521000FB65FB6D23F04003C7F8B0307B681B686B
:105220001433D7F8B020FA66BB66B96EFA6E41E85F
:1052300000237B667B6E002BE3D17B68202283F802
:1052400042207B6800221A637B681B680C33FB6476
:10525000FB6C53E8003FBB64BB6C23F01003C7F842
:10526000AC307B681B680C33D7F8AC20BA657B6523
:10527000796DBA6D41E800233B653B6D002BE3D1AE
:105280007B68DB6B1846FDF7F3FE7B6802225A63EE
:105290007B689A8D7B68DB8D9BB2D31A9BB21946D3
:1052A000786800F0D9F8B3E07B689B8DB7F8BE2032
:1052B0009A4240F0AD807B68DB6BDB69B3F5807FA1
:1052C00040F0A6807B6802225A637B689B8D19465A
:1052D000786800F0C1F89BE0E95500087B689A8D7A
:1052E0007B68DB8D9BB2D31AA7F8CE307B68DB8D51
:1052F0009BB2002B00F08E80B7F8CE30002B00F070
:1053000089807B681B680C33BB63BB6B53E8003F31
:105310007B637B6B23F49073C7F8C8307B681B6892
:105320000C33D7F8C8207A643B64396C7A6C41E856
:105330000023FB63FB6B002BE3D17B681B681433FA
:105340007B627B6A53E8003F3B623B6A23F00103C8
:10535000C7F8C4307B681B681433D7F8C4203A639D
:10536000FB62F96A3A6B41E80023BB62BB6A002B1F
:10537000E3D17B68202283F842207B6800221A63F5
:105380007B681B680C333B613B6953E8003FFB6063
:10539000FB6823F01003C7F8C0307B681B680C3330
:1053A000D7F8C020FA61BB61B969FA6941E8002306
:1053B0007B617B69002BE3D17B6802225A63B7F8DB
:1053C000CE301946786800F047F823E0D7F8E4308B
:1053D00003F08003002B09D0D7F8E03003F08003FE
:1053E000002B03D0786800F010F914E0D7F8E4300F
:1053F00003F04003002B0ED0D7F8E03003F0400359
:10540000002B08D0786800F050F904E000BF02E0FB
:1054100000BF00E000BFE837BD4680BD80B483B068
:1054200000AF786000BF0C37BD465DF8047B704765
:1054300080B483B000AF786000BF0C37BD465DF824
:10544000047B704780B483B000AF786000BF0C3736
:10545000BD465DF8047B704780B483B000AF7860D0
:105460000B467B8000BF0C37BD465DF8047B704760
:1054700080B586B000AFF860B9603B601346FB7141
:105480003BE03B6AB3F1FF3F37D0FCF7ADFF02468C
:105490003B68D31A3A6A9A4202D33B6A002B01D185
:1054A00003233AE0FB681B68DB6803F00403002B6E
:1054B00023D0BB68802B20D0BB68402B1DD0FB685D
:1054C0001B681B6803F00803082B16D100237B61BF
:1054D000FB681B681B687B61FB681B685B687B6102
:1054E0007B69F86800F01DF8FB6808225A64FB68C5
:1054F000002283F8402001230FE0FB681B681A6834
:10550000BB681340BA689A420CBF01230023DBB288
:105510001A46FB799A42B4D0002318461837BD4684
:1055200080BD80B495B000AF78607B681B680C3399
:105530007B637B6B53E8003F3B633B6B23F49073CF
:10554000FB647B681B680C33FA6C3A64FB63F96B91
:105550003A6C41E80023BB63BB6B002BE5D17B6851
:105560001B6814333B623B6A53E8003FFB61FB69F5
:1055700023F00103BB647B681B681433BA6CFA62C6
:10558000BB62B96AFA6A41E800237B627B6A002B3E
:10559000E5D17B681B6B012B19D17B681B680C3331
:1055A000FB60FB6853E8003FBB60BB6823F010035F
:1055B0007B647B681B680C337A6CBA617B617969A8
:1055C000BA6941E800233B613B69002BE5D17B6868
:1055D000202283F842207B6800221A6300BF5437E0
:1055E000BD465DF8047B704780B584B000AF78603D
:1055F0007B689B6BFB60FB680022DA85F868FFF72D
:1056000021FF00BF1037BD4680BD80B485B000AF1C
:1056100078607B6893F84130DBB2212B3ED17B6808
:105620009B68B3F5805F14D17B681B69002B10D198
:105630007B681B6AFB60FB681B881A467B681B68DB
:10564000C2F308025A607B681B6A9A1C7B681A6264
:1056500008E07B681B6A591C7A6811621A787B68BB
:105660001B685A607B68DB8C9BB2013B9BB27A68FB
:105670001946D184002B0FD17B681B68DA687B68E0
:105680001B6822F08002DA607B681B68DA687B683E
:105690001B6842F04002DA60002300E00223184653
:1056A0001437BD465DF8047B704780B582B000AF0B
:1056B00078607B681B68DA687B681B6822F04002B0
:1056C000DA607B68202283F841207868FFF7A6FE25
:1056D000002318460837BD4680BD80B58CB000AFAA
:1056E00078600023FB620023BB627B6893F8423042
:1056F000DBB2222B40F0AA807B689B68B3F5805F09
:1057000015D17B681B69002B11D17B689B6ABB623A
:105710007B681B685B689BB2C3F308039AB2BB6AE1
:105720001A807B689B6A9A1C7B689A6224E07B687B
:105730009B6AFB627B689B68B3F5805F07D07B68E0
:105740009B68002B0AD17B681B69002B06D17B6804
:105750001B685B68DAB2FB6A1A7008E07B681B683A
:105760005B68DBB203F07F03DAB2FB6A1A707B6816
:105770009B6A5A1C7B689A627B68DB8D9BB2013BFB
:105780009BB27A681946D185002B5DD17B681B6876
:10579000DA687B681B6822F02002DA607B681B688D
:1057A000DA687B681B6822F48072DA607B681B68A9
:1057B0005A697B681B6822F001025A617B682022CB
:1057C00083F842207B6800225A637B681B6B012BA5
:1057D00035D17B6800221A637B681B680C337B61C0
:1057E0007B6953E8003F3B613B6923F010037B6218
:1057F0007B681B680C337A6A3A62FB61F9693A6A22
:1058000041E80023BB61BB69002BE5D17B681B68C5
:105810001B6803F01003102B0AD10023FB607B6888
:105820001B681B68FB607B681B685B68FB60FB6830
:105830007B689B8D19467868FFF70EFE02E078685A
:10584000FFF7F6FD002302E0002300E002231846E4
:105850003037BD4680BD00002DE9B04FC0B000AF6D
:10586000C7F8F400D7F8F4301B681B6923F44050E4
:10587000D7F8F430D968D7F8F4301A6840EA010351
:105880001361D7F8F4309A68D7F8F4301B691A43DB
:10589000D7F8F4305B691A43D7F8F430DB69134367
:1058A000C7F8F830D7F8F4301B68DB6823F41641EA
:1058B00021F00C01D7F8F4301A68D7F8F8300B4310
:1058C000D360D7F8F4301B685B6923F44070D7F8D5
:1058D000F4309969D7F8F4301A6840EA010353614B
:1058E000D7F8F4301A688F4B9A4205D0D7F8F430C5
:1058F0001A688D4B9A4204D1FEF7AEFDC7F8FC0042
:1059000003E0FEF795FDC7F8FC00D7F8F430DB693B
:10591000B3F5004F40F00C81D7F8FC300022C7F8F7
:10592000E830C7F8EC20D7E93A4522462B469118D3
:10593000B9655B41FB65D7E91623214612EB0108E7
:10594000294643EB01094FF000024FF000034FEAF4
:10595000C90343EA58734FEAC80290469946234662
:1059600018EB0303C7F8E0302B4649EB0303C7F8F5
:10597000E430D7F8F4305B680022C7F8D830C7F8B5
:10598000DC20D7E936120B46DB183B65134642EBA9
:1059900003037B65D7E91423D7E93801FBF77CF9CA
:1059A00002460B46614BA3FB02235B091C01D7F89F
:1059B000FC300022C7F8D030C7F8D420D7E93489AA
:1059C00042464B469118B9645B41FB64D7E9122308
:1059D000414612EB010A494643EB010B4FF000022E
:1059E0004FF000034FEACB0343EA5A734FEACA026F
:1059F00092469B4643461AEB0303C7F8C8304B4612
:105A00004BEB0303C7F8CC30D7F8F4305B680022C7
:105A1000C7F8C030C7F8C420D7E930120B46DB18EE
:105A20003B64134642EB03037B64D7E91023D7E9B9
:105A30003201FBF731F902460B4611463B4BA3FB03
:105A400001235B09642202FB03F3CB1ADB0003F1A1
:105A50003202364BA3FB02235B095B0003F4F873AD
:105A60001C44D7F8FC300022C7F8B830C7F8BC2077
:105A7000D7E92E8942464B469118B9635B41FB63D7
:105A8000D7E90E2341465118396349464B417B63A0
:105A90004FF000024FF00003D7E90CAB5946CB00A2
:105AA000514643EA51735146CA001046194603460F
:105AB00042469B18C7F8B0304B460A4642EB0303F8
:105AC000C7F8B430D7F8F4305B680022C7F8A830C4
:105AD000C7F8AC20D7E92A120B46DB18BB62134685
