:020000040800F2
:1000000000000220893700086D34000875340008AC
:100010007D340008853400088D340008000000009D
:10002000000000000000000000000000019A00082D
:100030009534000800000000519C0008B99C00089D
:10004000D9370008D9370008D9370008D937000850
:10005000D9370008D9370008D9370008D937000840
:10006000D9370008D9370008D9370008D937000830
:10007000A5340008B9340008D9370008CD34000889
:10008000E9340008FD3400081135000800000000C4
:10009000000000000000000000000000D937000848
:1000A000D9370008D9370008D9370008D9370008F0
:1000B000D9370008D937000825350008D937000896
:1000C000D9370008D9370008D93700083935000872
:1000D000D93700084D350008D93700080000000066
:1000E000D9370008D9370008D937000800000000C8
:1000F0000000000000000000000000006135000862
:1001000000000000D9370008D9370008753500080D
:1001100000000000000000000000000000000000DF
:10012000D9370008D9370008D9370008D93700086F
:10013000D9370008000000000000000000000000A7
:10014000000000000000000000000000D937000897
:10015000D9370008D9370008D9370008D93700083F
:10016000D9370008D937000800000000000000005F
:10017000000000000000000000000000000000007F
:1001800000000000D9370008000000000000000057
:08019000D9370008D937000837
:1001A00010B5054C237833B9044B13B10448AFF3B1
:1001B00000800123237010BDE80100200000000032
:1001C00038E9000808B5034B1BB103490348AFF3F6
:1001D000008008BD00000000EC01002038E90008A4
:1001E00001F0FF01102A2BDB10F0070F08D010F8E8
:1001F000013B013A8B422DD010F0070F42B3F6D1EC
:10020000F0B441EA012141EA014122F007047FF004
:1002100000070023F0E80256083C85EA010586EA5B
:10022000010685FA47F5A3FA87F586FA47F6A5FA97
:1002300087F68EB9EED1F0BC01F0FF0102F00702A3
:1002400032B110F8013B013A83EA010313B1F8D14E
:100250000020704701387047002D06BF354603382F
:10026000073815F0010F07D1013015F4807F02BF68
:10027000013015F4C03F0130F0BC0138704700BFB9
:10028000034613F8012B002AFBD1181A01387047D6
:1002900081F0004102E000BF83F0004330B54FEA37
:1002A00041044FEA430594EA050F08BF90EA020FA4
:1002B0001FBF54EA000C55EA020C7FEA645C7FEA37
:1002C000655C00F0E2804FEA5454D4EB5555B8BF5A
:1002D0006D420CDD2C4480EA020281EA030382EACB
:1002E000000083EA010180EA020281EA0303362D5D
:1002F00088BF30BD11F0004F4FEA01314FF4801C30
:100300004CEA113102D0404261EB410113F0004F41
:100310004FEA03334CEA133302D0524263EB4303F8
:1003200094EA050F00F0A780A4F10104D5F1200E96
:100330000DDB02FA0EFC22FA05F2801841F10001F1
:1003400003FA0EF2801843FA05F359410EE0A5F1C5
:1003500020050EF1200E012A03FA0EFC28BF4CF0F6
:10036000020C43FA05F3C01851EBE37101F00045AC
:1003700007D54FF0000EDCF1000C7EEB00006EEBB9
:100380000101B1F5801F1BD3B1F5001F0CD3490843
:100390005FEA30004FEA3C0C04F101044FEA44529A
:1003A00012F5800F80F09A80BCF1004F08BF5FEA21
:1003B000500C50F1000041EB045141EA050130BD01
:1003C0005FEA4C0C404141EB0101013C28BFB1F513
:1003D000801FE9D291F0000F04BF01460020B1FA5E
:1003E00081F308BF2033A3F10B03B3F120020CDA31
:1003F0000C3208DD02F1140CC2F10C0201FA0CF00F
:1004000021FA02F10CE002F11402D8BFC2F1200C73
:1004100001FA02F120FA0CFCDCBF41EA0C01904029
:10042000E41AA2BF01EB0451294330BD6FEA040472
:100430001F3C1CDA0C340EDC04F11404C4F120025D
:1004400020FA04F001FA02F340EA030021FA04F36F
:1004500045EA030130BDC4F10C04C4F1200220FAC6
:1004600002F001FA04F340EA0300294630BD21FA04
:1004700004F0294630BD94F0000F83F4801306BFCA
:1004800081F480110134013D4EE77FEA645C18BFBE
:100490007FEA655C29D094EA050F08BF90EA020F55
:1004A00005D054EA000C04BF1946104630BD91EA4D
:1004B000030F1EBF0021002030BD5FEA545C05D150
:1004C0004000494128BF41F0004130BD14F580048F
:1004D0003CBF01F5801130BD01F0004545F0FE4103
:1004E00041F470014FF0000030BD7FEA645C1ABF38
:1004F000194610467FEA655C1CBF0B46024650EA6F
:10050000013406BF52EA033591EA030F41F400219A
:1005100030BD00BF90F0000F04BF0021704730B520
:100520004FF4806404F132044FF000054FF00001F5
:1005300050E700BF90F0000F04BF0021704730B5B6
:100540004FF4806404F1320410F0004548BF40428B
:100550004FF000013EE700BF42004FEAE2014FEAE0
:1005600031014FEA02701FBF12F07F4393F07F4FBB
:1005700081F06051704732F07F4208BF704793F0BE
:100580007F4F04BF41F40021704730B54FF46074D1
:1005900001F0004521F000411CE700BF50EA0102D4
:1005A00008BF704730B54FF000050AE050EA01027D
:1005B00008BF704730B511F0004502D5404261EBED
:1005C00041014FF4806404F132045FEA915C3FF42E
:1005D000D8AE4FF003025FEADC0C18BF03325FEACB
:1005E000DC0C18BF033202EBDC02C2F1200300FA7C
:1005F00003FC20FA02F001FA03FE40EA0E0021FAA1
:1006000002F11444BDE600BF70B54FF0FF0C4CF48E
:10061000E06C1CEA11541DBF1CEA135594EA0C0F40
:1006200095EA0C0F00F0DEF82C4481EA030621EA7B
:100630004C5123EA4C5350EA013518BF52EA0335B6
:1006400041F4801143F4801338D0A0FB02CE4FF068
:100650000005E1FB02E506F00042E0FB03E54FF098
:100660000006E1FB03569CF0000F18BF4EF0010E90
:10067000A4F1FF04B6F5007F64F5407404D25FEA8C
:100680004E0E6D4146EB060642EAC62141EA55513F
:100690004FEAC52040EA5E504FEACE2EB4F1FD0C81
:1006A00088BFBCF5E06F1ED8BEF1004F08BF5FEAFF
:1006B000500E50F1000041EB045170BD06F00046B1
:1006C00046EA010140EA020081EA0301B4EB5C045E
:1006D000C2BFD4EB0C0541EA045170BD41F4801156
:1006E0004FF0000E013C00F3AB8014F1360FDEBF7B
:1006F000002001F0004170BDC4F10004203C35DA57
:100700000C341BDC04F11404C4F1200500FA05F3D9
:1007100020FA04F001FA05F240EA020001F000427A
:1007200021F0004110EBD37021FA04F642EB0601F0
:100730005EEA430E08BF20EAD37070BDC4F10C041A
:10074000C4F1200500FA04F320FA05F001FA04F2DE
:1007500040EA020001F0004110EBD37041F10001CA
:100760005EEA430E08BF20EAD37070BDC4F12005D5
:1007700000FA05F24EEA020E20FA04F301FA05F23D
:1007800043EA020321FA04F001F0004121FA04F2E5
:1007900020EA020000EBD3705EEA430E08BF20EAB5
:1007A000D37070BD94F0000F0FD101F000464000EF
:1007B00041EB010111F4801F08BF013CF7D041EA71
:1007C000060195F0000F18BF704703F00046520075
:1007D00043EB030313F4801F08BF013DF7D043EA46
:1007E0000603704794EA0C0F0CEA135518BF95EAFC
:1007F0000C0F0CD050EA410618BF52EA4306D1D183
:1008000081EA030101F000414FF0000070BD50EAA1
:10081000410606BF1046194652EA430619D094EA2B
:100820000C0F02D150EA013613D195EA0C0F05D115
:1008300052EA03361CBF104619460AD181EA030169
:1008400001F0004141F0FE4141F470014FF0000021
:1008500070BD41F0FE4141F4780170BD70B54FF0BC
:10086000FF0C4CF4E06C1CEA11541DBF1CEA13553C
:1008700094EA0C0F95EA0C0F00F0A7F8A4EB05041E
:1008800081EA030E52EA03354FEA013100F0888015
:100890004FEA03334FF0805545EA131343EA1263DE
:1008A0004FEA022245EA111545EA10654FEA002693
:1008B0000EF000419D4208BF964244F1FD0404F54C
:1008C000407402D25B084FEA3202B61A65EB0305A8
:1008D0005B084FEA32024FF480104FF4002CB6EB65
:1008E000020E75EB030E22BFB61A754640EA0C00E5
:1008F0005B084FEA3202B6EB020E75EB030E22BF25
:10090000B61A754640EA5C005B084FEA3202B6EB65
:10091000020E75EB030E22BFB61A754640EA9C0024
:100920005B084FEA3202B6EB020E75EB030E22BFF4
:10093000B61A754640EADC0055EA060E18D04FEAB2
:10094000051545EA16754FEA06164FEAC30343EA52
:1009500052734FEAC2025FEA1C1CC0D111F4801F1F
:100960000BD141EA00014FF000004FF0004CB6E718
:1009700011F4801F04BF01430020B4F1FD0C88BFB7
:10098000BCF5E06F3FF6AFAEB5EB030C04BFB6EBC2
:10099000020C5FEA500C50F1000041EB045170BDB5
:1009A0000EF0004E4EEA113114EB5C04C2BFD4EBE2
:1009B0000C0541EA045170BD41F480114FF0000E66
:1009C000013C90E645EA060E8DE60CEA135594EAE2
:1009D0000C0F08BF95EA0C0F3FF43BAF94EA0C0FE5
:1009E0000AD150EA01347FF434AF95EA0C0F7FF45A
:1009F00025AF104619462CE795EA0C0F06D152EAAE
:100A000003353FF4FDAE1046194622E750EA410691
:100A100018BF52EA43067FF4C5AE50EA41047FF4A2
:100A20000DAF52EA43057FF4EBAE12E74FF0FF3C07
:100A300006E000BF4FF0010C02E000BF4FF0010CD8
:100A40004DF804CD4FEA410C7FEA6C5C4FEA430C51
:100A500018BF7FEA6C5C1BD001B050EA410C0CBFA0
:100A600052EA430C91EA030F02BF90EA020F002002
:100A7000704710F1000F91EA030F58BF994208BF69
:100A800090422CBFD8176FEAE37040F00100704726
:100A90004FEA410C7FEA6C5C02D150EA013C07D17D
:100AA0004FEA430C7FEA6C5CD6D152EA033CD3D0C8
:100AB0005DF8040B704700BF8446104662468C46C2
:100AC0001946634600E000BF01B5FFF7B7FF0028F5
:100AD00048BF10F1000F01BD4DF808EDFFF7F4FF1E
:100AE0000CBF012000205DF808FB00BF4DF808EDA9
:100AF000FFF7EAFF34BF012000205DF808FB00BFCC
:100B00004DF808EDFFF7E0FF94BF012000205DF8ED
:100B100008FB00BF4DF808EDFFF7CEFF94BF0120A2
:100B200000205DF808FB00BF4DF808EDFFF7C4FF9B
:100B300034BF012000205DF808FB00BF4FEA410CE4
:100B40007FEA6C5C02D150EA013C0AD14FEA430CC7
:100B50007FEA6C5C02D152EA033C02D14FF0000004
:100B600070474FF0010070474FEA410212F5001242
:100B700015D211D56FF47873B3EB625212D94FEAE4
:100B8000C12343F0004343EA505311F0004F23FACE
:100B900002F018BF404270474FF00000704750EA23
:100BA000013005D111F0004008BF6FF000407047E0
:100BB0004FF00000704700BF4A0011D212F500123A
:100BC00011D20DD56FF47873B3EB62520ED44FEAA5
:100BD000C12343F0004343EA505323FA02F0704725
:100BE0004FF00000704750EA013002D14FF0FF3063
:100BF00070474FF0000070474FEA4102B2F1E04306
:100C000024BFB3F5001CDCF1FE5C0DD901F0004CF3
:100C10004FEAC0024CEA5070B2F1004F40EB830043
:100C200008BF20F00100704711F0804F21D113F16F
:100C30003872BCBF01F00040704741F480114FEAA8
:100C40005252C2F11802C2F1200C10FA0CF320FA31
:100C500002F018BF40F001004FEAC1234FEAD3234E
:100C600003FA0CFC40EA0C0023FA02F34FEA4303B8
:100C7000CCE77FEA625307D150EA01331EBF4FF041
:100C8000FE4040F44000704701F0004040F0FE405C
:100C900040F40000704700BF53B94AB9002908BFAB
:100CA00000281CBF4FF0FF314FF0FF3000F0BEB9FD
:100CB000ADF1080C6DE904CE00F03CF8DDF804E07D
:100CC000DDE9022304B0704738B500220023044652
:100CD0000D46FFF70BFF28B920462946BDE83840EE
:100CE00000F00AB8204605F1004100F005F8404246
:100CF00061EB410138BD00BFD0B50C4B0022064668
:100D00000F46FFF781FCFFF757FF0446FFF702FC91
:100D1000074B0022FFF778FC02460B463046394667
:100D2000FFF7BAFAFFF748FF2146D0BD0000F03DBB
:100D30000000F0412DE9F047089D8E4604468846A4
:100D4000002B4AD18A42174662D9B2FA82F64EB1D6
:100D5000C6F1200301FA06F820FA03F3B74043EA8C
:100D60000808B4404FEA174E1FFA87FCB8FBFEF1A3
:100D7000230C0EFB118843EA084301FB0CF29A4254
:100D800009D9FB1801F1FF3080F0EA809A4240F265
:100D9000E78002393B449A1AA3B2B2FBFEF00EFB85
:100DA000102243EA024300FB0CFC9C4509D9FB18C6
:100DB00000F1FF3280F0D6809C4540F2D3803B4466
:100DC000023840EA0140A3EB0C0300211DB1F340BF
:100DD0000022C5E90032BDE8F0878B4205D90DB18C
:100DE000C5E9000100210846F5E7B3FA83F10029BF
:100DF00046D1734502D3824200F20581841A6EEB1C
:100E0000030201209046002DE5D0C5E90048E2E745
:100E1000002A00F09080B2FA82F6002E40F0A48002
:100E20008A1A030C4FEA174E80B2BCB20121B2FB02
:100E3000FEFC0EFB1C2243EA024304FB0CF29A4226
:100E400007D9FB180CF1FF3802D29A4200F2E08079
:100E5000C4469B1AB3FBFEF20EFB123340EA034377
:100E600002FB04F49C4207D9FB1802F1FF3002D2C6
:100E70009C4200F2CA8002461B1B42EA0C40A5E7D6
:100E8000C1F120068B4022FA06F71F430EFA01F447
:100E900020FA06F32EFA06FE4FEA1749234300FA1A
:100EA00001F81FFA87FCBEFBF9F01C0C09FB10EEE1
:100EB00044EA0E4400FB0CFEA64502FA01F209D9F1
:100EC0003C1900F1FF3A80F09C80A64540F29980E1
:100ED00002383C44A4EB0E041FFA83FEB4FBF9F382
:100EE00009FB13444EEA044403FB0CFCA44508D957
:100EF0003C1903F1FF3E80F08280A4457FD9023B7C
:100F00003C4443EA0040A4EB0C04A0FB02EC644523
:100F10007346E14662D35FD05DB1B8EB030264EB88
:100F2000090404FA06F622FA01F31E43CC40C5E98F
:100F3000006400214FE7B1FBF2FC010C41EA0E41D5
:100F400080B240EA01423B4638463C46B846BE467F
:100F50002026B1FBF7F1A2EB080241EA0C4166E75B
:100F6000014618E710462CE7C6F120022EFA02F3DC
:100F7000B740B14020FA02F24FEA174E0A43B3FBE2
:100F8000FEF8BCB20EFB1833110C41EA034108FB1A
:100F900004F9B04089454FEA104380B23ED9791830
:100FA00008F1FF3C01D289451FD8A1EB0901B1FB33
:100FB000FEF909FB04F80EFB191192B242EA014254
:100FC000424529D2BA1809F1FF31C4D24245C2D2F2
:100FD000A9F102013A44BEE7F0459DD2BEEB0203FF
:100FE0006CEB070C0138E14696E7A7EB0909494489
:100FF000A8F1020CB1FBFEF909FB04F8DBE773462C
:101000007FE7504666E70846FDE63B44023A33E791
:10101000ACF1020C3B441CE749469CE7A1EB0901FB
:10102000C446B1FBFEF909FB04F8C4E7704700BFF2
:10103000B0B58EB000AFF860B9603B601346FB807E
:10104000FB6C3B62BB683B61FB88BB823B68BB615E
:10105000B7F84830BB8340F2B113FB62072387F82F
:101060003030072387F83130012387F83230FF23EF
:1010700087F83630642387F837300823BB86012091
:1010800007F0D3F803467B62FB681D4607F11004A6
:101090000FCC0FC50FCC0FC594E8030085E8030003
:1010A000F8683837BD46B0BD80B582B000AF786013
:1010B0007B6898687B689B890022194603F07EFE56
:1010C000142006F044FE7B6898687B689B890122A7
:1010D000194603F073FE0A2006F039FE00BF0837F8
:1010E000BD4680BD80B483B000AF78607B68002BC4
:1010F00001D1002300E0012318460C37BD465DF8FE
:10110000047B704780B584B000AF78600B46FB70FD
:10111000FB7803F07F03DBB2BB737B685B69642100
:10112000184607F0B7F90346012B28D17B681868E9
:101130007B689B880022194603F040FE7B68186993
:1011400007F10E014FF4FA63012204F0A8FC7B685A
:10115000186907F10F014FF4FA63012204F0E3FD6F
:101160007B6818687B689B880122194603F026FE7D
:101170007B68586900230022002107F089F8FB7B77
:1011800018461037BD4680BD80B584B000AF78608A
:101190000B46FB701346BB70FB7863F07F03DBB23A
:1011A0003B73BB787B737B685B696421184607F0EF
:1011B00071F90346012B1FD17B6818687B689B88F7
:1011C0000022194603F0FAFD7B68186907F10C014B
:1011D0004FF4FA63022204F062FC7B6818687B68B3
:1011E0009B880122194603F0E9FD7B6858690023BA
:1011F0000022002107F04CF800BF1037BD4680BD2B
:1012000080B586B000AFF8607A601A460B46FB7274
:101210001346BB72FB7A63F07F03DBB2FB75FB689E
:101220005B696421184607F035F90346012B28D184
:10123000FB681868FB689B880022194603F0BEFD16
:10124000FB68186907F117014FF4FA63012204F0F3
:1012500026FCFB681869BB7A9AB24FF4FA63796886
:1012600004F01DFCFB681868FB689B880122194686
:1012700003F0A4FDFB68586900230022002107F059
:1012800007F800BF1837BD4680BD80B584B000AFF9
:101290007860396001217868FFF734FF0346BB733B
:1012A000BB7BFB733B68002B07D1BB7B23F00703A1
:1012B000FB737B6800229A6169E03B68012B0CD1CB
:1012C00097F90E3023F007035BB243F001035BB2E2
:1012D000FB737B6801229A6159E03B68022B0CD1B9
:1012E00097F90E3023F007035BB243F002035BB2C1
:1012F000FB737B6802229A6149E03B68032B0CD1A7
:1013000097F90E3023F007035BB243F003035BB29F
:10131000FB737B6803229A6139E03B68042B0CD194
:1013200097F90E3023F007035BB243F004035BB27E
:10133000FB737B6804229A6129E03B68052B0CD182
:1013400097F90E3023F007035BB243F005035BB25D
:10135000FB737B6805229A6119E03B68062B0CD170
:1013600097F90E3023F007035BB243F006035BB23C
:10137000FB737B6806229A6109E03B68072B0DD15D
:10138000BB7B43F00703FB737B6807229A61FB7BFF
:101390001A4601217868FFF7F7FE00E000BF10371A
:1013A000BD4680BD80B584B000AF78600B46FB7051
:1013B00026217868FFF7A6FE0346BB73FB78002B57
:1013C00004D0BB7B43F00803FB7303E0BB7B23F03B
:1013D0000803FB73FB7B1A4626217868FFF7D4FECF
:1013E0000A2002F03DFA00BF1037BD4680BD000064
:1013F00080B596B000AF7860174A07F10803114630
:10140000502218460AF099FE7B6893F820301A465D
:10141000012393401846FFF78DF87B6893F821303D
:10142000DB0058333B44503BD3E90023FFF716FA67
:1014300002460B4610461946FFF796FB0346102B53
:10144000CCBF01230023DBB219467868FFF7AAFF5F
:1014500000BF5837BD4680BD50E9000880B584B054
:1014600000AF786039603B68DB045B11FB60FB68B0
:101470001B0CFB72FB7A1A4606217868FFF784FE84
:10148000052002F0EDF9FB681B0AFB72FB7A1A4695
:1014900007217868FFF778FE052002F0E1F9FB6884
:1014A000FB72FB7A1A4608217868FFF76DFE05206B
:1014B00002F0D6F900BF1037BD4680BD80B584B0BC
:1014C00000AF786039603B680C2B01DD0C233B607A
:1014D0003B68062B01DC07233B601E217868FFF781
:1014E00011FE0346FB730A2002F0BAF93B68DBB237
:1014F0001B01DAB2FB7B03F00F03DBB21344BB73B7
:10150000BB7B1A461E217868FFF73EFE0A2002F0D8
:10151000A7F97868FFF76CFF00BF1037BD4680BDA4
:1015200080B582B000AF78600B46FB70FB781A463E
:1015300009217868FFF728FE0A2002F091F900BF20
:101540000837BD4680BD000080B584B000AF78602C
:101550000B46FB700023FB73FB782C2B01D82D234B
:10156000FB70FB78F02B01D9F023FB70FB78782B14
:1015700009D8FB782D3B124A82FB03125210DB176D
:10158000D31AFB730BE0FB78F02B08D8FB781E33E3
:101590000B4A82FB03129210DB17D31AFB73FB7BFF
:1015A0002033FB73FB7B1A460B217868FFF7ECFDB9
:1015B0000A2002F055F900BF1037BD4680BD00BFBC
:1015C0006766666680B584B000AF78601E21786873
:1015D000FFF798FD0346FB73FB7B43F00703BB73E8
:1015E000BB7B1A461E217868FFF7CEFD0A2002F069
:1015F00037F900BF1037BD4680BD80B582B000AF5F
:1016000078600B46FB70FB781A4639217868FFF743
:10161000BBFD0A2002F024F900BF0837BD4680BD9B
:1016200080B588B000AFF860B96011461A460B4625
:10163000FB711346BB80FB689B69FB610121F86865
:10164000FFF723FE0E21F868FFF75CFD0346FB76EB
:10165000FB7E1A460D21F868FFF796FDFB791A46C6
:101660002221F868FFF790FDFB79BA680021F8683D
:10167000FFF7C6FD0321F868FFF707FE07F018FC27
:101680007861BB884FF47A7202FB03F3184AA2FB1D
:1016900003239B093B611221F868FFF733FD0346E2
:1016A000FB76FB7E03F00803002B0AD0FF221221F9
:1016B000F868FFF769FDF969F868FFF7E6FD0023B0
:1016C00011E007F0F5FB02467B69D31A3A699A42AA
:1016D00005D2F969F868FFF7D8FD012303E001207E
:1016E00007F09AFAD7E718462037BD4680BD00BFFD
:1016F000D34D621080B584B000AF78607868FFF792
:10170000F1FC0346002B00F0968000217868FFF77B
:10171000BCFD0A2002F0A4F801217868FFF7F2FC72
:101720000346FB730A2002F09BF8FB7B63F07F0308
:10173000BB73BB7B1A4601217868FFF725FD642047
:1017400002F08EF87B68DB6919467868FFF786FE41
:101750007B6893F8263019467868FFF7E1FE7B68CE
:1017600093F8273019467868FFF7EEFE23220C2104
:101770007868FFF709FD7868FFF724FF7B6893F826
:10178000203019467868FFF799FEFF221F217868FC
:10179000FFF7FAFC0023BB737B6893F821301B0131
:1017A000DAB27B6893F822305B00DBB21344BB7380
:1017B000BB7B1A461D217868FFF7E6FC7868FFF7C7
:1017C00017FE7B689B8C1B0A9BB2DBB21A4620215A
:1017D0007868FFF7D9FC7B689B8CDBB21A46212125
:1017E0007868FFF7D1FC40217868FFF78BFC03464F
:1017F000FB73FB7B43F03F03BB73BB7B1A4640216B
:101800007868FFF7C1FC01217868FFF73EFD7B682F
:1018100001229A610A2002F023F842217868FFF73A
:1018200071FC0346FB73FB7B122B01D1C82304E040
:101830004FF4CA7301E040F2F71318461037BD4663
:1018400080BD000080B584B000AF78607B681A6806
:10185000134B1B689A421FD1786802F074FAF86043
:10186000104B1A68FB6813440E4A13600E4B1B782A
:10187000DBB20133DAB20C4B1A700B4B1B78DBB2C4
:10188000182B03D8786802F053F805E0074B0122C3
:101890001A70786802F00AF900BF1037BD4680BDA3
:1018A0000C0600200402002008020020090200208B
:1018B00080B485B000AFF860B9607A60FB68074A11
:1018C0001A60BB68064A1A607B6880221A6000BFF3
:1018D0001437BD465DF8047B704700BF0C02002042
:1018E000AC02002080B500AF0121074806F05BFA8A
:1018F0000346064A13600121054806F054FA0346E0
:10190000044A136000BF80BDB0EB00080806002049
:10191000B8EB000804060020B0B58EB002AF2E4828
:1019200001F05EF92D4C38462D4B01934FF4806346
:1019300000932C4B4FF400422A49FFF779FB2546D0
:101940003C460FCC0FC50FCC0FC594E8030085E8CB
:101950000300224B4FF4D972DA61204B072283F83F
:1019600020201E4B072283F821201C4B012283F8E4
:1019700022201A4BFF2283F82620184B782283F866
:101980002720164B0A229A84174801F029F9134898
:10199000FFF78AFB1148FFF7ADFE0346C82B07D1BE
:1019A00012210E48FFF729FE104801F019F902E054
:1019B0000F4801F015F942210848FFF7A3FB034641
:1019C00087F82F3097F82F3019460A4801F008F9A8
:1019D00000BF3037BD46B0BDE4E90008E804002090
:1019E0002C0900200000024000EA000814EA000868
:1019F0003CEA00085CEA0008F0B585B004AF654831
:101A000001F0EEF8644B4FF246221A60634BD3E9C3
:101A1000002310461946FFF7EFF803465E4A53606D
:101A20005F4BD3E900015C4B02469A600A46DA60DC
:101A30005C4BD3E90001584B02461A610A465A61D1
:101A4000594BD3E90001544B02469A610A46DA61C8
:101A5000564BD3E90001504B02461A620A465A62BD
:101A6000524BD3E900014C4B02469A620A46DA62B5
:101A70004F4BD3E90001484B02461A630A465A63AA
:101A80004C4BD3E90001444B02469A630A46DA63A1
:101A9000494801F0A5F8404B4FF6FF721A603E4BE3
:101AA000464A5A603C4B464A9A60464ADA603A4B8C
:101AB000434A1A61434A5A61374B4FF040429A6198
:101AC000414ADA61344B3E4A1A623E4A5A62324B0C
:101AD0003B4A9A623B4ADA622F4B4FF040421A630C
:101AE000394A5A632C4B4FF040429A63364ADA63C4
:101AF00036490A684B68541C43F10005334B2246B3
:101B00001A602A465A60324B304A92E8030083E852
:101B10000300304B204A14469C4604F1400E6546B3
:101B200026460FCE28606960AA60EB6010340CF185
:101B3000100C7445F3D10C22002127480AF0FEF95D
:101B4000254B224A92E8030083E80300234B1F4AF7
:101B500092E8030083E80300214B029340230193A2
:101B60000D4B00930823194A1B491E4800F0DEFF65
:101B70001D4801F035F84FF4C873582217491B4827
:101B8000FFF74EFD1A4801F02BF800BF0437BD46A1
:101B9000F0BD00BF78EA000810050020E004002036
:101BA000B0040020B8040020C0040020C8040020B5
:101BB000D0040020D804002094EA0008A4709D3FBF
:101BC000E15D2EE23BDD5E40298C6741500500203F
:101BD000640500206C05002058050020AC0500209D
:101BE000B405002000000020B4EA0008E80400204A
:101BF000CCEA000880B500AF024800F0F1FF00BF5A
:101C000080BD00BF04EB000880B500AF024800F0C3
:101C1000E7FF00BF80BD00BF20EB0008B0B590B06B
:101C200000AF01F0DBFD00F055F800F0A7FA00F07E
:101C30005DFA00F007FA00F02FFA00F0B3F800F0B8
:101C400003F900F02FF900F05BF900F08FF900F0D4
:101C5000C3F90023BB630023FB6307F13803184675
:101C600006F089F80346164A1360FFF73BFE154B52
:101C700007F11C041D460FCD0FC495E8070084E84A
:101C8000070007F11C030021184606F014F803466C
:101C90000D4A13600D4B3C461D460FCD0FC495E811
:101CA000070084E807003B460021184606F003F8C9
:101CB0000346074A136005F0F7FF00BFFDE700BFCA
:101CC000DC0A002040EB0008D40A002068EB000882
:101CD000D80A002080B594B000AF07F1200330226D
:101CE000002118460AF02AF907F10C0300221A60B5
:101CF0005A609A60DA601A610023BB60274B1B6C44
:101D0000264A43F080531364244B1B6C03F080532A
:101D1000BB60BB6800237B60214B1B68204A43F4F7
:101D2000404313601E4B1B6803F440437B607B6899
:101D300001233B624FF480337B620223BB634FF489
:101D40008003FB630C233B6460237B640223BB643E
:101D50000423FB6407F12003184603F08DF90346C2
:101D6000002B01D000F0D4FA0F23FB6002233B616B
:101D700000237B614FF48053BB610023FB6107F1BB
:101D80000C030321184603F0EFFB0346002B01D0A0
:101D900000F0BEFA00BF5037BD4680BD003802409B
:101DA0000070004080B584B000AF3B4600221A604E
:101DB0005A609A60DA60214B214A1A601F4B4FF437
:101DC00080325A601D4B00229A601C4B00221A611F
:101DD0001A4B00221A76194B002283F82020174B49
:101DE0000022DA62154B174A9A62144B0022DA601D
:101DF000124B0122DA61114B002283F830200F4B85
:101E000001225A610D4801F04FFD0346002B01D01D
:101E100000F07EFA01233B6001237B600023BB605E
:101E20003B461946054801F0AFFF0346002B01D0A1
:101E300000F06EFA00BF1037BD4680BD0C060020D2
:101E4000002001400100000F80B500AF124B134A83
:101E50001A60114B124A5A600F4B00229A600E4BC7
:101E60000022DA600C4B4FF480421A610A4B0022C8
:101E70005A61094B00229A61074B0022DA61064B36
:101E800000221A62044802F0B3FF0346002B01D07F
:101E900000F03EFA00BF80BD54060020005800400C
:101EA000A086010080B500AF124B134A1A60114B97
:101EB000124A5A600F4B00229A600E4B0022DA60E1
:101EC0000C4B4FF480421A610A4B00225A61094BB5
:101ED00000229A61074B0022DA61064B00221A6247
:101EE000044802F085FF0346002B01D000F010FAF1
:101EF00000BF80BDA8060020005C0040A086010055
:101F000080B500AF174B184A1A60164B4FF4827217
:101F10005A60144B00229A60124B0022DA60114B77
:101F200000221A610F4B00225A610E4B4FF480229F
:101F30009A610C4B0022DA610A4B00221A62094BAB
:101F400000225A62074B00229A62064B0A22DA628A
:101F5000044803F01BFD0346002B01D000F0D8F924
:101F600000BF80BD7C0800200030014080B500AF7C
:101F7000174B184A1A60164B4FF482725A60144B72
:101F800000229A60124B0022DA60114B00221A6183
:101F90000F4B00225A610E4B4FF400729A610C4BAA
:101FA0000022DA610A4B00221A62094B00225A62AF
:101FB000074B00229A62064B0A22DA62044803F0B9
:101FC000E5FC0346002B01D000F0A2F900BF80BD64
:101FD000D40800200038004080B500AF174B184AE5
:101FE0001A60164B4FF482725A60144B00229A60AA
:101FF000124B0022DA60114B00221A610F4B0022B3
:102000005A610E4B4FF400729A610C4B0822DA6150
:102010000A4B00221A62094B00225A62074B002227
:102020009A62064B0A22DA62044803F0AFFC0346C8
:10203000002B01D000F06CF900BF80BD2C090020FE
:10204000003C004080B500AF114B124A1A60104BA3
:102050004FF4E1325A600E4B00229A600C4B002282
:10206000DA600B4B00221A61094B0C225A61084BB3
:1020700000229A61064B0022DA61054804F0E4FD73
:102080000346002B01D000F043F900BF80BD00BF24
:10209000840900200010014080B500AF114B124AA6
:1020A0001A60104B4FF4E1325A600E4B00229A60D6
:1020B0000C4B0022DA600B4B00221A61094B0C22F8
:1020C0005A61084B00229A61064B0022DA610548EA
:1020D00004F0BAFD0346002B01D000F019F900BF4F
:1020E00080BD00BFCC0900200044004080B582B014
:1020F00000AF00237B60204B1B6B1F4A43F400138F
:1021000013631D4B1B6B03F400137B607B68002281
:1021100005210C2002F028F90C2002F041F90022E0
:1021200005210D2002F020F90D2002F039F90022DE
:1021300005210F2002F018F90F2002F031F90022DA
:102140000521102002F010F9102002F029F90022D8
:102150000521112002F008F9112002F021F90022D6
:1021600005212F2002F000F92F2002F019F900BFFD
:102170000837BD4680BD00BF0038024080B58AB038
:1021800000AF07F1140300221A605A609A60DA6007
:102190001A6100233B613D4B1B6B3C4A43F0040337
:1021A00013633A4B1B6B03F004033B613B69002351
:1021B000FB60364B1B6B354A43F080031363334B94
:1021C0001B6B03F08003FB60FB680023BB602F4B9D
:1021D0001B6B2E4A43F0010313632C4B1B6B03F064
:1021E0000103BB60BB6800237B60284B1B6B274A45
:1021F00043F002031363254B1B6B03F002037B6068
:102200007B6800220721224802F0D8FD00224FF40B
:102210000441204802F0D2FD4FF460437B6100236B
:10222000BB610123FB6107F1140319461A4802F050
:1022300041FC01237B610023BB610123FB6107F1AA
:1022400014031946134802F035FC07237B61012370
:10225000BB610023FB6100233B6207F114031946B5
:102260000B4802F027FC4FF404437B610123BB6160
:102270000023FB6100233B6207F114031946054864
:1022800002F018FC00BF2837BD4680BD0038024070
:1022900000040240000002400008024080B582B005
:1022A00000AF78607868FFF7CDFA00BF0837BD4609
:1022B00080BD80B582B000AF7860FFF72DFBFFF7DF
:1022C0009BFB4FF4FA6005F042FD00BFF7E780B5D5
:1022D00082B000AF7860FFF78DFCFFF795FC4FF4FC
:1022E0007A7005F034FD00BFF7E7000080B582B0DA
:1022F00000AF78607B681B68044A934201D101F00B
:102300008FFA00BF0837BD4680BD00BF00080040FF
:1023100080B400AF72B600BF00BFFDE780B485B0E7
:1023200000AF786039600023FB7310E0FB7B3A68F4
:1023300013441978FB7B7A6813441A78FB7B38685E
:1023400003444A40D2B21A70FB7B0133FB73FB7B20
:102350000F2BEBD900BF00BF1437BD465DF8047BDF
:10236000704780B483B000AF0346FB7197F9073024
:10237000002B01DA1B2200E0002297F907305B00F6
:102380005BB253405BB2DBB218460C37BD465DF81A
:10239000047B704780B584B000AF78600123FB7385
:1023A000102279683E4809F0C8FE1023BB736FE025
:1023B000BB7B03F00F03002B58D1BB7B384A981826
:1023C000BB7B103B364A13441022194609F0B5FE78
:1023D000FB7B002B01D11B23FB73BB7B304AD15C01
:1023E000BB7B033B2E4AD35C1A462E4B9A5CFB7B8D
:1023F0005340DAB2BB7B4A40D1B2294AD154BB7BAD
:102400000133274AD15CBB7B023B254AD35C1A4689
:10241000244B9A5CBB7B01334A40D1B2204AD15451
:10242000BB7B02331E4AD15CBB7B013B1C4AD35CA5
:102430001A461C4B9A5CBB7B02334A40D1B2184A05
:10244000D154BB7B0333164AD15CBB7B043B144A9B
:10245000D35C1A46134B9A5CBB7B03334A40D1B220
:102460000F4AD154FB7B5B00FB730EE0BB7B0C4A35
:1024700013441968BB7B043B094A13441A68BB7BAD
:10248000074803444A401A6000BFBB7B0433BB7358
:10249000BB7BAF2B8CD900BF00BF1037BD4680BDC2
:1024A000E00A0020C0EB000880B582B000AF034610
:1024B0003960FB71FB791B011A46054B13443968DF
:1024C0001846FFF72BFF00BF0837BD4680BD00BF91
:1024D000E00A002080B485B000AF78600023FB7371
:1024E0000DE0FB7B7A6813441B781946FB7B7A6806
:1024F0001344084A525C1A70FB7B0133FB73FB7B6D
:102500000F2BEED900BF00BF1437BD465DF8047B2A
:10251000704700BFC0EB000880B485B000AF7860A2
:102520007B685B78FB737B6804335A787B685A70EE
:102530007B6803F108027B68043352785A707B6829
:1025400003F10C027B68083352785A707B680C33B5
:10255000FA7B5A707B689B78FB737B6808339A78A8
:102560007B689A707B680833FA7B9A707B680433C7
:102570009B78FB737B6803F10C027B6804339278D1
:102580009A707B680C33FA7B9A707B68DB78FB73FC
:102590007B680C33DA787B68DA707B6803F10802B9
:1025A0007B680C33D278DA707B681A1D7B6808333D
:1025B000D278DA707B680433FA7BDA7000BF1437A4
:1025C000BD465DF8047B704780B584B000AF78608D
:1025D0000023FB7377E0FB7B9B007A681A4407F1CA
:1025E000080312681A60FA7A7B7A5340DBB2FB72F6
:1025F0007A7A3B7A5340DBB27B723A7ABB7A5340A9
:10260000DBB23B723B7A1846FFF7ABFE0346BB7268
:102610007B7A1846FFF7A5FE03461A463B7A5340DD
:10262000DBB23B72FB7A1846FFF79BFE03467B72D8
:102630003A7AFB7A5340DBB23B72397AFB7B9B00E0
:102640007A6813441A78FB7B9B00786803444A40FD
:10265000D2B21A703A7ABB7A5340DBB23B72397A03
:10266000FB7B9B007A6813445A78FB7B9B0078685D
:1026700003444A40D2B25A703A7A7B7A5340DBB272
:102680003B72397AFB7B9B007A6813449A78FB7B18
:102690009B00786803444A40D2B29A703A7ABB7A77
:1026A0005340DBB23B72397AFB7B9B007A68134460
:1026B000DA78FB7B9B00786803444A40D2B2DA7038
:1026C000FB7B0133FB73FB7B032B84D900BF00BF73
:1026D0001037BD4680BD80B584B000AF78603960EA
:1026E0003B68BB607A683B689A4204D010227968E4
:1026F000B86809F022FD0023FB7318E0FB7B396802
:102700001846FFF7D1FE3868FFF7E4FEB868FFF718
:1027100003FFFB7B0133FB73FB7B0A2B03D0B86801
:10272000FFF752FF03E039680A20FFF7BDFEFB7B8D
:102730000A2BE3D100BF00BF1037BD4680BD80B477
:1027400085B000AFF860B9601346FB71FB795A1E83
:10275000FA711946FA680A441178BA68D2B2184672
:10276000FB6803444A40D2B21A70BB681B0ABB60C4
:10277000BB68002BEAD100BF00BF1437BD465DF82F
:10278000047B704780B483B000AF78600B46FB7069
:10279000FB787A6813441A780132D2B21A701B7827
:1027A000002B0FD1FB78032B05D8FB780133FB708E
:1027B000FB78032BECD9FB78013BFB70FB78082BF3
:1027C000E6D800E000BF00BF0C37BD465DF8047BD3
:1027D000704780B485B000AF78600023BB600023F1
:1027E000FB6011E0BB681B027968FA680A44127842
:1027F0001343BB60BB6859087A68FB681344CAB2CC
:102800001A70FB680133FB60FB680F2BEAD9BB68C9
:1028100003F00103002B07D07B681B7883F01E03B5
:10282000DB43DAB27B681A7000BF1437BD465DF82F
:10283000047B7047B0B588B000AF7860396007F1AD
:102840000C0300221A605A609A60DA600023BB779A
:102850001DE08023FB7714E0BB7F7A6813441A786D
:10286000FB7F1340DBB2002B05D007F10C031946A8
:102870003868FFF753FD3868FFF7ABFFFB7F5B0855
:10288000FB77FB7F002BE7D1BB7F0133BB77BB7F9F
:102890000F2BDED93B681D4607F10C040FCC2860D6
:1028A0006960AA60EB6000BF2037BD46B0BD80B54F
:1028B00084B000AFF860B9607A603B603B7E002B6B
:1028C00018D0FB687968B86898470DE03B7E7A6855
:1028D000134419783B7E3A6813441A783B7EF869B2
:1028E00003444A40D2B21A703B7E5A1E3A76002BFD
:1028F000ECD100E000BF1037BD4680BD80B586B08A
:1029000000AFF860B9607A603B60BB681B093B614F
:10291000FB687B610AE0396A7869FFF7FFFC3B6876
:10292000396A786898477B6910337B613B695A1E26
:102930003A61002BEFD1BB6803F00F033B613B69A9
:10294000002B17D00DE03A6A3B69134419787A6975
:102950003B6913441A78386A3B6903444A40D2B24F
:102960001A703B695A1E3A61002BECD13B68396AF8
:102970007868984700BF1837BD4680BD90B593B0C2
:1029800002AFF8607A603B600B46FB723B681B0944
:10299000FB630F2387F83B303A687968386D09F09C
:1029A000CCFBFB6807F12404186859689A68DB6857
:1029B0000FC4FB7A082B14D0082B26DC022B1BD06B
:1029C000052B22D197F82C3003F07F03DBB287F878
:1029D0002C3097F8303003F07F03DBB287F83030CB
:1029E00013E097F8333063F07F03DBB287F83330BE
:1029F000002387F83B3008E097F83B2007F12403D9
:102A000011461846FFF7BEFE00BF3B6D7B6318E022
:102A100007F1140207F1240311461846FFF75BFE85
:102A200007F11403796B1846FFF778FC97F83B2001
:102A300007F1240311461846FFF7A4FE7B6B103301
:102A40007B63FB6B5A1EFA63002BE1D13B68DBB260
:102A500003F00F03DBB207F1240007F124017A6BC6
:102A6000019200937B6B02460348FFF720FF00BFF3
:102A70004437BD4690BD00BFD726000880B58AB058
:102A800002AFF860B9607A603B6007F11003002282
:102A90001A605A609A60DA603B68D90007F1100347
:102AA00007221846FFF74BFEBB6AD90007F1100357
:102AB0000F221846FFF743FEFB6A00930D4BFA689E
:102AC0003968B868FFF71AFFFB6A0093094BFA6888
:102AD000B96A7868FFF712FF07F11000FB6A0093EC
:102AE000044BFA681021FFF709FF00BF2037BD46ED
:102AF00080BD00BF3528000880B584B000AFF86005
:102B0000B9607A603B60F868FFF744FC79687868E0
:102B1000FFF7E1FD0C22B968386809F00EFB3B684D
:102B20000F3301221A701037BD4680BDB0B594B086
:102B300002AFF860B9607A603B603A6EFB6D134497
:102B40007B6407F1340300221A605A609A60DA60ED
:102B500007F1240300221A605A609A60DA6007F1D4
:102B6000140300221A605A609A60DA6007F1340395
:102B700007F12402B968F868FFF7BEFF07F13400D7
:102B80003B6E0093FB6DBA6D0221FFF7F7FE07F174
:102B9000340207F1340311461846FFF79CFD07F194
:102BA000240007F114030193FB6D00933B683A6E18
:102BB0007968FFF763FF07F1140207F13403114648
:102BC0001846FFF7ABFB7B6C1D4607F114040FCCD6
:102BD00028606960AA60EB6000BF4837BD46B0BDA1
:102BE0000FB480B582B000AF07F114033B603B68BF
:102BF0003A694FF480710C4809F092F978607B686B
:102C0000B3F5807F02DD4FF480737B607B689AB2FE
:102C100064230549054804F067F800BF0837BD463E
:102C2000BDE8804004B07047900B0020840900206C
:102C300080B582B000AF00237B60124B5B6C114A01
:102C400043F4804353640F4B5B6C03F480437B601D
:102C50007B6800233B600B4B1B6C0A4A43F080539C
:102C60001364084B1B6C03F080533B603B680022ED
:102C70000F216FF0010001F077FB00BF0837BD4660
:102C800080BD00BF0038024080B58AB000AF7860D8
:102C900007F1140300221A605A609A60DA601A6120
:102CA0007B681B681B4A93422FD100233B611A4B60
:102CB0005B6C194A43F480735364174B5B6C03F4E9
:102CC00080733B613B690023FB60134B1B6B124A13
:102CD00043F001031363104B1B6B03F00103FB6014
:102CE000FB6802237B610323BB610023FB6107F1C7
:102CF00014031946094801F0DDFE002205211220C7
:102D000001F032FB122001F04BFB00BF2837BD461B
:102D100080BD00BF0020014000380240000002409A
:102D200080B58CB000AF786007F11C0300221A60F8
:102D30005A609A60DA601A617B681B684F4A934256
:102D400040F0AA800023BB614D4B1B6B4C4A43F003
:102D5000020313634A4B1B6B03F00203BB61BB69A5
:102D60004FF48063FB6112233B6200237B620323E9
:102D7000BB620423FB6207F11C031946414801F0C2
:102D800099FE4FF40073FB6112233B6200237B62C8
:102D90000323BB620923FB6207F11C031946394870
:102DA00001F088FE00237B61354B1B6C344A43F4F1
:102DB00080031364324B1B6C03F480037B617B69DB
:102DC000314B324A1A60304B4FF060625A602E4BE2
:102DD00000229A602C4B0022DA602B4B4FF4806269
:102DE0001A61294B00225A61274B00229A61264B17
:102DF0000022DA61244B00221A62234B00225A621D
:102E0000214801F0DBFA0346002B01D0FFF780FADE
:102E10007B681D4A9A631C4A7B6893631C4B1D4A5E
:102E20001A601B4B4FF060625A60194B40229A6047
:102E3000174B0022DA60164B4FF480621A61144B74
:102E400000225A61124B00229A61114B0022DA6172
:102E50000F4B00221A620E4B00225A620C4801F0FE
:102E6000ADFA0346002B01D0FFF752FA7B68084AFF
:102E70005A63074A7B689363BCE000BF0058004078
:102E80000038024000040240FC060020406002407E
:102E90005C070020B86002407B681B68574A934279
:102EA00040F0A88000233B61554B1B6B544A43F014
:102EB00001031363524B1B6B03F001033B613B693E
:102EC0000023FB604E4B1B6B4D4A43F00203136320
:102ED0004B4B1B6B03F00203FB60FB684FF48073EA
:102EE000FB6112233B6200237B620323BB6204234A
:102EF000FB6207F11C031946424801F0DBFD4FF469
:102F00008073FB6112233B6200237B620323BB625D
:102F10000923FB6207F11C0319463B4801F0CAFD77
:102F20000023BB60364B1B6C354A43F4000313642B
:102F3000334B1B6C03F40003BB60BB68334B344A58
:102F40001A60324B4FF000725A60304B00229A6088
:102F50002E4B0022DA602D4B4FF480621A612B4B0E
:102F600000225A61294B00229A61284B0022DA6123
:102F7000264B00221A62254B00225A62234801F098
:102F80001DFA0346002B01D0FFF7C2F97B681F4AE8
:102F90009A631E4A7B6893631E4B1F4A1A601D4B3F
:102FA0004FF0C0625A601B4B40229A60194B0022BE
:102FB000DA60184B4FF480621A61164B00225A6196
:102FC000144B00229A61134B0022DA61114B00224C
:102FD0001A62104B00225A620E4801F0EFF90346C4
:102FE000002B01D0FFF794F97B680A4A5A63094A1B
:102FF0007B68936300BF3037BD4680BD005C0040F6
:10300000003802400000024000040240BC070020DB
:10301000286002401C0800207060024080B58EB01D
:1030200000AF786007F1240300221A605A609A60AA
:10303000DA601A617B681B68534A934234D10023DB
:103040003B62524B5B6C514A43F4805353644F4B89
:103050005B6C03F480533B623B6A0023FB614B4B88
:103060001B6B4A4A43F001031363484B1B6B03F08D
:103070000103FB61FB69F0237B620223BB62002337
:10308000FB6203233B6305237B6307F1240319469B
:103090003F4801F00FFD00220521232001F064F9D3
:1030A000232001F07DF96BE07B681B68394A93426D
:1030B0002DD10023BB61354B1B6C344A43F4804354
:1030C0001364324B1B6C03F48043BB61BB69002368
:1030D0007B612E4B1B6B2D4A43F0020313632B4B7A
:1030E0001B6B03F002037B617B694FF460437B62DF
:1030F0000223BB620023FB6203233B6305237B6344
:1031000007F124031946244801F0D4FC38E07B6819
:103110001B68224A934233D100233B611B4B1B6C3B
:103120001A4A43F400431364184B1B6C03F4004326
:103130003B613B690023FB60144B1B6B134A43F05C
:1031400002031363114B1B6B03F00203FB60FB686C
:1031500038237B620223BB620023FB6203233B63B1
:1031600006237B6307F1240319460B4801F0A2FCF8
:1031700000220521332001F0F7F8332001F010F987
:1031800000BF3837BD4680BD0030014000380240E6
:10319000000002400038004000040240003C0040B3
:1031A00080B58CB000AF786007F11C0300221A6074
:1031B0005A609A60DA601A617B681B68644A9342BD
:1031C00034D10023BB61634B5B6C624A43F0100354
:1031D0005364604B5B6C03F01003BB61BB6900235D
:1031E0007B615C4B1B6B5B4A43F002031363594BDF
:1031F0001B6B03F002037B617B69C023FB6102232D
:103200003B6200237B620323BB620723FB6207F15F
:103210001C031946504801F04DFC002205212520D1
:1032200001F0A2F8252001F0BBF88DE07B681B6857
:103230004A4A934240F0888000233B61454B1B6C17
:10324000444A43F400331364424B1B6C03F40033D1
:103250003B613B690023FB603E4B1B6B3D4A43F0E7
:10326000010313633B4B1B6B03F00103FB60FB6823
:103270000C23FB6102233B6200237B620323BB62BE
:103280000723FB6207F11C031946354801F012FCC5
:10329000344B354A1A60334B4FF000625A60314B61
:1032A00040229A602F4B0022DA602E4B4FF480624E
:1032B0001A612C4B00225A612A4B00229A61294B39
:1032C0000022DA61274B00221A62264B00225A6242
:1032D000244801F073F80346002B01D0FFF718F8DB
:1032E0007B68204A9A631F4A7B6893631F4B204A7E
:1032F0001A601E4B4FF000625A601C4B00229A600D
:103300001A4B0022DA60194B4FF480621A61174B96
:1033100000225A61154B00229A61144B0022DA6197
:10332000124B00221A62114B00225A620F4801F020
:1033300045F80346002B01D0FEF7EAFF7B680B4AF5
:10334000DA630A4A7B68936300BF3037BD4680BDAD
:1033500000100140003802400004024000440040D8
:1033600000000240140A0020A0600240740A0020FD
:103370008860024080B58EB000AF78600023FB62A9
:103380000023BB620023FB60334B1B6C324A43F0CB
:1033900004031364304B1B6C03F00403FB60FB68F5
:1033A00007F1100207F114031146184602F0BCFAA7
:1033B0003B6AFB62FB6A002B03D102F08DFA786353
:1033C00004E002F089FA03465B007B637B6B234ACF
:1033D000A2FB03239B0C013BBB62214B214A1A60D9
:1033E0001F4B40F2E732DA601D4ABB6A53601C4B48
:1033F00000221A611A4B00229A60194B00229A612E
:10340000174803F0B3F9034687F8333097F83330A1
:10341000002B1BD1124803F003FA034687F8333020
:1034200097F83330002B11D11E2000F0B9FF7B68D4
:103430000F2B08D8002279681E2000F095FF0A4A59
:103440007B68136002E0012387F8333097F833304C
:1034500018463837BD4680BD0038024083DE1B4326
:10346000900C0020000800401400002080B400AF41
:1034700000BFFDE780B400AF00BFFDE780B400AF40
:1034800000BFFDE780B400AF00BFFDE780B400AF30
:1034900000BFFDE780B400AF00BFBD465DF8047B10
:1034A0007047000080B500AF024801F0C7F800BFC8
:1034B00080BD00BFBC07002080B500AF024801F00E
:1034C000BDF800BF80BD00BFFC06002080B500AF86
:1034D0000348FFF785FB034801F0B0F800BF80BD4B
:1034E0009CEB00081C08002080B500AF024801F0EA
:1034F000A5F800BF80BD00BF740A002080B500AFF2
:10350000024801F09BF800BF80BD00BF140A0020F4
:1035100080B500AF024800F006FB00BF80BD00BFD1
:103520000C06002080B500AF024803F0DBF900BFB5
:1035300080BD00BF900C002080B500AF024802F0B3
:10354000B5FE00BF80BD00BF7C08002080B500AF85
:10355000024803F055FC00BF80BD00BF8409002075
:1035600080B500AF024801F069F800BF80BD00BF20
:103570005C07002080B500AF024802F097FE00BF54
:1035800080BD00BF2C09002080B483B000AF03468B
:10359000FB710F4B1B680E4A43F0807313600D4B99
:1035A0001B680C4A43F00103136000BF4FF06043F7
:1035B0001B6803F00103002BF8D04FF06042FB7949
:1035C000136000BF0C37BD465DF8047B704700BF39
:1035D000FCED00E0000E00E080B400AF01231846CF
:1035E000BD465DF8047B704780B582B000AF78605F
:1035F000396008F075FD034616221A604FF0FF335C
:1036000018460837BD4680BD80B582B000AF7860EF
:103610004FF0FF317868FFF7E7FF00BFFDE780B5A7
:1036200086B000AFF860B9607A6000237B610AE081
:10363000AFF300800146BB685A1CBA60CAB21A7068
:103640007B6901337B617A697B689A42F0DB7B6836
:1036500018461837BD4680BD80B586B000AFF8600B
:10366000B9607A6000237B6109E0BB685A1CBA60CC
:103670001B781846FFF788FF7B6901337B617A6905
:103680007B689A42F1DB7B6818461837BD4680BDDF
:1036900080B483B000AF78604FF0FF3318460C372A
:1036A000BD465DF8047B704780B483B000AF78609E
:1036B00039603B684FF400525A60002318460C37BB
:1036C000BD465DF8047B704780B483B000AF78607E
:1036D000012318460C37BD465DF8047B704780B463
:1036E00085B000AFF860B9607A60002318461437DF
:1036F000BD465DF8047B704780B586B000AF78604A
:10370000144A154BD31A7B617B693B61134B1B68D1
:10371000002B02D1114B124A1A60104B1A687B68B9
:1037200013443A699A4207D208F0DAFC03460C22A5
:103730001A604FF0FF3309E0084B1B68FB60074B32
:103740001A687B681344054A1360FB6818461837EB
:10375000BD4680BD0000022000040000D80C0020FF
:10376000804B002080B400AF064BD3F88830054A68
:1037700043F47003C2F8883000BFBD465DF8047B97
:10378000704700BF00ED00E0DFF834D0FFF7EAFF3C
:103790000C480D490D4A002302E0D458C4500433AC
:1037A000C4188C42F9D30A4A0A4C002301E0136082
:1037B0000432A242FBD308F099FCFEF72FFA7047BF
:1037C0000000022000000020E801002018F100089D
:1037D000E8010020804B0020FEE7000080B500AF2C
:1037E0000E4B1B680D4A43F4007313600B4B1B68B0
:1037F0000A4A43F480631360084B1B68074A43F48A
:1038000080731360032000F0A4FD0F20FFF7B2FDCA
:10381000FFF70EFA0023184680BD00BF003C0240AF
:1038200080B400AF064B1B781A46064B1B68134446
:10383000044A136000BFBD465DF8047B704700BFBB
:1038400018000020DC0C002080B400AF034B1B6884
:103850001846BD465DF8047B704700BFDC0C0020B5
:1038600080B584B000AF7860FFF7EEFFB8607B688A
:10387000FB60FB68B3F1FF3F05D00A4B1B781A468B
:10388000FB681344FB6000BFFFF7DEFF0246BB6826
:10389000D31AFA689A42F7D800BF00BF1037BD4666
:1038A00080BD00BF1800002080B584B000AF7860F4
:1038B0000023FB737B68002B01D1012333E07B687D
:1038C0001B6C002B09D17868FFF7DEF97B680022BA
:1038D0005A647B68002283F83C207B681B6C03F0F1
:1038E0001003002B18D17B681B6C23F4885323F042
:1038F000020343F002027B681A64786800F076FBEA
:103900007B6800225A647B681B6C23F0030343F03E
:1039100001027B681A6401E00123FB737B680022CB
:1039200083F83C20FB7B18461037BD4680BD000065
:1039300080B485B000AF78600023BB607B6893F8EB
:103940003C30012B01D10223A1E07B68012283F8E6
:103950003C207B681B689B6803F00103012B18D097
:103960007B681B689A687B681B6842F001029A605A
:103970004A4B1B684A4AA2FB03239A0C13465B007E
:103980001344BB6002E0BB68013BBB60BB68002B1B
:10399000F9D17B681B689B6803F00103012B69D197
:1039A0007B681B6C23F4E06323F0010343F4807213
:1039B0007B681A647B681B685B6803F48063002B78
:1039C00007D07B681B6C23F4405343F480527B6820
:1039D0001A647B681B6C03F48053B3F5805F06D1D7
:1039E0007B685B6C23F006027B685A6402E07B68AC
:1039F00000225A647B68002283F83C20294BFB603C
:103A00007B681B686FF022021A607B681B685B682A
:103A10007A68126843F0806343F020035360FB68C8
:103A20005B6803F01F03002B0FD17B681B689B684A
:103A300003F04053002B29D17B681B689A687B6890
:103A40001B6842F080429A6020E07B681B68164A3F
:103A500093421BD17B681B689B6803F04053002B8B
:103A600014D17B681B689A687B681B6842F08042AF
:103A70009A600BE07B681B6C43F010027B681A6451
:103A80007B685B6C43F001027B685A640023184634
:103A90001437BD465DF8047B704700BF100000205E
:103AA00083DE1B43002301400020014080B483B02B
:103AB00000AF78607B6893F83C30012B01D1022382
:103AC0002BE07B68012283F83C207B681B689A68A6
:103AD0007B681B6822F001029A607B681B689B6808
:103AE00003F00103002B13D17B681B685B687A68C5
:103AF000126823F0806323F0200353607B681B6C03
:103B000023F4885323F0010343F001027B681A6415
:103B10007B68002283F83C20002318460C37BD4602
:103B20005DF8047B704780B586B000AF78600023F5
:103B30007B6100233B617B681B681B68FB607B68C3
:103B40001B685B68BB60FB6803F002037B61BB68BA
:103B500003F020033B617B69002B49D03B69002BBC
:103B600046D07B681B6C03F01003002B05D17B68EB
:103B70001B6C43F400727B681A647B681B689B684B
:103B800003F04053002B2BD17B681B7E002B27D1E9
:103B90007B681B68DB6A03F47003002B06D07B682C
:103BA0001B689B6803F48063002B19D17B681B683A
:103BB0005A687B681B6822F020025A607B681B6C85
:103BC00023F480727B681A647B681B6C03F4805357
:103BD000002B05D17B681B6C43F001027B681A64E3
:103BE0007868FEF75BFB7B681B686FF012021A6057
:103BF000FB6803F004037B61BB6803F080033B6157
:103C00007B69002B57D03B69002B54D07B681B6C21
:103C100003F01003002B05D17B681B6C43F40052AA
:103C20007B681A647B681B689B6803F44013002B55
:103C300039D17B681B689B6B03F44013002B06D0C3
:103C40007B681B689B6803F48063002B2BD17B6827
:103C50001B685B6803F48063002B24D17B681B68BE
:103C60009B6803F04053002B1DD17B681B7E002B0B
:103C700019D17B681B685A687B681B6822F0800238
:103C80005A607B681B6C23F480527B681A647B68E3
:103C90001B6C03F48073002B05D17B681B6C43F015
:103CA00001027B681A64786800F09CFA7B681B68E4
:103CB0006FF00C021A60FB6803F001037B61BB68C4
:103CC00003F040033B617B69002B17D03B69002B5D
:103CD00014D07B681B681B6803F00103012B0DD116
:103CE0007B681B6C43F480327B681A64786800F050
:103CF00037F87B681B686FF001021A60FB6803F0FD
:103D000020037B61BB6803F080633B617B69002B10
:103D100015D03B69002B12D07B685B6C43F002022C
:103D20007B685A647B681B686FF020021A607868B1
:103D300000F020F87B681B686FF020021A6000BF5B
:103D40001837BD4680BD80B483B000AF78607B6813
:103D50001B68DB6C18460C37BD465DF8047B70476A
:103D600080B483B000AF786000BF0C37BD465DF80B
:103D7000047B704780B483B000AF786000BF0C371D
:103D8000BD465DF8047B704780B485B000AF7860B5
:103D900039600023BB607B6893F83C30012B01D174
:103DA000022313E17B68012283F83C203B681B68F7
:103DB000092B25D97B681B68D9683B681B689BB2B7
:103DC0001A4613465B0013441E3B072202FA03F314
:103DD000DA437B681B680A40DA607B681B68D96835
:103DE0003B689A683B681B689BB2184603465B00B9
:103DF00003441E3B9A407B681B680A43DA6022E05A
:103E00007B681B6819693B681B689BB21A4613469E
:103E10005B001344072202FA03F3DA437B681B6852
:103E20000A401A617B681B6819693B689A683B689D
:103E30001B689BB2184603465B0003449A407B68AC
:103E40001B680A431A613B685B68062B24D87B68B1
:103E50001B68596B3B685A6813469B001344053B2B
:103E60001F2202FA03F3DA437B681B680A405A6395
:103E70007B681B68596B3B681B689BB218463B68A4
:103E80005A6813469B001344053B00FA03F27B6813
:103E90001B680A435A634CE03B685B680C2B24D8D0
:103EA0007B681B68196B3B685A6813469B00134478
:103EB000233B1F2202FA03F3DA437B681B680A40A4
:103EC0001A637B681B68196B3B681B689BB21846BA
:103ED0003B685A6813469B001344233B00FA03F2E5
:103EE0007B681B680A431A6323E07B681B68D96AF6
:103EF0003B685A6813469B001344413B1F2202FA59
:103F000003F3DA437B681B680A40DA627B681B684C
:103F1000D96A3B681B689BB218463B685A681346CF
:103F20009B001344413B00FA03F27B681B680A4381
:103F3000DA62294BFB607B681B68284A93420FD1E9
:103F40003B681B68122B0BD1FB685B6823F40002F3
:103F5000FB685A60FB685B6843F48002FB685A6048
:103F60007B681B681D4A93422BD13B681B681C4A27
:103F7000934203D03B681B68112B22D1FB685B681E
:103F800023F48002FB685A60FB685B6843F400021C
:103F9000FB685A603B681B68114A934211D1114B70
:103FA0001B68114AA2FB03239A0C13469B0013447F
:103FB0005B00BB6002E0BB68013BBB60BB68002BE1
:103FC000F9D17B68002283F83C200023184614377F
:103FD000BD465DF8047B704700230140002001408E
:103FE000120000101000002083DE1B4380B485B057
:103FF00000AF7860794BFB60FB685B6823F440326C
:10400000FB685A60FB685A687B685B681A43FB6808
:104010005A607B681B685A687B681B6822F4807250
:104020005A607B681B6859687B681B691A027B6849
:104030001B680A435A607B681B685A687B681B6868
:1040400022F040725A607B681B6859687B689A68E6
:104050007B681B680A435A607B681B689A687B68A8
:104060001B6822F400629A607B681B6899687B6811
:10407000DA687B681B680A439A607B689B6A584AC7
:10408000934222D07B681B689A687B681B6822F089
:1040900070629A607B681B6899687B689A6A7B6823
:1040A0001B680A439A607B681B689A687B681B6878
:1040B00022F040529A607B681B6899687B68DA6AD4
:1040C0007B681B680A439A600FE07B681B689A68EC
:1040D0007B681B6822F070629A607B681B689A6834
:1040E0007B681B6822F040529A607B681B689A6864
:1040F0007B681B6822F002029A607B681B689968E3
:104100007B681B7E5A007B681B680A439A607B6849
:1041100093F82030002B1BD07B681B685A687B68A3
:104120001B6842F400625A607B681B685A687B68AF
:104130001B6822F460425A607B681B6859687B6880
:104140005B6A013B5A037B681B680A435A6007E0BD
:104150007B681B685A687B681B6822F400625A609F
:104160007B681B68DA6A7B681B6822F47002DA627B
:104170007B681B68D96A7B68DB69013B1A057B6831
:104180001B680A43DA627B681B689A687B681B6855
:1041900022F400729A607B681B6899687B6893F8C8
:1041A00030305A027B681B680A439A607B681B6840
:1041B0009A687B681B6822F480629A607B681B683F
:1041C00099687B685B699A027B681B680A439A60FE
:1041D00000BF1437BD465DF8047B704700230140E3
:1041E0000100000F80B483B000AF786000BF0C37CF
:1041F000BD465DF8047B704780B485B000AF786041
:104200007B6803F00703FB600C4BDB68BB60BA689C
:104210004FF6FF031340BB60FB681A02BB681343F1
:1042200043F0BF6343F40033BB60044ABB68D36010
:1042300000BF1437BD465DF8047B704700ED00E019
:1042400080B400AF044BDB681B0A03F00703184679
:10425000BD465DF8047B704700ED00E080B483B09C
:1042600000AF0346FB7197F90730002B0BDBFB799E
:1042700003F01F02074997F907305B09012000FA94
:1042800002F241F8232000BF0C37BD465DF8047BE5
:10429000704700BF00E100E080B483B000AF034688
:1042A0003960FB7197F90730002B0ADB3B68DAB203
:1042B0000C4997F907301201D2B20B4483F800235E
:1042C0000AE03B68DAB20849FB7903F00F03043BCC
:1042D0001201D2B20B441A7600BF0C37BD465DF80E
:1042E000047B704700E100E000ED00E080B489B09D
:1042F00000AFF860B9607A60FB6803F00703FB6108
:10430000FB69C3F10703042B28BF0423BB61FB69CE
:104310000433062B02D9FB69033B00E000237B61D9
:104320004FF0FF32BB6902FA03F3DA43BB681A406D
:104330007B699A404FF0FF317B6901FA03F3D9435F
:104340007B680B40134318462437BD465DF8047B59
:10435000704780B582B000AF78607868FFF74CFF97
:1043600000BF0837BD4680BD80B586B000AF0346AC
:10437000B9607A60FB7300237B61FFF761FF7861AE
:104380007A68B9687869FFF7B1FF024697F90F308C
:1043900011461846FFF780FF00BF1837BD4680BDA5
:1043A00080B582B000AF0346FB7197F9073018461D
:1043B000FFF754FF00BF0837BD4680BD80B586B00B
:1043C00000AF786000237B61FFF73EFA38617B68BD
:1043D000002B01D1012399E07B68022283F835206C
:1043E0007B68002283F834207B681B681A687B682E
:1043F0001B6822F001021A600FE0FFF725FA02465F
:104400003B69D31A052B08D97B6820225A657B6843
:10441000032283F83520032378E07B681B681B6840
:1044200003F00103002BE8D17B681B681B687B61EC
:104430007A69384B13407B617B685A687B689B685C
:104440001A437B68DB681A437B681B691A437B68E5
:104450005B691A437B689B691A437B68DB691A4373
:104460007B681B6A13437A6913437B617B685B6AD1
:10447000042B07D17B68DA6A7B681B6B13437A696C
:1044800013437B617B681B687A691A607B681B68D1
:104490005B697B617B6923F007037B617B685B6AF7
:1044A0007A6913437B617B685B6A042B17D17B6855
:1044B0009B6A7A6913437B617B68DB6A002B0ED0B1
:1044C000786800F07BFA0346002B08D07B68402216
:1044D0005A657B68012283F83520012316E07B684A
:1044E0001B687A695A61786800F032FA0346FB600B
:1044F0007B68DB6D3F229A40FB689A607B680022F4
:104500005A657B68012283F8352000231846183746
:10451000BD4680BD3F8010F080B584B000AF7860AC
:104520007B689B6DFB60FFF78FF9B8607B6893F841
:104530003530DBB2022B08D07B6880225A657B685D
:10454000002283F83420012352E07B681B681A683C
:104550007B681B6822F016021A607B681B685A6928
:104560007B681B6822F080025A617B681B6C002B01
:1045700003D17B689B6C002B07D07B681B681A6893
:104580007B681B6822F008021A607B681B681A6847
:104590007B681B6822F001021A6013E0FFF754F9F0
:1045A0000246BB68D31A052B0CD97B6820225A65BA
:1045B0007B68032283F835207B68002283F834204F
:1045C000032315E07B681B681B6803F00103002BC5
:1045D000E4D17B68DB6D3F229A40FB689A607B6880
:1045E000012283F835207B68002283F834200023E1
:1045F00018461037BD4680BD80B483B000AF7860E8
:104600007B6893F83530DBB2022B04D07B688022C4
:104610005A6501230CE07B68052283F835207B680E
:104620001B681A687B681B6822F001021A6000236D
:1046300018460C37BD465DF8047B704780B586B0E0
:1046400000AF78600023BB608E4B1B688E4AA2FBD4
:1046500003239B0A7B617B689B6D3B613B691B6805
:10466000FB607B68DB6D08229A40FB681340002BDF
:104670001AD07B681B681B6803F00403002B13D05F
:104680007B681B681A687B681B6822F004021A604A
:104690007B68DB6D08229A403B699A607B685B6DA2
:1046A00043F001027B685A657B68DB6D01229A400A
:1046B000FB681340002B12D07B681B685B6903F01A
:1046C0008003002B0BD07B68DB6D01229A403B6995
:1046D0009A607B685B6D43F002027B685A657B6879
:1046E000DB6D04229A40FB681340002B12D07B68DC
:1046F0001B681B6803F00203002B0BD07B68DB6D8B
:1047000004229A403B699A607B685B6D43F0040227
:104710007B685A657B68DB6D10229A40FB6813400A
:10472000002B43D07B681B681B6803F00803002B39
:104730003CD07B68DB6D10229A403B699A607B68B5
:104740001B681B6803F48023002B18D07B681B6850
:104750001B6803F40023002B08D17B681B6C002B23
:1047600024D07B681B6C786898471FE07B689B6C43
:10477000002B1BD07B689B6C7868984716E07B68A1
:104780001B681B6803F48073002B07D17B681B68D0
:104790001A687B681B6822F008021A607B681B6C31
:1047A000002B03D07B681B6C786898477B68DB6DB7
:1047B00020229A40FB681340002B00F08F807B681A
:1047C0001B681B6803F01003002B00F087807B68D8
:1047D000DB6D20229A403B699A607B6893F8353004
:1047E000DBB2052B36D17B681B681A687B681B68B7
:1047F00022F016021A607B681B685A697B681B6886
:1048000022F080025A617B681B6C002B03D17B680D
:104810009B6C002B07D07B681B681A687B681B6841
:1048200022F008021A607B68DB6D3F229A403B69E8
:104830009A607B68012283F835207B68002283F828
:1048400034207B681B6D002B7ED07B681B6D7868E5
:10485000984779E07B681B681B6803F48023002B72
:104860001DD07B681B681B6803F40023002B0DD14F
:104870007B685B6C002B31D07B685B6C78689847F9
:104880002CE000BF10000020B5814E1B7B68DB6B65
:10489000002B23D07B68DB6B786898471EE07B6831
:1048A0001B681B6803F48073002B0FD17B681B68A7
:1048B0001A687B681B6822F010021A607B6801226C
:1048C00083F835207B68002283F834207B68DB6B1B
:1048D000002B03D07B68DB6B786898477B685B6D47
:1048E000002B32D07B685B6D03F00103002B22D0DC
:1048F0007B68052283F835207B681B681A687B6813
:104900001B6822F001021A60BB680133BB607A6940
:104910009A4207D37B681B681B6803F00103002BD6
:10492000F2D100E000BF7B68012283F835207B686C
:10493000002283F834207B68DB6C002B05D07B6879
:10494000DB6C7868984700E000BF1837BD4680BD33
:1049500080B485B000AF78607B681B68DBB2103B29
:10496000144AA2FB03231B09FB60134AFB68134490
:104970001B781A467B68DA65FB68032B09D97B68CC
:104980001B6823F47F7323F003031A1D7B689A6569
:1049900007E07B681B6823F47F7323F003037A68C6
:1049A00093657B689B6D18461437BD465DF8047BA4
:1049B000704700BFABAAAAAAD8EC000880B485B0A3
:1049C00000AF78600023FB737B689B6ABB607B68E9
:1049D0009B69002B1FD1BB68032B56D801A252F84C
:1049E00023F000BFF5490008074A0008F549000810
:1049F0008B4A00087B68DB6A03F08073002B46D08B
:104A00000123FB7343E07B68DB6AB3F1C07F40D1D5
:104A10000123FB733DE07B689B69B3F5005F21D107
:104A2000BB68032B37D801A252F823F03D4A000897
:104A3000434A00083D4A0008554A00080123FB7319
:104A400030E07B68DB6A03F08073002B25D0012304
:104A5000FB7322E07B68DB6AB3F1C07F1FD10123C7
:104A6000FB731CE0BB68022B03D9BB68032B03D08C
:104A700018E00123FB7315E07B68DB6A03F08073A9
:104A8000002B0ED00123FB730BE000BF0AE000BF38
:104A900008E000BF06E000BF04E000BF02E000BF86
:104AA00000E000BFFB7B18461437BD465DF8047B71
:104AB000704700BF80B489B000AF786039600023D0
:104AC0007B6100233B610023BB610023FB6159E153
:104AD0000122FB6902FA03F37B613B681B687A6978
:104AE00013403B613A697B699A4240F048813B68D8
:104AF0005B6803F00303012B05D03B685B6803F0A0
:104B00000303022B30D17B689B68BB61FB695B00B0
:104B1000032202FA03F3DB43BA691340BB613B682B
:104B2000DA68FB695B0002FA03F3BA691343BB61FD
:104B30007B68BA699A607B685B68BB610122FB692C
:104B400002FA03F3DB43BA691340BB613B685B685D
:104B50001B0903F00102FB6902FA03F3BA6913436C
:104B6000BB617B68BA695A603B685B6803F003030A
:104B7000032B17D07B68DB68BB61FB695B000322FA
:104B800002FA03F3DB43BA691340BB613B689A68DE
:104B9000FB695B0002FA03F3BA691343BB617B68EC
:104BA000BA69DA603B685B6803F00303022B23D128
:104BB000FB69DA087B68083253F82230BB61FB6975
:104BC00003F007039B000F2202FA03F3DB43BA69E9
:104BD0001340BB613B681A69FB6903F007039B0044
:104BE00002FA03F3BA691343BB61FB69DA087B6815
:104BF0000832B96943F822107B681B68BB61FB6906
:104C00005B00032202FA03F3DB43BA691340BB6182
:104C10003B685B6803F00302FB695B0002FA03F385
:104C2000BA691343BB617B68BA691A603B685B6809
:104C300003F44033002B00F0A2800023FB60574BAD
:104C40005B6C564A43F480435364544B5B6C03F4EF
:104C50008043FB60FB68524AFB699B08023352F8B1
:104C60002330BB61FB6903F003039B000F2202FAB0
:104C700003F3DB43BA691340BB617B68494A934243
:104C800019D07B68484A934213D07B68474A9342C5
:104C90000DD07B68464A934207D07B68454A9342D1
:104CA00001D1042308E0072306E0032304E00223E4
:104CB00002E0012300E00023FA6902F003029200FF
:104CC0009340BA691343BB613549FB699B080233C2
:104CD000BA6941F82320384B9B68BB613B69DB43D1
:104CE000BA691340BB613B685B6803F48013002B17
:104CF00003D0BA693B691343BB612F4ABB69936018
:104D00002D4BDB68BB613B69DB43BA691340BB6178
:104D10003B685B6803F40013002B03D0BA693B695E
:104D20001343BB61244ABB69D360234B5B68BB61FF
:104D30003B69DB43BA691340BB613B685B6803F4C2
:104D40000033002B03D0BA693B691343BB611A4A95
:104D5000BB695360184B1B68BB613B69DB43BA6995
:104D60001340BB613B685B6803F48033002B03D0C6
:104D7000BA693B691343BB610F4ABB691360FB69A6
:104D80000133FB61FB690F2B7FF6A2AE00BF00BFB2
:104D90002437BD465DF8047B704700BF00380240F1
:104DA00000380140000002400004024000080240B8
:104DB000000C024000100240003C014080B483B06F
:104DC00000AF78600B467B8013467B707B78002BAE
:104DD00003D07A887B689A6103E07B881A047B6839
:104DE0009A6100BF0C37BD465DF8047B7047000038
:104DF00080B584B000AF78607B68002B01D10123BF
:104E00002BE17B6893F83D30DBB2002B06D17B6849
:104E1000002283F83C207868FDF782FF7B6824221B
:104E200083F83D207B681B681A687B681B6822F04A
:104E300001021A607B681B681A687B681B6842F471
:104E400000421A607B681B681A687B681B6822F442
:104E500000421A6000F040FDF8607B685B68814AA0
:104E6000934207D8FB68804A934294BF01230023F2
:104E7000DBB206E0FB687D4A934294BF0123002326
:104E8000DBB2002B01D00123E7E0FB68784AA2FBEC
:104E900003239B0CBB607B681B685B6823F03F01AE
:104EA0007B681B68BA680A435A607B681B681B6A88
:104EB00023F03F017B685B686A4A934202D8BB6873
:104EC000013309E0BB684FF4967202FB03F3694AB1
:104ED000A2FB03239B0901337A6812680B43136218
:104EE0007B681B68DB6923F44F4222F0FF027B687A
:104EF0005B685C498B4219D8FB68591E7B685B680C
:104F00005B00B1FBF3F3591C40F6FC730B40002B24
:104F10000AD0FB68591E7B685B685B00B1FBF3F34A
:104F20000133C3F30B0351E004234FE07B689B681C
:104F3000002B11D1FB68581E7B6859680B465B003B
:104F40000B44B0FBF3F30133C3F30B03002B0CBF93
:104F500001230023DBB212E0FB68581E7B6859680E
:104F60000B469B000B4499000B44B0FBF3F3013359
:104F7000C3F30B03002B0CBF01230023DBB2002B78
:104F800001D0012322E07B689B68002B0ED1FB68D7
:104F9000581E7B6859680B465B000B44B0FBF3F36B
:104FA0000133C3F30B0343F400430FE0FB68581EC7
:104FB0007B6859680B469B000B4499000B44B0FB7F
:104FC000F3F30133C3F30B0343F4404379680968F7
:104FD0001343CB617B681B681B6823F0C0017B68AF
:104FE000DA697B681B6A1A437B681B680A431A608C
:104FF0007B681B689B6823F4034323F0FF037A68F4
:1050000011697A68D26811437A6812680B43936019
:105010007B681B68DB6823F0FF017B685A697B684B
:105020009B691A437B681B680A43DA607B681B68CC
:105030001A687B681B6842F001021A607B680022D4
:105040001A647B68202283F83D207B6800221A6363
:105050007B68002283F83E20002318461037BD46A7
:1050600080BD00BFA08601007F841E00FF083D00B8
:1050700083DE1B43D34D621080B586B000AF7860ED
:105080007B68002B01D1012367E27B681B6803F07A
:105090000103002B75D0884B9B6803F00C03042B95
:1050A0000CD0854B9B6803F00C03082B12D1824B6C
:1050B0005B6803F48003B3F5800F0BD17E4B1B6854
:1050C00003F40033002B5BD07B685B68002B57D167
:1050D000012342E27B685B68B3F5803F06D1764BE3
:1050E0001B68754A43F4803313601DE07B685B687E
:1050F000B3F5A02F0CD1704B1B686F4A43F480238B
:1051000013606D4B1B686C4A43F4803313600BE0F3
:10511000694B1B68684A23F480331360664B1B6835
:10512000654A23F4802313607B685B68002B13D0EF
:10513000FEF78AFB386108E0FEF786FB02463B6912
:10514000D31A642B01D9032307E25B4B1B6803F4DA
:105150000033002BF0D014E0FEF776FB386108E056
:10516000FEF772FB02463B69D31A642B01D9032375
:10517000F3E1514B1B6803F40033002BF0D100E046
:1051800000BF7B681B6803F00203002B63D04A4B0F
:105190009B6803F00C03002B0BD0474B9B6803F07C
:1051A0000C03082B1CD1444B5B6803F48003002BD9
:1051B00016D1414B1B6803F00203002B05D07B681E
:1051C000DB68012B01D00123C7E13B4B1B6823F0B7
:1051D000F8027B681B69DB00374913430B603AE038
:1051E0007B68DB68002B20D0344B01221A60FEF76D
:1051F0002BFB386108E0FEF727FB02463B69D31A18
:10520000022B01D90323A8E12B4B1B6803F00203F7
:10521000002BF0D0284B1B6823F0F8027B681B6939
:10522000DB00254913430B6015E0244B00221A6074
:10523000FEF70AFB386108E0FEF706FB02463B6911
:10524000D31A022B01D9032387E11B4B1B6803F000
:105250000203002BF0D17B681B6803F00803002BCE
:1052600036D07B685B69002B16D0154B01221A6083
:10527000FEF7EAFA386108E0FEF7E6FA02463B6913
:10528000D31A022B01D9032367E10B4B5B6F03F0A9
:105290000203002BF0D01BE0094B00221A60FEF73E
:1052A000D3FA38610EE0FEF7CFFA02463B69D31A13
:1052B000022B07D9032350E1003802400000474287
:1052C000800E4742884B5B6F03F00203002BEAD14C
:1052D0007B681B6803F00403002B00F09780002319
:1052E000FB75814B1B6C03F08053002B0FD1002307
:1052F000BB607D4B1B6C7C4A43F0805313647A4B3C
:105300001B6C03F08053BB60BB680123FB75774BBC
:105310001B6803F48073002B18D1744B1B68734A0D
:1053200043F480731360FEF78FFA386108E0FEF7EC
:105330008BFA02463B69D31A022B01D903230CE1F5
:105340006A4B1B6803F48073002BF0D07B689B686A
:10535000012B06D1644B1B6F634A43F001031367B3
:105360001CE07B689B68052B0CD15F4B1B6F5E4A72
:1053700043F0040313675C4B1B6F5B4A43F001036C
:1053800013670BE0584B1B6F574A23F00103136759
:10539000554B1B6F544A23F0040313677B689B68CB
:1053A000002B15D0FEF750FA38610AE0FEF74CFAF0
:1053B00002463B69D31A41F28832934201D9032352
:1053C000CBE0494B1B6F03F00203002BEED014E03F
:1053D000FEF73AFA38610AE0FEF736FA02463B6910
:1053E000D31A41F28832934201D90323B5E03E4BF0
:1053F0001B6F03F00203002BEED1FB7D012B05D1C7
:10540000394B1B6C384A23F0805313647B689B69CB
:10541000002B00F0A180344B9B6803F00C03082B99
:105420005CD07B689B69022B41D1314B00221A6012
:10543000FEF70AFA386108E0FEF706FA02463B6911
:10544000D31A022B01D9032387E0274B1B6803F0F3
:105450000073002BF0D17B68DA697B681B6A1A4302
:105460007B685B6A9B011A437B689B6A5B08013B14
:105470001B041A437B68DB6A1B061B4913434B6002
:105480001B4B01221A60FEF7DFF9386108E0FEF7D6
:10549000DBF902463B69D31A022B01D903235CE0F6
:1054A000114B1B6803F00073002BF0D054E0104B3D
:1054B00000221A60FEF7C8F9386108E0FEF7C4F967
:1054C00002463B69D31A022B01D9032345E0064B60
:1054D0001B6803F00073002BF0D13DE07B689B69F3
:1054E000012B07D1012338E0003802400070004052
:1054F000600047421B4B5B68FB607B689B69012B2C
:1055000028D0FB6803F480027B68DB699A4221D1D2
:10551000FB6803F03F027B681B6A9A421AD1FA6863
:1055200047F6C07313407A68526A9201934211D1D0
:10553000FB6803F440327B689B6A5B08013B1B04F9
:105540009A4207D1FB6803F070627B68DB6A1B0636
:105550009A4201D0012300E0002318461837BD46C7
:1055600080BD00BF0038024080B584B000AF7860D5
:1055700039607B68002B01D10123CCE0684B1B68AC
:1055800003F007033A689A420CD9654B3A68D2B2E5
:105590001A70634B1B6803F007033A689A4201D004
:1055A0000123B8E07B681B6803F00203002B20D0C6
:1055B0007B681B6803F00403002B05D0594B9B68E4
:1055C000584A43F4E05393607B681B6803F0080378
:1055D000002B05D0534B9B68524A43F460439360C1
:1055E000504B9B6823F0F0027B689B684D49134346
:1055F0008B607B681B6803F00103002B44D07B6841
:105600005B68012B07D1474B1B6803F40033002B69
:1056100019D101237FE07B685B68022B03D07B6894
:105620005B68032B07D13F4B1B6803F00073002B13
:1056300009D101236FE03B4B1B6803F00203002BF1
:1056400001D1012367E0374B9B6823F003027B689D
:105650005B68344913438B60FEF7F6F8F8600AE0A4
:10566000FEF7F2F80246FB68D31A41F28832934201
:1056700001D903234FE02B4B9B6803F00C027B689E
:105680005B689B009A42EBD1254B1B6803F0070334
:105690003A689A420CD2224B3A68D2B21A70204B26
:1056A0001B6803F007033A689A4201D0012332E0F5
:1056B0007B681B6803F00403002B08D0194B9B6820
:1056C00023F4E0527B68DB68164913438B607B68E8
:1056D0001B6803F00803002B09D0124B9B6823F4CE
:1056E00060427B681B69DB000E4913438B6000F04E
:1056F00021F802460B4B9B681B0903F00F030A4974
:10570000CB5C22FA03F3094A1360094B1B68184665
:10571000FDF730FE002318461037BD4680BD00BFA0
:10572000003C024000380240C0EC0008100000209D
:10573000140000202DE9B04F90B000AF00237B6330
:105740000023FB6300233B630023BB63594B9B682F
:1057500003F00C03082B0DD0082B00F2A180002BC6
:1057600002D0042B03D09BE0534BBB639BE0534B15
:10577000BB6398E04F4B5B6803F03F037B634D4B8B
:105780005B6803F48003002B28D04A4B5B689B09BD
:1057900000223B627A623B6AC3F308000021474B58
:1057A00003FB01F2002300FB03F31344434AA0FB75
:1057B0000212FA620A46BA62FA6A1344FB627B6B0F
:1057C0000022BB61FA61D7E90623D7E90A01FBF79A
:1057D00063FA02460B461346FB6353E0354B5B68A6
:1057E0009B0900223B617A613B69C3F3080A4FF0D1
:1057F000000B52465B464FF000004FF0000159018C
:1058000041EAD261500102460B46B2EB0A0863EB53
:105810000B094FF000024FF000034FEA891343EAEF
:1058200098634FEA8812B2EB080463EB09054FF066
:1058300000024FF00003EB0043EA5473E200144609
:105840001D4614EB0A033B6045EB0B037B604FF0F6
:1058500000024FF00003D7E9004529468B0221469C
:1058600043EA915321468A02104619467B6B002277
:10587000BB60FA60D7E90223FBF70EFA02460B463B
:105880001346FB630B4B5B681B0C03F003030133F4
:105890005B003B63FA6B3B6BB2FBF3F3BB6302E071
:1058A000054BBB6300BFBB6B18464037BD46BDE828
:1058B000B08F00BF003802400024F40040787D0122
:1058C00080B400AF034B1B681846BD465DF8047BEF
:1058D000704700BF1000002080B500AFFFF7F0FF59
:1058E0000246054B9B689B0A03F007030349CB5C08
:1058F00022FA03F3184680BD00380240D0EC0008BD
:1059000080B500AFFFF7DCFF0246054B9B685B0BE1
:1059100003F007030349CB5C22FA03F3184680BD6A
:1059200000380240D0EC000880B483B000AF78604B
:1059300039607B680F221A60124B9B6803F00302E8
:105940007B685A600F4B9B6803F0F0027B689A609B
:105950000C4B9B6803F4E0527B68DA60094B9B6850
:10596000DB0803F4E0527B681A61074B1B6803F005
:1059700007023B681A6000BF0C37BD465DF8047B28
:10598000704700BF00380240003C024080B582B042
:1059900000AF78607B68002B01D101237BE07B683E
:1059A0005B6A002B08D17B685B68B3F5827F09D006
:1059B0007B680022DA6105E07B6800221A617B685F
:1059C00000225A617B6800229A627B6893F851300A
:1059D000DBB2002B06D17B68002283F85020786868
:1059E000FDF71CFB7B68022283F851207B681B6853
:1059F0001A687B681B6822F040021A607B685B684B
:105A000003F482727B689B6803F404431A437B6847
:105A1000DB6803F400631A437B681B6903F002032D
:105A20001A437B685B6903F001031A437B689B6937
:105A300003F400731A437B68DB6903F038031A43ED
:105A40007B681B6A03F0800342EA03017B689B6A60
:105A500003F400527B681B680A431A607B689B69E9
:105A60001B0C03F004017B685B6A03F010027B6887
:105A70001B680A435A607B681B68DA697B681B688D
:105A800022F40062DA617B6800225A657B68012299
:105A900083F85120002318460837BD4680BD80B5E5
:105AA00088B000AFF860B9603B601346FB80FDF73B
:105AB000CBFEF861FB887B83FB6893F85130DBB247
:105AC000012B01D002232AE1BB68002B02D0FB8806
:105AD000002B01D1012322E1FB6893F85030012B08
