:020000040800F2
:10000000000002206DD400082DA8000835A80008C3
:100010003DA8000845A800084DA800080000000001
:10002000000000000000000000000000116F010847
:1000300055A800080000000061710108C97101089D
:10004000BDD40008BDD40008BDD40008BDD400084C
:10005000BDD40008BDD40008BDD40008BDD400083C
:10006000BDD40008BDD40008BDD40008BDD400082C
:10007000BDD4000865A80008BDD40008BDD40008A0
:1000800079A800088DA80008A1A8000800000000B9
:10009000000000000000000000000000BDD40008C7
:1000A000BDD40008BDD40008BDD40008BDD40008EC
:1000B000BDD40008BDD40008B5A80008BDD4000810
:1000C000BDD40008BDD40008BDD40008C9A80008EC
:1000D000BDD40008DDA80008BDD400080000000061
:1000E000BDD40008BDD40008BDD400080000000045
:1000F000000000000000000000000000F1A800085F
:1001000000000000BDD40008BDD4000805A9000807
:1001100000000000000000000000000000000000DF
:1001200019A90008BDD400082DA90008BDD40008F5
:10013000BDD4000800000000000000000000000026
:10014000000000000000000000000000BDD4000816
:10015000BDD40008BDD40008BDD40008BDD400083B
:1001600041A9000855A90008000000000000000097
:10017000000000000000000000000000000000007F
:1001800000000000BDD400080000000000000000D6
:08019000BDD40008BDD4000835
:1001A00010B5054C237833B9044B13B10448AFF3B1
:1001B00000800123237010BD7802002000000000A1
:1001C000A805020808B5034B1BB103490348AFF368
:1001D000008008BD000000007C020020A805020885
:1001E00001F0FF01102A2BDB10F0070F08D010F8E8
:1001F000013B013A8B422DD010F0070F42B3F6D1EC
:10020000F0B441EA012141EA014122F007047FF004
:1002100000070023F0E80256083C85EA010586EA5B
:10022000010685FA47F5A3FA87F586FA47F6A5FA97
:1002300087F68EB9EED1F0BC01F0FF0102F00702A3
:1002400032B110F8013B013A83EA010313B1F8D14E
:100250000020704701387047002D06BF354603382F
:10026000073815F0010F07D1013015F4807F02BF68
:10027000013015F4C03F0130F0BC0138704700BFB9
:10028000034613F8012B002AFBD1181A01387047D6
:1002900081F0004102E000BF83F0004330B54FEA37
:1002A00041044FEA430594EA050F08BF90EA020FA4
:1002B0001FBF54EA000C55EA020C7FEA645C7FEA37
:1002C000655C00F0E2804FEA5454D4EB5555B8BF5A
:1002D0006D420CDD2C4480EA020281EA030382EACB
:1002E000000083EA010180EA020281EA0303362D5D
:1002F00088BF30BD11F0004F4FEA01314FF4801C30
:100300004CEA113102D0404261EB410113F0004F41
:100310004FEA03334CEA133302D0524263EB4303F8
:1003200094EA050F00F0A780A4F10104D5F1200E96
:100330000DDB02FA0EFC22FA05F2801841F10001F1
:1003400003FA0EF2801843FA05F359410EE0A5F1C5
:1003500020050EF1200E012A03FA0EFC28BF4CF0F6
:10036000020C43FA05F3C01851EBE37101F00045AC
:1003700007D54FF0000EDCF1000C7EEB00006EEBB9
:100380000101B1F5801F1BD3B1F5001F0CD3490843
:100390005FEA30004FEA3C0C04F101044FEA44529A
:1003A00012F5800F80F09A80BCF1004F08BF5FEA21
:1003B000500C50F1000041EB045141EA050130BD01
:1003C0005FEA4C0C404141EB0101013C28BFB1F513
:1003D000801FE9D291F0000F04BF01460020B1FA5E
:1003E00081F308BF2033A3F10B03B3F120020CDA31
:1003F0000C3208DD02F1140CC2F10C0201FA0CF00F
:1004000021FA02F10CE002F11402D8BFC2F1200C73
:1004100001FA02F120FA0CFCDCBF41EA0C01904029
:10042000E41AA2BF01EB0451294330BD6FEA040472
:100430001F3C1CDA0C340EDC04F11404C4F120025D
:1004400020FA04F001FA02F340EA030021FA04F36F
:1004500045EA030130BDC4F10C04C4F1200220FAC6
:1004600002F001FA04F340EA0300294630BD21FA04
:1004700004F0294630BD94F0000F83F4801306BFCA
:1004800081F480110134013D4EE77FEA645C18BFBE
:100490007FEA655C29D094EA050F08BF90EA020F55
:1004A00005D054EA000C04BF1946104630BD91EA4D
:1004B000030F1EBF0021002030BD5FEA545C05D150
:1004C0004000494128BF41F0004130BD14F580048F
:1004D0003CBF01F5801130BD01F0004545F0FE4103
:1004E00041F470014FF0000030BD7FEA645C1ABF38
:1004F000194610467FEA655C1CBF0B46024650EA6F
:10050000013406BF52EA033591EA030F41F400219A
:1005100030BD00BF90F0000F04BF0021704730B520
:100520004FF4806404F132044FF000054FF00001F5
:1005300050E700BF90F0000F04BF0021704730B5B6
:100540004FF4806404F1320410F0004548BF40428B
:100550004FF000013EE700BF42004FEAE2014FEAE0
:1005600031014FEA02701FBF12F07F4393F07F4FBB
:1005700081F06051704732F07F4208BF704793F0BE
:100580007F4F04BF41F40021704730B54FF46074D1
:1005900001F0004521F000411CE700BF50EA0102D4
:1005A00008BF704730B54FF000050AE050EA01027D
:1005B00008BF704730B511F0004502D5404261EBED
:1005C00041014FF4806404F132045FEA915C3FF42E
:1005D000D8AE4FF003025FEADC0C18BF03325FEACB
:1005E000DC0C18BF033202EBDC02C2F1200300FA7C
:1005F00003FC20FA02F001FA03FE40EA0E0021FAA1
:1006000002F11444BDE600BF70B54FF0FF0C4CF48E
:10061000E06C1CEA11541DBF1CEA135594EA0C0F40
:1006200095EA0C0F00F0DEF82C4481EA030621EA7B
:100630004C5123EA4C5350EA013518BF52EA0335B6
:1006400041F4801143F4801338D0A0FB02CE4FF068
:100650000005E1FB02E506F00042E0FB03E54FF098
:100660000006E1FB03569CF0000F18BF4EF0010E90
:10067000A4F1FF04B6F5007F64F5407404D25FEA8C
:100680004E0E6D4146EB060642EAC62141EA55513F
:100690004FEAC52040EA5E504FEACE2EB4F1FD0C81
:1006A00088BFBCF5E06F1ED8BEF1004F08BF5FEAFF
:1006B000500E50F1000041EB045170BD06F00046B1
:1006C00046EA010140EA020081EA0301B4EB5C045E
:1006D000C2BFD4EB0C0541EA045170BD41F4801156
:1006E0004FF0000E013C00F3AB8014F1360FDEBF7B
:1006F000002001F0004170BDC4F10004203C35DA57
:100700000C341BDC04F11404C4F1200500FA05F3D9
:1007100020FA04F001FA05F240EA020001F000427A
:1007200021F0004110EBD37021FA04F642EB0601F0
:100730005EEA430E08BF20EAD37070BDC4F10C041A
:10074000C4F1200500FA04F320FA05F001FA04F2DE
:1007500040EA020001F0004110EBD37041F10001CA
:100760005EEA430E08BF20EAD37070BDC4F12005D5
:1007700000FA05F24EEA020E20FA04F301FA05F23D
:1007800043EA020321FA04F001F0004121FA04F2E5
:1007900020EA020000EBD3705EEA430E08BF20EAB5
:1007A000D37070BD94F0000F0FD101F000464000EF
:1007B00041EB010111F4801F08BF013CF7D041EA71
:1007C000060195F0000F18BF704703F00046520075
:1007D00043EB030313F4801F08BF013DF7D043EA46
:1007E0000603704794EA0C0F0CEA135518BF95EAFC
:1007F0000C0F0CD050EA410618BF52EA4306D1D183
:1008000081EA030101F000414FF0000070BD50EAA1
:10081000410606BF1046194652EA430619D094EA2B
:100820000C0F02D150EA013613D195EA0C0F05D115
:1008300052EA03361CBF104619460AD181EA030169
:1008400001F0004141F0FE4141F470014FF0000021
:1008500070BD41F0FE4141F4780170BD70B54FF0BC
:10086000FF0C4CF4E06C1CEA11541DBF1CEA13553C
:1008700094EA0C0F95EA0C0F00F0A7F8A4EB05041E
:1008800081EA030E52EA03354FEA013100F0888015
:100890004FEA03334FF0805545EA131343EA1263DE
:1008A0004FEA022245EA111545EA10654FEA002693
:1008B0000EF000419D4208BF964244F1FD0404F54C
:1008C000407402D25B084FEA3202B61A65EB0305A8
:1008D0005B084FEA32024FF480104FF4002CB6EB65
:1008E000020E75EB030E22BFB61A754640EA0C00E5
:1008F0005B084FEA3202B6EB020E75EB030E22BF25
:10090000B61A754640EA5C005B084FEA3202B6EB65
:10091000020E75EB030E22BFB61A754640EA9C0024
:100920005B084FEA3202B6EB020E75EB030E22BFF4
:10093000B61A754640EADC0055EA060E18D04FEAB2
:10094000051545EA16754FEA06164FEAC30343EA52
:1009500052734FEAC2025FEA1C1CC0D111F4801F1F
:100960000BD141EA00014FF000004FF0004CB6E718
:1009700011F4801F04BF01430020B4F1FD0C88BFB7
:10098000BCF5E06F3FF6AFAEB5EB030C04BFB6EBC2
:10099000020C5FEA500C50F1000041EB045170BDB5
:1009A0000EF0004E4EEA113114EB5C04C2BFD4EBE2
:1009B0000C0541EA045170BD41F480114FF0000E66
:1009C000013C90E645EA060E8DE60CEA135594EAE2
:1009D0000C0F08BF95EA0C0F3FF43BAF94EA0C0FE5
:1009E0000AD150EA01347FF434AF95EA0C0F7FF45A
:1009F00025AF104619462CE795EA0C0F06D152EAAE
:100A000003353FF4FDAE1046194622E750EA410691
:100A100018BF52EA43067FF4C5AE50EA41047FF4A2
:100A20000DAF52EA43057FF4EBAE12E74FF0FF3C07
:100A300006E000BF4FF0010C02E000BF4FF0010CD8
:100A40004DF804CD4FEA410C7FEA6C5C4FEA430C51
:100A500018BF7FEA6C5C1BD001B050EA410C0CBFA0
:100A600052EA430C91EA030F02BF90EA020F002002
:100A7000704710F1000F91EA030F58BF994208BF69
:100A800090422CBFD8176FEAE37040F00100704726
:100A90004FEA410C7FEA6C5C02D150EA013C07D17D
:100AA0004FEA430C7FEA6C5CD6D152EA033CD3D0C8
:100AB0005DF8040B704700BF8446104662468C46C2
:100AC0001946634600E000BF01B5FFF7B7FF0028F5
:100AD00048BF10F1000F01BD4DF808EDFFF7F4FF1E
:100AE0000CBF012000205DF808FB00BF4DF808EDA9
:100AF000FFF7EAFF34BF012000205DF808FB00BFCC
:100B00004DF808EDFFF7E0FF94BF012000205DF8ED
:100B100008FB00BF4DF808EDFFF7CEFF94BF0120A2
:100B200000205DF808FB00BF4DF808EDFFF7C4FF9B
:100B300034BF012000205DF808FB00BF4FEA410CE4
:100B40007FEA6C5C02D150EA013C0AD14FEA430CC7
:100B50007FEA6C5C02D152EA033C02D14FF0000004
:100B600070474FF0010070474FEA410212F5001242
:100B700015D211D56FF47873B3EB625212D94FEAE4
:100B8000C12343F0004343EA505311F0004F23FACE
:100B900002F018BF404270474FF00000704750EA23
:100BA000013005D111F0004008BF6FF000407047E0
:100BB0004FF00000704700BF4A0011D212F500123A
:100BC00011D20DD56FF47873B3EB62520ED44FEAA5
:100BD000C12343F0004343EA505323FA02F0704725
:100BE0004FF00000704750EA013002D14FF0FF3063
:100BF00070474FF0000070474FEA4102B2F1E04306
:100C000024BFB3F5001CDCF1FE5C0DD901F0004CF3
:100C10004FEAC0024CEA5070B2F1004F40EB830043
:100C200008BF20F00100704711F0804F21D113F16F
:100C30003872BCBF01F00040704741F480114FEAA8
:100C40005252C2F11802C2F1200C10FA0CF320FA31
:100C500002F018BF40F001004FEAC1234FEAD3234E
:100C600003FA0CFC40EA0C0023FA02F34FEA4303B8
:100C7000CCE77FEA625307D150EA01331EBF4FF041
:100C8000FE4040F44000704701F0004040F0FE405C
:100C900040F40000704700BF80F0004002E000BF59
:100CA00081F0004142001FBF5FEA410392EA030F57
:100CB0007FEA226C7FEA236C6AD04FEA1262D2EBA1
:100CC0001363C1BFD218414048404140B8BF5B42A6
:100CD000192B88BF704710F0004F40F4000020F03F
:100CE0007F4018BF404211F0004F41F4000121F055
:100CF0007F4118BF494292EA030F3FD0A2F101029F
:100D000041FA03FC10EB0C00C3F1200301FA03F1DC
:100D100000F0004302D5494260EB4000B0F5000FFF
:100D200013D3B0F1807F06D340084FEA310102F1BE
:100D30000102FE2A51D2B1F1004F40EBC25008BF70
:100D400020F0010040EA03007047490040EB00003A
:100D5000013A28BFB0F5000FEDD2B0FA80FCACF13B
:100D6000080CB2EB0C0200FA0CF0AABF00EBC25068
:100D700052421843BCBFD0401843704792F0000F56
:100D800081F4000106BF80F400000132013BB5E7A9
:100D90004FEA41037FEA226C18BF7FEA236C21D01F
:100DA00092EA030F04D092F0000F08BF0846704784
:100DB00090EA010F1CBF0020704712F07F4F04D152
:100DC000400028BF40F00040704712F100723CBF65
:100DD00000F50000704700F0004343F0FE4040F48F
:100DE000000070477FEA226216BF08467FEA23634D
:100DF0000146420206BF5FEA412390EA010F40F438
:100E0000800070474FF0000304E000BF10F0004383
:100E100048BF40425FEA000C08BF704743F096436A
:100E200001464FF000001CE050EA010208BF704785
:100E30004FF000030AE000BF50EA010208BF70470C
:100E400011F0004302D5404261EB41015FEA010C21
:100E500002BF84460146002043F0B64308BFA3F119
:100E60008053A3F50003BCFA8CF2083AA3EBC253FB
:100E700010DB01FA02FC634400FA02FCC2F120021A
:100E8000BCF1004F20FA02F243EB020008BF20F051
:100E90000100704702F1200201FA02FCC2F12002B7
:100EA00050EA4C0021FA02F243EB020008BF20EAAC
:100EB000DC7070477BB972B90029BEBF00204FF0CB
:100EC000004106E008BF00281CBF6FF000414FF052
:100ED000FF3000F009BAADF1080C6DE904CE00292D
:100EE00009DB002B1ADB00F083F8DDF804E0DDE914
:100EF000022304B07047404261EB4101002B1BDB31
:100F000000F076F8DDF804E0DDE9022304B04042A9
:100F100061EB4101524263EB43037047524263EB82
:100F2000430300F065F8DDF804E0DDE9022304B0D6
:100F3000404261EB41017047524263EB430300F0D2
:100F400057F8DDF804E0DDE9022304B0524263EB18
:100F50004303704753B94AB9002908BF00281CBF92
:100F60004FF0FF314FF0FF3000F0BEB9ADF1080C8B
:100F70006DE904CE00F03CF8DDF804E0DDE9022381
:100F800004B0704738B50022002304460D46FFF731
:100F9000ADFD28B920462946BDE8384000F00AB822
:100FA000204605F1004100F005F8404261EB4101A7
:100FB00038BD00BFD0B50C4B002206460F46FFF7E8
:100FC00023FBFFF7F9FD0446FFF7A4FA074B0022C5
:100FD000FFF71AFB02460B4630463946FFF75CF92D
:100FE000FFF7EAFD2146D0BD0000F03D0000F041D2
:100FF0002DE9F047089D8E4604468846002B4AD1CD
:101000008A42174662D9B2FA82F64EB1C6F120037F
:1010100001FA06F820FA03F3B74043EA0808B4409F
:101020004FEA174E1FFA87FCB8FBFEF1230C0EFBAC
:10103000118843EA084301FB0CF29A4209D9FB18D4
:1010400001F1FF3080F0EA809A4240F2E7800239F5
:101050003B449A1AA3B2B2FBFEF00EFB102243EA05
:10106000024300FB0CFC9C4509D9FB1800F1FF3240
:1010700080F0D6809C4540F2D3803B44023840EA61
:101080000140A3EB0C0300211DB1F3400022C5E990
:101090000032BDE8F0878B4205D90DB1C5E90001EA
:1010A00000210846F5E7B3FA83F1002946D17345DC
:1010B00002D3824200F20581841A6EEB0302012002
:1010C0009046002DE5D0C5E90048E2E7002A00F08F
:1010D0009080B2FA82F6002E40F0A4808A1A030CA7
:1010E0004FEA174E80B2BCB20121B2FBFEFC0EFBF0
:1010F0001C2243EA024304FB0CF29A4207D9FB1874
:101100000CF1FF3802D29A4200F2E080C4469B1AEA
:10111000B3FBFEF20EFB123340EA034302FB04F47E
:101120009C4207D9FB1802F1FF3002D29C4200F228
:10113000CA8002461B1B42EA0C40A5E7C1F120060B
:101140008B4022FA06F71F430EFA01F420FA06F349
:101150002EFA06FE4FEA1749234300FA01F81FFA58
:1011600087FCBEFBF9F01C0C09FB10EE44EA0E44B0
:1011700000FB0CFEA64502FA01F209D93C1900F168
:10118000FF3A80F09C80A64540F2998002383C44AA
:10119000A4EB0E041FFA83FEB4FBF9F309FB13441E
:1011A0004EEA044403FB0CFCA44508D93C1903F1A6
:1011B000FF3E80F08280A4457FD9023B3C4443EA55
:1011C0000040A4EB0C04A0FB02EC64457346E1462E
:1011D00062D35FD05DB1B8EB030264EB090404FA9B
:1011E00006F622FA01F31E43CC40C5E90064002153
:1011F0004FE7B1FBF2FC010C41EA0E4180B240EA3C
:1012000001423B4638463C46B846BE462026B1FB26
:10121000F7F1A2EB080241EA0C4166E7014618E744
:1012200010462CE7C6F120022EFA02F3B740B14077
:1012300020FA02F24FEA174E0A43B3FBFEF8BCB2A3
:101240000EFB1833110C41EA034108FB04F9B040CE
:1012500089454FEA104380B23ED9791808F1FF3C26
:1012600001D289451FD8A1EB0901B1FBFEF909FBA9
:1012700004F80EFB191192B242EA0142424529D20A
:10128000BA1809F1FF31C4D24245C2D2A9F1020114
:101290003A44BEE7F0459DD2BEEB02036CEB070C6F
:1012A0000138E14696E7A7EB09094944A8F1020C89
:1012B000B1FBFEF909FB04F8DBE773467FE7504614
:1012C00066E70846FDE63B44023A33E7ACF1020C20
:1012D0003B441CE749469CE7A1EB0901C446B1FB2E
:1012E000FEF909FB04F8C4E7704700BFB0B58EB043
:1012F00000AFF860B9603B601346FB80FB6C3B625B
:10130000BB683B61FB88BB823B68BB61B7F8483078
:10131000BB8340F2B113FB62072387F83030072309
:1013200087F83130012387F83230FF2387F83630D1
:10133000642387F837300823BB86012014F031F886
:1013400003467B62FB681D4607F110040FCC0FC5F6
:101350000FCC0FC594E8030085E80300F868383720
:10136000BD46B0BD80B582B000AF78607B6898683C
:101370007B689B89002219460DF02AFC142013F08B
:101380001EFD7B6898687B689B89012219460DF0D9
:101390001FFC0A2013F013FD00BF0837BD4680BDB7
:1013A00080B483B000AF78607B68002B01D100234C
:1013B00000E0012318460C37BD465DF8047B7047FA
:1013C00080B584B000AF78600B46FB70FB7803F00B
:1013D0007F03DBB2BB737B685B696421184614F042
:1013E000A5F90346012B28D17B6818687B689B8888
:1013F000002219460DF0ECFB7B68186907F10E011D
:101400004FF4FA63012211F010F87B68186907F1B4
:101410000F014FF4FA63012211F04BF97B68186851
:101420007B689B88012219460DF0D2FB7B685869C6
:1014300000230022002113F0E7FFFB7B1846103742
:10144000BD4680BD80B584B000AF78600B46FB70B0
:101450001346BB70FB7863F07F03DBB23B73BB7852
:101460007B737B685B696421184614F05FF903465F
:10147000012B1FD17B6818687B689B880022194666
:101480000DF0A6FB7B68186907F10C014FF4FA63B5
:10149000022210F0CAFF7B6818687B689B880122D3
:1014A00019460DF095FB7B68586900230022002146
:1014B00013F0AAFF00BF1037BD4680BD80B586B0CF
:1014C00000AFF8607A601A460B46FB721346BB7297
:1014D000FB7A63F07F03DBB2FB75FB685B69642119
:1014E000184614F023F90346012B28D1FB6818682D
:1014F000FB689B88002219460DF06AFBFB6818699F
:1015000007F117014FF4FA63012210F08EFFFB6818
:101510001869BB7A9AB24FF4FA63796810F085FFC4
:10152000FB681868FB689B88012219460DF050FB88
:10153000FB68586900230022002113F065FF00BFFB
:101540001837BD4680BD80B584B000AF7860396083
:1015500001217868FFF734FF0346BB73BB7BFB7345
:101560003B68002B07D1BB7B23F00703FB737B6831
:1015700000229A6169E03B68012B0CD197F90E308B
:1015800023F007035BB243F001035BB2FB737B689C
:1015900001229A6159E03B68022B0CD197F90E3079
:1015A00023F007035BB243F002035BB2FB737B687B
:1015B00002229A6149E03B68032B0CD197F90E3067
:1015C00023F007035BB243F003035BB2FB737B685A
:1015D00003229A6139E03B68042B0CD197F90E3055
:1015E00023F007035BB243F004035BB2FB737B6839
:1015F00004229A6129E03B68052B0CD197F90E3043
:1016000023F007035BB243F005035BB2FB737B6817
:1016100005229A6119E03B68062B0CD197F90E3030
:1016200023F007035BB243F006035BB2FB737B68F6
:1016300006229A6109E03B68072B0DD1BB7B43F082
:101640000703FB737B6807229A61FB7B1A46012123
:101650007868FFF7F7FE00E000BF1037BD4680BD99
:1016600080B584B000AF78600B46FB7026217868A7
:10167000FFF7A6FE0346BB73FB78002B04D0BB7BB1
:1016800043F00803FB7303E0BB7B23F00803FB7309
:10169000FB7B1A4626217868FFF7D4FE0A200BF060
:1016A00051FF00BF1037BD4680BD000080B596B029
:1016B00000AF7860174A07F1080311465022184618
:1016C00018F09BF87B6893F820301A46012393406A
:1016D0001846FEF72FFF7B6893F82130DB00583364
:1016E0003B44503BD3E90023FFF7B8F802460B46D2
:1016F00010461946FFF738FA0346102BCCBF0123DA
:101700000023DBB219467868FFF7AAFF00BF5837FD
:10171000BD4680BDC005020880B584B000AF7860CA
:1017200039603B68DB045B11FB60FB681B0CFB72E0
:10173000FB7A1A4606217868FFF784FE05200BF035
:1017400001FFFB681B0AFB72FB7A1A4607217868C7
:10175000FFF778FE05200BF0F5FEFB68FB72FB7AC5
:101760001A4608217868FFF76DFE05200BF0EAFEA7
:1017700000BF1037BD4680BD80B584B000AF786033
:1017800039603B680C2B01DD0C233B603B68062B6A
:1017900001DC07233B601E217868FFF711FE03463A
:1017A000FB730A200BF0CEFE3B68DBB21B01DAB202
:1017B000FB7B03F00F03DBB21344BB73BB7B1A4606
:1017C0001E217868FFF73EFE0A200BF0BBFE78680A
:1017D000FFF76CFF00BF1037BD4680BD80B582B0FB
:1017E00000AF78600B46FB70FB781A4609217868D9
:1017F000FFF728FE0A200BF0A5FE00BF0837BD4604
:1018000080BD000080B584B000AF78600B46FB70EF
:101810000023FB73FB782C2B01D82D23FB70FB7866
:10182000F02B01D9F023FB70FB78782B09D8FB78DB
:101830002D3B124A82FB03125210DB17D31AFB73A3
:101840000BE0FB78F02B08D8FB781E330B4A82FBA9
:1018500003129210DB17D31AFB73FB7B2033FB734D
:10186000FB7B1A460B217868FFF7ECFD0A200BF092
:1018700069FE00BF1037BD4680BD00BF6766666663
:1018800080B584B000AF78601E217868FFF798FDBE
:101890000346FB73FB7B43F00703BB73BB7B1A461A
:1018A0001E217868FFF7CEFD0A200BF04BFE00BF2B
:1018B0001037BD4680BD80B582B000AF78600B4662
:1018C000FB70FB781A4639217868FFF7BBFD0A20C8
:1018D0000BF038FE00BF0837BD4680BD80B588B02C
:1018E00000AFF860B96011461A460B46FB7113460B
:1018F000BB80FB689B69FB610121F868FFF723FE51
:101900000E21F868FFF75CFD0346FB76FB7E1A4666
:101910000D21F868FFF796FDFB791A462221F86839
:10192000FFF790FDFB79BA680021F868FFF7C6FD64
:101930000321F868FFF707FE14F0AEFC7861BB885E
:101940004FF47A7202FB03F3184AA2FB03239B09AC
:101950003B611221F868FFF733FD0346FB76FB7EFF
:1019600003F00803002B0AD0FF221221F868FFF7CA
:1019700069FDF969F868FFF7E6FD002311E014F04E
:101980008BFC02467B69D31A3A699A4205D2F969FF
:10199000F868FFF7D8FD012303E0012014F030FBC5
:1019A000D7E718462037BD4680BD00BFD34D621033
:1019B00080B584B000AF78607868FFF7F1FC03462B
:1019C000002B00F0968000217868FFF7BCFD0A200C
:1019D0000BF0B8FD01217868FFF7F2FC0346FB73BA
:1019E0000A200BF0AFFDFB7B63F07F03BB73BB7B77
:1019F0001A4601217868FFF725FD64200BF0A2FD4F
:101A00007B68DB6919467868FFF786FE7B6893F888
:101A1000263019467868FFF7E1FE7B6893F8273097
:101A200019467868FFF7EEFE23220C217868FFF74D
:101A300009FD7868FFF724FF7B6893F8203019468A
:101A40007868FFF799FEFF221F217868FFF7FAFCFC
:101A50000023BB737B6893F821301B01DAB27B68EB
:101A600093F822305B00DBB21344BB73BB7B1A4696
:101A70001D217868FFF7E6FC7868FFF717FE7B68A2
:101A80009B8C1B0A9BB2DBB21A4620217868FFF7B9
:101A9000D9FC7B689B8CDBB21A4621217868FFF762
:101AA000D1FC40217868FFF78BFC0346FB73FB7B7E
:101AB00043F03F03BB73BB7B1A4640217868FFF7B6
:101AC000C1FC01217868FFF73EFD7B6801229A6125
:101AD0000A200BF037FD42217868FFF771FC0346BE
:101AE000FB73FB7B122B01D1C82304E04FF4CA73B4
:101AF00001E040F2F71318461037BD4680BD0000E4
:101B000080B584B000AF78607B681A68134B1B689F
:101B10009A421FD178680BF074FFF860104B1A6876
:101B2000FB6813440E4A13600E4B1B78DBB2013383
:101B3000DAB20C4B1A700B4B1B78DBB2182B03D8A4
:101B400006480BF067FD05E0074B01221A70786824
:101B50000BF014FE00BF1037BD4680BD100F0020F3
:101B600094020020980200209902002080B58CB0D9
:101B700000AF87ED010A444BBB62444B7B62444B90
:101B80003B62444BFB61444BBB6197ED017AD7ED5F
:101B90000A7AB4EEE77AF1EE10FA02DBD7ED077AB3
:101BA0006CE097ED017AD7ED087AB4EEE77AF1EEC2
:101BB00010FA02D8DFED397A60E097ED017AD7EDBF
:101BC000097AB4EEE77AF1EE10FA1EDB97ED077AA8
:101BD000D7ED067A77EE676A97ED0A7AD7ED097A3C
:101BE00037EE677AC6EE877AC7ED037A97ED017A0A
:101BF000D7ED097A37EE677AD7ED037A27EE277AA1
:101C0000D7ED067A77EE277A38E097ED017AD7EDAF
:101C1000087A77EE676A97ED097AD7ED087A37EE9A
:101C2000677AC6EE877AC7ED0B7AD7ED0B7AF5EEB9
:101C3000C07AF1EE10FA02D54FF00003FB62D7ED47
:101C40000B7AB7EE007AF4EEC77AF1EE10FA02DD05
:101C50004FF07E53FB624FF080437B61D7ED050A66
:101C600097ED0B0A1BF0F2F8B0EE407AD7ED067A4A
:101C700067EE877AC7ED047AD7ED047AB0EE670A8B
:101C80003037BD4680BD00BF66668640CDCC4C4037
:101C9000000040400000C842000020410000000059
:101CA00080B500AF054BD3ED007AB0EE670AFFF7C1
:101CB0005DFFF0EE407AB0EE670A80BD9C02002026
:101CC00080B483B000AF7860094A7B6852F8233053
:101CD000012B06D1064A7B68002142F8231001231C
:101CE00000E0002318460C37BD465DF8047B7047C2
:101CF000B402002080B582B000AF00237B6073E0A7
:101D00003E4A7B6852F823203D497B6841F82320F6
:101D10003C4A7B6852F8232038497B6841F82320ED
:101D20004FF4005138480CF03BFF03461946354A42
:101D30007B6842F82310314A7B6852F823203149EE
:101D40007B6851F823309A424BD12C4A7B6852F879
:101D500023202B497B6851F823309A4241D1284AED
:101D60007B6852F8232029497B6851F823309A4236
:101D700018D0234A7B6852F8232024497B6841F815
:101D80002320224A7B6852F82330002B29D1204A95
:101D90007B68C82142F823101E4A7B68012142F863
:101DA00023101EE01A4A7B6852F823305A1E184945
:101DB0007B6841F82320164A7B6852F82330002BB9
:101DC0000FD1134A7B68C82142F823100F4A7B6861
:101DD00052F82330002B04D10F4A7B68012142F8CE
:101DE00023107B6801337B6001227B68934287DB91
:101DF00000BF00BF0837BD4680BD00BF14000020F3
:101E00002800002000000020000802403C000020C4
:101E100050000020B4020020A002002080B485B051
:101E200000AFF860B9607A60FB68074A1A60BB6867
:101E3000064A1A607B6880221A6000BF1437BD46CC
:101E40005DF8047B704700BFC802002068030020D3
:101E500080B500AF444B1B68002B7CD1434B35222F
:101E60001A6043494FF00002424BC1E90023424946
:101E70004FF000024FF48013C1E900233F4938A31B
:101E8000D3E90023C1E900233D4B14221A603C4BE7
:101E90001A68364B1B6813440A333A4A1360364BB0
:101EA00093ED007BB0EE470AF0EE670A1AF058FD9A
:101EB000B0EE407AF0EE607A334B83ED007B2C4B32
:101EC000D3E900233149C1E90023304BD3E90001B4
:101ED0004FF000022E4BFEF797FB02460B462D49B2
:101EE000C1E90023294B93ED007BB0EE470AF0EEE9
:101EF000670A1AF035FDB0EE407AF0EE607A264BB4
:101F000083ED007B214BD3E900232449C1E9002361
:101F1000214BD3E900014FF00002214BFEF774FB87
:101F200002460B461F49C1E90023144BD3E90001C7
:101F30004FF000021C4BFEF791FC02460B461B497A
:101F4000C1E900231A494FF000021A4BC1E90023EE
:101F5000054B01221A6000BF80BD00BFAFF30080B7
:101F6000182D4454FB210940680500206C05002011
:101F7000780500200000B03C800500208805002086
:101F80007005002074050020A0050020A805002091
:101F900000006940B0050020B8050020C005002001
:101FA00000408F40C805002000806640900500205A
:101FB000980500200000F87F80B582B000AF87ED63
:101FC000000BD7E90023D7E90001FEF71DFB02460D
:101FD0000B4643EC172BB0EE470AF0EE670A0837C2
:101FE000BD4680BD80B586B000AFF860B96087EDB2
:101FF000000BFB68002B06DBBB6803F10802BA602C
:10200000D3E9002303E04FF000024FF00003C7E9DB
:10201000042315E0D7E90023D7E90401FEF7F4FA19
:1020200002460B4610461946BB6803F10802BA6027
:10203000D3E90023FEF732F902460B46C7E9042331
:10204000FB68013BFB60FB68002BE3DAD7E9042364
:1020500043EC172BB0EE470AF0EE670A1837BD467F
:1020600080BD80B485B000AF786039607B68D3E90B
:102070000023C7E902233B68D3E900237968C1E95B
:1020800000233968D7E90223C1E9002300BF1437D0
:10209000BD465DF8047B704780B584B000AF7860C2
:1020A00039607B6893ED007B3B6893ED006BB0EE8D
:1020B000461AF0EE661AB0EE470AF0EE670A1AF01A
:1020C000EFFB87ED020B7B68D3E90001D7E9022320
:1020D000FEF7C4FB02460B467968C1E900233B6862
:1020E000D3E90001D7E90223FEF7B8FB02460B460D
:1020F0003968C1E9002300BF1037BD4680BD00002C
:10210000B0B584B000AF87ED000B9FED151B97EDC8
:10211000000B1AF0F9FB87ED020BBC68FB6823F09B
:1021200000454FF00002124B20462946FEF7D4FC32
:102130000346002B0AD097ED001B9FED0B0B17F009
:1021400079FBB0EE407AF0EE607A01E097ED027B29
:10215000B0EE470AF0EE670A1037BD46B0BD00BFCB
:102160000000000000807640000000000080664013
:102170000080664080B582B000AF87ED000B386804
:102180007B6823F000414FF000020A4BFEF7CCFCC5
:102190000346002B03D0084BD3E9002301E0D7E925
:1021A000002343EC172BB0EE470AF0EE670A08371E
:1021B000BD4680BD008056409805002080B588B09F
:1021C00000AF87ED000B4FF000002049C7E9060182
:1021D0003A68796821F00043C7E90423D7E904236A
:1021E000D7E90601FEF758F802460B46C7E9022375
:1021F000D7E902014FF000024FF00003FEF794FC14
:102200000346002B08D0D7E90223D7E90601FEF7E1
:1022100043F802460B4601E0D7E90423C7E904234B
:1022200097ED047B97ED001BB0EE470AF0EE670ACE
:1022300017F000FBB0EE407AF0EE607AB0EE470A9D
:10224000F0EE670A2037BD4680BD00BF0000B03FFA
:10225000B0B592B000AF87ED080BF861B96100230B
:10226000FB6207F12C0318469FED4D1B97ED080B01
:102270001AF070FF87ED100B4B4BD3E90023D7E921
:102280001001FEF7C1F902460B46C7E9102397ED8E
:10229000100B1AF085FD87ED0E0B97ED100B1AF061
:1022A00023FD87ED0C0BFB6A03F00303022B22D006
:1022B000022B37D8002B02D0012B0BD032E0F9696A
:1022C000D7E90E23C1E90023B969D7E90C23C1E995
:1022D000002334E0F969D7E90C23C1E90023BB6B83
:1022E0003B61FB6B83F000437B61BB6997ED047B33
:1022F00083ED007B23E0BB6BBB60FB6B83F0004393
:10230000FB60FB6997ED027B83ED007B3B6B3B60E1
:102310007B6B83F000437B60BB6997ED007B83EDB3
:10232000007B0CE03C6B7B6B83F00045FB69C3E9F1
:102330000045B969D7E90E23C1E9002300BFBB6995
:10234000D3E900014FF000024FF00003FDF7A6FFB4
:1023500002460B46B969C1E90023FB69D3E90001D4
:102360004FF000024FF00003FEF7B6FB0346002BD0
:1023700000D111E0FB6993ED007B97ED081BB0EEF7
:10238000470AF0EE670A17F055FAB0EE407AF0EE21
:10239000607AFB6983ED007B00BF4837BD46B0BD66
:1023A0000000000000805640900500200000000062
:1023B0002DE9B04388B000AF87ED020B87ED001B1D
:1023C0000023FB61D7E90223104623F00041D7E93F
:1023D0000023904623F0004942464B46FEF7A4FBFB
:1023E0000346002B08D007F108023B461146184669
:1023F000FFF737FE0223FB61D7E9002303F0004318
:10240000002B09D0D7E90023144683F00045C7E923
:102410000045FB690133FB6197ED027B97ED006B93
:10242000B0EE461AF0EE661AB0EE470AF0EE670A12
:102430001AF0F0F951EC100B294BD3E90023FEF709
:102440000DFA02460B46C7E90423FB69032B2AD089
:10245000FB69032B33DCFB69012B03D0FB69022BE7
:1024600015D02CE097ED027BB0EE471AF0EE671A1C
:102470009FED190B17F0DEF951EC100BD7E904238F
:10248000FDF70AFF02460B46C7E9042318E0D7E927
:1024900004234FF000001349FDF7FEFE02460B46F1
:1024A000C7E904230CE04FF000020E4BD7E904010A
:1024B000FDF7F2FE02460B46C7E9042300E000BF29
:1024C000D7E9042343EC172BB0EE470AF0EE670A76
:1024D0002037BD46BDE8B0830000000000806640A4
:1024E00090050020008056402DE9B04F2DED048B63
:1024F00088B000AFF86187ED040B87ED021BBC4B81
:102500001B68002B01D1FFF7A3FCF969D7E904236D
:10251000C1E90023F969D7E90223C1E90223FB6974
:10252000D3E902234FF00000B249FDF7B5FE0246A1
:102530000B46F969C1E90423FB69D3E90245FB694C
:10254000D3E902234FF000004FF08041FDF7A4FED5
:1025500002460B4620462946FEF756F802460B4631
:10256000F969C1E90623FB69D3E90645FB6993EDE7
:10257000047BB0EE470AF0EE670AFFF71DFD53EC4F
:10258000102B20462946FEF769F902460B46F969E9
:10259000C1E90823FB69D3E90245FB69D3E90223BA
:1025A0004FF000004FF08041FDF776FE02460B46EB
:1025B00020462946FEF752F902460B46F969C1E961
:1025C0000A23FB69D3E90001FB69D3E90423FEF781
:1025D0001BF802460B46F969C1E90C23FB6993ED30
:1025E000007BB0EE470AF0EE670AFFF7E5FC55EC1A
:1025F000104BFB6993ED0C7BB0EE470AF0EE670AD7
:10260000FFF7DAFCB0EE409AF0EE609AFB69D3E98E
:1026100006014FF000024FF00003FEF75DFA03469B
:10262000002B51D1FB69D3E906014FF000024FF0B6
:102630000003FEF779FA0346002B17D0FB6993EDF0
:10264000067BB0EE470AF0EE670A1AF089F9B0EEA1
:10265000407AF0EE607AB0EE470AF0EE670A1AF0C0
:10266000DBF8B0EE408AF0EE608A18E0FB69D3E94F
:1026700006233A6083F000437B6097ED000B1AF06D
:102680006FF9B0EE407AF0EE607AB0EE470AF0EE05
:10269000670A1AF091F9B0EE408AF0EE608AFB69A1
:1026A000D3E90623924623F0004B4BEC10AB1AF013
:1026B00057F953EC102B51EC180BFEF7CFF80246EC
:1026C0000B461046194602E04FF00000494953EC12
:1026D000192BFDF799FF02460B4620462946FDF7C8
:1026E000DDFD02460B46104619464FF000024FF042
:1026F0008043FEF7B3F802460B46F969C1E90E23A1
:102700003D4BD3E9000134A3D3E90023FDF77CFF5F
:1027100002460B4614461D46FB69D3E90223904648
:1027200023F000499FED2E1B49EC108B1AF099FC09
:1027300059EC108BFB69D3E902014FF000024FF016
:102740008043FEF78BF802460B464FF00000294904
:10275000FDF7A2FD02460B4643EC172B9FED221B13
:10276000B0EE470AF0EE670A1AF0A5FC53EC102B06
:1027700040464946FDF748FF02460B4610461946BB
:102780004FF000024FF08043FEF768F802460B4618
:1027900043EC172BB0EE470AF0EE670A1AF0E0F8A8
:1027A00053EC102B20462946FEF758F802460B46FC
:1027B000F969C1E91023F86902F0B6F9F86902F085
:1027C00005FAF86902F05EFA00BF2037BD46BDEC9D
:1027D000048BBDE8B08F00BF9A9999999999B93F38
:1027E000FCA9F1D24D62503F000000000000F03F14
:1027F000680500200000F03FB80500202DE9B04337
:102800002DED028B98B000AF7863396387ED0A0B2A
:1028100087ED081B87ED062B87ED043B87ED024B08
:102820007A603B6BD3E90023796BC1E906233B6BEC
:10283000D3E90223796BC1E908233B6BD3E90C236D
:10284000796BC1E912233B6BD3E90E23796BC1E9A4
:1028500014233B6BD3E90423796BC1E916237B680E
:10286000002B05D07B6843F4024343F0800301E072
:1028700048F68B337A6BC2F8F83197ED0A0BFFF705
:1028800079FCB0EE407AF0EE607A7B6B83ED007BF2
:10289000796BD7E90823C1E90223796BD7E90623CD
:1028A000C1E90423796BD7E90423C1E90A23796BD1
:1028B000D7E90223C1E90C237B6B93ED007BB0EEDB
:1028C000470AF0EE670AFFF779FCB0EE407AF0EEC7
:1028D000607A07F1400207F1380311461846B0EE5E
:1028E000470AF0EE670AFFF7B3FC7B6BD3E91601EA
:1028F000D7E90E23FDF788FE02460B46C7E90E23F3
:1029000007F1400207F1380311461846FFF7C4FBF0
:102910004E4B93ED007B97ED106BB0EE461AF0EE48
:10292000661AB0EE470AF0EE670A1AF09AFBB0EEAC
:10293000407AF0EE607A87ED107B3B6BD3E9088933
:1029400097ED0E7BB0EE470AF0EE670AFFF734FB17
:1029500053EC102B40464946FDF756FE02460B4607
:10296000104619464FF00002394BFDF797FC02461E
:102970000B4643EC172BB0EE470AF0EE670A19F04E
:10298000EFFFB0EE407AF0EE607A7B6B83ED227B56
:102990007B6BD3E90A01D7E91023FDF735FE024628
:1029A0000B46796BC1E918237B6B93ED0C8B7B6B2A
:1029B000D3E90A01D7E90E23FDF726FE02460B46AE
:1029C00043EC172BB0EE471AF0EE671AB0EE480A48
:1029D000F0EE680A19F064FFB0EE407AF0EE607A2B
:1029E0007B6B83ED1A7BD7E90E23796BC1E91E233C
:1029F0007B6BD3E91801D7E90E23FDF705FE0246EC
:102A00000B46796BC1E92823D7E90E014FF000028C
:102A10004FF00003FEF760F80346002B0BD07B6BF2
:102A2000D3E90C014FF000024FF00003FEF754F819
:102A30000346002B0ED17B6BD3E90C01D7E91023A1
:102A4000FDF7E2FD02460B4607E000BFA0050020AF
:102A50000000F03F4FF00002BC4B796BC1E92A2324
:102A60007B6BD3E92A23796BC1E920237B6B03F1CC
:102A700078027B6B803319461046FFF70DFB7B6BAA
:102A800093ED1A7BB0EE470AF0EE670AFFF794FA6F
:102A900051EC100B3B6BD3E90823FDF7B5FD024663
:102AA0000B46796BC1E91C237B6BD3E91C897B6BDB
:102AB000D3E91C014FF00002A44BFDF7EFFB0246E7
:102AC0000B4643EC172BB0EE470AF0EE670A19F0FD
:102AD00047FF51EC100B4FF000029C4BFDF7DEFB63
:102AE00002460B461046194602460B46FDF7D6FB3A
:102AF00002460B46104619467B6BD3E91C23FDF7B3
:102B0000CDFB02460B4640464946FDF7A7FE02466E
:102B10000B46C7E916237B6BD3F8F83103F00103AA
:102B2000002B7DD097ED160B01F03AFEB0EE407A07
:102B3000F0EE607A7B6B83ED2C7B7B6BF033184679
:102B400097ED160B01F078FE7B6B93ED1E7B7B6B94
:102B500093ED206B7B6BF03306221946B0EE461ADC
:102B6000F0EE661AB0EE470AF0EE670A012001F0B7
:102B70009EFCB0EE407AF0EE607A7B6B83ED327BA8
:102B80007B6B93ED327BB0EE470AF0EE670A1AF0EA
:102B900007F987ED140B7B6B93ED327BB0EE470AA0
:102BA000F0EE670A1AF0A0F887ED120B7B6BD3E901
:102BB0001E01D7E91223FDF727FD02460B4690467A
:102BC00099467B6BD3E92001D7E91423FDF71CFD5F
:102BD00002460B4640464946FDF760FB02460B465F
:102BE000796BC1E924237B6BD3E92001D7E9122358
:102BF000FDF70AFD02460B46904699467B6BD3E9EA
:102C00001E01D7E91423FDF7FFFC02460B464046A0
:102C10004946FDF741FB02460B46796BC1E9262385
:102C20007B6BD3F8F83103F00203002B07D07B6BEA
:102C300003F59473184697ED160B01F061FE7B6B5C
:102C4000D3F8F83103F00403002B2FD097ED160BC7
:102C500001F0BAFEB0EE407AF0EE607A7B6B83ED65
:102C60002E7B7B6B03F5B073184697ED160B01F0C6
:102C7000F7FE7B6B93ED1E7B7B6B93ED206B7B6B89
:102C800003F5B07306221946B0EE461AF0EE661A46
:102C9000B0EE470AF0EE670A012001F008FCB0EE42
:102CA000407AF0EE607A7B6B83ED347B7B6BD3F8FC
:102CB000F83103F00803002B4AD07B6B03F5CC738B
:102CC000194697ED160B386B01F0D2FC7B6BD3E9FC
:102CD0000823144683F000457B6BD3E91823204674
:102CE0002946FDF791FC02460B4614461D4697ED1A
:102CF000160B386B01F0A2FC53EC102B2046294632
:102D0000FDF782FC02460B46796BC1E930237B6BF1
:102D100093ED1E7B7B6B93ED206B7B6B03F5CC738C
:102D200005221946B0EE461AF0EE661AB0EE470AD2
:102D3000F0EE670A012001F0BAFBB0EE407AF0EE47
:102D4000607A7B6B83ED367B02E000BF0000F03FD2
:102D50007B6BD3F8F83103F01003002B4CD07B6B66
:102D600003F5E473194697ED160B386B01F0CCFCB4
:102D70007B6B93ED067BB0EE470AF0EE670AFFF738
:102D80001BF951EC100B7B6BD3E91A23FDF73CFCCC
:102D900002460B46104619467B6BD3E91823FDF714
:102DA00033FC02460B46104619463B6BD3E906231B
:102DB000FDF72AFC02460B46796BC1E938237B6B91
:102DC00093ED1E7B7B6B93ED206B7B6B03F5E473C4
:102DD00006221946B0EE461AF0EE661AB0EE470A21
:102DE000F0EE670A002001F062FBB0EE407AF0EEF0
:102DF000607A7B6B83ED3A7B094BD3E90023796BD7
:102E0000C1E910237B6BD3E91023796BC1E90E2351
:102E100000BF6037BD46BDEC028BBDE8B08300BF8C
:102E20009805002080B58EB000AF7862396287EDDA
:102E3000060B87ED041B87ED022B7A6097ED020BE2
:102E4000FFF75EF987ED020B97ED020BFFF7B6F97E
:102E5000B0EE407AF0EE607A07F1280207F1300315
:102E600011461846B0EE470AF0EE670AFFF7F0F990
:102E700097ED0C7B97ED0A6B7A68B0EE464AF0EE60
:102E8000664AB0EE473AF0EE673A97ED022B97EDBF
:102E9000041B97ED060B396A786AFFF7AFFC00BF99
:102EA0003837BD4680BD00002DE9F04F2DED028B77
:102EB000D3B000AF07F5A476A6F59A76306007F593
:102EC000A470A0F59C70016007F1080181ED000B72
:102ED00007F5A471A1F5A2710A6007F5A472A2F525
:102EE000A47213604FF000024FF00003C7E95023B3
:102EF0004FF000024FF00003C7E94E234FF00002ED
:102F00004FF00003C7E94C234FF000024FF00003DD
:102F1000C7E94A234FF000024FF00003C7E94823F6
:102F20004FF000024FF00003C7E946234FF00002C4
:102F30004FF00003C7E944234FF000024FF00003B5
:102F4000C7E942234FF000024FF00003C7E93E23D8
:102F50004FF000024FF00003C7E93C2307F5A473CC
:102F6000A3F5A2731B68002B01D0802200E0002291
:102F700007F5A473A3F5A4731B68002B02D04FF4CC
:102F8000847300E000231343D7F87821002A02D08D
:102F90004FF4007200E000221343D7F87C21002A8E
:102FA00002D040F2014200E000221343D7F8802112
:102FB000002A02D041F2050200E000221343D7F8B4
:102FC0008421002A03D1D7F88821002A02D042F2B6
:102FD000050200E000221343D7F88C21002A02D01A
:102FE00044F2100200E000221343C7F8CC3007F58A
:102FF000A473A3F59A731B68D3F8F821D7F8CC30E3
:10300000134003F4FF43C7F8CC3007F5A473A3F5CE
:103010009C731B6803F00103002B0FD107F5A47309
:10302000A3F59A731B68D3F8F83103F40063002BFF
:1030300004D1144BD3E9002301F02EB907F5A47392
:10304000A3F59C731B6803F00103002B1ED00E4BED
:10305000D3E9002307F10801D1E90001FDF7D4FA13
:1030600002460B46C7E9402307F1180207F1200387
:1030700007F108010E461146184696ED000BFFF7C2
:10308000E7F8D5E1980500209005002007F5A47326
:10309000A3F59A731B68D3E912AB07F5A473A3F5E4
:1030A0009A731B68D3E92C014FF00002D04BFDF757
:1030B000F5F802460B4650465946FDF7A5FA02467A
:1030C0000B4607F10801D1E90001FDF7C7FB0246F5
:1030D0000B46C7E9302397ED300B19F061FE87ED01
:1030E0002E0B97ED300B19F0FFFD87ED2C0B07F53C
:1030F000A473A3F59A731B68D3E92401D7E92C23A1
:10310000FDF782FA02460B4692469B4607F5A473EA
:10311000A3F59A731B68D3E92601D7E92E23FDF79F
:1031200073FA02460B4650465946FDF7B7F8024679
:103130000B4643EC182B07F5A473A3F59A731B6891
:10314000D3E92601D7E92C23FDF75EFA02460B46A8
:1031500092469B4607F5A473A3F59A731B68D3E9BF
:103160002401D7E92E23FDF74FFA02460B465046BD
:103170005946FDF791F802460B4643EC172B07F52D
:10318000A473A3F59A731B6803F59473062219467A
:10319000B0EE471AF0EE671AB0EE480AF0EE680A91
:1031A000012001F084F953EC102B1146C7F8F810F8
:1031B00083F00043C7F8FC3007F5A473A3F59A73B6
:1031C0001B68D3E93223D7E93E01FDF765F80246D3
:1031D0000B46D7E93001FDF75FF802460B46C7E919
:1031E000402397ED400B19F0DBFDB0EE407AF0EE96
:1031F000607A07F1280303ED027B97ED400B19F08D
:1032000073FDB0EE407AF0EE607A07F1180383EDBB
:10321000007B07F5A473A3F59A731B68D3E9082311
:10322000904623F0004970A3D3E900234046494665
:10323000FDF77AFC0346002B00F0FA8007F5A47333
:10324000A3F59A731B68D3E91E0107F11803D3E9AC
:103250000023FDF7D9F902460B469046994607F53B
:10326000A473A3F59A731B68D3E9200107F128031F
:1032700053E90223FDF7C8F902460B46404649468A
:10328000FDF70CF802460B46C7E92A2307F5A4739D
:10329000A3F59A731B68D3E9200107F11803D3E95A
:1032A0000023FDF7B1F902460B469046994607F513
:1032B000A473A3F59A731B68D3E91E0107F12803D1
:1032C00053E90223FDF7A0F902460B464046494662
:1032D000FCF7E2FF02460B46C7E93A2307F5A47361
:1032E000A3F59A731B68F0330622194697ED3A1B33
:1032F00097ED2A0B012001F0DAF887ED3E0B07F578
:10330000A473A3F59A731B68D3E92C014FF0000254
:10331000374BFCF7C3FF02460B469046994607F52C
:10332000A473A3F59A731B68D3E93223D7E93E014E
:10333000FCF7B2FF02460B4610461946D7E9402378
:10334000FCF7ACFF02460B4640464946FDF75CF9E8
:1033500002460B469046994607F5A473A3F59A7367
:103360001B68D3E9122307F10801D1E90001FDF739
:1033700075FA02460B4640464946FCF78DFF024669
:103380000B46C7E9282307F5A473A3F59A731B68B6
:10339000D3E91C8997ED2A0BFEF70EFE53EC102B98
:1033A00040464946FDF730F902460B46104619469D
:1033B0004FF000020E4BFCF771FF02460B4643EC48
:1033C000172BB0EE470AF0EE670A19F0C9FA53EC72
:1033D000102BD7E92801FDF741FA02460B46D7E941
:1033E000400107E0AFF300807B14AE47E17A843FF1
:1033F0000000F03FFCF750FF02460B46C7E94023B0
:1034000097ED400B19F0CCFCB0EE407AF0EE607A0C
:1034100007F1280303ED027B97ED400B19F064FCE4
:10342000B0EE407AF0EE607A07F1180383ED007B8E
:1034300007F5A473A3F59A731B68D3E91E0107F17E
:103440001803D3E90023FDF7DFF802460B46904648
:10345000994607F5A473A3F59A731B68D3E9200175
:1034600007F1280353E90223FDF7CEF802460B4685
:1034700040464946FCF712FF02460B46C7E92A239D
:1034800007F5A473A3F59A731B68D3E9200107F12C
:103490001803D3E90023FDF7B7F802460B46904620
:1034A000994607F5A473A3F59A731B68D3E91E0127
:1034B00007F1280353E90223FDF7A6F802460B465D
:1034C00040464946FCF7E8FE02460B46C7E93A2368
:1034D00007F5A473A3F59A731B68D3E91C8997EDCC
:1034E0002A0BFEF769FD53EC102B40464946FDF7C9
:1034F0008BF802460B46104619464FF00002844BEB
:10350000FCF7CCFE02460B4643EC172BB0EE470A05
:10351000F0EE670A19F024FA87ED260BD7F8CC20D5
:1035200043F205431340002B52D007F5A473A3F5D3
:103530009C731B6803F00103002B13D107F5A473E0
:10354000A3F59A731B68D3E90823144623F00045BA
:103550006DA3D3E9002320462946FDF7E5FA03468B
:10356000002B10D007F5A473A3F59A731B68F033F2
:103570000622194697ED3A1B97ED2A0B012000F021
:1035800096FF87ED3E0B07F5A473A3F59A731B68AE
:10359000D3E92C014FF000025D4BFCF77FFE0246A1
:1035A0000B4614461D4607F5A473A3F59A731B68D2
:1035B000D3E93223D7E93E01FCF76EFE02460B4603
:1035C00020462946FDF720F802460B46C7E93C2372
:1035D00007F5A473A3F59A731B68D3E91A23D7E9F7
:1035E0002A01FDF711F802460B46C7E9242307F527
:1035F000A473A3F59A731B6893ED188B07F5A47356
:10360000A3F59A731B68D3E91A01D7E93A23FCF7AB
:10361000FBFF02460B4643EC172BB0EE471AF0EEC9
:10362000671AB0EE480AF0EE680A19F039F987ED2A
:10363000380B4FF000024FF00003D7E93801FDF7D7
:103640004BFA0346002B08D0324BD3E90023C7E9DD
:103650003A23D7E93A23C7E9382307F5A473A3F53A
:103660009A731B68D3E91823C7E9222307F5A473CB
:10367000A3F59A731B68D3E91A23D7E93A01FCF73B
:10368000C3FF02460B46C7E92023D7F8CC2040F2FF
:1036900001431340002B45D007F5A473A3F59C7399
:1036A0001B6803F00103002B36D007F5A473A3F5C4
:1036B0009A731B68D3E9124507F5A473A3F59A73AF
:1036C0001B68D3E92C014FF00002114BFCF7E6FD1B
:1036D00002460B4610461946D7E94023FCF794FFF3
:1036E00002460B4610461946D7E93C23FCF7D6FDA7
:1036F00002460B4620462946FCF786FF02460B464B
:103700000EE000BFAFF300807B14AE47E17A843F48
:103710000000F03FA005002007F10803D3E90023D3
:10372000C7E94A23D7F8CC3003F48473002B00F0A8
:10373000928107F5A473A3F59A731B6893ED187B28
:10374000B0EE471AF0EE671A9FEDAB0B16F072F869
:1037500087ED1E0B07F5A473A3F59A731B68D3E9D5
:103760001823D7E92A01FCF74FFF02460B46C7E9A9
:103770001C23D7E93A23C7E91A2307F5A473A3F555
:103780009C731B6803F40043002B7CD097ED3A1B1D
:1037900097ED2A0B19F03EF855EC104B07F5A47382
:1037A000A3F59A731B6893ED1E7B07F5A473A3F52D
:1037B0009A731B6893ED206BB0EE461AF0EE661A12
:1037C000B0EE470AF0EE670A19F024F853EC102B1C
:1037D00020462946FCF760FD02460B46D7E940012A
:1037E000FCF75AFD02460B4614461D46D7E91C233A
:1037F000D7E91E01FCF708FF02460B4643EC172BE6
:1038000097ED1A1BB0EE470AF0EE670A19F002F8BE
:1038100059EC108B07F5A473A3F59A731B68D3E9D1
:103820002801D7E91E23FCF7EFFE02460B4643ECC6
:10383000162B07F5A473A3F59A731B6893ED2A7BE7
:10384000B0EE471AF0EE671AB0EE460AF0EE660ADE
:1038500018F0E0FF53EC102B40464946FCF71CFDE6
:1038600002460B4620462946FCF718FD02460B4649
:1038700010461946D7E91E23FCF7C6FE02460B4642
:1038800043EC172B55E007F5A473A3F59A731B6857
:10389000D3E92A01D7E91C23FCF7B6FE02460B4602
:1038A00014461D4607F5A473A3F59A731B68D3E964
:1038B0002801D7E91A23FCF7A7FE02460B4620464B
:1038C0002946FCF7E9FC02460B4643EC182B07F5AA
:1038D000A473A3F59A731B68D3E92A01D7E91A23C5
:1038E000FCF792FE02460B4614461D4607F5A473EC
:1038F000A3F59A731B68D3E92801D7E91C23FCF7C9
:1039000083FE02460B4620462946FCF7C7FC0246CA
:103910000B4643EC172BB0EE471AF0EE671AB0EEE9
:10392000480AF0EE680A18F075FFB0EE407AF0EE43
:10393000607A87ED187B07F5A473A3F59A731B686B
:10394000D3E9304507F5A473A3F59A731B6803F513
:10395000CC730522194697ED3A1B97ED2A0B0120EF
:1039600000F0A5FD51EC100B07F5A473A3F59A73B5
:103970001B68D3E93623FCF78FFC02460B46104642
:103980001946D7E94023FCF789FC02460B4620463E
:103990002946FCF739FE02460B46D7E91801FCF729
:1039A0007DFC02460B46C7E91623154BD3E90023DD
:1039B000D7E91601FCF752FF02460B46C7E914236C
:1039C00007F5A473A3F59C731B6803F40043002B55
:1039D00018D007F5A473A3F59A731B68D3E9020105
:1039E000D7E91423FCF75AFC02460B4643EC172B8D
:1039F0002FE000BFAFF30080000000000000F03FA8
:103A00009005002007F5A473A3F59A731B6893ED46
:103A1000027BB0EE470AF0EE670AFEF771FB55EC49
:103A2000104B97ED140BFEF76BFB53EC102B20465D
:103A30002946FCF733FC02460B4643EC172BB0EE4D
:103A4000470AF0EE670AFEF75BFBB0EE407AF0EE55
:103A5000607A87ED4E7BD7F8CC3003F08003002BE3
:103A600018D007F5A473A3F59A731B68D3E9160160
:103A7000D7E93823FCF7C8FD02460B4643EC172B69
:103A8000B0EE471AF0EE671A97ED240BFEF790FCA4
:103A900087ED500BD7F8CC3003F40073002B07D020
:103AA00097ED201B97ED220BFEF782FC87ED4C0B68
:103AB000D7F8CC2043F205031340002B00F0B68169
:103AC00007F5A473A3F59A731B6803F5B07307F1A8
:103AD000480214460622194697ED3A1B97ED2A0B29
:103AE000012000F0E4FC84ED000B07F5A473A3F5BE
:103AF0009A731B68D3E92E014FF000025F4BFCF76D
:103B0000CDFB02460B4614461D4607F5A473A3F5EC
:103B10009A731B68D3E9342307F14801D1E9000106
:103B2000FCF7BAFB02460B4607F148010E46204659
:103B30002946FCF769FD02460B4646E9022307F5D4
:103B4000A473A3F59A731B68D3E92C0107F5A4733A
:103B5000A3F59A731B68D3E92E23FCF79DFB02465D
:103B60000B4610461946D7E94023FCF74DFD0246A7
:103B70000B4614461D4607F1480353E90223D7E9D3
:103B80003C01FCF789FB02460B4607F138010E4663
:103B900020462946FCF782FB02460B46C6E9002375
:103BA000D7F8CC2041F205031340002B68D007F56D
:103BB000A473A3F59A731B68D3E9124507F5A473A0
:103BC000A3F59A731B68D3E92001D7E92A23FCF7F0
:103BD0001BFD02460B4610461946D7E92623FCF783
:103BE00013FD02460B4692469B4607F5A473A3F5C8
:103BF0009A731B68D3E9228907F5A473A3F59A7316
:103C00001B68D3E91E01D7E93A23FCF7FDFC024605
:103C10000B4640464946FCF7F7FC02460B46504629
:103C20005946FCF739FB02460B469046994607F584
:103C3000A473A3F59A731B68D3E92001D7E93A234B
:103C4000FCF7E2FC02460B461046194607F1380322
:103C5000D3E90023FCF7D8FC02460B464046494610
:103C6000FCF71AFB02460B4620462946FCF7CCFC23
:103C700002460B46C7E9482302E000BF0000F03FC0
:103C8000D7F8CC2042F205031340002B00F0CE8081
:103C900007F5A473A3F59A731B68D3E91C4507F5D0
:103CA000A473A3F59A731B68D3E91E23D7E92A01ED
:103CB000FCF7F2FA02460B4620462946FCF7A4FC24
:103CC00002460B4614461D4607F5A473A3F59A73E6
:103CD0001B68D3E91E01D7E92A23FCF7DFFA024665
:103CE0000B4620462946FCF78FFC02460B4614463D
:103CF0001D4607F5A473A3F59A731B68D3E9220147
:103D0000D7E92623FCF7CAFA02460B4607F1380129
:103D10000E4620462946FCF7A1FD02460B4646E921
:103D2000022307F138031946D7E92A2351E9020192
:103D3000FCF76AFC02460B4614461D4607F13803A1
:103D4000D3E90023D7E93A01FCF75EFC02460B46B3
:103D500020462946FCF7A0FA02460B4610461946B3
:103D600007F5A473A3F59A731B68D3E91E23FCF728
:103D70004BFC02460B461046194607F5A473A3F503
:103D80009A731B68D3E92223FCF768FD02460B46B1
:103D90001046194607F11803D3E90023FCF77EFA11
:103DA00002460B46C7E9462307F11803D3E900454D
:103DB00007F5A473A3F59A731B68D3E91E0107F1F5
:103DC000380353E90223FCF71FFC02460B469046DA
:103DD000994607F5A473A3F59A731B68D3E92001EC
:103DE00007F13803D3E90023FCF70EFC02460B462B
:103DF00040464946FCF750FA02460B461046194623
:103E0000D7E92A23FCF700FC02460B461046194668
:103E1000D7E92623FCF722FD02460B462046294619
:103E2000FCF73AFA02460B46C7E94423D7F8CC2000
:103E300044F210031340002B00F0888107F5A473AF
:103E4000A3F59A731B6803F5E47307F1280214467F
:103E50000622194697ED3A1B97ED2A0B002000F039
:103E600026FB84ED000B07F5A473A3F59A731B687A
:103E7000D3E91A014FF000024FF00003FCF72CFECB
:103E80000346002B0FD107F5A473A3F59A731B68A3
:103E9000D3E918014FF000024FF00003FCF71CFEBD
:103EA0000346002B48D007F5A473A3F59A731B684B
:103EB000D3E90C01D7E92223FCF7A6FB02460B4607
:103EC00014461D4607F5A473A3F59A731B68D3E93E
:103ED0000A01D7E92023FCF797FB02460B46204650
:103EE0002946FCF7D9F902460B46C7E9362307F500
:103EF000A473A3F59A731B68D3E90C01D7E92023B7
:103F0000FCF782FB02460B4614461D4607F5A473D8
:103F1000A3F59A731B68D3E90A01D7E92223FCF7BA
:103F200073FB02460B4620462946FCF7B7F90246CA
:103F30000B46C7E93423CEE007F5A473A3F59A73C3
:103F40001B68D3E91A0107F5A473A3F59A731B68DC
:103F5000D3E91823FCF758FB02460B4690469946D6
:103F600007F11803D3E900014FF000024FF00003FE
:103F7000FCF7C6FD0346002B31D007F5A473A3F56B
:103F80009A731B68D3E9204507F11803D3E900238E
:103F90004FF00000BC49FCF77FF902460B46204673
:103FA0002946FCF731FB02460B4614461D4607F531
:103FB000A473A3F59A731B68D3E91E0107F12803C4
:103FC00053E90223FCF720FB02460B462046294614
:103FD000FCF764F902460B46104619463AE007F52D
:103FE000A473A3F59A731B68D3E9200107F1280392
:103FF00053E90223FCF708FB02460B4614461D4614
:1040000007F11803D3E900014FF000029E4BFCF7C3
:1040100045F902460B4620462946FCF71FFC02469E
:104020000B461046194607F5A473A3F59A731B684F
:10403000D3E91E23FCF732F902460B461046194617
:1040400007F1280353E90223FCF7DEFA02460B4688
:104050001046194642464B46FCF7D6FA02460B4636
:10406000C7E9362307F5A473A3F59A731B6893ED8C
:10407000187BB0EE470AF0EE670AFDF79DFF55EC9E
:10408000104B07F5A473A3F59A731B6893ED1A7B85
:10409000B0EE470AF0EE670AFDF78EFF51EC100B09
:1040A00007F5A473A3F59A731B68D3E92023FCF7E3
:1040B000ABFA02460B4610461946D7E93A23FCF7FD
:1040C000A3FA02460B4620462946FCF7E7F80246CB
:1040D0000B46C7E9342307F5A473A3F59A731B684D
:1040E000D3E9144597ED341B97ED360B18F092FB8E
:1040F00053EC102B20462946FCF786FA02460B4665
:104100009046994607F5A473A3F59A731B68D3E903
:10411000384507F5A473A3F59A731B68D3E93A23CE
:1041200007F12801D1E90001FCF7B6F802460B4679
:1041300020462946FCF768FA02460B4640464946A7
:10414000FCF7ACF802460B46C7E94223D7F8CC305F
:1041500003F08003002B0FD007F5A473A3F5A2731F
:104160001B68002B08D007F5A473A3F5A273196888
:10417000D7E95023C1E90023D7F8CC3003F4847386
:10418000002B0FD007F5A473A3F5A4731B68002BB5
:1041900008D007F5A473A3F5A4731968D7E94E23D3
:1041A000C1E90023D7F8CC3003F40073002B09D009
:1041B000D7F87831002B05D0D7F87811D7E94C2300
:1041C000C1E90023D7F8CC2040F201431340002B73
:1041D00009D0D7F87C31002B05D0D7F87C11D7E96E
:1041E0004A23C1E90023D7F8CC2041F2050313404C
:1041F000002B09D0D7F88031002B05D0D7F88011DB
:10420000D7E94823C1E90023D7F8CC2042F20503BF
:104210001340002B13D0D7F88431002B05D0D7F8EA
:104220008411D7E94623C1E90023D7F88831002B50
:1042300005D0D7F88811D7E94423C1E90023D7F87E
:10424000CC2044F210031340002B09D0D7F88C3156
:10425000002B05D0D7F88C11D7E94223C1E9002300
:1042600007F5A473A3F59C731B6803F00103002BEF
:104270000ED1064BD3E90023D7E94001FCF7EEFA53
:1042800002460B4608E000BF0000F03F900500200A
:1042900007F10803D3E9002343EC172BB0EE470ADC
:1042A000F0EE670A07F5A677BD46BDEC028BBDE8C8
:1042B000F08F00BFB0B5ADF5147D06AF07F50E74F5
:1042C000A4F50374206007F1280000ED020B07F14C
:1042D000180080ED001B07F1180000ED022B07F518
:1042E0000E70A0F50470016007F1080181ED003B3C
:1042F00007F50E71A1F50D710A6007F50E72A2F5B2
:104300000E72136007F50E73A3F50D731B68002B77
:1043100001D0802200E0002207F50E73A3F50E7392
:104320001B68002B02D04FF4847300E0002313437A
:10433000D7F84822002A02D04FF4007200E0002291
:104340001343D7F84C22002A02D040F2014200E089
:1043500000221343D7F85022002A02D041F205026E
:1043600000E000221343D7F85422002A03D1D7F8E3
:104370005822002A02D042F2050200E00022134334
:10438000D7F85C22002A02D044F2100200E000229A
:104390001343C7F8343207F50E73A3F504731B6893
:1043A00003F00103002B01D0002201E040F60302DC
:1043B000D7F834321A4307F118031D4607F11803E2
:1043C0001C4607F12803194607F50E73A3F503737E
:1043D00007F1300015ED022B94ED001B11ED020BDF
:1043E0001968FEF71FFD07F50E73A3F50E7307F5A9
:1043F0000E72A2F50D7207F108010D4607F50E7158
:10440000A1F5047107F13004D7F85C020590D7F8E4
:1044100058020490D7F854020390D7F85002029043
:10442000D7F84C020190D7F8480200901B68126838
:1044300095ED000B09682046FEF736FDB0EE407A98
:10444000F0EE607AB0EE470AF0EE670A07F50E77F5
:10445000BD46B0BD80B592B006AFF86287ED080BDF
:1044600087ED061B87ED042B87ED023BB9627A606E
:104470003B60002305930023049300230393002350
:104480000293002301933B6800937B68BA6A97ED1F
:10449000023B002197ED042B97ED061B97ED080BCF
:1044A000F86AFFF707FF00BF3037BD4680BDB0B5E3
:1044B0008EB000AFF86187ED040B87ED021BB96188
:1044C0007A607A68FB691344DB00BA691344BB6104
:1044D000D7E90423D7E90201FBF7DEFE02460B46CB
:1044E0001046194602460B46FBF7D8FE02460B461D
:1044F00014461D46D7E90423D7E90201FBF7CEFE97
:1045000002460B4620462946FCF77EF802460B463B
:10451000C7E908237B6803F00103002B06D0BB69C1
:10452000083BBB61BB69D3E9002303E04FF0000205
:104530004FF00003C7E90C234FF000024FF00003D7
:10454000C7E90A237B68DA0F13445B107B603BE00A
:10455000D7E90C23D7E90801FCF756F802460B46C9
:1045600010461946D7E90A23FBF796FE02460B468A
:1045700010461946BB69083BBB61BB69D3E9002300
:10458000FBF78CFE02460B46C7E90A23D7E90A234C
:10459000D7E90801FCF738F802460B4610461946E1
:1045A000D7E90C23FBF778FE02460B461046194666
:1045B000BB69083BBB61BB69D3E90023FBF76EFE17
:1045C00002460B46C7E90C237B685A1E7A60002B13
:1045D000BED1FB69002B18D0D7E9040102460B4677
:1045E000FBF75CFE02460B4610461946D7E902234C
:1045F000FCF70AF802460B4610461946D7E90C2389
:10460000FCF702F802460B460FE0D7E90A23D7E988
:104610000C01FBF741FE02460B4610461946D7E94E
:104620000223FBF7F1FF02460B4643EC172BB0EEDB
:10463000470AF0EE670A3837BD46B0BD80B584B092
:1046400000AFF86087ED000BFB68483397ED000B77
:1046500019460520FDF7C6FCB0EE407AF0EE607A10
:10466000B0EE470AF0EE670A1037BD4680BD000085
:1046700090B58BB000AFF86087ED000BB9604FF0DC
:104680000002204BC7E908230023FB610123BB6123
:104690002FE0BB69C3F105037B61D7E90023D7E9AC
:1046A0000801FBF7B1FF02460B46C7E90823FB6888
:1046B00003F17802FB69DB00134497ED000B194608
:1046C0007869FDF78FFC51EC100BBB69DB00BA6811
:1046D000D418D7E90823FBF797FF02460B46C4E935
:1046E00000237B690133FA691344FB61BB69013321
:1046F000BB61BB69052BCCDD00BF00BF2C37BD46BD
:1047000090BD00BF0000F03F90B58BB000AFF860E7
:1047100087ED000BB9604FF00002204BC7E908237A
:104720000023FB610023BB612FE0BB69C3F10503DC
:104730007B61FB6803F1F002FB69DB00134497ED3A
:10474000000B19467869FDF74DFC51EC100BBB6965
:10475000DB00BA68D418D7E90823FBF755FF0246F7
:104760000B46C4E900237B690133FA691344FB61FA
:10477000D7E90023D7E90801FBF746FF02460B46BD
:10478000C7E90823BB690133BB61BB69052BCCDDDD
:1047900000BF00BF2C37BD4690BD00BF0000F03FFA
:1047A000B0B586B000AF87ED000B03237B6197EDBA
:1047B000000BFDF701FCB0EE407AF0EE607AB0EE4F
:1047C000470AF0EE670A1A497869FDF70BFC51ECCD
:1047D000100B7B690133164ADB001344D3E9002335
:1047E000FCF73CF802460B46C7E90223D7E9002351
:1047F000D7E90201FBF752FD02460B4614461D465F
:10480000D7E900234FF000000A49FBF745FD0246B7
:104810000B4620462946FCF721F802460B4643EC9E
:10482000172BB0EE470AF0EE670A1837BD46B0BD49
:10483000F81302080000F03F2DE990438DB000AF5F
:1048400087ED020B786097ED020BFDF7B5FB87ED66
:10485000060BD7E90223C7E90A2300237B62012361
:104860003B6241E03B6AC3F10603DA0F13445B107D
:104870007B617B6ADB00214A134497ED060B1946E6
:104880007869FDF7AFFB51EC100BD7E90A23FBF772
:10489000BBFE02460B46904699467A6A7B691344F2
:1048A0000133164ADB001344D3E90023396AC900F7
:1048B0007868441840464946FBF7D0FF02460B464D
:1048C000C4E900237B6902337A6A13447B62D7E927
:1048D0000223D7E90A01FBF797FE02460B46C7E918
:1048E0000A233B6A01333B623B6A062BBADD00BFF9
:1048F00000BF3437BD46BDE8908300BF20140208D6
:104900002DE990438DB000AF87ED020B786097EDF5
:10491000020BFDF751FB87ED060BD7E90223C7E930
:104920000A2300237B6201233B6241E03B6AC3F11F
:104930000603DA0F13445B107B617B6ADB00214ABC
:10494000134497ED060B19467869FDF74BFB51ECC4
:10495000100BD7E90A23FBF757FE02460B46904699
:1049600099467A6A7B6913440133164ADB00134483
:10497000D3E90023396AC90078684418404649469B
:10498000FBF76CFF02460B46C4E900237B69023348
:104990007A6A13447B62D7E90223D7E90A01FBF75D
:1049A00033FE02460B46C7E90A233B6A01333B62EA
:1049B0003B6A062BBADD00BF00BF3437BD46BDE8F9
:1049C000908300BFB0140208B0B586B000AF87ED89
:1049D000000B03237B6197ED000BFDF7EDFAB0EEC2
:1049E000407AF0EE607AB0EE470AF0EE670A1A49B4
:1049F0007869FDF7F7FA51EC100B7B690133164A21
:104A0000DB001344D3E90023FBF728FF02460B46E3
:104A1000C7E90223D7E90023D7E90201FBF73CFCF1
:104A200002460B4614461D464FF000020B4BD7E9D9
:104A30000001FBF733FC02460B4620462946FBF7F4
:104A40000DFF02460B4643EC172BB0EE470AF0EE83
:104A5000670A1837BD46B0BD401502080000F03F98
:104A60002DE990438DB000AF87ED020B786097ED94
:104A7000020BFDF7A1FA87ED060BD7E90223C7E980
:104A80000A2300237B6201233B6241E03B6AC3F1BE
:104A90000603DA0F13445B107B617B6ADB00214A5B
:104AA000134497ED060B19467869FDF79BFA51EC14
:104AB000100BD7E90A23FBF7A7FD02460B469046E9
:104AC00099467A6A7B6913440133164ADB00134422
:104AD000D3E90023396AC90078684418404649463A
:104AE000FBF7BCFE02460B46C4E900237B69023398
:104AF0007A6A13447B62D7E90223D7E90A01FBF7FC
:104B000083FD02460B46C7E90A233B6A01333B6239
:104B10003B6A062BBADD00BF00BF3437BD46BDE897
:104B2000908300BF681502082DE9904387B000AF5D
:104B3000786000237B6100233B610523FB6039E043
:104B4000FB68C3F10503FA689342A8BF1346BB6034
:104B50007B69DB001C4A1A447B6893ED0A7BB0EE4C
:104B6000470AF0EE670A1146B868FDF73BFA59ECC0
:104B7000108B7A69BB6813440133134ADB0013447A
:104B8000D3E900233C69611C396140464946FBF783
:104B900065FE02460B46786804F10901C90001442C
:104BA000C1E90023BB6802337A6913447B61FB6867
:104BB000013BFB60FB68002BC2DA00BF00BF1C3763
:104BC000BD46BDE8908300BFF81502082DE990436B
:104BD00089B000AF78600023FB610023BB61012333
:104BE0007B6143E005233B6139E03B69C3F1050389
:104BF0003A699342A8BF1346FB60FB69DB00204A79
:104C00001A447B6893ED0A7BB0EE470AF0EE670A20
:104C10001146F868FDF7E6F959EC108BFA69FB6864
:104C200013440133164ADB001344D3E90023BC6963
:104C3000611CB96140464946FBF710FE02460B462F
:104C4000786804F10F01C9000144C1E90023FB6841
:104C50000233FA691344FB613B69013B3B613A69EA
:104C60007B699A42C1DA7B6901337B617B69052BE1
:104C7000B8DD00BF00BF2437BD46BDE8908300BF4C
:104C8000881602082DE9904389B000AF78600023B0
:104C9000FB610023BB6100237B613FE005233B6197
:104CA00035E03B69C3F10503FB60FB69DB00204A8B
:104CB0001A447B6893ED0A7BB0EE470AF0EE670A70
:104CC0001146F868FDF78EF959EC108BFA69FB680C
:104CD00013440133164ADB001344D3E90023BC69B3
:104CE000611CB96140464946FBF7B8FD02460B46D8
:104CF000786804F11E01C9000144C1E90023FB6882
:104D00000233FA691344FB613B69013B3B613A6939
:104D10007B699A42C5DA7B6901337B617B69052B2C
:104D2000BCDD00BF00BF2437BD46BDE8908300BF97
:104D3000F017020880B500AF0121074810F06BF8AA
:104D40000346064A13600121054810F064F8034643
:104D5000044A136000BF80BD581A020838090020B9
:104D6000601A02083409002080B582B000AF786074
:104D7000786802F06DF97968034805F031FF00BFEB
:104D80000837BD4680BD00BF0CB6002080B582B09C
:104D900000AF78603E4B1B684FF0FF31184610F0B3
:104DA0006DF80346002B6FD13A4804F023FC786875
:104DB00002F0E8FB3849394808F01EFB374B1B6806
:104DC0001846FBF7C9FB02460B463549C1E90023EB
:104DD000324BD3ED017AF1EE677A17EE903A18462E
:104DE000FBF7BAFB02460B462E49C1E900232B4BC9
:104DF0009B681846FBF7B0FB02460B462A49C1E9FF
:104E00000023294BD3E900014FF00002274BFBF7A9
:104E100045FA02460B462449C1E90023224BD3E957
:104E200000014FF000024FF00003FBF75FFE034666
:104E3000002B0CD01C4BD3E900014FF000021C4B9F
:104E4000FBF72CFA02460B461749C1E90023164B23
:104E5000D3E900014FF00002154BFBF75BFE034660
:104E6000002B0CD0104BD3E900014FF00002104B87
:104E7000FBF712FA02460B460B49C1E90023044B2B
:104E80001B68184610F048F800BF0837BD4680BDC3
:104E900038090020100602084C0E00200CB6002035
:104EA00080000020780000207000002000005940A1
:104EB000008076400000000080B500AF00F02EFBBF
:104EC0009FED070B0C4801F0EFF89FED071B9FEDDE
:104ED000080B0A48FDF708FB00BF80BDAFF3008058
:104EE0009A9999999999A93F28E1F3845A776B3F48
:104EF00000000040A6545841480B002068060020DE
:104F00002DE9B04F84B000AF834B1B684FF0FF31E9
:104F100018460FF0B3FF0346002B40F0F4807F48A3
:104F200004F068FB00F08EFEB0EE407AF0EE607A9E
:104F30007B4B83ED007B7B4B1B681846FBF70CFB20
:104F400004460D46774B5B681846FBF705FB804629
:104F50008946744B9B681846FBF7FEFA82468B46DF
:104F6000714B93ED007B714B93ED006B704B93EDA8
:104F7000005B7048B0EE464AF0EE664AB0EE473A43
:104F8000F0EE673A4BEC12AB49EC118B45EC104B51
:104F900001F062FE684B00221A6000F03DFE0346FD
:104FA000002B33D0654800F017FE634B01221A60D6
:104FB000634B1B78002B29D1604BD3E90023614957
:104FC000C1E900235D4BD3E902235E49C1E9022315
:104FD0005C494FF000025C4BC1E9042359494FF092
:104FE00000024FF00003C1E9062356494FF00002CA
:104FF0004FF00003C1E9082352494FF000024FF07F
:105000000003C1E90A234E4B01221A704C4B1B7856
:10501000002B2CD0494B93ED007B484B93ED026B5A
:105020004A4B93ED005B444B1B681946B0EE452A92
:10503000F0EE652AB0EE461AF0EE661AB0EE470AB8
:10504000F0EE670A3F4801F0CDFF3E4BD3E9002365
:105050003F49C1E900233B4BD3E902233D49C1E964
:105060000023384BD3E904233B49C1E900233A49E3
:105070004FF00002344BC1E900232B4BD3E9000170
:1050800023A3D3E90023FBF7BFFA02460B461046E1
:1050900019464FF00002314BFBF7E0FB02460B468E
:1050A000C7E9022397ED020B17F01EFE51EC100B1F
:1050B0002B4BD3E90023FBF7A7FA02460B46C7E9BF
:1050C0000023234B93ED007B224B93ED006B184B99
:1050D00093ED005B0023234A234997ED003BB0EE9C
:1050E000452AF0EE652AB0EE461AF0EE661AB0EEEA
:1050F000470AF0EE670A1D48FFF7ACF9064B1B683C
:1051000018460FF009FF00BF1037BD46BDE8B08F4D
:10511000182D4454FB210940380900201C060208C0
:10512000000600204C0E00207800002080000020A7
:1051300070000020180600206006002000080020F3
:1051400010060020480B0020000030400806002018
:10515000D8050020D0050020E00500200080664032
:1051600088000020E8050020F005002068060020E7
:1051700080B500AF04F0CCFD00BF80BD80B500AFAE
:1051800004F0C8FB00BF80BDB0B58EB002AF2E48A2
:1051900004F030FA2D4C38462D4B01934FF48063C8
:1051A00000932C4B4FF400422A49FCF79FF8254608
:1051B0003C460FCC0FC50FCC0FC594E8030085E823
:1051C0000300224B4FF4D972DA61204B072283F897
:1051D00020201E4B072283F821201C4B012283F83C
:1051E00022201A4BFF2283F82620184B782283F8BE
:1051F0002720164B0A229A84174804F0FBF913481B
:10520000FCF7B0F81148FCF7D3FB0346C82B07D1D5
:10521000F1210E48FCF74FFB104804F0EBF902E0D7
:105220000F4804F0E7F942210848FCF7C9F80346A3
:1052300087F82F3097F82F3019460A4804F0DAF92A
:1052400000BF3037BD46B0BD7C06020818080020FC
:10525000701100200000024098060208AC06020807
:10526000D4060208F4060208F0B585B004AF4D4834
:1052700004F0C0F94C4B4FF246221A604B4BD3E975
:10528000002310461946FBF7B7FC0346464A536015
:10529000474BD3E90001444B02469A600A46DA6064
:1052A000444BD3E90001404B02461A610A465A6159
:1052B000414BD3E900013C4B02469A610A46DA6150
:1052C0003E4BD3E90001384B02461A620A465A6245
:1052D0003A4BD3E90001344B02469A620A46DA623D
:1052E000374BD3E90001304B02461A630A465A6332
:1052F000344BD3E900012C4B02469A630A46DA6329
:1053000031490A684B68541C43F100052E4B224674
:105310001A602A465A602D4B2B4A92E8030083E814
:1053200003002B4B204A14469C4604F1400E654670
:1053300026460FCE28606960AA60EB6010340CF13D
:10534000100C7445F3D10C220021224814F040F9CE
:10535000204B1D4A92E8030083E803001E4B1A4AC3
:1053600092E8030083E803001C4B0293402301935F
:105370000D4B00930823144A1649194804F0E0F82D
:10538000184804F037F94FF4C873582212491648E8
:10539000FCF7A4FA154804F02DF900BF0437BD4608
:1053A000F0BD00BF100702084008002000060020E2
:1053B000D0050020D8050020E0050020E8050020E9
:1053C000F8050020880000208008002094080020B4
:1053D0009C08002088080020DC080020E408002049
:1053E000900000202C07020818080020440702083B
:1053F00080B500AF024804F0FDF800BF80BD00BFDB
:105400006007020880B500AFFCF774FC00BF80BDE8
:1054100080B485B000AF78600023FB730023BB60CD
:105420007B681B78242B0DD17B6801337B6009E0FE
:10543000BB687A6813441A78FB7B5340FB73BB68E4
:105440000133BB60BB687A6813441B78002B05D01E
:10545000BB687A6813441B782A2BE9D1FB7B18467A
:105460001437BD465DF8047B7047000080B5C6B0B8
:1054700002AF07F58873A3F58673186007F5887384
:10548000A3F586731B681B78242B11D007F588734E
:10549000A3F5867307F188001B681D4A802113F06D
:1054A00091FF07F58873A3F5867307F188021A60E8
:1054B00007F58873A3F586731868FFF7A9FF0346FD
:1054C00087F80F3197F80F2107F58873A3F58673D6
:1054D00007F1080000921B680E4A802113F072FF4A
:1054E000C7F80801D7F808319AB207F108014FF45C
:1054F0007A7309480EF0FCF90346002B01D1002312
:1055000000E00123184607F58877BD4680BD00BF3F
:10551000980702089C070208D012002080B500AF4F
:105520001048FFF7A3FF1048FFF7A0FF0F48FFF751
:105530009DFF0F48FFF79AFF0E48FFF797FF0E48B1
:10554000FFF794FF0D48FFF791FF0D48FFF78EFF1F
:105550004FF480720B490C480EF055FA00231846A0
:1055600080BD00BFA8070208B8070208C8070208E4
:10557000D8070208E8070208F80702080808020826
:10558000180802083C090020D01200202DE9B04F75
:10559000BEB00AAF7860396007F14803502200219D
:1055A000184614F015F807F13C0300221A605A60FF
:1055B000C3F8072007F12C0300221A605A609A6092
:1055C000C3F80B2007F11C0300221A605A609A608E
:1055D000C3F80B2007F1140300221A60C3F803205C
:1055E0000023FB740023BB7400237B7400233B74F3
:1055F0000023FB7307F13C0107F1480207F10F0399
:10560000099307F11003089307F11403079307F1B7
:1056100048033833069307F148033033059307F105
:105620001203049307F11C03039307F1130302937E
:1056300007F12C03019307F1110300930B468B49EB
:10564000386813F017FF7B7C87F858303B7C87F86D
:105650009430FB7B87F8953007F13C03184612F035
:1056600036F8C7F8CC00D7F8CC30814A82FB031259
:105670001213DB17D31AFB64D7F8CC307D4A82FBB8
:1056800003125211DB17D21A7A4B83FB0213591102
:10569000D317CB1A642101FB03F3D31A3B65D7F868
:1056A000CC20744B83FB02135911D317CB1A6421FE
:1056B00001FB03F3D31A7B65FB7C87F87030BB7C5E
:1056C00087F8713007F12C03184611F0FDFF87EDC4
:1056D000300B4FF00002684BD7E93001FBF7BEF802
:1056E00002460B4610461946FBF73EFA0346C7F83A
:1056F000BC30D7F8BC30642202FB03F31846FAF73B
:1057000019FF02460B46D7E93001FAF7C5FD0246FC
:105710000B46C7E92C23D7F8BC00FAF70BFF8246EB
:105720008B464FF00002554BD7E92C01FBF796F85A
:1057300002460B4650465946FAF7B0FD02460B4664
:10574000C7E91823FB7C532B06D1D7E918239046D1
:1057500083F00049C7E9188907F11C03184611F0C6
:10576000B3FF87ED2A0B4FF00002434BD7E92A0124
:10577000FBF774F802460B4610461946FBF7F4F99E
:105780000346C7F8A430D7F8A430642202FB03F321
:105790001846FAF7CFFE02460B46D7E92A01FAF778
:1057A0007BFD02460B46C7E92623D7F8A400FAF78B
:1057B000C1FE804689464FF00002304BD7E92601F2
:1057C000FBF74CF802460B4640464946FAF766FDA1
:1057D00002460B46C7E91A23BB7C572B06D1D7E9F3
:1057E0001A23144683F00045C7E91A4507F114034C
:1057F0001846FAF745FD0346062B2AD107F10C039C
:1058000000210A461A800A469A703B7D3B737B7DD5
:105810007B7307F10C03184611F059FF0346C7F8D4
:105820008830BB7D3B73FB7D7B7307F10C0318460F
:1058300011F04DFF0346C7F88C303B7E3B737B7EF7
:105840007B7307F10C03184611F041FF0346C7F8BC
:1058500090307B68184607F148035022194613F030
:10586000CCFF7868D037BD46BDE8B08F2408020869
:10587000AD8BDB681F85EB510000594000004E40A6
:105880002DE9B04FB6B008AF7860396007F150032A
:1058900038220021184613F09BFE07F14003002236
:1058A0001A605A609A60C3F80B2007F13003002297
:1058B0001A605A609A60C3F80B200023FB62002331
:1058C000BB624FF000024FF00003C7E908234FF01E
:1058D00000024FF00003C7E906234FF000024FF02B
:1058E0000003C7E904230023FB730023BB7307F104
:1058F0000F0107F1400207F11003069307F11803A7
:10590000059307F12003049307F12803039307F19C
:105910002C03029307F10E03019307F13003009368
:105920000B466049386813F0A5FDFB6A7B66BB6ACD
:10593000BB66D7E90823C7E91C23D7E90623C7E9D3
:105940001E23D7E90423C7E92023FB7B87F86030B7
:10595000BB7B87F8613007F14003184611F0B4FEB5
:1059600087ED2C0B4FF000024F4BD7E92C01FAF7D3
:1059700075FF02460B4610461946FBF7F5F803463D
:10598000C7F8AC30D7F8AC30642202FB03F31846FA
:10599000FAF7D0FD02460B46D7E92C01FAF77CFC5A
:1059A00002460B46C7E92823D7F8AC00FAF7C2FD38
:1059B00082468B464FF000023C4BD7E92801FAF7AC
:1059C0004DFF02460B4650465946FAF767FC024621
:1059D0000B46C7E91423FB7B532B06D1D7E91423CD
:1059E000904683F00049C7E9148907F1300318464F
:1059F00011F06AFE87ED260B4FF000022A4BD7E923
:105A00002601FAF72BFF02460B4610461946FBF714
:105A1000ABF80346C7F89430D7F89430642202FB01
:105A200003F31846FAF786FD02460B46D7E926012E
:105A3000FAF732FC02460B46C7E92223D7F8940056
:105A4000FAF778FD804689464FF00002174BD7E9F8
:105A50002201FAF703FF02460B4640464946FAF791
:105A60001DFC02460B46C7E91623BB7B572B06D10C
:105A7000D7E91623144683F00045C7E916457B682D
:105A80001D4607F150040FCC0FC50FCC0FC50FCC2E
:105A90000FC594E8030085E803007868B837BD4671
:105AA000BDE8B08F640802080000594000004E4075
:105AB000B0B5A6B000AF424BC7F89430404BC7F822
:105AC000903072E0D7F894301B780D2B68D1D7F85E
:105AD000943001331B780A2B62D1D7F89420D7F881
