:020000040800F2
:100000000000022071400008DD3C0008E53C0008CB
:10001000ED3C0008F53C0008FD3C00080000000035
:10002000000000000000000000000000D1CB00082C
:10003000053D00080000000021CE000889CE000820
:10004000C1400008C1400008C1400008C14000088C
:10005000C1400008C1400008C1400008C14000087C
:10006000C1400008C1400008C1400008C14000086C
:10007000C1400008153D0008293D00083D3D00082D
:10008000593D0008C14000086D3D00080000000017
:10009000000000000000000000000000C140000857
:1000A000C1400008C1400008C1400008C14000082C
:1000B000813D0008C1400008953D0008C14000088E
:1000C000C1400008A93D0008BD3D0008D13D000821
:1000D000C1400008E53D0008F93D000800000000AF
:1000E000C1400008C1400008C140000800000000F5
:1000F0000000000000000000000000000D3E0008AD
:1001000000000000C1400008C1400008C1400008D4
:1001100000000000000000000000000000000000DF
:10012000C1400008C1400008213E0008C14000084D
:10013000C1400008000000000000000000000000B6
:10014000000000000000000000000000C1400008A6
:10015000C1400008C1400008353E0008C140000809
:10016000493E00085D3E000800000000000000005D
:10017000000000000000000000000000000000007F
:1001800000000000C1400008000000000000000066
:08019000C1400008C140000855
:1001A00010B5054C237833B9044B13B10448AFF3B1
:1001B00000800123237010BDE80100200000000032
:1001C0005424010808B5034B1BB103490348AFF39E
:1001D000008008BD00000000EC010020542401084C
:1001E00001F0FF01102A2BDB10F0070F08D010F8E8
:1001F000013B013A8B422DD010F0070F42B3F6D1EC
:10020000F0B441EA012141EA014122F007047FF004
:1002100000070023F0E80256083C85EA010586EA5B
:10022000010685FA47F5A3FA87F586FA47F6A5FA97
:1002300087F68EB9EED1F0BC01F0FF0102F00702A3
:1002400032B110F8013B013A83EA010313B1F8D14E
:100250000020704701387047002D06BF354603382F
:10026000073815F0010F07D1013015F4807F02BF68
:10027000013015F4C03F0130F0BC0138704700BFB9
:10028000034613F8012B002AFBD1181A01387047D6
:1002900081F0004102E000BF83F0004330B54FEA37
:1002A00041044FEA430594EA050F08BF90EA020FA4
:1002B0001FBF54EA000C55EA020C7FEA645C7FEA37
:1002C000655C00F0E2804FEA5454D4EB5555B8BF5A
:1002D0006D420CDD2C4480EA020281EA030382EACB
:1002E000000083EA010180EA020281EA0303362D5D
:1002F00088BF30BD11F0004F4FEA01314FF4801C30
:100300004CEA113102D0404261EB410113F0004F41
:100310004FEA03334CEA133302D0524263EB4303F8
:1003200094EA050F00F0A780A4F10104D5F1200E96
:100330000DDB02FA0EFC22FA05F2801841F10001F1
:1003400003FA0EF2801843FA05F359410EE0A5F1C5
:1003500020050EF1200E012A03FA0EFC28BF4CF0F6
:10036000020C43FA05F3C01851EBE37101F00045AC
:1003700007D54FF0000EDCF1000C7EEB00006EEBB9
:100380000101B1F5801F1BD3B1F5001F0CD3490843
:100390005FEA30004FEA3C0C04F101044FEA44529A
:1003A00012F5800F80F09A80BCF1004F08BF5FEA21
:1003B000500C50F1000041EB045141EA050130BD01
:1003C0005FEA4C0C404141EB0101013C28BFB1F513
:1003D000801FE9D291F0000F04BF01460020B1FA5E
:1003E00081F308BF2033A3F10B03B3F120020CDA31
:1003F0000C3208DD02F1140CC2F10C0201FA0CF00F
:1004000021FA02F10CE002F11402D8BFC2F1200C73
:1004100001FA02F120FA0CFCDCBF41EA0C01904029
:10042000E41AA2BF01EB0451294330BD6FEA040472
:100430001F3C1CDA0C340EDC04F11404C4F120025D
:1004400020FA04F001FA02F340EA030021FA04F36F
:1004500045EA030130BDC4F10C04C4F1200220FAC6
:1004600002F001FA04F340EA0300294630BD21FA04
:1004700004F0294630BD94F0000F83F4801306BFCA
:1004800081F480110134013D4EE77FEA645C18BFBE
:100490007FEA655C29D094EA050F08BF90EA020F55
:1004A00005D054EA000C04BF1946104630BD91EA4D
:1004B000030F1EBF0021002030BD5FEA545C05D150
:1004C0004000494128BF41F0004130BD14F580048F
:1004D0003CBF01F5801130BD01F0004545F0FE4103
:1004E00041F470014FF0000030BD7FEA645C1ABF38
:1004F000194610467FEA655C1CBF0B46024650EA6F
:10050000013406BF52EA033591EA030F41F400219A
:1005100030BD00BF90F0000F04BF0021704730B520
:100520004FF4806404F132044FF000054FF00001F5
:1005300050E700BF90F0000F04BF0021704730B5B6
:100540004FF4806404F1320410F0004548BF40428B
:100550004FF000013EE700BF42004FEAE2014FEAE0
:1005600031014FEA02701FBF12F07F4393F07F4FBB
:1005700081F06051704732F07F4208BF704793F0BE
:100580007F4F04BF41F40021704730B54FF46074D1
:1005900001F0004521F000411CE700BF50EA0102D4
:1005A00008BF704730B54FF000050AE050EA01027D
:1005B00008BF704730B511F0004502D5404261EBED
:1005C00041014FF4806404F132045FEA915C3FF42E
:1005D000D8AE4FF003025FEADC0C18BF03325FEACB
:1005E000DC0C18BF033202EBDC02C2F1200300FA7C
:1005F00003FC20FA02F001FA03FE40EA0E0021FAA1
:1006000002F11444BDE600BF70B54FF0FF0C4CF48E
:10061000E06C1CEA11541DBF1CEA135594EA0C0F40
:1006200095EA0C0F00F0DEF82C4481EA030621EA7B
:100630004C5123EA4C5350EA013518BF52EA0335B6
:1006400041F4801143F4801338D0A0FB02CE4FF068
:100650000005E1FB02E506F00042E0FB03E54FF098
:100660000006E1FB03569CF0000F18BF4EF0010E90
:10067000A4F1FF04B6F5007F64F5407404D25FEA8C
:100680004E0E6D4146EB060642EAC62141EA55513F
:100690004FEAC52040EA5E504FEACE2EB4F1FD0C81
:1006A00088BFBCF5E06F1ED8BEF1004F08BF5FEAFF
:1006B000500E50F1000041EB045170BD06F00046B1
:1006C00046EA010140EA020081EA0301B4EB5C045E
:1006D000C2BFD4EB0C0541EA045170BD41F4801156
:1006E0004FF0000E013C00F3AB8014F1360FDEBF7B
:1006F000002001F0004170BDC4F10004203C35DA57
:100700000C341BDC04F11404C4F1200500FA05F3D9
:1007100020FA04F001FA05F240EA020001F000427A
:1007200021F0004110EBD37021FA04F642EB0601F0
:100730005EEA430E08BF20EAD37070BDC4F10C041A
:10074000C4F1200500FA04F320FA05F001FA04F2DE
:1007500040EA020001F0004110EBD37041F10001CA
:100760005EEA430E08BF20EAD37070BDC4F12005D5
:1007700000FA05F24EEA020E20FA04F301FA05F23D
:1007800043EA020321FA04F001F0004121FA04F2E5
:1007900020EA020000EBD3705EEA430E08BF20EAB5
:1007A000D37070BD94F0000F0FD101F000464000EF
:1007B00041EB010111F4801F08BF013CF7D041EA71
:1007C000060195F0000F18BF704703F00046520075
:1007D00043EB030313F4801F08BF013DF7D043EA46
:1007E0000603704794EA0C0F0CEA135518BF95EAFC
:1007F0000C0F0CD050EA410618BF52EA4306D1D183
:1008000081EA030101F000414FF0000070BD50EAA1
:10081000410606BF1046194652EA430619D094EA2B
:100820000C0F02D150EA013613D195EA0C0F05D115
:1008300052EA03361CBF104619460AD181EA030169
:1008400001F0004141F0FE4141F470014FF0000021
:1008500070BD41F0FE4141F4780170BD70B54FF0BC
:10086000FF0C4CF4E06C1CEA11541DBF1CEA13553C
:1008700094EA0C0F95EA0C0F00F0A7F8A4EB05041E
:1008800081EA030E52EA03354FEA013100F0888015
:100890004FEA03334FF0805545EA131343EA1263DE
:1008A0004FEA022245EA111545EA10654FEA002693
:1008B0000EF000419D4208BF964244F1FD0404F54C
:1008C000407402D25B084FEA3202B61A65EB0305A8
:1008D0005B084FEA32024FF480104FF4002CB6EB65
:1008E000020E75EB030E22BFB61A754640EA0C00E5
:1008F0005B084FEA3202B6EB020E75EB030E22BF25
:10090000B61A754640EA5C005B084FEA3202B6EB65
:10091000020E75EB030E22BFB61A754640EA9C0024
:100920005B084FEA3202B6EB020E75EB030E22BFF4
:10093000B61A754640EADC0055EA060E18D04FEAB2
:10094000051545EA16754FEA06164FEAC30343EA52
:1009500052734FEAC2025FEA1C1CC0D111F4801F1F
:100960000BD141EA00014FF000004FF0004CB6E718
:1009700011F4801F04BF01430020B4F1FD0C88BFB7
:10098000BCF5E06F3FF6AFAEB5EB030C04BFB6EBC2
:10099000020C5FEA500C50F1000041EB045170BDB5
:1009A0000EF0004E4EEA113114EB5C04C2BFD4EBE2
:1009B0000C0541EA045170BD41F480114FF0000E66
:1009C000013C90E645EA060E8DE60CEA135594EAE2
:1009D0000C0F08BF95EA0C0F3FF43BAF94EA0C0FE5
:1009E0000AD150EA01347FF434AF95EA0C0F7FF45A
:1009F00025AF104619462CE795EA0C0F06D152EAAE
:100A000003353FF4FDAE1046194622E750EA410691
:100A100018BF52EA43067FF4C5AE50EA41047FF4A2
:100A20000DAF52EA43057FF4EBAE12E74FF0FF3C07
:100A300006E000BF4FF0010C02E000BF4FF0010CD8
:100A40004DF804CD4FEA410C7FEA6C5C4FEA430C51
:100A500018BF7FEA6C5C1BD001B050EA410C0CBFA0
:100A600052EA430C91EA030F02BF90EA020F002002
:100A7000704710F1000F91EA030F58BF994208BF69
:100A800090422CBFD8176FEAE37040F00100704726
:100A90004FEA410C7FEA6C5C02D150EA013C07D17D
:100AA0004FEA430C7FEA6C5CD6D152EA033CD3D0C8
:100AB0005DF8040B704700BF8446104662468C46C2
:100AC0001946634600E000BF01B5FFF7B7FF0028F5
:100AD00048BF10F1000F01BD4DF808EDFFF7F4FF1E
:100AE0000CBF012000205DF808FB00BF4DF808EDA9
:100AF000FFF7EAFF34BF012000205DF808FB00BFCC
:100B00004DF808EDFFF7E0FF94BF012000205DF8ED
:100B100008FB00BF4DF808EDFFF7CEFF94BF0120A2
:100B200000205DF808FB00BF4DF808EDFFF7C4FF9B
:100B300034BF012000205DF808FB00BF4FEA410CE4
:100B40007FEA6C5C02D150EA013C0AD14FEA430CC7
:100B50007FEA6C5C02D152EA033C02D14FF0000004
:100B600070474FF0010070474FEA410212F5001242
:100B700015D211D56FF47873B3EB625212D94FEAE4
:100B8000C12343F0004343EA505311F0004F23FACE
:100B900002F018BF404270474FF00000704750EA23
:100BA000013005D111F0004008BF6FF000407047E0
:100BB0004FF00000704700BF4A0011D212F500123A
:100BC00011D20DD56FF47873B3EB62520ED44FEAA5
:100BD000C12343F0004343EA505323FA02F0704725
:100BE0004FF00000704750EA013002D14FF0FF3063
:100BF00070474FF0000070474FEA4102B2F1E04306
:100C000024BFB3F5001CDCF1FE5C0DD901F0004CF3
:100C10004FEAC0024CEA5070B2F1004F40EB830043
:100C200008BF20F00100704711F0804F21D113F16F
:100C30003872BCBF01F00040704741F480114FEAA8
:100C40005252C2F11802C2F1200C10FA0CF320FA31
:100C500002F018BF40F001004FEAC1234FEAD3234E
:100C600003FA0CFC40EA0C0023FA02F34FEA4303B8
:100C7000CCE77FEA625307D150EA01331EBF4FF041
:100C8000FE4040F44000704701F0004040F0FE405C
:100C900040F40000704700BF53B94AB9002908BFAB
:100CA00000281CBF4FF0FF314FF0FF3000F0BEB9FD
:100CB000ADF1080C6DE904CE00F03CF8DDF804E07D
:100CC000DDE9022304B0704738B500220023044652
:100CD0000D46FFF70BFF28B920462946BDE83840EE
:100CE00000F00AB8204605F1004100F005F8404246
:100CF00061EB410138BD00BFD0B50C4B0022064668
:100D00000F46FFF781FCFFF757FF0446FFF702FC91
:100D1000074B0022FFF778FC02460B463046394667
:100D2000FFF7BAFAFFF748FF2146D0BD0000F03DBB
:100D30000000F0412DE9F047089D8E4604468846A4
:100D4000002B4AD18A42174662D9B2FA82F64EB1D6
:100D5000C6F1200301FA06F820FA03F3B74043EA8C
:100D60000808B4404FEA174E1FFA87FCB8FBFEF1A3
:100D7000230C0EFB118843EA084301FB0CF29A4254
:100D800009D9FB1801F1FF3080F0EA809A4240F265
:100D9000E78002393B449A1AA3B2B2FBFEF00EFB85
:100DA000102243EA024300FB0CFC9C4509D9FB18C6
:100DB00000F1FF3280F0D6809C4540F2D3803B4466
:100DC000023840EA0140A3EB0C0300211DB1F340BF
:100DD0000022C5E90032BDE8F0878B4205D90DB18C
:100DE000C5E9000100210846F5E7B3FA83F10029BF
:100DF00046D1734502D3824200F20581841A6EEB1C
:100E0000030201209046002DE5D0C5E90048E2E745
:100E1000002A00F09080B2FA82F6002E40F0A48002
:100E20008A1A030C4FEA174E80B2BCB20121B2FB02
:100E3000FEFC0EFB1C2243EA024304FB0CF29A4226
:100E400007D9FB180CF1FF3802D29A4200F2E08079
:100E5000C4469B1AB3FBFEF20EFB123340EA034377
:100E600002FB04F49C4207D9FB1802F1FF3002D2C6
:100E70009C4200F2CA8002461B1B42EA0C40A5E7D6
:100E8000C1F120068B4022FA06F71F430EFA01F447
:100E900020FA06F32EFA06FE4FEA1749234300FA1A
:100EA00001F81FFA87FCBEFBF9F01C0C09FB10EEE1
:100EB00044EA0E4400FB0CFEA64502FA01F209D9F1
:100EC0003C1900F1FF3A80F09C80A64540F29980E1
:100ED00002383C44A4EB0E041FFA83FEB4FBF9F382
:100EE00009FB13444EEA044403FB0CFCA44508D957
:100EF0003C1903F1FF3E80F08280A4457FD9023B7C
:100F00003C4443EA0040A4EB0C04A0FB02EC644523
:100F10007346E14662D35FD05DB1B8EB030264EB88
:100F2000090404FA06F622FA01F31E43CC40C5E98F
:100F3000006400214FE7B1FBF2FC010C41EA0E41D5
:100F400080B240EA01423B4638463C46B846BE467F
:100F50002026B1FBF7F1A2EB080241EA0C4166E75B
:100F6000014618E710462CE7C6F120022EFA02F3DC
:100F7000B740B14020FA02F24FEA174E0A43B3FBE2
:100F8000FEF8BCB20EFB1833110C41EA034108FB1A
:100F900004F9B04089454FEA104380B23ED9791830
:100FA00008F1FF3C01D289451FD8A1EB0901B1FB33
:100FB000FEF909FB04F80EFB191192B242EA014254
:100FC000424529D2BA1809F1FF31C4D24245C2D2F2
:100FD000A9F102013A44BEE7F0459DD2BEEB0203FF
:100FE0006CEB070C0138E14696E7A7EB0909494489
:100FF000A8F1020CB1FBFEF909FB04F8DBE773462C
:101000007FE7504666E70846FDE63B44023A33E791
:10101000ACF1020C3B441CE749469CE7A1EB0901FB
:10102000C446B1FBFEF909FB04F8C4E7704700BFF2
:10103000B0B590B000AFF860B9603B601346FB807C
:101040007B6D3B62BB683B61FB88BB823B68BB61DD
:10105000B7F85030BB8340F2B1137B63072387F8A6
:101060003830072387F83930012387F83A30FF23D7
:1010700087F83E30642387F83F300823BB87012080
:101080000AF067F803467B6200233B850023FB627E
:10109000FB681D4607F110040FCC0FC50FCC0FC520
:1010A00094E80F0085E80F00F8684037BD46B0BDF2
:1010B00080B582B000AF78607B6898687B689B8958
:1010C0000022194604F09AFB0A2003F03DF87B68E1
:1010D00098687B689B890122194604F08FFB642085
:1010E00003F032F800BF0837BD4680BD80B483B03E
:1010F00000AF78607B68002B01D1002300E0012362
:1011000018460C37BD465DF8047B704780B584B047
:1011100000AF78600B46FB70FB7803F07F03DBB217
:10112000BB737B685B69642118460AF0BDF903460E
:10113000012B28D17B6818687B689B8800221946A0
:1011400004F05CFB7B68186907F10E014FF4FA6349
:10115000012206F0E2FE7B68186907F10F014FF4E7
:10116000FA63012207F01DF87B6818687B689B888A
:101170000122194604F042FB7B68586900230022D3
:10118000002109F0FFFFFB7B18461037BD4680BDEC
:1011900080B584B000AF78600B46FB701346BB701F
:1011A000FB7863F07F03DBB23B73BB787B737B68B8
:1011B0005B69642118460AF077F90346012B1FD1B9
:1011C0007B6818687B689B880022194604F016FB30
:1011D0007B68186907F10C014FF4FA63022206F0EC
:1011E0009CFE7B6818687B689B880122194604F086
:1011F00005FB7B68586900230022002109F0C2FF2B
:1012000000BF1037BD4680BD80B584B000AF7860A8
:10121000396001217868FFF779FF0346BB73BB7B18
:10122000FB733B68002B07D1BB7B23F00703FB73E9
:101230007B6800221A6269E03B68012B0CD197F9A8
:101240000E3023F007035BB243F001035BB2FB7384
:101250007B6801221A6259E03B68022B0CD197F996
:101260000E3023F007035BB243F002035BB2FB7363
:101270007B6802221A6249E03B68032B0CD197F984
:101280000E3023F007035BB243F003035BB2FB7342
:101290007B6803221A6239E03B68042B0CD197F972
:1012A0000E3023F007035BB243F004035BB2FB7321
:1012B0007B6804221A6229E03B68052B0CD197F960
:1012C0000E3023F007035BB243F005035BB2FB7300
:1012D0007B6805221A6219E03B68062B0CD197F94E
:1012E0000E3023F007035BB243F006035BB2FB73DF
:1012F0007B6806221A6209E03B68072B0DD1BB7B95
:1013000043F00703FB737B6807221A62FB7B1A46D4
:1013100001217868FFF73CFF00E000BF1037BD46B1
:1013200080BD80B584B000AF78600B46FB7026218D
:101330007868FFF7EBFE0346BB73FB78002B04D005
:10134000BB7B43F00803FB7303E0BB7B23F0080384
:10135000FB73FB7B1A4626217868FFF719FF0A20EA
:1013600002F0F2FE00BF1037BD4680BD80B596B0DA
:1013700000AF7860174A07F108031146502218465B
:101380000EF065F87B6893F828301A4601239340E5
:101390001846FFF7CFF87B6893F82930DB00583305
:1013A0003B44503BD3E90023FFF758FA02460B4673
:1013B00010461946FFF7D8FB0346102BCCBF01237C
:1013C0000023DBB219467868FFF7ABFF00BF583740
:1013D000BD4680BD7024010880B584B000AF786040
:1013E00039603B68DB045B11FB60FB681B0CFB7224
:1013F000FB7A1A4606217868FFF7CAFE052002F03C
:10140000A3FEFB681B0AFB72FB7A1A460721786869
:10141000FFF7BEFE052002F097FEFB68FB72FB7A29
:101420001A4608217868FFF7B3FE052002F08CFE0B
:1014300000BF1037BD4680BD80B584B000AF786076
:1014400039603B680C2B01DD0C233B603B68062BAD
:1014500001DC07233B601E217868FFF757FE034637
:10146000FB730A2002F070FE3B68DBB21B01DAB2AC
:10147000FB7B03F00F03DBB21344BB73BB7B1A4649
:101480001E217868FFF784FE0A2002F05DFE78686E
:10149000FFF76CFF00BF1037BD4680BD80B582B03E
:1014A00000AF78600B46FB70FB781A46092178681C
:1014B000FFF76EFE0A2002F047FE00BF0837BD4668
:1014C00080BD000080B584B000AF78600B46FB7033
:1014D0000023FB73FB782C2B01D82D23FB70FB78AA
:1014E000F02B01D9F023FB70FB78782B09D8FB781F
:1014F0002D3B124A82FB03125210DB17D31AFB73E7
:101500000BE0FB78F02B08D8FB781E330B4A82FBEC
:1015100003129210DB17D31AFB73FB7B2033FB7390
:10152000FB7B1A460B217868FFF732FE0A2002F097
:101530000BFE00BF1037BD4680BD00BF6766666604
:1015400080B584B000AF78601E217868FFF7DEFDBB
:101550000346FB73FB7B43F00703BB73BB7B1A465D
:101560001E217868FFF714FE0A2002F0EDFD00BF8F
:101570001037BD4680BD80B582B000AF78600B46A5
:10158000FB70FB781A4639217868FFF701FE0A20C4
:1015900002F0DAFD00BF0837BD4680BD80B584B0DB
:1015A00000AF78607868FFF7A1FD0346002B00F0DC
:1015B000968000217868FFF727FE0A2002F0C4FD1C
:1015C00001217868FFF7A2FD0346FB730A2002F0B1
:1015D000BBFDFB7B63F07F03BB73BB7B1A46012122
:1015E0007868FFF7D5FD642002F0AEFD7B685B6A8A
:1015F00019467868FFF7F0FE7B6893F82E3019469D
:101600007868FFF74BFF7B6893F82F3019467868AE
:10161000FFF758FF23220C217868FFF7B9FD78689F
:10162000FFF78EFF7B6893F8283019467868FFF73C
:1016300003FFFF221F217868FFF7AAFD0023BB7379
:101640007B6893F829301B01DAB27B6893F82A3063
:101650005B00DBB21344BB73BB7B1A461D21786869
:10166000FFF796FD7868FFF781FE7B689B8D1B0A6C
:101670009BB2DBB21A4620217868FFF789FD7B68B0
:101680009B8DDBB21A4621217868FFF781FD40214E
:101690007868FFF73BFD0346FB73FB7B43F03F039A
:1016A000BB73BB7B1A4640217868FFF771FD0121AF
:1016B0007868FFF7A9FD7B6801221A620A2002F010
:1016C00043FD42217868FFF721FD0346FB73FB7B56
:1016D000122B01D1C82304E04FF4CA7301E040F299
:1016E000F71318461037BD4680BD000080B58AB09C
:1016F00000AFF860B96011461A460B46FB711346FD
:10170000BB80FB681B6A7B620121F868FFF77CFDE8
:101710000E21F868FFF7FAFC034687F8233097F8A4
:1017200023301A460D21F868FFF732FDFB791A467F
:101730002221F868FFF72CFDFB681868FB689B887E
:101740000022194604F05AF88023FB75FB681869DB
:1017500007F117010A23012206F0DFFBFB681B6972
:10176000FA7992B2B968184606F0DEFF0346002BFC
:1017700009D0FB681868FB689B880122194604F0B1
:101780003DF8022347E04FF0FF3101200BF074F8E1
:10179000FB681868FB689B880122194604F02EF844
:1017A0000321F868FFF730FD0AF08CFBF861BB8875
:1017B0004FF47A7202FB03F3194AA2FB03239B093D
:1017C000BB611221F868FFF7A1FC034687F82330BC
:1017D00097F8233003F00803002B0AD0FF221221D0
:1017E000F868FFF7D5FC796AF868FFF70DFD00236C
:1017F00011E00AF067FB0246FB69D31ABA699A4204
:1018000005D2796AF868FFF7FFFC012303E00120A5
:101810000AF00CFAD5E718462837BD4680BD00BF50
:10182000D34D621080B584B000AF78607B681A68D1
:10183000134B1B689A421FD1786802F0F8FEF860DB
:10184000104B1A68FB6813440E4A13600E4B1B784A
:10185000DBB20133DAB20C4B1A700B4B1B78DBB2E4
:10186000092B06D9094B01221A70786802F092FD03
:1018700002E0786802F0D0FC00BF1037BD4680BDA2
:10188000C0060020040200200802002009020020F7
:1018900080B485B000AFF860B9607A60FB68074A31
:1018A0001A60BB68064A1A607B6880221A6000BF13
:1018B0001437BD465DF8047B704700BF0C02002062
:1018C000AC02002080B500AF0121074809F0C9F93A
:1018D0000346064A13600121054809F0C2F9034690
:1018E000044A136000BF80BD6C260108B0040020CC
:1018F00074260108AC0400202DE9B04FBEB00AAF39
:101900007860396007F148035022002118460DF035
:1019100089FC07F13C0300221A605A60C3F80720D3
:1019200007F12C0300221A605A609A60C3F80B205A
:1019300007F11C0300221A605A609A60C3F80B205A
:1019400007F1140300221A60C3F803200023FB747C
:101950000023BB7400237B7400233B740023FB73C0
:1019600007F13C0107F1480207F10F03099307F162
:101970001003089307F11403079307F14803383362
:10198000069307F148033033059307F112030493DC
:1019900007F11C03039307F11303029307F12C03D0
:1019A000019307F1110300930B468B4938680DF042
:1019B0008BFB7B7C87F858303B7C87F89430FB7B33
:1019C00087F8953007F13C0318460BF0E0FCC7F8A8
:1019D000CC00D7F8CC30814A82FB03121213DB17FC
:1019E000D31AFB64D7F8CC307D4A82FB0312521124
:1019F000DB17D21A7A4B83FB02135911D317CB1A78
:101A0000642101FB03F3D31A3B65D7F8CC20744B58
:101A100083FB02135911D317CB1A642101FB03F383
:101A2000D31A7B65FB7C87F87030BB7C87F87130FC
:101A300007F12C0318460BF0A7FC87ED300B4FF095
:101A40000002684BD7E93001FEF708FF02460B465B
:101A500010461946FFF788F80346C7F8BC30D7F898
:101A6000BC30642202FB03F31846FEF763FD024616
:101A70000B46D7E93001FEF70FFC02460B46C7E9DB
:101A80002C23D7F8BC00FEF755FD82468B464FF05D
:101A90000002554BD7E92C01FEF7E0FE02460B464B
:101AA00050465946FEF7FAFB02460B46C7E9182393
:101AB000FB7C532B06D1D7E91823904683F00049CD
:101AC000C7E9188907F11C0318460BF05DFC87ED88
:101AD0002A0B4FF00002434BD7E92A01FEF7BEFE66
:101AE00002460B4610461946FFF73EF80346C7F874
:101AF000A430D7F8A430642202FB03F31846FEF7A3
:101B000019FD02460B46D7E92A01FEF7C5FB02463E
:101B10000B46C7E92623D7F8A400FEF70BFD804645
:101B200089464FF00002304BD7E92601FEF796FEBA
:101B300002460B4640464946FEF7B0FB02460B46BE
:101B4000C7E91A23BB7C572B06D1D7E91A231446C1
:101B500083F00045C7E91A4507F114031846FEF75C
:101B60008FFB0346062B2AD107F10C0300210A46FE
:101B70001A800A469A703B7D3B737B7D7B7307F12D
:101B80000C0318460BF003FC0346C7F88830BB7DF6
:101B90003B73FB7D7B7307F10C0318460BF0F7FBDF
:101BA0000346C7F88C303B7E3B737B7E7B7307F12B
:101BB0000C0318460BF0EBFB0346C7F890307B682C
:101BC000184607F14803502219460DF040FC78688A
:101BD000D037BD46BDE8B08F4C250108AD8BDB6822
:101BE0001F85EB510000594000004E402DE9B04FD9
:101BF000B6B008AF7860396007F150033822002191
:101C000018460DF00FFB07F1400300221A605A60DE
:101C10009A60C3F80B2007F1300300221A605A6063
:101C20009A60C3F80B200023FB620023BB624FF0D5
:101C300000024FF00003C7E908234FF000024FF005
:101C40000003C7E906234FF000024FF00003C7E985
:101C500004230023FB730023BB7307F10F0107F17B
:101C6000400207F11003069307F11803059307F1EB
:101C70002003049307F12803039307F12C03029335
:101C800007F10E03019307F1300300930B466049FF
:101C900038680DF019FAFB6A7B66BB6ABB66D7E948
:101CA0000823C7E91C23D7E90623C7E91E23D7E980
:101CB0000423C7E92023FB7B87F86030BB7B87F8D0
:101CC000613007F1400318460BF05EFB87ED2C0BEB
:101CD0004FF000024F4BD7E92C01FEF7BFFD024643
:101CE0000B4610461946FEF73FFF0346C7F8AC30D7
:101CF000D7F8AC30642202FB03F31846FEF71AFC57
:101D000002460B46D7E92C01FEF7C6FA02460B46FF
:101D1000C7E92823D7F8AC00FEF70CFC82468B46B7
:101D20004FF000023C4BD7E92801FEF797FD024631
:101D30000B4650465946FEF7B1FA02460B46C7E934
:101D40001423FB7B532B06D1D7E91423904683F051
:101D50000049C7E9148907F1300318460BF014FB5A
:101D600087ED260B4FF000022A4BD7E92601FEF73C
:101D700075FD02460B4610461946FEF7F5FE034672
:101D8000C7F89430D7F89430642202FB03F3184666
:101D9000FEF7D0FB02460B46D7E92601FEF77CFA98
:101DA00002460B46C7E92223D7F89400FEF7C2FB90
:101DB000804689464FF00002174BD7E92201FEF713
:101DC0004DFD02460B4640464946FEF767FA02467D
:101DD0000B46C7E91623BB7B572B06D1D7E9162341
:101DE000144683F00045C7E916457B681D4607F198
:101DF00050040FCC0FC50FCC0FC50FCC0FC594E806
:101E0000030085E803007868B837BD46BDE8B08FA9
:101E10008C2501080000594000004E40B0B5A6B026
:101E200000AF424BC7F89430404BC7F8903072E097
:101E3000D7F894301B780D2B68D1D7F89430013344
:101E40001B780A2B62D1D7F89420D7F89030D31A98
:101E5000C7F88C30D7F88C30002B09DCD7F89430D9
:101E60000233C7F89430D7F89430C7F8903052E076
:101E7000D7F88C307F2B02DD7F23C7F88C30D7F862
:101E80008C301A46D7F8901029480DF0E0FA284A0D
:101E9000D7F88C30134400221A70264924480DF0DC
:101EA000DBF90346002B14D0234C07F150032049E3
:101EB0001846FFF79BFE254607F150040FCC0FC5CF
:101EC0000FCC0FC50FCC0FC594E8030085E80300C5
:101ED00012E01A4916480DF0BFF90346002B0BD04B
:101EE000174C3B4612491846FFF706FD20463B4675
:101EF000502219460DF0ABFAD7F894300233C7F8E8
:101F00009430D7F89430C7F8903004E0D7F8943084
:101F10000133C7F89430D7F894301B78002B87D161
:101F2000002318469837BD46B0BD00BFB40400205A
:101F3000B4050020CC25010838060020D025010872
:101F400070060020B0B588B000AF02F0BBF800F01A
:101F500031F800F005FB00F0A5FA00F04FFA00F0B0
:101F60005FF900F075FA00F091F900F0DDF800F08B
:101F700019F900F0C1F900F0F5F900F083F8FFF766
:101F8000A1FC0A4B3C1D1D460FCD0FC495E8070070
:101F900084E807003B1D0021184608F002FE0346B6
:101FA000034A136008F0F6FD00BFFDE7E0250108D5
:101FB000300C002080B594B000AF07F12003302230
:101FC000002118460DF02EF907F10C0300221A60CB
:101FD0005A609A60DA601A610023BB60274B1B6C61
:101FE000264A43F080531364244B1B6C03F0805348
:101FF000BB60BB6800237B60214B1B68204A43F415
:10200000404313601E4B1B6803F440437B607B68B6
:1020100001233B624FF480337B620223BB634FF4A6
:102020008003FB630C233B6460237B640223BB645B
:102030000423FB6407F12003184605F05BFA03460E
:10204000002B01D000F0C0FC0F23FB6002233B619A
:1020500000237B614FF48053BB610023FB6107F1D8
:102060000C030321184605F0BDFC0346002B01D0EC
:1020700000F0AAFC00BF5037BD4680BD00380240CA
:102080000070004080B584B000AF3B4600221A606B
:102090005A609A60DA60214B214A1A601F4B4FF454
:1020A00080325A601D4B00229A601C4B00221A613C
:1020B0001A4B01221A76194B002283F82020174B65
:1020C0000022DA62154B174A9A62144B0022DA603A
:1020D000124B0122DA61114B002283F830200F4BA2
:1020E00001225A610D4802F053F80346002B01D03B
:1020F00000F06AFC01233B6001237B600023BB608E
:102100003B461946054802F0B3FA0346002B01D0BE
:1021100000F05AFC00BF1037BD4680BDC00600204D
:10212000002001400100000F80B500AF0022062111
:10213000212002F08DFD212002F0A6FD00220621C3
:10214000222002F085FD222002F09EFD124B134A50
:102150001A60114B124A5A600F4B00229A600E4BC4
:102160000022DA600C4B4FF480421A610A4B0022C5
:102170005A61094B00229A61074B0022DA61064B33
:1021800000221A62044803F06DFB0346002B01D0C5
:1021900000F01AFC00BF80BD080700200058004076
:1021A000A086010080B500AF00220621482002F081
:1021B0004FFD482002F068FD00220621492002F070
:1021C00047FD492002F060FD124B134A1A60114B83
:1021D000124A5A600F4B00229A600E4B0022DA60BE
:1021E0000C4B4FF480421A610A4B00225A61094B92
:1021F00000229A61074B0022DA61064B00221A6224
:10220000044803F02FFB0346002B01D000F0DCFB59
:1022100000BF80BD5C070020005C0040A08601007C
:1022200080B500AF174B184A1A60164B4FF48272F4
:102230005A60144B00229A60124B0022DA60114B54
:1022400000221A610F4B00225A610E4B4FF40072AC
:102250009A610C4B0022DA610A4B00221A62094B88
:1022600000225A62074B00229A62064B0A22DA6267
:10227000044805F0C9FD0346002B01D000F0A4FB83
:1022800000BF80BDD00800200030014080B500AF05
:10229000174B184A1A60164B4FF482725A60144B4F
:1022A00000229A60124B0022DA60114B00221A6160
:1022B0000F4B00225A610E4B00229A610C4B0022F8
:1022C000DA610B4B00221A62094B00225A62084B5A
:1022D00000229A62064B0A22DA62054805F094FD54
:1022E0000346002B01D000F06FFB00BF80BD00BF94
:1022F000280900200038004080B500AF174B184A6D
:102300001A60164B4FF482725A60144B00229A6086
:10231000124B0022DA60114B00221A610F4B00228F
:102320005A610E4B4FF400729A610C4B0022DA6135
:102330000A4B00221A62094B00225A62074B002204
:102340009A62064B0A22DA62044805F05DFD0346F4
:10235000002B01D000F038FB00BF80BD80090020B9
:10236000003C004080B586B000AF07F108030022B2
:102370001A605A609A60DA603B4600221A605A601E
:102380001D4B4FF080421A601B4B42F20F725A6095
:10239000194B00229A60184B6322DA60164B002218
:1023A0001A61154B00229A61134806F05BFD034643
:1023B000002B01D000F008FB4FF48053BB6007F105
:1023C000080319460C4806F0EFFE0346002B01D027
:1023D00000F0FAFA00233B6000237B603B4619467D
:1023E000054807F0F1F80346002B01D000F0ECFAA5
:1023F00000BF1837BD4680BD980A002080B500AFE9
:10240000114B124A1A60104B4FF4E1325A600E4BD6
:1024100000229A600C4B0022DA600B4B00221A61FA
:10242000094B0C225A61084B00229A61064B00228C
:10243000DA61054807F04AF90346002B01D000F0A5
:10244000C3FA00BF80BD00BFE00A002000100140B9
:1024500080B500AF114B124A1A60104B4FF4E132B5
:102460005A600E4B00229A600C4B0022DA600B4B34
:1024700000221A61094B0C225A61084B00229A6112
:10248000064B0022DA61054807F020F90346002BCD
:1024900001D000F099FA00BF80BD00BF280B0020DA
:1024A0000044004080B582B000AF00237B602B4B1E
:1024B0001B6B2A4A43F400131363284B1B6B03F472
:1024C00000137B607B6800233B60244B1B6B234A1B
:1024D00043F480031363214B1B6B03F480033B60C5
:1024E0003B68002205210D2002F0B2FB0D2002F016
:1024F000CBFB002205210E2002F0AAFB0E2002F0E9
:10250000C3FB002205210F2002F0A2FB0F2002F0E6
:10251000BBFB00220521102002F09AFB102002F0E4
:10252000B3FB002205212F2002F092FB2F2002F0A6
:10253000ABFB002205213A2002F08AFB3A2002F090
:10254000A3FB00220521462002F082FB462002F078
:102550009BFB00BF0837BD4680BD00BF003802406E
:1025600080B58AB000AF07F1140300221A605A60E8
:102570009A60DA601A6100233B61414B1B6B404A51
:1025800043F0040313633E4B1B6B03F004033B61F6
:102590003B690023FB603A4B1B6B394A43F08003D5
:1025A0001363374B1B6B03F08003FB60FB68002356
:1025B000BB60334B1B6B324A43F001031363304B58
:1025C0001B6B03F00103BB60BB6800237B602C4BDB
:1025D0001B6B2B4A43F002031363294B1B6B03F065
:1025E00002037B607B6800224FF40051254803F012
:1025F00005F9002248F21041234803F0FFF80022B9
:102600000321224803F0FAF84FF400537B610123C1
:10261000BB610023FB6100233B6207F114031946F1
:10262000184802F04FFF01237B610023BB610023A8
:10263000FB6107F114031946134802F043FF48F207
:1026400010437B610123BB610023FB6100233B62DC
:1026500007F1140319460C4802F034FF03237B6191
:102660000123BB610023FB6100233B6207F11403DC
:102670001946064802F026FF00BF2837BD4680BD38
:1026800000380240000802400000024000040240FE
:1026900080B582B000AF78600B467B807B681B689A
:1026A0000E4A934216D14FF400510D4803F0BFF883
:1026B000FFF7B4FB4FF480720A490B4807F0E1F8CA
:1026C0007B68DB6B1B681A687B68DB6B1B6822F01E
:1026D00008021A6000BF0837BD4680BD00440040B4
:1026E00000080240B4040020280B002080B584B00C
:1026F00000AF78607B680E4A934214D10023FB60E0
:102700000C4B1B6807F10C021146184608F03CFE02
:10271000FB68002B07D0084B4FF080521A60BFF3C4
:102720004F8FBFF36F8F00BF1037BD4680BD00BF16
:1027300008070020B004002004ED00E080B582B05E
:1027400000AF78607868FFF76DF800BF0837BD46C6
:1027500080BD000080B584B000AF78607B68154A0A
:10276000934209D101221021134803F047F8134B7B
:102770001B68184608F0A8FA114B1B697A689A4240
:1027800014D10023FB600F4B1B6807F10C021146AC
:1027900018460AF0BDF8FB68002B07D00A4B4FF033
:1027A00080521A60BFF34F8FBFF36F8F00BF103797
:1027B000BD4680BDD008002000000240AC040020CF
:1027C000340C0020300C002004ED00E02DE9B04373
:1027D00094B004AF7863594C3846594B01934FF489
:1027E00080630093574B4FF400425649FEF720FC9C
:1027F00025463C460FCC0FC50FCC0FC594E80F0003
:1028000085E80F004D4B4FF4D9725A624B4B0722AB
:1028100083F82820494B072283F82920474B0122BF
:1028200083F82A20454BFF2283F82E20434B782241
:1028300083F82F20414B0A229A854048FEF738FC46
:1028400042213E48FEF762FC034687F83F3097F886
:102850003F3019463C4800F01FFD3848FEF79EFE09
:10286000F1213648FEF787FE384800F015FD384B59
:1028700000221A6000225A60364B374A1A60354BE4
:10288000364A5A60334B00229A61354ADA61314B3D
:10289000344A1A61344A5A612E4B344A9A60344A97
:1028A000DA602C4B00229A63324ADA63294B324AAF
:1028B0001A63324A5A63274B314A9A62314ADA62C2
:1028C000244B314A1A62314A5A6221490A684B68DC
:1028D00012F1010843F100091D4B42461A604A46B5
:1028E0005A600C2200212A480CF09CFC284B184A04
:1028F00092E8030083E80300264B154A92E80300A0
:1029000083E80300244B029340230193114B00936F
:1029100008230F4A1E49214800F064FC4FF4C87395
:1029200058221C490548FEF7E1FE1D4800F0B4FCA2
:102930004FF4FA6008F081F900BFC6E7340C0020BC
:1029400080090020000002402026010834260108EA
:10295000A40C0020640C0020F2F3F4F5D7A340404F
:10296000000069400D37E0F3C32259404D840D4FFC
:10297000AF88564000407F4077BE9F1A2FDD5E40F3
:10298000E15D2EE23BDD5E403D2CD49AE687584067
:10299000AC0C0020B80C0020C00C0020000000206F
:1029A0003C26010880B582B000AF78607B681B6868
:1029B000044A934201D101F0A7FB00BF0837BD468E
:1029C00080BD00BF0008004080B400AF72B600BFF9
:1029D00000BFFDE780B485B000AF786039600023A8
:1029E000FB7310E0FB7B3A6813441978FB7B7A6831
:1029F00013441A78FB7B386803444A40D2B21A70F9
:102A0000FB7B0133FB73FB7B0F2BEBD900BF00BFBC
:102A10001437BD465DF8047B704780B483B000AFC7
:102A20000346FB7197F90730002B01DA1B2200E007
:102A3000002297F907305B005BB253405BB2DBB218
:102A400018460C37BD465DF8047B704780B584B0EE
:102A500000AF78600123FB73102279683E480CF0C8
:102A6000F6FC1023BB736FE0BB7B03F00F03002B5E
:102A700058D1BB7B384A9818BB7B103B364A13446D
:102A8000102219460CF0E3FCFB7B002B01D11B2329
:102A9000FB73BB7B304AD15CBB7B033B2E4AD35CD0
:102AA0001A462E4B9A5CFB7B5340DAB2BB7B4A4002
:102AB000D1B2294AD154BB7B0133274AD15CBB7BBD
:102AC000023B254AD35C1A46244B9A5CBB7B0133FC
:102AD0004A40D1B2204AD154BB7B02331E4AD15C5A
:102AE000BB7B013B1C4AD35C1A461C4B9A5CBB7BEC
:102AF00002334A40D1B2184AD154BB7B0333164A41
:102B0000D15CBB7B043B144AD35C1A46134B9A5CE2
:102B1000BB7B03334A40D1B20F4AD154FB7B5B00ED
:102B2000FB730EE0BB7B0C4A13441968BB7B043B70
:102B3000094A13441A68BB7B074803444A401A6099
:102B400000BFBB7B0433BB73BB7BAF2B8CD900BFF7
:102B500000BF1037BD4680BD100D00207C26010847
:102B600080B582B000AF03463960FB71FB791B0171
:102B70001A46054B134439681846FFF72BFF00BF70
:102B80000837BD4680BD00BF100D002080B485B061
:102B900000AF78600023FB730DE0FB7B7A68134481
:102BA0001B781946FB7B7A681344084A525C1A70FA
:102BB000FB7B0133FB73FB7B0F2BEED900BF00BF08
:102BC0001437BD465DF8047B704700BF7C260108C2
:102BD00080B485B000AF78607B685B78FB737B68FE
:102BE00004335A787B685A707B6803F108027B686B
:102BF000043352785A707B6803F10C027B68083307
:102C000052785A707B680C33FA7B5A707B689B78D9
:102C1000FB737B6808339A787B689A707B6808330B
:102C2000FA7B9A707B6804339B78FB737B6803F1B3
:102C30000C027B68043392789A707B680C33FA7BC1
:102C40009A707B68DB78FB737B680C33DA787B687F
:102C5000DA707B6803F108027B680C33D278DA7093
:102C60007B681A1D7B680833D278DA707B6804337E
:102C7000FA7BDA7000BF1437BD465DF8047B7047FD
:102C800080B584B000AF78600023FB7377E0FB7BF6
:102C90009B007A681A4407F1080312681A60FA7AEE
:102CA0007B7A5340DBB2FB727A7A3B7A5340DBB2D9
:102CB0007B723A7ABB7A5340DBB23B723B7A18465E
:102CC000FFF7ABFE0346BB727B7A1846FFF7A5FE03
:102CD00003461A463B7A5340DBB23B72FB7A1846F6
:102CE000FFF79BFE03467B723A7AFB7A5340DBB2D6
:102CF0003B72397AFB7B9B007A6813441A78FB7B22
:102D00009B00786803444A40D2B21A703A7ABB7A80
:102D10005340DBB23B72397AFB7B9B007A681344E9
:102D20005A78FB7B9B00786803444A40D2B25A70C1
:102D30003A7A7B7A5340DBB23B72397AFB7B9B0059
:102D40007A6813449A78FB7B9B00786803444A4076
:102D5000D2B29A703A7ABB7A5340DBB23B72397A7C
:102D6000FB7B9B007A681344DA78FB7B9B007868D6
:102D700003444A40D2B2DA70FB7B0133FB73FB7B26
:102D8000032B84D900BF00BF1037BD4680BD80B57E
:102D900084B000AF786039603B68BB607A683B689C
:102DA0009A4204D010227968B8680CF050FB0023D6
:102DB000FB7318E0FB7B39681846FFF7D1FE3868D3
:102DC000FFF7E4FEB868FFF703FFFB7B0133FB73FB
:102DD000FB7B0A2B03D0B868FFF752FF03E039688A
:102DE0000A20FFF7BDFEFB7B0A2BE3D100BF00BF2B
:102DF0001037BD4680BD80B485B000AFF860B960C3
:102E00001346FB71FB795A1EFA711946FA680A4497
:102E10001178BA68D2B21846FB6803444A40D2B26D
:102E20001A70BB681B0ABB60BB68002BEAD100BFED
:102E300000BF1437BD465DF8047B704780B483B093
:102E400000AF78600B46FB70FB787A6813441A7801
:102E50000132D2B21A701B78002B0FD1FB78032BF2
:102E600005D8FB780133FB70FB78032BECD9FB789A
:102E7000013BFB70FB78082BE6D800E000BF00BFE9
:102E80000C37BD465DF8047B704780B485B000AF59
:102E900078600023BB600023FB6011E0BB681B026D
:102EA0007968FA680A4412781343BB60BB68590812
:102EB0007A68FB681344CAB21A70FB680133FB607E
:102EC000FB680F2BEAD9BB6803F00103002B07D086
:102ED0007B681B7883F01E03DB43DAB27B681A70D1
:102EE00000BF1437BD465DF8047B7047B0B588B0AD
:102EF00000AF7860396007F10C0300221A605A6055
:102F00009A60DA600023BB771DE08023FB7714E032
:102F1000BB7F7A6813441A78FB7F1340DBB2002B27
:102F200005D007F10C0319463868FFF753FD3868E0
:102F3000FFF7ABFFFB7F5B08FB77FB7F002BE7D145
:102F4000BB7F0133BB77BB7F0F2BDED93B681D46B0
:102F500007F10C040FCC28606960AA60EB6000BF29
:102F60002037BD46B0BD80B584B000AFF860B96011
:102F70007A603B603B7E002B18D0FB687968B868AC
:102F800098470DE03B7E7A68134419783B7E3A6897
:102F900013441A783B7EF86903444A40D2B21A704F
:102FA0003B7E5A1E3A76002BECD100E000BF103772
:102FB000BD4680BD80B586B000AFF860B9607A606C
:102FC0003B60BB681B093B61FB687B610AE0396AB7
:102FD0007869FFF7FFFC3B68396A786898477B6936
:102FE00010337B613B695A1E3A61002BEFD1BB68FD
:102FF00003F00F033B613B69002B17D00DE03A6AE9
:103000003B69134419787A693B6913441A78386A22
:103010003B6903444A40D2B21A703B695A1E3A6176
:10302000002BECD13B68396A7868984700BF1837A5
:10303000BD4680BD90B593B002AFF8607A603B604A
:103040000B46FB723B681B09FB630F2387F83B3081
:103050003A687968386D0CF0FAF9FB6807F12404D6
:10306000186859689A68DB680FC4FB7A082B14D07B
:10307000082B26DC022B1BD0052B22D197F82C30F5
:1030800003F07F03DBB287F82C3097F8303003F081
:103090007F03DBB287F8303013E097F8333063F00A
:1030A0007F03DBB287F83330002387F83B3008E03A
:1030B00097F83B2007F1240311461846FFF7BEFEA0
:1030C00000BF3B6D7B6318E007F1140207F1240396
:1030D00011461846FFF75BFE07F11403796B18469B
:1030E000FFF778FC97F83B2007F1240311461846B8
:1030F000FFF7A4FE7B6B10337B63FB6B5A1EFA63F6
:10310000002BE1D13B68DBB203F00F03DBB207F128
:10311000240007F124017A6B019200937B6B024635
:103120000348FFF720FF00BF4437BD4690BD00BFF6
:103130008F2D000880B58AB002AFF860B9607A6060
:103140003B6007F1100300221A605A609A60DA604F
:103150003B68D90007F1100307221846FFF74BFE22
:10316000BB6AD90007F110030F221846FFF743FE90
:10317000FB6A00930D4BFA683968B868FFF71AFFCD
:10318000FB6A0093094BFA68B96A7868FFF712FF87
:1031900007F11000FB6A0093044BFA681021FFF757
:1031A00009FF00BF2037BD4680BD00BFED2E0008DF
:1031B00080B584B000AFF860B9607A603B60F868B1
:1031C000FFF744FC79687868FFF7E1FD0C22B968E5
:1031D00038680CF03CF93B680F3301221A70103745
:1031E000BD4680BDB0B594B002AFF860B9607A60FA
:1031F0003B603A6EFB6D13447B6407F1340300229D
:103200001A605A609A60DA6007F1240300221A609B
:103210005A609A60DA6007F1140300221A605A605B
:103220009A60DA6007F1340307F12402B968F8689C
:10323000FFF7BEFF07F134003B6E0093FB6DBA6DE4
:103240000221FFF7F7FE07F1340207F134031146BC
:103250001846FFF79CFD07F1240007F114030193C2
:10326000FB6D00933B683A6E7968FFF763FF07F1E7
:10327000140207F1340311461846FFF7ABFB7B6CD1
:103280001D4607F114040FCC28606960AA60EB604A
:1032900000BF4837BD46B0BD0FB480B582B000AFA7
:1032A00007F114033B603B683A694FF480710C48A6
:1032B0000BF0AAFF78607B68B3F5807F02DD4FF4E6
:1032C00080737B607B689AB264230549054806F0E9
:1032D0004DFA00BF0837BD46BDE8804004B07047D6
:1032E000C00D0020E00A002080B582B000AF0023AE
:1032F0007B60124B5B6C114A43F4804353640F4B69
:103300005B6C03F480437B607B6800233B600B4B6A
:103310001B6C0A4A43F080531364084B1B6C03F088
:1033200080533B603B6800220F216FF0010001F0E9
:103330008FFC00BF0837BD4680BD00BF003802408B
:1033400080B58AB000AF786007F1140300221A60DC
:103350005A609A60DA601A617B681B681B4A934264
:103360002FD100233B611A4B5B6C194A43F48073E5
:103370005364174B5B6C03F480733B613B69002320
:10338000FB60134B1B6B124A43F001031363104B9A
:103390001B6B03F00103FB60FB6802237B610323CB
:1033A000BB610023FB6107F114031946094802F0D1
:1033B00089F800220521122001F04AFC122001F0B8
:1033C00063FC00BF2837BD4680BD00BF0020014020
:1033D000003802400000024080B594B000AF786031
:1033E00007F1380300221A605A609A60DA601A61A5
:1033F0007B681B68644A93427CD100237B63634BE8
:103400001B6B624A43F002031363604B1B6B03F0B8
:1034100002037B637B6B4FF48063BB631223FB630C
:1034200000233B6403237B640423BB6407F138035C
:103430001946574802F046F84FF40073BB63122355
:10344000FB6300233B6403237B640923BB6407F114
:10345000380319464E4802F035F800233B634B4BC6
:103460001B6C4A4A43F480031364484B1B6C03F4FF
:1034700080033B633B6B474B474A1A60454B4FF019
:1034800060625A60434B00229A60424B0022DA602D
:10349000404B4FF480621A613E4B00225A613D4B13
:1034A00000229A613B4B0022DA613A4B00221A62F9
:1034B000384B00225A62374801F0F4FB0346002BD8
:1034C00001D0FFF781FA7B68324A9A63314A7B6800
:1034D000936300220521212001F0BAFB212001F095
:1034E000D3FB00220521222001F0B2FB222001F0B3
:1034F000CBFB2FE17B681B68284A934240F02A816E
:103500000023BB61214B1B6B204A43F00103136373
:103510001E4B1B6B03F00103BB61BB6900237B6186
:103520001A4B1B6B194A43F002031363174B1B6BB7
:1035300003F002037B617B6907F11C0300221A6020
:103540005A609A60DA601A614FF48073FB6111234C
:103550003B6201237B620023BB6207F11C03194617
:103560000F4801F0AFFF4FF48073FB6111233B6202
:1035700001237B6207F11C031946054801F0A2FFF5
:103580000023FB6423E000BF0058004000380240E5
:1035900000040240B007002058600240005C004078
:1035A0000000024000224FF480716C4802F026F9BE
:1035B000012000F0C9FD01224FF48071674802F03C
:1035C0001DF9012000F0C0FDFB6C0133FB64FB6CB6
:1035D000082B07DC4FF48071614802F0F7F80346CE
:1035E000002BDFD000233B615E4B1B6B5D4A43F039
:1035F000010313635B4B1B6B03F001033B613B69EE
:103600000023FB60574B1B6B564A43F002031363C6
:10361000544B1B6B03F00203FB60FB684FF4807399
:10362000FB6112233B6200237B620323BB62042302
:10363000FB6207F11C031946484801F043FF4FF4B1
:103640008073FB6112233B6200237B620323BB6216
:103650000923FB6207F11C031946414801F032FFC0
:103660000023BB603F4B1B6C3E4A43F400031364D2
:103670003C4B1B6C03F40003BB60BB683A4B3B4AFA
:103680001A60394B4FF0C0625A60374B00229A6083
:10369000354B0022DA60344B4FF480621A61324BB2
:1036A00000225A61304B00229A612F4B0022DA61CE
:1036B0002D4B00221A622C4B00225A622A4801F03C
:1036C000F1FA0346002B01D0FFF77EF97B68264A0A
:1036D0009A63254A7B689363254B264A1A60244BDC
:1036E0004FF0C0625A60224B40229A60204B002269
:1036F000DA601F4B4FF480621A611D4B00225A6141
:103700001B4B00229A611A4B0022DA61184B0022EF
:103710001A62174B00225A62154801F0C3FA034699
:10372000002B01D0FFF750F97B68114A5A63104A09
:103730007B68936300220521482001F089FA482024
:1037400001F0A2FA00220521492001F081FA492066
:1037500001F09AFA00BF5037BD4680BD000002401C
:10376000000402400038024010080020406002407F
:10377000700800207060024080B58EB000AF7860A5
:1037800007F1240300221A605A609A60DA601A6115
:103790007B681B687D4A934262D100233B627C4B6D
:1037A0005B6C7B4A43F480535364794B5B6C03F44A
:1037B00080533B623B6A0023FB61754B1B6B744A71
:1037C00043F001031363724B1B6B03F00103FB61B6
:1037D000FB69A0237B620223BB620023FB620323FD
:1037E0003B6305237B6307F124031946694801F015
:1037F00069FE694B694A1A60674B4FF080625A60F4
:10380000654B40229A60644B0022DA60624B4FF4B1
:1038100080621A61604B00225A615F4B00229A61FC
:103820005D4B0022DA615C4B00221A625A4B002287
:103830005A62594801F036FA0346002B01D0FFF7CF
:10384000C3F87B68544A9A64534A7B6893630022A6
:103850000521232001F0FCF9232001F015FA90E066
:103860007B681B684E4A93422DD10023BB61484BB5
:103870001B6C474A43F480431364454B1B6C03F4B1
:103880008043BB61BB6900237B61414B1B6B404A9A
:1038900043F0020313633E4B1B6B03F002037B6197
:1038A0007B694FF470437B620223BB620023FB629F
:1038B00003233B6305237B6307F12403194639483F
:1038C00001F000FE5DE07B681B68374A934258D1E7
:1038D00000233B612E4B1B6C2D4A43F400431364C1
:1038E0002B4B1B6C03F400433B613B690023FB60E3
:1038F000274B1B6B264A43F002031363244B1B6BBD
:1039000003F00203FB60FB6838237B620223BB6287
:103910000023FB6203233B6306237B6307F124033D
:103920001946204801F0CEFD204B214A1A601F4B5A
:1039300000225A601D4B40229A601C4B0022DA6024
:103940001A4B4FF480621A61184B00225A61174BD0
:1039500000229A61154B0022DA61144B00221A6290
:10396000124B00225A62114801F09CF90346002BC9
:1039700001D0FFF729F87B680C4A9A640B4A7B68F0
:10398000936300BF3837BD4680BD00BF00300140A3
:103990000038024000000240D80900204064024084
:1039A0000038004000040240003C0040380A00207B
:1039B000B860024080B584B000AF78607B681B6857
:1039C000B3F1804F15D10023FB600C4B1B6C0B4AED
:1039D00043F001031364094B1B6C03F00103FB600C
:1039E000FB68002205211C2001F032F91C2001F0A7
:1039F0004BF900BF1037BD4680BD00BF0038024004
:103A000080B58CB000AF786007F11C0300221A600B
:103A10005A609A60DA601A617B681B68684A934250
:103A200062D10023BB61674B5B6C664A43F01003B5
:103A30005364644B5B6C03F01003BB61BB690023F0
:103A40007B61604B1B6B5F4A43F0020313635D4B6A
:103A50001B6B03F002037B617B69C023FB610223C4
:103A60003B6200237B620323BB620723FB6207F1F7
:103A70001C031946544801F025FD544B544A1A6062
:103A8000524B4FF000625A60504B40229A604F4BAD
:103A90000022DA604D4B4FF480621A614B4B0022DA
:103AA0005A614A4B00229A61484B0022DA61474B27
:103AB00000221A62454B00225A62444801F0F2F893
:103AC0000346002B01D0FEF77FFF7B683F4A9A63D5
:103AD0003E4A7B68936300220521252001F0B8F857
:103AE000252001F0D1F866E07B681B68394A9342D3
:103AF00061D100233B61334B1B6C324A43F40033EA
:103B00001364304B1B6C03F400333B613B690023AF
:103B1000FB602C4B1B6B2B4A43F001031363294BB7
:103B20001B6B03F00103FB60FB680C23FB610223AA
:103B30003B6200237B620323BB620723FB6207F126
:103B40001C031946244801F0BDFC244B244A1A608A
:103B5000224B4FF000625A60204B00229A601F4BAC
:103B60000022DA601D4B4FF480621A611B4B002269
:103B70005A611A4B00229A61184B0022DA61174BE6
:103B800000221A62154B00225A62144801F08AF88A
:103B90000346002B01D0FEF717FF7B680F4ADA635C
:103BA0000E4A7B68936300220521262001F050F81D
:103BB000262001F069F800BF3037BD4680BD00BF48
:103BC000001001400038024000040240700B002049
:103BD000B86402400044004000000240D00B0020C6
:103BE0008860024080B58EB000AF78600023FB6231
:103BF0000023BB620023FB60334B1B6C324A43F053
:103C000004031364304B1B6C03F00403FB60FB687C
:103C100007F1100207F114031146184604F0C2F828
:103C20003B6AFB62FB6A002B03D104F093F87863D4
:103C300004E004F08FF803465B007B637B6B234A50
:103C4000A2FB03239B0C013BBB62214B214A1A6060
:103C50001F4B40F2E732DA601D4ABB6A53601C4BCF
:103C600000221A611A4B00229A60194B00229A61B5
:103C7000174805F0F7F8034687F8333097F83330E4
:103C8000002B1BD1124805F03DF9034687F833306D
:103C900097F83330002B11D11E2000F0F5FF7B6820
:103CA0000F2B08D8002279681E2000F0D1FF0A4AA5
:103CB0007B68136002E0012387F8333097F83330D4
:103CC00018463837BD4680BD0038024083DE1B43AE
:103CD000C00E0020000800401400002080B400AF97
:103CE00000BFFDE780B400AF00BFFDE780B400AFC8
:103CF00000BFFDE780B400AF00BFFDE780B400AFB8
:103D000000BFFDE780B400AF00BFBD465DF8047B97
:103D10007047000080B500AF024801F05BF900BFBA
:103D200080BD00BF1008002080B500AF024801F040
:103D300051F900BF80BD00BFB007002080B500AFC3
:103D40000348FFF7A9FA034801F044F900BF80BD1A
:103D50004C2601087008002080B500AF024801F031
:103D600039F900BF80BD00BFD00B002080B500AF87
:103D7000024800F04CFB00BF80BD00BFC006002021
:103D800080B500AF024805F01FF900BF80BD00BF3D
:103D9000980A002080B500AF024805F015F900BF71
:103DA00080BD00BFC00E002080B500AF024801F00A
:103DB000B2FE00BF80BD00BF0807002080B500AF85
:103DC000024802F019F800BF80BD00BF08070020BC
:103DD00080B500AF024804F059FD00BF80BD00BFB0
:103DE000D008002080B500AF024805F0A3FD00BF59
:103DF00080BD00BFE00A002080B500AF024805F09A
:103E000099FD00BF80BD00BF280B002080B500AF2A
:103E1000024801F0DFF800BF80BD00BF380A002073
:103E200080B500AF024801F0D5F800BF80BD00BFEB
:103E3000D809002080B500AF024801F0CBF800BFE0
:103E400080BD00BF700B002080B500AF024801F0BC
:103E500062FE00BF80BD00BF5C07002080B500AFE0
:103E6000024801F0C9FF00BF80BD00BF5C07002011
:103E700080B483B000AF0346FB710F4B1B680E4A42
:103E800043F0807313600D4B1B680C4A43F0010331
:103E9000136000BF4FF060431B6803F00103002B69
:103EA000F8D04FF06042FB79136000BF0C37BD467D
:103EB0005DF8047B704700BFFCED00E0000E00E001
:103EC00080B400AF01231846BD465DF8047B7047FF
:103ED00080B582B000AF786039600BF08BFA034692
:103EE00016221A604FF0FF3318460837BD4680BDD2
:103EF00080B582B000AF78604FF0FF317868FFF78F
:103F0000E7FF00BFFDE780B586B000AFF860B9609D
:103F10007A6000237B610AE0AFF300800146BB6852
:103F20005A1CBA60CAB21A707B6901337B617A6924
:103F30007B689A42F0DB7B6818461837BD4680BD27
:103F400080B586B000AFF860B9607A6000237B610D
:103F500009E0BB685A1CBA601B781846FFF788FF57
:103F60007B6901337B617A697B689A42F1DB7B680C
:103F700018461837BD4680BD80B483B000AF786066
:103F80004FF0FF3318460C37BD465DF8047B704791
:103F900080B483B000AF786039603B684FF4005262
:103FA0005A60002318460C37BD465DF8047B704705
:103FB00080B483B000AF7860012318460C37BD464B
:103FC0005DF8047B704780B485B000AFF860B960DD
:103FD0007A60002318461437BD465DF8047B7047AD
:103FE00080B586B000AF7860144A154BD31A7B6158
:103FF0007B693B61134B1B68002B02D1114B124AAA
:104000001A60104B1A687B6813443A699A4207D2C7
:104010000BF0F0F903460C221A604FF0FF3309E071
:10402000084B1B68FB60074B1A687B681344054A02
:104030001360FB6818461837BD4680BD000002209B
:1040400000040000080F0020B04D002080B400AF35
:10405000064BD3F88830054A43F47003C2F8883021
:1040600000BFBD465DF8047B704700BF00ED00E077
:10407000DFF834D0FFF7EAFF0C480D490D4A002362
:1040800002E0D458C4500433C4188C42F9D30A4A0D
:104090000A4C002301E013600432A242FBD30BF070
:1040A000AFF9FDF74FFF704700000220000000202D
:1040B000E8010020F02B0108E8010020B04D0020AD
:1040C000FEE7000080B500AF0E4B1B680D4A43F4BD
:1040D000007313600B4B1B680A4A43F48063136040
:1040E000084B1B68074A43F480731360032000F0F9
:1040F000A4FD0F20FFF776FDFFF7F6F80023184622
:1041000080BD00BF003C024080B400AF064B1B786E
:104110001A46064B1B681344044A136000BFBD4691
:104120005DF8047B704700BF180000200C0F0020D2
:1041300080B400AF034B1B681846BD465DF8047B96
:10414000704700BF0C0F002080B584B000AF7860CE
:10415000FFF7EEFFB8607B68FB60FB68B3F1FF3FE1
:1041600005D00A4B1B781A46FB681344FB6000BF5E
:10417000FFF7DEFF0246BB68D31AFA689A42F7D807
:1041800000BF00BF1037BD4680BD00BF1800002033
:1041900080B584B000AF78600023FB737B68002B90
:1041A00001D1012333E07B681B6C002B09D17868B7
:1041B000FFF7C6F87B6800225A647B68002283F808
:1041C0003C207B681B6C03F01003002B18D17B682C
:1041D0001B6C23F4885323F0020343F002027B6834
:1041E0001A64786800F076FB7B6800225A647B686A
:1041F0001B6C23F0030343F001027B681A6401E0A7
:104200000123FB737B68002283F83C20FB7B18466C
:104210001037BD4680BD000080B485B000AF786027
:104220000023BB607B6893F83C30012B01D1022353
:10423000A1E07B68012283F83C207B681B689B68B7
:1042400003F00103012B18D07B681B689A687B6818
:104250001B6842F001029A604A4B1B684A4AA2FB63
:1042600003239A0C13465B001344BB6002E0BB6857
:10427000013BBB60BB68002BF9D17B681B689B6866
:1042800003F00103012B69D17B681B6C23F4E0630D
:1042900023F0010343F480727B681A647B681B6817
:1042A0005B6803F48063002B07D07B681B6C23F4EE
:1042B000405343F480527B681A647B681B6C03F4A0
:1042C0008053B3F5805F06D17B685B6C23F00602F8
:1042D0007B685A6402E07B6800225A647B68002293
:1042E00083F83C20294BFB607B681B686FF022023F
:1042F0001A607B681B685B687A68126843F08063A9
:1043000043F020035360FB685B6803F01F03002B3E
:104310000FD17B681B689B6803F04053002B29D1A9
:104320007B681B689A687B681B6842F080429A60D1
:1043300020E07B681B68164A93421BD17B681B6890
:104340009B6803F04053002B14D17B681B689A686C
:104350007B681B6842F080429A600BE07B681B6CB4
:1043600043F010027B681A647B685B6C43F00102C7
:104370007B685A64002318461437BD465DF8047BF9
:10438000704700BF1000002083DE1B430023014064
:104390000020014080B483B000AF78607B6893F860
:1043A0003C30012B01D102232BE07B68012283F8F2
:1043B0003C207B681B689A687B681B6822F00102BE
:1043C0009A607B681B689B6803F00103002B13D184
:1043D0007B681B685B687A68126823F0806323F04F
:1043E000200353607B681B6C23F4885323F0010384
:1043F00043F001027B681A647B68002283F83C204A
:10440000002318460C37BD465DF8047B704780B525
:1044100086B000AF786000237B6100233B617B683E
:104420001B681B68FB607B681B685B68BB60FB6884
:1044300003F002037B61BB6803F020033B617B69EF
:10444000002B49D03B69002B46D07B681B6C03F0E6
:104450001003002B05D17B681B6C43F400727B6852
:104460001A647B681B689B6803F04053002B2BD1B8
:104470007B681B7E002B27D17B681B68DB6A03F4FB
:104480007003002B06D07B681B689B6803F4806375
:10449000002B19D17B681B685A687B681B6822F067
:1044A00020025A607B681B6C23F480727B681A645C
:1044B0007B681B6C03F48053002B05D17B681B6C5D
:1044C00043F001027B681A647868FEF737F97B686D
:1044D0001B686FF012021A60FB6803F004037B6133
:1044E000BB6803F080033B617B69002B57D03B69BD
:1044F000002B54D07B681B6C03F01003002B05D1FC
:104500007B681B6C43F400527B681A647B681B68F1
:104510009B6803F44013002B39D17B681B689B6BAD
:1045200003F44013002B06D07B681B689B6803F4E0
:104530008063002B2BD17B681B685B6803F480636E
:10454000002B24D17B681B689B6803F04053002B31
:104550001DD17B681B7E002B19D17B681B685A68B4
:104560007B681B6822F080025A607B681B6C23F416
:1045700080527B681A647B681B6C03F48073002B89
:1045800005D17B681B6C43F001027B681A64786874
:1045900000F09CFA7B681B686FF00C021A60FB68E5
:1045A00003F001037B61BB6803F040033B617B695F
:1045B000002B17D03B69002B14D07B681B681B684D
:1045C00003F00103012B0DD17B681B6C43F4803297
:1045D0007B681A64786800F037F87B681B686FF0B6
:1045E00001021A60FB6803F020037B61BB6803F0E3
:1045F00080633B617B69002B15D03B69002B12D097
:104600007B685B6C43F002027B685A647B681B68C2
:104610006FF020021A60786800F020F87B681B6851
:104620006FF020021A6000BF1837BD4680BD80B40D
:1046300083B000AF78607B681B68DB6C18460C3772
:10464000BD465DF8047B704780B483B000AF7860EE
:1046500000BF0C37BD465DF8047B704780B483B063
:1046600000AF786000BF0C37BD465DF8047B704733
:1046700080B485B000AF786039600023BB607B6890
:1046800093F83C30012B01D1022313E17B68012216
:1046900083F83C203B681B68092B25D97B681B6885
:1046A000D9683B681B689BB21A4613465B001344EB
:1046B0001E3B072202FA03F3DA437B681B680A40B9
:1046C000DA607B681B68D9683B689A683B681B683E
:1046D0009BB2184603465B0003441E3B9A407B682E
:1046E0001B680A43DA6022E07B681B6819693B6833
:1046F0001B689BB21A4613465B001344072202FA5A
:1047000003F3DA437B681B680A401A617B681B6805
:1047100019693B689A683B681B689BB21846034658
:104720005B0003449A407B681B680A431A613B683C
:104730005B68062B24D87B681B68596B3B685A68FA
:1047400013469B001344053B1F2202FA03F3DA438E
:104750007B681B680A405A637B681B68596B3B681F
:104760001B689BB218463B685A6813469B0013446B
:10477000053B00FA03F27B681B680A435A634CE06E
:104780003B685B680C2B24D87B681B68196B3B6803
:104790005A6813469B001344233B1F2202FA03F37B
:1047A000DA437B681B680A401A637B681B68196BD5
:1047B0003B681B689BB218463B685A6813469B00CF
:1047C0001344233B00FA03F27B681B680A431A6315
:1047D00023E07B681B68D96A3B685A6813469B00D4
:1047E0001344413B1F2202FA03F3DA437B681B6840
:1047F0000A40DA627B681B68D96A3B681B689BB217
:1048000018463B685A6813469B001344413B00FA24
:1048100003F27B681B680A43DA62294BFB607B6802
:104820001B68284A93420FD13B681B68122B0BD19F
:10483000FB685B6823F40002FB685A60FB685B68F6
:1048400043F48002FB685A607B681B681D4A9342F0
:104850002BD13B681B681C4A934203D03B681B6802
:10486000112B22D1FB685B6823F48002FB685A603D
:10487000FB685B6843F40002FB685A603B681B6896
:10488000114A934211D1114B1B68114AA2FB032319
:104890009A0C13469B0013445B00BB6002E0BB68AC
:1048A000013BBB60BB68002BF9D17B68002283F819
:1048B0003C20002318461437BD465DF8047B704742
:1048C00000230140002001401200001010000020D1
:1048D00083DE1B4380B485B000AF7860794BFB600A
:1048E000FB685B6823F44032FB685A60FB685A68D7
:1048F0007B685B681A43FB685A607B681B685A6870
:104900007B681B6822F480725A607B681B68596858
:104910007B681B691A027B681B680A435A607B68C4
:104920001B685A687B681B6822F040725A607B687B
:104930001B6859687B689A687B681B680A435A60E1
:104940007B681B689A687B681B6822F400629A6027
:104950007B681B6899687B68DA687B681B680A4318
:104960009A607B689B6A584A934222D07B681B6896
:104970009A687B681B6822F070629A607B681B688B
:1049800099687B689A6A7B681B680A439A607B68AF
:104990001B689A687B681B6822F040529A607B68AB
:1049A0001B6899687B68DA6A7B681B680A439A60AF
:1049B0000FE07B681B689A687B681B6822F0706256
:1049C0009A607B681B689A687B681B6822F040527B
:1049D0009A607B681B689A687B681B6822F00202F9
:1049E0009A607B681B6899687B681B7E5A007B68AD
:1049F0001B680A439A607B6893F82030002B1BD019
:104A00007B681B685A687B681B6842F400625A60C6
:104A10007B681B685A687B681B6822F460425A6096
:104A20007B681B6859687B685B6A013B5A037B683B
:104A30001B680A435A6007E07B681B685A687B68FA
:104A40001B6822F400625A607B681B68DA6A7B6824
:104A50001B6822F47002DA627B681B68D96A7B6883
:104A6000DB69013B1A057B681B680A43DA627B68D5
:104A70001B689A687B681B6822F400729A607B68E6
:104A80001B6899687B6893F830305A027B681B6812
:104A90000A439A607B681B689A687B681B6822F4EB
:104AA00080629A607B681B6899687B685B699A0280
:104AB0007B681B680A439A6000BF1437BD465DF8E7
:104AC000047B7047002301400100000F80B483B0D5
:104AD00000AF786000BF0C37BD465DF8047B7047BF
:104AE00080B485B000AF78607B6803F00703FB609B
:104AF0000C4BDB68BB60BA684FF6FF031340BB602A
:104B0000FB681A02BB68134343F0BF6343F40033EE
:104B1000BB60044ABB68D36000BF1437BD465DF874
:104B2000047B704700ED00E080B400AF044BDB680D
:104B30001B0A03F007031846BD465DF8047B704767
:104B400000ED00E080B483B000AF0346FB7197F93D
:104B50000730002B0BDBFB7903F01F02074997F9A5
:104B600007305B09012000FA02F241F8232000BF60
:104B70000C37BD465DF8047B704700BF00E100E0E4
:104B800080B483B000AF03463960FB7197F90730FA
:104B9000002B0ADB3B68DAB20C4997F907301201A7
:104BA000D2B20B4483F800230AE03B68DAB208492A
:104BB000FB7903F00F03043B1201D2B20B441A76C7
:104BC00000BF0C37BD465DF8047B704700E100E094
:104BD00000ED00E080B489B000AFF860B9607A60A1
:104BE000FB6803F00703FB61FB69C3F10703042BB8
:104BF00028BF0423BB61FB690433062B02D9FB6980
:104C0000033B00E000237B614FF0FF32BB6902FAF7
:104C100003F3DA43BB681A407B699A404FF0FF31D7
:104C20007B6901FA03F3D9437B680B4013431846B1
:104C30002437BD465DF8047B704780B582B000AF75
:104C400078607868FFF74CFF00BF0837BD4680BD2D
:104C500080B586B000AF0346B9607A60FB7300236D
:104C60007B61FFF761FF78617A68B9687869FFF75F
:104C7000B1FF024697F90F3011461846FFF780FF43
:104C800000BF1837BD4680BD80B582B000AF034677
:104C9000FB7197F907301846FFF754FF00BF08373C
:104CA000BD4680BD80B586B000AF786000237B61D3
:104CB000FFF73EFA38617B68002B01D1012399E0B0
:104CC0007B68022283F835207B68002283F8342039
:104CD0007B681B681A687B681B6822F001021A60F7
:104CE0000FE0FFF725FA02463B69D31A052B08D9D6
:104CF0007B6820225A657B68032283F835200323D2
:104D000078E07B681B681B6803F00103002BE8D187
:104D10007B681B681B687B617A69384B13407B6139
:104D20007B685A687B689B681A437B68DB681A4318
:104D30007B681B691A437B685B691A437B689B69C4
:104D40001A437B68DB691A437B681B6A13437A69E1
:104D500013437B617B685B6A042B07D17B68DA6A4B
:104D60007B681B6B13437A6913437B617B681B6809
:104D70007A691A607B681B685B697B617B6923F0D9
:104D800007037B617B685B6A7A6913437B617B689D
:104D90005B6A042B17D17B689B6A7A6913437B613A
:104DA0007B68DB6A002B0ED0786800F00FFB0346AF
:104DB000002B08D07B6840225A657B68012283F86B
:104DC0003520012316E07B681B687A695A61786890
:104DD00000F0C6FA0346FB607B68DB6D3F229A4019
:104DE000FB689A607B6800225A657B68012283F821
:104DF0003520002318461837BD4680BD3F8010F08F
:104E000080B586B000AFF860B9607A603B6000237F
:104E1000FB75FB689B6D3B61FB6893F83430012B9D
:104E200001D1022340E0FB68012283F83420FB68B3
:104E300093F83530DBB2012B2FD1FB68022283F8C7
:104E40003520FB6800225A653B687A68B968F868C3
:104E500000F058FAFB68DB6D3F229A403B699A608C
:104E6000FB681B681A68FB681B6842F016021A6030
:104E7000FB681B6C002B07D0FB681B681A68FB687B
:104E80001B6842F008021A60FB681B681A68FB681E
:104E90001B6842F001021A6005E0FB68002283F8FB
:104EA00034200223FB75FB7D18461837BD4680BDB4
:104EB00080B584B000AF78607B689B6DFB60FFF7C6
:104EC00037F9B8607B6893F83530DBB2022B08D035
:104ED0007B6880225A657B68002283F83420012396
:104EE00052E07B681B681A687B681B6822F0160218
:104EF0001A607B681B685A697B681B6822F0800215
:104F00005A617B681B6C002B03D17B689B6C002B68
:104F100007D07B681B681A687B681B6822F0080250
:104F20001A607B681B681A687B681B6822F00102A4
:104F30001A6013E0FFF7FCF80246BB68D31A052B92
:104F40000CD97B6820225A657B68032283F83520C0
:104F50007B68002283F83420032315E07B681B68FC
:104F60001B6803F00103002BE4D17B68DB6D3F225B
:104F70009A40FB689A607B68012283F835207B6841
:104F8000002283F83420002318461037BD4680BD28
:104F900080B483B000AF78607B6893F83530DBB2C3
:104FA000022B04D07B6880225A6501230CE07B68C9
:104FB000052283F835207B681B681A687B681B68AC
:104FC00022F001021A60002318460C37BD465DF836
:104FD000047B704780B586B000AF78600023BB606B
:104FE0008E4B1B688E4AA2FB03239B0A7B617B6866
:104FF0009B6D3B613B691B68FB607B68DB6D082236
:105000009A40FB681340002B1AD07B681B681B6812
:1050100003F00403002B13D07B681B681A687B68BD
:105020001B6822F004021A607B68DB6D08229A403C
:105030003B699A607B685B6D43F001027B685A654F
:105040007B68DB6D01229A40FB681340002B12D075
:105050007B681B685B6903F08003002B0BD07B68C7
:10506000DB6D01229A403B699A607B685B6D43F07F
:1050700002027B685A657B68DB6D04229A40FB68FC
:105080001340002B12D07B681B681B6803F00203DF
:10509000002B0BD07B68DB6D04229A403B699A6041
:1050A0007B685B6D43F004027B685A657B68DB6D4F
:1050B00010229A40FB681340002B43D07B681B688A
:1050C0001B6803F00803002B3CD07B68DB6D1022CB
:1050D0009A403B699A607B681B681B6803F48023D5
:1050E000002B18D07B681B681B6803F40023002B7F
:1050F00008D17B681B6C002B24D07B681B6C786804
:1051000098471FE07B689B6C002B1BD07B689B6CD7
:105110007868984716E07B681B681B6803F4807307
:10512000002B07D17B681B681A687B681B6822F01C
:1051300008021A607B681B6C002B03D07B681B6C19
:10514000786898477B68DB6D20229A40FB681340A3
:10515000002B00F08F807B681B681B6803F0100336
:10516000002B00F087807B68DB6D20229A403B6932
:105170009A607B6893F83530DBB2052B36D17B68BB
:105180001B681A687B681B6822F016021A607B682D
:105190001B685A697B681B6822F080025A617B6831
:1051A0001B6C002B03D17B689B6C002B07D07B68AA
:1051B0001B681A687B681B6822F008021A607B680B
:1051C000DB6D3F229A403B699A607B68012283F83D
:1051D00035207B68002283F834207B681B6D002B10
:1051E0007ED07B681B6D7868984779E07B681B6888
:1051F0001B6803F48023002B1DD07B681B681B6891
:1052000003F40023002B0DD17B685B6C002B31D0A5
:105210007B685B6C786898472CE000BF100000202A
:10522000B5814E1B7B68DB6B002B23D07B68DB6B6F
:10523000786898471EE07B681B681B6803F48073DE
:10524000002B0FD17B681B681A687B681B6822F0F3
:1052500010021A607B68012283F835207B680022E7
:1052600083F834207B68DB6B002B03D07B68DB6B1F
:10527000786898477B685B6D002B32D07B685B6DEC
:1052800003F00103002B22D07B68052283F8352030
:105290007B681B681A687B681B6822F001021A6031
:1052A000BB680133BB607A699A4207D37B681B688D
:1052B0001B6803F00103002BF2D100E000BF7B6804
:1052C000012283F835207B68002283F834207B6834
:1052D000DB6C002B05D07B68DB6C7868984700E0BE
:1052E00000BF1837BD4680BD80B483B000AF786082
:1052F0007B6893F83530DBB218460C37BD465DF855
:10530000047B704780B485B000AFF860B9607A6004
:105310003B60FB681B681A68FB681B6822F48022EC
:105320001A60FB681B683A685A60FB689B68402BF0
:1053300008D1FB681B687A689A60FB681B68BA68CA
:10534000DA6007E0FB681B68BA689A60FB681B6854
:105350007A68DA6000BF1437BD465DF8047B704799
:1053600080B485B000AF78607B681B68DBB2103B0F
:10537000144AA2FB03231B09FB60134AFB68134476
:105380001B781A467B68DA65FB68032B09D97B68B2
:105390001B6823F47F7323F003031A1D7B689A654F
:1053A00007E07B681B6823F47F7323F003037A68AC
:1053B00093657B689B6D18461437BD465DF8047B8A
:1053C000704700BFABAAAAAA9427010880B485B091
:1053D00000AF78600023FB737B689B6ABB607B68CF
:1053E0009B69002B1FD1BB68032B56D801A252F832
:1053F00023F000BF055400081754000805540008A6
:105400009B5400087B68DB6A03F08073002B46D056
:105410000123FB7343E07B68DB6AB3F1C07F40D1BB
:105420000123FB733DE07B689B69B3F5005F21D1ED
:10543000BB68032B37D801A252F823F04D54000863
:10544000535400084D540008655400080123FB73B1
:1054500030E07B68DB6A03F08073002B25D00123EA
:10546000FB7322E07B68DB6AB3F1C07F1FD10123AD
:10547000FB731CE0BB68022B03D9BB68032B03D072
:1054800018E00123FB7315E07B68DB6A03F080738F
:10549000002B0ED00123FB730BE000BF0AE000BF1E
:1054A00008E000BF06E000BF04E000BF02E000BF6C
:1054B00000E000BFFB7B18461437BD465DF8047B57
:1054C000704700BF80B489B000AF786039600023B6
:1054D0007B6100233B610023BB610023FB6159E139
:1054E0000122FB6902FA03F37B613B681B687A695E
:1054F00013403B613A697B699A4240F048813B68BE
:105500005B6803F00303012B05D03B685B6803F085
:105510000303022B30D17B689B68BB61FB695B0096
:10552000032202FA03F3DB43BA691340BB613B6811
:10553000DA68FB695B0002FA03F3BA691343BB61E3
:105540007B68BA699A607B685B68BB610122FB6912
:1055500002FA03F3DB43BA691340BB613B685B6843
:105560001B0903F00102FB6902FA03F3BA69134352
:10557000BB617B68BA695A603B685B6803F00303F0
:10558000032B17D07B68DB68BB61FB695B000322E0
:1055900002FA03F3DB43BA691340BB613B689A68C4
:1055A000FB695B0002FA03F3BA691343BB617B68D2
:1055B000BA69DA603B685B6803F00303022B23D10E
:1055C000FB69DA087B68083253F82230BB61FB695B
:1055D00003F007039B000F2202FA03F3DB43BA69CF
:1055E0001340BB613B681A69FB6903F007039B002A
:1055F00002FA03F3BA691343BB61FB69DA087B68FB
:105600000832B96943F822107B681B68BB61FB69EB
:105610005B00032202FA03F3DB43BA691340BB6168
:105620003B685B6803F00302FB695B0002FA03F36B
:10563000BA691343BB617B68BA691A603B685B68EF
:1056400003F44033002B00F0A2800023FB60574B93
:105650005B6C564A43F480435364544B5B6C03F4D5
:105660008043FB60FB68524AFB699B08023352F897
:105670002330BB61FB6903F003039B000F2202FA96
:1056800003F3DB43BA691340BB617B68494A934229
:1056900019D07B68484A934213D07B68474A9342AB
:1056A0000DD07B68464A934207D07B68454A9342B7
:1056B00001D1042308E0072306E0032304E00223CA
:1056C00002E0012300E00023FA6902F003029200E5
:1056D0009340BA691343BB613549FB699B080233A8
:1056E000BA6941F82320384B9B68BB613B69DB43B7
:1056F000BA691340BB613B685B6803F48013002BFD
:1057000003D0BA693B691343BB612F4ABB699360FD
:105710002D4BDB68BB613B69DB43BA691340BB615E
:105720003B685B6803F40013002B03D0BA693B6944
:105730001343BB61244ABB69D360234B5B68BB61E5
:105740003B69DB43BA691340BB613B685B6803F4A8
:105750000033002B03D0BA693B691343BB611A4A7B
:10576000BB695360184B1B68BB613B69DB43BA697B
:105770001340BB613B685B6803F48033002B03D0AC
:10578000BA693B691343BB610F4ABB691360FB698C
:105790000133FB61FB690F2B7FF6A2AE00BF00BF98
:1057A0002437BD465DF8047B704700BF00380240D7
:1057B000003801400000024000040240000802409E
:1057C000000C024000100240003C014080B485B053
:1057D00000AF78600B467B807B681A697B8813403A
:1057E000002B02D00123FB7301E00023FB73FB7B42
:1057F00018461437BD465DF8047B704780B483B00B
:1058000000AF78600B467B8013467B707B78002B63
:1058100003D07A887B689A6103E07B881A047B68EE
:105820009A6100BF0C37BD465DF8047B704780B4B9
:1058300085B000AF78600B467B807B685B69FB605E
:105840007A88FB6813401A04FB68D9437B880B40B5
:105850001A437B689A6100BF1437BD465DF8047B2C
:105860007047000080B584B000AF78607B68002B83
:1058700001D101232BE17B6893F83D30DBB2002B93
:1058800006D17B68002283F83C207868FDF7A4FDF0
:105890007B68242283F83D207B681B681A687B683C
:1058A0001B6822F001021A607B681B681A687B681B
:1058B0001B6842F400421A607B681B681A687B68A8
:1058C0001B6822F400421A6002F044FAF8607B6818
:1058D0005B68814A934207D8FB68804A934294BF31
:1058E00001230023DBB206E0FB687D4A934294BFAC
:1058F00001230023DBB2002B01D00123E7E0FB688A
:10590000784AA2FB03239B0CBB607B681B685B6827
:1059100023F03F017B681B68BA680A435A607B68C2
:105920001B681B6A23F03F017B685B686A4A9342ED
:1059300002D8BB68013309E0BB684FF4967202FBE2
:1059400003F3694AA2FB03239B0901337A681268B7
:105950000B4313627B681B68DB6923F44F4222F020
:10596000FF027B685B685C498B4219D8FB68591E53
:105970007B685B685B00B1FBF3F3591C40F6FC737A
:105980000B40002B0AD0FB68591E7B685B685B00EC
:10599000B1FBF3F30133C3F30B0351E004234FE0F6
:1059A0007B689B68002B11D1FB68581E7B68596887
:1059B0000B465B000B44B0FBF3F30133C3F30B0363
:1059C000002B0CBF01230023DBB212E0FB68581E42
:1059D0007B6859680B469B000B4499000B44B0FB55
:1059E000F3F30133C3F30B03002B0CBF012300239C
:1059F000DBB2002B01D0012322E07B689B68002BE7
:105A00000ED1FB68581E7B6859680B465B000B443F
:105A1000B0FBF3F30133C3F30B0343F400430FE094
:105A2000FB68581E7B6859680B469B000B44990025
:105A30000B44B0FBF3F30133C3F30B0343F44043D4
:105A4000796809681343CB617B681B681B6823F086
:105A5000C0017B68DA697B681B6A1A437B681B6834
:105A60000A431A607B681B689B6823F4034323F096
:105A7000FF037A6811697A68D26811437A681268FC
:105A80000B4393607B681B68DB6823F0FF017B6836
:105A90005A697B689B691A437B681B680A43DA6012
:105AA0007B681B681A687B681B6842F001021A60F9
:105AB0007B6800221A647B68202283F83D207B6883
:105AC00000221A637B68002283F83E2000231846D8
:105AD0001037BD4680BD00BFA08601007F841E0038
